:020000040800F2
:1000000078070020E1020008116400081950000878
:1000100009640008F1030008C9720008000000002C
:10002000000000000000000000000000B1670008B0
:10003000210A00080000000019640008B9670008E0
:10004000FB020008FB020008FB020008FB0200089C
:10005000FB020008FB020008FB020008FB0200088C
:10006000FB020008FB020008FB020008B1040008C4
:10007000C1040008FB020008D1040008FB020008CC
:10008000FB020008FB020008FB020008FB0200085C
:10009000FB020008FB020008FB020008FB0200084C
:1000A000FB020008FB020008FB020008FB0200083C
:1000B000FB020008FB020008FB020008FB0200082C
:1000C000FB020008FB020008FB0200086166000852
:1000D000FB020008FB020008FB020008FB0200080C
:1000E000FB020008FB02000800000000FB02000801
:1000F000FB020008FB020008FB020008FB020008EC
:10010000FB020008FB020008FB020008FB020008DB
:10011000FB020008FB020008FB020008FB020008CB
:10012000FB020008E1040008FB020008FB020008D3
:10013000FB020008FB020008FB020008FB020008AB
:1001400000000000000000000000000000000000AF
:10015000FB020008FB020008FB020008FB0200088B
:10016000FB020008FB020008FB020008FB0200087B
:10017000FB020008FB020008A104000800000000C8
:10018000FB020008FB020008FB020008FB0200085B
:10019000FB020008FB020008FB020008FB0200084B
:1001A000FB020008FB020008FB0200080000000040
:1001B000FB020008FB020008FB020008FB0200082B
:1001C000FB020008FB020008000000000000000025
:1001D0000000000000000000FB020008000000001A
:1001E000000000000000000000000000000000000F
:1001F0000000000000000000FB020008FB020008F5
:10020000FB020008FB02000800000000FB020008DF
:10021000FB020008FB020008FB020008FB020008CA
:10022000FB02000800000000FB02000800000000C4
:10023000FB020008FB02000800000000FB020008AF
:10024000FB020008FB020008FB020008FB0200089A
:10025000FB020008FB020008FB020008FB0200088A
:10026000FB020008FB020008FB020008FB0200087A
:10027000FB020008FB020008FB020008000000006F
:10028000FB020008FB020008FB020008FB0200085A
:1002900000000000FB020008FB0200080000000054
:1002A00000000000FB020008FB020008FB0200083F
:1002B000FB020008FB020008FB020008FB0200082A
:1002C000FB020008FB020008FB020008DFF80CD06C
:1002D00000F07AF800480047F17200087807002023
:1002E0000648804706480047FEE7FEE7FEE7FEE7D0
:1002F000FEE7FEE7FEE7FEE7FEE7FEE79968000897
:10030000CD0200082DE9F05F0546002092469B468D
:1003100088460646814640241BE02846414647461B
:10032000224600F041F853465A46C01A914110D374
:1003300011461846224600F028F82D1A67EB0108EE
:100340004F4622460120002100F01FF817EB00095C
:100350004E41201EA4F10104DFDC484631462A4606
:100360004346BDE8F09FD2B201E000F8012B491EE0
:10037000FBD270470022F6E710B513460A46044642
:100380001946FFF7F0FF204610BD202A04DB203A73
:1003900000FA02F1002070479140C2F1200320FAD8
:1003A00003F3194390407047202A04DB203A21FAD6
:1003B00002F00021704721FA02F3D040C2F120027E
:1003C0009140084319467047064C074D06E0E06827
:1003D00040F0010394E8070098471034AC42F6D38C
:1003E000FFF778FFB09A0008D09A000800000000DC
:1003F000FEE7000000000000806B816C496D02295F
:1004000006D0012180F83510C16C41F04001C16473
:1004100000F012BB0000000010B5846BA26BA06C52
:10042000002A01680B6803F4002209D0A36BDB07E4
:1004300012D18AB1C968E26B01EBC201002213E05C
:10044000C2B90868000317D4E06BD4E9103202EB9C
:1004500080000861A3630FE00A6812030CD40969E5
:10046000E26B01EBC201012200F016FDA06B013826
:10047000A06301E0606CC860A06B216C88420BD166
:100480002068C16841F00101C1600068800758BF61
:1004900010BD012084F8350010BD000000000000F0
:1004A00040F22400C2F2000000F0F2BA00000000A6
:1004B00040F27400C2F2000001F0B2B90000000086
:1004C00040F2DC10C2F2000001F0AAB90000000006
:1004D00040F26410C2F2000001F0A2B90000000076
:1004E00040F2EC00C2F2000001F09AB900000000F6
:1004F00040F20F42D0F800C0C4F20202944510DC72
:100500006F22C4F20202944520DC3F22C4F20202B0
:10051000944536DC1022C4F20202944554D02822BD
:100520004EE040F26F42C4F2020294451ADC40F2FF
:100530003F42C4F2020294452ADC40F21042C4F267
:100540000202944540D040F2284239E09F22C4F292
:100550000202944525DC7022C4F20202944533D095
:1005600088222DE040F29F42C4F2020294451FDC33
:1005700040F27042C4F20202944525D040F2884213
:100580001EE04022C4F2020294451DD0582217E01A
:1005900040F24042C4F20202944515D040F2584263
:1005A0000EE0A022C4F2020294450DD0B82207E06A
:1005B00040F2B842C4F20202944505D040F2A04293
:1005C000C4F20202944517D10CF0F8024AF6AB23AC
:1005D000103ACAF6AA23A2FB033109A35F2AC1F38A
:1005E00002115B5C40F2FF312CEA0101C36588BF58
:1005F00004318165084670472CF0FF01F9E700BF20
:10060000000610160006101680B540F20F4ED0F806
:1006100000C0C4F2020EF44514DC40F26F0EC4F2C6
:10062000020EF44523DC40F23F0EC4F2020EF44504
:100630003BDC40F2100EC4F2020EF4455CD040F2F6
:10064000280E55E040F26F4EC4F2020EF4451DDC58
:1006500040F23F4EC4F2020EF4452FDC40F2104E41
:10066000C4F2020EF44547D040F2284E40E040F27A
:100670009F0EC4F2020EF44529DC40F2700EC4F263
:10068000020EF44538D040F2880E31E040F29F4E21
:10069000C4F2020EF44523DC40F2704EC4F2020EA6
:1006A000F44529D040F2884E22E040F2400EC4F2D8
:1006B000020EF44520D040F2580E19E040F2404EB0
:1006C000C4F2020EF44517D040F2584E10E040F24A
:1006D000A00EC4F2020EF4450ED040F2B80E07E0B0
:1006E00040F2B84EC4F2020EF44505D040F2A04EDE
:1006F000C4F2020EF44509D1CCF8043080684028D9
:1007000009D1CCF80820CCF80C1080BDCCF804300E
:1007100080684028F5D0CCF80810CCF80C2080BDBB
:1007200070B540F26F44D0F800C0C4F20204D0F8B3
:1007300058E0A44519DC9F25C4F20205AC4531DC24
:100740005725C4F20205AC4556DC1025C4F202055B
:10075000AC4500F092802825C4F20205AC4500F0BB
:100760008C804025C4F2020584E045F22F45C5F691
:100770000205AC452BDC40F2B745C4F20205AC459E
:1007800048DC40F27045C4F20205AC4575D040F239
:100790008845C4F20205AC456FD040F2A045C4F2D2
:1007A000020567E040F22745C4F20205AC4540DC93
:1007B000A025C4F20205AC455FD0B825C4F20205FD
:1007C000AC455AD040F21045C4F2020552E045F261
:1007D0006B45C5F60205AC453CDC45F23045C5F637
:1007E0000205AC4549D045F24445C5F60205AC4585
:1007F00043D045F258453BE05825C4F20205AC45CC
:100800003BD07025C4F20205AC4536D08825C4F231
:1008100002052FE040F2B845C4F20205AC452CD0E9
:1008200045F20845C5F60205AC4526D045F21C4503
:100830001EE040F22845C4F20205AC451DD040F24E
:100840004045C4F20205AC4517D040F25845C4F209
:1008500002050FE045F26C45C5F60205AC450CD02B
:1008600045F29445C5F60205AC4506D045F28045F3
:10087000C5F60205AC4540F0D180456EC66E002E2F
:10088000866E6E601CBFD0E91C566E60A44515DCF8
:100890009F24C4F20204A4452BDC5724C4F20204B2
:1008A000A4454EDC1024C4F20204A44576D02824CA
:1008B000C4F20204A44571D040246BE045F22F44F9
:1008C000C5F60204A44527DC40F2B744C4F2020492
:1008D000A44542DC40F27044C4F20204A4455DD059
:1008E00040F28844C4F20204A44557D040F2A04428
:1008F00050E040F22744C4F20204A4453CDCA024AA
:10090000C4F20204A44549D0B824C4F20204A445A8
:1009100044D040F210443DE045F26B44C5F6020479
:10092000A44553DC45F23044C5F60204A4455FD02B
:1009300045F24444C5F60204A44559D045F2584452
:1009400052E05824C4F20204A44527D07024C4F213
:100950000204A44522D088241CE040F2B844C4F22A
:100960000204A4451AD045F20844C5F60204A44581
:100970003ED045F21C4437E040F22844C4F2020461
:10098000A4450BD040F24044C4F20204A44505D073
:1009900040F25844C4F20204A4453FD18468C06DBB
:1009A00000F01F003F2505FA00F0CEF80800DCF843
:1009B0000000402C20F48020CCF80000CCF804305B
:1009C00023D0CCF80810CCF80C2070BD45F26C4454
:1009D000C5F60204A4450BD045F28044C5F60204D6
:1009E000A44505D045F29444C5F60204A44515D1AA
:1009F000C46D806804F01F040125402805FA04F442
:100A0000CEF80440CCF8043004D1CCF80820CCF85F
:100A10000C1070BDCCF80810CCF80C2070BD000094
:100A20007047000000000000EFF3108072B600BFB6
:100A3000FEE700000000000070470000000000001A
:100A4000B0B502F0ADF840F21C0540F21804C2F255
:100A50000005C2F200042968401AC0087C280AD99F
:100A600002F09EF840F220012860C2F200012078D6
:100A70000870012001E020780130207040F2210050
:100A8000C2F2000001210170B0BD000000000000B2
:100A900070B50446006840F2F9360569C0F60006F4
:100AA000690721D4A8072DD4E8063BD4280705D52B
:100AB000206808214161204600F0EAF9E80708BFF4
:100AC00070BD20680168890703D5C16821F01E0147
:100AD000C160C16821F00101C1600121416120466E
:100AE000BDE87040FFF7ACBF04214161E06C40F00D
:100AF0000200E06484F83510A06C066500F03CFD4F
:100B0000A807D1D521680222A06C4A61E16C41F0AE
:100B10000101E164042184F83510066500F02CFD24
:100B2000E806C3D5206810214161204600F054F842
:100B30002807C3D5BCE70000002849D0B0B504465B
:100B400090F8350010B9204600F04AF8022084F8E9
:100B50003500D4F818E04FF20705BEF1000FCFF6CC
:100B6000E0751CBF0020606294E80510E368102A5D
:100B7000016801EA05010160D4E9045141EA030179
:100B8000236A41EA0501656A41EA0C0141EA030171
:100B9000A36A41EA0501E56A41EA0301236B41EAE0
:100BA0000501056841EA030141EA050141EA0E0138
:100BB00041EA0201016001D1E1698161C16841F04E
:100BC0001E01C1600020E064012184F83510B0BD31
:100BD0000120704700000000704700000000000086
:100BE0002DE9F04F85B040F2000A0446C4F6020A2F
:100BF0000068504502D005B0BDE8F08F44F2E040F7
:100C000040F20049C5F60200C5F602096E464FF0F3
:100C1000020B50F8041C002741F0010140F8041CAD
:100C200050F8041C4FF0030801F0010100910099F5
:100C3000016841F01001016001680D2501F010010B
:100C400000910099016841F001010160016801F023
:100C5000010100910099016841F0040101600168FF
:100C600001F0040100910099016841F00801016060
:100C7000016801F0080100910099016841F002014A
:100C800001600068314600F002000090009870207A
:100C9000009009F54060CDF804B00297CDF80C80C3
:100CA000049501F095FE50203146CDE9000B0AF184
:100CB00080500495CDE9027801F08AFE4FF47070FF
:100CC0003146CDE9000B09F580600495CDE9027845
:100CD00001F07EFE08203146CDE9000B09F50060E9
:100CE0000495CDE9027801F073FE80203146CDE90C
:100CF000000B48460495CDE9027801F069FE40F208
:100D000074051020C2F20005C4F2020028604B20D6
:100D1000C5E901074FF4806028614FF48050686195
:100D20004FF48040A8614FF48070E8614FF40030C8
:100D300028620420EF60C5E909082846C5E90B7759
:100D400001F062F908B1FFF76FFE4E20002100228A
:100D5000A564AC6301F0C0FF4E2001F0A9FF05B00F
:100D6000BDE8F08F00000000B0B582B0044690F8F6
:100D7000340001284FF0020000F085804FF0010E92
:100D800084F834E084F83500D4F800C0A06CDCF8B6
:100D9000005045F48045CCF80050DCF8005025F0B8
:100DA0000205CCF80050DCF80050294340F2F93538
:100DB000CCF8001040F21941C0F60005C5640025CA
:100DC000C0F60001B5EB134FC1630565A563E5638C
:100DD000256465640BD10CF1280101F025FC002885
:100DE00048D04020E064012084F8350048E04164A8
:100DF000C4F838E0E3636264E16BB1F5803F29D366
:100E00000021E36B5B08E363A36B5B00A363E36B0D
:100E1000B3F5803F1ED3E36B5B08E363A36B5B001A
:100E2000A363E36BB3F5803F21BFE36B5B08E36330
:100E3000A36B21BF5B00A363E36BB3F5803F09D3D2
:100E4000E36B5B08E363A36B5B00A363E36BB1EB52
:100E5000134FD6D1A16B0239A163A16B2164E16B61
:100E6000E56B009502EB81030CF1280100F090F88E
:100E70000028B6D12068016841F00101016000201E
:100E8000002184F8341002B0B0BD00000000000062
:100E9000704700000000000040F20F430068C4F2F9
:100EA0000203984210DC6F23C4F20203984220DC54
:100EB0003F23C4F20203984236DC1023C4F202033B
:100EC000984254D028234EE040F26F43C4F202030C
:100ED00098421ADC40F23F43C4F2020398422ADCF3
:100EE00040F21043C4F20203984240D040F228433B
:100EF00039E09F23C4F20203984225DC7023C4F238
:100F00000203984233D088232DE040F29F43C4F27D
:100F1000020398421FDC40F27043C4F2020398427D
:100F200025D040F288431EE04023C4F202039842D9
:100F30001DD0582317E040F24043C4F20203984208
:100F400015D040F258430EE0A023C4F202039842A9
:100F50000DD0B82307E040F2B843C4F20203984230
:100F600005D040F2A043C4F20203984208D112B166
:100F700000F1100201E000F10C0200201160704746
:100F800012B100F11002F8E700F10C02F5E70000E1
:100F90002DE9F04104468068802805D14FF4807027
:100FA00060650120BDE8F08194F83400012802D189
:100FB0000220BDE8F081012084F8340094F8350067
:100FC000012822D1022084F835000020606540F21B
:100FD0000F482068C4F2020840F26F454045DDF832
:100FE00018C0C4F2020513DC6F27C4F20207B8422E
:100FF0001FDC3F27C4F20207B84235DC1027C4F2D9
:101000000207B84254D028274DE04FF40060C7E7EC
:10101000A8421ADC40F23F47C4F20207B8422ADC79
:1010200040F21047C4F20207B84241D040F22847CC
:1010300039E09F27C4F20207B84225DC7027C4F2CA
:101040000207B84234D088272DE040F29F47C4F20F
:101050000207B8421FDC40F27047C4F20207B842F0
:1010600026D040F288471EE04027C4F20207B8426B
:101070001ED0582717E040F24047C4F20207B8429A
:1010800016D040F258470EE0A027C4F20207B8423B
:101090000ED0B82707E040F2B847C4F20207B842C2
:1010A00006D040F2A047C4F20207B84240F05A828C
:1010B00007683F2647F48027076008270361D4E9C3
:1010C000160303F01F0306FA03F3C35120466346D9
:1010D000FFF79AFA2068A84219DC9F21C4F20201A6
:1010E000884231DC5721C4F20201884256DC1021CB
:1010F000C4F20201884200F092802821C4F2020169
:10110000884200F08C804021C4F2020184E045F264
:101110002F41C5F6020188422BDC40F2B741C4F2F0
:101120000201884248DC40F27041C4F20201884268
:1011300075D040F28841C4F2020188426FD040F27B
:10114000A041C4F2020167E040F22741C4F202016B
:10115000884240DCA021C4F2020188425FD0B8215D
:10116000C4F2020188425AD040F21041C4F2020196
:1011700052E045F26B41C5F6020188423CDC45F283
:101180003041C5F60201884249D045F24441C5F6D6
:101190000201884243D045F258413BE05821C4F255
:1011A000020188423BD07021C4F20201884236D04D
:1011B0008821C4F202012FE040F2B841C4F20201DA
:1011C00088422CD045F20841C5F60201884226D05B
:1011D00045F21C411EE040F22841C4F2020188425F
:1011E0001DD040F24041C4F20201884217D040F2C3
:1011F0005841C4F202010FE045F26C41C5F602010C
:1012000088420CD045F29441C5F60201884206D0CE
:1012100045F28041C5F60201884240F09681616E38
:10122000E26E002AA26E4A601CBFD4E91C124A601A
:10123000404510DC6F21C4F2020188421CDC3F21D2
:10124000C4F20201884232DC1021C4F20201884259
:1012500051D028214AE0A8421ADC40F23F41C4F2B2
:10126000020188422ADC40F21041C4F202018842A5
:1012700041D040F2284139E09F21C4F20201884266
:1012800025DC7021C4F20201884234D088212DE08F
:1012900040F29F41C4F2020188421FDC40F27041DB
:1012A000C4F20201884226D040F288411EE040216B
:1012B000C4F2020188421ED0582117E040F240419A
:1012C000C4F20201884216D040F258410EE0A0213B
:1012D000C4F2020188420ED0B82107E040F2B841C2
:1012E000C4F20201884206D040F2A041C4F20201D9
:1012F000884240F02A8101680B2262F344010160B8
:10130000416941F080014161216C09B9A16C19B1B9
:101310000821026811430160A84219DC9F21C4F230
:101320000201884231DC5721C4F20201884256DCB6
:101330001021C4F20201884200F091802821C4F2F9
:101340000201884200F08B804021C4F2020184E057
:1013500045F22F41C5F6020188422BDC40F2B7412D
:10136000C4F20201884248DC40F27041C4F202013A
:10137000884274D040F28841C4F2020188426ED0A3
:1013800040F2A041C4F2020167E040F22741C4F2FA
:101390000201884240DCA021C4F2020188425ED0F2
:1013A000B821C4F20201884259D040F21041C4F27F
:1013B000020152E045F26B41C5F6020188423CDC75
:1013C00045F23041C5F60201884248D045F2444119
:1013D000C5F60201884242D045F258413BE058210F
:1013E000C4F2020188423AD07021C4F2020188425C
:1013F00035D08821C4F202012FE040F2B841C4F296
:10140000020188422BD045F20841C5F6020188420C
:1014100025D045F21C411EE040F22841C4F20201F1
:1014200088421CD040F24041C4F20201884216D0EA
:1014300040F25841C4F202010FE045F26C41C5F69A
:10144000020188420BD045F29441C5F60201884260
:1014500005D045F28041C5F6020188426ED1216E69
:101460000A68D20303D50A6842F480720A60E16E0A
:1014700019B10A6842F480720A60404510DC6F219D
:10148000C4F2020188421CDC3F21C4F202018842FE
:1014900032DC1021C4F2020188424FD028214AE0F8
:1014A000A8421ADC40F23F41C4F2020188422ADC21
:1014B00040F21041C4F2020188423FD040F228417C
:1014C00039E09F21C4F20201884225DC7021C4F278
:1014D0000201884232D088212DE040F29F41C4F2BF
:1014E000020188421FDC40F27041C4F202018842CE
:1014F00024D040F288411EE04021C4F2020188421B
:101500001CD0582117E040F24041C4F20201884249
:1015100014D040F258410EE0A021C4F202018842EA
:101520000CD0B82107E040F2B841C4F20201884271
:1015300004D040F2A041C4F202018842016841F0A7
:10154000010101600020BDE8F0810168052262F31D
:1015500043010160216C19B9A16C00293FF4DCAE94
:101560000421D6E6076848F22006374307600126C3
:101570000427A3E50000000080B5D8B190F835102D
:10158000022919D140F20F420168C4F202029142CD
:1015900016DC6F23C4F20203994226DC3F23C4F217
:1015A000020399423CDC1023C4F2020399425AD050
:1015B000282354E0012080BD80214165012080BDA9
:1015C00040F26F43C4F2020399421ADC40F23F43F7
:1015D000C4F2020399422ADC40F21043C4F202032F
:1015E000994240D040F2284339E09F23C4F20203DD
:1015F000994225DC7023C4F20203994233D0882338
:101600002DE040F29F43C4F2020399421FDC40F2F6
:101610007043C4F20203994225D040F288431EE091
:101620004023C4F2020399421DD0582317E040F230
:101630004043C4F20203994215D040F258430EE0F1
:10164000A023C4F2020399420DD0B82307E040F270
:10165000B843C4F20203994205D040F2A043C4F259
:10166000020399426ED191424FF0040280F8352076
:1016700010DC6F20C4F20200814220DC3F20C4F263
:101680000200814236DC1020C4F20200814253D0B5
:1016900028204EE040F26F40C4F2020081421ADC82
:1016A00040F23F40C4F2020081422ADC40F2104086
:1016B000C4F2020081423FD040F2284039E09F202E
:1016C000C4F20200814225DC7020C4F20200814293
:1016D00032D088202DE040F29F40C4F202008142C7
:1016E0001FDC40F27040C4F20200814224D040F27C
:1016F00088401EE04020C4F2020081421CD05820E5
:1017000017E040F24040C4F20200814214D040F29F
:1017100058400EE0A020C4F2020081420CD0B82054
:1017200007E040F2B840C4F20200814204D040F227
:10173000A040C4F202008142086820F00100086065
:10174000002080BD0A6822F00E020A6045F257426E
:10175000C5F6020291420A6822F001020A600EDC1C
:1017600045F22F42C5F60202914217DC45F20842CB
:10177000C5F60202914226D045F21C421FE045F216
:101780007F42C5F60202914211DC45F25842C5F68D
:101790000202914217D045F26C4210E045F230420D
:1017A000C5F6020291420ED045F2444207E045F2EE
:1017B0009442C5F60202914205D045F28042C5F638
:1017C000020291421AD1D0E9181CD0E916E30A6846
:1017D00022F480720A6003F01F01012202FA01F173
:1017E000CEF80410816ECCF80410C16E31B10A68D5
:1017F00022F480720A60D0E91C124A60012180F84C
:101800003510026D002180F834100AB19047002194
:10181000084680BD00000000406D704700000000D9
:101820002DE9F04782B00021019140F20401044605
:10183000C2F2000148F2B512C1F64E32A56D096838
:1018400040F26F490068C4F20209A1FB0218484542
:101850002E68296815DC9F21C4F2020188422BDC26
:101860005721C4F2020188424FDC1021C4F2020168
:10187000884278D02821C4F20201884273D04021E6
:101880006CE045F22F42C5F60202904227DC40F29E
:10189000B742C4F20202904243DC40F27041C4F20B
:1018A000020188425FD040F28841C4F202018842BE
:1018B00059D040F2A04151E040F22741C4F2020168
:1018C00088423DDCA021C4F2020188424BD0B821FD
:1018D000C4F20201884246D040F210413EE045F297
:1018E0006B42C5F60202904273DC45F23042C5F607
:1018F0000202904200F0808045F24442C5F60202A6
:10190000904279D045F2584271E05821C4F2020168
:10191000884228D07021C4F20201884223D0882155
:101920001CE040F2B842C4F2020290421BD045F2E1
:101930000842C5F6020290425ED045F21C4256E0D3
:1019400040F22841C4F2020188420CD040F24041EA
:10195000C4F20201884206D040F25841C4F20201AA
:10196000884240F03D83E16D082201F01F0140F202
:101970000F4A8A40C4F2020A324200F0E080504529
:101980004FF0040312DC6F27C4F20207B8426EDC8A
:101990003F27C4F20207B84200F3A1801027C4F227
:1019A0000207B84200F0BF802827B7E048456ADC4C
:1019B00040F23F47C4F20207B84200F3978040F27A
:1019C0001047C4F20207B84200F0AD8040F2284749
:1019D000A4E045F26C42C5F6020290420CD045F2FA
:1019E0008042C5F60202904206D045F29442C5F606
:1019F0000202904240F0F4820268E36D03F01F039C
:101A000004279F400F4218BF12F0040621D102277D
:101A10009F400F4218BF12F002064BD1D940090770
:101A200040F1DE8212F0080100F0DA82016821F054
:101A30000E010160012000FA03F16960606584F81D
:101A400035000020E16C84F83400002940F0C082A9
:101A5000C6E211046F6025D4910603D4016821F019
:101A600004010160216C002940F0B282B8E29F2796
:101A7000C4F20207B84242DC7027C4F20207B8423F
:101A800051D088274AE040F29F47C4F20207B8428B
:101A90003CDC40F27047C4F20207B84243D040F247
:101AA00088473BE0D00300F19882A16C002940F008
:101AB0008F8295E211046F6000F19582910609D43E
:101AC000016821F00A010160012084F8350000203E
:101AD00084F83400E16B002940F07A8280E24027EC
:101AE000C4F20207B8421ED0582717E040F2404720
:101AF000C4F20207B84216D040F258470EE0A027C1
:101B0000C4F20207B8420ED0B82707E040F2A0475F
:101B1000C4F20207B84206D040F2B847C4F2020746
:101B2000B84218BF082307681F4208D0036823F093
:101B300004030360AA60626D42F001026265012243
:101B40008A4032426AD0504510DC6F23C4F202034F
:101B500098421CDC3F23C4F20203984232DC10237B
:101B6000C4F20203984251D028234AE048451ADCC7
:101B700040F23F43C4F2020398422ADC40F2104391
:101B8000C4F20203984241D040F2284339E09F2337
:101B9000C4F20203984225DC7023C4F20203984287
:101BA00034D088232DE040F29F43C4F202039842D0
:101BB0001FDC40F27043C4F20203984226D040F288
:101BC00088431EE04023C4F2020398421ED05823EB
:101BD00017E040F24043C4F20203984216D040F2AC
:101BE00058430EE0A023C4F2020398420ED0B8235B
:101BF00007E040F2A043C4F20203984206D040F24C
:101C0000B843C4F20203984240F0F38143691B06D3
:101C100004D5AA60626D42F00202626504228A4025
:101C200032426AD0504510DC6F23C4F2020398425E
:101C30001CDC3F23C4F20203984232DC1023C4F2BE
:101C40000203984251D028234AE048451ADC40F26A
:101C50003F43C4F2020398422ADC40F21043C4F22C
:101C60000203984241D040F2284339E09F23C4F256
:101C70000203984225DC7023C4F20203984234D058
:101C800088232DE040F29F43C4F2020398421FDCF8
:101C900040F27043C4F20203984226D040F28843D7
:101CA0001EE04023C4F2020398421ED0582317E0DE
:101CB00040F24043C4F20203984216D040F2584327
:101CC0000EE0A023C4F2020398420ED0B82307E02E
:101CD00040F2A043C4F20203984206D040F2B84357
:101CE000C4F20203984240F0868103689B0704D542
:101CF000AA60626D42F004026265102202FA01F1EC
:101D0000314279D050454FF0080210DC6F23C4F205
:101D1000020398421CDC3F23C4F20203984232DCE7
:101D20001023C4F20203984251D028234AE04845C8
:101D30001ADC40F23F43C4F2020398422ADC40F22C
:101D40001043C4F20203984241D040F2284339E0E4
:101D50009F23C4F20203984225DC7023C4F20203DD
:101D6000984234D088232DE040F29F43C4F202030E
:101D700098421FDC40F27043C4F20203984226D01E
:101D800040F288431EE04023C4F2020398421ED072
:101D9000582317E040F24043C4F20203984216D0A1
:101DA00040F258430EE0A023C4F2020398420ED042
:101DB000B82307E040F2A043C4F20203984206D0E1
:101DC00040F2B843C4F20203984218BF04220368E9
:101DD000134211D0A96001684903016806D4C905FE
:101DE00006D4016821F00801016001E008034DD428
:101DF000216C09B120468847E06D00F01F012020CA
:101E000000FA01F2324200F0A6802068102350450B
:101E100010DC6F27C4F20207B8421CDC3F27C4F273
:101E20000207B84236DC1027C4F20207B84255D088
:101E300028274EE048451ADC40F23F47C4F202072B
:101E4000B8422EDC40F21047C4F20207B84245D037
:101E500040F228473DE09F27C4F20207B84229DC40
:101E60007027C4F20207B84238D0882731E040F228
:101E70009F47C4F20207B84223DC40F27047C4F225
:101E80000207B8422AD040F2884722E0A16C00291C
:101E9000B0D1B1E74027C4F20207B8421ED058279C
:101EA00017E040F24047C4F20207B84216D040F2B1
:101EB00058470EE0A027C4F20207B8420ED0B82758
:101EC00007E040F2A047C4F20207B84206D040F251
:101ED000B847C4F20207B84218BF022307681F427E
:101EE00039D0AA6094F83520042A02681BD122F068
:101EF00016020260426922F080024261226C0AB935
:101F0000A26C1AB1026822F0080202603F208840E9
:101F1000A860012084F83500216D0020002984F894
:101F2000340055D15CE0510301680CD4C9050ED4CE
:101F3000016821F010010160012084F835000020C3
:101F400084F8340003E0080301D4616C00E0E16B25
:101F500009B120468847606D002841D0606DC007F8
:101F600034D0042084F8350020684FEA98210268B4
:101F700022F001020260019A013201928A421AD8CB
:101F80000268D20717D0019A013201928A4212D810
:101F90000268D2070FD0019A013201928A420AD810
:101FA0000268D20707D0019A013201928A4202D810
:101FB0000268D207DFD10068C0074FF0030008BFF6
:101FC000012084F83500002084F83400E16C39B138
:101FD000204602B0BDE8F0470847216C0029F7D140
:101FE00002B0BDE8F087D00307D4616C0029EFD1BF
:101FF000F6E7026812E602687FE6E16B0029E7D1A6
:10200000EEE70000000000002DE9F04381B0044637
:1020100000F0C6FD002C00F0AB8040F26F48054692
:102020002068C4F20208404515DC9F21C4F2020179
:1020300088422BDC5721C4F20201884251DC102176
:10204000C4F2020188427BD02821C4F202018842F6
:1020500076D040216FE045F22F41C5F6020188425B
:1020600027DC40F2B741C4F20201884245DC40F26D
:102070007041C4F20201884262D040F28841C4F249
:10208000020188425CD040F2A04154E040F2274176
:10209000C4F20201884240DCA021C4F2020188425D
:1020A0004ED0B821C4F20201884249D040F210411A
:1020B00041E045F26B41C5F60201884200F3B7806A
:1020C00045F23041C5F60201884200F0C28045F277
:1020D0004441C5F60201884200F0BB8045F25841F8
:1020E000B3E05821C4F20201884229D07021C4F221
:1020F0000201884224D088211DE040F2B841C4F298
:10210000020188421CD045F20841C5F6020188420E
:1021100000F09F8045F21C4197E040F22841C4F254
:10212000020188420CD040F24041C4F202018842D0
:1021300006D040F25841C4F20201884240F0C58006
:10214000022184F83510002184F83410016821F050
:102150000101016020680168C9070DD000F020FD71
:10216000401B0628F6D320206065032084F8350044
:10217000012001B0BDE8F08348F23F0204F10806F7
:102180000168CFF610621140D4F818C06CCE11432C
:10219000D4F824901943E3692943256A0E43B9F121
:1021A000040F43EA060343EA050343EA0C0303D1A1
:1021B000D4E90B652E433343666843F48011A6F1DE
:1021C0003F07A6F12905042FA6F1470238BF0B46A9
:1021D000062DA6F14F0E38BF0B46022A26F0030249
:1021E00038BF0B46BEF1040F38BF0B46742A08BF38
:1021F0000B46B9F1040F0360416921F0070141EA80
:10220000090140F07E80D4E90A53002B41EA050120
:1022100000F07780BCF5005F59D0BCF1000F62D1AF
:10222000022D63D0012D58D0002D5FD069E045F21A
:102230006C41C5F6020188420BD045F28041C5F6DB
:102240000201884205D045F29441C5F60201884258
:102250003BD104F1080E022184F83510002184F8E6
:1022600034100168A3699EE80450A2F18005E76973
:10227000B5FA85F566696D09402A4FEA853543EA66
:1022800007026FF3101142EA060208BF102541EA67
:10229000DC0142EA0E02236A294341EAD20141EA03
:1022A000131140F80819C0B2CD2148433C2101EA7E
:1022B0009020E0652046FEF71BF9E16D012201F058
:1022C0001F0102FA01F1416026E040204CE7032D96
:1022D00017D8DFE805F00E0B0E02A3F1C072B2FAB8
:1022E00082F2520904E0032D03D30AD1C3F3006242
:1022F0003AB140206065012084F8350001B0BDE8A6
:10230000F08341612046FEF7F3F8E16D3F2201F0D2
:102310001F0102FA01F181602068404519DC9F210C
:10232000C4F20201884231DC5721C4F20201884222
:1023300056DC1021C4F20201884200F0928028216C
:10234000C4F20201884200F08C804021C4F20201F4
:1023500084E045F22F41C5F6020188422BDC40F2B1
:10236000B741C4F20201884248DC40F27041C4F235
:102370000201884275D040F28841C4F202018842CD
:102380006FD040F2A041C4F2020167E040F2274161
:10239000C4F20201884240DCA021C4F2020188425A
:1023A0005FD0B821C4F2020188425AD040F21041F5
:1023B000C4F2020152E045F26B41C5F602018842C7
:1023C0003CDC45F23041C5F60201884249D045F275
:1023D0004441C5F60201884243D045F258413BE0F2
:1023E0005821C4F2020188423BD07021C4F202019C
:1023F000884236D08821C4F202012FE040F2B84171
:10240000C4F2020188422CD045F20841C5F602010F
:10241000884226D045F21C411EE040F22841C4F219
:10242000020188421DD040F24041C4F202018842BC
:1024300017D040F25841C4F202010FE045F26C415E
:10244000C5F6020188420CD045F29441C5F602015E
:10245000884206D045F28041C5F60201884240F02C
:10246000DA8045F2574C45F6FC01C5F6020CC5F67C
:10247000020160450EDC45F22F42C5F60202904291
:1024800017DC45F20842C5F60202904226D045F21A
:102490001C421FE045F27F42C5F60202904211DC69
:1024A00045F25842C5F60202904217D045F26C42FE
:1024B00010E045F23042C5F6020290420ED045F2DD
:1024C000444207E045F29442C5F60202904205D02C
:1024D00045F28042C5F60202904244D100F0FC026F
:1024E0004CF6CD43083ACCF6CC43A2FB0323A1F132
:1024F000FC05A1F17C061B0905EB830503F01F0217
:10250000A3682566802B4FF0010303FA02F266668A
:10251000A26604D100206060286072601CE06768D9
:10252000FBB2013F072F2B60726015D85E1E082E8C
:1025300017D2604501F1440235DC45F22F47C5F65C
:102540000207B8423EDC45F20847C5F60207B8422A
:1025500055D045F21C4746E000206067C4E91B00E7
:1025600059E0E06E52E000F0F8024AF6AB23103A70
:10257000CAF6AA23A2FB032740F20F43C4F20203C8
:1025800008253A09984203F1AA06134688BF05EBCD
:10259000171340F60005B042C4F2020505F18006AB
:1025A00028BF1346A8E745F27F47C5F60207B842A1
:1025B00011DC45F25847C5F60207B8421FD045F274
:1025C0006C4710E045F23047C5F60207B84216D016
:1025D00045F2444707E045F28047C5F60207B84296
:1025E0000DD045F29447C5F60207B84207D040F631
:1025F0000000C4F2020000F1FC0100F5A07201EB42
:1026000083000121E066B14022676167002101601B
:10261000D4E91C01416000206065012184F8351077
:1026200001B0BDE8F0830000B0B5E0B3054690F816
:102630003400012801D10220B0BD012085F834000A
:1026400095F83500012828D1022085F835000020B2
:1026500068652868046824F0010404602846FEF7D1
:102660005FF840F20F422868C4F2020240F26F4164
:102670009042C4F2020118DC6F23C4F202039842B4
:1026800024DC3F23C4F2020398423ADC1023C4F254
:102690000203984259D0282352E04FF40060686545
:1026A000002085F834000120B0BD88421ADC40F2D9
:1026B0003F43C4F2020398422ADC40F21043C4F2C2
:1026C0000203984241D040F2284339E09F23C4F2EC
:1026D0000203984225DC7023C4F20203984234D0EE
:1026E00088232DE040F29F43C4F2020398421FDC8E
:1026F00040F27043C4F20203984226D040F288436D
:102700001EE04023C4F2020398421ED0582317E073
:1027100040F24043C4F20203984216D040F25843BC
:102720000EE0A023C4F2020398420ED0B82307E0C3
:1027300040F2B843C4F20203984206D040F2A043EC
:10274000C4F20203984240F0238103680B2464F32F
:10275000440303602B6C1BB108230468234303600C
:10276000884219DC9F23C4F20203984231DC5723CC
:10277000C4F20203984256DC1023C4F202039842CA
:1027800000F091802823C4F20203984200F08B806D
:102790004023C4F2020384E045F22F43C5F602034E
:1027A00098422BDC40F2B743C4F20203984248DC63
:1027B00040F27043C4F20203984274D040F288435E
:1027C000C4F2020398426ED040F2A043C4F2020366
:1027D00067E040F22743C4F20203984240DCA023A2
:1027E000C4F2020398425ED0B823C4F202039842B6
:1027F00059D040F21043C4F2020352E045F26B4359
:10280000C5F6020398423CDC45F23043C5F60203AC
:10281000984248D045F24443C5F60203984242D05C
:1028200045F258433BE05823C4F2020398423AD0A1
:102830007023C4F20203984235D08823C4F2020305
:102840002FE040F2B843C4F2020398422BD045F285
:102850000843C5F60203984225D045F21C431EE00A
:1028600040F22843C4F2020398421CD040F2404395
:10287000C4F20203984216D040F25843C4F2020355
:102880000FE045F26C43C5F6020398420BD045F2C7
:102890009443C5F60203984205D045F28043C5F63D
:1028A000020398426ED12B6E1C68E40303D51C68AA
:1028B00044F480741C60EB6E1BB11D6845F4807598
:1028C0001D60904210DC6F21C4F2020188421CDCC2
:1028D0003F21C4F20201884232DC1021C4F202011D
:1028E00088424FD028214AE088421ADC40F23F411A
:1028F000C4F2020188422ADC40F21041C4F2020113
:1029000088423FD040F2284139E09F21C4F20201C1
:10291000884225DC7021C4F20201884232D088212D
:102920002DE040F29F41C4F2020188421FDC40F2D8
:102930007041C4F20201884224D040F288411EE076
:102940004021C4F2020188421CD0582117E040F215
:102950004041C4F20201884214D040F258410EE0D6
:10296000A021C4F2020188420CD0B82107E040F255
:10297000B841C4F20201884204D040F2A041C4F23E
:1029800002018842016841F0010101600020B0BDF0
:102990000368052464F3430303602B6C002B3FF4AE
:1029A000DFAE0423D9E60000B0B5044600F0F8F825
:1029B00040F20C010546C2F20001621C097818BF02
:1029C0000C4400BF00F0ECF8401BA042FAD3B0BDAD
:1029D0002DE9F04F82B00D68002D00F0CB8000F1A2
:1029E000264242F2004302F1FF72C5F602030A26B4
:1029F00098424FEAB22444F2F44E08BF0926082C4C
:102A000040F2040C38BF4FEAB226C5F6020EC5F6F6
:102A1000000C009600220027002609E001360D6810
:102A200035FA06F307F1040702F1020200F0A28072
:102A3000012303FA06F415EA0408EFD0D1F804A044
:102A400003230AF0030B9340ABF101056FEA03097E
:102A5000012D0FD88368CD6803EA090395402B4305
:102A60008360CAF300154368A34305FA06F42343C1
:102A7000436005E0BBF1030F02D14FF0030B21E0EF
:102A8000C3688C6803EA09039440BBF1020F43EA70
:102A90000403C36016D16FF0030307F01C0503EABB
:102AA00056030F24034404FA05FBD3F820A00C6955
:102AB0002AEA0B0AAC4044EA0A041C62D1F804A0DA
:102AC0000AF0030B03680BFA02F403EA09031AF491
:102AD000403F43EA04030360A0D0DEF8003040F238
:102AE000084A43F00203CEF80030DEF80030C5F6A5
:102AF000000A03F00203019326F00303019C07F090
:102B00000C040F2553F80A90A54029EA0509009DF9
:102B100005FA04F444EA090443F80A404FF0B04AC5
:102B2000DAF800904C6849EA0805E30258BF29EA40
:102B30000805A302CAF80050DCF8009049EA08052D
:102B400058BF29EA0805A303CCF80050DCF88090B0
:102B500049EA080558BF29EA0805E403CCF8805083
:102B6000DCF87C3043EA080558BF23EA0805CCF8B6
:102B70007C5053E702B0BDE8F08F00000000000079
:102B80000069084018BF01207047000000000000E5
:102B9000002A08BF0904816170470000000000009E
:102BA00040F27430C2F2000000687047000000007C
:102BB00040F20C0040F27431C2F20000C2F2000197
:102BC00000780A68104408607047000000000000A8
:102BD00080B5032000F0B0F801F072F844F218411B
:102BE00048F29063C5F60201C0F600030A6809685E
:102BF00001F00F01C2F30322595C9A5C01F01F013E
:102C000002F01F02D04040F20802C2F2000220FA95
:102C100001F1116040F20401C2F2000108600F20CE
:102C200000F00AF800281CBF012080BD00F030F839
:102C3000002080BD00000000B0B540F20C01C2F2DF
:102C40000001097801B3044640F20400C2F200001A
:102C50004FF47A72B2FBF1F10068B0FBF1F001F0D1
:102C6000FBFF0F2C4FF001050CD858B94FF0FF3087
:102C700000222146002500F02FF840F21000C2F299
:102C8000000004602846B0BD0120B0BD0000000077
:102C900081B044F2F440C5F60200016841F002013F
:102CA0000160006800F002000090009801B07047D9
:102CB000002848BF704781B200F01F000122490977
:102CC00002FA00F04EF20012CEF2000242F82100A9
:102CD000704700000000000070B54EF60C5C4FF02D
:102CE000FF36CEF2000C00F1604505F56445DCF8D6
:102CF0000030C3F3022E8EF00703042B28BF0423F9
:102D0000BEF1030406FA03F321EA030100F00F0306
:102D100038BF0024043B0028634406FA04F048BF8F
:102D200003F10C05A14022EA0000084300012870CD
:102D300070BD0000000000004EF60C514FF6FF037E
:102D4000CEF200010A681A4060F30A2242F0806065
:102D500040F0FD7008607047B0B544F60C05C5F64C
:102D6000020529684907296805D401F00701081AF6
:102D700018BF0120B0BD21F0070108432860FFF70C
:102D80000FFF044655F8080C800407D4FFF708FF2E
:102D9000001BB0F57A7FF5D90120B0BD0020B0BD91
:102DA00080B500F005FF44F2204148F29062C5F67C
:102DB0000201C0F600020968C1F30211515C01F082
:102DC0001F01C84080BD000080B544F2384EC5F6F2
:102DD000020E5EF8103C5EF8101C5EF80C2CC1F37D
:102DE000053CDEF80410BCF1000F15D0C908D2066E
:102DF00001EAE2716FF35F3100EE101A03F0030194
:102E00000229B8EE400A0CD071B95EF8381C890668
:102E10000DD49FED351A18E000218160C0E9001142
:102E200080BD9FED301A10E09FED2D1A0DE05EF889
:102E3000381C49F20002C0F2D032C1F3C10122FABB
:102E400001F101EE101AB8EE411ADEF800109FED04
:102E5000273A6FF35F2102EE101ADEF80010C1F37B
:102E60004621B8EE422A00EE032A00EE10CAB7EE61
:102E7000003AB8EE400A81EE000A32EE031A02EE82
:102E8000101AB8EE422A20EE010A32EE031A80EE42
:102E9000011ABCEEC11A80ED001ADEF80010C1F371
:102EA000064101EE101AB8EE411A31EE031A80EE17
:102EB000011ABCEEC11A80ED011ADEF80010C1F350
:102EC000066101EE101AB8EE411A31EE031A80EED7
:102ED000010ABCEEC00A10EE101A816080BD00BF6E
:102EE0000024744A001BB74B0024744C00000039C6
:102EF00080B544F2404EC5F6020E5EF8183C5EF80E
:102F0000181C5EF8142CC1F3055CDEF80410BCF14B
:102F1000000F15D0C908D20501EAE2716FF35F31E5
:102F200000EE101A03F003010229B8EE400A0CD09B
:102F300071B95EF8401C89060DD49FED351A18E072
:102F400000218160C0E9001180BD9FED301A10E0C2
:102F50009FED2D1A0DE05EF8401C49F20002C0F210
:102F6000D032C1F3C10122FA01F101EE101AB8EE1C
:102F7000411ADEF800109FED273A6FF35F2102EE51
:102F8000101ADEF80010C1F34621B8EE422A00EE16
:102F9000032A00EE10CAB7EE003AB8EE400A81EEFE
:102FA000000A32EE031A02EE101AB8EE422A20EEA0
:102FB000010A32EE031A80EE011ABCEEC11A80ED4E
:102FC000001ADEF80010C1F3064101EE101AB8EE47
:102FD000411A31EE031A80EE011ABCEEC11A80EDDF
:102FE000011ADEF80010C1F3066101EE101AB8EE06
:102FF000411A31EE031A80EE010ABCEEC00A10EE4F
:10300000101A816080BD00BF0024744A001BB74BBA
:103010000024744C000000392DE9F0470446C078C4
:1030200044F22C480007C5F6020826D5606E4FEA28
:10303000305103290AD8DFE801F0020B1119D8F842
:10304000001041F40031C8F800100FE0012615E02F
:1030500004F10800022103F0E3F904E004F1280080
:10306000022103F06DFA064640B9606ED8F82410CC
:1030700021F440110843C8F8240000266078C007F6
:1030800001D135462AE0A06D04280DD83546DFE889
:1030900000F0030E141A1A00D8F80000354640F468
:1030A0000030C8F800000EE00125012717E004F108
:1030B0000800002103F0B4F904E004F12800002125
:1030C00003F03EFA05462F464DB9D8F82400A16D0D
:1030D00020F0070000250843C8F824003746607830
:1030E00040072CD5D4F8A4004FEA705005280BD81F
:1030F000DFE800F0030D13191919D8F8000040F4A7
:103100000030C8F800000EE00125012618E004F1A7
:103110000800002103F084F904E004F128000021F4
:1031200003F00EFA05462E4655B9D8F82C00D4F80F
:10313000A41020F4600000250843C8F82C003E4687
:10314000607800072CD5D4F8A8004FEA3060052835
:103150000BD8DFE800F0030D13191919D8F8000097
:1031600040F40030C8F800000EE00125012718E007
:1031700004F10800002103F053F904E004F12800F1
:10318000002103F0DDF905462F4655B9D8F82C008B
:10319000D4F8A81020F0E06000250843C8F82C00FF
:1031A0003746E078800723D5E06C4FEA30100328DB
:1031B0000AD8DFE800F012020C12D8F8000040F440
:1031C0000030C8F8000008E00125012611E004F1F4
:1031D0000800022103F024F905462E464DB9D8F81F
:1031E0002000E16C20F0300000250843C8F82000E2
:1031F0003E466078C0062AD5E06D4FEA303004289C
:103200000BD8DFE800F0030D13191900D8F80000FF
:1032100040F40030C8F800000EE00125012717E057
:1032200004F10800002103F0FBF804E004F1280099
:10323000002103F085F905462F464DB9D8F8240042
:10324000E16D20F4E04000250843C8F8240037462B
:103250006078800623D5206E4FEA304005280AD8D2
:10326000DFE800F012030C12121204F10800012131
:1032700003F0D6F807E00125012611E004F128004B
:10328000012103F05DF905462E464DB9D8F824001A
:10329000216E20F4E02000250843C8F824003E46B3
:1032A0006078400625D5D4F8AC004FEA3070052888
:1032B0000AD8DFE800F012030C12121204F1080021
:1032C000012103F0ADF807E00125012712E004F128
:1032D0002800012103F034F905462F4655B9D8F8E6
:1032E0002C00D4F8AC1020F0E04000250843C8F8CA
:1032F0002C003746607800061FD5E06E90B1B0F123
:10330000005F09D0B0F1805F29D1D8F8000040F407
:103310000030C8F8000005E004F10800012103F0C6
:103320007FF805462E464DB9D8F82400E16E20F00E
:10333000405000250843C8F824003E46E078C00706
:1033400025D0A06C03280DD8DFE800F01602101677
:10335000D8F8000040F40030C8F800000CE0012567
:103360000126EBE701254FF0010911E004F1080007
:10337000022103F055F80546A9464DB9D8F82000BA
:10338000A16C20F0030000250843C8F82000B146D6
:10339000A078400601D44F4616E0D8F8D40340F494
:1033A0008070C8F8D403FFF7FBFB0646D8F8D403B7
:1033B000C00507D4FFF7F4FB801B6428F6D903256A
:1033C000032701E02F4695B12078C00753D0A06FA6
:1033D0004FEAF00005283AD8DFE800F042033C420B
:1033E000424204F10800012103F01AF837E0D8F84E
:1033F0004410D4F8B000414011F4407F11D0D8F807
:103400004410D8F8442042F48032C8F84420D8F858
:10341000442021F4407122F48032C8F84420C8F8D6
:103420004410B0F5807F40F07382FFF7B9FB064689
:1034300041F2883A03250327D8F84400800700F1B9
:103440006582FFF7ADFB801B5045F5D9BCE7012530
:10345000012611E004F12800012103F071F805466E
:103460002E464DB9D8F82800A16F20F0380000256D
:103470000843C8F828003E462078800721D5606FB1
:1034800005280AD8DFE800F012030C12121204F12A
:103490000800012102F0C4FF07E00125012711E027
:1034A00004F12800012103F04BF805462F464DB9E1
:1034B000D8F82800616F20F0070000250843C8F8FD
:1034C000280037462078400723D5D4F890000528F7
:1034D0000AD8DFE800F012030C12121204F10800FF
:1034E000012102F09DFF07E00126012512E004F111
:1034F0002800012103F024F805462E4655B9D8F8D6
:103500002C00D4F8901020F0070000250843C8F8DC
:103510002C003E462078800625D5D4F88C004FEA52
:10352000307005280AD8DFE800F012030C121212DE
:1035300004F10800002102F073FF07E001270125D4
:1035400012E004F12800022102F0FAFF05462F469E
:1035500055B9D8F82800D4F88C1020F0E0400025A8
:103560000843C8F8280037462078400625D5D4F807
:1035700098004FEAB02005280AD8DFE800F01203CF
:103580000C12121204F10800002102F049FF07E0BA
:103590000126012512E004F12800022102F0D0FFEB
:1035A00005462E4655B9D8F82C00D4F8981020F4CA
:1035B000E05000250843C8F82C003E46207800065D
:1035C00025D5D4F89C004FEA703005280AD8DFE8EA
:1035D00000F012030C12121204F10800002102F094
:1035E0001FFF07E00127012512E004F12800022156
:1035F00002F0A6FF05462F4655B9D8F82C00D4F89E
:103600009C1020F4604000250843C8F82C00374681
:103610002068010704D4C1061BD4000332D452E051
:10362000D4F88000B0F5805F09D104F128000221B0
:1036300002F086FF002818BF0127D4F88000D8F8D0
:10364000281021F440510843C8F828002068C1061A
:10365000E3D5D4F89400B0F5807F09D104F12800B7
:10366000022102F06DFF002818BF0127D4F8940052
:10367000D8F82C1021F440710843C8F82C002068B9
:10368000000320D5D4F8A000B0F5003F0FD0B0F56E
:10369000803F06D070BB04F10800002102F0C0FE9C
:1036A00004E004F12800022102F04AFF05462E46FC
:1036B00055B9D8F82C00D4F8A01020F440300025DB
:1036C0000843C8F82C003E46A078400727D5D4F818
:1036D0008400B0F5401F16D0B0F5001F0DD0B0F536
:1036E000801F40F00B81D8F8000040F40030C8F88B
:1036F000000008E001260125E6E704F12800012189
:1037000002F01EFF05462F4655B9D8F82800D4F818
:10371000841020F4401000250843C8F828003746DC
:10372000A078C00701D13E461FE0206DB0F5803F74
:1037300007D0C0B9D8F8000040F40030C8F8000045
:1037400005E004F10800022102F06AFE05462E465B
:103750005DB9D8F82000216D20F4803000250843A1
:10376000C8F82000DFE7012601252168880003D47E
:1037700060688A030CD44BE004F12800022102F0B7
:10378000DFFE002818BF0126D4E900108A033FD5C8
:10379000E26F6FF0010303EB3223022B0BD34FEAEE
:1037A000322343B1012B40F0AC80D8F8003043F411
:1037B0000033C8F8003025B3CA022CD48A0234D4AE
:1037C0004A003CD4CA0F49D1090251D4C1075AD189
:1037D000810763D441076CD4010776D4C10600F198
:1037E0008080800607D504F12800022102F0A8FE9F
:1037F000002818BF0125002D18BF01252846BDE867
:10380000F087D8F8283023F440731A43C8F82820EA
:103810003546CA02D2D5D8F82420236F22F00042C0
:103820001A43C8F824208A02CAD5D8F82420A36EE7
:1038300022F080721A43C8F824204A00C2D558F8F2
:103840001C2C22F4004248F81C2CD4F8B42058F860
:103850001C3C1A4348F81C2CCA0FB5D0D8F82020BD
:10386000636D22F040521A43C8F820200902ADD5FA
:10387000D8F82810D4F8882021F440011143C8F862
:103880002810C107A4D004F10800002102F0C8FDEF
:10389000002818BF0546606881079BD504F1080021
:1038A000012102F0BDFD002818BF054660684107F0
:1038B00092D504F10800022102F0B2FD002818BFE1
:1038C0000546606801077FF589AF04F128000021F3
:1038D00002F036FE002818BF05466068C1067FF575
:1038E00080AF04F12800012102F02AFE002818BF51
:1038F0000546606880067FF57EAF74E701270125E5
:103900000EE70125CA027FF559AF84E7D4F8B0006D
:103910004FF6CF7358F81C2CC0F2FF0300F440712F
:1039200022F47C5203EA10136FF31F30B1F5407F8D
:1039300008BF1A43002548F81C2CD8F84410084347
:10394000C8F8440027E500002DE9F04381B00028C5
:1039500000F0288142F200080446C5F2002889469A
:10396000D8F8000000F00F0088420ED2D8F800000E
:1039700020F00F0040EA0900C8F80000D8F8000065
:1039800000F00F00484540F00D81206844F21847D0
:103990004107C5F602070AD521693A6802F07002AC
:1039A000914204D93A6822F070021143396001074C
:1039B0000AD561697A6802F07002914204D97A6886
:1039C00022F0700211437960C1060AD5A1697A68B4
:1039D00002F4E062914204D97A6822F4E062114371
:1039E000796081060AD5E169BA6802F070029142F5
:1039F00004D9BA6822F070021143B96010F00201D4
:103A00000AD0E2683B6803F00F039A4204D93B688E
:103A100023F00F031A433A60C20745D0386820F4F8
:103A20007061D4E90102012841EA0201396009D03C
:103A300003280DD0022811D157F8181C890340F132
:103A4000B18010E057F8181CC90540F1AB800AE0BE
:103A500057F8181C890140F1A58004E057F8181C9C
:103A6000490740F19F8057F8081C21F007010843DF
:103A700047F8080CFFF794F8064641F2883500BF76
:103A800057F8080C616800F03800B0EBC10F08D09F
:103A9000FFF786F8801BA842F2D9032001B0BDE8E9
:103AA000F083206800F0020151B1E1683A6802F049
:103AB0000F02914204D23A6822F00F02114339609A
:103AC000D8F8001001F00F0149450DD9D8F80010C1
:103AD00021F00F0141EA0901C8F80010D8F80010E0
:103AE00001F00F0149455DD141070AD521693A68C6
:103AF00002F07002914204D23A6822F0700211433F
:103B0000396001070AD561697A6802F07002914252
:103B100004D27A6822F0700211437960C1060AD596
:103B2000A1697A6802F4E062914204D27A6822F4D0
:103B3000E0621143796080060AD5E069B96801F056
:103B40007001884204D2B96821F070010843B8605E
:103B500000F0B6F8396848F290633A68C0F600039E
:103B6000C1F3032102F00F02595C9A5C01F01F01BE
:103B700020FA01F102F01F0040F2080221FA00F0E1
:103B8000C2F20002106040F2100040F20402C2F2E1
:103B90000000C2F200020068116001B0BDE8F0430D
:103BA000FFF74AB8012001B0BDE8F0830000000033
:103BB00080B500F085F844F2184148F29063C5F6EC
:103BC0000201C0F600030A68096801F00F01C2F3A0
:103BD0000322595C9A5C02F01F0220FA02F201F003
:103BE0001F0040F2080122FA00F0C2F20001086052
:103BF00040F20401C2F200010A6080BD0000000032
:103C000080B500F05DF844F2184C48F29061C5F6BA
:103C1000020CC0F60001DCF80020DCF8003003F0F4
:103C20000F03C2F30322CB5C8A5C02F01F02D04078
:103C300003F01F0240F2080320FA02F2C2F200036E
:103C40001A6040F20403C2F200031860DCF80400BA
:103C5000C0F30210085C00F01F0022FA00F080BDE3
:103C600080B500F02DF844F2184C48F29061C5F68A
:103C7000020CC0F60001DCF80020DCF8003003F094
:103C80000F03C2F30322CB5C8A5C02F01F02D04018
:103C900003F01F0240F2080320FA02F2C2F200030E
:103CA0001A6040F20403C2F200031860DCF804005A
:103CB000C0F30220085C00F01F0022FA00F080BD73
:103CC00044F20041C5F602010869C0F3C2000328AE
:103CD0000FD002282CD080BB0868800649F2000073
:103CE000C0F2D03058BF70470968C1F3C101C84065
:103CF00070478A6A886AC0F3051CC86ABCF1000F65
:103D00004B6B1FD000F0010002F003024042022A78
:103D100000EAD3006FF35F3000EE100AB8EE400AFD
:103D200012D0A2B90868800614D49FED261A1EE0AE
:103D300043F20060C0F26E10704740F60010C0F20F
:103D40003D007047002070479FED1D1A0FE09FED6A
:103D50001B1A0CE0086849F20002C0F2D032C0F32E
:103D6000C10022FA00F001EE100AB8EE411A086B09
:103D70009FED153A6FF35F2002EE100A086BC0F357
:103D80004620B8EE422A013000EE032A00EE10CAA7
:103D9000B7EE003AB8EE400A81EE000A32EE031A9E
:103DA00020EE010A01EE100AB8EE411A80EE010A77
:103DB000BCEEC00A10EE100A704700BF0024744A1F
:103DC000001BB74B0024744C0000003900000000B9
:103DD00070B586B0002844F2E04640F20000144678
:103DE0000D46C5F60206C5F602001FD0316800F583
:103DF000006041F004013160316801F0040101917B
:103E000001994FF400710191022102910321049163
:103E100000210391059101A9FEF7DAFD56F8D00CB7
:103E200020F07E4040EAC41028431BE0316841F096
:103E300001013160316801F00101019101994FF4F4
:103E400080710191022102910321049100210391CB
:103E5000059101A9FEF7BCFD56F8D00C20F0FE70CC
:103E60002843204346F8D00C06B070BD0000000087
:103E7000F0B581B0002800F0EB800446007844F2F1
:103E80000046C007C5F6020621D12078800767D515
:103E9000306910F03801B06A40D0182908BF5FEAD5
:103EA00080703BD0E0683168002800F03B8121F051
:103EB000190108433060FEF773FE0546306840077D
:103EC00047D4FEF76DFE401B0228F7D98DE130691B
:103ED00000F03801B06A102905D018290AD100F085
:103EE0000300022806D130688003CED56068002820
:103EF000CBD1ADE06068002800F04A81B0F5A02F7A
:103F000000F05E81B0F5803F00F05E81306820F403
:103F100080303060306820F4802058E130684007FD
:103F2000E06802D5002800F09380316821F0190183
:103F300008433060FEF734FE054600BF3068400796
:103F400007D4FEF72DFE401B02284FF00300F5D9E1
:103F500013E27068216920F0FE4040EA0160706061
:103F60002078C0061AD5306900F03801B06A0829F7
:103F700007D0182940F0988000F00300012840F095
:103F800093803068C00502D5E069802860D1F06870
:103F9000216A20F07C5040EA0160F0602078000740
:103FA00059D4207880066AD42078400700F19480A4
:103FB000656A002D49D0306900F03800182840F0BB
:103FC0002981012DB16A306B42D001F00302A36A4E
:103FD0009A423DD1C1F30511E26A914238D10146BE
:103FE000226B6FF35F21013A914231D1C0F3462237
:103FF000616B01398A422BD1C0F30642A16B0139B2
:104000008A4225D1C0F30660E16B013988421FD195
:10401000706BA16CC0F3CC00814216D0F06A20F026
:104020000100F062FEF7BCFD0546FEF7B9FDA842AF
:10403000FBD0706B4FF6F871A26C884340EAC20067
:104040007063F06A40F00100F062002001B0F0BD42
:10405000012001B0F0BD60690028706F50D040F0C1
:1040600001007067FEF79CFD054600BF706F80077A
:1040700097D4FEF795FD401B0228F7D9B5E0A0695B
:104080000028306872D040F480503060FEF788FD20
:10409000054600BF306880043FF586AFFEF780FD1F
:1040A000401B0228F6D9A0E0E0690028306800F043
:1040B0009F8040F080003060FEF772FD054600BF33
:1040C0003068C0053FF563AFFEF76AFD401B02286C
:1040D0004FF00300F4D950E1D6F8000440F48070AA
:1040E000C6F80004FEF75CFD054600BFD6F80004E4
:1040F000C00529D4FEF754FD401B6428F6D974E0AE
:1041000020F001007067FEF74BFD0546706F8007D9
:104110007FF547AFFEF744FD401B02284FF0030038
:10412000F4D92AE121F001003060FEF739FD05469F
:10413000306840077FF514AFFEF732FD401B0228C0
:104140004FF00300F4D918E1A068002800F0848043
:10415000052800F09A80012800F09B80306F20F045
:1041600001003067306F20F0040095E020F48050AB
:104170003060FEF715FD0546306880047FF514AF0A
:10418000FEF70EFD401B02284FF00300F4D9F4E0C7
:10419000306820F480303060306820F48020306057
:1041A000FEF7FEFC054600BF306880037FF56DAE6C
:1041B000FEF7F6FC401B64284FF00300F4D9DCE066
:1041C000306840F480203060306840F480303060E7
:1041D000FEF7E6FC054600BF306880033FF555AEAC
:1041E000FEF7DEFC401B6428F6D9032001B0F0BDC9
:1041F00020F080003060FEF7D3FC05463068C00533
:104200007FF5CCAEFEF7CCFC401B02284FF003003C
:10421000F4D9B2E0306820F080703060FEF7C0FC66
:10422000022D05460CD100BF3068800146D5FEF74F
:10423000B7FC401B02284FF00300F5D99DE000BFFA
:10424000306880017FF501AFFEF7AAFC401B022811
:104250004FF00300F4D990E0306F20F00100306798
:10426000306F20F004003067FEF79AFC054641F2FB
:104270008837306F80077FF59BAEFEF791FC401BBF
:10428000B8424FF00300F4D977E0306F40F00400FB
:104290003067306F40F001003067FEF781FC054663
:1042A00041F28837306F80073FF582AEFEF778FC29
:1042B000401BB8424FF00300F4D95EE004F1280738
:1042C000B06A40F2F33188438ECF0843591E40EA6A
:1042D00002104FF47E426FF35F21B06202EB472081
:1042E0004FF4FE0280B2E36B0844A16B02EB014184
:1042F0004FF0FE4201F4FE0102EB0362084402F0BB
:10430000FE4108443063F06A4FF6F87120F0010076
:10431000F062706BA26C884340EAC2007063F06A7E
:10432000216C20F00C000843F062F06A616C20F010
:1043300002000843F062F06A40F48030F062F06AF4
:1043400040F40030F062F06A40F48020F062F06ADD
:1043500040F00100F062306840F080703060FEF79D
:104360001FFC0446306880013FF56FAEFEF718FC75
:10437000001B02284FF00300F4D901B0F0BD00008B
:10438000704700000000000070B504460068026934
:104390004369816894F881501E050BD512F0080618
:1043A00008D0816941F4006181612046BDE8704018
:1043B00000F062BA03EA020606F06402042A04D19D
:1043C000616F20468847216F10E006F04502012A00
:1043D00007D1216F2046884706F02600022804D026
:1043E00070BD06F02602022A04D1616F2046BDE8A6
:1043F00070400847320771D416F4587FF0D016F099
:1044000040000AD02068D4F8842042F00402C4F8A6
:104410008420826942F040028261B0050AD520689A
:10442000D4F8842042F00102C4F88420826942F466
:1044300000728261F00506F020000AD52268D4F8E7
:10444000843043F00803C4F88430936943F48073E4
:10445000936150B12068D4F8842042F08002C4F8FF
:104460008420826942F020028261D4F8840000280E
:10447000B6D0206801F4404140F26B33B1F5404FB3
:10448000026822F001020260026922EA030101616E
:104490006FD1816846F2397521F440418160E06F47
:1044A000C0F6000548B10565FDF766F828B1D4F8F7
:1044B000840040F04000C4F88400A06F00283FF45E
:1044C0008FAF0565FDF758F8002808BF70BDD4F818
:1044D000840040F04000C4F8840070BD21688A69FF
:1044E00042F008028A618A6942F010028A618A6990
:1044F00042F400628A610A6922F008020A6189684E
:1045000011F4404F1FD0204602F0B2F8012084F889
:104510008100D4F8840078BB032D32D0042D35D02F
:10452000052D7FF45DAF2046BDE8704000F090BBE4
:104530002268616E126B41F8042B6166B4F86A1050
:104540000139A4F86A10B4F86A100029DBD0E168D8
:104550001029EDD2082904D3028E616E21F8022BB6
:10456000EBE7216891F83010626E1170616E0131D5
:10457000E3E7012084F881002046BDE87040FFF7A2
:10458000FFBE2046BDE8704000F05ABB2046BDE8A3
:10459000704000F06DB900002DE9F04381B00028B3
:1045A0005AD043F6000104460068C4F2000143F209
:1045B000000E43F6004C8842C4F2010EC4F2000C17
:1045C0004FF00002A26203D0604518BF704540D191
:1045D000E36B0125E268884202F1080205EB531300
:1045E0004FEAD20202FB03F318BF704526D1102B0D
:1045F00032D894F8810028B9002084F88000204641
:1046000000F0A6F8022084F88100D4E90009D4F86B
:1046100018800368B8F1806F23F00103036083689A
:1046200003F4F81E24D1B9F1000F19D0B9F5800FA9
:104630001ED1A36BC3B14FF480091FE0604518BFC2
:10464000082B09D80CF57441884218BF6045CED0BC
:10465000CFE7E3680F2BBBD9012001B0BDE8F083A1
:10466000A36BB3F1805F6FD1036843F480530360A1
:104670005FEA492302D44FF0010C0EE0E368072BF8
:1046800009D3056825F4807C256D45EA0C05056095
:104690004FF0000C06E04FF0000C036823F4807329
:1046A0000360E368E769A26A47EA0E07E16B3A43F1
:1046B000A56811432669676919438160B9F1000F44
:1046C000626AD4E90D1341EA0201226A41EA030158
:1046D000E36C41EA060141EA070141EA0201A26CEA
:1046E00041EA0301A36D41EA050141EA020141EA01
:1046F000030141EA080141EA0901C1600DD0016DE1
:10470000BCF1000F21F00101016514D1C168626D97
:1047100021F000411143C1600DE08168012262F384
:10472000CC2181608168022262F34A218160016D9F
:1047300021F0010101650020C4F88400012184F802
:10474000811001B0BDE8F0834FF0000993E700004D
:104750002DE9F04FB3B06946044601F10800B021DD
:10476000FBF708FE43F200012068C4F20101884211
:1047700002D033B0BDE8F08F4FF48050009068460F
:104780004FF00008CDF80480FEF746FC08B1FCF7B6
:104790004BF944F2E04040F20045C5F60200C5F690
:1047A00002052EAE4FF0020901694FF0010A41F4F3
:1047B0008051016101694FF0030B01F480512E918A
:1047C0002E99016841F0080101600168052701F098
:1047D00008012E912E99016841F0020101600068E4
:1047E000314600F002002E902E9880202E9005F584
:1047F0000060CDF8BC90CDF8C0A0CDF8C4B0329721
:10480000FEF7E6F82EA91820329781E8010E284617
:104810003146FEF7DDF840F2EC0540F22840C2F2E6
:104820000005C4F202002860262068604020C5E927
:1048300002084FF48060C5E904084FF48030C5E9F0
:1048400008082846C5E90688FDF7DEFB08B1FCF735
:10485000EBF8232002210022A567AC63FEF73CFAA7
:104860002320FEF725FA33B0BDE8F08F00000000EA
:1048700070470000000000007047000000000000CA
:104880002DE9F047044690F88000012802D102206B
:10489000BDE8F0871D4617460E46D4F8009001206B
:1048A00084F88000FEF77CF994F88110012909D181
:1048B000002E18BF002F0BD1002084F880000120AB
:1048C000BDE8F087002084F880000220BDE8F08772
:1048D0008046032084F881000020C4F88400E66547
:1048E000A4F86070A4F862706066A4F86800A4F888
:1048F0006A00A1682067B1F5C02F6067206804D105
:10490000016841F40061016004E0C168012262F3C2
:104910005241C16041684FF6FF7291433944416092
:10492000016841F0010101606168B1F5800F03D1B8
:10493000016841F400710160E168102933D3B4F8D3
:104940006200002800F0A7806E1C0EE0E16D51F8B7
:10495000042B0262E165B4F862000138A4F8620039
:10496000B4F86200002800F0968020684169890749
:10497000ECD4FEF715F9002EF2D0A0EB0800A84207
:10498000EED3204601F074FE002084F88000D4F8B5
:10499000840040F48070C4F88400012084F8810011
:1049A0000320BDE8F087B4F86200072931D9002858
:1049B00071D04FF6FE706E1C471C0FE0E16D31F8B0
:1049C000020BA9F820003846E165B4F862100844EB
:1049D000A4F86200B4F8620000285CD02068416945
:1049E000890708D4FEF7DCF8002EF3D0A0EB08000E
:1049F000A842EFD3C5E7B4F862100229DED3E16B19
:104A00000029DBD0E16D51F8042B02624FF6FE70F5
:104A1000DAE700283FD04FF6FE706E1CA0F1020AC4
:104A2000471C0FE0E16D097880F82010E06D411C13
:104A30003846E165B4F862100844A4F86200B4F89E
:104A4000620040B320684169890708D4FEF7A8F8DE
:104A5000002EF4D0A0EB0800A842F0D391E7B4F800
:104A60006210042908D3E16B412905D3E16D51F8A7
:104A7000042B02625046DCE7B4F862100229D1D35D
:104A8000E16B0029CED0E16D31F8020BA9F82000CE
:104A90004FF6FE70CDE76E1C2068406900070DD40C
:104AA000FEF77EF8002EF7D0A0EB0800A842F3D363
:104AB000D4F8840040F02000C4F88400204601F0BF
:104AC000D7FD002084F88000012084F88100D4F80C
:104AD0008400002818BF0120BDE8F0870000000016
:104AE00070B5044690F88000012801D1022070BD05
:104AF000012084F8800094F8810001281ED1D1B3F0
:104B00001546C2B3032084F881000020C4F8840055
:104B1000E165A4F86050A4F862506066C4E91C0026
:104B2000A4F86800A4F86A00A068B0F5C02F226855
:104B300009D1106840F40060106009E0002084F89A
:104B40008000022070BDD068012363F35240D06022
:104B5000E368102B05D3A06F8369B3F5804F0AD1AA
:104B600021E0A06F082B83690AD3B3F5005F1AD048
:104B7000B3F5804F0ED0002084F88000012070BD76
:104B8000B3F5005F06D0B3F5804F0CD102264FF08D
:104B9000030C02E04FF0010C0126B4F862306344CC
:104BA000F340A4F8623046F2897346F28176C0F68B
:104BB0000003C0F60006C0E90F3646F25173002626
:104BC000C0F60003C3640665936823F40043936052
:104BD000B4F862302032FDF727FD58B1D4F88400D4
:104BE00040F01000C4F88400012084F8806084F84C
:104BF000810070BDA16F4FF6FF76D4E90002C9694C
:104C00004368B1F5807F23EA060318BF2B44B2F551
:104C1000800F4360816841F400418160016941F483
:104C200048710161016841F00101016003D101682F
:104C300041F400710160002084F8800070BD000024
:104C400070470000000000007047000000000000F6
:104C50007047000000000000411E0020B0EB116F03
:104C600001D0012070474EF21002F023CEF2000274
:104C700051604EF62351CEF200010B700721906077
:104C8000116070470000000090F88410012901D1E4
:104C9000022070472421C0F8881002681368116848
:104CA00023F0005321F001011160002141661360DF
:104CB0002022C0F8882080F8841008467047000041
:104CC00070B590F88420012A01D1022070BD242201
:104CD000C0F888200268D0F864E0BEF1000FD2F876
:104CE00000C0136823F001031360936823F060632E
:104CF00041EA0301916019D0916849F69E2E9368AC
:104D0000C0F6000E5B0F49F6A625C1F34266C0F659
:104D100000051EF80340E95C2301B3FBF1F11EF826
:104D20000630AE5D1B01B3FBF6F301E00121012368
:104D3000A0F86A102021A0F86830C2F800C0C0F8BE
:104D40008810002180F88410084670BD0000000023
:104D500070B590F88420012A01D1022070BD242270
:104D6000C0F888200268D0F864E0BEF1000FD2F8E5
:104D700000C0136823F001031360936823F06043BD
:104D800041EA0301916019D0916849F69E2E93681B
:104D9000C0F6000E5B0F49F6A625C1F34266C0F6C9
:104DA00000051EF80340E95C2301B3FBF1F11EF896
:104DB0000630AE5D1B01B3FBF6F301E001210123D8
:104DC000A0F86A102021A0F86830C2F800C0C0F82E
:104DD0008810002180F88410084670BD0000000093
:104DE00010B5B0B10446D0F8880028B9002084F886
:104DF0008400204600F028F82420C4F888002068A9
:104E0000016821F001010160204601F0C5FE012882
:104E100001D1012010BDA06A10B1204601F094FD1F
:104E20002068416821F490414160816821F02A01A5
:104E30008160016841F0010101602046BDE8104039
:104E400001F0F2BD000000002DE9F041B4B0694668
:104E5000044601F10800B021FBF78CFA41F2000191
:104E60002068C4F20101884202D034B0BDE8F0816C
:104E700001200090684600260196FEF7CDF808B1A3
:104E8000FBF7D2FD44F2E04040F22808C5F60200EC
:104E9000C4F20208016941F010010161016901F0E9
:104EA00010012F912F99016841F001010160006804
:104EB0002FA900F001002F902F984FF4C0602F9081
:104EC0000220CDE930060720339000203296C5F647
:104ED0000200FDF77DFD40F2DC152A20C2F200053C
:104EE0004FF4806768604020C5E902062846C5F88F
:104EF0000080C5E90476C5E90666C5E90866FDF7E0
:104F000083F808B1FBF790FDE56708F13000AC636A
:104F100040F26415C2F20005286029206860002074
:104F2000C5E90200C5E90470C5E90600C5E9080045
:104F30002846FDF769F808B1FBF776FDC4F8805004
:104F4000AC6334B0BDE8F0812DE9F04182B0044695
:104F5000D0F8880020281ED10D4600294FF001000E
:104F60004DD01746002A4AD098460020C4F8900039
:104F70002120C4F88800FDF713FEA4F85470A4F8AB
:104F800056700746A168B1F5805F01D1206930B144
:104F90002E46002512E0022002B0BDE8F081002676
:104FA0000CE000BF35F8020B216800266FF35F208C
:104FB0008862B4F856000138A4F85600B4F85600D8
:104FC00078B18021002220463B46CDF8008002F0D7
:104FD0002BF8B8B9002EE5D0206816F8011B8162C5
:104FE000E7E74021002220463B46CDF8008002F052
:104FF0001BF820210028C4F8881018BF032002B035
:10500000BDE8F0812020C4F88800032002B0BDE88C
:10501000F081000000000000FEE70000000000003A
:105020002DE9F04784B041F200059246C5F602052D
:105030008946A5F5806407464FF48061002220462A
:105040009846FDF7A5FD2A208DF805004FF4004194
:1050500000222846FDF79CFD40F254260DF1050183
:10506000C2F2000601224FF47A733046FFF708FCC3
:105070004FF4004101222846FDF78AFD4FF480617C
:1050800001222046FDF784FD14374FF40041380A11
:105090008DF8060000222846FDF77AFD0DF1060185
:1050A00001224FF47A733046FFF7EAFB4FF40041D8
:1050B00001222846FDF76CFD4FF4004100222846EE
:1050C0008DF80770FDF764FD0DF1070101224FF423
:1050D0007A733046FFF7D4FB4FF400410122284693
:1050E000FDF756FD0AF114074FF40041380A8DF818
:1050F000080000222846FDF74BFD02A901224FF4CB
:105100007A733046FFF7BCFB4FF40041012228467A
:10511000FDF73EFD4FF40041002228468DF809704E
:10512000FDF736FD0DF1090101224FF47A73304687
:10513000FFF7A6FB4FF4004101222846FDF728FDAA
:105140004FF4806100222046FDF722FD2B208DF8D0
:105150000A004FF4004100222846FDF719FD0DF129
:105160000A0101224FF47A733046FFF789FB4FF4AE
:10517000004101222846FDF70BFD4FF4806101221A
:105180002046FDF705FD4FEA19208DF80B004FF47E
:10519000004100222846FDF7FBFC0DF10B01012226
:1051A0004FF47A733046FFF76BFB4FF40041012256
:1051B0002846FDF7EDFC4FF40041002228468DF80B
:1051C0000C90FDF7E5FC03A901224FF47A733046F9
:1051D000FFF756FB4FF4004101222846FDF7D8FCAB
:1051E0004FEA18208DF80D004FF4004100222846A8
:1051F000FDF7CEFC0DF10D0101224FF47A7330461C
:10520000FFF73EFB4FF4004101222846FDF7C0FCAA
:105210004FF40041002228468DF80E80FDF7B8FCBF
:105220000DF10E0101224FF47A733046FFF728FB8F
:105230004FF4004101222846FDF7AAFC4FF480619B
:1052400000222046FDF7A4FC2C208DF80F004FF41F
:10525000004100222846FDF79BFC0DF10F010122C1
:105260004FF47A733046FFF70BFB4FF400410122F5
:105270002846FDF78DFC4FF4806101222046FDF7A2
:1052800087FC04B0BDE8F0872DE9F04F85B01546E6
:105290000E46013A591E92B21C468BB2314602901C
:1052A000FFF7BEFEA64201944FD20E9841F20004D1
:1052B00040F25427C5F602044FEA1029C2F2000753
:1052C00006E000BF039E01360199B0B288423CD28D
:1052D00002980396A8420E9E0DF112080DF1130BD1
:1052E000F0D2DDF808A000BF4FF4004100222046B4
:1052F0008DF81290FDF74CFC01224FF47A7338467A
:105300004146FFF7BDFA4FF4004101222046FDF768
:105310003FFC4FF40041002220468DF81360FDF75A
:1053200037FC01224FF47A7338465946FFF7A8FA42
:105330004FF4004101222046FDF72AFC0AF1010A40
:105340001FFA8AF0A842CFD3BCE705B0BDE8F08FC2
:105350002DE9F04F81B041F200044FF40061C5F631
:1053600002040022A4F540654FF000092846FDF72D
:105370000FFC6420FDF718FB4FF400610122284662
:105380004FF00108FDF704FC6420FDF70DFB4FF41E
:10539000806101222846FDF7FBFB6420FDF704FB3A
:1053A000A4F580654FF4806100222846FDF7F0FBEC
:1053B00011208DF803004FF4004100222046FDF734
:1053C000E7FB40F254260DF10301C2F20006012270
:1053D0004FF47A733046FFF753FA4FF4004101223D
:1053E0002046FDF7D5FB4FF4806101222846FDF7EA
:1053F000CFFB7820FDF7D8FA4FF4806100222846D1
:10540000FDF7C6FB36208DF803004FF40041002263
:105410002046FDF7BDFB0DF1030101224FF47A7325
:105420003046FFF72DFA4FF4004101222046FDF7E8
:10543000AFFB4FF4806101222846FDF7A9FB7020E5
:105440008DF803004FF4004100222046FDF7A0FB39
:105450000DF1030101224FF47A733046FFF710FA81
:105460004FF4004101222046FDF792FB4FF480618A
:1054700000222846FDF78CFB3A208DF803004FF4FC
:10548000004100222046FDF783FB0DF103010122BC
:105490004FF47A733046FFF7F3F94FF400410122DD
:1054A0002046FDF775FB4FF4806101222846FDF789
:1054B0006FFB4FF40041002220464FF0050A8DF8A3
:1054C00003A0FDF765FB0DF1030101224FF47A7390
:1054D0003046FFF7D5F94FF4004101222046FDF791
:1054E00057FB4FF4806100222846FDF751FBB220A4
:1054F0008DF803004FF4004100222046FDF748FBE1
:105500000DF1030101224FF47A733046FFF7B8F929
:105510004FF4004101222046FDF73AFB4FF4806131
:1055200001222846FDF734FB4FF4004100222046BB
:105530000C278DF80370FDF72BFB0DF10301012201
:105540004FF47A733046FFF79BF94FF40041012284
:105550002046FDF71DFB4FF40041002220468DF848
:105560000370FDF715FB0DF1030101224FF47A736F
:105570003046FFF785F94FF4004101222046FDF740
:1055800007FB4FF40041002220468DF80390FDF701
:10559000FFFA0DF1030101224FF47A733046FFF751
:1055A0006FF94FF4004101222046FDF7F1FA332054
:1055B0008DF803004FF40041002220463327FDF709
:1055C000E7FA0DF1030101224FF47A733046FFF739
:1055D00057F94FF4004101222046FDF7D9FA4FF464
:1055E0000041002220468DF80370FDF7D1FA0DF13D
:1055F000030101224FF47A733046FFF741F94FF46B
:10560000004101222046FDF7C3FA4FF480610022D9
:105610002846FDF7BDFAB7208DF803004FF400418E
:1056200000222046FDF7B4FA0DF1030101224FF4E8
:105630007A733046FFF724F94FF4004101222046E7
:10564000FDF7A6FA4FF4806101222846FDF7A0FA83
:1056500035208DF803004FF4004100222046FDF76D
:1056600097FA0DF1030101224FF47A733046FFF7E8
:1056700007F94FF4004101222046FDF789FA4FF463
:10568000806100222846FDF783FABB208DF80300D5
:105690004FF4004100222046FDF77AFA0DF1030194
:1056A00001224FF47A733046FFF7EAF84FF40041D5
:1056B00001222046FDF76CFA4FF480610122284652
:1056C000FDF766FA32208DF803004FF40041002206
:1056D0002046FDF75DFA0DF1030101224FF47A73C4
:1056E0003046FFF7CDF84FF4004101222046FDF788
:1056F0004FFA4FF4806100222846FDF749FAC22094
:105700008DF803004FF4004100222046FDF740FAD7
:105710000DF1030101224FF47A733046FFF7B0F820
:105720004FF4004101222046FDF732FA4FF4806128
:1057300001222846FDF72CFA4FF4004100222046B2
:105740008DF80380FDF724FA0DF1030101224FF4D7
:105750007A733046FFF794F84FF400410122204657
:10576000FDF716FA4FF4806100222846FDF710FA83
:10577000C3208DF803004FF4004100222046FDF7BE
:1057800007FA0DF1030101224FF47A733046FFF757
:1057900077F84FF4004101222046FDF7F9F94FF464
:1057A000806101222846FDF7F3F915208DF80300EA
:1057B0004FF4004100222046FDF7EAF90DF1030104
:1057C00001224FF47A733046FFF75AF84FF4004144
:1057D00001222046FDF7DCF94FF4806100222846C3
:1057E000FDF7D6F9C4208DF803004FF400410022E4
:1057F0002046FDF7CDF90DF1030101224FF47A7334
:105800003046FFF73DF84FF4004101222046FDF7F6
:10581000BFF94FF4806101222846FDF7B9F9202035
:105820008DF803004FF4004100222046FDF7B0F947
:105830000DF1030101224FF47A733046FFF720F88F
:105840004FF4004101222046FDF7A2F94FF4806198
:1058500000222846FDF79CF9C6208DF803004FF47E
:10586000004100222046FDF793F90DF103010122CA
:105870004FF47A733046FFF703F84FF400410122EA
:105880002046FDF785F94FF4806101222846FDF797
:105890007FF90F208DF803004FF4004100222046CD
:1058A000FDF776F90DF1030101224FF47A733046CA
:1058B000FEF7E6FF4FF4004101222046FDF768F9AC
:1058C0004FF4806100222846FDF762F94FF4004151
:1058D000002220464FF0D00B8DF803B0FDF758F9A9
:1058E0000DF1030101224FF47A733046FEF7C8FF31
:1058F0004FF4004101222046FDF74AF94FF4806140
:1059000001222846FDF744F9A4208DF803004FF446
:10591000004100222046FDF73BF90DF10301012271
:105920004FF47A733046FEF7ABFF4FF4004101228B
:105930002046FDF72DF9A1208DF803004FF400411A
:1059400000222046FDF724F90DF1030101224FF456
:105950007A733046FEF794FF4FF40041012220464F
:10596000FDF716F94FF4806100222846FDF710F983
:10597000E0208DF803004FF4004100222046FDF79F
:1059800007F90DF1030101224FF47A733046FEF757
:1059900077FF4FF4004101222046FDF7F9F84FF45C
:1059A000806101222846FDF7F3F84FF40041002200
:1059B00020468DF803B0FDF7EBF80DF1030101224D
:1059C0004FF47A733046FEF75BFF4FF4004101223B
:1059D0002046FDF7DDF808208DF803004FF4004164
:1059E00000222046FDF7D4F80DF1030101224FF407
:1059F0007A733046FEF744FF4FF4004101222046FF
:105A0000FDF7C6F80E208DF803004FF40041002288
:105A100020460E27FDF7BCF80DF1030101224FF4DB
:105A20007A733046FEF72CFF4FF4004101222046E6
:105A3000FDF7AEF84FF40041002220464FF009096F
:105A40008DF80390FDF7A4F80DF1030101224FF446
:105A50007A733046FEF714FF4FF4004101222046CE
:105A6000FDF796F84FF40041002220468DF8039090
:105A7000FDF78EF80DF1030101224FF47A733046E1
:105A8000FEF7FEFE4FF4004101222046FDF780F8AC
:105A90004FF40041002220468DF803A0FDF778F86E
:105AA0000DF1030101224FF47A733046FEF7E8FE50
:105AB0004FF4004101222046FDF76AF84FF40041FF
:105AC000002220464FF0310A8DF803A0FDF760F860
:105AD0000DF1030101224FF47A733046FEF7D0FE38
:105AE0004FF4004101222046FDF752F833208DF893
:105AF00003004FF4004100222046FDF749F80DF164
:105B0000030101224FF47A733046FEF7B9FE4FF4D9
:105B1000004101222046FDF73BF848208DF80300A4
:105B20004FF4004100222046FDF732F80DF1030149
:105B300001224FF47A733046FEF7A2FE4FF4004183
:105B400001222046FDF724F817208DF803004FF4BA
:105B5000004100222046FDF71BF80DF10301012250
:105B60004FF47A733046FEF78BFE4FF4004101226A
:105B70002046FDF70DF814208DF803004FF4004186
:105B800000222046FDF704F80DF1030101224FF435
:105B90007A733046FEF774FE4FF40041012220462E
:105BA000FCF7F6FF4FF40041002220464FF01508A5
:105BB0008DF80380FCF7ECFF0DF1030101224FF497
:105BC0007A733046FEF75CFE4FF400410122204616
:105BD000FCF7DEFF4FF40041002220468DF803A0C1
:105BE000FCF7D6FF0DF1030101224FF47A73304622
:105BF000FEF746FE4FF4004101222046FCF7C8FFA5
:105C000034208DF803004FF4004100222046FCF7B9
:105C1000BFFF0DF1030101224FF47A733046FEF706
:105C20002FFE4FF4004101222046FCF7B1FF4FF454
:105C3000806100222846FCF7ABFFE1208DF80300CD
:105C40004FF4004100222046FCF7A2FF0DF10301B2
:105C500001224FF47A733046FEF712FE4FF40041F2
:105C600001222046FCF794FF4FF480610122284670
:105C7000FCF78EFF4FF40041002220468DF803B060
:105C8000FCF786FF0DF1030101224FF47A733046D1
:105C9000FEF7F6FD4FF4004101222046FCF778FFA5
:105CA00008208DF803004FF4004100222046FCF745
:105CB0006FFF0DF1030101224FF47A733046FEF7B6
:105CC000DFFD4FF4004101222046FCF761FF4FF455
:105CD0000041002220468DF80370FCF759FF0DF1BA
:105CE000030101224FF47A733046FEF7C9FD4FF4E9
:105CF000004101222046FCF74BFF4FF400410022F7
:105D000020468DF80390FCF743FF0DF103010122BB
:105D10004FF47A733046FEF7B3FD4FF40041012291
:105D20002046FCF735FF4FF40041002220468DF855
:105D30000390FCF72DFF0DF1030101224FF47A735C
:105D40003046FEF79DFD4FF4004101222046FCF74E
:105D50001FFF4FF40041002220468DF803801527D5
:105D6000FCF716FF0DF1030101224FF47A73304660
:105D7000FEF786FD4FF4004101222046FCF708FFA4
:105D80004FF40041002220468DF803A0FCF700FFED
:105D90000DF1030101224FF47A733046FEF770FDD6
:105DA0004FF4004101222046FCF7F2FE33208DF82B
:105DB00003004FF4004100222046FCF7E9FE0DF1FC
:105DC000030101224FF47A733046FEF759FD4FF478
:105DD000004101222046FCF7DBFE48208DF803003D
:105DE0004FF4004100222046FCF7D2FE0DF10301E2
:105DF00001224FF47A733046FEF742FD4FF4004122
:105E000001222046FCF7C4FE17208DF803004FF452
:105E1000004100222046FCF7BBFE0DF103010122E8
:105E20004FF47A733046FEF72BFD4FF40041012208
:105E30002046FCF7ADFE14208DF803004FF400411E
:105E400000222046FCF7A4FE0DF1030101224FF4CD
:105E50007A733046FEF714FD4FF4004101222046CC
:105E6000FCF796FE4FF40041002220468DF80370A7
:105E7000FCF78EFE0DF1030101224FF47A733046D8
:105E8000FEF7FEFC4FF4004101222046FCF780FEA5
:105E90004FF40041002220468DF803A0FCF778FE65
:105EA0000DF1030101224FF47A733046FEF7E8FC4E
:105EB0004FF4004101222046FCF76AFE34208DF8A1
:105EC00003004FF4004100222046FCF761FE0DF173
:105ED000030101224FF47A733046FEF7D1FC4FF4F0
:105EE000004101222046FCF753FE4FF4806100225E
:105EF0002846FCF74DFE21208DF803004FF40041A9
:105F000000222046FCF744FE0DF1030101224FF46C
:105F10007A733046FEF7B4FC4FF40041012220466C
:105F2000FCF736FE4FF4806101222846FCF730FE74
:105F30004FF4806100222846FCF72AFE29208DF8C4
:105F400003004FF4004100222046FCF721FE0DF132
:105F5000030101224FF47A733046FEF791FC4FF4AF
:105F6000004101222046FCF713FE4FF4806101221C
:105F70002846FCF70DFE01B0BDE8F08F00000000E0
:105F8000F0B581B002440B44013A013B92B241F2B8
:105F900000049BB2C5F60204FFF742F84FF400413B
:105FA00000222046FCF7F4FD40F254204FF010513F
:105FB000C2F200004FF6FF72FEF792FD40F270351C
:105FC00040F2EC06C2F20005C2F200060120287081
:105FD0003068416841B1416800291CBF416800290F
:105FE00002D041680029F4D100208DF802009DF80C
:105FF0000200272824D89DF8020001308DF8020005
:106000009DF8020027281BD89DF8020001308DF86A
:1060100002009DF8020027289FBF9DF80200013072
:106020008DF802009DF8020098BF272808D89DF837
:10603000020001308DF802009DF802002828DAD312
:106040004FF40041012220460127FCF7A1FD4FF447
:10605000004100222046FCF79BFD40F25420012124
:10606000C2F20000C2F201414FF6FF72FEF738FDA6
:1060700030682F70416841B1416800291CBF4168F8
:10608000002902D041680029F4D100208DF80300D6
:106090009DF80300272824D89DF8030001308DF8CF
:1060A00003009DF8030027281BD89DF8030001304A
:1060B0008DF803009DF8030027289FBF9DF803007B
:1060C00001308DF803009DF8030098BF272808D8F9
:1060D0009DF8030001308DF803009DF80300282887
:1060E000DAD34FF400410122204601B0BDE8F04070
:1060F000FCF74EBD0000000080B540F224000021F6
:10610000C2F20000C4F602012022016000214160B9
:10611000C0E90221C0E904118161C0E90811C0E9A8
:106120000A110163FAF708FD002808BF80BDBDE829
:106130008040FAF779BC000080B582B044F2D840C4
:106140000022C5F60200016841F00101016001680A
:1061500001F0010101910199016841F00201016022
:106160000068002100F00200009000980B20FCF76E
:10617000B3FD0B20FCF79CFD0C2000210022FCF756
:10618000ABFD0C20FCF794FD0E2000210022FCF753
:10619000A3FD0E20FCF78CFD392000210022FCF726
:1061A0009BFD392002B0BDE88040FCF781BD0000B6
:1061B0002DE9F04F87B044F2E0404FF00009C5F6FA
:1061C0000200CDF8189040F2004801220168C5F69F
:1061D000020841F010010160016808F5806701F0D4
:1061E000100101910199016841F08001016001688D
:1061F000202501F0800101910199016841F0010120
:10620000016001684FF0010A01F00101019101995B
:10621000016841F004010160016801F0040101918D
:106220000199016841F002010160016801F0020179
:1062300001910199016841F0080101600068202185
:1062400000F00800019001983846FCF7A1FC08F521
:1062500040644FF4004100222046FCF799FC4FF4C3
:10626000706100224046FCF793FC4FF480510122FC
:106270004046FCF78DFC08F500664FF48061002273
:106280003046FCF785FCCDE9025A02AD02200490AD
:10629000384629464FF0030BCDF814B0FCF798FBB5
:1062A0004FF400402946CDE9020A2046CDE9049981
:1062B000FCF78EFB4FF440602946CDE9020A4046C8
:1062C000CDE90499FCF784FB4FF480502946CDE9D1
:1062D000020A4046CDE904ABFCF77AFB4FF480603C
:1062E0002946CDE9020A3046CDE90499FCF770FB56
:1062F0004FF48070029002202946CDE90309A8F5E9
:106300008060CDE90599FCF763FB4FF44070029083
:1063100011202946CDE9030A4046CDF81490FCF738
:1063200057FB07B0BDE8F08F10B540F2542443F29C
:106330000000C2F20004C4F20100072120604FF403
:10634000800060600020A060E1604FF00071C4E94F
:1063500004104FF08061C4E90610C4E90800C4E9E4
:106360000A004FF08040606304F138002421FAF7FE
:1063700001F82046FEF710F9002808BF10BDBDE85F
:106380001040FAF751BB000080B540F2DC2041F22A
:106390000001C2F20000C4F201010C2201604FF4BE
:1063A000612141600021C0E902110161C0E90521BC
:1063B000C0E90711C0E90911FEF712FD08B1FAF7AB
:1063C00033FB40F2DC200021C2F20000FEF7C0FCEB
:1063D00008B1FAF729FB40F2DC200021C2F20000EC
:1063E000FEF76EFC08B1FAF71FFB40F2DC20C2F2A8
:1063F0000000FEF749FC002808BF80BDBDE88040D2
:10640000FAF712BB00000000FEE7000000000000E9
:10641000FEE70000000000007047000000000000E0
:10642000F0B581B044F22C47C5F6020757F8042CAA
:1064300002F00302032A02D1012001B0F0BD05469B
:1064400057F82C0C0C4620F0806047F82C0CFCF719
:10645000A7FB064657F82C0C000105D5FCF7A0FB5E
:10646000801B0228F6D964E057F8040CEE6895E822
:106470000E0020F47C30012C40EA0130A2F1010131
:106480006FF35F214FF47E4202EB432247F8040C86
:1064900092B24FF0FE4302EB01004FF4FE012A6975
:1064A00001EB064101F4FE0103EB0262084402F035
:1064B000FE410844F8603868696920F0C00040EA8D
:1064C000010038603868A96920F0200040EA010026
:1064D000386038684FF6F87120F01000386038697D
:1064E000EA6920EA01004FF4001140EAC200386175
:1064F000386808BF4FF4801140F01000002C38605D
:1065000008BF4FF4002138680843386057F82C0C56
:1065100040F0806047F82C0CFCF742FB044600BFBB
:1065200057F82C0C000107D4FCF73AFB001B03289A
:10653000F6D3032001B0F0BD002001B0F0BD000093
:10654000F0B581B044F22C47C5F6020757F8042C89
:1065500002F00302032A02D1012001B0F0BD05467A
:1065600057F82C0C0C4620F0805047F82C0CFCF708
:1065700017FB064657F82C0C800005D5FCF710FBDE
:10658000801B0228F6D964E057F8040CEE6895E801
:106590000E0020F07C70012C40EA0150A2F10101B4
:1065A0006FF35F214FF47E4202EB432247F8040C65
:1065B00092B24FF0FE4302EB01004FF4FE012A6954
:1065C00001EB064101F4FE0103EB0262084402F014
:1065D000FE41084478613868696920F4406040EA07
:1065E000010038603868A96920F4007040EA0100B1
:1065F000386038684FF6F87120F480703860B869F8
:10660000EA6920EA01004FF0807140EAC200B861F7
:10661000386808BF4FF4000140F48070002C3860E7
:1066200008BF4FF4800138680843386057F82C0CD5
:1066300040F0805047F82C0CFCF7B2FA044600BF3B
:1066400057F82C0C800007D4FCF7AAFA001B03288B
:10665000F6D3032001B0F0BD002001B0F0BD000072
:1066600040F25420C2F20000FDF78EBE0000000090
:10667000016840F26F32D1F814C08B6943F008030F
:106680008B618B6943F010038B610B6823F001036E
:106690000B600B6923EA02020A618A6822F4404215
:1066A0008A6090F88120042A18BF1CF0200209D0CB
:1066B000D0F8842042F08002C0F884208A6942F039
:1066C00020028A6190F88120032A18BF1CF0400242
:1066D00015D15FEA8C521FD45FEACC5209D5D0F8AD
:1066E000842042F00802C0F884208A6942F4807253
:1066F0008A610021A0F86210A0F86A107047D0F8F3
:10670000842042F00402C0F884208A6942F04002EA
:106710008A615FEA8C52DFD5D0F8842042F0010212
:10672000C0F884208A6942F400728A615FEACC5220
:10673000DFD5D4E700000000806B0021A0F86A10CC
:10674000A0F86210012180F88110FDF719BE000049
:1067500010B5846BFBF760F8022808BF10BD204617
:10676000FFF786FFD4F8840040F01000C4F88400DE
:10677000012084F881002046BDE81040FDF700BEEE
:10678000806BFEF761BA0000806B90F881100729DA
:1067900008BF7047816FC969B1F5807F01D1FEF7ED
:1067A0004FBA0068016941F00801016170470000BB
:1067B0007047000000000000FCF7FAB9000000007C
:1067C000B0B59CB044F61804022000251195CDE91F
:1067D0000F55CDE90D55CDE90B550895C5F60204C9
:1067E000CDE90655CDE90455CDE902550195FCF7F3
:1067F000B3FA0095206820F440402060206800F43F
:106800004040009000982068800409D420688004EB
:106810005CBF20685FEA804002D420688004F2D523
:10682000012009902A224FF48031CDE915200C2057
:10683000199009A80A9102211491CDE9121103249B
:106840000025CDE91741CDE91A55FDF711FB20B11F
:10685000EFF3108072B600BFFEE701A93F2031C1FF
:106860000820049040204FF48061CDE90500CDE977
:10687000071001A80321FDF767F820B1EFF310809E
:1068800072B600BFFEE700204FF400014FF48022F3
:10689000FDF79EFA1CB0B0BD4EF6885042F2000CD7
:1068A000CEF20000C5F2002C026842F470020260D1
:1068B000DCF8000000F00F00062806D8DCF8000025
:1068C000072262F30300CCF8000044F200404EF6C9
:1068D0007F51C5F60200CEF6F621026842F00102B1
:1068E000026000220261036819400160DCF80010B8
:1068F000090706D5DCF80010072363F30301CCF881
:10690000001040F200218261C261C0F202210262E5
:1069100081620021C0F2FF11C16240F28021C0F209
:106920000111016342638163C263016442640168CF
:1069300021F480210160026644F20000C5F20020CB
:1069400043F2D20101607047816ACA070CD18A07FD
:1069500015D44A071ED40A0727D4CA0630D48A069B
:1069600039D44A0655D541E00268D0F82CC05368A6
:1069700023F4003343EA0C0353608A07E9D5026825
:10698000D0F830C0536823F4803343EA0C035360DB
:106990004A07E0D50268D0F834C0536823F4802356
:1069A00043EA0C0353600A07D7D50268D0F838C011
:1069B000536823F4004343EA0C035360CA06CED560
:1069C0000268D0F83CC0936823F4805343EA0C0378
:1069D00093608A06C5D50268D0F840C0936823F456
:1069E000005343EA0C0393604A0612D50268D0F8BC
:1069F00044C0BCF5801F536823F4801343EA0C03A2
:106A0000536006D1536823F4C00C836C43EA0C0333
:106A10005360090658BF70470168C06C4A6822F489
:106A20000022104348607047B0B582B00446002091
:106A3000C4F89000FCF7B4F8216805460A6812070C
:106A400038D54FF4001100226FF07E4000902046B0
:106A50002B4600F0E9FA60B3206850E8000F216887
:106A600020F0800041E80002F2B1206850E8000FF9
:106A7000216820F0800041E80002002A1FBF206842
:106A800050E8000F216820F080001CBF41E80002A0
:106A9000002A09D0206850E8000F216820F080000B
:106AA00041E80002002AD7D12020C4F88800032042
:106AB0006DE021680868400761D54FF4800100222D
:106AC0006FF07E40009020462B4600F0ADFA002883
:106AD00055D0206850E8000F216820F4907041E8FC
:106AE0000002FAB1206850E8000F216820F490708D
:106AF00041E80002002A1FBF206850E8000F21680B
:106B000020F490701CBF41E80002002A0AD02068DF
:106B100050E8000F216820F4907041E80002002A3C
:106B2000D7D100BF206850E8020F216820F0010093
:106B300041E80202F2B1206850E8020F216820F01B
:106B4000010041E80202002A1FBF206850E8020F3E
:106B5000216820F001001CBF41E80202002A09D090
:106B6000206850E8020F216820F0010041E802028D
:106B7000002AD7D12020C4F88C00032007E0202071
:106B8000C4F88800C4F88C000020E066206700216B
:106B900084F8841002B0B0BDF0B583B0044600683C
:106BA00046F6F31640F6004E22696569D4E90213F1
:106BB0000A43E7690168CCF6FF762A433140114366
:106BC000C5F6000E394301604168704521F440511B
:106BD00044F2544C41EA03014160A2694FF2FF4381
:106BE0001CBF216A0A438168C1F2FF131940C5F630
:106BF000020C1143816047F6FF32C16AC4F2000201
:106C000021F00F01656A90424FF0800341EA0501CF
:106C1000C16218DD41F2FF71C4F20101884227DC34
:106C200047F60041C4F2000188424FD041F2000112
:106C3000C4F20101884232D041F20041C4F20101A4
:106C400088422CD050E044F6FF31C4F20001884263
:106C500030DD44F60041C4F20001884236D045F2EE
:106C60000001C4F20001884230D047F6000129E05B
:106C700041F60001C4F20101884210D041F6004102
:106C8000C4F2010188420AD070452DD1DCF804100D
:106C900001F00702062A26D20FF2843120E0DCF848
:106CA0000010C1F3C202062A1DD248F28A61C0F662
:106CB000000115E044F20041C4F20001884205D011
:106CC00044F60001C4F2000188420DD1DCF8001046
:106CD00001F00702062A06D248F28461C0F60001DC
:106CE0008B181B7800E08023704540F60010C0F23E
:106CF0003D0000F05280B7F5004F40F07B80402B04
:106D00004FF0010100F28281DFE813F04100090138
:106D1000800180010E01800180018001120180014B
:106D20008001800180018001800180011A018001C1
:106D3000800180018001800180018001800180014B
:106D40008001800180018001800180012A01800191
:106D5000800180018001800180018001800180012B
:106D6000800180018001800180018001800180011B
:106D7000800180018001800180018001800180010B
:106D80008001800180018001800180012801FCF7E1
:106D900037FF002840F0D280C4E09A1E01211E2A4D
:106DA00000F27680DFE812F01F0032017A00320133
:106DB000320132017E0032013201320132013201F0
:106DC00032013201870032013201320132013201D7
:106DD000320132013201320132013201320132011B
:106DE000320132019400FBF7DBFF002840F06180A4
:106DF00000210BE1402B4FF0010100F20781DFE899
:106E000013F04100CC0005010501D1000501050189
:106E10000501D50005010501050105010501050173
:106E20000501DD000501050105010501050105015B
:106E30000501050105010501050105010501050122
:106E40000501ED000501050105010501050105012B
:106E50000501050105010501050105010501050102
:106E600005010501050105010501050105010501F2
:106E700005010501050105010501050105010501E2
:106E80000501EB00FCF7BCFE002840F0958087E090
:106E9000402B40F0BB804FF4004019E06846FBF700
:106EA00093FF02E06846FCF723F8019800283FF4BE
:106EB0009FAF656A0CE05CF8540C800649F2000054
:106EC000C0F2D03004D55CF8541CC1F3C101C840F5
:106ED00049F686216268C0F6000131F81510B0FB52
:106EE000F1F002EB420188424FF00101C0F08E80C8
:106EF0001303984200F28A80010E0023000210EB77
:106F0000520041F10001F9F7FDF94FF60052A0F5EA
:106F10004071C0F20F02914273D3012176E0FCF779
:106F20009FFE58B9002171E06846FBF74DFF02E073
:106F30006846FBF7DDFF01980028F3D0656A0FE093
:106F40005CF8540C800649F20000C0F2D03007D53E
:106F50005CF8541CC1F3C101C84001E04FF400408B
:106F600049F68621C0F6000131F81510B0FBF1F0AA
:106F700061684A0802EB40004FF6EF72B0FBF1F097
:106F8000A0F11001914206D84FF6F0710140C0F314
:106F90004200084435E0012138E0FCF761FE58B9B1
:106FA000002133E06846FBF70FFF02E06846FBF77D
:106FB0009FFF01980028F3D0656A0FE05CF8540C3D
:106FC000800649F20000C0F2D03007D55CF8541CAE
:106FD000C1F3C101C84001E04FF4004049F68621E9
:106FE0006268C0F6000131F81510B0FBF1F000EB5B
:106FF0005200B0FBF2F0A0F110014FF6EF72914297
:1070000003D82168C860002100E001214FF0011081
:10701000A0660020C4E91D00084603B0F0BD00BF13
:1070200002040810204000002DE9F04381B004461E
:1070300000680D46C7693940491BB1FA81F1490919
:10704000914240F0AC80DDF820801646994608F168
:10705000010708E0C1692940491BB1FA81F14909DA
:10706000B14240F0A080002FF4D0FBF799FDB8F1B9
:10707000000F01464FF0030000F09680A1EB0901DC
:10708000414500F29180206801684907E2D5C16955
:10709000090700F18C80C1690905DBD54FF4006157
:1070A0000162206850E8000F216820F4907041E8E8
:1070B0000002F2B1206850E8000F216820F49070BF
:1070C00041E80002002A1FBF206850E8000F216835
:1070D00020F490701CBF41E80002002A09D020680B
:1070E00050E8000F216820F4907041E80002002A67
:1070F000D7D14FF6FE70CEF6FF70216851E8021F1F
:107100002268014042E80213DBB1216851E8021F06
:107110002268014042E80213002B1FBF216851E89A
:10712000021F226801401CBF42E80213002B08D056
:10713000216851E8021F2268014042E80213002B37
:10714000DBD1E06E012827D1206850E8000F2168CC
:1071500020F0100041E80002F2B1206850E8000F72
:10716000216820F0100041E80002002A1FBF2068BB
:1071700050E8000F216820F010001CBF41E8000219
:10718000002A09D0206850E8000F216820F0100084
:1071900041E80002002AD7D10320202186E0002008
:1071A00001B0BDE8F083002001B0BDE8F083082104
:1071B0000162206850E8000F216820F4907041E8D7
:1071C0000002F2B1206850E8000F216820F49070AE
:1071D00041E80002002A1FBF206850E8000F216824
:1071E00020F490701CBF41E80002002A09D02068FA
:1071F00050E8000F216820F4907041E80002002A56
:10720000D7D14FF6FE70CEF6FF70216851E8021F0D
:107210002268014042E80213DBB1216851E8021FF5
:107220002268014042E80213002B1FBF216851E889
:10723000021F226801401CBF42E80213002B08D045
:10724000216851E8021F2268014042E80213002B26
:10725000DBD1E06E012827D1206850E8000F2168BB
:1072600020F0100041E80002F2B1206850E8000F61
:10727000216820F0100041E80002002A1FBF2068AA
:1072800050E8000F216820F010001CBF41E8000208
:10729000002A09D0206850E8000F216820F0100073
:1072A00041E80002002AD7D1012008212022C4F899
:1072B0008C200022E2666267C4F8901084F8842073
:1072C00001B0BDE8F0830000FEE700000000000010
:1072D00080B582B0019040F2DC20C2F2000001A92A
:1072E00001224FF6FF73FDF72FFE019802B080BD1B
:1072F00084B04EF660704FF6B452CEF20000CFF676
:10730000FF728158890312D4BFF34F8FBFF36F8F81
:10731000002140F8101CBFF34F8FBFF36F8F8158CF
:1073200041F400318150BFF34F8FBFF36F8F81580D
:10733000C90361D44FF624610022CFF6FF71012703
:1073400042504FF62061CFF6FF71BFF34F8F415887
:10735000CB08C1F3C905C1F34E32A5F1020B07EB0F
:10736000D107691E4FEA837E07F003064FEA817A50
:1073700043F6E0774FEA8B730393EB1E029303E02F
:10738000002AA2F1010229D007EA42142B467EB15D
:10739000012E4EEA040303600B4609D0022E4AEA8E
:1073A000040303605B4603D0039B23430360029BFB
:1073B000032DE5D344EA8374013304F1404C84F097
:1073C000004804F1804900BF043B0460C0F800C0DD
:1073D000C0F80080C0F80090F6D1D1E74FF6B45263
:1073E000CFF6FF72BFF34F8F815841F48031815047
:1073F000BFF34F8FBFF36F8FFBF7EAFBFFF7E0F9A7
:10740000FEF7D6FEFEF798FEFEF776FEFEF7BCFF0F
:10741000FEF78AFFFDF79CFF002000214FF48C72DD
:10742000F02300240094FDF72FFF00F089F800F00E
:107430001FF800F07DF84FF0105048F240314FF047
:10744000105500F015F940F22106C2F2000600BF07
:1074500030780128FCD1002000214FF48C72F023F9
:107460000095FEF78DFD3470F2E70000000000008B
:10747000F0B581B04FF44050202100F055FF48F2A4
:10748000A0614FF40040C0F6000140F6ED7200F03C
:1074900027FF4FF440500021002600F045FF0FA4C5
:1074A00013A518A707E000BF284601F0D9F8632EFE
:1074B00006F1010609D243F2290000F0B5FB7E284F
:1074C000F2D07028F3D1002501E0FF253C4620468C
:1074D00001F0C6F868B201B0F0BD00BF4146B9CCBA
:1074E000BCFED0B4C8EBB3C9B9A6A3A10D0000007F
:1074F0004146B9CCBCFEB3F5CABCBBAFD6D03E3E0C
:107500003E0D0000D7D4B6AFB6D4BDB9B9CCBCFEE1
:10751000D0B4C8EBCAA7B0DCA3A1A3A1A3A1657294
:10752000726F72A3A1A3A10D000000000000000073
:1075300043F22200042100F0F7BE0000000000002A
:10754000B0B500F0A5F940F200444FF48051C5F603
:10755000020400222046FBF71BFB6420FBF724FA01
:1075600004F5806020210022FBF712FB6420FBF76A
:107570001BFA4FF4805101222046FBF709FB6420DF
:10758000FBF712FA43F20310112100F0CDFE43F293
:107590000800822100F0C8FE0520FBF705FA43F23F
:1075A0000A0000F041FB044643F20B0000F03CFBF4
:1075B00040EA042145F2406081423BD127A045F2D8
:1075C000406100F0CDFE49F28E60FE25C0F600005D
:1075D000041F00BF34F8040FA17800F0A5FE0120BD
:1075E000FBF7E2F9013DF5D143F21220032100F04F
:1075F0009BFE43F60800012100F096FE43F60900C9
:10760000182100F091FE43F60A000021002400F04A
:107610008BFE43F60B00F02100F086FE43F21220B1
:10762000132100F081FE43F21220A32100F07CFE22
:1076300060B2B0BD02A000F093FEFF2460B2B0BD06
:107640004F5635363430204552524F522121212198
:1076500021202049443A25580D0A00004F5635365E
:107660003430204F4B2C49443A307825580D0A00CD
:10767000B0B5054640F27400C2F200000C464FF46B
:107680008071C161FAF7C0FC40F224000021C2F20F
:1076900000002A462346BDE8B040F9F765BB00006C
:1076A000B0B582B040F200444FF48071C5F60204D8
:1076B000002220460025FBF76BFA0E2004E000BFF5
:1076C0000028A0F101002BD0ADF80050BDF800104B
:1076D0000229F5D8BDF800100131ADF80010BDF851
:1076E00000100229ECD8BDF800100131ADF80010EF
:1076F000BDF8001002299FBFBDF800100131ADF8A0
:107700000010BDF8001098BF0229D9D8BDF80010AC
:107710000131ADF80010BDF800100329DAD3CFE72E
:107720004FF40071002220460025FBF731FA0E20AD
:1077300004E000BF0028A0F101002BD0ADF80250FA
:10774000BDF802100229F5D8BDF802100131ADF8DC
:107750000210BDF802100229ECD8BDF80210013168
:10776000ADF80210BDF8021002299FBFBDF802104B
:107770000131ADF80210BDF8021098BF0229D9D826
:10778000BDF802100131ADF80210BDF80210032956
:10779000DAD3CFE74FF4807101222046FBF7F8F9E6
:1077A0000E20002104E000BF0028A0F101002BD032
:1077B000ADF80410BDF80420022AF5D8BDF8042065
:1077C0000132ADF80420BDF80420022AECD8BDF83F
:1077D00004200132ADF80420BDF80420022A9FBF26
:1077E000BDF804200132ADF80420BDF8042098BF94
:1077F000022AD9D8BDF804200132ADF80420BDF822
:107800000420032ADAD3CFE74FF480710022204608
:107810000025FBF7BDF94FF4007101222046FBF76C
:10782000B7F90E2004E000BF0028A0F101002BD022
:10783000ADF80650BDF806100229F5D8BDF80610BF
:107840000131ADF80610BDF806100229ECD8BDF8DC
:1078500006100131ADF80610BDF8061002299FBFD1
:10786000BDF806100131ADF80610BDF8061098BF3E
:107870000229D9D8BDF806100131ADF80610BDF8BF
:1078800006100329DAD3CFE702B0B0BD0000000034
:10789000B0B586B044F2E0410020C5F60201059083
:1078A00040F2004401AD0A68C5F6020442F002024B
:1078B0000A600A6802F002020092009A0A6842F026
:1078C00002020A60096801F00201009100994FF478
:1078D000807101911121CDE90210049020462946C2
:1078E000FBF776F84FF40070019020462946FBF72D
:1078F0006FF801204FF48071CDE90200012220468B
:10790000FBF746F94FF4007101222046FBF740F9DE
:1079100006B0B0BD00000000B0B582B040F2004437
:107920004FF48071C5F60204002220460025FBF7C3
:107930002FF90E2004E000BF0028A0F101002BD099
:10794000ADF80050BDF800100229F5D8BDF80010C0
:107950000131ADF80010BDF800100229ECD8BDF8D7
:1079600000100131ADF80010BDF8001002299FBFD2
:10797000BDF800100131ADF80010BDF8001098BF3F
:107980000229D9D8BDF800100131ADF80010BDF8BA
:1079900000100329DAD3CFE74FF40071012220460B
:1079A000FBF7F6F80E20002104E000BF0028A0F14C
:1079B00001002BD0ADF80210BDF80220022AF5D844
:1079C000BDF802200132ADF80220BDF80220022AE3
:1079D000ECD8BDF802200132ADF80220BDF802203B
:1079E000022A9FBFBDF802200132ADF80220BDF887
:1079F000022098BF022AD9D8BDF802200132ADF882
:107A00000220BDF80220032ADAD3CFE74FF48071B9
:107A100001222046FBF7BCF80E20002104E000BF45
:107A20000028A0F101002BD0ADF80410BDF804200F
:107A3000022AF5D8BDF804200132ADF80420BDF8C3
:107A40000420022AECD8BDF804200132ADF804204D
:107A5000BDF80420022A9FBFBDF804200132ADF812
:107A60000420BDF8042098BF022AD9D8BDF804200C
:107A70000132ADF80420BDF80420032ADAD3CFE7A1
:107A80004FF48071002220460025FBF781F80E207C
:107A900004E000BF0028A0F101002BD0ADF8065093
:107AA000BDF806100229F5D8BDF806100131ADF871
:107AB0000610BDF806100229ECD8BDF806100131F9
:107AC000ADF80610BDF8061002299FBFBDF80610DC
:107AD0000131ADF80610BDF8061098BF0229D9D8BB
:107AE000BDF806100131ADF80610BDF806100329E7
:107AF000DAD3CFE702B0B0BD2DE9F04381B040F258
:107B000000498046C5F6020900270024002605E04A
:107B1000072C04F1010445EA460677D24FF4807140
:107B200001224846FBF734F80E2003E00028A0F1BC
:107B300001002BD0ADF80070BDF800100229F5D877
:107B4000BDF800100131ADF80010BDF80010022999
:107B5000ECD8BDF800100131ADF80010BDF80010F0
:107B600002299FBFBDF800100131ADF80010BDF82B
:107B7000001098BF0229D9D8BDF800100131ADF826
:107B80000010BDF800100329DAD3CFE74FF40071DD
:107B90004846FAF7F5FF00F001054FF48071002226
:107BA0004846FAF7F5FF0E2004E000BF0028A0F1D8
:107BB0000100ADD0ADF80270BDF802100229F5D871
:107BC000BDF802100131ADF80210BDF80210022913
:107BD000ECD8BDF802100131ADF80210BDF802106A
:107BE00002299FBFBDF802100131ADF80210BDF8A7
:107BF000021098BF0229D9D8BDF802100131ADF8A2
:107C00000210BDF802100329DAD3CFE7B8F1010F53
:107C100002D1FFF745FD01E0FFF77EFEF0B201B0B3
:107C2000BDE8F0830000000010B5044600F0BCF889
:107C300000F0BAF8782000F01FF8012807D1200AD8
:107C400000F01AF8012802D1E0B200F015F800F0B7
:107C500067F900F0A9F8792000F00EF8012804D1A6
:107C60000020FFF749FF044600E0002400F058F927
:107C7000204610BD00000000F0B581B040F2004485
:107C80000546C5F602040026002700BFE8B24FF4FF
:107C90000071C2092046FAF77BFF0E2004E000BF06
:107CA0000028A0F101002BD0ADF80060BDF8001055
:107CB0000229F5D8BDF800100131ADF80010BDF86B
:107CC00000100229ECD8BDF800100131ADF8001009
:107CD000BDF8001002299FBFBDF800100131ADF8BA
:107CE0000010BDF8001098BF0229D9D8BDF80010C7
:107CF0000131ADF80010BDF800100329DAD3CFE749
:107D00004FF4807101222046FAF742FF0E2003E073
:107D10000028A0F101002BD0ADF80260BDF80210E0
:107D20000229F5D8BDF802100131ADF80210BDF8F6
:107D300002100229ECD8BDF802100131ADF8021092
:107D4000BDF8021002299FBFBDF802100131ADF845
:107D50000210BDF8021098BF0229D9D8BDF8021050
:107D60000131ADF80210BDF802100329DAD3CFE7D4
:107D70004FF4807100222046FAF70AFF072F07D040
:107D8000072F07F101074FEA4505FFF47FAF05E034
:107D90004FF4007101222046FAF7FAFE01B0BDE867
:107DA000F04000F0ADB90000B0B582B040F2004440
:107DB0004FF40071C5F6020401222046FAF7E8FEEE
:107DC0004FF4807101222046FAF7E2FE0E200021D6
:107DD00004E000BF0028A0F101002BD0ADF8021094
:107DE000BDF80220022AF5D8BDF802200132ADF814
:107DF0000220BDF80220022AECD8BDF80220013290
:107E0000ADF80220BDF80220022A9FBFBDF8022073
:107E10000132ADF80220BDF8022098BF022AD9D85D
:107E2000BDF802200132ADF80220BDF80220032A7D
:107E3000DAD3CFE74FF40071002220460025FAF78D
:107E4000A7FE0E2004E000BF0028A0F101002BD007
:107E5000ADF80450BDF804100229F5D8BDF804109F
:107E60000131ADF80410BDF804100229ECD8BDF8BA
:107E700004100131ADF80410BDF8041002299FBFB1
:107E8000BDF804100131ADF80410BDF8041098BF1E
:107E90000229D9D8BDF804100131ADF80410BDF89D
:107EA00004100329DAD3CFE74FF480710022204673
:107EB0000025FAF76DFE0E2004E000BF0028A0F1B7
:107EC00001002BD0ADF80650BDF806100229F5D8F8
:107ED000BDF806100131ADF80610BDF806100229F4
:107EE000ECD8BDF806100131ADF80610BDF806104B
:107EF00002299FBFBDF806100131ADF80610BDF88C
:107F0000061098BF0229D9D8BDF806100131ADF886
:107F10000610BDF806100329DAD3CFE702B0B0BDD2
:107F2000B0B582B040F200444FF48071C5F602044F
:107F3000002220460025FAF72BFE0E2004E000BFA9
:107F40000028A0F101002BD0ADF80050BDF80010C2
:107F50000229F5D8BDF800100131ADF80010BDF8C8
:107F600000100229ECD8BDF800100131ADF8001066
:107F7000BDF8001002299FBFBDF800100131ADF817
:107F80000010BDF8001098BF0229D9D8BDF8001024
:107F90000131ADF80010BDF800100329DAD3CFE7A6
:107FA0004FF40071002220460025FAF7F1FD0E2063
:107FB00004E000BF0028A0F101002BD0ADF8025072
:107FC000BDF802100229F5D8BDF802100131ADF854
:107FD0000210BDF802100229ECD8BDF802100131E0
:107FE000ADF80210BDF8021002299FBFBDF80210C3
:107FF0000131ADF80210BDF8021098BF0229D9D89E
:10800000BDF802100131ADF80210BDF802100329CD
:10801000DAD3CFE74FF4807101222046FAF7B8FD9A
:108020000E20002104E000BF0028A0F101002BD0A9
:10803000ADF80410BDF80420022AF5D8BDF80420DC
:108040000132ADF80420BDF80420022AECD8BDF8B6
:1080500004200132ADF80420BDF80420022A9FBF9D
:10806000BDF804200132ADF80420BDF8042098BF0B
:10807000022AD9D8BDF804200132ADF80420BDF899
:108080000420032ADAD3CFE74FF4007101222046FF
:10809000FAF77EFD0E20002104E000BF0028A0F1C9
:1080A00001002BD0ADF80610BDF80620022AF5D845
:1080B000BDF806200132ADF80620BDF80620022AE0
:1080C000ECD8BDF806200132ADF80620BDF8062038
:1080D000022A9FBFBDF806200132ADF80620BDF888
:1080E000062098BF022AD9D8BDF806200132ADF883
:1080F0000620BDF80620032ADAD3CFE702B0B0BDD0
:1081000070B582B040F200444FF40071C5F602042D
:1081100001222046FAF73CFD0E20002104E000BFBA
:108120000028A0F101002BD0ADF80010BDF8002010
:10813000022AF5D8BDF800200132ADF80020BDF8C4
:108140000020022AECD8BDF800200132ADF8002052
:10815000BDF80020022A9FBFBDF800200132ADF813
:108160000020BDF8002098BF022AD9D8BDF8002011
:108170000132ADF80020BDF80020032ADAD3CFE7A2
:108180004FF4807101222046FAF702FD0E200021F3
:1081900004E000BF0028A0F101002BD0ADF80210D0
:1081A000BDF80220022AF5D8BDF802200132ADF850
:1081B0000220BDF80220022AECD8BDF802200132CC
:1081C000ADF80220BDF80220022A9FBFBDF80220B0
:1081D0000132ADF80220BDF8022098BF022AD9D89A
:1081E000BDF802200132ADF80220BDF80220032ABA
:1081F000DAD3CFE74FF400712046FAF7C1FC054609
:108200004FF48071002220460026FAF7C1FC0E20B0
:1082100025B933E00028A0F101005BD0ADF804607F
:10822000BDF804100229F5D8BDF804100131ADF8ED
:108230000410BDF804100229ECD8BDF80410013177
:10824000ADF80410BDF8041002299FBFBDF804105A
:108250000131ADF80410BDF8041098BF0229D9D837
:10826000BDF804100131ADF80410BDF80410032965
:10827000DAD3CFE70028A0F101002ED0ADF80660D8
:10828000BDF806100229F5D8BDF806100131ADF889
:108290000610BDF806100229ECD8BDF80610013111
:1082A000ADF80610BDF8061002299FBFBDF80610F4
:1082B0000131ADF80610BDF8061098BF0229D9D8D3
:1082C000BDF806100131ADF80610BDF806100329FF
:1082D000DAD3CFE7002002B070BD012002B070BD3C
:1082E00070B514460D460646FFF75EFDFFF75CFDD0
:1082F0007820FFF7C1FC012807D1300AFFF7BCFC4A
:10830000012802D1F0B2FFF7B7FC3CB1013D00BF3C
:1083100015F8010FFFF7B0FC013CF9D1FFF700FEA3
:10832000002070BD00000000B0B50C460546FFF708
:108330003BFDFFF739FD7820FFF79EFC012807D1B0
:10834000280AFFF799FC012802D1E8B2FFF794FC54
:108350002046FFF791FCFFF7E3FD0020B0BD0000D1
:108360000FB4054B10B503A9044A029800F018F8A1
:1083700010BC5DF814FB0000D17200080000002062
:1083800002E008C8121F08C1002AFAD170477047DE
:10839000002001E001C1121F002AFBD1704700003C
:1083A0002DE9FF4F8DB09B460F460446002606E0A0
:1083B00025280BD05A460F999047641C761C2078CC
:1083C0000028F5D111B03046BDE8F08F0025A84651
:1083D0000122984900E0054314F8013F203B02FACE
:1083E00003F00842F7D120782E2817D114F8010F96
:1083F00045F004052A280ED06FF02F022078A0F156
:10840000300109290AD808EB880102EB410100EB91
:108410000108641CF2E757F8048B641C20786C2870
:108420000DD004DC4C2812D06A2811D104E0742845
:108430000DD07A280CD10AE045F4001507E06178E8
:1084400045F48015814202D1641C05F58015641C39
:108450002278692A45D008DC002AB3D0582A69D08E
:10846000632A10D0642A08D13BE0702A67D0732AAF
:1084700013D0752A5CD0782A5CD010465A460F99E2
:108480009047761CD3E017F8040B8DF8000000200D
:108490008DF80100E946012003E057F8049B4FF0F6
:1084A000FF3069074FF0000501D40AE06D1C454517
:1084B0000DDA8542FADB19F805100029F6D106E03D
:1084C0006D1C8542FCDB19F805100029F8D12E44FB
:1084D00004E019F8010B5A460F9990476D1EF8D227
:1084E000A5E00A200021CDE90801C5F302500228C9
:1084F0000DD001CFC117031E71F100030DDA4FF04B
:10850000000CD0EB0C006CEB01012D2308E0FF1DEB
:1085100027F00707F7E80201EDE72B0504D52B2329
:108520008DF8283001233BE0EB0739D02023F7E713
:108530000A2000E010200021CDE9080107E010200A
:10854000002145F00405CDE908014FF00808C5F306
:10855000025002280FD001CF00214FF0000A2B0754
:108560001FD5702A0DD0DDE908C38CF0100C5CEA31
:10857000030C0CD015E0FF1D27F00707F7E80201F8
:10858000EBE740228DF828204FF0010A0BE050EA7B
:10859000010306D030238DF828308DF829200223DE
:1085A0009A46582A04D024A20DF120090B9209E022
:1085B00026A2F9E7DDE90823F7F7A4FE0B9B9B5CF5
:1085C00009F8013D50EA0102F4D1ADEB0900203079
:1085D0000890680701D44FF001080899884502DD2A
:1085E000A8EB010000E000208046002506E00AA874
:1085F0005A46405D0F9990476D1C761C5545F6DB39
:1086000004E030205A460F999047761CB8F10001DB
:10861000A8F10108F5DC05E019F8010B5A460F999D
:108620009047761C0899481E08900029F4DC641CC9
:10863000C5E60000092801003031323334353637C1
:10864000383961626364656600000000303132339E
:10865000343536373839414243444546000000003E
:1086600010B5044601E0FEF733FE14F8010B04498F
:108670000028F8D1BDE810400A20FEF729BE00000E
:1086800000000020000408102040010408102040D1
:1086900000000000010203040102030406070809A8
:1086A000020FD6020A39C201222200020FB2E51FD0
:1086B0007072F51ED235FFEF25E0244EF8E4F6087F
:1086C000F60FBF34F2900E93E493FFE54BC39F5037
:1086D000047F0580027FFB78BDA607120F044004CB
:1086E0007F0380027F3078BCA607E618F608E6789C
:1086F000B9F678BCE678BAF678BF7633E408F6784F
:10870000B87601754A0278B6F608F674FF78C1F6B5
:1087100008F6751F0178BCE675F005A4F54B120A42
:10872000FFC2372278B8E6D3940040021622E51F34
:10873000B40523E4F51FC20178B6E6FE08E6FF782B
:108740004EA60608A607A237E433F53C903028F081
:10875000751E10D23522E54B75F0058478BCF69075
:108760000E8CE493FF25E0240AF8E6FC08E6FD7889
:10877000BCE625E0244EF8A60408A605EF120F0B70
:10878000D378B796EE1896400D78BCE678B9F678AF
:10879000B6A60608A607900E8CE493120F0BC378BA
:1087A000C296EE1896500D78BCE678BAF678C1A657
:1087B0000608A60778B6E6FE08E6C378C296FFEE7E
:1087C000189678C3F608A607900E95E418120EE9DD
:1087D0004002D23778BCE6082608F6E51F6401702F
:1087E0004AE6C378C0120EDF4005120EDA40391295
:1087F0000F0240047FFE80027F0278BDA60778B991
:10880000E6240378BFF678B9E624FD78C0F6120FA7
:1088100002400678C0E6FF800478BFE6FF78BEA677
:1088200007751F0278B8760102024AE51F640260EC
:108830000302022A78BEE6FFC378C0120EE04008A9
:10884000120EDA5003020228120F0240047FFF804A
:10885000027F0178BDA60778B9E60478BFF678B93B
:10886000E61478C0F618120F044004E6FF80027F79
:108870000078BFA607D308E6648094804004E6FF32
:1088800080027F0078C0A607C318E6648094B350C6
:1088900004E6FF80027F3378BFA607C308E6648042
:1088A00094B35004E6FF80027F3378C0A607120F0E
:1088B00002400678C0E6FF800478BFE6FF78BEA6D7
:1088C00007751F0378B876018020E51F64037026C2
:1088D00078BEE6FFC378C0120EE04005120EDA4003
:1088E0000978B9E678BEF6751F0478BEE675F0051E
:1088F000A4F54B020AFFE51FB40410900E94E4782F
:10890000C3120EE94002D237751F0522300103025F
:1089100004C03002030204C09051A5E07893F6A38E
:10892000E008F6A3E008F6E51F703C751E20D2357E
:10893000120C7A787EA60608A607788BA609187608
:1089400001120C5B784EA60608A607788BE6786EB7
:10895000F6751F017893E67890F67894E67891F6AC
:108960007895E67892F6227990E7D3789396400549
:10897000E796FF8008C37993E7789096FF7888762A
:108980000008A6077991E7D37894964005E796FF0B
:108990008008C37994E7789196FF120C8E7992E75C
:1089A000D37895964005E796FF8008C37995E778D8
:1089B0009296FF120C8E120C5B788AE625E0244E0C
:1089C000F8A60608A607788AE6246EF8A609788A2B
:1089D000E62401FFE433FED3EF940FEE648094802D
:1089E00040047F008005788AE604FF788AA607E5C0
:1089F0001FB4010AE660030204C0751F0222120CB4
:108A00007A7880A60608A607120C7A7882A606084D
:108A1000A607786EE6788CF6786EE6788DF67F019C
:108A2000EF25E0244FF9C37881E69718E6199750AF
:108A30000A120C827880A60408A605746E2FF978B5
:108A40008CE6C3975008746E2FF8E6788CF6EF2505
:108A5000E0244FF9D37883E69718E61997400A1275
:108A60000C827882A60408A605746E2FF9788DE62C
:108A7000D3974008746E2FF8E6788DF60FEF6410E8
:108A8000709EC37981E7788396FF19E718967884FA
:108A9000F608A607C3798CE7788D9608F6D3798116
:108AA000E7787F9619E71896400509E7088006C31E
:108AB000797FE7788196FF19E71896FE7886A606F3
:108AC00008A607798CE7D3788B964005E796FF8058
:108AD00008C3798BE7788C96FF788FA607E51F642B
:108AE000027069900E9193FF18E6C39F5072120CAA
:108AF0004A120C2F900E8E120C387880120C6B7B61
:108B000004120C1DC31206455056900E92E493FFBA
:108B1000788FE69F40028011900E90E493FFD37807
:108B200089E69F18E694004003751F05120C4A124F
:108B30000C2F900E8F120C38787E120C6B7B40122B
:108B40000C1DD31206454018751F0522E51FB405FC
:108B50000FD201C202E4F51FF51ED235D233D23650
:108B600022EF8DF0A4A8F0CF8CF0A428CE8DF0A435
:108B70002EFE22BC000BBE0029EF8DF084FFADF06D
:108B800022E4CCF875F008EF2FFFEE33FEEC33FC57
:108B9000EE9DEC984005FCEE9DFE0FD5F0E9E4CE8D
:108BA000FD22EDF8F5F0EE8420D21CFEADF075F05C
:108BB00008EF2FFFED33FD4007985006D5F0F22265
:108BC000C398FD0FD5F0EA22E88FF0A4CC8BF0A477
:108BD0002CFCE98EF0A42CFC8AF0EDA42CFCEA8E8F
:108BE000F0A4CDA8F08BF0A42DCC3825F0FDE98FB2
:108BF000F0A42CCD35F0FCEB8EF0A4FEA9F0EB8FA9
:108C0000F0A4CFC5F02ECD39FEE43CFCEAA42DCE75
:108C100035F0FDE43CFC2275F008758200EF2FFF73
:108C2000EE33FECD33CDCC33CCC58233C5829BED44
:108C30009AEC99E58298400CF582EE9BFEED9AFD48
:108C4000EC99FC0FD5F0D6E4CEFBE4CDFAE4CCF9F8
:108C5000A88222B800C1B90059BA002DEC8BF0846B
:108C6000CFCECDFCE5F0CBF97818EF2FFFEE33FE39
:108C7000ED33FDEC33FCEB33FB10D703994004EBF1
:108C800099FB0FD8E5E4F9FA227818EF2FFFEE33BD
:108C9000FEED33FDEC33FCC933C910D7059BE99ACF
:108CA0004007EC9BFCE99AF90FD8E0E4C9FAE4CC60
:108CB000FB2275F010EF2FFFEE33FEED33FDCC33CA
:108CC000CCC833C810D7079BEC9AE899400AED9BB3
:108CD000FDEC9AFCE899F80FD5F0DAE4CDFBE4CC92
:108CE000FAE4C8F922EB9FF5F0EA9E42F0E99D42D2
:108CF000F0E89C45F022E8600FECC313FCED13FD97
:108D0000EE13FEEF13FFD8F122E8600FEFC333FF3D
:108D1000EE33FEED33FDEC33FCD8F122E493FC742A
:108D20000193FD740293FE740393FF22E6FB08E6B1
:108D3000F908E6FA08E6CBF822ECF608EDF608EEBC
:108D4000F608EFF622A42582F582E5F03583F58357
:108D500022D083D082F8E4937012740193700DA333
:108D6000A393F8740193F5828883E4737402936883
:108D700060EFA3A3A380DF9038047852120BFD901C
:108D80003800E0FEA3E0FDEDFFC3120B9E9038100B
:108D9000120B929038067854120BFD903802E0FEC8
:108DA000A3E0FDEDFFC3120B9E903812120B92A3AD
:108DB000E0B4310778527952120C13903814E0B4B1
:108DC00071157852E6FE08E67802CEC313CE13D8AA
:108DD000F97953F7EE19F7903815E0B43107785464
:108DE0007954120C13903815E0B471157854E6FEDE
:108DF00008E67802CEC313CE13D8F97955F7EE19E9
:108E0000F77952120BD909120BD9AF47120BB2E501
:108E100044FB7A00FD7C001204D3785AA60608A60B
:108E200007AF45120BB2AD037C001204D37856A6EF
:108E30000608A607AF487854120BB4E543FBFD7C47
:108E4000001204D3785CA60608A607AF467E007819
:108E500054120BB6AD037C001204D37858A6060852
:108E6000A607C3785BE6940818E6940050057600E0
:108E7000087608C3785DE6940818E69400500576F5
:108E800000087608785A120BC6FFD37857E69F1869
:108E9000E69E400E785AE613FE08E67857120C0854
:108EA00080047E007F00785E120BBEFFD37859E607
:108EB0009F18E69E400E785CE613FE08E67859128D
:108EC0000C0880047E007F00E4FCFD7862120699A5
:108ED000785A120BC6785726FFEE1836FE786612BF
:108EE0000BBE785926FFEE1836FEE4FCFD786A12B8
:108EF0000699120BCE786612068CD31206454008EE
:108F0000120BCE78661206997854120BD0786A123A
:108F1000068CD3120645400A7854120BD0786A1298
:108F200006997861E6906001F07865E6A3F07869CB
:108F3000E6A3F07855E6A3F07D017861120BE924F1
:108F400001120BA67865120BE92402120BA67869B0
:108F5000120BE92403120BA6786D120BE9240412FC
:108F60000BA60DBD05D4C20EC20622850841903065
:108F700024E0F53DA3E0F53EA3E0F53FA3E0F54096
:108F8000A3E0F53CD234E5411206B10931030935BD
:108F900004093B05093E06094107094A08095B1215
:108FA000097318098919095E1A096A1B09AD800934
:108FB000B2810A1D8F0A09900A1D910A1D920A1D8D
:108FC000930A1D940A1D980A179F0A1AEC00000ABA
:108FD00038120F7422120F74D20322D20322C2035A
:108FE00022A237E433F53C020A1DC201C202C203C9
:108FF000120D0D751E70D235020A1D020A0485403D
:109000004A853C4B120AFF020A1D854A40854B3CAB
:10901000020A1DE4F522F523854031853F30853E67
:109020002F853D2E120F46801F7522007523017477
:10903000FFF52DF52CF52BF52A120F46852D4085D1
:109040002C3F852B3E852A3DE4F53C8070120F169F
:10905000806B853D45853E46E547C313FFE545C327
:109060009F50028F45E548C313FFE546C39F50025A
:109070008F46E547C313FFFDE5452DFDE433FCE5D1
:1090800044120F904005E5449FF545E548C313FFA2
:10909000FDE5462DFDE433FCE543120F904005E568
:1090A000439FF5461206D78014854048853F478583
:1090B0003E46853D4580060206D7120D7E9030243F
:1090C000E53DF0A3E53EF0A3E53FF0A3E540F0A3C6
:1090D000E53CF0903023E4F022C0E0C083C082C0C1
:1090E000D0903F0CE0F532E53230E37430366690D4
:1090F0006019E0F50AA3E0F50B90601DE0F514A3FC
:10910000E0F515906021E0F50CA3E0F50D906029E5
:10911000E0F50EA3E0F50F906031E0F510A3E0F567
:1091200011906039E0F512A3E0F5133001063033F9
:1091300003D38001C39209300206303303D3800188
:10914000C3920A30330C300309200206200103D3F6
:109150008001C3920B903001E04440F0E054BFF036
:10916000E53230E114303411903022E0F508E4F0BB
:10917000300003D38001C39208E53230E5129056E7
:10918000A1E0F509303109300503D38001C3920D08
:10919000903F0CE532F0D0D0D082D083D0E0329036
:1091A0000E7EE493FE740193FFC3900E7C740193D2
:1091B0009FFFE4939EFEE48F3B8E3AF539F538AB82
:1091C0003BAA3AA939A838AF4BFCFDFE120528127C
:1091D0000DE1E47BFFFAF9F81205B3120DE1900EF0
:1091E00069E4120DF6120DE1E4854A37F536F535DE
:1091F000F534AF37AE36AD35AC34A3120DF68F373C
:109200008E368D358C34E53B4537F53BE53A4536B2
:10921000F53AE5394535F539E5384534F538E4F5BD
:1092200022F523853B31853A3085392F85382E024A
:109230000F46E0A3E075F002A4FFAEF0C308E69F7E
:10924000F618E69EF622FFE5F034608F82F583EC97
:10925000F02278527E00E6FC08E6FD0204C1E4FC40
:10926000FD120699785CE6C313FE08E613227852D5
:10927000E6FE08E6FFE4FCFD22E7C4F854F0C86807
:10928000F709E7C4540F48F722E6FCED75F004A493
:109290002212067C8F488E478D468C4522E0FEA325
:1092A000E0FDEEF6ED08F62213FFC3E69FFF18E699
:1092B0009EFE22E6C313F708E61309F722AD39AC88
:1092C00038FAF9F81205288F3B8E3A8D398C38AB75
:1092D00037AA36A935A8342293FFE4FCFDFE120517
:1092E000288F378E368D358C34227884E6FE08E65A
:1092F000FFE48F378E36F535F53422900E8CE493EB
:1093000025E0240AF8E6FE08E6FF22E6FE08E6FF6E
:10931000E48F3B8E3AF539F53822784EE6FE08E6C2
:10932000FF22EF25E0244EF8E6FC08E6FD227889CE
:10933000EF26F618E436F62275890375A80175B88C
:10934000047534FF75350E75361575370D120E9A86
:10935000120009120F16120006D200D234D2AF75D5
:1093600034FF75350E753649753703120E9A30087D
:1093700009C2341208CBC208D234300B09C23612EB
:10938000026CC20BD236300909C23612000EC20975
:10939000D236300E031206D73035D3903029E51E71
:1093A000F0B41005903023E4F0C23580C1E4F54BF1
:1093B000900E7A93FFE48F37F536F535F534AF37F5
:1093C000AE36AD35AC34900E6A120DF68F378E3650
:1093D0008D358C34900E7212067CEF4537F537EEE2
:1093E0004536F536ED4535F535EC4534F534E4F5DF
:1093F00022F52385373185363085352F85342E1279
:109400000F46E4F522F523900E72120DEA120F4674
:10941000E4F522F523900E6E120DEA020F46E540A8
:1094200024F2F537E53F3443F536E53E34A2F53511
:10943000E53D3428F534E537FFE4FEFDFC781812ED
:1094400006698F408E3F8D3E8C3DE53754A0FFE589
:1094500036FEE4FDFC78071206567810120F9AE4E7
:10946000FFFEE535FDE4FC780E120656120F9DE472
:10947000FFFEFDE534FC78181206567808120F9AA4
:10948000228F3B8E3A8D398C382212067C8F318E9A
:10949000308D2F8C2E2293F9F8020669000000000F
:1094A00012011708311553544420202020201301A5
:1094B000100156401A30297E00300420DF3005406C
:1094C000BF500300FD502701FE600011003F053032
:1094D000003F0622003F012A003F02000036060737
:1094E000003F0B0FF000000000300140BF300100D2
:1094F000BF302970003A0000FF3A0000FF36033603
:10950000024144582018100A04040003FF640000BC
:109510008000000000000002040606000351007AEB
:10952000503C281E1010502D281610100200100C50
:1095300010040C6E060500A55A00AE35AF36E4FDEA
:10954000EDC395375033120FE2E493F5387401936D
:10955000F53945386023853982853883E0FC120F60
:10956000E27403935204120FE274029342048539A9
:1095700082853883ECF00D80C72278BEE6D308FFE1
:10958000E66480F8EF6480982293FF7E00E6FC0892
:10959000E6FD1204C178C1E6FC08E6FDD3EF9DEEBE
:1095A0009C2278BDD3E6648094802225E0240AF8CA
:1095B000E6FE08E6FF22E53CD39400400B900E88BF
:1095C000120BF1900E868009900E82120BF1900E14
:1095D00080E493F544A3E493F543D206300603D325
:1095E0008001C3920E22A2AF9232C2AFE523452280
:1095F000900E5D600E120FCBE0F52C120FC8E0F557
:109600002D800C120FCBE530F0120FC8E531F0A21F
:109610003292AF22D201C202E4F51FF51ED235D23A
:1096200033D236D201C202F51FF51ED235D2332213
:10963000FBD3ED9B7480F86C9822120669E5402FED
:10964000F540E53F3EF53FE53E3DF53EE53D3CF569
:109650003D22C0E0C083C082903F0DE0F533E5338A
:10966000F0D082D083D0E032900E5FE493FE74019C
:1096700093F5828E8322787FE4F6D8FD7581CD0242
:109680000C988F828E8375F004ED0206A5000830D9
:109690004200033103001730FF004047210018301B
:1096A000FF0037301300363064003530110034309D
:1096B0001A00083101000C46200024380200303620
:1096C000360031360E003236E200333612002136D3
:1096D000E0000437A00003375A0015377800173729
:1096E00001000B37600005371A0005390200063902
:1096F000100001390A003137120000360800013627
:1097000033002D306000203652001B3720001C47EC
:10971000500035361300363603003436400022360A
:1097200001000E44000025500000183600001236DB
:10973000290008376400093752000C3703002E3027
:1097400000000B4637000030000002301C000430DF
:10975000FF000630C3000E305800004361001F5068
:1097600001000050A7000150A30020384700213815
:109770000100003800000138000002380000033802
:10978000040004380A0005383F000638070007388F
:109790009B000C3807000D3868000E3803000F38A6
:1097A000D8001038000011381000123800001338AB
:1097B0000400143831001538310001400200044023
:1097C000020005401A00023A0500033AC400083AB4
:1097D0000000093A93000A3A00000B3A7B000D3A68
:1097E00008000E3A0600143A0500153AC400133A70
:1097F0004300183A0000193AF800013C3400043CD8
:109800002800053C9800063C0000073C0800083C86
:109810000000093C1C000A3C9C000B3C40008051AD
:10982000FF008151F20082510000835114008451E5
:10983000250085512400865109008751090088516F
:109840000900895175008A5154008B51E0008C51F8
:10985000B2008D5142008E513D008F515600905103
:1098600046009151F80092510400935170009451B8
:10987000F0009551F0009651030097510100985166
:109880000400995112009A5104009B5100009C5110
:1098900006009D5182009E51380081531E00825364
:1098A0005B008353080084530A0085537E0086536F
:1098B000880087537C0088536C00895310008A53BA
:1098C00001008B53980000530800015330000253ED
:1098D00010000353000004530800055330000653E2
:1098E000080007531600095308000A5330000B53B1
:1098F00004000C5306008054010081540800825477
:109900001400835428008454510085546500865403
:10991000710087547D0088548700895491008A54CF
:109920009A008B54AA008C54B8008D54CD008E54EC
:10993000DD008F54EA0090541D00805506008355C9
:10994000400084551000895510008A5500008B5541
:10995000F8001D5040000F3A3000103A28001B3A22
:1099600030001E3A2600113A60001F3A14000634F7
:109970000000003404000134000002340400033409
:10998000000004340400053400000058230001588E
:10999000140002580F0003580F0004581200055815
:1099A000260006580C0007580800085805000958FA
:1099B00005000A5808000B580D000C5808000D58F7
:1099C00003000E5800000F580000105803001158F3
:1099D00009001258070013580300145800001558C6
:1099E0000100165803001758080018580D001958A0
:1099F00008001A5805001B5806001C5808001D587E
:109A00000E001E5829001F58170020581100215819
:109A100011002258150023582800245846002558C4
:109A20002600265808002758260028586400295880
:109A300026002A5824002B5822002C5824002D5888
:109A400024002E5806002F5822003058400031586C
:109A50004200325824003358260034582400355828
:109A6000220036582200375826003858440039580A
:109A700024003A5826003B5828003C5842003D58E4
:109A8000CE000830020001000200040006000800B9
:109A90000A000C00100020004000800000010101BD
:109AA000010307010000080402040801010100008D
:109AB000D09A0008000000201800000080830008F1
:109AC000E89A000818000020600700009083000852
:109AD000000000000090D0030090D00301000000BF
:089AE00010000000000000006E
:04000005080002CD20
:00000001FF
