:020000040800F2
:10000000980B00246D030008FF250008BD2400089C
:10001000FD250008630500081531000800000000F8
:100020000000000000000000000000004729000858
:1000300065050008000000000126000849290008A5
:100040008703000887030008870300088703000868
:100050008703000887030008870300088703000858
:100060008703000887030008870300088703000848
:100070008703000887030008870300088703000838
:100080008703000887030008870300088703000828
:100090008703000887030008870300088703000818
:1000A0008703000887030008870300088703000808
:1000B00087030008870300088703000887030008F8
:1000C00087030008870300088703000887030008E8
:1000D00087030008870300088703000887030008D8
:1000E000870300088703000800000000870300085A
:1000F00087030008870300088703000887030008B8
:1001000087030008870300088703000887030008A7
:100110008703000887030008870300088703000897
:100120008703000887030008870300088703000887
:100130008703000887030008870300088703000877
:1001400000000000000000000000000000000000AF
:100150008703000887030008870300088703000857
:100160008703000887030008870300088703000847
:1001700087030008870300088703000800000000C9
:100180008703000887030008870300088703000827
:100190008703000887030008870300088703000817
:1001A0008703000887030008870300080000000099
:1001B00087030008870300088703000887030008F7
:1001C000870300088703000800000000000000000B
:1001D000000000000000000087030008000000008D
:1001E000000000000000000000000000000000000F
:1001F00000000000000000008703000887030008DB
:100200008703000887030008000000008703000838
:100210008703000887030008870300088703000896
:1002200087030008000000008703000800000000AA
:100230008703000887030008000000008703000808
:100240008703000887030008870300088703000866
:100250008703000887030008870300088703000856
:100260008703000887030008870300088703000846
:1002700087030008870300088703000800000000C8
:100280008703000887030008870300088703000826
:10029000000000008703000887030008000000003A
:1002A0000000000087030008870300088703000898
:1002B00087030008870300088703000887030008F6
:1002C00087030008870300088703000800F002F88E
:1002D00000F03CF80AA090E8000C82448344AAF1A4
:1002E0000107DA4501D100F031F8AFF2090EBAE8A2
:1002F0000F0013F0010F18BFFB1A43F0010318475A
:10030000482F0000682F0000103A24BF78C878C139
:10031000FAD8520724BF30C830C144BF04680C600B
:10032000704700000023002400250026103A28BF53
:1003300078C1FBD8520728BF30C148BF0B60704757
:100340001FB502F05FFF1FBD10B510BD00F0CFF864
:100350001146FFF7F5FF02F03FFF00F0EDF803B4A0
:10036000FFF7F2FF03BC00F0F5F8000009488047F2
:1003700009480047FEE7FEE7FEE7FEE7FEE7FEE787
:10038000FEE7FEE7FEE7FEE704480549054A064B9F
:1003900070470000E1290008CD0200089801002400
:1003A000980B0024980300249803002453EA020CBD
:1003B00000F069802DE9F04B4FF00006002B1FBFC5
:1003C000B3FA83F503FA05F424FA05F65E4012BF8A
:1003D0001643B2FA82F502FA05F4C5F120051EBFF4
:1003E00022FA05FC44EA0C04203556EA044C4FEA94
:1003F000144418BF641C4FF000084FF000099042ED
:1004000071EB030C39D3002919BFB1FA81F701FA56
:1004100007F6B0FA80F700FA07F6C7F120071EBF0B
:1004200020FA07FC46EA0C062037B6FBF4FCA7EBE3
:100430000507103F07F01F0BCBF120060CFA0BFB52
:100440002CFA06F644BFB3460026202FA4BF5E4612
:100450004FF0000B5BEA060C08BF4FF0010B19EBE5
:100460000B09ABFB027C48EB0608C01B06FB02CC69
:100470000BFB03CC71EB0C01C1E70B460246414676
:100480004846BDE8F08B13B54FF000004FF0000177
:10049000AFF30080BDE81C4070474FF0000200B58C
:1004A000134694469646203922BFA0E80C50A0E897
:1004B0000C50B1F12001BFF4F7AF090728BFA0E845
:1004C0000C5048BF0CC05DF804EB890028BF40F811
:1004D000042B08BF704748BF20F8022B11F0804F53
:1004E00018BF00F8012B704770477047704775467A
:1004F00000F02CF8AE4605006946534620F0070090
:10050000854618B020B5FFF73FFFBDE820404FF00B
:1005100000064FF000074FF000084FF0000B21F0ED
:100520000701AC46ACE8C009ACE8C009ACE8C009BA
:10053000ACE8C0098D46704710B50446AFF30080A3
:100540002046BDE81040FFF70ABF00000048704792
:100550003401002401491820ABBEFEE7260002004A
:100560007047FEE7704772B6FEE7000070B50446BC
:1005700000F022F90546601C02D0044800780444CB
:1005800000F01AF9401BA042FAD370BD0400002409
:100590002DE9F84F03247A4D00234FF001094FF065
:1005A000B04B4FF00F0AE4E009FA03F6324078D07E
:1005B0000F7907F00307012F01D0022F1AD18768A6
:1005C0004FEA430ED1F80CC004FA0EF827EA0807E8
:1005D0000CFA0EFC4CEA070CC0F808C0476891F80A
:1005E00004C0B743CCF3001C0CFA03FC4CEA070C24
:1005F000C0F804C00E79F643B6070BD0C6684FEAC0
:1006000043088F6804FA08FC26EA0C0607FA08F784
:100610003743C7600E7906F00306022E12D1DE08BA
:100620000F694FEA437C00EB8606B646366A4FEA0E
:10063000DC6C0AFA0CF807FA0CF726EA08063743CE
:10064000CEF820700F7906684FEA430807F00307D9
:1006500004FA08FC07FA08F726EA0C063743076095
:100660004E6816F4403F1CD0464E376847F00207EC
:10067000376036689F0706F00206009623F00306EF
:1006800006F1B046B6463F0FD6F80864DFF8F880AA
:100690000AFA07FC404526EA0C0603D14FF0000C8D
:1006A0003AE065E0DFF8E4C0604502D14FF0010CAC
:1006B00032E0DFF8DCC0604502D14FF0020C2BE0E5
:1006C000DFF8D0C0604502D14FF0030C24E0DFF822
:1006D000C8C0604502D14FF0040C1DE0DFF8BCC07B
:1006E000604502D14FF0050C16E0DFF8B4C060455C
:1006F00002D14FF0060C0FE0DFF8A8C0604502D130
:100700004FF0070C08E0DFF8A0C0604502D14FF0C1
:10071000090C01E04FF00A0C0CFA07FC4CEA060C3D
:10072000CEF808C44F68DBF80060FF0226EA020634
:1007300000D516435F46CBF80060D1F804C0DBF863
:1007400004605FEA8C2C26EA020600D516437E6020
:100750006E684F6826EA0206BF0300D516436E6036
:100760002E684F6826EA0206FF0300D516432E6066
:100770005B1C0A6832FA03F67FF416AFBDE8F88F07
:1007800080000058F4440258000002580004025847
:1007900000080258000C02580010025800140258B9
:1007A00000180258001C0258002402580AB1816146
:1007B00070470904FBE700000148806870470000AB
:1007C0000400002402488168027811448160704767
:1007D00004000024032010B500F078F801F01AF8A6
:1007E0000F4A104914681368C4F3032203F00F037F
:1007F0008A5CC95C02F01F0201F01F01D0400A4A66
:1008000020FA01F11160094908600F2000F010F88A
:1008100008B1012010BD00F02BF8002010BD000031
:100820001844025836320008140000241000002436
:1008300070B50D4D04462878A0B14FF47A71B1FB24
:10084000F0F00A490968B1FBF0F001F03EFD48B94B
:10085000102C07D200222146501E00F017F800206D
:100860006C6070BD012070BD0400002410000024E5
:10087000054808B5016841F002010160006800F018
:100880000200009008BD0000F44402580E4BF0B482
:100890001B680D46C3F30223C3F10706042E00D9DB
:1008A0000426191D072901D2002300E0DB1E0124C4
:1008B00004FA06F19C40491E2940641E99401440E8
:1008C0002143F0BC02F076BC0CED00E0064900F0DC
:1008D000070210B54FF6FF040868044B204040EAB9
:1008E00002201843086010BD0CED00E00000FA057E
:1008F000134970B50A68D243520705D5096801F05B
:100900000701814213D118E00A6822F0070202436E
:100910000A60FFF751FF0A4D4FF47A760446083D0E
:1009200007E000BFFFF748FF001BB04201D90120DC
:1009300070BD2868C0438004F4D4002070BD00005E
:100940000C48025810B500F01FFF05490968054A18
:10095000C1F30211515C01F01F01C84010BD00003D
:100960002044025836320008494930B5484C0B1D26
:100970000A68143409681D68246802F00303C5F38B
:100980000012C1F30531C4F3CC04002914FB02F2B8
:1009900000EE102AF8EE400A75D03F4A9FED3D1A4E
:1009A000B7EE000A6BB1DFED3D1A012B01D0022B2F
:1009B00064D002EE101A1168F8EE422A81EEA22AE3
:1009C00021E0334C283C23689B0612D5344B246825
:1009D00001EE901A1168C4F3C104F8EE612AE340F5
:1009E00001EE903AC1F30801F8EE611A81EEA22AF5
:1009F0000BE001EE901ADFED2B2A00BFF8EE611A32
:100A0000116882EEA12AC1F3080101EE901A116863
:100A1000F8EE611A40EE811A71EE800A62EE200A49
:100A2000C1F3462101EE101AB8EE411A31EE001A58
:100A3000C0EE811ABCEEE11A80ED001A1168C1F314
:100A4000064101EE101AB8EE411A31EE001AC0EE5E
:100A5000811ABCEEE11A80ED011A1168C1F306613A
:100A600001EE101AB8EE411A31EE000A80EE801A3B
:100A7000BCEEC10A80ED020A30BD04E001EE901A1E
:100A8000DFED092ABAE70021016041608160F3E7E8
:100A90002844025800000039384402580024744A9F
:100AA0000090D0030024744C001BB74B494930B56B
:100AB000484C0B1D0A681C3409681D68246802F044
:100AC0000303C5F30022C1F30551C4F3CC0400298C
:100AD00014FB02F200EE102AF8EE400A75D03F4AED
:100AE0009FED3D1AB7EE000A6BB1DFED3D1A012B09
:100AF00001D0022B64D002EE101A1168F8EE422ADF
:100B000081EEA22A21E0334C283C23689B0612D5B3
:100B1000344B246801EE901A1168C4F3C104F8EE56
:100B2000612AE34001EE903AC1F30801F8EE611A40
:100B300081EEA22A0BE001EE901ADFED2B2A00BF16
:100B4000F8EE611A116882EEA12AC1F3080101EEE4
:100B5000901A1168F8EE611A40EE811A71EE800A5F
:100B600062EE200AC1F3462101EE101AB8EE411AD6
:100B700031EE001AC0EE811ABCEEE11A80ED001AC7
:100B80001168C1F3064101EE101AB8EE411A31EEB8
:100B9000001AC0EE811ABCEEE11A80ED011A11684C
:100BA000C1F3066101EE101AB8EE411A31EE000AE7
:100BB00080EE801ABCEEC10A80ED020A30BD04E06E
:100BC00001EE901ADFED092ABAE7002101604160C9
:100BD0008160F3E72844025800000039404402587D
:100BE0000024744A0090D0030024744C001BB74BBF
:100BF0002DE9FE4F0546DFF800A450F8081B00243D
:100C0000FD4FC943019005F1280026460AF1240A48
:100C1000009008011DD4686E50B1B0F5801F0CD053
:100C2000B0F5001F0ED0B0F5401F1ED001240FE01C
:100C3000386840F40030386017E00198022101F074
:100C4000E1FC03E00098022101F06CFD04000CD0EF
:100C500026462888C043C00523D4A86D05281ED287
:100C6000DFE800F00C11161B1B006A6EDAF80010AA
:100C700021F440111143CAF80010EAE7386840F443
:100C80000030386009E00198002101F0BBFC03E06E
:100C90000098002101F046FD0446C4B100E00124A3
:100CA00026462888DFF85083C04308F12C08400509
:100CB0002FD4D5F8A400B0F5C00F28D010DCB8B1FF
:100CC000B0F5001F19D0B0F5800F0FD11AE0AA6D52
:100CD000DAF8001021F007011143CAF80010E0E72C
:100CE000B0F5000F13D0B0F5200F10D001240FE0A5
:100CF000386840F40030386009E00198002101F0C4
:100D000081FC03E00098002101F00CFD044694B141
:100D100026462888C043000530D4D5F8A800B0F195
:100D2000407F29D011DCC0B1B0F1807F1AD0B0F182
:100D3000007F10D11BE0D5F8A420D8F8001021F4D2
:100D400060011143C8F80010E3E7B0F1806F13D0E1
:100D5000B0F1A06F10D001240FE0386840F40030EB
:100D6000386009E00198002101F04CFC03E0009894
:100D7000002101F0D7FC044694B126462868DFF82C
:100D800078B2C0430BF1200B80011FD4E86CD8B1BE
:100D900010280FD0202812D0302815D0012414E0BC
:100DA000D5F8A820D8F8001021F0E0611143C8F868
:100DB0000010E3E7386840F40030386004E0019840
:100DC000022101F01FFC044674B126462888C04366
:100DD000C0042BD4E86DB0F5005F20D00DDCA0B1CD
:100DE000B0F5805F0FD115E0EA6CDBF8001021F060
:100DF00030011143CBF80010E8E7B0F5405F13D0A5
:100E0000B0F5804F10D001240FE0386840F4003076
:100E1000386009E00198002101F0F4FB03E000983C
:100E2000002101F07FFC04468CB126462888C0438F
:100E3000800429D4286EB0F5403F23D010DC08B3DD
:100E4000B0F5803F14D0B0F5003F0FD115E0EA6D4A
:100E5000DAF8001021F4E0411143CAF80010E5E788
:100E6000B0F5802F0ED0B0F5A02F0BD001240AE0F2
:100E70000198012101F0C6FB03E00098012101F077
:100E800051FC044694B126462888C04340042AD425
:100E9000D5F8AC00B0F1405F23D010DC08B3B0F15E
:100EA000805F14D0B0F1005F0FD115E02A6EDAF840
:100EB000001021F4E0211143CAF80010E4E7B0F17A
:100EC000804F0ED0B0F1A04F0BD001240AE0019862
:100ED000012101F097FB03E00098012101F022FCC1
:100EE000044674B126462888C04300041FD4E86E27
:100EF000D8B1B0F1805F0ED0B0F1005F10D0012406
:100F000014E0D5F8AC20D8F8001021F0E0411143EE
:100F1000C8F80010E7E7386840F40030386004E0B3
:100F20000198012101F06EFB044674B12646286841
:100F3000C043C0011ED4A86CD0B101280ED0022835
:100F400011D0032814D0012413E0EA6EDAF800105F
:100F500021F040511143CAF80010E8E7386840F426
:100F60000030386004E00198022101F04BFB044698
:100F70006CB126462868C043400255D41F4801681A
:100F800041F480710160FFF717FC81460EE0AA6C06
:100F9000DBF8001021F003011143CBF80010E9E762
:100FA000FFF70AFCA0EB090064283BD8134800684F
:100FB000C005F5D5BCBBDFF84090B5F8B01009F11D
:100FC0004409D9F8000001F4407100F440708842EF
:100FD00011D0D9F80010D9F8002021F4407142F462
:100FE0008032C9F80020D9F8002022F48032C9F8F4
:100FF0000020C9F8001003E02C44025800480258B1
:10100000D5F8B000B0F5807F19D1FFF7D5FB02907D
:1010100011E000BFFFF7D0FB0299411A41F288307E
:10102000814208D9032426462878DFF81494C04367
:10103000C00721D03CE0D9F800008007EAD5D5F8F8
:10104000B010C1F301200328FE480DD0016821F43F
:101050007C510160B5F8B020D9F80010C2F30B0242
:101060001143C9F80010DFE7F74A036802EA1112DA
:1010700023F47C511143ECE7A86F182816D005DC47
:10108000A0B1082808D0102804D10AE020280DD0EB
:1010900028280BD001240AE00198012101F0B2FABE
:1010A00003E00098012101F03DFB044664B12646AF
:1010B0002878C04380071ED4686F062819D2DFE85D
:1010C00000F0160C11161616AA6FD9F8001021F0B0
:1010D00038011143C9F80010EAE70198012101F035
:1010E00091FA03E00098012101F01CFB04467CB159
:1010F00000E0012426462878C04340071FD4D5F8D5
:101100009000062819D2DFE800F0160C111616160A
:101110006A6FD9F8001021F007011143C9F80010D7
:10112000E9E70198012101F06DFA03E0009801213F
:1011300001F0F8FA0446A4B100E00124264628781C
:10114000C04380062BD4D5F88C00B0F1405F24D08A
:1011500011DC10B3B0F1805F15D0B0F1005F10D199
:1011600016E0D5F89020D8F8001021F007011143BF
:10117000C8F80010E3E7B0F1804F0ED0B0F1A04FF7
:101180000BD001240AE00198002101F03BFA03E0B2
:101190000098022101F0C6FA044694B12646287848
:1011A000C04340062BD4D5F89800B0F5406F24D04A
:1011B00011DC10B3B0F5806F15D0B0F5006F10D111
:1011C00016E0D5F88C20D9F8001021F0E041114349
:1011D000C9F80010E3E7B0F5805F0ED0B0F5A05F6E
:1011E0000BD001240AE00198002101F00BFA03E082
:1011F0000098022101F096FA044694B12646287818
:10120000C04300062BD4D5F89C00B0F5C04F24D0C5
:1012100011DC10B3B0F5005F15D0B0F5804F10D1E0
:1012200016E0D5F89820D8F8001021F4E0511143C9
:10123000C8F80010E3E7B0F5004F0ED0B0F5204F2E
:101240000BD001240AE00198002101F0DBF903E052
:101250000098022101F066FA044654B12646287827
:10126000C04300071ED4D5F88000B0F5805F0AD0D7
:101270000FE0D5F89C20D8F8001021F4604111430C
:10128000C8F80010EBE70098022101F04BFA00B11A
:101290000126D5F88020D9F8001021F440511143DF
:1012A000C9F800102878C043C00613D4D5F89400BC
:1012B000B0F5807F05D10098022101F033FA00B12A
:1012C0000126D5F89420D8F8001021F4407111437C
:1012D000C8F800102868C043000316D4D5F8A00051
:1012E00038B1B0F5803F09D0B0F5003F0BD00124F4
:1012F0000AE00198002101F085F903E0009802213D
:1013000001F010FA04468CB126462868C043400319
:1013100022D4D5F88400B0F5801F11D0B0F5001F9D
:1013200013D0B0F5401F15D0012414E0D5F8A0204B
:10133000D8F8001021F440311143C8F80010E4E758
:10134000386840F40030386004E00098012101F072
:10135000E9F904465CB126462868C043C0031CD4A2
:10136000286D70B1B0F5803F10D0012414E0D5F89D
:101370008420D9F8001021F440111143C9F800105D
:10138000EAE7386840F40030386004E00198022150
:1013900001F038F90446DCB126462868C0438000D5
:1013A00005D40098022101F0BDF900B1012628689A
:1013B000C04380031BD4E86FB8B1B0F5807F10D074
:1013C000B0F5007F11D0B0F5407F0ED001240DE0C4
:1013D0002A6DDBF8001021F480311143CBF80010A6
:1013E000DBE7386840F4003038607CB32646286874
:1013F000C043C00207D42A6FDAF8001021F0004180
:101400001143CAF800102868C043800207D4AA6EAE
:10141000DAF8001021F080711143CAF80010286832
:10142000C043400009D40748016821F4004101602D
:101430000168D5F8B420114301602868C04306E074
:101440005444025810440258CFFFFF001DE007D457
:101450006A6DDBF8001021F040511143CBF8001009
:101460002868C043000208D4D5F88820D9F80010B5
:1014700021F440011143C9F8001028790024C04329
:1014800000F00100204309D00EE0EA6FD9F8001007
:1014900021F440711143C9F80010A8E70198002118
:1014A00001F0B0F800B106462879C04300F0020010
:1014B000204305D10198012101F0A4F800B10646AE
:1014C0002879C04300F00400204305D1019802218F
:1014D00001F098F800B106462879C04300F00800F2
:1014E000204305D10098002101F01CF900B1064607
:1014F0002879C04300F01000204305D10098012155
:1015000001F010F900B106462879C04300F0200030
:10151000044304D10098022101F004F900B916B186
:101520000120BDE8FE8F0020FBE700002DE9F05F01
:1015300004000F467ED0DFF83882D8F8000000F0B3
:101540000F00B8420CD2D8F8001021F00F01394337
:10155000C8F80010D8F8000000F00F00B84269D1B8
:101560002078844D40070AD52069296801F0700170
:10157000884204D9296821F070010143296020784C
:101580007C4E361D00070AD56069316801F0700194
:10159000884204D9316821F070010143316020781C
:1015A000C0060AD5A069316801F4E061884204D917
:1015B000316821F4E061014331602078DFF8B4B193
:1015C00080060BF1080B0CD5E1695846DBF80020CA
:1015D00002F07002914204D9026822F070020A43BC
:1015E0000260207880070AD5E068296801F00F01C1
:1015F000884204D9296821F00F010143296020782D
:10160000C0073ED05B49A2682868183920F4706092
:10161000104328606068022818D0032819D0096890
:10162000012819D0490700294ADADFF848A1AAF1B0
:10163000080A00E044E0DAF8002022F00702024342
:10164000CAF80020FFF7B8F8814612E0096889035C
:10165000E9E709688901E6E7C905E4E7FFF7ACF8BF
:10166000A0EB090141F28830814202D90320BDE894
:10167000F09F6168DAF8000000F03800B0EBC10FAD
:10168000ECD1207880070AD5E068296801F00F01C5
:10169000884204D2296821F00F0101432960D8F85B
:1016A0000010404601F00F01B9420BD9016821F04A
:1016B0000F0139430160006800F00F00B84201D00B
:1016C0000120D4E7207840070AD52069296801F075
:1016D0007001884204D2296821F070010143296019
:1016E000207800070AD56069316801F070018842EE
:1016F00004D2316821F07001014331602078C006C6
:101700000AD5A069316801F4E061884204D23168E9
:1017100021F4E06101433160207880060CD5E16955
:101720005846DBF8002002F07002914204D20268B1
:1017300022F070020A43026000F06CF80E492A6839
:101740002B68C2F3032203F00F038A5CC95C02F02A
:101750001F0201F01F01D040084A20FA01F1116078
:101760000749086007480068BDE8F05FFFF760B808
:101770000020005218440258363200081400002499
:10178000100000240800002430B500F043F80B4A94
:101790000B490C4B15681468C5F3032204F00F04C1
:1017A0008A5C095D02F01F0201F01F01D040064A69
:1017B00020FA01F119601060084630BD1844025843
:1017C00036320008140000241000002400B5FFF792
:1017D000DBFF05490968054AC1F30211515C01F0BC
:1017E0001F01C84000BD00001C44025836320008EA
:1017F00000B5FFF7C9FF05490968054AC1F3022191
:10180000515C01F01F01C84000BD00001C4402589B
:1018100036320008454970B545480968434B103BCE
:1018200011F0380208D00111082A03D0102A0BD079
:10183000182A0BD0084670BD19688906FBD51968AF
:10184000C1F3C101C84070BD3A4870BD3749374D3A
:1018500018310C1D24350A68096826682D6802F0C5
:10186000030406F00102C1F30511C5F3CC0515FB15
:1018700002F200EE102AB8EE400AE9B32F4ADFED7B
:101880002E0AB7EE001A6CB1DFED2D1A012C01D033
:10189000022C43D002EE101A1068F8EE422A81EEB4
:1018A000A22A1EE01C68A40611D51B6801EE901A3E
:1018B0001168C3F3C103F8EE612AD84001EE900A23
:1018C000C1F30800F8EE611A81EEA22A0BE001EEE6
:1018D000901ADFED1C2A00BFF8EE611A106882EE44
:1018E000A12AC0F3080001EE900AF8EE611A40EE5A
:1018F000201A31EE810A00E015E022EE000A10689D
:10190000C0F34620401C00EE900AF8EE600A80EE1C
:10191000201ABCEEC10A10EE100A70BD01EE901A3A
:10192000DFED092AD8E7002070BD000010440258FE
:101930000090D00300366E01000000393044025898
:101940000024744A0024744C001BB74B2DE9F05F4F
:1019500004007DD0FF4F2078FE4D1837DFF8F48368
:10196000103DC00748D0D8F80000396800F03800B2
:10197000102815D0182803D101F0030002280FD039
:101980006068B0F5803F12D010B1B0F5A02F18D02C
:10199000286820F480302860286820F4802009E03E
:1019A0002868800328D560680028D2D024E0286801
:1019B00040F480302860606888B1FEF7FDFE06467E
:1019C00009E0286840F480202860F0E7FEF7F4FE84
:1019D000801B64287ED828688003F7D50CE0FEF7CA
:1019E000EBFE064605E000BFFEF7E6FE801B64281E
:1019F000F0D828688003F7D42078800756D5D8F827
:101A00000000DFF85093396810F03800A9F10C0994
:101A10000ED0182801D188070AD0E068A8B3296839
:101A200021F0190101432960FEF7C6FE064628E0B1
:101A30002868400702D5E06800288AD0E168286855
:101A400020F0190008432860FEF7B6FE064606E0BF
:101A5000D2E000BFFEF7B0FE801B0228BAD828688B
:101A60004007F7D5217CD9F8002022F0FE4242EA57
:101A70000161C9F8001019E0FEF79EFE801B0228E4
:101A8000A8D828684007F7D5ECE7FFE7286820F0DA
:101A900001002860FEF790FE064604E0FEF78CFE8B
:101AA000801B022896D828684007F7D42078C00603
:101AB00046D5D8F80000DFF89C92396800F038006D
:101AC000A9F10409082812D0182805D101F0030053
:101AD000012800E0CEE00AD0E0690028286820D084
:101AE00040F080002860FEF767FE064615E0286893
:101AF000C00502D5E06980287ED194F82010D9F87D
:101B0000002022F07C5242EA0161C9F8001017E07F
:101B1000FEF752FE801B0228A0D82868C005F7D522
:101B2000EBE720F080002860FEF746FE064604E062
:101B3000FEF742FE801B022890D82868C005F7D423
:101B40002078000729D583486169643000298146DF
:101B5000016811D041F001010160FEF72DFE06463B
:101B600005E000BFFEF728FE801B022888D8D9F8C0
:101B700000008007F6D510E021F001010160FEF7BA
:101B80001BFE064605E000BFFEF716FE801B02287E
:101B900070D8D9F800008007F6D42078800623D5C5
:101BA000A0690028286810D040F480502860FEF713
:101BB00003FE064605E000BFFEF7FEFD801B02287F
:101BC00058D828688004F7D50EE020F480502860AB
:101BD000FEF7F2FD064604E0FEF7EEFD801B02284C
:101BE00048D828688004F7D42078400751D5DFF81A
:101BF0006891D9F8001000E015E141F48071C9F84E
:101C00000010FEF7D9FD064605E000BFFEF7D4FD43
:101C1000801B64282ED8D9F80000C005F6D54D4E9B
:101C2000A068603601280AD008B1052813D03068B2
:101C300020F001003060306820F0040002E03068DD
:101C400040F001003060A06841F2883A98B1FEF798
:101C5000B3FD81460AE0306840F004003060EEE7F2
:101C6000FEF7AAFDA0EB0901514503D830688007B3
:101C7000F6D50EE072E0FEF79FFD814606E000BF5C
:101C8000FEF79AFDA0EB0901514567D8306880073F
:101C9000F6D4606A00287CD0DFF8B8A0D8F800102D
:101CA0000AF1200A4FF6F87B0AF10408C1F3C201D9
:101CB0000329AAF104096DD00228286820F0807059
:101CC000286003D0FEF778FD044681E0FEF774FD3E
:101CD000064604E0FEF770FD801B022875D82868D0
:101CE0008001F7D4E26A40F2F331386854F8283FB3
:101CF000884340EA021018433860217B4FF4FE0C01
:101D000022894FF0FE47208A4902267D521E401E3E
:101D1000A1F5007189B2C2F308021143761E0CEAE4
:101D200000400143484607EA06621143CAF8001022
:101D3000D9F8001021F00101C9F80010D8F80030DE
:101D4000266A23EA0B0343EAC601C8F80010D9F853
:101D5000001004E0104402580048025835E0A2691F
:101D600021F00C011143C9F800100168E26921F06B
:101D7000020111430160016841F480310160016892
:101D800041F400310160016841F480210160016883
:101D900001E06CE020E041F001010160286840F0C2
:101DA00080702860FEF708FD044604E0FEF704FD9D
:101DB000001B022809D828688001F7D557E000BF2A
:101DC000FEF7FAFC001B022802D90320BDE8F09FB1
:101DD00028688001F4D44AE039680128DAF8000064
:101DE00021D0A26A01F0030393421CD1E26AC1F33D
:101DF00005118A4217D1216BC0F30802491E8A429D
:101E000011D1616BC0F34622491E91420BD1A16BE7
:101E1000C0F30642491E914205D1E16BC0F3066052
:101E2000491E814201D00120D0E7A16C4646D8F876
:101E30000000C0F3CC00814219D0D9F800004D4613
:101E400020F00100C9F80000FEF7B6FC4FEA0007D9
:101E5000FEF7B2FCB842FBD0A26C306820EA0B005F
:101E600040EAC2003060286840F00100286000208D
:101E7000ACE700002DE9F047040029D0594A4FF0A3
:101E800000092068584B594D9042C4F8289006D05C
:101E9000984204D0A84202D0E1680F2918D8E1681E
:101EA0004FF0010AE76B0831C9080AEB5716714376
:101EB000904205D0984203D0A84201D0082907D803
:101EC000904203D0984201D0A84204D1102902D9EF
:101ED0000120BDE8F08794F8810020B9204684F8FD
:101EE000809000F085F8022084F881002068016865
:101EF00021F0010101602068A1698268B1F1806F61
:101F000002F4F81110D16268B2F5800F01D01AB155
:101F10000AE0A26B22B107E0A26BB2F1805F03D1AD
:101F2000026842F4805202606068400209D5E068AD
:101F3000072806D32068236D026822F480721A43B2
:101F400003E02068026822F480720260A66AE069F9
:101F5000E26B25683043E3680A4310431843A860E6
:101F6000D4E90D02D4E90581636A25691843D4F8E0
:101F700020C00A43266810432843A56DD4E90172A6
:101F8000D4E9123140EA080040EA0C003843084323
:101F9000104318432843F060606868B9206881687E
:101FA00021F4C05141F4006181602068816821F40E
:101FB000C06141F4806181602068016D21F0010100
:101FC00001656068400206D52068626DC16821F035
:101FD00000411143C160C4F8849084F881A00020BE
:101FE00077E700000030014000380040003C00402E
:101FF00010B5B4B0044614212EA8FEF74EFAB8214D
:102000006846FEF74AFA1A49206888422DD1002016
:102010004FF480414FF0A0422B92CDE9001068466A
:10202000FEF7E6FD08B1FEF79EFA1248016841F09E
:1020300020010160006800F0200033900D48143842
:10204000016841F00101016000680DF1B80C022146
:1020500000F001003390A0200022032308248CE824
:102060001F0005482EA9FEF793FA34B010BD0000FA
:1020700000140058F4440258000002582DE9FC5F97
:102080000446006817468A460021994694F8802045
:1020900000F1200B0191012A0DD04FF0010884F8C6
:1020A0008080FEF789FB064694F881000025012810
:1020B00004D0022034E00220BDE8FC9FBAF1000FFA
:1020C0002DD067B3A1680320C4F85CA0A4F86070A9
:1020D00084F88100C4F88450A4F862706566A4F89E
:1020E0006850A4F86A50B1F5C02F6567256720686D
:1020F00019D0C16821F4C02141F40031C1602068C9
:1021000041686FF30F01394341602068016841F075
:10211000010101606068B0F5800F09D00DE0012079
:1021200084F88050C8E7016841F400610160E6E787
:102130002068016841F400710160E0680F281CD834
:1021400020E02068416989070BD5E16D09680162CB
:10215000E06D001DE065B4F86200401EA4F8620066
:102160000BE0FEF729FB811B494503D3B9F1FF3F83
:1021700003D099E0B9F1000F30D0B4F86200002824
:10218000DFD177E007282DD870E020684169890702
:102190001CD5B4F8621001290BD9E16B49B1E16D8E
:1021A00009680162E06D001DE065B4F86200801E00
:1021B00009E0E06D0188ABF80010E06D801CE0657F
:1021C000B4F86200401EA4F862000BE0FEF7F4FAD7
:1021D000811B494503D3B9F1FF3F03D064E0B9F156
:1021E000000F61D0B4F862000028CED142E0206830
:1021F000416989072ED5B4F8621003290CD9E16B27
:10220000402909D9E16D09680162E06D001DE065B2
:10221000B4F86200001F1AE0B4F8621001290CD96A
:10222000E16B51B1E06D0188ABF80010E06D801CEE
:10223000E065B4F86200801E09E0E16D097880F87D
:102240002010E06D401CE065B4F86200401EA4F868
:1022500062000BE0FEF7B0FA811B494503D3B9F1E8
:10226000FF3F03D020E0B9F1000F1DD0B4F86200A9
:102270000028BCD100224B4608212046009600F0E1
:102280003FFB28B1D4F8840040F02000C4F884005B
:10229000204600F0D7FA84F88180D4F8840084F8CE
:1022A000805080B1012007E7204600F0CBFAD4F837
:1022B000841084F8805041F48071C4F8841084F84C
:1022C00081800320F8E60198F6E6401EB0F1807F99
:1022D00010B501D3012010BD4FF0E02460610F2143
:1022E000601700F067FF0020A0610721216110BD89
:1022F00030B590F88410012918D0012280F884208C
:102300002421C0F888100022202401680B680D6881
:1023100023F0005325F001050D60426601680B6053
:10232000C0F8884080F88420104630BD022030BDBF
:1023300070B5044690F8840001281DD0012284F86D
:1023400084202420C4F8880020680568026822F0F0
:10235000010202602068826822F060620A438260A3
:10236000204600F09DFB2268202100201560C4F863
:10237000881084F8840070BD022070BD70B50446DA
:1023800090F8840001281DD0012284F884202420A4
:10239000C4F8880020680568026822F00102026023
:1023A0002068826822F060420A438260204600F082
:1023B00077FB2268202100201560C4F8881084F87B
:1023C000840070BD022070BD10B5040003D0D4F8A5
:1023D000880010B107E0012010BD002084F88400BF
:1023E000204600F027F82420C4F8880020680168FF
:1023F00021F001010160204600F058FC0128EBD0DB
:10240000A06A10B1204600F06DFB2068416821F4FD
:10241000904141602068816821F02A018160206834
:10242000016841F0010101602046BDE8104000F064
:10243000BDBB000010B5B4B0044614212EA8FEF7B1
:102440002CF8B8216846FEF728F819492068884218
:102450002BD100201E9001210446CDE900106846D2
:10246000FEF7C6FB08B1FEF77EF81248016841F09E
:1024700010010160006800F0100033900D48103822
:10248000016841F00101016000682EAB022100F0FB
:10249000010033904FF4C060072283E81300064820
:1024A0002EA9CDE93142FEF773F834B010BD00001B
:1024B00000100140F044025800000258FEE70000FE
:1024C00030B587B014216846FDF7E7FF164801686C
:1024D00041F004010160016801F004010591016807
:1024E00041F080010160016801F0800105910168FF
:1024F00041F00101016000684FF460440B4D01227E
:1025000000F00100214605902846FEF74FF9002112
:1025100000940120CDE90101284603916946FEF7A8
:1025200037F807B030BD0000E044025800080258F8
:102530002DE9F0414FF4800715480021134EBD00EE
:102540000722AC00C0E90321A300C0E907314162C2
:102550009A0081624FF4003CC162C0E90D21C16361
:10256000016441648164C164016541658165C0E9BC
:10257000055480E8C010FFF77DFC002803D0BDE8BB
:10258000F041FDF7F0BFBDE8F081000000140058F5
:10259000180000241848002110B5164C0C224FF4E6
:1025A00061230460C0E90131C160C0E904128161A6
:1025B000C161016241628162FFF706FF08B1FDF768
:1025C000D2FF0D480021FFF7D9FE08B1FDF7CBFF80
:1025D00009480021FFF7ACFE08B1FDF7C4FF06482B
:1025E000FFF786FE002803D0BDE81040FDF7BBBF13
:1025F00010BD000000100140A0000024FEE7FEE72F
:10260000704700002DE9F047454D044689464FF0DC
:10261000000A2868C04380070AD0414E283E30682F
:1026200020F080603060FEF7C7F80746B04608E04B
:102630000120BDE8F08700BFFEF7BEF8C01B0228EE
:1026400067D8D8F800000001F6D4206829684FF454
:10265000FE0721F47C313E0241EA00302860207AF6
:10266000A389B4F804C040022D4D2D495B1E227C85
:10267000ACF1010C1035091DA0F5007080B2521E9E
:10268000CCF3080C07EA034340EA0C00184306EABF
:102690000262104328600868626920F0C00010439D
:1026A00008600A68A06922F0200202430A60281D1F
:1026B0000A6822F010020A6002684FF6F873E469B3
:1026C0009A4342EAC40202600868B9F1000F40F080
:1026D00010020A6011D00868B9F1010F11D040F45E
:1026E00000100860D8F80000444640F08060C8F848
:1026F0000000FEF761F805460DE0086840F4002090
:10270000EFE740F48010ECE7FEF756F8401B022894
:1027100001D903208DE720680001F5D5504688E7F0
:10272000284402582DE9F047454D044689464FF0AC
:10273000000A2868C04380070AD0414E283E30680E
:1027400020F080503060FEF737F80746B04608E0CA
:102750000120BDE8F08700BFFEF72EF8C01B02285D
:1027600067D8D8F800008000F6D4208829684FF494
:10277000FE0721F07C713E0241EA00502860207A79
:10278000A389B4F804C040022D4D2D495B1E227C64
:10279000ACF1010C1835091DA0F5007080B2521E75
:1027A000CCF3080C07EA034340EA0C00184306EA9E
:1027B0000262104328600868626920F44060104398
:1027C00008600A68A06922F4007202430A60281DAA
:1027D0000A6822F480720A6002684FF6F873E469AE
:1027E0009A4342EAC40202600868B9F1000F40F45B
:1027F00080720A6011D00868B9F1010F11D040F061
:1028000080700860D8F80000444640F08050C8F856
:102810000000FDF7D1FF05460DE0086840F4800098
:10282000EFE740F40000ECE7FDF7C6FF401B02288D
:1028300001D903208DE720688000F5D5504688E750
:102840002844025810B5026840F26F335169946908
:1028500044F0080494610268946944F0100494619F
:102860000268146824F001041460026814699C432F
:1028700014610268936823F44043936090F88120C8
:10288000042A0CD08A060AD5D0F8842042F08002AF
:10289000C0F884200268936943F02003936190F8A4
:1028A0008120032A0CD04A060AD5D0F8842042F0B1
:1028B0000402C0F884200268936943F040039361E6
:1028C0008A050AD5D0F8842042F00102C0F884209D
:1028D0000268936943F400739361C9050AD5D0F87F
:1028E000841041F00801C0F8841001688A6942F43C
:1028F00080728A610021A0F86210A0F86A1010BDF1
:102900002DE9F0411C4616460D460746DDF81880B5
:102910000AE000BFFDF750FFA0EB0800A04202D381
:10292000601C01D00BE054B13868406935EA000002
:1029300007D00020B042EDD00020BDE8F081032098
:10294000FBE70120F6E77047FDF73CBF30B59DB0CF
:102950004C216846FDF7A1FD202113A8FDF79DFD40
:102960000220FDF7C5FF1D48016821F440410160C8
:102970000168002401F440411B9101688904FCD5E1
:1029800002200A9028230990C20301210C25CDE9D9
:102990000012CDE90B03CDE90D10CDE910540F90D5
:1029A00068461294FEF7D2FF08B172B6FEE74020E7
:1029B0001A9008230501CDE9163013ABCDE91805AF
:1029C0003F21032283E8160013A81146FEF7AEFD4F
:1029D000002801D072B6FEE71DB030BD184802587D
:1029E0002748F0B5274A016841F47001016010687A
:1029F00000F00F00072804D2106820F00F00C01D5F
:102A0000106021490020204C10340B681F4D43F00A
:102A100001030B6020600B682B400B60136803F010
:102A20000F03072B04D9136823F00F03DB1D13607A
:102A3000154C174A1834174B261D371D2060124CB1
:102A4000154D28343060261D3860371D23603B1D2E
:102A500035601C1D3A60251D2E1D1860331D226037
:102A60002860326018600A6843F2D204064B0B4DAE
:102A700022F4802260330A6018602C60F0BD0000F0
:102A800088ED00E000200052004402587FEDF6EA95
:102A900080020101000202020000FF01004000521A
:102AA00030B5416EB9B101680D4B03F108048A6875
:102AB0008968C2F34262490F5D5C615C2D01B5FB20
:102AC000F1F1A0F86A10995CA25C0901B1FBF2F186
:102AD000A0F8681030BD0121A0F86A10F8E70000E6
:102AE0002632000890F82810C90706D00168C36A8A
:102AF0004A6822F400321A434A6090F82810890785
:102B000006D50168036B4A6822F480321A434A6092
:102B100090F82810490706D50168436B4A6822F4EB
:102B200080221A434A6090F82810090706D50168E8
:102B3000836B4A6822F400421A434A6090F82810D6
:102B4000C90606D50168C36B8A6822F480521A430D
:102B50008A6090F82810890606D50168036C8A6897
:102B600022F400521A438A6090F82810490611D5C1
:102B70000168436C4A6822F480121A434A60416C2F
:102B8000B1F5801F06D10168836C4A6822F4C00247
:102B90001A434A6090F82810090606D50168C26CED
:102BA000486820F400201043486070472DE9F8433E
:102BB00000250446C0F89050FDF7FEFD80462068D1
:102BC00020266FF07E470068000713D50022434699
:102BD00031042046009700F057FA58B1216851E8B7
:102BE000000F20F0800041E80002002AF6D1C4F86E
:102BF000886021E020680068400722D50022434613
:102C00004FF480012046009700F03EFAC8B12068DA
:102C100050E8001F21F4907140E80012002AF6D11C
:102C20002068083050E8001F21F0010140E8001240
:102C3000002AF5D1C4F88C60032084F88450BDE8E4
:102C4000F883C4F88860C4F88C60E56625670020C6
:102C500084F88450F3E7000010B5026852E8001FC2
:102C600021F4907142E80013002BF6D10E4B02685C
:102C7000083252E8001F194042E80014002CF6D137
:102C8000C16E012908D1026852E8001F21F010012D
:102C900042E80013002BF6D100212022C0F88C203E
:102CA000C166416710BD0000FEFFFFEF2DE9F04354
:102CB00004468068E24E87B0E24B2168D4E90427DD
:102CC000D4F81CC010430A68002547EA0C073843B3
:102CD000324002430A602068E268416821F44051B2
:102CE000114341602268A1699A4201D0206A0143E0
:102CF0009668DFF854C3D54FD54806EA0C060E4354
:102D000096602168666ACA6A22F00F023243CA627C
:102D10002268BA420ED1006800F0380018286FD03F
:102D20007ADCB8B308286CD010286BD18BE0282847
:102D300068D18EE0C7498A4209D1006800F00700D7
:102D400006285FD2DFE800F0507D7F818385C2498D
:102D50008A4209D1006800F0070006287BD2DFE82C
:102D600000F0437072747678BC498A4209D10068D9
:102D700000F0070006286ED2DFE800F036636567D2
:102D8000696BB7498A420BD1006800F0070006283A
:102D900061D200E043E0DFE800F0275456585A5C67
:102DA000B0498A4206D1006800F0380018284CD09B
:102DB000B7DD31E0AC498A4209D1006800F0070074
:102DC000062848D2DFE800F0103D3F414345A749BF
:102DD0008A420BD1006800F0070006283BD2DFE8EA
:102DE00000F0033032343638002035E0A0498A4202
:102DF00009D1006800F03800182826D091DD0BE0DA
:102E000023E01EE027E09B498A420AD1006800F0D7
:102E10003800182819D084DD202888D11CE0012032
:102E20001AE09A4217D18A48001D006800F0070096
:102E3000062810D2DFE800F0030507090B0D022079
:102E40000AE0042008E0082006E0102004E020202A
:102E500002E0402000E080208749DFF820829A428B
:102E6000874A4FF400434FEA21174FF000064ED136
:102E700010281AD006DC022809D004280BD0082814
:102E80007ED10DE020283ED0402879D13DE0FDF7ED
:102E900059FD014610E06846FDF766FD01990BE01B
:102EA00003A8FDF703FE049906E01068800605D527
:102EB0001068C0F3C100C140002970D0606A676823
:102EC00038F8102007EB4703B1FBF2F0834257D8E4
:102ED000B0EB073F54D8002308461946FDF766FAC1
:102EE00002467808130E120243EA012110183A46EE
:102EF00071410023FDF75AFA624AA0F540719142F0
:102F00003ED821688FE03946D8E71946D6E7D4F88D
:102F10001CC04FF6EF799C4546D1082819D005DC36
:102F200058B101280CD0042875D10DE0102815D017
:102F3000202835D040286ED134E0FEF747FC01E070
:102F4000FEF756FC014610E06846FDF70DFD0199BD
:102F50000BE003A8FDF7AAFD049906E010688006BF
:102F600004D51068C0F3C100C140C1B1636A606894
:102F700038F81330B1FBF3F1490001EB500100E0E8
:102F800049E0B1FBF0F0A0F11001494543D84FF6FC
:102F9000F0732168C0F342021840104343E043E05D
:102FA0003946E3E71946E1E7082819D005DC58B1AE
:102FB00001280CD004282ED10DE0102815D020288F
:102FC0002BD0402827D12AE0FEF700FC01E0FEF7D5
:102FD0000FFC014610E06846FDF7C6FC01990BE0C6
:102FE00003A8FDF763FD049906E01068800604D588
:102FF0001068C0F3C100C140B1B1636A606838F8BD
:103000001330B1FBF3F101EB5001B1FBF0F0A0F193
:103010001001494505D9012506E03946EDE7194675
:10302000EBE7216880B2C8600120A4F86A00A4F828
:10303000680028466667A66707B0BDE8F083000011
:10304000F369FFCF000C0058FFF4FF11001001409E
:10305000544402580044004000480040004C0040E6
:10306000005000400014014000780040007C004007
:1030700000180140001C01400090D0030E320008EF
:1030800000440258FFFC0F002DE9F047994617460F
:103090000E460446089D4FF000082FE0681C2DD016
:1030A000FDF78AFBA0EB0900A84214D89DB1206867
:1030B0000168490722D5C169C94309070DD408250C
:1030C00005622046FFF7C8FDC4F89050012084F83F
:1030D0008480BDE8F0870320FBE7C069C04300059A
:1030E0000CD421684FF4006008622046FFF7B4FD5D
:1030F0002021C4F8901084F88480ECE72068C0692F
:1031000036EA000004D00020B842C7D00020E0E733
:103110000120F9E7FEE70000F0B587B000236C4618
:103120008DF8183021FA03F5ED0701D0F02600E004
:10313000C02620FA03F5C3F107077608ED07E65528
:1031400001D0F02600E0C02622FA03F5C3F10F07F4
:103150007608ED07E65501D0F02500E0C025C3F163
:1031600017066D085B1C082BA555DBDB4FF6FF74BB
:103170000F480022234606A9FEF780FF0C4800BF37
:1031800090F881100129FBD109481822234669468D
:10319000FEF774FF25460024054801222B4606A9A8
:1031A000FEF76CFF641C642CF6DB07B0F0BD00007A
:1031B00018000024090700284FEA116104DB00F120
:1031C000E02080F80014704700F00F0000F1E020CC
:1031D00080F8141D70470000FDF7FCFAFFF7B6FBFE
:1031E000FFF76EF9FFF7A4F9FFF7D4F9044CA278C2
:1031F00061782078FFF790FF6420FDF7B7F9F6E7D4
:10320000000000244FF04070E1EE100A704701000A
:1032100002000400060008000A000C001000200054
:1032200040008000000101010103070100000804C3
:103230000204080101010000000001020304010270
:103240000304060708090000683200080000002493
:10325000180000000803000880320008180000244D
:10326000800B0000240300080101010001000000A0
:1032700010000000000000000090D0030090D00378
:04000005080002CD20
:00000001FF
