:020000040800F2
:10000000680700246D0300083B430008B541000861
:1000100039430008FD060008DD4600080000000026
:100020000000000000000000000000008145000802
:10003000450B0008000000003D4300088345000810
:100040008703000887030008870300088703000868
:100050008703000887030008870300088703000858
:1000600087030008870300088703000801070008CA
:100070008703000887030008870300088703000838
:100080008703000887030008870300088703000828
:100090008703000887030008870300088703000818
:1000A0008703000887030008870300088703000808
:1000B00087030008870300088703000887030008F8
:1000C00087030008870300088703000887030008E8
:1000D00087030008870300088703000887030008D8
:1000E000870300088703000800000000870300085A
:1000F00087030008870300088703000887030008B8
:1001000087030008870300088703000887030008A7
:100110008703000887030008870300088703000897
:100120008703000887030008870300088703000887
:100130008703000887030008870300088703000877
:1001400000000000000000000000000000000000AF
:100150008703000887030008870300088703000857
:100160008703000887030008870300088703000847
:1001700087030008870300088703000800000000C9
:100180008703000887030008870300088703000827
:100190008703000887030008870300088703000817
:1001A0008703000887030008870300080000000099
:1001B00087030008870300088703000887030008F7
:1001C000870300088703000800000000000000000B
:1001D000000000000000000087030008000000008D
:1001E000000000000000000000000000000000000F
:1001F00000000000000000008703000887030008DB
:100200008703000887030008000000008703000838
:100210008703000887030008870300088703000896
:1002200087030008000000008703000800000000AA
:100230008703000887030008000000008703000808
:100240008703000887030008870300088703000866
:100250008703000887030008870300088703000856
:100260008703000887030008870300088703000846
:1002700087030008870300088703000800000000C8
:100280008703000887030008870300088703000826
:10029000000000008703000887030008000000003A
:1002A0000000000087030008870300088703000898
:1002B00087030008870300088703000887030008F6
:1002C00087030008870300088703000800F002F88E
:1002D00000F03CF80AA090E8000C82448344AAF1A4
:1002E0000107DA4501D100F031F8AFF2090EBAE8A2
:1002F0000F0013F0010F18BFFB1A43F0010318475A
:1003000094440000B4440000103A24BF78C878C177
:10031000FAD8520724BF30C830C144BF04680C600B
:10032000704700000023002400250026103A28BF53
:1003300078C1FBD8520728BF30C148BF0B60704757
:100340001FB504F015FA1FBD10B510BD00F058F828
:100350001146FFF7F5FF04F0D3F900F076F803B487
:10036000FFF7F2FF03BC00F07DF80000094880476A
:1003700009480047FEE7FEE7FEE7FEE7FEE7FEE787
:10038000FEE7FEE7FEE7FEE704480549054A064B9F
:10039000704700001D460008CD02000868010024D7
:1003A0006807002468030024680300244FF000025B
:1003B00000B5134694469646203922BFA0E80C505B
:1003C000A0E80C50B1F12001BFF4F7AF090728BF36
:1003D000A0E80C5048BF0CC05DF804EB890028BFB2
:1003E00040F8042B08BF704748BF20F8022B11F0DB
:1003F000804F18BF00F8012B704770477047704757
:10040000754600F02BF8AE4605006946534620F0CD
:100410000700854618B020B5FFF7B6FFBDE82040BD
:100420004FF000064FF000074FF000084FF0000BB0
:1004300021F00701AC46ACE8C009ACE8C009ACE863
:10044000C009ACE8C0098D46704710B50446AFF34B
:1004500000802046BDE81040FFF781BF004870478C
:100460000401002401491820ABBEFEE7260002006B
:100470007047000010B5324904460068884202D037
:10048000304A904202D1D1F8080302E02E48D0F859
:10049000080310F4403F10D003F016FB6168B1F57B
:1004A000803F06D0B1F5003F03D0B1F5403F26D1E3
:1004B00001E0090C17E0800821E000214FF4002042
:1004C00002F0E8FB61688A03920B18D18A140C2AA7
:1004D00015D2DFE802F0140606060606060B0D0F1D
:1004E0001113890C4900B0FBF1F008E0000906E0A7
:1004F000400904E0800902E0C00900E0000A134955
:100500004008884204D82068816821F4407108E0DE
:100510000F49884207D82068816821F4407141F46E
:100520008071816010BD0B4988422068816804D8C1
:1005300021F4407141F40071F3E741F44071F0E7B8
:10054000002002400021024000600258105E5F005F
:1005500020BCBE0040787D0110B5846B216E11F087
:10056000500F06D0216EC90625D5204600F09EFE0C
:1005700010BD206E40F400702066206801680907F5
:1005800007D503F02AFE90B12068C068800403D527
:100590000DE0C06880070AD1206E20F480702066CC
:1005A000206EC00403D4206E40F001002066204677
:1005B00000F07AFE10BDA16DC96CBDE8104008477F
:1005C00010B5806B016E41F040010166416E41F053
:1005D0000401416600F06AFE10BD10B5806B00F0AA
:1005E00064FE10BD70B50446006881688268C1F37E
:1005F000400112F0010F28D039BB816801F00D01D4
:10060000012914D18168124A1140891C8160216836
:100610000320086002F070F8054612E002F06CF862
:10062000401B02280DD920688068C00709D0206EC1
:1006300040F010002066606E40F00100606601200E
:1006400070BD20688068C007E8D1002070BD000040
:10065000C0FFFF7F70B504460068816811F0010F8C
:1006600040D18168204A11422DD18168D54329406B
:10067000491C816002F040F81C49064620681C4B6A
:10068000884201D0984201D11A4A00E01A4A926881
:10069000984202F01F0200D0014681421DD0E2B113
:1006A00020E0816811F0010F03D181682940491CC5
:1006B000816002F021F8801B02280ED920680068B2
:1006C000C043C00709D0206E40F010002066606E65
:1006D00040F001006066012070BD20680168C943D8
:1006E000C907DED1002070BD3F000080002002401D
:1006F000002102400023024000630258FEE7000090
:10070000014801F039B800008C000024294A016832
:1007100091423AD0274A1832914236D0254A303297
:10072000914232D0234A483291422ED0214A60323F
:1007300091422AD01F4A7832914226D01D4A9032E7
:10074000914222D01B4AA83291421ED01A4A9142AD
:100750001BD0194A1832914217D0174A30329142B1
:1007600013D0154A483291420FD0134A6032914259
:100770000BD0114A7832914207D00F4A9032914201
:1007800003D00D4AA832914211D1CAB21823103AAF
:10079000B2FBF3F26FF30901032A02F00703074AE1
:1007A000D25CC26500D9091D81650846704721F0F9
:1007B000FF01F9E710000240100402407A470008E8
:1007C00030B5224A012301689142CAB21BD01F4CA6
:1007D0001434A14217D01D4C2834A14213D01B4C15
:1007E0003C34A1420FD0194C5034A1420BD0174CCD
:1007F0006434A14207D0154C7834A14203D0134C85
:100800008C34A1420CD11421114C083AB2FBF1F105
:100810000F4A803201F01F0504EB8101AB4010E06C
:100820000C4D1824103A0D44B2FBF4F1A82D00D859
:100830000831094A01F01F0402EB8101064AA34076
:100840008032603080E80E0030BD0000085402584D
:1008500000580258F0FBFDBF0008024010B50279B5
:10086000531E072B2DD8174C0168A1421BD0154CE5
:100870001434A14217D0134C2834A14213D0114C88
:100880003C34A1420FD00F4C5034A1420BD00D4C40
:100890006434A14207D00B4C7834A14203D0094CF8
:1008A0008C34A14203D10849074C443102E0074986
:1008B000064C443104EB8202C0E91B21012199401E
:1008C000416710BD08540258FC580258FC08024009
:1008D00010B583694FF0C074826A0146002053B19D
:1008E000B3F5005F15D072B1012A0CD0022A0AD0EC
:1008F000032A09D104E01AB1012A06D0022A03D141
:10090000C96AC90100D5012010BDC96AA142FAD047
:1009100010BD002AF7D0012AF2D0022AF3D0032A10
:10092000F3D010BD2DE9F04F804E804FDFF8FC91E1
:100930001836DFF8F8A148370468856D0AF1300AE7
:10094000DFF8ECB14C45DFF8ECC1DFF8ECE16DD03D
:10095000B4426BD0544569D0BC4267D0DFF8D08137
:10096000A8F11808444561D05C455FD064455DD06E
:1009700074455BD0DFF8C481444557D0DFF8BC81B3
:1009800008F11808444551D0DFF8B08108F130086B
:1009900044454BD0DFF8A48108F14808444545D0D0
:1009A000DFF8988108F1600844453FD0DFF88C817A
:1009B00008F17808444539D0DFF8808108F19008C3
:1009C000444533D0DFF8748108F1A80844452DD0A0
:1009D000DFF86C81444529D0DFF8648108F1140800
:1009E000444523D0DFF8588108F1280844451DD03C
:1009F000DFF84C8108F13C08444517D0DFF840810E
:100A000008F15008444511D0DFF8348108F164083A
:100A100044450BD0DFF8288108F17808444505D01B
:100A2000DFF81C8108F18C08444509D1D0E9194848
:100A3000C4F80480C46E1CB1D0E91C48C4F804801A
:100A400004684C452ED0B4422CD054452AD0BC4228
:100A500028D0374E183EB44224D05C4522D064459D
:100A600020D074451ED0354EB4421BD0334E1836BC
:100A7000B44217D0314E3036B44213D02F4E4836E0
:100A8000B4420FD02D4E6036B4420BD02B4E783688
:100A9000B44207D0294E9036B44203D0274EA83630
:100AA000B44215D190F85C603F2406F01F06B440B4
:100AB000AC600468256825F4802525602EE09A60E6
:100AC0000068C160BDE8F08F99600068C260F9E716
:100AD0001B4EB4421BD01A4E1436B44217D0184ED7
:100AE0002836B44213D0164E3C36B4420FD0144EC2
:100AF0005036B4420BD0124E6436B44207D0104E7A
:100B00007836B44203D00E4E8C36B442DAD190F827
:100B10005C60012406F01F06B4406C6004686360EA
:100B20008368402B0368CFD1C9E700001000024062
:100B300088000240A0000240B800024010040240B9
:100B400008540258704772B6FEE70000F8B5002757
:100B5000044615460E46009790F85C0001280BD01D
:100B6000012084F85C002046FFF73CFD0100206E68
:100B700004D040F010002DE00220F8BD20F4885091
:100B800040F002002066206806F4803205F08043C1
:100B9000134D1A4383682B401A4342F0004282608F
:100BA000104A20680EE0009B5B1C0093934209D31F
:100BB000206E84F85C7020F0020040F01000206687
:100BC0000120F8BD8368DB0FEDD1206E20F002001C
:100BD00040F001002066084684F85C70F8BD000013
:100BE000C0FFFE3F00F8C3252DE9F0470F4690F8FF
:100BF0005C109CB0044601294FF0000915D0002676
:100C0000DFF8F880012084F85C00189619962168B6
:100C100041450ED13A4D0095284603F0DAFA824656
:100C2000206803F0D6FA60B10EE002201CB0BDE8E7
:100C3000F087206E84F85C6040F020002066012080
:100C4000F4E7BAF1000F09D0216E4FF0010941F02D
:100C500020002066484684F85C60E7E7206841464B
:100C6000884201D0A84201D1264800E0264840F63B
:100C70001F72D7F800C0254BBCF1000F23D0D0F86D
:100C800008C0D7F804802CF4404C4CEA080CC0F89B
:100C900008C0D4F800C08C4501D0AC4507D18968A4
:100CA000AB6801F0010103F00103194302E0996808
:100CB00001F001010029CDD1BD683968836829435D
:100CC0009343194317E0876827F4404787602768F4
:100CD0008F4201D0AF4207D18968AB6801F00101B2
:100CE00003F00103194302E0996801F001010029B2
:100CF000B0D1816891438160ACE7000000200240E0
:100D000000210240002302400063025800600258A4
:100D10002DE9F84F4FF0000B0446FD4E0D46CDF87F
:100D200000B0DA4690F85C00FA4F012808D04FF086
:100D3000010984F85C90206803F047FA18B152E288
:100D40000220BDE8F88F2068B0420DD02968C26942
:100D50000B0327D091FAA1F1B1FA81F101F01F0341
:100D600009FA03F10A43C261D5E900124FF00C0CF5
:100D700020681F23C1F384610CEA921C02F01F0259
:100D8000604493409140026B9A430A430263206897
:100D900003F01BFA8046206803F013FA58EA0000BB
:100DA00003D048E1C1F38461D8E7AA6829682068C4
:100DB00003F01BFA2068B04204D1C2686969C2F32B
:100DC000C1020BE0D44A1268B9EB127F02D0C168AD
:100DD000C90605D4C2686969C2F38202520004E000
:100DE000C268696902F01002520891402A69042A17
:100DF0005AD02B6800EB8202B04202F1600207D1A8
:100E000003F0F8401368084340F00040106008E029
:100E1000D2F800C003F0F84008430CF00041014351
:100E200011602068B0421CD12A69E96900EB820098
:100E3000026E22F080720A43026695F82010206844
:100E40002A6901290AD00021B042AAD100EB820010
:100E5000026E22F000720A430266ECE04FF000716D
:100E6000F2E795F821102A69012917D05FF00001F7
:100E700000EB8200026E22F000420A430266287EE6
:100E800021682A6901280CD000200B6902F01F029A
:100E9000904023F4F04202430A61CCE04FF000415D
:100EA000E6E74FF40060F0E7B04273D1002103F0B1
:100EB00082F9000320684FF000016DD003F07BF948
:100EC00090FAA0F0B0FA80F12868020369D090FA95
:100ED000A0F0B0FA80F0814204D1002220681146CF
:100EE00003F092F92068012103F065F900032068FE
:100EF0004FF0010158D003F05EF990FAA0F0B0FA7B
:100F000080F12868020354D090FAA0F0B0FA80F083
:100F1000814204D120680022012103F075F9206884
:100F2000022103F048F9000320684FF0020143D08A
:100F300003F041F990FAA0F0B0FA80F128680203BA
:100F40003FD090FAA0F0B0FA80F0814204D120683E
:100F50000022022103F058F92068032103F02BF945
:100F6000000320684FF003012ED003F024F990FA1B
:100F7000A0F0B0FA80F1286802032AD090FAA0F01D
:100F8000B0FA80F0814256D120680022032103F09C
:100F90003BF950E020E0FFE703F00DF9C0F3846176
:100FA00092E7C0F3846096E703F005F9C0F384612B
:100FB000A7E7C0F38460ABE703F0FDF8C0F38461FA
:100FC000BCE7C0F38460C0E703F0F5F8C0F38461C8
:100FD000D1E7C0F38460D5E7016E2A7801F0F841CB
:100FE000B1EB826F03D1016E21F0004101662068F0
:100FF0002978426E02F0F842B2EB816F03D1416E64
:1010000021F00041416620682978826E02F0F842A2
:10101000B2EB816F03D1816E21F0004181662068BF
:101020002978C26E02F0F842B2EB816F03D1C16E33
:1010300021F00041C1662068816811F0010F71D173
:10104000364AB042EB6829680FD1D0F8B0C003F03F
:101050001808C1F3130322FA08F20A402CEA030C21
:101060004CEA020CC0F8B0C00EE0D0F8C0C003F0EB
:101070001808C1F3130322FA08F20A402CEA030C01
:101080004CEA020CC0F8C0C02548E96881427DD115
:10109000286801031BD090FAA0F1B1FA81F1491C34
:1010A00001F01F0109294FEA00313CD8002911D075
:1010B00090FAA0F1B1FA81F101F1010101F01F01F3
:1010C00009FA01F209D100BFC0F3846109E0C0F35D
:1010D0008461E4E7C0F38461EEE790FAA0F1B1FA2D
:1010E00081F101F1010101F01F0142EA816102D1A8
:1010F000C0F3846003E090FAA0F0B0FA80F000F151
:10110000010000F01F0000EB400041EA005140E008
:1011100000600258002102400010005CFFFF0F0039
:101120000000FF4765E000290FD000BF90FAA0F152
:10113000B1FA81F101F1010101F01F0109FA01F297
:1011400006D100BFC0F3846106E0C0F38461F1E71B
:1011500090FAA0F1B1FA81F101F1010101F01F0152
:1011600042EA816102D1C0F3846003E090FAA0F00A
:10117000B0FA80F0434A00F1010000F01F0000EBDC
:10118000400002EB005041EA000100E005E041F0C0
:101190000071AA68206803F028F8D5F800C0BCF1F7
:1011A000000F26DA384B20683849DFF8E49098427F
:1011B00001D0B84201D10A4600E04A4692689842FE
:1011C00002F0E07201D0B84209D19D68D7F80880DA
:1011D00005F0010508F0010845EA080502E0B568D8
:1011E00005F001054DB1216E4FF0010A41F02000DC
:1011F0002066504684F85CB0A3E5264DAC451CD172
:1012000015021AD4B042F4D1984202D0B84200D0AC
:1012100049468B6842F4000023F0E07202438A6082
:101220001E491D480968B1FBF0F04000801C00E039
:10123000401E00900028FBD1DBE7194DAC450CD1D6
:10124000D5010AD4B042D4D1984202D0B84200D0DD
:1012500049468B6842F080700EE0124DAC45C8D113
:101260005502C6D4B042C4D1984202D0B84200D090
:1012700049468B6842F4800023F0E07202438A60A2
:10128000B7E70000000020FE0020024000230240DB
:1012900000630258000052C7400D030014000024F0
:1012A000000021C3000084CB7047704770470000E6
:1012B0002DE9F8434FF0000504002E46009502D0BA
:1012C000206E18B108E00120BDE8F883204600F048
:1012D00043F9656684F85C5020688168C1F3407109
:1012E00019B181688E4A1140816020688168C1F31C
:1012F000007181B981688B4A114041F08051816051
:101300008A4989480968B1FBF0F0401C00E0401EA2
:1013100000900028FBD120688168C1F3007141B9B9
:10132000216E012641F010012166616E41F001013C
:10133000616602F04AFF216EC90600D420B1206E1A
:10134000012640F01000E0E0206E20F4807040F0B4
:101350000200206620688168754D11F0010F1ED1D2
:10136000744B754A984201D0904207D199689768AA
:1013700001F0010107F00107394302E0A96801F01B
:10138000010161B9984201D0904201D16B4800E05F
:101390006B488268616822F47C120A43826021688B
:1013A000A9421FD1637ED4E90207E26B5B033A4393
:1013B000082805D00C280FD01C280FD018280FD0D3
:1013C0005FF0000000F00C0794F8200043EA4703A8
:1013D0001A4342EA00400FE00420F3E70820F1E757
:1013E0001C20EFE7627E94F82030A768E06B520380
:1013F00042EA03423843104394F82020012A04D1E2
:10140000A28C504B03EB42421043A26A2AB1E36A1A
:1014100002F47872024343EA0200CA68A9420BD17F
:10142000494B1A400243CA602068626B016921F08F
:1014300040611143016103E0444B1A400243CA601A
:10144000206802F0C2FE0746206802F0BAFE074399
:101450004ED12068A946484506D1217E94F838200F
:10146000890341EA420103E0227E216B41EA823195
:10147000C26844F203039A430A43C26094F84400EA
:101480000128206803D0016921F0010122E04845CC
:101490000ED1D4E9121CD4E9143502692C4F41EA6B
:1014A0000C012B433A401943114341F0010111E073
:1014B000D4E91317B4F848C0DFF89880636D026967
:1014C00008EB0C4C224D394343EA0C036D1E2A40B5
:1014D0001943114301612068236C026922F07042B4
:1014E0001A4302612068484502D02046FEF7C2FF39
:1014F0002069012820680BD0016B21F00F010163E6
:10150000206E20F0020040F0010020663046DBE64D
:10151000E269016B521E21F00F011143EFE7000059
:10152000C0FFFF5FC0FFFF7F400D030014000024D9
:1015300000600258002002400021024000230240C7
:10154000006302580000FEFF0740F0FF03C0F0FFF9
:101550001FF800FC0100FFFFF0B5B5B006461421EE
:101560002EA8FEF723FFB8216846FEF71FFF31497A
:10157000306888425BD1022000224FF400210091A4
:10158000CDE901201024154606AACDE90340C02369
:10159000059082E8290068460995289501F0C8FC65
:1015A00008B1FFF7D0FA2448016841F0200101603A
:1015B000006800F0200033901F480830016841F0B7
:1015C00001010160016801F001013391016841F0FE
:1015D00004010160006803272EA9309500F0040083
:1015E00033902020CDE92E07144800F077FF1448EF
:1015F0002EA9CDE92E47309500F070FF114C09213E
:1016000011484FF4807C021584E82300D700C4E918
:101610000352C3142046C4E907C56562C4E905370F
:1016200000F01EFC08B1FFF78EFAB465A66335B072
:10163000F0BD000000200240D844025800000258CB
:10164000000802588C000024100002402DE9F047E9
:10165000404E044600689146DFF8FC808A46B0425E
:1016600001D0404501D13D4900E03D49896801F084
:101670001F0502F0AAFD00286AD194F85C00012839
:1016800066D001204FF0000784F85C0025B1052DDD
:1016900002D0092D00D003E02046FEF7DBFF18B191
:1016A00084F85C70BDE8F087216E40F60163206825
:1016B0009943404541F48071216600D00646864238
:1016C00000D01DB9206E20F480102066206EC0046A
:1016D00004D5606E20F00600606600E067661C209E
:1016E000A26D214B1F49D363A36D204A1A64A36DD9
:1016F0001F4ADA642268106084F85C7020684268CF
:1017000042F010024260206888420DD194F83810EF
:10171000C26822F0030242EA4102C2602068C16846
:1017200041F00101C16005E0C268216B22F00302B3
:101730000A43C26021684B46A06D5246403100F01A
:101740006DFD21680B4B8A681A40121D8A60A9E75B
:101750000220A7E7002002400021024000230240AF
:10176000006302580060025859050008DB050008B4
:10177000C1050008C0FFFF7F2DE9FC5F0446F74E5E
:101780000020DFF8D88300904FF41652F44808F197
:101790001808A56DDFF8C493DFF8C0A3016809F14C
:1017A000300920680AF1480AB1FBF2F1B042019118
:1017B0002F68D5F800C0DFF8ACB335D04146884279
:1017C00032D0484530D050452ED058452CD0E54930
:1017D0001831884228D0E3493031884224D0E14989
:1017E0004831884220D0E04988421DD0DE49183176
:1017F000884219D0DC493031884215D0DA49483165
:10180000884211D0DFF860E30EF1600E70450BD016
:10181000D54A7832904207D0D34B9033984203D0C8
:10182000D149A83188427DD194F85C20082102F08A
:101830001F0201FA02F23A424AD0B04232D0404589
:1018400030D048452ED050452CD058452AD0C54AD6
:101850001832904226D0C34A3032904222D0C14A38
:10186000483290421ED0C04A90421BD0BE4A183225
:10187000904217D0BC4A3032904213D0BA4A483214
:1018800090420FD0B84A603290420BD0B64A7832BC
:10189000904207D0B44A9032904203D0B24AA83264
:1018A000904203D1026802F0040202E0026802F0F2
:1018B00008026AB1026822F00402026094F85C0037
:1018C00000F01F008140A960606D40F0010060657C
:1018D00094F85C00012100F01F008140394240D0A3
:1018E0002068B04234D0404532D0484530D05045D1
:1018F0002ED058452CD09B4A1832904228D0994A75
:101900003032904224D0974A4832904220D0964AB2
:1019100090421DD0944A1832904219D0924A3032E7
:10192000904200E0AFE113D08F4A483290420FD08E
:101930008D4A603290420BD08B4A7832904207D069
:10194000894A9032904203D0874AA83290427DD192
:10195000406910F0800F04D0A960606D40F0020073
:10196000606594F85C00042100F01F00814039425A
:101970003ED02068B04232D0404530D048452ED0CD
:1019800050452CD058452AD0764A1832904226D05D
:10199000744A3032904222D0724A483290421ED06D
:1019A000714A90421BD0704A1832904217D06E4A4A
:1019B0003032904213D06C4A483290420FD06A4A7B
:1019C000603290420BD0684A7832904207D0664A23
:1019D0009032904203D0644AA83290424ED10068BF
:1019E00010F0020F04D0A960606D40F00400606543
:1019F00094F85C00102100F01F008140394258D05B
:101A00002068B04234D0404532D0484530D05045AF
:101A10002ED058452CD0534A1832904228D0514AE3
:101A20003032904224D04F4A4832904220D04E4A21
:101A300090421DD04C4A1832904219D04A4A303256
:101A4000904215D0484A4832904200E014E00FD04E
:101A5000454A603290420BD0434A7832904207D0D8
:101A6000414A9032904203D03F4AA832904207D177
:101A7000006800F0080006E0006872E70068B7E759
:101A8000006800F00400A0B1A96020680168490363
:101A900004D50068000308D5A16C07E00168C905FA
:101AA00003D4016821F008010160216C09B12046CE
:101AB000884794F85C00202100F01F0081403942E3
:101AC00079D02068B04232D0404530D048452ED041
:101AD00050452CD058452AD0224A1832904226D060
:101AE000204A3032904222D01E4A483290421ED0C4
:101AF0001D4A90421BD01C4A1832904217D01A4AF5
:101B00003032904213D0184A483290420FD0164AD1
:101B1000603290420BD0144A7832904207D0124A79
:101B20009032904203D0104AA832904203D100680C
:101B300000F0100002E0006800F00200B0B3A960FD
:101B400094F835000428206801680FD049037ED539
:101B5000006800032BD4616C2AE0000010000240F2
:101B600014000024700002401004024021F016010D
:101B700001602068416921F080014161206C08B951
:101B8000A06C20B12068016821F00801016094F880
:101B90005C303F21012003F01F0300229940A9601F
:101BA00084F8350084F83420216D65E003E0E16BB2
:101BB00009B120468847606D00287DD0606DC00760
:101BC00059D02068042184F83510B0422BD040450C
:101BD00029D0484527D0504525D0584523D09D4988
:101BE000884220D09B49183188421CD09949303115
:101BF000884218D09849884215D0974918318842B0
:101C000011D09549303188420DD0934948318842EE
:101C100009D091496031884205D08F497831884296
:101C200001D08D499031016821F0010101602068E7
:101C30000099019A491C0091914202D80168C90794
:101C4000F6D10068C00710D003200FE0FFE701685D
:101C5000C905ACD403680121002223F010030360FE
:101C600084F8351084F83420A1E7012084F8350089
:101C7000002084F83400E16C00291DD002B0204619
:101C8000BDE8F05F0847754988421DD0734914319B
:101C9000884219D071492831884215D06F493C31AA
:101CA000884211D06D49503188420DD06B49643162
:101CB000884209D0694900E084E07831884203D045
:101CC00066498C3188427DD194F85C800427016894
:101CD00008F01F0807FA08F717EA0C0F009746D01C
:101CE0004F0744D500980F04686003D5C8033CD45F
:101CF000A16CC1E7880638D42068B0422DD0554980
:101D00006039884229D0484527D0504525D05845CC
:101D100023D05049884220D04E49183188421CD0E7
:101D20004C493031884218D04B49884215D04A4935
:101D30001831884211D04849303188420DD0464987
:101D40004831884209D0704507D0904205D098426A
:101D500003D04149A831884203D1016821F008012C
:101D600002E0016821F004010160216C84E7022790
:101D700007FA08F717EA0C0F00974ED08F074CD5DB
:101D800000980F04686003D5C80344D4616C73E7FE
:101D9000880640D42068B0422FD02E49603988424E
:101DA0002BD0484529D0504527D0584525D0294922
:101DB000884222D02749183188421ED02549303127
:101DC000884200E044E018D02349884215D02249D7
:101DD0001831884211D02049303188420DD01E4937
:101DE0004831884209D0704507D0904205D09842CA
:101DF00003D01949A831884203D1016821F01401A8
:101E000002E0016821F00A010160012184F8351027
:101E1000002084F83400E16B2EE7082202FA08F271
:101E200012EA0C0F14D0090712D5016821F00E0137
:101E3000016094F85C100120002201F01F0100FAFB
:101E400001F16960606584F8350084F8342012E798
:101E5000BDE8FC9F8800024010040240085402586C
:101E60002DE9F05F044600F047FC002C07467DD0CA
:101E7000E24E022120684FF00308DFF884934FF010
:101E80000005DFF880A3B042DFF87CB334D0DB4A32
:101E90001832904230D048452ED050452CD058456D
:101EA0002AD0D94A1832904226D0D74A30329042AE
:101EB00022D0D54A483290421ED0D44A90421BD0FC
:101EC000D24A1832904217D0D04A3032904213D0C2
:101ED000CE4A483290420FD0CC4A603290420BD06A
:101EE000CA4A7832904207D0C84A9032904203D012
:101EF000C64AA83290427DD184F83510B04284F8A9
:101F000034502ED0BD49183188422AD0484528D0B7
:101F1000504526D0584524D0BB491831884220D09E
:101F2000B949303188421CD0B7494831884218D06D
:101F3000B649884215D0B5491831884211D0B34905
:101F4000303188420DD0B1494831884209D0AF497B
:101F50006031884205D0AD497831884201D0AB4923
:101F60009031016821F00101016008E025E100BF26
:101F700000F0C2FBC01B052801D920211AE120680E
:101F80000068C007F4D1D4E9020321681034184373
:101F90008E4694E88410D4E9033809683A43104324
:101FA0009B4A40EA0C00676918431140103C40EA24
:101FB0000800042F40EA010003D1D4E90B121143B9
:101FC00008436168A1F12902052A0BD9163A032AB0
:101FD00008D9083A012A05D9083A032A02D97439DE
:101FE000032901D840F48010CEF800002068676A09
:101FF000406900E020E0042F20F0070047EA0007D6
:102000000DD1D4E90A01074349B12046FEF760FC2F
:1020100028B140206065012184F83510CDE02068AA
:1020200047612046FEF772FB94F85C203F2102F0E6
:102030001F029140816055E0764A90421BD0754B5B
:102040001433984217D0734B2833984213D0714BF6
:102050003C3398420FD06F4B503398420BD06D4BAE
:102060006433984207D06B4B7833984203D0694B66
:102070008C3398427ED184F8351084F83450664B06
:102080000168A26801EA030E402A74D0802A73D046
:102090005FF00002D4E90378D4E9053142EAD702BF
:1020A00042EAD8085B4AD4E9077C48EAD30848EA00
:1020B000D10141EAD701524241EA1C11142341EAFD
:1020C0000E01016020681044B0FBF3F08000E06571
:1020D0002046FEF71BFB94F85C20012102F01F0252
:1020E000914041602068B04257D04449183188423D
:1020F00053D0484551D050454FD058454DD0424916
:102100001831884249D040493031884245D03E4953
:102110004831884241D03D4988423ED03B49183140
:1021200088423AD039493031884236D0374948312F
:10213000884232D03549603188422ED033497831D7
:1021400088422AD031499031884226D02F49A8317F
:10215000884222D02F4988421FD02E49143188420C
:102160001BD02C492831884217D02A493C3188425B
:1021700013D002E01DE017E018E0264950318842F4
:102180000BD024496431884207D0224978318842F3
:1021900003D020498C31884229D12046FEF710FB1C
:1021A000A06880280CD00CE0102273E74FF4804226
:1021B00070E74021616584F835800120BDE8F09F1B
:1021C0006560216E20790860D4E91901416060687A
:1021D000401E072808D82046FEF740FBE06E056049
:1021E000D4E91C01416002E0E566256765670120CE
:1021F000656584F835000020E0E70000100002402B
:1022000040000240580002407000024010040240AA
:102210003F8010FE085402580F00FEFF2DE9F84FD2
:1022200004008C464FF00000009014D094F8340065
:10223000012812D094F835500120002184F8340090
:10224000012D0CD0C00260650120009084F834108C
:102250000098BDE8F88F0120FBE70220F9E78C4DDC
:102260000226206884F83560A8428A4D61658A4E4E
:102270008A4FDFF82C82DFF82C92DFF82CA2DFF8EF
:102280002CB226D0A84224D0B04222D0B84220D0CE
:1022900040451ED048451CD050451AD0584518D04E
:1022A0008349884215D082491831884211D080492B
:1022B000303188420DD07E494831884209D07C496E
:1022C0006031884205D07A497831884201D0784916
:1022D0009031016821F00101016061462046FEF75E
:1022E00021FB6B49206888422CD0A8422AD0B042FA
:1022F00028D0B84226D0404524D0484522D0504569
:1023000020D058451ED06A4A90421BD0684A1832E5
:10231000904217D0664A3032904213D0644A483215
:1023200090420FD0624A603290420BD0604A7832BD
:10233000904207D05E4A9032904203D05C4AA83265
:1023400090420CD1026822F01E0242F01602026096
:10235000206C88B12068026842F008020BE0026835
:1023600022F00E0242F00A020260206C20B12068C6
:10237000026842F004020260206888424BD0A84202
:1023800049D0B04247D0B84245D0404543D04845F7
:1023900041D050453FD058453DD0454A90423AD073
:1023A000434A1832904236D0414A3032904232D0BD
:1023B0003F4A483290422ED03D4A603290422AD065
:1023C0003B4A7832904226D0394A9032904222D00D
:1023D000374AA83290421ED0364A90421BD0354A26
:1023E0001432904217D0334A2832904213D0314AE7
:1023F0003C3290420FD02F4A503290420BD02D4A9F
:102400006432904207D02B4A7832904203D0294A56
:102410008C3290420DD1206E0268D20303D502683F
:1024200042F480720260E06E18B1026842F4807279
:1024300002602068884226D0A84224D0B04222D030
:10244000B84220D040451ED048451CD050451AD037
:10245000584518D01649884215D015491831884278
:1024600011D01349303188420DD01149483188428A
:1024700009D00F496031884205D00D497831884232
:1024800001D00B499031016841F001010160DFE6A4
:102490001000024028000240400002405800024064
:1024A0007000024088000240A0000240B8000240D4
:1024B000100402400854025870B5044600F01CF99C
:1024C0000546601C02D004480078044400F014F96A
:1024D000401BA042FAD370BD080000242DE9F84F3C
:1024E00003247A4D00234FF001094FF0B04B4FF019
:1024F0000F0AE4E009FA03F6324078D00F7907F0CA
:102500000307012F01D0022F1AD187684FEA430E2B
:10251000D1F80CC004FA0EF827EA08070CFA0EFCF2
:102520004CEA070CC0F808C0476891F804C0B743EC
:10253000CCF3001C0CFA03FC4CEA070CC0F804C0F6
:102540000E79F643B6070BD0C6684FEA43088F688A
:1025500004FA08FC26EA0C0607FA08F73743C760B6
:102560000E7906F00306022E12D1DE080F694FEA3B
:10257000437C00EB8606B646366A4FEADC6C0AFA04
:102580000CF807FA0CF726EA08063743CEF8207055
:102590000F7906684FEA430807F0030704FA08FCBE
:1025A00007FA08F726EA0C06374307604E6816F468
:1025B000403F1CD0464E376847F002073760366808
:1025C0009F0706F00206009623F0030606F1B046C8
:1025D000B6463F0FD6F80864DFF8F8800AFA07FC21
:1025E000404526EA0C0603D14FF0000C3AE065E0C6
:1025F000DFF8E4C0604502D14FF0010C32E0DFF8B3
:10260000DCC0604502D14FF0020C2BE0DFF8D0C0F7
:10261000604502D14FF0030C24E0DFF8C8C06045EC
:1026200002D14FF0040C1DE0DFF8BCC0604502D1C0
:102630004FF0050C16E0DFF8B4C0604502D14FF052
:10264000060C0FE0DFF8A8C0604502D14FF0070C80
:1026500008E0DFF8A0C0604502D14FF0090C01E0AE
:102660004FF00A0C0CFA07FC4CEA060CCEF808C432
:102670004F68DBF80060FF0226EA020600D5164329
:102680005F46CBF80060D1F804C0DBF804605FEA75
:102690008C2C26EA020600D516437E606E684F68D1
:1026A00026EA0206BF0300D516436E602E684F6807
:1026B00026EA0206FF0300D516432E605B1C0A685B
:1026C00032FA03F67FF416AFBDE8F88F80000058A9
:1026D000F44402580000025800040258000802584E
:1026E000000C02580010025800140258001802583A
:1026F000001C0258002402580148806870470000FE
:102700000800002402488168027811448160704703
:1027100008000024032010B500F086F801F008FA44
:102720000F4A104914681368C4F3032203F00F031F
:102730008A5CC95C02F01F0201F01F01D0400A4A06
:1027400020FA01F11160094908600F2000F010F82B
:1027500008B1012010BD00F02BF8002010BD0000D2
:10276000184402588247000818000024140000246E
:1027700070B50D4D04462878A0B14FF47A71B1FBC5
:10278000F0F00A490968B1FBF0F001F000FD48B92A
:10279000102C07D200222146501E00F025F8002000
:1027A0006C6070BD012070BD08000024140000247E
:1027B000054808B5016841F002010160006800F0B9
:1027C0000200009008BD0000F4440258002809DB14
:1027D000410900F01F028900012001F1E021904031
:1027E000C1F80001704700000E4BF0B41B680D46A5
:1027F000C3F30223C3F10706042E00D90426191DD2
:10280000072901D2002300E0DB1E012404FA06F1AF
:102810009C40491E2940641E994014402143F0BC4D
:1028200001F05DBF0CED00E0064900F0070210B5B5
:102830004FF6FF040868044B204040EA022018438A
:10284000086010BD0CED00E00000FA05134970B5FA
:102850000A68D243520705D5096801F00701814291
:1028600013D118E00A6822F0070202430A60FFF75A
:1028700043FF0A4D4FF47A760446083D07E000BF57
:10288000FFF73AFF001BB04201D9012070BD286854
:10289000C0438004F4D4002070BD00000C480258EE
:1028A00010B501F011F905490968054AC1F3021193
:1028B000515C01F01F01C84010BD000020440258C7
:1028C000824700084A4930B5494C0B1D0A680C3450
:1028D00009681D68246802F0030305F00102C1F3D2
:1028E0000511C4F3CC04002914FB02F200EE102AF7
:1028F000F8EE400A76D0414A9FED3E1ADFED3E1ACF
:10290000B7EE000A23B1012B5AD0022B18D15CE09C
:10291000374C283C23689B0612D5394B246801EEBE
:10292000901A1168C4F3C104F8EE612AE34001EE85
:10293000903AC1F30801F8EE611A81EEA22A07E08D
:1029400002EE101A1168F8EE422A81EEA22A45E042
:1029500001EE901A1168F8EE611A40EE811A71EEDC
:10296000800A62EE200AC1F3462101EE101AB8EE89
:10297000411A31EE001AC0EE811ABCEEE11A80ED68
:10298000001A1168C1F3064101EE101AB8EE411A9F
:1029900031EE001AC0EE811ABCEEE11A80ED011A88
:1029A0001168C1F3066101EE101AB8EE411A31EE5A
:1029B000000A80EE801ABCEEC10A80ED020A30BD2A
:1029C00001EE901ADFED0F2A03E001EE901ADFED21
:1029D0000E2A1168F8EE611A82EEA12AC1F30801ED
:1029E000B6E7FFE7002101604160816030BD000073
:1029F00028440258000000390024744C3044025826
:102A00000090D0030024744A001BB74B494930B5ED
:102A1000484C0B1D0A68143409681D68246802F0CC
:102A20000303C5F30012C1F30531C4F3CC0400293C
:102A300014FB02F200EE102AF8EE400A75D03F4A6D
:102A40009FED3D1AB7EE000A6BB1DFED3D1A012B89
:102A500001D0022B64D002EE101A1168F8EE422A5F
:102A600081EEA22A21E0334C283C23689B0612D534
:102A7000344B246801EE901A1168C4F3C104F8EED7
:102A8000612AE34001EE903AC1F30801F8EE611AC1
:102A900081EEA22A0BE001EE901ADFED2B2A00BF97
:102AA000F8EE611A116882EEA12AC1F3080101EE65
:102AB000901A1168F8EE611A40EE811A71EE800AE0
:102AC00062EE200AC1F3462101EE101AB8EE411A57
:102AD00031EE001AC0EE811ABCEEE11A80ED001A48
:102AE0001168C1F3064101EE101AB8EE411A31EE39
:102AF000001AC0EE811ABCEEE11A80ED011A1168CD
:102B0000C1F3066101EE101AB8EE411A31EE000A67
:102B100080EE801ABCEEC10A80ED020A30BD04E0EE
:102B200001EE901ADFED092ABAE700210160416049
:102B30008160F3E728440258000000393844025805
:102B40000024744A0090D0030024744C001BB74B3F
:102B5000494930B5484C0B1D0A681C3409681D688A
:102B6000246802F00303C5F30022C1F30551C4F346
:102B7000CC04002914FB02F200EE102AF8EE400A01
:102B800075D03F4A9FED3D1AB7EE000A6BB1DFEDFD
:102B90003D1A012B01D0022B64D002EE101A1168ED
:102BA000F8EE422A81EEA22A21E0334C283C236829
:102BB0009B0612D5344B246801EE901A1168C4F3B9
:102BC000C104F8EE612AE34001EE903AC1F3080136
:102BD000F8EE611A81EEA22A0BE001EE901ADFED09
:102BE0002B2A00BFF8EE611A116882EEA12AC1F308
:102BF000080101EE901A1168F8EE611A40EE811A90
:102C000071EE800A62EE200AC1F3462101EE101A2D
:102C1000B8EE411A31EE001AC0EE811ABCEEE11A8C
:102C200080ED001A1168C1F3064101EE101AB8EEEA
:102C3000411A31EE001AC0EE811ABCEEE11A80EDA5
:102C4000011A1168C1F3066101EE101AB8EE411ABB
:102C500031EE000A80EE801ABCEEC10A80ED020A55
:102C600030BD04E001EE901ADFED092ABAE7002139
:102C7000016041608160F3E7284402580000003998
:102C8000404402580024744A0090D0030024744C3D
:102C9000001BB74B2DE9F04FA14A0546DFF87CA297
:102CA00080F48070DFF8809289B013119F4C084344
:102CB0009C48AAF104064FF0805C4FF0005828D0E1
:102CC000DFF858B285F480670F430BF1080B4FD043
:102CD00085F400670F4360D085F480570F4372D0AE
:102CE00085F400570F434FF480394FF4003E69D00C
:102CF00085F400270F4373D085F480370F4370D0DD
:102D000085F480460E436DD085F400420A436AD0B4
:102D10002AE0DAF8001001F00701052924D2DFE8E3
:102D200001F0F9AA6A259F0006A8FFF7CBFD0798D6
:102D300009B0BDE8F08F6846FFF768FE0098F7E736
:102D400003A8FFF705FF0398F2E72068C0F3C1006E
:102D500022FA00F0ECE72268D2056ED561456CD10D
:102D60001846E5E74145E3D00020E1E74846DFE7C4
:102D7000DBF8001001F46001B1F5800F3BD005DCF9
:102D800000294AD0B1F5001FEED174E0B1F5C00FB3
:102D9000ECD0B1F5000FE7D162E0DBF8001001F0F4
:102DA000E061B1F1007F26D004DCB1B3B1F1807FE6
:102DB000DAD160E0B1F1407FD8D0B1F1806FD3D1EA
:102DC0004EE000E01BE0DAF8001001F4E041B1F55C
:102DD000005F10D008DC01B3B1F5805FC4D14AE0D8
:102DE00035E058E065E088E0B1F5405FBED0B1F570
:102DF000804FB9D134E020688000B5D5A0E7DAF87B
:102E0000001001F4E021B1F5403F6DD006DC61B166
:102E100049457BD07145A7D158E07BE0B1F5802FC3
:102E200066D0B1F5A02F9FD10DE000F06FFE7FE7D7
:102E30006846FFF7EBFD01987AE728E003A8FFF763
:102E400087FE049874E7216889038AD48CE7DBF84D
:102E5000001011F440310ED0494510D0714583D196
:102E60003168256801F040516D077FF574AF002986
:102E70007FF471AF69E720680001E7D55BE7206860
:102E80008000E3D503A8FFF763FE059850E72268AA
:102E90009203DBD566E7306810F480303AD04845BD
:102EA000D4D120680001D1D56846FFF7AFFD029864
:102EB0003EE7DBF8001001F0E041B1F1405F13D0D4
:102EC00008DC71B1614521D04145BFD12068800047
:102ED000B4D449E7B1F1804F0AD0B1F1A04FB2D0DC
:102EE00042E7FFF7DDFC23E720684007AED52CE77B
:102EF0002068C005AAD533E708E0DAF8001011F021
:102F00004051A0D0614505D041459FD120680001C6
:102F10008ED429E72068800198D505E750440258EF
:102F20000090D00300366E010080BB0000440258C0
:102F30002DE9FE4F0546DFF800A450F8081B0024D9
:102F4000FD4FC943019005F1280026460AF1240AE5
:102F5000009008011DD4686E50B1B0F5801F0CD0F0
:102F6000B0F5001F0ED0B0F5401F1ED001240FE0B9
:102F7000386840F40030386017E00198022101F011
:102F8000DFF903E00098022101F06AFA04000CD096
:102F900026462888C043C00523D4A86D05281ED224
:102FA000DFE800F00C11161B1B006A6EDAF8001047
:102FB00021F440111143CAF80010EAE7386840F4E0
:102FC0000030386009E00198002101F0B9F903E010
:102FD0000098002101F044FA0446C4B100E0012445
:102FE00026462888DFF85083C04308F12C084005A6
:102FF0002FD4D5F8A400B0F5C00F28D010DCB8B19C
:10300000B0F5001F19D0B0F5800F0FD11AE0AA6DEE
:10301000DAF8001021F007011143CAF80010E0E7C8
:10302000B0F5000F13D0B0F5200F10D001240FE041
:10303000386840F40030386009E00198002101F060
:103040007FF903E00098002101F00AFA044694B1E8
:1030500026462888C043000530D4D5F8A800B0F132
:10306000407F29D011DCC0B1B0F1807F1AD0B0F11F
:10307000007F10D11BE0D5F8A420D8F8001021F46F
:1030800060011143C8F80010E3E7B0F1806F13D07E
:10309000B0F1A06F10D001240FE0386840F4003088
:1030A000386009E00198002101F04AF903E0009836
:1030B000002101F0D5F9044694B126462868DFF8CE
:1030C00078B2C0430BF1200B80011FD4E86CD8B15B
:1030D00010280FD0202812D0302815D0012414E059
:1030E000D5F8A820D8F8001021F0E0611143C8F805
:1030F0000010E3E7386840F40030386004E00198DD
:10310000022101F01DF9044674B126462888C04307
:10311000C0042BD4E86DB0F5005F20D00DDCA0B169
:10312000B0F5805F0FD115E0EA6CDBF8001021F0FC
:1031300030011143CBF80010E8E7B0F5405F13D041
:10314000B0F5804F10D001240FE0386840F4003013
:10315000386009E00198002101F0F2F803E00098DE
:10316000002101F07DF904468CB126462888C04331
:10317000800429D4286EB0F5403F23D010DC08B37A
:10318000B0F5803F14D0B0F5003F0FD115E0EA6DE7
:10319000DAF8001021F4E0411143CAF80010E5E725
:1031A000B0F5802F0ED0B0F5A02F0BD001240AE08F
:1031B0000198012101F0C4F803E00098012101F019
:1031C0004FF9044694B126462888C04340042AD4C7
:1031D000D5F8AC00B0F1405F23D010DC08B3B0F1FB
:1031E000805F14D0B0F1005F0FD115E02A6EDAF8DD
:1031F000001021F4E0211143CAF80010E4E7B0F117
:10320000804F0ED0B0F1A04F0BD001240AE00198FE
:10321000012101F095F803E00098012101F020F967
:10322000044674B126462888C04300041FD4E86EC3
:10323000D8B1B0F1805F0ED0B0F1005F10D00124A2
:1032400014E0D5F8AC20D8F8001021F0E04111438B
:10325000C8F80010E7E7386840F40030386004E050
:103260000198012101F06CF8044674B126462868E3
:10327000C043C0011ED4A86CD0B101280ED00228D2
:1032800011D0032814D0012413E0EA6EDAF80010FC
:1032900021F040511143CAF80010E8E7386840F4C3
:1032A0000030386004E00198022101F049F804463A
:1032B0006CB126462868C043400255D41F480168B7
:1032C00041F480710160FFF717FA81460EE0AA6CA5
:1032D000DBF8001021F003011143CBF80010E9E7FF
:1032E000FFF70AFAA0EB090064283BD813480068EE
:1032F000C005F5D5BCBBDFF84090B5F8B01009F1BA
:103300004409D9F8000001F4407100F4407088428B
:1033100011D0D9F80010D9F8002021F4407142F4FE
:103320008032C9F80020D9F8002022F48032C9F890
:103330000020C9F8001003E02C440258004802584D
:10334000D5F8B000B0F5807F19D1FFF7D5F902901C
:1033500011E000BFFFF7D0F90299411A41F288301D
:10336000814208D9032426462878DFF81494C04304
:10337000C00721D03CE0D9F800008007EAD5D5F895
:10338000B010C1F301200328FE480DD0016821F4DC
:103390007C510160B5F8B020D9F80010C2F30B02DF
:1033A0001143C9F80010DFE7F74A036802EA111277
:1033B00023F47C511143ECE7A86F182816D005DCE4
:1033C000A0B1082808D0102804D10AE020280DD088
:1033D00028280BD001240AE00198012100F0B0FF59
:1033E00003E00098012101F03BF8044664B1264651
:1033F0002878C04380071ED4686F062819D2DFE8FA
:1034000000F0160C11161616AA6FD9F8001021F04C
:1034100038011143C9F80010EAE70198012100F0D2
:103420008FFF03E00098012101F01AF804467CB1F7
:1034300000E0012426462878C04340071FD4D5F871
:103440009000062819D2DFE800F0160C11161616A7
:103450006A6FD9F8001021F007011143C9F8001074
:10346000E9E70198012100F06BFF03E000980121DA
:1034700000F0F6FF0446A4B100E0012426462878B7
:10348000C04380062BD4D5F88C00B0F1405F24D027
:1034900011DC10B3B0F1805F15D0B0F1005F10D136
:1034A00016E0D5F89020D8F8001021F0070111435C
:1034B000C8F80010E3E7B0F1804F0ED0B0F1A04F94
:1034C0000BD001240AE00198002100F039FF03E04D
:1034D0000098022100F0C4FF044694B126462878E3
:1034E000C04340062BD4D5F89800B0F5406F24D0E7
:1034F00011DC10B3B0F5806F15D0B0F5006F10D1AE
:1035000016E0D5F88C20D9F8001021F0E0411143E5
:10351000C9F80010E3E7B0F5805F0ED0B0F5A05F0A
:103520000BD001240AE00198002100F009FF03E01C
:103530000098022100F094FF044694B126462878B2
:10354000C04300062BD4D5F89C00B0F5C04F24D062
:1035500011DC10B3B0F5005F15D0B0F5804F10D17D
:1035600016E0D5F89820D8F8001021F4E051114366
:10357000C8F80010E3E7B0F5004F0ED0B0F5204FCB
:103580000BD001240AE00198002100F0D9FE03E0ED
:103590000098022100F064FF044654B126462878C2
:1035A000C04300071ED4D5F88000B0F5805F0AD074
:1035B0000FE0D5F89C20D8F8001021F460411143A9
:1035C000C8F80010EBE70098022100F049FF00B1B5
:1035D0000126D5F88020D9F8001021F4405111437C
:1035E000C9F800102878C043C00613D4D5F8940059
:1035F000B0F5807F05D10098022100F031FF00B1C5
:103600000126D5F89420D8F8001021F44071114318
:10361000C8F800102868C043000316D4D5F8A000ED
:1036200038B1B0F5803F09D0B0F5003F0BD0012490
:103630000AE00198002100F083FE03E000980221D7
:1036400000F00EFF04468CB126462868C0434003B4
:1036500022D4D5F88400B0F5801F11D0B0F5001F3A
:1036600013D0B0F5401F15D0012414E0D5F8A020E8
:10367000D8F8001021F440311143C8F80010E4E7F5
:10368000386840F40030386004E00098012100F010
:10369000E7FE04465CB126462868C043C0031CD43C
:1036A000286D70B1B0F5803F10D0012414E0D5F83A
:1036B0008420D9F8001021F440111143C9F80010FA
:1036C000EAE7386840F40030386004E001980221ED
:1036D00000F036FE0446DCB126462868C043800070
:1036E00005D40098022100F0BBFE00B10126286835
:1036F000C04380031BD4E86FB8B1B0F5807F10D011
:10370000B0F5007F11D0B0F5407F0ED001240DE060
:103710002A6DDBF8001021F480311143CBF8001042
:10372000DBE7386840F4003038607CB32646286810
:10373000C043C00207D42A6FDAF8001021F000411C
:103740001143CAF800102868C043800207D4AA6E4B
:10375000DAF8001021F080711143CAF800102868CF
:10376000C043400009D40748016821F400410160CA
:103770000168D5F8B420114301602868C04306E011
:103780005444025810440258CFFFFF001DE007D4F4
:103790006A6DDBF8001021F040511143CBF80010A6
:1037A0002868C043000208D4D5F88820D9F8001052
:1037B00021F440011143C9F8001028790024C043C6
:1037C00000F00100204309D00EE0EA6FD9F80010A4
:1037D00021F440711143C9F80010A8E701980021B5
:1037E00000F0AEFD00B106462879C04300F00200AB
:1037F000204305D10198012100F0A2FD00B1064649
:103800002879C04300F00400204305D1019802212B
:1038100000F096FD00B106462879C04300F008008C
:10382000204305D10098002100F01AFE00B10646A1
:103830002879C04300F01000204305D100980121F1
:1038400000F00EFE00B106462879C04300F02000CB
:10385000044304D10098022100F002FE00B916B121
:103860000120BDE8FE8F0020FBE700002DE9F05F9E
:1038700004000F467ED0DFF83882D8F8000000F050
:103880000F00B8420CD2D8F8001021F00F013943D4
:10389000C8F80010D8F8000000F00F00B84269D155
:1038A0002078844D40070AD52069296801F070010D
:1038B000884204D9296821F07001014329602078E9
:1038C0007C4E361D00070AD56069316801F0700131
:1038D000884204D9316821F07001014331602078B9
:1038E000C0060AD5A069316801F4E061884204D9B4
:1038F000316821F4E061014331602078DFF8B4B130
:1039000080060BF1080B0CD5E1695846DBF8002066
:1039100002F07002914204D9026822F070020A4358
:103920000260207880070AD5E068296801F00F015D
:10393000884204D9296821F00F01014329602078C9
:10394000C0073ED05B49A2682868183920F470602F
:10395000104328606068022818D0032819D009682D
:10396000012819D0490700294ADADFF848A1AAF14D
:10397000080A00E044E0DAF8002022F007020243DF
:10398000CAF80020FEF7B8FE814612E009688903F4
:10399000E9E709688901E6E7C905E4E7FEF7ACFE57
:1039A000A0EB090141F28830814202D90320BDE831
:1039B000F09F6168DAF8000000F03800B0EBC10F4A
:1039C000ECD1207880070AD5E068296801F00F0162
:1039D000884204D2296821F00F0101432960D8F8F8
:1039E0000010404601F00F01B9420BD9016821F0E7
:1039F0000F0139430160006800F00F00B84201D0A8
:103A00000120D4E7207840070AD52069296801F011
:103A10007001884204D2296821F0700101432960B5
:103A2000207800070AD56069316801F0700188428A
:103A300004D2316821F07001014331602078C00662
:103A40000AD5A069316801F4E061884204D2316886
:103A500021F4E06101433160207880060CD5E169F2
:103A60005846DBF8002002F07002914204D202684E
:103A700022F070020A43026000F05AF80E492A68E8
:103A80002B68C2F3032203F00F038A5CC95C02F0C7
:103A90001F0201F01F01D040084A20FA01F1116015
:103AA0000749086007480068BDE8F05FFEF760BEA0
:103AB00000200052184402588247000818000024D1
:103AC000140000240C00002430B500F031F80B4A3B
:103AD0000B490C4B15681468C5F3032204F00F045E
:103AE0008A5C095D02F01F0201F01F01D040064A06
:103AF00020FA01F119601060084630BD18440258E0
:103B000082470008180000241400002400B5FFF7C5
:103B1000DBFF05490968054AC1F30211515C01F058
:103B20001F01C84000BD00001C4402588247000825
:103B3000454970B545480968434B103B11F03802C0
:103B400008D00111082A03D0102A0BD0182A0BD054
:103B5000084670BD19688906FBD51968C1F3C10113
:103B6000C84070BD3A4870BD3749374D18310C1DFB
:103B700024350A68096826682D6802F0030406F0F7
:103B80000102C1F30511C5F3CC0515FB02F200EEED
:103B9000102AB8EE400AE9B32F4ADFED2E0AB7EE3D
:103BA000001A6CB1DFED2D1A012C01D0022C43D08C
:103BB00002EE101A1068F8EE422A81EEA22A1EE0E8
:103BC0001C68A40611D51B6801EE901A1168C3F396
:103BD000C103F8EE612AD84001EE900AC1F3080053
:103BE000F8EE611A81EEA22A0BE001EE901ADFEDE9
:103BF0001C2A00BFF8EE611A106882EEA12AC0F3F9
:103C0000080001EE900AF8EE611A40EE201A31EE3B
:103C1000810A00E015E022EE000A1068C0F3462099
:103C2000401C00EE900AF8EE600A80EE201ABCEE0E
:103C3000C10A10EE100A70BD01EE901ADFED092ADC
:103C4000D8E7002070BD0000104402580090D00357
:103C500000366E0100000039304402580024744AD6
:103C60000024744C001BB74B2DE9F05F04007DD09D
:103C7000FF4F2078FE4D1837DFF8F483103DC00762
:103C800048D0D8F80000396800F03800102815D066
:103C9000182803D101F0030002280FD06068B0F5A6
:103CA000803F12D010B1B0F5A02F18D0286820F4B2
:103CB00080302860286820F4802009E0286880038C
:103CC00028D560680028D2D024E0286840F48030ED
:103CD0002860606888B1FEF70FFD064609E0286895
:103CE00040F480202860F0E7FEF706FD801B642882
:103CF0007ED828688003F7D50CE0FEF7FDFC064669
:103D000005E000BFFEF7F8FC801B6428F0D82868A7
:103D10008003F7D42078800756D5D8F80000DFF864
:103D20005093396810F03800A9F10C090ED018280A
:103D300001D188070AD0E068A8B3296821F01901E9
:103D400001432960FEF7D8FC064628E028684007B2
:103D500002D5E06800288AD0E168286820F01900C0
:103D600008432860FEF7C8FC064606E0D2E000BF24
:103D7000FEF7C2FC801B0228BAD828684007F7D596
:103D8000217CD9F8002022F0FE4242EA0161C9F804
:103D9000001019E0FEF7B0FC801B0228A8D82868A4
:103DA0004007F7D5ECE7FFE7286820F0010028601E
:103DB000FEF7A2FC064604E0FEF79EFC801B0228EC
:103DC00096D828684007F7D42078C00646D5D8F89A
:103DD0000000DFF89C92396800F03800A9F104096E
:103DE000082812D0182805D101F00300012800E0AE
:103DF000CEE00AD0E0690028286820D040F080009A
:103E00002860FEF779FC064615E02868C00502D553
:103E1000E06980287ED194F82010D9F8002022F0A3
:103E20007C5242EA0161C9F8001017E0FEF764FC19
:103E3000801B0228A0D82868C005F7D5EBE720F042
:103E400080002860FEF758FC064604E0FEF754FCAC
:103E5000801B022890D82868C005F7D42078000776
:103E600029D583486169643000298146016811D0F1
:103E700041F001010160FEF73FFC064605E000BF8E
:103E8000FEF73AFC801B022888D8D9F8000080078A
:103E9000F6D510E021F001010160FEF72DFC064689
:103EA00005E000BFFEF728FC801B022870D8D9F877
:103EB00000008007F6D42078800623D5A06900286A
:103EC000286810D040F480502860FEF715FC0646A4
:103ED00005E000BFFEF710FC801B022858D82868B8
:103EE0008004F7D50EE020F480502860FEF704FC33
:103EF000064604E0FEF700FC801B022848D828682C
:103F00008004F7D42078400751D5DFF86891D9F8BC
:103F1000001000E015E141F48071C9F80010FEF7CF
:103F2000EBFB064605E000BFFEF7E6FB801B6428BE
:103F30002ED8D9F80000C005F6D54D4EA0686036E1
:103F400001280AD008B1052813D0306820F00100FC
:103F50003060306820F0040002E0306840F001007A
:103F60003060A06841F2883A98B1FEF7C5FB8146FF
:103F70000AE0306840F004003060EEE7FEF7BCFB7A
:103F8000A0EB0901514503D830688007F6D50EE053
:103F900072E0FEF7B1FB814606E000BFFEF7ACFB26
:103FA000A0EB0901514567D830688007F6D4606AF4
:103FB00000287CD0DFF8B8A0D8F800100AF1200A59
:103FC0004FF6F87B0AF10408C1F3C2010329AAF1F4
:103FD00004096DD00228286820F08070286003D082
:103FE000FEF78AFB044681E0FEF786FB064604E006
:103FF000FEF782FB801B022875D828688001F7D461
:10400000E26A40F2F331386854F8283F884340EAC6
:10401000021018433860217B4FF4FE0C22894FF0C8
:10402000FE47208A4902267D521E401EA1F50071DE
:1040300089B2C2F308021143761E0CEA0040014324
:10404000484607EA06621143CAF80010D9F8001082
:1040500021F00101C9F80010D8F80030266A23EADF
:104060000B0343EAC601C8F80010D9F8001004E0B9
:10407000104402580048025835E0A26921F00C01B2
:104080001143C9F800100168E26921F002011143EF
:104090000160016841F480310160016841F4003140
:1040A0000160016841F480210160016801E06CE079
:1040B00020E041F001010160286840F08070286034
:1040C000FEF71AFB044604E0FEF716FB001B02286D
:1040D00009D828688001F7D557E000BFFEF70CFB30
:1040E000001B022802D90320BDE8F09F2868800148
:1040F000F4D44AE039680128DAF8000021D0A26A35
:1041000001F0030393421CD1E26AC1F305118A4214
:1041100017D1216BC0F30802491E8A4211D1616B8D
:10412000C0F34622491E91420BD1A16BC0F3064257
:10413000491E914205D1E16BC0F30660491E8142E0
:1041400001D00120D0E7A16C4646D8F80000C0F3AA
:10415000CC00814219D0D9F800004D4620F0010072
:10416000C9F80000FEF7C8FA4FEA0007FEF7C4FAE4
:10417000B842FBD0A26C306820EA0B0040EAC200D3
:104180003060286840F0010028600020ACE7401E45
:10419000B0F1807F10B501D3012010BD4FF0E024B5
:1041A00060610F21601700F09AFA0020A0610721DA
:1041B000216110BDFEE700EB8100006E00F0F840C9
:1041C00070478068C0F3C00070478068C0F380000B
:1041D00070478068C0F380007047C06810F4406F7B
:1041E00001D0002070470120704710B5042404EA74
:1041F000D1540723C1F3045120448B408A404169C4
:1042000099431143416110BD00EB8101034B51F80B
:10421000600F20F0004010430860704700600258B3
:1042200070B58CB000246846242109940A940B943C
:10423000FCF7BCF823480425214A4FF41013012150
:10424000022680E81C00C0E90415047603224176AA
:10425000C66180F820408462C0E90B42C4630464F4
:1042600080F84440FDF724F808B1FCF76CFC1548D1
:1042700009A90994FCF7B8FC08B1FCF764FC1248E2
:10428000062140F2FF7203928DE823000D48694633
:10429000CDE904548DF82140FCF73AFD08B1FCF754
:1042A00052FC0C210948CDE9000106486946FCF79B
:1042B0002FFD002801D0FCF746FC0CB070BD0000BB
:1042C000002002401C0000241000C0100000B84F65
:1042D000094808B5016841F0010101600068002249
:1042E000114600F0010000900B20FEF77DFABDE8BA
:1042F00008400B20FEF76ABAD84402580D4808B5AA
:10430000016841F080010160016801F080010091C5
:10431000016841F001010160016801F001010091B3
:10432000016841F004010160006800F004000090A1
:1043300008BD0000E0440258FEE7FEE770470000B9
:104340002DE9F047454D044689464FF0000A28689C
:10435000C04380070AD0414E283E306820F080607C
:104360003060FEF7C9F90746B04608E00120BDE815
:10437000F08700BFFEF7C0F9C01B022867D8D8F845
:1043800000000001F6D4206829684FF4FE0721F4EC
:104390007C313E0241EA00302860207AA389B4F8DB
:1043A00004C040022D4D2D495B1E227CACF1010C56
:1043B0001035091DA0F5007080B2521ECCF3080C18
:1043C00007EA034340EA0C00184306EA026210437E
:1043D00028600868626920F0C000104308600A681D
:1043E000A06922F0200202430A60281D0A6822F018
:1043F00010020A6002684FF6F873E4699A4342EAD1
:10440000C40202600868B9F1000F40F010020A60AF
:1044100011D00868B9F1010F11D040F40010086004
:10442000D8F80000444640F08060C8F80000FEF76D
:1044300063F905460DE0086840F40020EFE740F41A
:104440008010ECE7FEF758F9401B022801D9032041
:104450008DE720680001F5D5504688E728440258CA
:104460002DE9F047454D044689464FF0000A28687B
:10447000C04380070AD0414E283E306820F080506B
:104480003060FEF739F90746B04608E00120BDE884
:10449000F08700BFFEF730F9C01B022867D8D8F8B4
:1044A00000008000F6D4208829684FF4FE0721F030
:1044B0007C713E0241EA00502860207AA389B4F85A
:1044C00004C040022D4D2D495B1E227CACF1010C35
:1044D0001835091DA0F5007080B2521ECCF3080CEF
:1044E00007EA034340EA0C00184306EA026210435D
:1044F00028600868626920F44060104308600A6818
:10450000A06922F4007202430A60281D0A6822F49E
:1045100080720A6002684FF6F873E4699A4342EACF
:10452000C40202600868B9F1000F40F480720A60AA
:1045300011D00868B9F1010F11D040F08070086007
:10454000D8F80000444640F08050C8F80000FEF75C
:10455000D3F805460DE0086840F48000EFE740F42A
:104560000000ECE7FEF7C8F8401B022801D9032041
:104570008DE720688000F5D5504688E7284402582A
:104580007047FEF7BFB8000030B59DB04C216846BB
:10459000FBF70CFF202113A8FBF708FF0220FEF712
:1045A00055F91D48016821F440410160016800246B
:1045B00001F440411B9101688904FCD502200A9056
:1045C00028230990C20301210C25CDE90012CDE971
:1045D0000B03CDE90D10CDE910540F9068461294ED
:1045E000FFF742FB08B172B6FEE740201A9008239D
:1045F0000501CDE9163013ABCDE918053F210322A3
:1046000083E8160013A81146FFF730F9002801D0FF
:1046100072B6FEE71DB030BD184802582748F0B505
:10462000274A016841F470010160106800F00F0032
:10463000072804D2106820F00F00C01D1060214927
:104640000020204C10340B681F4D43F001030B6019
:1046500020600B682B400B60136803F00F03072BDF
:1046600004D9136823F00F03DB1D1360154C174AA0
:104670001834174B261D371D2060124C154D283459
:104680003060261D3860371D23603B1D35601C1DC2
:104690003A60251D2E1D1860331D2260286032608F
:1046A00018600A6843F2D204064B0B4D22F48022B4
:1046B00060330A6018602C60F0BD000088ED00E0F7
:1046C00000200052004402587FEDF6EA800201010A
:1046D000000202020000FF0100400052FEE709074D
:1046E00000284FEA116104DB00F1E02080F800149B
:1046F000704700F00F0000F1E02080F8141D7047B3
:104700002DED048BFEF706F8FFF73EFFFFF7F6FDF1
:10471000FFF7DEFDFFF784FD1148002140F2FF7234
:10472000FCF714FA0F4902220D48FCF78FFF0D4CDD
:104730009FED0D8ADFED0D8AB2EE069A25462088A0
:1047400000EE100A0120B8EE400A20EE080AC0EE82
:10475000280A20EE890A85ED010AFDF7ADFEEEE795
:104760001C000024000000243333534000FF7F4727
:104770004FF04070E1EE100A704700061016000678
:1047800010160000000001020304010203040607E2
:1047900008090000B4470008000000241C000000C5
:1047A00008030008D04700081C0000244C07000044
:1047B00024030008000000000000000001000000C9
:1047C00010000000000000000090D0030090D00313
:04000005080002CD20
:00000001FF
