:020000040800F2
:10000000681B00242D04000833400008E73C00086A
:100010003140000893080008614900080000000012
:100020000000000000000000000000006D03000858
:10003000C50A000800000000C9030008A943000821
:100040004704000847040008470400084704000864
:100050004704000847040008470400084704000854
:1000600047040008470400084704000895080008F2
:10007000A1080008470400084704000847040008D6
:100080004704000847040008470400084704000824
:100090004704000847040008470400084704000814
:1000A00047040008294500084704000847040008E1
:1000B00047040008470400084704000847040008F4
:1000C00047040008470400084704000847040008E4
:1000D0007542000847040008470400084704000868
:1000E000C70A000847040008000000004704000891
:1000F00047040008470400084704000847040008B4
:1001000047040008470400084704000847040008A3
:100110004704000847040008470400084704000893
:100120004704000847040008470400084704000883
:100130004704000847040008470400084704000873
:1001400000000000000000000000000000000000AF
:100150004704000847040008470400084704000853
:100160004704000847040008470400084704000843
:100170004704000847040008470400080000000086
:100180004704000847040008470400084704000823
:100190004704000847040008470400084704000813
:1001A0004704000847040008470400080000000056
:1001B00047040008470400084704000847040008F3
:1001C0004704000847040008000000000000000089
:1001D00000000000000000004704000800000000CC
:1001E000000000000000000000000000000000000F
:1001F0000000000000000000470400084704000859
:1002000047040008470400080000000047040008F5
:100210004704000847040008470400084704000892
:100220004704000800000000470400080000000028
:1002300047040008470400080000000047040008C5
:100240004704000847040008470400084704000862
:100250004704000847040008470400084704000852
:100260004704000847040008470400084704000842
:100270004704000847040008470400080000000085
:100280004704000847040008470400084704000822
:1002900000000000470400084704000800000000B8
:1002A0000000000047040008470400084704000855
:1002B00047040008470400084704000847040008F2
:1002C00047040008470400084704000800F002F84B
:1002D00000F03CF80AA090E8000C82448344AAF1A4
:1002E0000107DA4501D100F031F8AFF2090EBAE8A2
:1002F0000F0013F0010F18BFFB1A43F0010318475A
:10030000E05B0000005C0000103A24BF78C878C1B0
:10031000FAD8520724BF30C830C144BF04680C600B
:10032000704700000023002400250026103A28BF53
:1003300078C1FBD8520728BF30C148BF0B60704757
:100340001FB505F08FFD1FBD10B510BD00F02FF9D2
:100350001146FFF7F5FF04F013FC00F04DF903B46C
:10036000FFF7F2FF03BC00F055F900002C4B1968B1
:100370000868B0E8F04F80F30988BFF36F8F4FF043
:10038000000080F3118870470000000008480068F2
:10039000006880F308884FF0000080F3148862B68C
:1003A00061B6BFF34F8FBFF36F8F00DF00BF00BF99
:1003B00008ED00E0DFF80C00016841F47001016015
:1003C000704700BF88ED00E0EFF30980BFF36F8F47
:1003D000134B1A681EF0100F08BF20ED108A20E999
:1003E000F04F106009B44FF0500080F31188BFF354
:1003F0004F8FBFF36F8F04F0F3FF4FF0000080F3D7
:10040000118809BC19680868B0E8F04F1EF0100F99
:1004100008BFB0EC108A80F30988BFF36F8F704774
:1004200020000024EFF30580704700000948804752
:1004300009480047FEE7FEE7FEE7FEE7FEE7FEE7C6
:10044000FEE7FEE7FEE7FEE704480549054A064BDE
:100450007047000069440008CD02000868110024BC
:10046000681B00246813002468130024032A40F248
:10047000308010F0030C00F0158011F8013BBCF146
:10048000020F624498BF11F801CB00F8013B38BF5E
:1004900011F8013BA2F1040298BF00F801CB38BF6C
:1004A00000F8013B11F0030300F02580083AC0F08A
:1004B000088051F8043B083A51F804CBA0E8081032
:1004C000F5E7121D5CBF51F8043B40F8043BAFF365
:1004D0000080D20724BF11F8013B11F801CB48BFBF
:1004E00011F8012B24BF00F8013B00F801CB48BFF5
:1004F00000F8012B704710B5203AC0F00B80B1E82E
:100500001850203AA0E81850B1E81850A0E8185048
:10051000BFF4F5AF5FEA027C24BFB1E81850A0E851
:10052000185044BF18C918C0BDE810405FEA827C6B
:1005300024BF51F8043B40F8043B08BF7047D20782
:1005400028BF31F8023B48BF11F8012B28BF20F823
:10055000023B48BF00F8012B70474FF0000200B586
:10056000134694469646203922BFA0E80C50A0E8D6
:100570000C50B1F12001BFF4F7AF090728BFA0E884
:100580000C5048BF0CC05DF804EB890028BF40F850
:10059000042B08BF704748BF20F8022B11F0804F92
:1005A00018BF00F8012B70477047704770477546B9
:1005B00000F02CF8AE4605006946534620F00700CF
:1005C000854618B020B5FFF73FFFBDE820404FF04B
:1005D00000064FF000074FF000084FF0000B21F02D
:1005E0000701AC46ACE8C009ACE8C009ACE8C009FA
:1005F000ACE8C0098D46704710B50446AFF30080E3
:100600002046BDE81040FFF7AABE00000048704732
:100610000811002401491820ABBEFEE726000200A5
:100620007047000001220248114601F011BA000093
:100630000008025800220248012101F009BA000016
:10064000000802587047000001220248082101F00A
:10065000FFB900000008025800220248082101F0FA
:10066000F7B9000000080258704730B54FF47A75AA
:10067000044602E0284600F004F8601E84B2F9D275
:1006800030BD4FF0E02370B55D69C0EB0010996993
:100690004401002298698842FCD002D2A1EB0001FB
:1006A00002E0A5EB000631440A440146A242F1D320
:1006B00070BD10B5FFF7C6FFFFF7D6FF04F062F973
:1006C000044604F0E7F9204310BD00002DE9FC4189
:1006D0000746164600200D4600900190FFF7AAFF3E
:1006E000922000F0BDF806226946122000F09AF828
:1006F000FFF798FF9DF801009DF80010484C00029C
:1007000000B2084300EE100AD4ED000AB8EEC00AA9
:1007100020EE200A85ED000A9DF803009DF80210E6
:10072000D4ED000A000200B2084300EE100AB8EE51
:10073000C00A20EE200A85ED010A9DF805009DF80B
:100740000410000200B2084300EE100AB8EEC00A1E
:1007500020EE200A85ED020AFFF77EFF0822694697
:10076000002000F05FF8FFF76FFF9DF800000F28F2
:1007700030D19DF803009DF80210D4ED010A00026B
:1007800000B2084300EE100AB8EEC00A20EE200ABC
:1007900087ED000A9DF805009DF80410D4ED010ACC
:1007A000000200B2084300EE100AB8EEC00A20EEC4
:1007B000200A87ED010A9DF807009DF80610000247
:1007C00000B2084300EE100AB8EEC00A20EE200A7C
:1007D00087ED020AFFF72EFFA22000F041F8022267
:1007E0006946222000F01EF8FFF71CFF9DF800105C
:1007F0009DF80100C90041EA5010B0F5806F01DB9F
:10080000A0F5006000EE100AB4EE001AF3EE070A3D
:10081000B8EEC00A40EE010AC6ED000ABDE8FC8150
:100820006800002470B540F0800014460D4600F0CA
:1008300017F806E0552000F013F8641E05F8010BC8
:10084000E4B2002CF6D170BD10B540F080000C462B
:1008500000F006F8552000F003F8207010BD0000ED
:1008600001B582B04FF47A700123009001AA0348C9
:1008700002A902F0B5FD9DF804000EBDF00D0024A4
:1008800010B50C46FFF7ECFF2046BDE81040FFF71F
:10089000E7BFFEE7014800F065BA0000780E0024CB
:1008A000014800F05FBA0000F00E0024294A0168F8
:1008B00091423AD0274A1832914236D0254A3032F6
:1008C000914232D0234A483291422ED0214A60329E
:1008D00091422AD01F4A7832914226D01D4A903246
:1008E000914222D01B4AA83291421ED01A4A91420C
:1008F0001BD0194A1832914217D0174A3032914210
:1009000013D0154A483291420FD0134A60329142B7
:100910000BD0114A7832914207D00F4A903291425F
:1009200003D00D4AA832914211D1CAB21823103A0D
:10093000B2FBF3F26FF30901032A02F00703074A3F
:10094000D25CC26500D9091D81650846704721F057
:10095000FF01F9E71000024010040240B05E0008F9
:1009600030B5224A012301689142CAB21BD01F4C04
:100970001434A14217D01D4C2834A14213D01B4C73
:100980003C34A1420FD0194C5034A1420BD0174C2B
:100990006434A14207D0154C7834A14203D0134CE3
:1009A0008C34A1420CD11421114C083AB2FBF1F164
:1009B0000F4A803201F01F0504EB8101AB4010E0CB
:1009C0000C4D1824103A0D44B2FBF4F1A82D00D8B8
:1009D0000831094A01F01F0402EB8101064AA340D5
:1009E0008032603080E80E0030BD000008540258AC
:1009F00000580258F0FBFDBF0008024010B5027914
:100A0000531E072B2DD8174C0168A1421BD0154C43
:100A10001434A14217D0134C2834A14213D0114CE6
:100A20003C34A1420FD00F4C5034A1420BD00D4C9E
:100A30006434A14207D00B4C7834A14203D0094C56
:100A40008C34A14203D10849074C443102E00749E4
:100A5000064C443104EB8202C0E91B21012199407C
:100A6000416710BD08540258FC580258FC08024067
:100A700010B583694FF0C074826A0146002053B1FB
:100A8000B3F5005F15D072B1012A0CD0022A0AD04A
:100A9000032A09D104E01AB1012A06D0022A03D19F
:100AA000C96AC90100D5012010BDC96AA142FAD0A6
:100AB00010BD002AF7D0012AF2D0022AF3D0032A6F
:100AC000F3D010BD70474FF4806010B500F0A6FE63
:100AD000BDE810404FF4805000F0A0BE72B6FEE7B3
:100AE0002DE9F05F28B190F83510022904D080215B
:100AF00041650120BDE8F09F904C904B0168183C87
:100B000018338E4ADFF83C92A1428D4CDFF838E270
:100B10008E4FDFF83CB2DFF83CA28F4D8F4E31D0C4
:100B200091422FD099422DD0A1422BD0494529D0B6
:100B3000714527D0B94225D0DFF810C20CF1180C4E
:100B400061451FD0DFF808C2ACF1600C614519D0D7
:100B5000DFF8FCC1ACF1480C614513D0DFF8F0C1FF
:100B6000ACF1300C61450DD0DFF8E4C1ACF1180CEC
:100B7000614507D0594505D0514503D0A94201D060
:100B8000B1422CD1DFF8B4C14FF0040880F83580B1
:100B9000ACF1180C61451DD091421BD0994219D07F
:100BA000A14217D0494515D0714513D0B94211D093
:100BB0006648183081420DD065486038814209D0BE
:100BC00063484838814205D061483038814201D0BD
:100BD0005F481838086820F001000860ABE0D1F8E1
:100BE00000C02CF00E08DFF854C1C1F80080ACF151
:100BF000180C0168614527D0914225D0994223D035
:100C0000A14221D049451FD071451DD0B9421BD00A
:100C1000DFF838C10CF1180C614515D0DFF830C190
:100C2000ACF1600C61450FD0DFF824C1ACF1480C89
:100C3000614509D0DFF818C1ACF1300C614503D033
:100C4000DFF80CC1ACF1180CD1F800C02CF0010C8D
:100C5000C1F800C0DFF8E4804FF0010C0168A8F192
:100C60001808414546D0914244D0994242D0A14211
:100C700040D049453ED071453CD0B9423AD0334A84
:100C80001832914236D0324A603A914232D0304ADC
:100C9000483A91422ED02E4A303A91422AD02C4ADC
:100CA000183A914226D0594524D0514522D0A94224
:100CB00020D0B1421ED02A4A91421BD0284A143279
:100CC000914217D0264A2832914213D0244A3C320E
:100CD00091420FD0224A503291420BD0204A6432C6
:100CE000914207D01E4A7832914203D01C4A8C327E
:100CF000914218D1016E0A6822F480720A6090F85D
:100D00005C20816D02F01F020CFA02F24A60D0E909
:100D100019124A60C16E31B10A6822F480720A6009
:100D2000D0E91C124A600022016D80F835C080F8BD
:100D3000342001B188470020DCE600002800024092
:100D4000580002407000024088000240A0000240AB
:100D50007004024088040240A0040240B80402402B
:100D6000085402582DE9FC5F0446F74E0020DFF8D6
:100D7000D88300904FF41652F44808F11808A56D76
:100D8000DFF8C493DFF8C0A3016809F130092068D7
:100D90000AF1480AB1FBF2F1B04201912F68D5F88F
:100DA00000C0DFF8ACB335D04146884232D0484568
:100DB00030D050452ED058452CD0E54918318842C6
:100DC00028D0E3493031884224D0E1494831884273
:100DD00020D0E04988421DD0DE491831884219D020
:100DE000DC493031884215D0DA494831884211D087
:100DF000DFF860E30EF1600E70450BD0D54A783213
:100E0000904207D0D34B9033984203D0D149A831B8
:100E100088427DD194F85C20082102F01F0201FA7B
:100E200002F23A424AD0B04232D0404530D0484532
:100E30002ED050452CD058452AD0C54A1832904261
:100E400026D0C34A3032904222D0C14A4832904222
:100E50001ED0C04A90421BD0BE4A1832904217D0D2
:100E6000BC4A3032904213D0BA4A483290420FD036
:100E7000B84A603290420BD0B64A7832904207D0DE
:100E8000B44A9032904203D0B24AA832904203D181
:100E9000026802F0040202E0026802F008026AB18D
:100EA000026822F00402026094F85C0000F01F0067
:100EB0008140A960606D40F00100606594F85C00BD
:100EC000012100F01F008140394240D02068B0422B
:100ED00034D0404532D0484530D050452ED05845CA
:100EE0002CD09B4A1832904228D0994A30329042F6
:100EF00024D0974A4832904220D0964A90421DD042
:100F0000944A1832904219D0924A3032904200E00E
:100F1000AFE113D08F4A483290420FD08D4A6032F1
:100F200090420BD08B4A7832904207D0894A903257
:100F3000904203D0874AA83290427DD1406910F098
:100F4000800F04D0A960606D40F00200606594F8E5
:100F50005C00042100F01F00814039423ED020682F
:100F6000B04232D0404530D048452ED050452CD0EC
:100F700058452AD0764A1832904226D0744A3032E8
:100F8000904222D0724A483290421ED0714A90421A
:100F90001BD0704A1832904217D06E4A30329042BD
:100FA00013D06C4A483290420FD06A4A6032904265
:100FB0000BD0684A7832904207D0664A903290420D
:100FC00003D0644AA83290424ED1006810F0020F5C
:100FD00004D0A960606D40F00400606594F85C0086
:100FE000102100F01F008140394258D02068B042E3
:100FF00034D0404532D0484530D050452ED05845A9
:101000002CD0534A1832904228D0514A3032904264
:1010100024D04F4A4832904220D04E4A90421DD0B0
:101020004C4A1832904219D04A4A3032904215D078
:10103000484A4832904200E014E00FD0454A6032FE
:1010400090420BD0434A7832904207D0414A9032C6
:10105000904203D03F4AA832904207D1006800F086
:10106000080006E0006872E70068B7E7006800F073
:101070000400A0B1A96020680168490304D5006894
:10108000000308D5A16C07E00168C90503D4016815
:1010900021F008010160216C09B12046884794F8CD
:1010A0005C00202100F01F008140394279D0206887
:1010B000B04232D0404530D048452ED050452CD09B
:1010C00058452AD0224A1832904226D0204A30323F
:1010D000904222D01E4A483290421ED01D4A904271
:1010E0001BD01C4A1832904217D01A4A3032904214
:1010F00013D0184A483290420FD0164A60329042BC
:101100000BD0144A7832904207D0124A9032904263
:1011100003D0104AA832904203D1006800F01000BA
:1011200002E0006800F00200B0B3A96094F8350056
:101130000428206801680FD049037ED500680003A9
:101140002BD4616C2AE0000010000240180000243B
:10115000700002401004024021F016010160206876
:10116000416921F080014161206C08B9A06C20B177
:101170002068016821F00801016094F85C303F218B
:10118000012003F01F0300229940A96084F8350074
:1011900084F83420216D65E003E0E16B09B120465D
:1011A0008847606D00287DD0606DC00759D02068E9
:1011B000042184F83510B0422BD0404529D0484551
:1011C00027D0504525D0584523D09D49884220D06E
:1011D0009B49183188421CD099493031884218D037
:1011E0009849884215D097491831884211D09549BD
:1011F000303188420DD093494831884209D0914915
:101200006031884205D08F497831884201D08D49BC
:101210009031016821F00101016020680099019A74
:10122000491C0091914202D80168C907F6D10068B3
:10123000C00710D003200FE0FFE70168C905ACD458
:1012400003680121002223F01003036084F83510A5
:1012500084F83420A1E7012084F83500002084F8C8
:101260003400E16C00291DD002B02046BDE8F05FDB
:101270000847754988421DD073491431884219D0F6
:1012800071492831884215D06F493C31884211D0CC
:101290006D49503188420DD06B496431884209D084
:1012A000694900E084E07831884203D066498C3196
:1012B00088427DD194F85C800427016808F01F08FB
:1012C00007FA08F717EA0C0F009746D04F0744D5E6
:1012D00000980F04686003D5C8033CD4A16CC1E733
:1012E000880638D42068B0422DD0554960398842EC
:1012F00029D0484527D0504525D0584523D05049BE
:10130000884220D04E49183188421CD04C49303197
:10131000884218D04B49884215D04A491831884232
:1013200011D04849303188420DD046494831884271
:1013300009D0704507D0904205D0984203D041496A
:10134000A831884203D1016821F0080102E0016858
:1013500021F004010160216C84E7022707FA08F7F5
:1013600017EA0C0F00974ED08F074CD500980F044A
:10137000686003D5C80344D4616C73E7880640D421
:101380002068B0422FD02E49603988422BD0484582
:1013900029D0504527D0584525D02949884222D008
:1013A0002749183188421ED025493031884200E053
:1013B00044E018D02349884215D022491831884288
:1013C00011D02049303188420DD01E494831884221
:1013D00009D0704507D0904205D0984203D01949F2
:1013E000A831884203D1016821F0140102E00168AC
:1013F00021F00A010160012184F83510002084F8F1
:101400003400E16B2EE7082202FA08F212EA0C0F10
:1014100014D0090712D5016821F00E01016094F87B
:101420005C100120002201F01F0100FA01F1696047
:10143000606584F8350084F8342012E7BDE8FC9F2D
:101440008800024010040240085402582DE9F05F61
:10145000044600F003FB002C07467DD0E24E02213B
:1014600020684FF00308DFF884934FF00005DFF8A1
:1014700080A3B042DFF87CB334D0DB4A183290420C
:1014800030D048452ED050452CD058452AD0D94A86
:101490001832904226D0D74A3032904222D0D54AD4
:1014A000483290421ED0D44A90421BD0D24A1832C1
:1014B000904217D0D04A3032904213D0CE4A4832B0
:1014C00090420FD0CC4A603290420BD0CA4A783258
:1014D000904207D0C84A9032904203D0C64AA83200
:1014E00090427DD184F83510B04284F834502ED02B
:1014F000BD49183188422AD0484528D0504526D0C9
:10150000584524D0BB491831884220D0B9493031E0
:1015100088421CD0B7494831884218D0B649884221
:1015200015D0B5491831884211D0B34930318842BD
:101530000DD0B1494831884209D0AF496031884265
:1015400005D0AD497831884201D0AB49903101686E
:1015500021F00101016008E025E100BF00F07EFA02
:10156000C01B052801D920211AE120680068C007A6
:10157000F4D1D4E902032168103418438E4694E86C
:101580008410D4E9033809683A4310439B4A40EA7F
:101590000C00676918431140103C40EA0800042F12
:1015A00040EA010003D1D4E90B12114308436168FA
:1015B000A1F12902052A0BD9163A032A08D9083ABB
:1015C000012A05D9083A032A02D97439032901D816
:1015D00040F48010CEF800002068676A406900E09F
:1015E00020E0042F20F0070047EA00070DD1D4E9DE
:1015F0000A01074349B12046FFF73AFA28B14020D3
:101600006065012184F83510CDE0206847612046EF
:10161000FFF74CF994F85C203F2102F01F02914043
:10162000816055E0764A90421BD0754B1433984246
:1016300017D0734B2833984213D0714B3C339842E8
:101640000FD06F4B503398420BD06D4B64339842A0
:1016500007D06B4B7833984203D0694B8C33984258
:101660007ED184F8351084F83450664B0168A26846
:1016700001EA030E402A74D0802A73D05FF0000282
:10168000D4E90378D4E9053142EAD70242EAD8081E
:101690005B4AD4E9077C48EAD30848EAD10141EA29
:1016A000D701524241EA1C11142341EA0E010160A4
:1016B00020681044B0FBF3F08000E0652046FFF79F
:1016C000F5F894F85C20012102F01F02914041607E
:1016D0002068B04257D044491831884253D0484519
:1016E00051D050454FD058454DD0424918318842CD
:1016F00049D040493031884245D03E49483188423E
:1017000041D03D4988423ED03B49183188423AD0C9
:1017100039493031884236D037494831884232D051
:101720003549603188422ED03349783188422AD0F9
:1017300031499031884226D02F49A831884222D0A1
:101740002F4988421FD02E49143188421BD02C4982
:101750002831884217D02A493C31884213D002E010
:101760001DE017E018E02649503188420BD024498B
:101770006431884207D022497831884203D0204919
:101780008C31884229D12046FFF7EAF8A0688028EA
:101790000CD00CE0102273E74FF4804270E7402138
:1017A000616584F835800120BDE8F09F6560216E99
:1017B00020790860D4E9190141606068401E07285B
:1017C00008D82046FFF71AF9E06E0560D4E91C013D
:1017D000416002E0E566256765670120656584F87C
:1017E00035000020E0E70000100002404000024009
:1017F0005800024070000240100402403F8010FE7A
:10180000085402580F00FEFFB0F5806F03D1024864
:10181000006803F0E7B97047080000244FF0B041BA
:1018200010B5D1F88820024203D0C1F88800FFF734
:10183000EBFF10BD2DE9F84F03247A4D00234FF044
:1018400001094FF0B04B4FF00F0AE4E009FA03F63C
:10185000324078D00F7907F00307012F01D0022F13
:101860001AD187684FEA430ED1F80CC004FA0EF87B
:1018700027EA08070CFA0EFC4CEA070CC0F808C06F
:10188000476891F804C0B743CCF3001C0CFA03FC82
:101890004CEA070CC0F804C00E79F643B6070BD02B
:1018A000C6684FEA43088F6804FA08FC26EA0C066B
:1018B00007FA08F73743C7600E7906F00306022ED1
:1018C00012D1DE080F694FEA437C00EB8606B6466C
:1018D000366A4FEADC6C0AFA0CF807FA0CF726EACB
:1018E00008063743CEF820700F7906684FEA4308A0
:1018F00007F0030704FA08FC07FA08F726EA0C06C3
:10190000374307604E6816F4403F1CD0464E376898
:1019100047F00207376036689F0706F00206009618
:1019200023F0030606F1B046B6463F0FD6F808642A
:10193000DFF8F8800AFA07FC404526EA0C0603D1D6
:101940004FF0000C3AE065E0DFF8E4C0604502D1FA
:101950004FF0010C32E0DFF8DCC0604502D14FF0FF
:10196000020C2BE0DFF8D0C0604502D14FF0030C31
:1019700024E0DFF8C8C0604502D14FF0040C1DE040
:10198000DFF8BCC0604502D14FF0050C16E0DFF86F
:10199000B4C0604502D14FF0060C0FE0DFF8A8C0DC
:1019A000604502D14FF0070C08E0DFF8A0C06045A9
:1019B00002D14FF0090C01E04FF00A0C0CFA07FCC1
:1019C0004CEA060CCEF808C44F68DBF80060FF0252
:1019D00026EA020600D516435F46CBF80060D1F830
:1019E00004C0DBF804605FEA8C2C26EA020600D50E
:1019F00016437E606E684F6826EA0206BF0300D574
:101A000016436E602E684F6826EA0206FF0300D573
:101A100016432E605B1C0A6832FA03F67FF416AF99
:101A2000BDE8F88F80000058F444025800000258C6
:101A30000004025800080258000C02580010025816
:101A40000014025800180258001C025800240258C2
:101A50000AB1816170470904FBE700000148806812
:101A6000704700000C00002402488168027811448D
:101A7000816070470C000024032010B500F0ACF822
:101A800000F014FF0F4A104914681368C4F30322CE
:101A900003F00F038A5CC95C02F01F0201F01F0112
:101AA000D0400A4A20FA01F11160094908600F206C
:101AB00000F010F808B1012010BD00F04DF8002032
:101AC00010BD000018440258B85E00081C00002435
:101AD0001800002410B5102804468AB02AD200222B
:101AE0000146192000F058F8192000F047F8154871
:101AF00004601548016841F001010160006808A90F
:101B000000F001000990684600F06EFE00F0BCFE97
:101B10000E49400000220E4CB0FBF1F10D4840F29E
:101B2000E7330460C0E90332491EC0E9011201F045
:101B3000F7FD10B101200AB010BD064801F022FEE9
:101B4000F9E7000010000024F044025840420F0062
:101B500000000140B40F0024074882B0016841F042
:101B600002010160006800220F2100F002000090D5
:101B7000901E02B000F010B8F4440258002809DBAF
:101B8000410900F01F028900012001F1E02190408D
:101B9000C1F80001704700000E4BF0B41B680D4601
:101BA000C3F30223C3F10706042E00D90426191D2E
:101BB000072901D2002300E0DB1E012404FA06F10C
:101BC0009C40491E2940641E994014402143F0BCAA
:101BD00002F0C7BE0CED00E0064900F0070210B5A8
:101BE0004FF6FF040868044B204040EA02201843E7
:101BF000086010BD0CED00E00000FA05134970B557
:101C00000A68D243520705D5096801F007018142ED
:101C100013D118E00A6822F0070202430A60FFF7B6
:101C20001DFF0A4D4FF47A760446083D07E000BFD9
:101C3000FFF714FF001BB04201D9012070BD2868D6
:101C4000C0438004F4D4002070BD00000C4802584A
:101C50002DE9FE4F0546DFF800A450F8081B0024CC
:101C6000FD4FC943019005F1280026460AF1240AD8
:101C7000009008011DD4686E50B1B0F5801F0CD0E3
:101C8000B0F5001F0ED0B0F5401F1ED001240FE0AC
:101C9000386840F40030386017E00198022102F003
:101CA000C9F903E00098022102F054FA04000CD0B4
:101CB00026462888C043C00523D4A86D05281ED217
:101CC000DFE800F00C11161B1B006A6EDAF800103A
:101CD00021F440111143CAF80010EAE7386840F4D3
:101CE0000030386009E00198002102F0A3F903E018
:101CF0000098002102F02EFA0446C4B100E001244D
:101D000026462888DFF85083C04308F12C08400598
:101D10002FD4D5F8A400B0F5C00F28D010DCB8B18E
:101D2000B0F5001F19D0B0F5800F0FD11AE0AA6DE1
:101D3000DAF8001021F007011143CAF80010E0E7BB
:101D4000B0F5000F13D0B0F5200F10D001240FE034
:101D5000386840F40030386009E00198002102F052
:101D600069F903E00098002102F0F4F9044694B107
:101D700026462888C043000530D4D5F8A800B0F125
:101D8000407F29D011DCC0B1B0F1807F1AD0B0F112
:101D9000007F10D11BE0D5F8A420D8F8001021F462
:101DA00060011143C8F80010E3E7B0F1806F13D071
:101DB000B0F1A06F10D001240FE0386840F400307B
:101DC000386009E00198002102F034F903E000983E
:101DD000002102F0BFF9044694B126462868DFF8D6
:101DE00078B2C0430BF1200B80011FD4E86CD8B14E
:101DF00010280FD0202812D0302815D0012414E04C
:101E0000D5F8A820D8F8001021F0E0611143C8F8F7
:101E10000010E3E7386840F40030386004E00198CF
:101E2000022102F007F9044674B126462888C0430F
:101E3000C0042BD4E86DB0F5005F20D00DDCA0B15C
:101E4000B0F5805F0FD115E0EA6CDBF8001021F0EF
:101E500030011143CBF80010E8E7B0F5405F13D034
:101E6000B0F5804F10D001240FE0386840F4003006
:101E7000386009E00198002102F0DCF803E00098E6
:101E8000002102F067F904468CB126462888C04339
:101E9000800429D4286EB0F5403F23D010DC08B36D
:101EA000B0F5803F14D0B0F5003F0FD115E0EA6DDA
:101EB000DAF8001021F4E0411143CAF80010E5E718
:101EC000B0F5802F0ED0B0F5A02F0BD001240AE082
:101ED0000198012102F0AEF803E00098012102F020
:101EE00039F9044694B126462888C04340042AD4D0
:101EF000D5F8AC00B0F1405F23D010DC08B3B0F1EE
:101F0000805F14D0B0F1005F0FD115E02A6EDAF8CF
:101F1000001021F4E0211143CAF80010E4E7B0F109
:101F2000804F0ED0B0F1A04F0BD001240AE00198F1
:101F3000012102F07FF803E00098012102F00AF984
:101F4000044674B126462888C04300041FD4E86EB6
:101F5000D8B1B0F1805F0ED0B0F1005F10D0012495
:101F600014E0D5F8AC20D8F8001021F0E04111437E
:101F7000C8F80010E7E7386840F40030386004E043
:101F80000198012102F056F8044674B126462868EB
:101F9000C043C0011ED4A86CD0B101280ED00228C5
:101FA00011D0032814D0012413E0EA6EDAF80010EF
:101FB00021F040511143CAF80010E8E7386840F4B6
:101FC0000030386004E00198022102F033F8044642
:101FD0006CB126462868C043400255D41F480168AA
:101FE00041F480710160FFF739FD81460EE0AA6C73
:101FF000DBF8001021F003011143CBF80010E9E7F2
:10200000FFF72CFDA0EB090064283BD813480068BB
:10201000C005F5D5BCBBDFF84090B5F8B01009F1AC
:102020004409D9F8000001F4407100F4407088427E
:1020300011D0D9F80010D9F8002021F4407142F4F1
:102040008032C9F80020D9F8002022F48032C9F883
:102050000020C9F8001003E02C4402580048025840
:10206000D5F8B000B0F5807F19D1FFF7F7FC0290EA
:1020700011E000BFFFF7F2FC0299411A41F28830EB
:10208000814208D9032426462878DFF81494C043F7
:10209000C00721D03CE0D9F800008007EAD5D5F888
:1020A000B010C1F301200328FE480DD0016821F4CF
:1020B0007C510160B5F8B020D9F80010C2F30B02D2
:1020C0001143C9F80010DFE7F74A036802EA11126A
:1020D00023F47C511143ECE7A86F182816D005DCD7
:1020E000A0B1082808D0102804D10AE020280DD07B
:1020F00028280BD001240AE00198012101F09AFF61
:1021000003E00098012102F025F8044664B1264658
:102110002878C04380071ED4686F062819D2DFE8EC
:1021200000F0160C11161616AA6FD9F8001021F03F
:1021300038011143C9F80010EAE70198012101F0C4
:1021400079FF03E00098012102F004F804467CB115
:1021500000E0012426462878C04340071FD4D5F864
:102160009000062819D2DFE800F0160C111616169A
:102170006A6FD9F8001021F007011143C9F8001067
:10218000E9E70198012101F055FF03E000980121E2
:1021900001F0E0FF0446A4B100E0012426462878BF
:1021A000C04380062BD4D5F88C00B0F1405F24D01A
:1021B00011DC10B3B0F1805F15D0B0F1005F10D129
:1021C00016E0D5F89020D8F8001021F0070111434F
:1021D000C8F80010E3E7B0F1804F0ED0B0F1A04F87
:1021E0000BD001240AE00198002101F023FF03E055
:1021F0000098022101F0AEFF044694B126462878EB
:10220000C04340062BD4D5F89800B0F5406F24D0D9
:1022100011DC10B3B0F5806F15D0B0F5006F10D1A0
:1022200016E0D5F88C20D9F8001021F0E0411143D8
:10223000C9F80010E3E7B0F5805F0ED0B0F5A05FFD
:102240000BD001240AE00198002101F0F3FE03E025
:102250000098022101F07EFF044694B126462878BA
:10226000C04300062BD4D5F89C00B0F5C04F24D055
:1022700011DC10B3B0F5005F15D0B0F5804F10D170
:1022800016E0D5F89820D8F8001021F4E051114359
:10229000C8F80010E3E7B0F5004F0ED0B0F5204FBE
:1022A0000BD001240AE00198002101F0C3FE03E0F5
:1022B0000098022101F04EFF044654B126462878CA
:1022C000C04300071ED4D5F88000B0F5805F0AD067
:1022D0000FE0D5F89C20D8F8001021F4604111439C
:1022E000C8F80010EBE70098022101F033FF00B1BD
:1022F0000126D5F88020D9F8001021F4405111436F
:10230000C9F800102878C043C00613D4D5F894004B
:10231000B0F5807F05D10098022101F01BFF00B1CC
:102320000126D5F89420D8F8001021F4407111430B
:10233000C8F800102868C043000316D4D5F8A000E0
:1023400038B1B0F5803F09D0B0F5003F0BD0012483
:102350000AE00198002101F06DFE03E000980221DF
:1023600001F0F8FE04468CB126462868C0434003BD
:1023700022D4D5F88400B0F5801F11D0B0F5001F2D
:1023800013D0B0F5401F15D0012414E0D5F8A020DB
:10239000D8F8001021F440311143C8F80010E4E7E8
:1023A000386840F40030386004E00098012101F002
:1023B000D1FE04465CB126462868C043C0031CD445
:1023C000286D70B1B0F5803F10D0012414E0D5F82D
:1023D0008420D9F8001021F440111143C9F80010ED
:1023E000EAE7386840F40030386004E001980221E0
:1023F00001F020FE0446DCB126462868C043800078
:1024000005D40098022101F0A5FE00B1012628683C
:10241000C04380031BD4E86FB8B1B0F5807F10D003
:10242000B0F5007F11D0B0F5407F0ED001240DE053
:102430002A6DDBF8001021F480311143CBF8001035
:10244000DBE7386840F4003038607CB32646286803
:10245000C043C00207D42A6FDAF8001021F000410F
:102460001143CAF800102868C043800207D4AA6E3E
:10247000DAF8001021F080711143CAF800102868C2
:10248000C043400009D40748016821F400410160BD
:102490000168D5F8B420114301602868C04306E004
:1024A0005444025810440258CFFFFF001DE007D4E7
:1024B0006A6DDBF8001021F040511143CBF8001099
:1024C0002868C043000208D4D5F88820D9F8001045
:1024D00021F440011143C9F8001028790024C043B9
:1024E00000F00100204309D00EE0EA6FD9F8001097
:1024F00021F440711143C9F80010A8E701980021A8
:1025000001F098FD00B106462879C04300F00200B2
:10251000204305D10198012101F08CFD00B1064650
:102520002879C04300F00400204305D1019802211E
:1025300001F080FD00B106462879C04300F0080094
:10254000204305D10098002101F004FE00B10646A9
:102550002879C04300F01000204305D100980121E4
:1025600001F0F8FD00B106462879C04300F02000D4
:10257000044304D10098022101F0ECFD00B916B12A
:102580000120BDE8FE8F0020FBE700002DE9F05F91
:1025900004000F467ED0DFF83882D8F8000000F043
:1025A0000F00B8420CD2D8F8001021F00F013943C7
:1025B000C8F80010D8F8000000F00F00B84269D148
:1025C0002078844D40070AD52069296801F0700100
:1025D000884204D9296821F07001014329602078DC
:1025E0007C4E361D00070AD56069316801F0700124
:1025F000884204D9316821F07001014331602078AC
:10260000C0060AD5A069316801F4E061884204D9A6
:10261000316821F4E061014331602078DFF8B4B122
:1026200080060BF1080B0CD5E1695846DBF8002059
:1026300002F07002914204D9026822F070020A434B
:102640000260207880070AD5E068296801F00F0150
:10265000884204D9296821F00F01014329602078BC
:10266000C0073ED05B49A2682868183920F4706022
:10267000104328606068022818D0032819D0096820
:10268000012819D0490700294ADADFF848A1AAF140
:10269000080A00E044E0DAF8002022F007020243D2
:1026A000CAF80020FFF7DAF9814612E009688903C9
:1026B000E9E709688901E6E7C905E4E7FFF7CEF92C
:1026C000A0EB090141F28830814202D90320BDE824
:1026D000F09F6168DAF8000000F03800B0EBC10F3D
:1026E000ECD1207880070AD5E068296801F00F0155
:1026F000884204D2296821F00F0101432960D8F8EB
:102700000010404601F00F01B9420BD9016821F0D9
:102710000F0139430160006800F00F00B84201D09A
:102720000120D4E7207840070AD52069296801F004
:102730007001884204D2296821F0700101432960A8
:10274000207800070AD56069316801F0700188427D
:1027500004D2316821F07001014331602078C00655
:102760000AD5A069316801F4E061884204D2316879
:1027700021F4E06101433160207880060CD5E169E5
:102780005846DBF8002002F07002914204D2026841
:1027900022F070020A43026000F088F80E492A68AD
:1027A0002B68C2F3032203F00F038A5CC95C02F0BA
:1027B0001F0201F01F01D040084A20FA01F1116008
:1027C0000749086007480068BDE8F05FFFF782B975
:1027D0000020005218440258B85E00081C00002473
:1027E000180000241000002470B5144C3F22026031
:1027F000124A24680832131D114D04F00704446086
:1028000016681C1D06F470668660166806F00F06D2
:10281000C660126802F0700202611A6802F070026B
:1028200042611A6802F4E0628261226802F070027A
:10283000C261286800F00F00086070BD10440258A3
:102840000020005230B500F031F80B4A0B490C4B18
:1028500015681468C5F3032204F00F048A5C095D4F
:1028600002F01F0201F01F01D040064A20FA01F1D8
:1028700019601060084630BD18440258B85E000860
:102880001C0000241800002400B5FFF7DBFF0549F9
:102890000968054AC1F30221515C01F01F01C840DB
:1028A00000BD00001C440258B85E0008454970B5E0
:1028B00045480968434B103B11F0380208D001111C
:1028C000082A03D0102A0BD0182A0BD0084670BD56
:1028D00019688906FBD51968C1F3C101C84070BDEC
:1028E0003A4870BD3749374D18310C1D24350A68F8
:1028F000096826682D6802F0030406F00102C1F39E
:102900000511C5F3CC0515FB02F200EE102AB8EE56
:10291000400AE9B32F4ADFED2E0AB7EE001A6CB178
:10292000DFED2D1A012C01D0022C43D002EE101A3B
:102930001068F8EE422A81EEA22A1EE01C68A40666
:1029400011D51B6801EE901A1168C3F3C103F8EEAC
:10295000612AD84001EE900AC1F30800F8EE611A2E
:1029600081EEA22A0BE001EE901ADFED1C2A00BFD7
:10297000F8EE611A106882EEA12AC0F3080001EE99
:10298000900AF8EE611A40EE201A31EE810A00E05A
:1029900015E022EE000A1068C0F34620401C00EE4D
:1029A000900AF8EE600A80EE201ABCEEC10A10EE22
:1029B000100A70BD01EE901ADFED092AD8E7002059
:1029C00070BD0000104402580090D00300366E0124
:1029D00000000039304402580024744A0024744C2A
:1029E000001BB74B2DE9F05F04007DD0FF4F20782E
:1029F000FE4D1837DFF8F483103DC00748D0D8F8F3
:102A00000000396800F03800102815D0182803D1CC
:102A100001F0030002280FD06068B0F5803F12D0AB
:102A200010B1B0F5A02F18D0286820F480302860AD
:102A3000286820F4802009E02868800328D5606891
:102A40000028D2D024E0286840F4803028606068F4
:102A500088B1FFF703F8064609E0286840F48020B3
:102A60002860F0E7FEF7FAFF801B64287ED828680C
:102A70008003F7D50CE0FEF7F1FF064605E000BF46
:102A8000FEF7ECFF801B6428F0D828688003F7D499
:102A90002078800756D5D8F80000DFF850933968C1
:102AA00010F03800A9F10C090ED0182801D18807C0
:102AB0000AD0E068A8B3296821F019010143296010
:102AC000FEF7CCFF064628E02868400702D5E068FC
:102AD00000288AD0E168286820F01900084328609F
:102AE000FEF7BCFF064606E0D2E000BFFEF7B6FFE9
:102AF000801B0228BAD828684007F7D5217CD9F86E
:102B0000002022F0FE4242EA0161C9F8001019E0FB
:102B1000FEF7A4FF801B0228A8D828684007F7D535
:102B2000ECE7FFE7286820F001002860FEF796FF39
:102B3000064604E0FEF792FF801B022896D828681C
:102B40004007F7D42078C00646D5D8F80000DFF853
:102B50009C92396800F03800A9F10409082812D0C5
:102B6000182805D101F00300012800E0CEE00AD0CA
:102B7000E0690028286820D040F080002860FEF737
:102B80006DFF064615E02868C00502D5E06980287B
:102B90007ED194F82010D9F8002022F07C5242EA2D
:102BA0000161C9F8001017E0FEF758FF801B0228EA
:102BB000A0D82868C005F7D5EBE720F08000286092
:102BC000FEF74CFF064604E0FEF748FF801B022894
:102BD00090D82868C005F7D42078000729D5834805
:102BE0006169643000298146016811D041F001011A
:102BF0000160FEF733FF064605E000BFFEF72EFF3B
:102C0000801B022888D8D9F800008007F6D510E08C
:102C100021F001010160FEF721FF064605E000BF3B
:102C2000FEF71CFF801B022870D8D9F8000080072F
:102C3000F6D42078800623D5A0690028286810D013
:102C400040F480502860FEF709FF064605E000BF0B
:102C5000FEF704FF801B022858D828688004F7D5A7
:102C60000EE020F480502860FEF7F8FE064604E0EF
:102C7000FEF7F4FE801B022848D828688004F7D4A9
:102C80002078400751D5DFF86891D9F8001000E0AE
:102C900015E141F48071C9F80010FEF7DFFE064629
:102CA00005E000BFFEF7DAFE801B64282ED8D9F8B5
:102CB0000000C005F6D54D4EA068603601280AD048
:102CC00008B1052813D0306820F00100306030686A
:102CD00020F0040002E0306840F001003060A0689D
:102CE00041F2883A98B1FEF7B9FE81460AE03068B1
:102CF00040F004003060EEE7FEF7B0FEA0EB090103
:102D0000514503D830688007F6D50EE072E0FEF733
:102D1000A5FE814606E000BFFEF7A0FEA0EB09017C
:102D2000514567D830688007F6D4606A00287CD0A7
:102D3000DFF8B8A0D8F800100AF1200A4FF6F87BA7
:102D40000AF10408C1F3C2010329AAF104096DD0F4
:102D50000228286820F08070286003D0FEF77EFEED
:102D6000044681E0FEF77AFE064604E0FEF776FEB2
:102D7000801B022875D828688001F7D4E26A40F2E7
:102D8000F331386854F8283F884340EA021018436A
:102D90003860217B4FF4FE0C22894FF0FE47208AD9
:102DA0004902267D521E401EA1F5007189B2C2F370
:102DB00008021143761E0CEA00400143484607EA28
:102DC00006621143CAF80010D9F8001021F0010181
:102DD000C9F80010D8F80030266A23EA0B0343EA4A
:102DE000C601C8F80010D9F8001004E010440258D9
:102DF0000048025835E0A26921F00C011143C9F8DE
:102E000000100168E26921F00201114301600168CC
:102E100041F480310160016841F4003101600168D2
:102E200041F480210160016801E06CE020E041F0A4
:102E300001010160286840F080702860FEF70EFEF6
:102E4000044604E0FEF70AFE001B022809D82868A1
:102E50008001F7D557E000BFFEF700FE001B0228F7
:102E600002D90320BDE8F09F28688001F4D44AE02D
:102E700039680128DAF8000021D0A26A01F00303C2
:102E800093421CD1E26AC1F305118A4217D1216B2A
:102E9000C0F30802491E8A4211D1616BC0F3462279
:102EA000491E91420BD1A16BC0F30642491E9142CB
:102EB00005D1E16BC0F30660491E814201D00120BB
:102EC000D0E7A16C4646D8F80000C0F3CC008142A0
:102ED00019D0D9F800004D4620F00100C9F80000D3
:102EE000FEF7BCFD4FEA0007FEF7B8FDB842FBD085
:102EF000A26C306820EA0B0040EAC200306028680B
:102F000040F0010028600020ACE770472DE9F04751
:102F100004460068002103694269876894F881606B
:102F200000F130095FEA025C03EA02050AD51A07DC
:102F300008D5816941F400618161204600F04FFAB3
:102F4000BDE8F08715F0600F08D1680706D5616FFE
:102F500020468847216F20468847012105F041001F
:102F6000012805D1680703D4216F20468847012135
:102F700005F02200022806D1680704D4616F2046BC
:102F8000BDE8F04708470029DAD128074FF00108CB
:102F90005BD52068816941F0080181612068816901
:102FA00041F0100181612068816941F40061816113
:102FB0002068016921F0080101612068806810F42F
:102FC000404F20D023E0E0680F2806D92068616ECA
:102FD000006B0860606E001D0FE0072806D9B9F885
:102FE0000000616E0880606E801C06E02068616EE3
:102FF00090F830000870606E401C6066B4F86A009B
:10300000401EA4F86A00B4F86A000028DBD120460C
:1030100001F036F984F88180D4F8840018B1204694
:10302000FFF773FF8CE7052E07D0042E09D0032E7F
:1030300086D1204600F012FB82E7204600F00FFB0D
:103040007EE7204600F0CAF97AE715F4587FE9D008
:1030500068060AD5D4F8840040F00400C4F884005F
:103060002068816941F040018161A8050AD5D4F842
:10307000840040F00100C4F884002068816941F4B4
:1030800000718161E8050AD5D4F8840040F0080099
:10309000C4F884002068816941F480718161A806C8
:1030A0000AD5D4F8840040F08000C4F88400206879
:1030B000816941F020018161D4F884000028B1D0F9
:1030C000206840F26B32C7F381310368032923F093
:1030D000010101602068016921EA0201016102D059
:1030E00084F881809BE72068104D816821F440417D
:1030F0008160E06F50B10565E06FFDF7F1FC28B12C
:10310000D4F8840040F04000C4F88400A06F002888
:1031100088D00565A06FFDF7E3FC00288CD0D4F8BB
:10312000840040F04000C4F8840009E73D430008F3
:103130002DE9F047040029D0594A4FF000092068D2
:10314000584B594D9042C4F8289006D0984204D06C
:10315000A84202D0E1680F2918D8E1684FF0010AAF
:10316000E76B0831C9080AEB57167143904205D046
:10317000984203D0A84201D0082907D8904203D032
:10318000984201D0A84204D1102902D90120BDE8FB
:10319000F08794F8810020B9204684F8809000F0F0
:1031A00085F8022084F881002068016821F001017F
:1031B00001602068A1698268B1F1806F02F4F811A2
:1031C00010D16268B2F5800F01D01AB10AE0A26B8B
:1031D00022B107E0A26BB2F1805F03D1026842F432
:1031E000805202606068400209D5E068072806D373
:1031F0002068236D026822F480721A4303E020687D
:10320000026822F480720260A66AE069E26B2568B7
:103210003043E3680A4310431843A860D4E90D0221
:10322000D4E90581636A25691843D4F820C00A43AC
:10323000266810432843A56DD4E90172D4E9123100
:1032400040EA080040EA0C003843084310431843A2
:103250002843F060606868B92068816821F4C05133
:1032600041F4006181602068816821F4C06141F40B
:10327000806181602068016D21F001010165606855
:10328000400206D52068626DC16821F000411143FB
:10329000C160C4F8849084F881A0002077E7000022
:1032A0000030014000380040003C00402DE9F04172
:1032B000B4B0074614212EA8FDF74FF9B82168468F
:1032C000FDF74BF93F493868884277D181140020D7
:1032D00017900446CDE900106846FEF7B9FC08B126
:1032E000FDF7FCFB3848016841F48041016000684B
:1032F00000F48040339034480838016841F00401FC
:103300000160016801F004013391016841F002019C
:1033100001600068022503264FF0050800F0020056
:103320000621CDE92E15CDE9328028482EA9CDE918
:103330003046FEF77FFA2903254830AACDE92E153D
:103340002EA982E85001FEF775FA224E4FF48068EC
:1033500021492722304631604FF44031C6E901242B
:10336000C6E903487461B461C6E907417462FEF7B7
:103370006DF808B1FDF7B2FB164D4023164928221F
:103380007835FE671831B76302C5D902281F85E872
:103390001C012C616C61C5E906412C622D1FFEF7F2
:1033A00055F808B1FDF79AFBBD6700220621AF630F
:1033B0002420FEF7F1FB2420FEF7E0FB34B0BDE84B
:1033C000F081000000380040E8440258000802582C
:1033D00000040258780E0024100002407047704725
:1033E0002DE9FF4F83B090F8801004460068012952
:1033F0004FF00001109F1D46019100F1200100F1E6
:1034000030009346029100900ED04FF0010A84F8EC
:1034100080A0FEF723FB94F88110804600202E4602
:10342000012905D0022133E0022007B0BDE8F08F6A
:10343000049961B3BBF1000F29D045B30521814642
:1034400084F88110C4F88400C4F864B0A4F86A5009
:10345000A4F868500499E165A4F86250A4F860509B
:10346000206760672068C16821F4C021C1602068BE
:1034700041686FF30F01294341602068016841F002
:10348000010101606068B0F5800F05D009E00121FD
:1034900084F880000846C8E72068016841F400719C
:1034A0000160E0680F2830D841E020684169890751
:1034B0000DD565B1E16D09680162E06D001DE06543
:1034C000B4F86200401EA4F86200B4F8625048F2FA
:1034D00008022068416911420DD066B1006B616E2F
:1034E0000860606E001D6066B4F86A00401EA4F8B3
:1034F0006A00B4F86A60FEF7B1FAA0EB0800B842BF
:1035000002D3781C01D004E01FB155EA0600CCD1EB
:1035100087E0204600F0B4FED4F8842084F8809040
:1035200042F48071C4F8841084F881A043E0072835
:1035300030D873E02068406980070ED56DB1E06D2A
:10354000018802980180E06D801CE065B4F862009B
:10355000401EA4F86200B4F8625020684069C007B9
:103560000ED06EB100980188606E0180606E801C84
:103570006066B4F86A00401EA4F86A00B4F86A6095
:10358000FEF76CFAA0EB0800B84202D3781C01D019
:1035900004E01FB155EA0600CCD142E0204600F01D
:1035A0006FFED4F8842084F8809042F48070C4F8D0
:1035B000840084F881A0032037E7206841698907E7
:1035C0000ED56DB1E16D097880F82010E06D401CDA
:1035D000E065B4F86200401EA4F86200B4F86250DE
:1035E00020684169C9070ED06EB190F83000616E55
:1035F0000870606E401C6066B4F86A00401EA4F853
:103600006A00B4F86A60FEF729FAA0EB0800B84235
:1036100002D3781C02D07CE7002FFCD055EA0600CC
:10362000CBD100223B4608212046CDF8008000F097
:1036300093FE28B1D4F8840040F02000C4F8840040
:10364000204600F01DFE84F881A0D4F8841084F890
:10365000809009B10120E8E60198E6E670477047DE
:103660007047704770470000F0B590F83C20012A81
:1036700041D0224E012480F83C40022280F83D20B7
:1036800002681F4D5368B242D2F808C001D0AA4266
:1036900003D14F6823F470033B430F6823F070039A
:1036A0001F4357600268B24219D0B2F1804F16D062
:1036B000144B9A4213D0144B9A4210D0134B9A4297
:1036C0000DD0AA420BD0124B9A4208D0114B9A420D
:1036D00005D0114B9A4202D0104B9A4204D189680E
:1036E0002CF0800319439160002180F83D4080F860
:1036F0003C100846F0BD0220F0BD00000000014073
:10370000000401400004004000080040000C00409C
:10371000001800400040014000E0004000E400408C
:1037200010B5040003D094F83D0010B107E001206B
:1037300010BD002084F83C00204600F022F8022052
:1037400084F83D002068211D00F0F4FE012084F87B
:10375000480084F83E0084F83F0084F8400084F874
:10376000410084F8420084F8430084F8440084F85F
:10377000450084F8460084F8470084F83D000020A6
:1037800010BD704790F83D10012901D0012070470D
:103790001A4A022180F83D100168CB6843F001030A
:1037A000CB60006890421AD0B0F1804F17D0144916
:1037B000884214D01349884211D0134988420ED050
:1037C000124988420BD01249884208D011498842D8
:1037D00005D01149884202D01049884207D181683A
:1037E0000F4A1140062906D0B1F5803F03D0016889
:1037F00041F001010160002070470000000001401D
:103800000004004000080040000C0040000401409B
:10381000001800400040014000E0004000E400408B
:1038200007000100704770B5044600680025016973
:10383000C943890715D4C168C943890711D4EA1E51
:10384000026101212177206880698007204602D02B
:10385000FFF7E8FF04E000F0CFF8204600F0A4F9FD
:10386000257720680169C943490717D4C168C9434E
:10387000490713D402216FF0040202612177206806
:10388000806910F4407F204602D0FFF7CBFF04E0B0
:1038900000F0B2F8204600F087F92577206801692A
:1038A000C943090716D4C168C943090712D40421C2
:1038B0006FF00802026121772068C0698007204606
:1038C00002D0FFF7AFFF04E000F096F8204600F0CA
:1038D0006BF9257720680169C943C90617D4C16807
:1038E000C943C90613D408216FF010020261217781
:1038F0002068C06910F4407F204602D0FFF792FF95
:1039000004E000F079F8204600F04EF925772068B1
:103910000169C943C90708D1C168C943C90704D1AE
:10392000891E0161204600F0D3F920680169C9436E
:10393000090609D4C168C943090605D46FF080019E
:1039400001612046FFF78DFE20680169C943C90562
:1039500009D4C168C943090605D46FF480710161B7
:103960002046FFF77DFE20680169C943490609D456
:10397000C168C943490605D46FF040010161204682
:1039800000F0B0F920680169C94389060BD4C16809
:10399000C943890607D46FF0200101612046BDE8C4
:1039A0007040FFF75FBE70BD10B586B004461421AD
:1039B0006846FCF7D2FD0D492068884213D10C48B7
:1039C000016841F0020101600068002100F002007E
:1039D000059002200090CDE90101CDE903100548D2
:1039E0006946FDF727FF06B010BD00000004004047
:1039F000E044025800040258704770B5044690F83D
:103A00003C0000260D4601280BD0012084F83C0024
:103A10000C2A4AD007DC82B1042A20D0082A06D119
:103A200031E0022070BD102A53D0142A63D0012641
:103A3000002084F83C00304670BD206800F0F4FDA2
:103A40002068816941F0080181612068816921F065
:103A50000401816120682A698169114311E02068AD
:103A600000F036FE2068816941F4006181612068C0
:103A7000816921F48061816120682969826942EA53
:103A800001218161D4E7206800F06EFE2068C169E1
:103A900041F00801C1612068C16921F00401C161E0
:103AA00020682A69C169114311E0206800F0A8FE6E
:103AB0002068C16941F40061C1612068C16921F4D5
:103AC0008061C16120682969C26942EA0121C1613E
:103AD000AEE7206800F0D0FE2068416D41F008019B
:103AE00041652068416D21F00401416520682A6923
:103AF000416D114311E0206800F0F8FE2068416D2F
:103B000041F4006141652068416D21F480614165A7
:103B100020682969426D42EA0121416588E710B5B4
:103B2000040003D094F83D0010B107E0012010BD5F
:103B3000002084F83C00204600F022F8022084F89F
:103B40003D002068211D00F0F5FC012084F84800AC
:103B500084F83E0084F83F0084F8400084F8410077
:103B600084F8420084F8430084F8440084F8450057
:103B700084F8460084F8470084F83D00002010BD1A
:103B800008B500680649884208D10648016841F036
:103B900002010160006800F00200009008BD000012
:103BA00000040040E84402587047000030B5044665
:103BB0004FF0020269B1042912D0082917D00C294C
:103BC0001CD0102921D094F84300012824D00120D2
:103BD00030BD94F83E000128F9D184F83E201DE064
:103BE00094F83F000128F2D184F83F2016E094F8C1
:103BF00040000128EBD184F840200FE094F8410008
:103C00000128E4D184F8412008E094F8420001281A
:103C1000DDD184F8422001E084F8432001222068AD
:103C200000F0F4FC1E4920681E4A1F4B884209D050
:103C3000904207D0984205D01C4DA84202D01C4D9E
:103C4000A84203D1456C45F400454564206888428C
:103C500018D0B0F1804F15D01649884212D01649BD
:103C600088420FD0154988420CD090420AD014499E
:103C7000884207D0984205D01249884202D01249A2
:103C8000884207D18168114A1140062906D0B1F552
:103C9000803F03D0016841F001010160002030BD88
:103CA0000000014000040140004001400044014088
:103CB000004801400004004000080040000C0040A3
:103CC0000018004000E0004000E400400700010050
:103CD00000680349884201D1FDF7C6BE7047000065
:103CE000000001407047FEE72DED068B4FF4FA709F
:103CF00000F05EFF2E480C21FFF758FF2E4C9FED81
:103D00002D8A00BFFCF7D5FC0028FBD12B4D4FF0CE
:103D1000FF382E4E264FDFED2A8A9FED2A9ADFEDDF
:103D20002A9AB2EE04AA2868414600F083FF224A8C
:103D300027491432A1F10C00FCF7C8FCD4ED031A9A
:103D4000C4ED041A94ED021A84ED031A94ED050AE9
:103D500078EEC00AC4ED020A30EE812A20EE890A0C
:103D600030EEC11A72EE210A00EEA90A01EE0A0A2B
:103D700010EE100A84ED010AB04203DD9FED150A32
:103D800084ED010AB5EEC00AF1EE10FA01D284ED1D
:103D9000018A2078012801D184ED018A94ED010A7D
:103DA0003968BCEEC00A10EE100A80B20864BAE7A7
:103DB000680F002400000000940000240800002484
:103DC000000020420000C842000048420000FA43C0
:103DD000FC1000240000FA430D4808B5016841F0CA
:103DE0000101016000680022062100F0010000903E
:103DF0000B20FDF7D1FE0B20FDF7C0FE00220621AF
:103E00000C20FDF7C9FEBDE808400C20FDF7B6BE4A
:103E1000D8440258124910B590B0D1E90001CDE95B
:103E20000E0101210EA800F0CFFE0E4C1C220C4901
:103E30000831A0606846FCF75EFB0021684600F090
:103E40002DFF07491C22206007A82431FCF753FBF3
:103E5000002107A800F022FF606010B010BD000034
:103E6000705E0008000000242DE9F04186B01421A6
:103E70006846FCF772FB3448016841F004010160B8
:103E8000016801F004010591016841F080010160C1
:103E9000016801F080010591016841F001010160B4
:103EA000016801F001010591016841F00201016022
:103EB000016801F002010591016841F01001016003
:103EC00000680122214F48F2090100F0100005901E
:103ED0003846FDF7BDFDDFF878800022012140461D
:103EE000FDF7B6FD012569460024E8030090384639
:103EF000CDE901540394FDF79DFC03266946092092
:103F0000CDE90005CDE902463846FDF793FC03965E
:103F1000694600954046CDE90154FDF78BFC4FF40E
:103F2000A0504FF488118DE813000A486946FDF748
:103F300081FC002206212820FDF72EFE2820FDF717
:103F40001DFE06B0BDE8F081E044025800080258AA
:103F500000000258001002582DE9F04116480726CB
:103F60004FF08042DFF84CC000215511056113115C
:103F7000C0E90216C0E9072141621712816294115B
:103F8000C162C0E90D21C163016441648164C164FF
:103F9000016541658165C0E90543C0E900C7FFF7D8
:103FA000C7F8002803D0BDE8F041FCF797BDBDE895
:103FB000F081000000380040F00D002430B58BB0D7
:103FC000002468461C21079408940994FCF7C5FA5C
:103FD000164842F20F721723134D8021C0E90242A6
:103FE00004618161C0E90053FFF799FD08B1FCF756
:103FF00075FD0E4807A907940994FFF735FB08B132
:10400000FCF76CFD60206946CDE9000407480C22EE
:1040100002940494FFF7F1FC08B1FCF75FFD03483C
:10402000FFF7C2FC0BB030BD00040040680F002455
:10403000FEE7FEE72DE9F047454D044689464FF07F
:10404000000A2868C04380070AD0414E283E3068E5
:1040500020F080603060FDF701FD0746B04608E0C3
:104060000120BDE8F08700BFFDF7F8FCC01B022867
:1040700067D8D8F800000001F6D4206829684FF40A
:10408000FE0721F47C313E0241EA00302860207AAC
:10409000A389B4F804C040022D4D2D495B1E227C3B
:1040A000ACF1010C1035091DA0F5007080B2521E54
:1040B000CCF3080C07EA034340EA0C00184306EA75
:1040C0000262104328600868626920F0C000104353
:1040D00008600A68A06922F0200202430A60281DD5
:1040E0000A6822F010020A6002684FF6F873E46969
:1040F0009A4342EAC40202600868B9F1000F40F036
:1041000010020A6011D00868B9F1010F11D040F413
:1041100000100860D8F80000444640F08060C8F8FD
:104120000000FDF79BFC05460DE0086840F4002008
:10413000EFE740F48010ECE7FDF790FC401B02280D
:1041400001D903208DE720680001F5D5504688E7A6
:10415000284402582DE9F047454D044689464FF062
:10416000000A2868C04380070AD0414E283E3068C4
:1041700020F080503060FDF771FC0746B04608E043
:104180000120BDE8F08700BFFDF768FCC01B0228D6
:1041900067D8D8F800008000F6D4208829684FF44A
:1041A000FE0721F07C713E0241EA00502860207A2F
:1041B000A389B4F804C040022D4D2D495B1E227C1A
:1041C000ACF1010C1835091DA0F5007080B2521E2B
:1041D000CCF3080C07EA034340EA0C00184306EA54
:1041E0000262104328600868626920F4406010434E
:1041F00008600A68A06922F4007202430A60281D60
:104200000A6822F480720A6002684FF6F873E46963
:104210009A4342EAC40202600868B9F1000F40F410
:1042200080720A6011D00868B9F1010F11D040F016
:1042300080700860D8F80000444640F08050C8F80C
:104240000000FDF70BFC05460DE0086840F4800017
:10425000EFE740F40000ECE7FDF700FC401B02280C
:1042600001D903208DE720688000F5D5504688E706
:10427000284402580148FEF749BE0000F00D002412
:1042800010B5026840F26F335169946944F0080434
:1042900094610268946944F010049461026814689F
:1042A00024F001041460026814699C4314610268DC
:1042B000936823F44043936090F88120042A0CD043
:1042C0008A060AD5D0F8842042F08002C0F8842003
:1042D0000268936943F02003936190F88120032AD8
:1042E0000CD04A060AD5D0F8842042F00402C0F867
:1042F00084200268936943F0400393618A050AD5DC
:10430000D0F8842042F00102C0F88420026893694A
:1043100043F400739361C9050AD5D0F8841041F0C5
:104320000801C0F8841001688A6942F480728A61C9
:104330000021A0F86210A0F86A1010BD10B5806BC3
:1043400000210122A0F86A10A0F8621080F88120F4
:10435000FEF7DBFD10BD00002DE9F0411C461646BE
:104360000D460746DDF818800AE000BFFDF776FB32
:10437000A0EB0800A04202D3601C01D00BE054B1B6
:104380003868406935EA000007D00020B042EDD01F
:104390000020BDE8F0810320FBE70120F6E70120C3
:1043A00000F006FCFBE70000502010B580F31188F8
:1043B000BFF34F8FBFF36F8F01F0BAFB18B1044901
:1043C0004FF080500860002080F3118810BD00007D
:1043D00004ED00E030B59DB04C216846FCF7BDF817
:1043E000202113A8FCF7B9F80220FDF707FC1D48AF
:1043F000016821F4404101600168002401F440415A
:104400001B9101688904FCD502200A902823099099
:10441000C20301210C25CDE90012CDE90B03CDE942
:104420000D10CDE910540F9068461294FEF7DAFA99
:1044300008B172B6FEE740201A9008230501CDE9C5
:10444000163013ABCDE918053F21032283E816008F
:1044500013A81146FEF79AF8002801D072B6FEE7BD
:104460001DB030BD184802582748F0B5274A0168EA
:1044700041F470010160106800F00F00072804D2B9
:10448000106820F00F00C01D106021490020204C52
:1044900010340B681F4D43F001030B6020600B6864
:1044A0002B400B60136803F00F03072B04D913682C
:1044B00023F00F03DB1D1360154C174A1834174BFC
:1044C000261D371D2060124C154D28343060261DE6
:1044D0003860371D23603B1D35601C1D3A60251D6B
:1044E0002E1D1860331D22602860326018600A6833
:1044F00043F2D204064B0B4D22F4802260330A6053
:1045000018602C60F0BD000088ED00E00020005233
:10451000004402587FEDF6EA800201010002020227
:104520000000FF01004000520148FFF77CB9000085
:10453000B40F00242DE9F0472A4B4FF0804A2A4D52
:1045400002689842294E2A4F2A4C09D0504507D07C
:10455000A84205D0B04203D0B84201D0A04205D154
:10456000D1F804C022F070024CEA0202DFF888C0E1
:10457000DFF888809842DFF8889015D0504513D036
:10458000A84211D0B0420FD0B8420DD0A0420BD0FB
:10459000604509D0404507D0484505D0194DA8428F
:1045A00002D0194DA84203D1CD6822F440722A43AB
:1045B0004D6922F080022A43026098428A68C262F2
:1045C0000A68826207D0A04205D0604503D040450A
:1045D00001D0484501D10969016301214161BDE86C
:1045E000F087000000000140000400400008004087
:1045F000000C004000040140004001400044014024
:104600000048014000E0004000E4004010B5046AAA
:10461000012301F01F018B409C4304628A40016A20
:104620001143016210BD00002DE9F04F026ADFF86E
:104630008880DFF8889022F00102DFF884A0DFF89C
:1046400084B0214F0262DFF884C0066A4268836941
:1046500026F002060D68B8428C6803EA0C0323F0CA
:10466000030344EA060445EA030507D0404505D0A4
:10467000484503D0504501D0584505D1CB6824F0BA
:104680000804234323F00404B84207D0404505D072
:10469000484503D0504501D0584505D122F4407615
:1046A000D1E9053233431A43426085614968416369
:1046B0000462BDE8F08F00000004014000400140AA
:1046C0000044014000480140000001408FFFFEFF10
:1046D000F0B5026A1E4E1F4C22F01002DFF878E09F
:1046E0000262056A4368826925F02005D1F808C096
:1046F000A0420F6802EA060222F4407245EA0C1555
:1047000042EA072201D0704506D1CE6825F0800527
:1047100045EA061525F04005A0420AD0704508D0AC
:104720000E4CA04205D00E4CA04202D00D4CA0422F
:1047300007D1D1E9054623F4406343EA840343EA01
:10474000860343608261496881630562F0BD0000B1
:10475000FF8FFFFE000001400004014000400140C7
:104760000044014000480140F0B5026A1E4F1F4E50
:1047700022F48072DFF878E00262056A4368C26959
:1047800025F40075D1F808C0B0420C6802EA0702AF
:1047900022F0030245EA0C2544EA020401D07045E8
:1047A00006D1CF6825F4006242EA072222F4806530
:1047B000B0420AD0704508D00E4A904205D00E4A49
:1047C000904202D00D4A904207D123F44052D1E9E1
:1047D000053642EA031242EA06134360C46149689F
:1047E000C1630562F0BD00008FFFFEFF00000140C5
:1047F00000040140004001400044014000480140E5
:10480000F0B5026A174B164F22F4805298420262AA
:10481000046A4268C36924F400548E680D6803EA90
:10482000070323F4407344EA063443EA05230BD01C
:104830000D4DA84208D00D4DA84205D00C4DA84200
:1048400002D00C4DA84204D14D6922F4804242EAC4
:1048500085124260C361496801640462F0BD0000D2
:10486000FF8FFFFE000001400004014000400140B6
:104870000044014000480140F0B5026ADFF854C02E
:1048800022F480320262056A4268446D25F40035E4
:104890000E896045104F0B6804EA070445EA064597
:1048A00043EA04030BD00D4CA04208D00C4CA042AC
:1048B00005D00C4CA04202D00B4CA04204D14C6954
:1048C00022F4803242EA04224260436549688165ED
:1048D0000562F0BD000001408FFFFEFF00040140B3
:1048E000004001400044014000480140F0B5026A28
:1048F000DFF854C022F480120262046A4268436DF9
:1049000024F400140E896045104F0D6803EA070374
:1049100044EA065443EA05230BD00D4DA84208D0C3
:104920000C4DA84205D00C4DA84202D00B4DA84218
:1049300004D14D6922F4802242EA85224260436517
:104940004968C1650462F0BD00000140FF8FFFFEB1
:104950000004014000400140004401400048014083
:10496000FEE7090700284FEA116104DB00F1E020AF
:1049700080F80014704700F00F0000F1E02080F88C
:10498000141D70472DE9F0410024FBF753FE8020F1
:10499000FBF766FF5520FBF763FF5520FBF760FF31
:1049A000FBF740FE9620FBF76CFEFBF743FE8020F2
:1049B000FBF756FF5520FBF753FF5520FBF750FF41
:1049C000FBF730FE9620FBF75CFEFBF733FEB621CB
:1049D0007E20FBF755FFFBF725FE5020FBF745FE39
:1049E000FBF728FE8020FBF73BFF5520FBF738FF45
:1049F0005520FBF735FFFBF715FE9620FBF741FE30
:104A0000FBF718FE8020FBF72BFF5520FBF728FF54
:104A10005520FBF725FF0546FBF704FE9620FBF724
:104A200030FE1E2D02D0FF20BDE8F081184D00BFE2
:104A3000FBF700FE04EB44067719A85D7978FBF7D5
:104A40001FFFFBF7EFFD9620FBF71BFEFBF7F2FDC8
:104A5000A85D40F08000FBF703FF5520FBF700FF47
:104A60005520FBF7FDFE0646FBF7DCFD9620FBF725
:104A700008FE7878B04204D004EB440028448078E3
:104A8000D2E7641CE4B2062CD2D30020CCE70000AD
:104A900070000024F8B5002004468DF80000FBF7F4
:104AA000DBFD00206946FBF7CFFEFBF7CDFD96202E
:104AB000FBF7E7FDFBF7D0FD00206946FBF7C4FEDE
:104AC000FBF7C2FD9620FBF7DCFDFBF7C5FDB62129
:104AD0001420FBF7D5FEFBF7B7FD5020FBF7C5FD13
:104AE000FBF7BAFD00206946FBF7AEFEFBF7ACFD15
:104AF0009620FBF7C6FDFBF7AFFD00206946FBF7EC
:104B0000A3FEFBF7A1FD9620FBF7BBFD9DF800007F
:104B10000F2801D0FF20F8BD154D00BFFBF79CFD0D
:104B200004EB44067719A85D7978FBF7A9FEFBF73B
:104B30008BFD9620FBF7A5FDFBF78EFDA85D694672
:104B4000FBF782FEFBF780FD9620FBF79AFD787855
:104B50009DF80010884204D004EB4400284480787B
:104B6000F8BD641CE4B2062CD8D30020F8BD0000C8
:104B700082000024EFF30580002800D00120704758
:104B8000FCF77AFFFFF726FCFFF76EF9FFF724F931
:104B9000FFF7E2F9FFF712FAFFF73CF900F00FF820
:104BA000FEE7842801464FF0000000D0C81C704783
:104BB00010B500B9012000F035FB002010BD10B584
:104BC00000F0D0FB002010BD012908B501D0002065
:104BD00008BD03210091002243680120114600F026
:104BE000A7FC08BD38B5002405460094FFF7C2FFB6
:104BF00090B16946284600F0CDFD012801D0FF2084
:104C000038BD009888B10A494FF080500860BFF362
:104C10004F8FBFF36F8F08E0002328461A461946CE
:104C200000F008FD012800D0FF24204638BD000018
:104C300004ED00E038B505004FF00000009010D002
:104C4000481C4FF000040ED001B10C46FFF792FF54
:104C5000B8B100216A46284600F0EAFD012816D1C5
:104C600004E0802038BD4FF0FF34EFE7009880B1BA
:104C700009494FF080500860BFF34F8FBFF36F8F2B
:104C800007E02146284600F021FE012801D0FF2040
:104C900038BD002038BD000004ED00E03EB50D46F3
:104CA0000446B0F90800FFF77CFFD4E905122B4653
:104CB0008DE807002269D4E9001000F001FF3EBD35
:104CC0002DE9F041184C0F460546E6682068001DA6
:104CD00000F0E6F938B922680121206992F82C2009
:104CE000914088432061681C07D137B12168BDE835
:104CF000F0410E48091D00F019BA20683544B5424C
:104D00004560216805D2A06B091DBDE8F04100F0A7
:104D1000F5B9606B091D00F0F1F9A06A854200D277
:104D2000A562BDE8F081000020000024DC10002412
:104D30002DE9F041054600F005FA2E4C2E4FA068F3
:104D4000401CA060206810B1606940B32DE0256070
:104D5000A068012829D1002606EB860007EB800019
:104D600000F0BEF9761C072EF6D323488C3000F0F5
:104D7000B7F92148A03000F0B3F91F48B43000F073
:104D8000AFF91D48C83000F0ABF91B48DC3000F02B
:104D9000A7F919488C3060631430A06305E0E86A15
:104DA0002168C96A814200D825600120616A491CD6
:104DB0006162E96A226988401043206101EB810049
:104DC000291D07EB800000F0B1F900F0DBF9606904
:104DD00000280CD02068E96AC06A884207D20749D7
:104DE0004FF080500860BFF34F8FBFF36F8FBDE867
:104DF000F0810000200000240010002404ED00E0F9
:104E000030B4026C0B46002A0BD0D0E902411144A9
:104E1000C160A14201D30168C160184630BCFBF7F4
:104E200025BB30BC70472DE9F041856B1746026CFD
:104E30000446002682B1C7B1E068FBF717FBE168C2
:104E4000206C2268091AE160914202D2A168081A16
:104E5000E060022F16D017E02068A8B9A06800F023
:104E6000CDFE06460020A0600EE06068FBF7FEFA6B
:104E7000D4E90101226C10446060884204D32068A8
:104E8000606001E005B16D1E6D1CA5633046BDE894
:104E9000F0810000124D4FF08057124CDFF848802F
:104EA000A5F1C8060FE000BF00F04CF9E868C06843
:104EB000001D00F0F5F8A068401EA0606068401E6C
:104EC000606000F05FF960680028EDD1306801286B
:104ED000F9D9C8F80070BFF34F8FBFF36F8FF2E7B7
:104EE000C81000242000002404ED00E02DE9F04764
:104EF0009A4681466FF00303DDE9098403EB8202E1
:104F0000089E206B104420F00707780707D0502038
:104F100080F31188BFF34F8FBFF36F8FFEE74FF021
:104F2000000561B1002023180A5C83F834200A5C74
:104F300012B1401C1028F6D384F8435001E084F8E5
:104F40003450072E00D30626E662201DC4E9116501
:104F500000F0D1F804F1180000F0CDF8E564C6F1D6
:104F60000700A06184F850505246246149463846F3
:104F7000646200F07DF8B8F1000F206001D0C8F83D
:104F80000040BDE8F087000010B5044600F0DAF8F4
:104F9000A06B28B15FF0000400F0F4F8204610BDCB
:104FA0000124F9E70648416B096829B1416BC968DA
:104FB000C9684968816270474FF0FF31FAE7000025
:104FC0002000002408484068401C4FF0500080F347
:104FD000118804D0BFF34F8FBFF36F8FFEE7BFF38D
:104FE0004F8FBFF36F8FFEE75C0000242DE9F04187
:104FF000044600F0A7F894F9455004F1240609E0AE
:10500000606A48B1304600F091FE08B100F038F90E
:105010006D1E6DB2002DF3DC4FF0FF3684F8456055
:1050200000F0B0F800F08EF894F9445004F1100745
:1050300009E0206948B1384600F078FE08B100F078
:105040001FF96D1E6DB2002DF3DC84F84460BDE8DD
:10505000F04100F097B800000449086818B10868EA
:10506000826C521C82640868704700002000002493
:1050700070B5041F094E231F4FF0807521F0010108
:1050800025601C1F1960A0F120010B1F2660443809
:105090000A606FF002051D6070BD0000C54F00087A
:1050A000D0E9013201699A60D0E901235A604A6867
:1050B000824201D182684A60002202610868401E73
:1050C000086008687047000010B5044C8023046035
:1050D00004F154000860136010BD00009C0B002414
:1050E0004FF0FF3300F108010022C0E90113026014
:1050F000C1600161704700210161704730B50B68E4
:105100005A1C02D000F1080202E0026904E02246C3
:10511000546825689D42FAD953684B6099608A604B
:10512000516008610168491C016030BD42684A60F5
:1051300093688B6093685960916008610168491CAD
:1051400001607047502080F31188BFF34F8FBFF389
:105150006F8F0A494868401C486001280CD10848F4
:10516000006810F0FF0F07D0502080F31188BFF3C4
:105170004F8FBFF36F8FFEE7704700005C00002485
:1051800004ED00E00849486828B1401E486001D19C
:1051900080F311887047502080F31188BFF34F8F40
:1051A000BFF36F8FFEE700005C0000244FF0E020AB
:1051B000002101614FF47A72816107230349096874
:1051C000B1FBF2F1491E41610361704718000024F0
:1051D00010B5FBF727F9114910280ED300F1E02094
:1051E0000A7890F8F003904207D2502080F311889B
:1051F000BFF34F8FBFF36F8FFEE7094889680068E0
:1052000000F4E060884207D9502080F31188BFF392
:105210004F8FBFF36F8FFEE710BD00005C000024CE
:105220000CED00E0020010B514D00F48006B38B14F
:10523000502080F31188BFF34F8FBFF36F8FFEE7CD
:1052400000F0C6F800211046FFF73AFD00F0A8FD77
:10525000002807D105494FF080500860BFF34F8FF9
:10526000BFF36F8F10BD00002000002404ED00E0AC
:1052700002490A6A0260C968416070472000002440
:1052800001490120C86170472000002410B50C4678
:1052900050B1094909681831FFF730FF2046BDE8D1
:1052A00010400121FFF70CBD502080F31188BFF39F
:1052B0004F8FBFF36F8FFEE72000002470B50028EA
:1052C000044649D0A26CA2B1606C884200D301466A
:1052D000E06A884240D0012A3ED1204D2A6894429B
:1052E0000FD1502080F31188BFF34F8FBFF36F8F22
:1052F000FEE7502080F31188BFF34F8FBFF36F8F0D
:10530000FEE7A269E162002A02DBC1F10701A161A7
:10531000134E00EB8000616906EB800081421BD1D7
:10532000201DFFF7BDFE00284FF0010006D194F8C4
:105330002C20296900FA02F291432961E16A2A6965
:1053400088401043286101EB8100211D06EB80009D
:10535000BDE87040FFF7EABE70BD000020000024E9
:105360000010002410B586B0002405AA04A90394F7
:1053700003A80494FFF7A8FEDDE9030100940023CD
:10538000CDE9011010480EA1059A00F099FB0F49D4
:105390000028C86211D0502080F31188BFF34F8FCE
:1053A000BFF36F8F01224FF0FF3088624A61CC60FB
:1053B00006B0BDE8104000F041B806B010BD0000D6
:1053C00049444C4500000000954E00082000002490
:1053D0000248016B491C0163704700002000002453
:1053E0001448016B11B10121C16170470021C161F5
:1053F00011490269B2FA82F2C2F11F0202EB820283
:1054000051F822306BB101EB820101F108034A68C7
:1054100052684A609A4201D152684A60D16801607C
:105420007047502080F31188BFF34F8FBFF36F8F09
:10543000FEE70000200000240010002437481CB5BF
:10544000374902688A4207D1502080F31188BFF3A0
:105450004F8FBFF36F8FFEE731490068491E8842C6
:1054600007D1502080F31188BFF34F8FBFF36F8FA8
:10547000FEE72C49FF200A780192087008788DF821
:1054800000009DF800209DF8000002F0F00282422A
:1054900007D0502080F31188BFF34F8FBFF36F8F79
:1054A000FEE79DF8002007201F4C02F050022270FA
:1054B000A06005E09DF8002052008DF80020401EFD
:1054C0009DF800201206F5D40328A06007D05020D4
:1054D00080F31188BFF34F8FBFF36F8FFEE74FF458
:1054E0004070A060019808700C482030016841F4B9
:1054F00070010160016841F070410160FFF756FEE4
:1055000000206060FAF756FF0848016841F040410A
:105510000160FAF73BFF00201CBD000000ED00E039
:1055200071C20F4100E400E05C00002434EF00E0B1
:1055300038B5050003D053B1CAB181B120E0502085
:1055400080F31188BFF34F8FBFF36F8FFEE75020BA
:1055500080F31188BFF34F8FBFF36F8FFEE75020AA
:1055600080F31188BFF34F8FBFF36F8FFEE739B120
:10557000502080F31188BFF34F8FBFF36F8FFEE78A
:1055800048201C460090184639B10260C0E90F510E
:10559000012100F005F8204638BD0060F6E7000064
:1055A0002DE9F04704008A4629D0FFF7CBFD21689A
:1055B0000025D4E90F23D4F840C004F110081046A8
:1055C0000E46401E4FF0FF3902FB031200FB0C1089
:1055D000BAF1000FA563666084F8449084F84590A2
:1055E000C4E9022013D04046FFF77AFD04F12400FD
:1055F000FFF776FDFFF7C6FD0120BDE8F0875020DC
:1056000080F31188BFF34F8FBFF36F8FFEE72069E0
:105610000028EFD0404600F089FB0028EAD004497A
:105620004FF080500860BFF34F8FBFF36F8FE1E7FB
:1056300004ED00E02DE9FF4704001D4682B08A46D4
:105640004FF0000803D0BAF1000F08D011E050204D
:1056500080F31188BFF34F8FBFF36F8FFEE7206C8D
:1056600038B1502080F31188BFF34F8FBFF36F8F95
:10567000FEE7022D0AD1E06B012807D0502080F30D
:105680001188BFF34F8FBFF36F8FFEE700F042FA30
:105690003F4F4FF080564FF0000948B9049838B199
:1056A000502080F31188BFF34F8FBFF36F8FFEE759
:1056B000FFF748FDA06BE16B884207D3022D05D0B0
:1056C0000498D0B1B8F1000F1AD01EE02A46514616
:1056D0002046FFF7A8FB616A19B104F1240000F02D
:1056E00025FB20B13E60BFF34F8FBFF36F8FFFF7F5
:1056F00049FD012006B0BDE8F087FFF743FD22E039
:105700006846FFF7B5FD4FF00108FFF73BFDFFF7D7
:105710005FFEFFF717FD94F94400401C01D184F8A7
:10572000449094F94500401C01D184F84590FFF75E
:1057300029FD04A9684600F087F930B12046FFF73B
:1057400055FC00F02DFB0020D4E7FFF7FBFCA06B1D
:10575000E16B884213D1FFF715FD049904F11000A5
:10576000FFF794FD2046FFF741FC00F019FB0028ED
:105770009ED13E60BFF34F8FBFF36F8F98E7FFF767
:1057800001FD2046FFF732FC00F00AFB90E7000025
:1057900004ED00E070B504000E4609D0206C78B12D
:1057A000502080F31188BFF34F8FBFF36F8FFEE758
:1057B000502080F31188BFF34F8FBFF36F8FFEE748
:1057C000206848B9A06838B1502080F31188BFF331
:1057D0004F8FBFF36F8FFEE7FFF7FAFC5020EFF318
:1057E000118580F31188BFF34F8FBFF36F8FD4E91A
:1057F0000E10884218D994F94500491CA163411C38
:1058000004D0401C84F8450001200EE0606A0028A6
:10581000FAD004F1240000F089FA0028F4D0002E18
:10582000F2D001203060EFE7002085F3118870BDD1
:105830002DE9F04704009046894603D0B9F1000FE6
:1058400008D011E0502080F31188BFF34F8FBFF3D1
:105850006F8FFEE7206C38B1502080F31188BFF3C2
:105860004F8FBFF36F8FFEE7FFF7B2FC5020EFF3CF
:10587000118680F31188BFF34F8FBFF36F8FA76B33
:10588000FFB194F9445049462046FFF7B9FA681C25
:10589000A7F10107A76304D06D1C84F844500120D0
:1058A00010E020690028FAD004F1100000F03EFA60
:1058B0000028F4D0B8F1000FF1D00121C8F8001091
:1058C000EDE7002086F31188BDE8F0872DE9F3436A
:1058D0004FF000060400354683B009D0206C78B143
:1058E000502080F31188BFF34F8FBFF36F8FFEE717
:1058F000502080F31188BFF34F8FBFF36F8FFEE707
:1059000000F008F9DFF83C814FF080574FF00009B4
:1059100048B9049838B1502080F31188BFF34F8FF5
:10592000BFF36F8FFEE7FFF70DFCA06BC8B12168D6
:10593000401EA06311B9FFF78FFBA060206950B132
:1059400004F1100000F0F2F928B1C8F80070BFF3BC
:105950004F8FBFF36F8FFFF715FC012005B0BDE837
:10596000F083049808B166B10FE03DB1502080F398
:105970001188BFF34F8FBFF36F8FFEE7FFF702FC75
:105980005EE06846FFF774FC0126FFF7FBFBFFF7BC
:105990001FFDFFF7D7FB94F94400401C01D184F8A8
:1059A000449094F94500401C01D184F84590FFF7DC
:1059B000E9FB04A9684600F047F80028204612D009
:1059C000FFF714FB00F0ECF92046FFF7DDFA0028A2
:1059D000A9D075B3FFF7B6FB606A58B3206B0068B7
:1059E000C0F1070128E0FFF7CFFAE0B1206838B92D
:1059F000FFF7A8FBA06800F051F90546FFF7C2FBCE
:105A0000049904F12400FFF741FC2046FFF7EEFA69
:105A100000F0C6F9002886D1C8F80070BFF34F8F98
:105A2000BFF36F8F7FE72046FFF7E0FA00F0B8F989
:105A300079E705E0FFE70021A068FFF73FFC9DE75D
:105A400000208BE704ED00E02DE9F04105000C4655
:105A500012D0CCB1FFF776FB184E2068F268471CD5
:105A60006B68A2EB030117D02F68366AB74215D0D6
:105A7000934213D801251CE0502080F31188BFF316
:105A80004F8FBFF36F8FFEE7502080F31188BFF375
:105A90004F8FBFF36F8FFEE700250AE0884205D9DC
:105AA000401A20602846FFF7E3FBF5E7002020605E
:105AB0000125FFF767FB2846BDE8F08120000024A0
:105AC000F0B585B00546DDE90B040A9E90B1CCB176
:105AD00020635427002703970DF1100C0096CDE9A1
:105AE00001C42846FFF702FA2046FFF721F904987F
:105AF00005B0F0BD502080F31188BFF34F8FBFF386
:105B00006F8FFEE7502080F31188BFF34F8FBFF3F4
:105B10006F8FFEE70548416919B1006B18B100208D
:105B200070470120704702207047000020000024C9
:105B30002DE9F0412F4C206B002728B1A069401CB3
:105B4000A0613846BDE8F081E668761CE66013D1B6
:105B5000606B006838B1502080F31188BFF34F8F1D
:105B6000BFF36F8FFEE7606BA16B6163A063206A78
:105B7000401C2062FFF716FADFF87C80A06A86429C
:105B800009D3606B0068A0B1606BC068C5686868C5
:105B9000864211D2A0622068C06A00EB800158F8EA
:105BA0002100012800D90127E0690028C9D0012778
:105BB000C7E74FF0FF30EDE7281DFFF771FAA86A3D
:105BC00018B105F11800FFF76BFAE96A01202269A4
:105BD00088401043206101EB810108EB8100291D01
:105BE000FFF7A4FA2068E96AC06A8142C9D3012795
:105BF000C7E70000200000240010002470B5044610
:105C00004FF00001F0B3234D2868844207D05020A4
:105C100080F31188BFF34F8FBFF36F8FFEE7A06C47
:105C200038B1636C401EE26AA0649A422FD040B142
:105C30002DE0502080F31188BFF34F8FBFF36F8F9B
:105C4000FEE7201DFFF72CFA134900284FF0010052
:105C50000AD1E26A02EB820351F8233023B92B699F
:105C600000FA02F293432B61626CC2F10703A36155
:105C7000E2622B6990401843286102EB820001EB3D
:105C8000800000E003E0211DFFF750FA01210846E3
:105C900070BD0000200000240010002470B5002812
:105CA00004464FF0000036D01E4DE16A2A68D26AE1
:105CB000914231D2A069002804DB2868C06AC0F193
:105CC0000700A061184E01EB8101606906EB8101BC
:105CD00088421CD1201DFFF7E3F900284FF0010096
:105CE00006D194F82C20296900FA02F29143296127
:105CF0002968C96AE1622A6988401043286101EB7A
:105D00008100211D06EB8000FFF710FA02E02868F1
:105D1000C06AE062012070BD2968626CC96A8A426B
:105D2000F8D370BD20000024001000242DE9F041BC
:105D3000C068C468ACB104F118000746FFF7B0F9B9
:105D4000154D0126286BA0B114483946FFF7EEF92E
:105D5000E06A2968C96A88421CD90120EE61BDE861
:105D6000F081502080F31188BFF34F8FBFF36F8F06
:105D7000FEE7201DFFF794F9E06A2A6906FA00F1B0
:105D800011432961054900EB8000B43901EB800023
:105D9000211DDBE70020E2E720000024B4100024EE
:105DA0002DE9F0472C4D286B0024264638B1FFF72B
:105DB000C9F9286B401E2863286B40B147E050208A
:105DC00080F31188BFF34F8FBFF36F8FFEE7234F30
:105DD0000120A968D9B3A7F1B40980463868E8B1B1
:105DE000F868C46804F11800FFF75AF9201DFFF79E
:105DF00057F9E16A2A6908FA01F01043286101EBBA
:105E0000810109EB8100211DFFF790F92968E06A03
:105E1000C96A8842E2D3C5F81C80DFE70CB1FFF7FE
:105E2000C1F8AC6944B14746FFF782FE00B1EF61AB
:105E3000641EF9D10020A861E86940B10849012633
:105E40004FF080500860BFF34F8FBFF36F8FFFF7A5
:105E500099F93046BDE8F08720000024B4100024F2
:105E600004ED00E04FF04070E1EE100A70470000D2
:105E700000000000540B0024C85E00089F43000887
:105E8000000000000000000080000000AC000024C2
:105E9000AC020024D45E0008E93C000802000000C7
:105EA000000000000002000000030024000B00249A
:105EB0000006101600061016000000000102030480
:105EC000010203040607080964656661756C745471
:105ED00061736B00696D7554656D704374726C000D
:105EE000005F000800000024AC0000000803000868
:105EF000AC5F0008AC000024BC1A000024030008BA
:105F00000000000000000000000000000100000090
:105F100010000000000000000090D0030090D003AB
:105F20000000000000000000000000000000000071
:105F30000000000000000000000000000000000061
:105F40000000000000000000000000000000000051
:105F50000000000000000000000000000000000041
:105F6000AAAAAAAA00000000E7416B3A58A08B3AFF
:105F70007D04017C000240AB034100055308065834
:105F800004070F000810820911000A15800B160083
:105F90000C18010D000000000000000000000000CF
:0C5FA000000000000000000000000000F5
:04000005080002CD20
:00000001FF
