:020000040800F2
:10000000800800246D030008672A0008A128000862
:10001000652A0008D70400080D2E00080000000023
:10002000000000000000000000000000AD2C0008EF
:10003000D904000800000000692A0008AF2C00085D
:100040008703000887030008870300088703000868
:100050008703000887030008870300088703000858
:100060008703000887030008870300088703000848
:100070008703000887030008870300088703000838
:10008000870300088703000887030008E1040008CD
:10009000F9040008ED0400080505000887030008BE
:1000A0008703000887030008870300088703000808
:1000B00087030008870300088703000887030008F8
:1000C00087030008870300088703000887030008E8
:1000D00087030008870300088703000887030008D8
:1000E000870300088703000800000000870300085A
:1000F00087030008870300088703000887030008B8
:1001000087030008870300088703000887030008A7
:100110008703000887030008870300088703000897
:100120008703000887030008870300088703000887
:100130008703000887030008870300088703000877
:1001400000000000000000000000000000000000AF
:100150008703000887030008870300088703000857
:100160008703000887030008870300088703000847
:1001700087030008870300088703000800000000C9
:100180008703000887030008870300088703000827
:100190008703000887030008870300088703000817
:1001A0008703000887030008870300080000000099
:1001B00087030008870300088703000887030008F7
:1001C000870300088703000800000000000000000B
:1001D000000000000000000087030008000000008D
:1001E000000000000000000000000000000000000F
:1001F00000000000000000008703000887030008DB
:100200008703000887030008000000008703000838
:100210008703000887030008870300088703000896
:1002200087030008000000008703000800000000AA
:100230008703000887030008000000008703000808
:100240008703000887030008870300088703000866
:100250008703000887030008870300088703000856
:100260008703000887030008870300088703000846
:1002700087030008870300088703000800000000C8
:100280008703000887030008870300088703000826
:10029000000000008703000887030008000000003A
:1002A0000000000087030008870300088703000898
:1002B000870300088703000887030008110500086A
:1002C0001D050008870300088703000800F002F8F6
:1002D00000F03CF80AA090E8000C82448344AAF1A4
:1002E0000107DA4501D100F031F8AFF2090EBAE8A2
:1002F0000F0013F0010F18BFFB1A43F0010318475A
:10030000182E0000382E0000103A24BF78C878C19B
:10031000FAD8520724BF30C830C144BF04680C600B
:10032000704700000023002400250026103A28BF53
:1003300078C1FBD8520728BF30C148BF0B60704757
:100340001FB502F0ADFE1FBD10B510BD00F08AF85C
:100350001146FFF7F5FF02F02DFE00F0A8F803B4F8
:10036000FFF7F2FF03BC00F0AFF800000948804738
:1003700009480047FEE7FEE7FEE7FEE7FEE7FEE787
:10038000FEE7FEE7FEE7FEE704480549054A064B9F
:10039000704700004D2D0008CD02000880020024A7
:1003A00080080024800400248004002410B5203A32
:1003B000C0F00B80B1E81850203AA0E81850B1E81E
:1003C0001850A0E81850BFF4F5AF5FEA027C24BFD4
:1003D000B1E81850A0E8185044BF18C918C0BDE8CB
:1003E00010405FEA827C24BF51F8043B40F8043B94
:1003F00008BF7047D20728BF31F8023B48BF11F849
:10040000012B28BF20F8023B48BF00F8012B7047A2
:100410004FF0000200B5134694469646203922BF9D
:10042000A0E80C50A0E80C50B1F12001BFF4F7AFE8
:10043000090728BFA0E80C5048BF0CC05DF804EBCA
:10044000890028BF40F8042B08BF704748BF20F838
:10045000022B11F0804F18BF00F8012B7047704736
:1004600070477047754600F02BF8AE4605006946A8
:10047000534620F00700854618B020B5FFF784FFEB
:10048000BDE820404FF000064FF000074FF0000895
:100490004FF0000B21F00701AC46ACE8C009ACE816
:1004A000C009ACE8C009ACE8C0098D46704710B57A
:1004B0000446AFF300802046BDE81040FFF74FBF71
:1004C000004870472002002401491820ABBEFEE717
:1004D000260002007047FEE7704772B6FEE7000094
:1004E000014800F015BB000040000024014800F066
:1004F0000FBB000040000024014800F009BB0000D1
:10050000E0000024014800F003BB0000E0000024EC
:10051000014800F0FDBA000080010024014800F00D
:10052000F7BA000080010024F0B503684FF6FC71B3
:100530006D4C426BD3F884508D4345EA8205C3F875
:100540008450036853F8845F068F25F47F0545EADD
:1005500006451D60836B654D9F180268D2F8883090
:100560008B4343EA8703C2F88830026852F8883F19
:10057000868F23F4FE0343EA06431360066856F8A9
:10058000A03FC26B8B4307EB420243EA8203336016
:10059000076857F8A03FB0F8406023F4FE0343EA31
:1005A00006433B60D0E9103603FB06220368D3F80C
:1005B000B0608E4346EA8206C3F8B0600368B0F8C4
:1005C0004860D3F8B07027F4FE0747EA0646C3F840
:1005D000B060D0E91267036806FB0722D3F8AC606D
:1005E0008E4346EA8206C3F8AC60D0E9146703681C
:1005F00006FB0722D3F8F0608E4346EA8206C3F872
:10060000F0600368B0F85860D3F8F07027F47C17F6
:1006100047EA0646C3F8F0600368876D53F8C06F79
:1006200002EB47028E4346EA820119600168B0F886
:100630005C20D1F8C03023F47C1343EA0242C1F8B5
:10064000C020016890F86020D1F8C03023F07C53BE
:1006500043EA0262C1F8C020416B04EB8101C1662C
:10066000826B01EB82020267C36B02EBC30242673B
:10067000D0E91034634302EB83028267D0E912347D
:10068000634302EB8302C267D0E91434634302EB95
:100690008302C0F88020836D02EBC303C0F884306E
:1006A000C46D826E544303EB8403C0F88830046E3B
:1006B000544303EB8402C0F89020AA420AD9D0F830
:1006C0009C20032142F02002C0F89C2080F8981062
:1006D0000120F0BD002200E004C1D0F890308B4230
:1006E000FAD80020F0BD000000AC0040FCD3004070
:1006F000F0B58E680C69D1E9005744EA0604DFB111
:1007000045F080452C43866ED1E906C54F695E43AE
:1007100091F8203045EA0C05B1F80CC0D0F884E01F
:10072000002047EA03630C4F1D430EEB860345EAA6
:100730000C45E3E802450AE044EA8544E3E714187F
:10074000155C001DD4F8014045EA042410C3CC68B0
:100750003C5D8442F3D8F0BDAC30000870B504466F
:1007600000F0BCFE0546601C02D00448007804443A
:1007700000F0B4FE401BA042FAD370BD0C00002470
:1007800010B590F89830012B09D0022B07D0D0F883
:100790009C1041F00201C0F89C10012010BD0368BC
:1007A0009C6D0C4203D1DC6D44F0010404E09C6DAF
:1007B00031EA04041FD00324DC658B0505D50368EA
:1007C000D3F8E0401443C3F8E0404B0505D5036877
:1007D000D3F8E4401443C3F8E4400068084A01EA4F
:1007E0000203446D074A1C434465106840EA917057
:1007F0001060002010BDDC6D44F00204DCE7000056
:10080000FFFFCF3F14A8004070B5044690F8980051
:10081000022804D0D4F89C0040F008000DE02068C5
:10082000D0F8C03013F07C5F0BD0D0F8C4309B02FE
:100830000CD5D4F89C0040F40070C4F89C00012052
:1008400070BDD4F89C0040F02000F6E7D0F8C4005A
:10085000C0F3044520462B46FFF74AFF21680120DC
:10086000A840C1F8D000C4F89400002070BD7047C3
:1008700090F89830012B07D0D0F89C1041F004017B
:10088000C0F89C100120704761B10068012913D0A5
:10089000D0F8B01021F0FE4141EA0261C0F8B0107A
:1008A000002070470068D0F8F01021F07C5141EA38
:1008B0000261C0F8F010F3E7D0F8A01021F0FE417B
:1008C00041EA0261C0F8A010EAE770B590F89820FC
:1008D000012A09D0022A07D0D0F89C1041F0020169
:1008E000C0F89C10012070BD0B68CA6883B10B6909
:1008F000072A43EA427325D00C7A4A6942EA847295
:100900004968006F00EBC100C0E90032002070BDF3
:10091000072A0DD00C7AD6060D8A4B6943EA8472F9
:1009200046EA0543C06E49681A4340F82120EDE7C6
:100930000B8A4FF06055D1E9062442EA034245EAAA
:100940000423EFE78A69DBE730B590F89850039C01
:10095000012D07D0D0F89C1041F00401C0F89C1084
:10096000012030BD0D01016845EA820040EA4300E4
:100970002043C1F88000002030BD70477047000060
:10098000F0B590F898500024022D04D0D0F89C10B7
:1009900041F0080129E0402905D0412929D0056D01
:1009A0008D4219D942E00568D5F8A06016F4FE0F13
:1009B00012D0D5F8A460760613D0D5F8A460F6015D
:1009C00005D5D5F8A06016F0004F00D50124D5F864
:1009D000A470466F456C24E0D0F89C1041F02001D3
:1009E00003E0D0F89C1041F48071C0F89C10012005
:1009F000F0BD0568D5F8B06016F4FE0FECD0D5F860
:100A0000B4607606EDD0D5F8B460F60105D5D5F81A
:100A1000B06016F0004F00D50124D5F8B470866F91
:100A2000C56CC7F305273C44654302E0456DC66FBE
:100A30004D4306EB85052E6816F0804656602E68FD
:100A400036D026F060461660D5F800C000262E4F3E
:100A50000CF0005CC2F808C0D5F800C00CF0004CE7
:100A6000C2F810C0B5F804C01FFA8CFCC2F81CC054
:100A7000D5F804C0CCF3034CC2F80CC0D5F804C0C0
:100A80000CF4801CC2F814C0D5F804C00CF4001C8F
:100A9000C2F818C0D5F804C0CCF3066CC2F820C068
:100AA000D5F804C008354FEADC7CC2F824C008E061
:100AB000C6F38A46C7E700BF15F806C003F806C0AC
:100AC000761CD2F80CC017F80CC0B445F4D84029F5
:100AD0000AD041290CD020294FF001020CD2006825
:100AE0008A40C0F898200DE00068C0F8A84009E0EE
:100AF0000068C0F8B84005E0006801F01F018A40B6
:100B0000C0F89C200020F0BDAC3000087047000009
:100B10002DE9FF5FDFF80CB304460BF10401DBF8AD
:100B2000000025680F68AA468007D5F85090696DC7
:100B3000D5F850806E6D2A6DD5F854C02B6D00EA43
:100B40008770009009F470496F6D286D01EA090102
:100B50000191DAF85410DAF85490DAF8505008F0AD
:100B60000F0806EA0806029602F0F00203F071533D
:100B70006FEA09061F4000F060700CEA020CCDF825
:100B80000CC0F20501EA00090CD4E843C00509D401
:100B900000214FF48073CAF85030CBF80010204683
:100BA000FFF7B4FF700512D4E84340050FD4206866
:100BB00000234FF48068D0F8DC20D0F8E410C0F8AF
:100BC0005080CBF800301140204600F075FBDFF874
:100BD00058A2009850B12268830F00EA0A001065FD
:100BE000CBF8003020460099FFF741FE019850B144
:100BF0002268830F00EA0A001065CBF80030204617
:100C0000019900F05BFB029850B12268830F00EA63
:100C10000A001065CBF800302046029900F012FB64
:100C2000039850B12268830F00EA0A001065CBF8E0
:100C300000302046039900F01FFB30050CD4E84338
:100C4000000509D4236800204FF400621A65CBF830
:100C50000000204600F033FBB00512D4E8438005C5
:100C60000FD4206800234FF40078D0F8D820D0F8B3
:100C7000E010C0F85080CBF800301140204600F062
:100C80001CFB30030CD4E843000309D42368002084
:100C90004FF400221A65CBF80000204600F0D0FA8D
:100CA000F0030CD4E843C00309D4236800204FF4B8
:100CB00080321A65CBF80000204600F0FCFA700381
:100CC0000CD4E843400309D4226800204FF4802369
:100CD0001365CBF80000204600F0ECFAB0030FD407
:100CE000E84380030CD4236800204FF400321A65D7
:100CF000CBF80000D4F89C0040F08000C4F89C00C1
:100D0000B9F1000F0BD022684FEA997309EA0A0083
:100D10001065CBF8003049462046FFF72FFE5FB143
:100D20002268BB0F07EA0A001065CBF80030D4F840
:100D30009C003843C4F89C003C492068884268D134
:100D4000606881468068800763D0D9F82060D9F850
:100D50002410D9F82080D9F82400D9F820C0D9F877
:100D60002470D9F82030D9F82450D9F8202003F481
:100D7000FC4306F00F0AD9F824601D40D9F824B0CE
:100D800008F030080CF4C07C02F4F02211EA0A01E9
:100D900000EA080807EA0C0706EA0206D9F820A0CC
:100DA00004D0C9F82010204600F081FAB8F1000004
:100DB00005D0616808624146204600F07AFA6FEA81
:100DC0000B0040060ED46FEA0A0040060AD46068A1
:100DD0004021C36BC26B01622046190C02F03F0236
:100DE00000F066FA2FB1606807623946204600F0CD
:100DF0005DFA35B160680562D4F89C002843C4F8F8
:100E00009C0036B160680662D4F89C003043C4F898
:100E10009C00D4F89C00002802D02046FFF7ADFDCE
:100E2000BDE8FF9F10A80040FFFFCF3F00A000409B
:100E30002DE9F04194B08D494C2204466846FFF7F5
:100E4000B5FA64B18A4D2068A84202D100F58070DD
:100E5000606094F898004FF0000820B108E001208D
:100E600014B0BDE8F081204684F8998000F002F9C2
:100E70002068816921F01001816100F02FFB0327B8
:100E8000064604E000F02AFB801B0A2811D82068DF
:100E900080690007F6D42068816941F00101816111
:100EA00000F01CFB06460DE000F018FB801B0A2832
:100EB00008D9D4F89C0040F00100C4F89C0084F8E4
:100EC0009870CCE720688069C007EDD02068816900
:100ED00041F002018161207C01282068816937D0BE
:100EE00041F040018161607C01282068816932D035
:100EF00021F480418161A07C0128206881692DD086
:100F000041F4805181612068A268816921F44071B7
:100F1000114381612068816921F0A4018161206809
:100F2000016921F010010161E068012819D010B3B6
:100F300002281BD02068816941F08001816120680E
:100F4000016941F010010161E06803280ED012E050
:100F500021F04001C6E741F48041CBE721F4805104
:100F6000D0E72068816941F0040103E020688169CD
:100F700041F020018161207E6FF0FF02D4E9077308
:100F8000A68A1102400602EB0727A0F10070384341
:100F900027685B1E184301EB06463043F861A068E2
:100FA000B0F5407F11D104F12800A68C6FF00F0C32
:100FB00089C801EB0641401E02EB03221043226860
:100FC0000CEB071318430843D060206E30B1206843
:100FD000626ED0F8C0101143C0F8C010D4E91712E7
:100FE0006846D14209D02168A36E51F8C82F50F845
:100FF000233022F007021A430A60216C49B12168AC
:10100000626C51F8BC3F50F8226023F00702324373
:101010000A60A16C51B12168E36C51F8BC2F50F803
:10102000233022F0700242EA03120A60216D51B1AE
:101030002168626D51F8BC3F50F8220023F4E06251
:1010400042EA002008602068A84204D160688168F4
:1010500021F003018160C4F894800121C4F89C80D0
:1010600084F898102046FFF75FFAF9E6BC300008D4
:1010700000A000402DE9F047B4B0814614212EA80D
:10108000FFF7C6F9B8216846FFF7C2F9664C00269B
:10109000D9F800004FF08051644A0C3C614F4FF08A
:1010A0000208614D9042DFF888A14FF0090938D15C
:1010B00000201B914A13CDE90020684600F0E2FAB7
:1010C00008B1FFF70AFA3868401C3860012807D1D8
:1010D000286840F480702860286800F4807033909D
:1010E000206840F008002060206803222E922EA97C
:1010F00000F00800CDE92F863196CDE932905046B8
:1011000000F0DEF800221320114600F05FFA1320F1
:1011100000F04EFA00221520114600F057FA152073
:101120003BE0444A90423DD100201B914FF40042E5
:10113000CDE90020684600F0A5FA08B1FFF7CDF927
:101140003868401C3860012807D1286840F4807056
:101150002860286800F480703390206840F0020016
:101160002060206860222E922EA900F00200CDE9B6
:101170002F863196CDE932902F4800F0A1F8002259
:101180001420114600F022FA142000F011FA002277
:101190001620114600F01AFA162000F009FA34B0B1
:1011A000BDE8F087254A9042F9D100201B914FF409
:1011B0000042CDE90020684600F064FA08B1FFF76C
:1011C0008CF93868401C3860012807D1286840F441
:1011D00080702860286800F480703390206840F0A8
:1011E0000800206020684FF440512E91052200F045
:1011F0000800CDE92F862EA93196CDE93220504640
:1012000000F05EF800229F20114600F0DFF99F20D9
:1012100000F0CEF90022A020114600F0D7F9A0205E
:10122000BBE7000008000024EC44025800A0004086
:10123000000C025800A400400004025800D40040F2
:101240007047000010B504460848844201D101F0FF
:1012500033FE0748844201D101F038FE054884423C
:1012600003D1BDE8104001F03BBE10BD400000249A
:10127000E000002480010024704790F898100129B4
:1012800007D0D0F89C1041F00401C0F89C10012058
:101290007047022180F89810002201688B6923F0C2
:1012A00001038B61C0F89C2010467047704770475F
:1012B0007047704770477047704770477047704776
:1012C0002DE9F84F03247A4D00234FF001094FF028
:1012D000B04B4FF00F0AE4E009FA03F6324078D041
:1012E0000F7907F00307012F01D0022F1AD1876869
:1012F0004FEA430ED1F80CC004FA0EF827EA0807AB
:101300000CFA0EFC4CEA070CC0F808C0476891F8CC
:1013100004C0B743CCF3001C0CFA03FC4CEA070CE6
:10132000C0F804C00E79F643B6070BD0C6684FEA82
:1013300043088F6804FA08FC26EA0C0607FA08F747
:101340003743C7600E7906F00306022E12D1DE087D
:101350000F694FEA437C00EB8606B646366A4FEAD1
:10136000DC6C0AFA0CF807FA0CF726EA0806374391
:10137000CEF820700F7906684FEA430807F003079C
:1013800004FA08FC07FA08F726EA0C063743076058
:101390004E6816F4403F1CD0464E376847F00207AF
:1013A000376036689F0706F00206009623F00306B2
:1013B00006F1B046B6463F0FD6F80864DFF8F8806D
:1013C0000AFA07FC404526EA0C0603D14FF0000C50
:1013D0003AE065E0DFF8E4C0604502D14FF0010C6F
:1013E00032E0DFF8DCC0604502D14FF0020C2BE0A8
:1013F000DFF8D0C0604502D14FF0030C24E0DFF8E5
:10140000C8C0604502D14FF0040C1DE0DFF8BCC03D
:10141000604502D14FF0050C16E0DFF8B4C060451E
:1014200002D14FF0060C0FE0DFF8A8C0604502D1F2
:101430004FF0070C08E0DFF8A0C0604502D14FF084
:10144000090C01E04FF00A0C0CFA07FC4CEA060C00
:10145000CEF808C44F68DBF80060FF0226EA0206F7
:1014600000D516435F46CBF80060D1F804C0DBF826
:1014700004605FEA8C2C26EA020600D516437E60E3
:101480006E684F6826EA0206BF0300D516436E60F9
:101490002E684F6826EA0206FF0300D516432E6029
:1014A0005B1C0A6832FA03F67FF416AFBDE8F88FCA
:1014B00080000058F444025800000258000402580A
:1014C00000080258000C025800100258001402587C
:1014D00000180258001C0258002402580148806875
:1014E000704700000C000024024881680278114413
:1014F000816070470C000024032010B500F086F8CE
:1015000000F08CFE0F4A104914681368C4F30322DC
:1015100003F00F038A5CC95C02F01F0201F01F0197
:10152000D0400A4A20FA01F11160094908600F20F1
:1015300000F010F808B1012010BD00F02BF80020D9
:1015400010BD000018440258083100081C00002497
:101550001800002470B50D4D04462878A0B14FF452
:101560007A71B1FBF0F00A490968B1FBF0F001F0C3
:1015700084F948B9102C07D200222146501E00F0F1
:1015800025F800206C6070BD012070BD0C000024A7
:1015900018000024054808B5016841F00201016007
:1015A000006800F00200009008BD0000F4440258FA
:1015B000002809DB410900F01F028900012001F128
:1015C000E0219040C1F80001704700000E4BF0B4DC
:1015D0001B680D46C3F30223C3F10706042E00D98E
:1015E0000426191D072901D2002300E0DB1E012477
:1015F00004FA06F19C40491E2940641E994014409B
:101600002143F0BC01F003BC0CED00E0064900F002
:10161000070210B54FF6FF040868044B204040EA6B
:1016200002201843086010BD0CED00E00000FA0530
:10163000134970B50A68D243520705D5096801F00D
:101640000701814213D118E00A6822F00702024321
:101650000A60FFF743FF0A4D4FF47A760446083DCF
:1016600007E000BFFFF73AFF001BB04201D901209D
:1016700070BD2868C0438004F4D4002070BD000011
:101680000C4802582DE9FE4F0546DFF800A450F83B
:10169000081B0024FD4FC943019005F12800264690
:1016A0000AF1240A009008011DD4686E50B1B0F50B
:1016B000801F0CD0B0F5001F0ED0B0F5401F1ED01B
:1016C00001240FE0386840F40030386017E00198DA
:1016D000022101F0CBF903E00098022101F056FA53
:1016E00004000CD026462888C043C00523D4A86D2A
:1016F00005281ED2DFE800F00C11161B1B006A6ED5
:10170000DAF8001021F440111143CAF80010EAE79A
:10171000386840F40030386009E00198002101F099
:10172000A5F903E00098002101F030FA0446C4B1A5
:1017300000E0012426462888DFF85083C04308F1E2
:101740002C0840052FD4D5F8A400B0F5C00F28D040
:1017500010DCB8B1B0F5001F19D0B0F5800F0FD173
:101760001AE0AA6DDAF8001021F007011143CAF857
:101770000010E0E7B0F5000F13D0B0F5200F10D047
:1017800001240FE0386840F40030386009E0019827
:10179000002101F06BF903E00098002101F0F6F957
:1017A000044694B126462888C043000530D4D5F8B5
:1017B000A800B0F1407F29D011DCC0B1B0F1807F2A
:1017C0001AD0B0F1007F10D11BE0D5F8A420D8F8D2
:1017D000001021F460011143C8F80010E3E7B0F1F4
:1017E000806F13D0B0F1A06F10D001240FE03868E3
:1017F00040F40030386009E00198002101F036F92A
:1018000003E00098002101F0C1F9044694B1264696
:101810002868DFF878B2C0430BF1200B80011FD499
:10182000E86CD8B110280FD0202812D0302815D05D
:10183000012414E0D5F8A820D8F8001021F0E061C8
:101840001143C8F80010E3E7386840F4003038600E
:1018500004E00198022101F009F9044674B126461A
:101860002888C043C0042BD4E86DB0F5005F20D0B9
:101870000DDCA0B1B0F5805F0FD115E0EA6CDBF8AC
:10188000001021F030011143CBF80010E8E7B0F56B
:10189000405F13D0B0F5804F10D001240FE03868BE
:1018A00040F40030386009E00198002101F0DEF8D2
:1018B00003E00098002101F069F904468CB1264646
:1018C0002888C043800429D4286EB0F5403F23D037
:1018D00010DC08B3B0F5803F14D0B0F5003F0FD155
:1018E00015E0EA6DDAF8001021F4E0411143CAF87E
:1018F0000010E5E7B0F5802F0ED0B0F5A02F0BD08B
:1019000001240AE00198012101F0B0F803E00098F9
:10191000012101F03BF9044694B126462888C043D2
:1019200040042AD4D5F8AC00B0F1405F23D010DCDD
:1019300008B3B0F1805F14D0B0F1005F0FD115E0B3
:101940002A6EDAF8001021F4E0211143CAF80010E1
:10195000E4E7B0F1804F0ED0B0F1A04F0BD00124DE
:101960000AE00198012101F081F803E000980121CB
:1019700001F00CF9044674B126462888C0430004DF
:101980001FD4E86ED8B1B0F1805F0ED0B0F1005F27
:1019900010D0012414E0D5F8AC20D8F8001021F0C4
:1019A000E0411143C8F80010E7E7386840F4003020
:1019B000386004E00198012101F058F8044674B140
:1019C00026462868C043C0011ED4A86CD0B10128A7
:1019D0000ED0022811D0032814D0012413E0EA6E9F
:1019E000DAF8001021F040511143CAF80010E8E77E
:1019F000386840F40030386004E00198022101F0BA
:101A000035F804466CB126462868C043400255D4D8
:101A10001F48016841F480710160FFF75FFD814656
:101A20000EE0AA6CDBF8001021F003011143CBF8A3
:101A30000010E9E7FFF752FDA0EB090064283BD84E
:101A400013480068C005F5D5BCBBDFF84090B5F879
:101A5000B01009F14409D9F8000001F4407100F414
:101A60004070884211D0D9F80010D9F8002021F434
:101A7000407142F48032C9F80020D9F8002022F4E5
:101A80008032C9F80020C9F8001003E02C44025845
:101A900000480258D5F8B000B0F5807F19D1FFF7A3
:101AA0001DFD029011E000BFFFF718FD0299411AD9
:101AB00041F28830814208D9032426462878DFF88D
:101AC0001494C043C00721D03CE0D9F8000080073F
:101AD000EAD5D5F8B010C1F301200328FE480DD097
:101AE000016821F47C510160B5F8B020D9F80010EC
:101AF000C2F30B021143C9F80010DFE7F74A03688D
:101B000002EA111223F47C511143ECE7A86F182864
:101B100016D005DCA0B1082808D0102804D10AE0AE
:101B200020280DD028280BD001240AE0019801219B
:101B300000F09CFF03E00098012101F027F8044623
:101B400064B126462878C04380071ED4686F0628F3
:101B500019D2DFE800F0160C11161616AA6FD9F884
:101B6000001021F038011143C9F80010EAE701988C
:101B7000012100F07BFF03E00098012101F006F84D
:101B800004467CB100E0012426462878C043400783
:101B90001FD4D5F89000062819D2DFE800F0160C03
:101BA000111616166A6FD9F8001021F007011143BB
:101BB000C9F80010E9E70198012100F057FF03E0A0
:101BC0000098012100F0E2FF0446A4B100E00124E6
:101BD00026462878C04380062BD4D5F88C00B0F177
:101BE000405F24D011DC10B3B0F1805F15D0B0F1AC
:101BF000005F10D116E0D5F89020D8F8001021F041
:101C000007011143C8F80010E3E7B0F1804F0ED090
:101C1000B0F1A04F0BD001240AE00198002100F0A0
:101C200025FF03E00098022100F0B0FF044694B1C4
:101C300026462878C04340062BD4D5F89800B0F546
:101C4000406F24D011DC10B3B0F5806F15D0B0F523
:101C5000006F10D116E0D5F88C20D9F8001021F0D3
:101C6000E0411143C9F80010E3E7B0F5805F0ED002
:101C7000B0F5A05F0BD001240AE00198002100F02C
:101C8000F5FE03E00098022100F080FF044694B1C5
:101C900026462878C04300062BD4D5F89C00B0F522
:101CA000C04F24D011DC10B3B0F5005F15D0B0F5F3
:101CB000804F10D116E0D5F89820D8F8001021F404
:101CC000E0511143C8F80010E3E7B0F5004F0ED023
:101CD000B0F5204F0BD001240AE00198002100F05C
:101CE000C5FE03E00098022100F050FF044654B105
:101CF00026462878C04300071ED4D5F88000B0F5EA
:101D0000805F0AD00FE0D5F89C20D8F8001021F4AD
:101D100060411143C8F80010EBE70098022100F081
:101D200035FF00B10126D5F88020D9F8001021F444
:101D300040511143C9F800102878C043C00613D49D
:101D4000D5F89400B0F5807F05D10098022100F00D
:101D50001DFF00B10126D5F89420D8F8001021F419
:101D600040711143C8F800102868C043000316D41E
:101D7000D5F8A00038B1B0F5803F09D0B0F5003FEC
:101D80000BD001240AE00198002100F06FFE03E06F
:101D90000098022100F0FAFE04468CB1264628681D
:101DA000C043400322D4D5F88400B0F5801F11D081
:101DB000B0F5001F13D0B0F5401F15D0012414E07A
:101DC000D5F8A020D8F8001021F440311143C8F80C
:101DD0000010E4E7386840F40030386004E0009810
:101DE000012100F0D3FE04465CB126462868C043BA
:101DF000C0031CD4286D70B1B0F5803F10D0012411
:101E000014E0D5F88420D9F8001021F440111143D2
:101E1000C9F80010EAE7386840F40030386004E0A0
:101E20000198022100F022FE0446DCB12646286813
:101E3000C043800005D40098022100F0A7FE00B145
:101E400001262868C04380031BD4E86FB8B1B0F501
:101E5000807F10D0B0F5007F11D0B0F5407F0ED05C
:101E600001240DE02A6DDBF8001021F480311143CC
:101E7000CBF80010DBE7386840F4003038607CB302
:101E800026462868C043C00207D42A6FDAF800103B
:101E900021F000411143CAF800102868C0438002B5
:101EA00007D4AA6EDAF8001021F080711143CAF845
:101EB00000102868C043400009D40748016821F495
:101EC000004101600168D5F8B42011430160286821
:101ED000C04306E05444025810440258CFFFFF00AC
:101EE0001DE007D46A6DDBF8001021F0405111436A
:101EF000CBF800102868C043000208D4D5F8882029
:101F0000D9F8001021F440011143C9F800102879D4
:101F10000024C04300F00100204309D00EE0EA6F26
:101F2000D9F8001021F440711143C9F80010A8E756
:101F30000198002100F09AFD00B106462879C043BF
:101F400000F00200204305D10198012100F08EFD30
:101F500000B106462879C04300F00400204305D1B3
:101F60000198022100F082FD00B106462879C043A5
:101F700000F00800204305D10098002100F006FE83
:101F800000B106462879C04300F01000204305D177
:101F90000098012100F0FAFD00B106462879C043FF
:101FA00000F02000044304D10098022100F0EEFD6F
:101FB00000B916B10120BDE8FE8F0020FBE700004C
:101FC0002DE9F05F04000F467ED0DFF83882D8F8A4
:101FD000000000F00F00B8420CD2D8F8001021F039
:101FE0000F013943C8F80010D8F8000000F00F00C6
:101FF000B84269D12078844D40070AD52069296804
:1020000001F07001884204D9296821F07001014370
:10201000296020787C4E361D00070AD5606931683A
:1020200001F07001884204D9316821F07001014348
:1020300031602078C0060AD5A069316801F4E061FA
:10204000884204D9316821F4E0610143316020788D
:10205000DFF8B4B180060BF1080B0CD5E1695846E6
:10206000DBF8002002F07002914204D9026822F0ED
:1020700070020A430260207880070AD5E068296868
:1020800001F00F01884204D9296821F00F010143B2
:1020900029602078C0073ED05B49A26828681839BB
:1020A00020F47060104328606068022818D003286C
:1020B00019D00968012819D0490700294ADADFF840
:1020C00048A1AAF1080A00E044E0DAF8002022F072
:1020D00007020243CAF80020FFF700FA814612E027
:1020E00009688903E9E709688901E6E7C905E4E7C2
:1020F000FFF7F4F9A0EB090141F28830814202D9DF
:102100000320BDE8F09F6168DAF8000000F03800B5
:10211000B0EBC10FECD1207880070AD5E0682968C0
:1021200001F00F01884204D2296821F00F01014318
:102130002960D8F80010404601F00F01B9420BD9D0
:10214000016821F00F0139430160006800F00F00C1
:10215000B84201D00120D4E7207840070AD5206991
:10216000296801F07001884204D2296821F07001C9
:1021700001432960207800070AD56069316801F0C1
:102180007001884204D2316821F07001014331604E
:102190002078C0060AD5A069316801F4E061884260
:1021A00004D2316821F4E061014331602078800677
:1021B0000CD5E1695846DBF8002002F0700291422C
:1021C00004D2026822F070020A43026000F026F88E
:1021D0000E492A682B68C2F3032203F00F038A5CBE
:1021E000C95C02F01F0201F01F01D040084A20FA2A
:1021F00001F111600749086007480068BDE8F05F19
:10220000FFF7A8B90020005218440258083100080E
:102210001C0000241800002410000024454970B55B
:1022200045480968434B103B11F0380208D00111B2
:10223000082A03D0102A0BD0182A0BD0084670BDEC
:1022400019688906FBD51968C1F3C101C84070BD82
:102250003A4870BD3749374D18310C1D24350A688E
:10226000096826682D6802F0030406F00102C1F334
:102270000511C5F3CC0515FB02F200EE102AB8EEED
:10228000400AE9B32F4ADFED2E0AB7EE001A6CB10F
:10229000DFED2D1A012C01D0022C43D002EE101AD2
:1022A0001068F8EE422A81EEA22A1EE01C68A406FD
:1022B00011D51B6801EE901A1168C3F3C103F8EE43
:1022C000612AD84001EE900AC1F30800F8EE611AC5
:1022D00081EEA22A0BE001EE901ADFED1C2A00BF6E
:1022E000F8EE611A106882EEA12AC0F3080001EE30
:1022F000900AF8EE611A40EE201A31EE810A00E0F1
:1023000015E022EE000A1068C0F34620401C00EEE3
:10231000900AF8EE600A80EE201ABCEEC10A10EEB8
:10232000100A70BD01EE901ADFED092AD8E70020EF
:1023300070BD0000104402580090D00300366E01BA
:1023400000000039304402580024744A0024744CC0
:10235000001BB74B2DE9F05F04007DD0FF4F2078C4
:10236000FE4D1837DFF8F483103DC00748D0D8F889
:102370000000396800F03800102815D0182803D163
:1023800001F0030002280FD06068B0F5803F12D042
:1023900010B1B0F5A02F18D0286820F48030286044
:1023A000286820F4802009E02868800328D5606828
:1023B0000028D2D024E0286840F48030286060688B
:1023C00088B1FFF78BF8064609E0286840F48020C2
:1023D0002860F0E7FFF782F8801B64287ED8286821
:1023E0008003F7D50CE0FFF779F8064605E000BF5B
:1023F000FFF774F8801B6428F0D828688003F7D4AE
:102400002078800756D5D8F80000DFF85093396857
:1024100010F03800A9F10C090ED0182801D1880756
:102420000AD0E068A8B3296821F0190101432960A6
:10243000FFF754F8064628E02868400702D5E06810
:1024400000288AD0E168286820F019000843286035
:10245000FFF744F8064606E0D2E000BFFFF73EF87B
:10246000801B0228BAD828684007F7D5217CD9F804
:10247000002022F0FE4242EA0161C9F8001019E092
:10248000FFF72CF8801B0228A8D828684007F7D54A
:10249000ECE7FFE7286820F001002860FFF71EF84E
:1024A000064604E0FFF71AF8801B022896D8286831
:1024B0004007F7D42078C00646D5D8F80000DFF8EA
:1024C0009C92396800F03800A9F10409082812D05C
:1024D000182805D101F00300012800E0CEE00AD061
:1024E000E0690028286820D040F080002860FEF7CE
:1024F000F5FF064615E02868C00502D5E06980288A
:102500007ED194F82010D9F8002022F07C5242EAC3
:102510000161C9F8001017E0FEF7E0FF801B0228F8
:10252000A0D82868C005F7D5EBE720F08000286028
:10253000FEF7D4FF064604E0FEF7D0FF801B02281A
:1025400090D82868C005F7D42078000729D583489B
:102550006169643000298146016811D041F00101B0
:102560000160FEF7BBFF064605E000BFFEF7B6FFC1
:10257000801B022888D8D9F800008007F6D510E023
:1025800021F001010160FEF7A9FF064605E000BF4A
:10259000FEF7A4FF801B022870D8D9F8000080073E
:1025A000F6D42078800623D5A0690028286810D0AA
:1025B00040F480502860FEF791FF064605E000BF1A
:1025C000FEF78CFF801B022858D828688004F7D5B6
:1025D0000EE020F480502860FEF780FF064604E0FD
:1025E000FEF77CFF801B022848D828688004F7D4B7
:1025F0002078400751D5DFF86891D9F8001000E045
:1026000015E141F48071C9F80010FEF767FF064636
:1026100005E000BFFEF762FF801B64282ED8D9F8C2
:102620000000C005F6D54D4EA068603601280AD0DE
:1026300008B1052813D0306820F001003060306800
:1026400020F0040002E0306840F001003060A06833
:1026500041F2883A98B1FEF741FF81460AE03068BE
:1026600040F004003060EEE7FEF738FFA0EB090110
:10267000514503D830688007F6D50EE072E0FEF7CA
:102680002DFF814606E000BFFEF728FFA0EB090101
:10269000514567D830688007F6D4606A00287CD03E
:1026A000DFF8B8A0D8F800100AF1200A4FF6F87B3E
:1026B0000AF10408C1F3C2010329AAF104096DD08B
:1026C0000228286820F08070286003D0FEF706FFFB
:1026D000044681E0FEF702FF064604E0FEF7FEFE38
:1026E000801B022875D828688001F7D4E26A40F27E
:1026F000F331386854F8283F884340EA0210184301
:102700003860217B4FF4FE0C22894FF0FE47208A6F
:102710004902267D521E401EA1F5007189B2C2F306
:1027200008021143761E0CEA00400143484607EABE
:1027300006621143CAF80010D9F8001021F0010117
:10274000C9F80010D8F80030266A23EA0B0343EAE0
:10275000C601C8F80010D9F8001004E0104402586F
:102760000048025835E0A26921F00C011143C9F874
:1027700000100168E26921F0020111430160016863
:1027800041F480310160016841F400310160016869
:1027900041F480210160016801E06CE020E041F03B
:1027A00001010160286840F080702860FEF796FE05
:1027B000044604E0FEF792FE001B022809D82868B0
:1027C0008001F7D557E000BFFEF788FE001B022806
:1027D00002D90320BDE8F09F28688001F4D44AE0C4
:1027E00039680128DAF8000021D0A26A01F0030359
:1027F00093421CD1E26AC1F305118A4217D1216BC1
:10280000C0F30802491E8A4211D1616BC0F346220F
:10281000491E91420BD1A16BC0F30642491E914261
:1028200005D1E16BC0F30660491E814201D0012051
:10283000D0E7A16C4646D8F80000C0F3CC00814236
:1028400019D0D9F800004D4620F00100C9F8000069
:10285000FEF744FE4FEA0007FEF740FEB842FBD009
:10286000A26C306820EA0B0040EAC20030602868A1
:1028700040F0010028600020ACE7401EB0F1807FEE
:1028800010B501D3012010BD4FF0E02460610F218D
:10289000601700F0BCFA0020A0610721216110BD83
:1028A000FEE700001D4800232DE9F041DFF868C075
:1028B0004FF44077C0F800C00124C0E9027300F172
:1028C00014080474437414264FF03B0C847488E895
:1028D000501000F12408066202250D27042188E823
:1028E000B00008220563C0E90D31C0E90F12C0E94C
:1028F0001112C0E91315C0E91512C2650266C0E9DC
:102900001931FEF795FA002803D0BDE8F041FDF734
:10291000E4BDBDE8F081000000A0004040000024BC
:102920002DE9F0411C4800241A4E4FF44075012354
:102930004FF0140C00F1240806600226C0E902548E
:1029400003743B2544740D278374042143610822DA
:10295000C0E906C5C0F820C040F2064588E8C800B6
:102960008163C0E90C350323C0E90F12C0E91112DD
:10297000C0E91313C0E91512C2650266C0E9194126
:10298000FEF756FA002803D0BDE8F041FDF7A5BDDB
:10299000BDE8F08100A40040E00000241D480022B2
:1029A0002DE9F041DFF868C04FF44076C0F800C070
:1029B0001425C0E902620274012742740D26827454
:1029C0004FF03B0CC0E90575C0E907C5022447621A
:1029D000042140F612050823C0E90A460463C0E951
:1029E0000D51C0E90F13C0E91113C0E91314C0E978
:1029F0001513C3650366C0E91921FEF719FA00280B
:102A000003D0BDE8F041FDF768BDBDE8F0810000EE
:102A100000D4004080010024114808B5016841F04D
:102A200080010160016801F080010091016841F0BE
:102A300008010160016801F008010091016841F09E
:102A400001010160016801F001010091016841F09C
:102A500002010160006800F00200009008BD000063
:102A6000E0440258FEE7FEE7704700002DE9F0471A
:102A7000454D044689464FF0000A2868C043800748
:102A80000AD0414E283E306820F080603060FEF76A
:102A900025FD0746B04608E00120BDE8F08700BFED
:102AA000FEF71CFDC01B022867D8D8F80000000103
:102AB000F6D4206829684FF4FE0721F47C313E02E9
:102AC00041EA00302860207AA389B4F804C04002AB
:102AD0002D4D2D495B1E227CACF1010C1035091DDA
:102AE000A0F5007080B2521ECCF3080C07EA034335
:102AF00040EA0C00184306EA0262104328600868A6
:102B0000626920F0C000104308600A68A06922F0E2
:102B1000200202430A60281D0A6822F010020A609F
:102B200002684FF6F873E4699A4342EAC40202600D
:102B30000868B9F1000F40F010020A6011D008686F
:102B4000B9F1010F11D040F400100860D8F800006E
:102B5000444640F08060C8F80000FEF7BFFC054620
:102B60000DE0086840F40020EFE740F48010ECE747
:102B7000FEF7B4FC401B022801D903208DE7206832
:102B80000001F5D5504688E7284402582DE9F04762
:102B9000454D044689464FF0000A2868C043800727
:102BA0000AD0414E283E306820F080503060FEF759
:102BB00095FC0746B04608E00120BDE8F08700BF5D
:102BC000FEF78CFCC01B022867D8D8F800008000F4
:102BD000F6D4208829684FF4FE0721F07C713E026C
:102BE00041EA00502860207AA389B4F804C040026A
:102BF0002D4D2D495B1E227CACF1010C1835091DB1
:102C0000A0F5007080B2521ECCF3080C07EA034313
:102C100040EA0C00184306EA026210432860086884
:102C2000626920F44060104308600A68A06922F4D9
:102C3000007202430A60281D0A6822F480720A604A
:102C400002684FF6F873E4699A4342EAC4020260EC
:102C50000868B9F1000F40F480720A6011D008686A
:102C6000B9F1010F11D040F080700860D8F8000071
:102C7000444640F08050C8F80000FEF72FFC05469F
:102C80000DE0086840F48000EFE740F40000ECE756
:102C9000FEF724FC401B022801D903208DE72068A1
:102CA0008000F5D5504688E7284402587047FEF763
:102CB0001BBC000070B59CB04C216846FDF7A8FB1A
:102CC000202113A8FDF7A4FB0220FEF7B1FC1E484B
:102CD000016821F4404101600168002401F4404191
:102CE0001B9101688904FCD502200A9028230990D1
:102CF000C20301210D910625CDE90012CDE90B0398
:102D00000C261294CDE90E50CDE910646846FFF709
:102D100021FB08B172B6FEE740201A900823050196
:102D2000CDE9163013ABCDE918053F21032283E826
:102D3000160013A81146FFF743F9002801D072B618
:102D4000FEE71CB070BD0000184802582748F0B5D7
:102D5000274A016841F470010160106800F00F001B
:102D6000072804D2106820F00F00C01D1060214910
:102D70000020204C10340B681F4D43F001030B6002
:102D800020600B682B400B60136803F00F03072BC8
:102D900004D9136823F00F03DB1D1360154C174A89
:102DA0001834174B261D371D2060124C154D283442
:102DB0003060261D3860371D23603B1D35601C1DAB
:102DC0003A60251D2E1D1860331D22602860326078
:102DD00018600A6843F2D204064B0B4D22F480229D
:102DE00060330A6018602C60F0BD000088ED00E0E0
:102DF00000200052004402587FEDF6EA80020101F3
:102E0000000202020000FF0100400052FEE7090735
:102E100000284FEA116104DB00F1E02080F8001483
:102E2000704700F00F0000F1E02080F8141D70479B
:102E300010B500F021F80D48FEF71FFA0C48FEF718
:102E40001CFA0C48FEF719FA084800220121FDF788
:102E500097FC074800220121FDF792FC002205485B
:102E6000BDE810400121FDF78BBC000040000024AC
:102E7000E00000248001002410B58AB002AA0020DE
:102E800002210190012482E81300059001A9069017
:102E90000848FDF71AFD0222064801231146009456
:102EA000FDF752FD012203481146FDF7E1FC0AB08F
:102EB00010BD000040000024024A0348911F00F0AA
:102EC00019B800002600002440000024024A0348EC
:102ED000A2F10C0100F00EB82E000024E000002446
:102EE000024A0348A2F1120100F004B8360000249F
:102EF0008001002430B58BB00D46402113466A4650
:102F0000FDF73EFD10B100200BB030BD00982880C9
:102F10000398082800D8C4B2092800D80C240A282D
:102F200000D810240B2800D814240C2800D818240A
:102F30000D2800D820240E2800D830240F2800D8CF
:102F400040242046E0E710B58AB00024082B029404
:102F5000CDE9001400D803930C2B0CD0102B0CD00F
:102F6000142B0CD0182B0CD0202B1CD0302B1CD0A9
:102F7000402B1CD007E0092104E00A2102E00B21CC
:102F800000E00C2103914FF4801108944B00CDE92F
:102F90000441CDE906346946FDF736FC002800D02F
:102FA00001200AB010BD0D21ECE70E21EAE70F2148
:102FB000E8E70000344B00201968890311D4BFF3FF
:102FC0004F8FBFF36F8F31490860BFF34F8FBFF34F
:102FD0006F8F196841F400311960BFF34F8FBFF351
:102FE0006F8F1968C90322D4274970310860BFF375
:102FF0004F8F081F43F6FF740068244D1035C0F34F
:103000004E31C0F3C90204EA4116104646EA807701
:103010002F60401EFAD2491EF5D2BFF34F8F1868B9
:1030200040F480301860BFF34F8FBFF36F8FFEF70F
:1030300063FAFFF73FFEFFF7EFFCFFF733FCFFF704
:103040006FFCFFF7ABFCFFF7F3FE4FF4A464104AEC
:10305000104808232146FFF776FF6420FDF77EFB2A
:103060000B4A08230C482146FFF76DFF6420FDF74B
:1030700075FB074A082309482146FFF764FF6420CF
:10308000FDF76CFBE3E7000014ED00E050EF00E01B
:103090000000002440000024E000002480010024FF
:1030A0004FF04070E1EE100A70470000000102038B
:1030B00004050607080C101418203040000000001A
:1030C0000000000000000000000000000000000000
:1030D00001000000020000000300000004000000E6
:1030E00000000000050000000000000000000000DB
:1030F00000000000060000000000000000000000CA
:1031000000000000070000000000000001020304AE
:1031100001020304060708093831000800000024F2
:103120004000000008030008783100084000002437
:1031300040080000240300080001020304050607FC
:10314000000000000100000010000000000000006E
:103150000090D0030090D0030000000000000000A9
:10316000000000000000000000000000000000005F
:08317000000000000000000057
:04000005080002CD20
:00000001FF
