:020000040800F2
:10000000480C00246D0300084B2F00086F2D0008DA
:10001000492F0008BB050008793F000800000000D8
:100020000000000000000000000000009131000806
:10003000BD050008000000004D2F000893310008A6
:100040008703000887030008870300088703000868
:100050008703000887030008870300088703000858
:100060008703000887030008870300088703000848
:100070008703000887030008870300088703000838
:100080008703000887030008870300088703000828
:100090008703000887030008870300088703000818
:1000A0008703000887030008870300088703000808
:1000B00087030008870300088703000887030008F8
:1000C00087030008870300088703000887030008E8
:1000D00087030008553F0008613F00086D3F000896
:1000E000870300088703000800000000870300085A
:1000F00087030008870300088703000887030008B8
:1001000087030008870300088703000887030008A7
:100110008703000887030008870300088703000897
:100120008703000887030008870300088703000887
:100130008703000887030008870300088703000877
:1001400000000000000000000000000000000000AF
:100150008703000887030008870300088703000857
:100160008703000887030008870300088703000847
:1001700087030008870300088703000800000000C9
:100180008703000887030008870300088703000827
:100190008703000887030008870300088703000817
:1001A0008703000887030008870300080000000099
:1001B00087030008870300088703000887030008F7
:1001C000870300088703000800000000000000000B
:1001D000000000000000000087030008000000008D
:1001E000000000000000000000000000000000000F
:1001F00000000000000000008703000887030008DB
:100200008703000887030008000000008703000838
:100210008703000887030008870300088703000896
:1002200087030008000000008703000800000000AA
:100230008703000887030008000000008703000808
:100240008703000887030008870300088703000866
:100250008703000887030008870300088703000856
:100260008703000887030008870300088703000846
:1002700087030008870300088703000800000000C8
:100280008703000887030008870300088703000826
:10029000000000008703000887030008000000003A
:1002A0000000000087030008870300088703000898
:1002B00087030008870300088703000887030008F6
:1002C00087030008870300088703000800F002F88E
:1002D00000F03CF80AA090E8000C82448344AAF1A4
:1002E0000107DA4501D100F031F8AFF2090EBAE8A2
:1002F0000F0013F0010F18BFFB1A43F0010318475A
:10030000183E0000383E0000103A24BF78C878C17B
:10031000FAD8520724BF30C830C144BF04680C600B
:10032000704700000023002400250026103A28BF53
:1003300078C1FBD8520728BF30C148BF0B60704757
:100340001FB503F0C7FE1FBD10B510BD00F0FBF8D0
:100350001146FFF7F5FF03F021FE00F019F903B491
:10036000FFF7F2FF03BC00F021F9000009488047C5
:1003700009480047FEE7FEE7FEE7FEE7FEE7FEE787
:10038000FEE7FEE7FEE7FEE704480549054A064B9F
:10039000704700002D320008CD02000848020024FA
:1003A000480C0024480400244804002453EA020CAA
:1003B00000F069802DE9F04B4FF00006002B1FBFC5
:1003C000B3FA83F503FA05F424FA05F65E4012BF8A
:1003D0001643B2FA82F502FA05F4C5F120051EBFF4
:1003E00022FA05FC44EA0C04203556EA044C4FEA94
:1003F000144418BF641C4FF000084FF000099042ED
:1004000071EB030C39D3002919BFB1FA81F701FA56
:1004100007F6B0FA80F700FA07F6C7F120071EBF0B
:1004200020FA07FC46EA0C062037B6FBF4FCA7EBE3
:100430000507103F07F01F0BCBF120060CFA0BFB52
:100440002CFA06F644BFB3460026202FA4BF5E4612
:100450004FF0000B5BEA060C08BF4FF0010B19EBE5
:100460000B09ABFB027C48EB0608C01B06FB02CC69
:100470000BFB03CC71EB0C01C1E70B460246414676
:100480004846BDE8F08B13B54FF000004FF0000177
:10049000AFF30080BDE81C40704740EA010310B58F
:1004A0009B070FD1042A0DD310C808C9121F9C4204
:1004B000F8D020BA19BA884201D9012010BD4FF0F6
:1004C000FF3010BD1AB1D30703D0521C07E0002043
:1004D00010BD10F8013B11F8014B1B1B07D110F8A0
:1004E000013B11F8014B1B1B01D1921EF1D11846A3
:1004F00010BD4FF0000200B51346944696462039D1
:1005000022BFA0E80C50A0E80C50B1F12001BFF4CC
:10051000F7AF090728BFA0E80C5048BF0CC05DF832
:1005200004EB890028BF40F8042B08BF704748BF80
:1005300020F8022B11F0804F18BF00F8012B7047F4
:10054000704770477047754600F02CF8AE460500BE
:100550006946534620F00700854618B020B5FFF7DE
:1005600013FFBDE820404FF000064FF000074FF0AA
:1005700000084FF0000B21F00701AC46ACE8C009C1
:10058000ACE8C009ACE8C009ACE8C0098D467047CA
:1005900010B50446AFF300802046BDE81040FFF7D9
:1005A000DEBE000000487047E40100240149182025
:1005B000ABBEFEE7260002007047FEE7704772B64A
:1005C000FEE700002DE9F84F044600F001FC009022
:1005D0003CB194F83500022806D0802161650020E6
:1005E000E4E00120BDE8F88FC74DC74EC649183575
:1005F00020683036DFF81483DFF814938842DFF880
:1006000014A3DFF814B32ED0A8422CD0B0422AD0C5
:10061000404528D0484526D0504524D0584522D0C2
:10062000BD4A183290421ED0BC4A90421BD0BB4AF1
:100630001832904217D0B94A3032904213D0B74A9C
:10064000483290420FD0B54A603290420BD0B34A44
:100650007832904207D0B14A9032904203D0AF4AEC
:10066000A832904209D1026822F01E02026020687E
:10067000426922F08002426103E0026822F00E0229
:10068000026027688F4238464DD0A8424BD0B04216
:1006900049D0404547D0484545D0504543D05845BE
:1006A00041D09D4A183290423DD09C4A90423AD067
:1006B0009A4A1832904236D0984A3032904232D01C
:1006C000964A483290422ED0944A603290422AD0C4
:1006D000924A7832904226D0904A9032904222D06C
:1006E0008E4AA83290421ED08D4A90421BD08C4A2E
:1006F0001432904217D08A4A2832904213D0884A46
:100700003C3290420FD0864A503290420BD0844AFD
:100710006432904207D0824A7832904203D0804AB5
:100720008C32974204D1206E026822F480720260FB
:1007300075492068884228D0A84226D0B04224D0EB
:10074000404522D0484520D050451ED058451CD0A9
:1007500071491831884218D07049884215D06F49C4
:100760001831884211D06D49303188420DD06B4923
:100770004831884209D069496031884205D06749CB
:100780007831884201D065499031016821F001013A
:1007900001600EE000F01CFB0099401A052808D902
:1007A000202262650321002084F8351084F834008B
:1007B00017E73868C007EDD1534A012120689042FD
:1007C0002ED0A8422CD0B0422AD0404528D048454F
:1007D00026D0504524D0584522D04F4B183398424C
:1007E0001ED04E4B98421BD04C4B1833984217D01A
:1007F0004A4B3033984213D0484B483398420FD07D
:10080000464B603398420BD0444B7833984207D024
:10081000424B9033984203D0404BA833984208D1C2
:1008200094F85C703F23A06D07F01F07BB40836006
:1008300007E094F85C30A06D03F01F0301FA03F3A6
:100840004360206890424DD0A8424BD0B04249D07E
:10085000404547D0484545D0504543D0584541D004
:100860002D4A183290423DD02C4A90423AD02B4A21
:100870001832904236D0294A3032904232D0274A3C
:10088000483290422ED0254A603290422AD0234AE4
:100890007832904226D0214A9032904222D01F4A8C
:1008A000A83290421ED01E4A90421BD01C4A1432DD
:1008B000904217D01A4A2832904213D0184A3C323C
:1008C00090420FD0164A503290420BD0144A6432F4
:1008D000904207D0124A7832904203D0104A8C32AC
:1008E00090420BD1D4E919024260E06E30B1026847
:1008F00022F480720260D4E91C024260002084F875
:10090000351084F834006DE61000024058000240B3
:100910007000024088000240A00002401004024023
:10092000085402582DE9F05F28B190F835100229DB
:1009300004D0802141650120BDE8F09F904C904B90
:100940000168183C18338E4ADFF83C92A1428D4C66
:10095000DFF838E28E4FDFF83CB2DFF83CA28F4D73
:100960008F4E31D091422FD099422DD0A1422BD021
:10097000494529D0714527D0B94225D0DFF810C2AA
:100980000CF1180C61451FD0DFF808C2ACF1600C07
:10099000614519D0DFF8FCC1ACF1480C614513D0BA
:1009A000DFF8F0C1ACF1300C61450DD0DFF8E4C1E7
:1009B000ACF1180C614507D0594505D0514503D01D
:1009C000A94201D0B1422CD1DFF8B4C14FF00408E4
:1009D00080F83580ACF1180C61451DD091421BD0D8
:1009E000994219D0A14217D0494515D0714513D06D
:1009F000B94211D06648183081420DD06548603840
:100A0000814209D063484838814205D06148303876
:100A1000814201D05F481838086820F00100086062
:100A2000ABE0D1F800C02CF00E08DFF854C1C1F8DB
:100A30000080ACF1180C0168614527D0914225D0A7
:100A4000994223D0A14221D049451FD071451DD0E4
:100A5000B9421BD0DFF838C10CF1180C614515D034
:100A6000DFF830C1ACF1600C61450FD0DFF824C174
:100A7000ACF1480C614509D0DFF818C1ACF1300C7D
:100A8000614503D0DFF80CC1ACF1180CD1F800C0FF
:100A90002CF0010CC1F800C0DFF8E4804FF0010C2D
:100AA0000168A8F11808414546D0914244D09942C6
:100AB00042D0A14240D049453ED071453CD0B942D8
:100AC0003AD0334A1832914236D0324A603A914293
:100AD00032D0304A483A91422ED02E4A303A914292
:100AE0002AD02C4A183A914226D0594524D0514553
:100AF00022D0A94220D0B1421ED02A4A91421BD016
:100B0000284A1432914217D0264A2832914213D0F3
:100B1000244A3C3291420FD0224A503291420BD0AB
:100B2000204A6432914207D01E4A7832914203D063
:100B30001C4A8C32914218D1016E0A6822F48072EC
:100B40000A6090F85C20816D02F01F020CFA02F23C
:100B50004A60D0E919124A60C16E31B10A6822F4C4
:100B600080720A60D0E91C124A600022016D80F890
:100B700035C080F8342001B188470020DCE6000051
:100B800028000240580002407000024088000240E5
:100B9000A00002407004024088040240A004024009
:100BA000B8040240085402582DE9F84F03247A4D46
:100BB00000234FF001094FF0B04B4FF00F0AE4E073
:100BC00009FA03F6324078D00F7907F00307012FB6
:100BD00001D0022F1AD187684FEA430ED1F80CC01A
:100BE00004FA0EF827EA08070CFA0EFC4CEA070C88
:100BF000C0F808C0476891F804C0B743CCF3001CA4
:100C00000CFA03FC4CEA070CC0F804C00E79F6435A
:100C1000B6070BD0C6684FEA43088F6804FA08FC91
:100C200026EA0C0607FA08F73743C7600E7906F084
:100C30000306022E12D1DE080F694FEA437C00EB57
:100C40008606B646366A4FEADC6C0AFA0CF807FAF2
:100C50000CF726EA08063743CEF820700F790668AD
:100C60004FEA430807F0030704FA08FC07FA08F7FD
:100C700026EA0C06374307604E6816F4403F1CD046
:100C8000464E376847F00207376036689F0706F020
:100C90000206009623F0030606F1B046B6463F0F63
:100CA000D6F80864DFF8F8800AFA07FC404526EA1F
:100CB0000C0603D14FF0000C3AE065E0DFF8E4C029
:100CC000604502D14FF0010C32E0DFF8DCC0604536
:100CD00002D14FF0020C2BE0DFF8D0C0604502D10A
:100CE0004FF0030C24E0DFF8C8C0604502D14FF09C
:100CF000040C1DE0DFF8BCC0604502D14FF0050CCC
:100D000016E0DFF8B4C0604502D14FF0060C0FE0EA
:100D1000DFF8A8C0604502D14FF0070C08E0DFF80B
:100D2000A0C0604502D14FF0090C01E04FF00A0C61
:100D30000CFA07FC4CEA060CCEF808C44F68DBF846
:100D40000060FF0226EA020600D516435F46CBF894
:100D50000060D1F804C0DBF804605FEA8C2C26EA5E
:100D6000020600D516437E606E684F6826EA0206CA
:100D7000BF0300D516436E602E684F6826EA020650
:100D8000FF0300D516432E605B1C0A6832FA03F697
:100D90007FF416AFBDE8F88F80000058F444025885
:100DA000000002580004025800080258000C0258C3
:100DB000001002580014025800180258001C025873
:100DC000002402580AB1816170470904FBE7000062
:100DD00001488068704700001400002402488168C0
:100DE000027811448160704714000024032010B57C
:100DF00000F086F801F028F80F4A104914681368CB
:100E0000C4F3032203F00F038A5CC95C02F01F02E3
:100E100001F01F01D0400A4A20FA01F1116009498E
:100E200008600F2000F010F808B1012010BD00F09C
:100E30002BF8002010BD000018440258064100089D
:100E4000240000242000002470B50D4D04462878AD
:100E5000A0B14FF47A71B1FBF0F00A490968B1FB17
:100E6000F0F001F067FB48B9102C07D200222146B0
:100E7000501E00F025F800206C6070BD012070BD90
:100E80001400002420000024054808B5016841F042
:100E900002010160006800F00200009008BD00003F
:100EA000F4440258002809DB410900F01F028900C0
:100EB000012001F1E0219040C1F8000170470000DD
:100EC0000E4BF0B41B680D46C3F30223C3F10706B3
:100ED000042E00D90426191D072901D2002300E0A1
:100EE000DB1E012404FA06F19C40491E2940641EC1
:100EF000994014402143F0BC03F03FB80CED00E0F2
:100F0000064900F0070210B54FF6FF040868044BCD
:100F1000204040EA02201843086010BD0CED00E0BC
:100F20000000FA05134970B50A68D243520705D587
:100F3000096801F00701814213D118E00A6822F024
:100F4000070202430A60FFF743FF0A4D4FF47A7627
:100F50000446083D07E000BFFFF73AFF001BB04220
:100F600001D9012070BD2868C0438004F4D400205A
:100F700070BD00000C48025810B500F01FFF054975
:100F80000968054AC1F30211515C01F01F01C84014
:100F900010BD00002044025806410008494930B500
:100FA000484C0B1D0A68143409681D68246802F057
:100FB0000303C5F30012C1F30531C4F3CC040029C7
:100FC00014FB02F200EE102AF8EE400A75D03F4AF8
:100FD0009FED3D1AB7EE000A6BB1DFED3D1A012B14
:100FE00001D0022B64D002EE101A1168F8EE422AEA
:100FF00081EEA22A21E0334C283C23689B0612D5BF
:10100000344B246801EE901A1168C4F3C104F8EE61
:10101000612AE34001EE903AC1F30801F8EE611A4B
:1010200081EEA22A0BE001EE901ADFED2B2A00BF21
:10103000F8EE611A116882EEA12AC1F3080101EEEF
:10104000901A1168F8EE611A40EE811A71EE800A6A
:1010500062EE200AC1F3462101EE101AB8EE411AE1
:1010600031EE001AC0EE811ABCEEE11A80ED001AD2
:101070001168C1F3064101EE101AB8EE411A31EEC3
:10108000001AC0EE811ABCEEE11A80ED011A116857
:10109000C1F3066101EE101AB8EE411A31EE000AF2
:1010A00080EE801ABCEEC10A80ED020A30BD04E079
:1010B00001EE901ADFED092ABAE7002101604160D4
:1010C0008160F3E728440258000000393844025890
:1010D0000024744A0090D0030024744C001BB74BCA
:1010E000494930B5484C0B1D0A681C3409681D6815
:1010F000246802F00303C5F30022C1F30551C4F3D1
:10110000CC04002914FB02F200EE102AF8EE400A8B
:1011100075D03F4A9FED3D1AB7EE000A6BB1DFED87
:101120003D1A012B01D0022B64D002EE101A116877
:10113000F8EE422A81EEA22A21E0334C283C2368B3
:101140009B0612D5344B246801EE901A1168C4F343
:10115000C104F8EE612AE34001EE903AC1F30801C0
:10116000F8EE611A81EEA22A0BE001EE901ADFED93
:101170002B2A00BFF8EE611A116882EEA12AC1F392
:10118000080101EE901A1168F8EE611A40EE811A1A
:1011900071EE800A62EE200AC1F3462101EE101AB8
:1011A000B8EE411A31EE001AC0EE811ABCEEE11A17
:1011B00080ED001A1168C1F3064101EE101AB8EE75
:1011C000411A31EE001AC0EE811ABCEEE11A80ED30
:1011D000011A1168C1F3066101EE101AB8EE411A46
:1011E00031EE000A80EE801ABCEEC10A80ED020AE0
:1011F00030BD04E001EE901ADFED092ABAE70021C4
:10120000016041608160F3E7284402580000003922
:10121000404402580024744A0090D0030024744CC7
:10122000001BB74B2DE9FE4F0546DFF800A450F830
:10123000081B0024FD4FC943019005F128002646F4
:101240000AF1240A009008011DD4686E50B1B0F56F
:10125000801F0CD0B0F5001F0ED0B0F5401F1ED07F
:1012600001240FE0386840F40030386017E001983E
:10127000022101F06DFE03E00098022101F0F8FE6A
:1012800004000CD026462888C043C00523D4A86D8E
:1012900005281ED2DFE800F00C11161B1B006A6E39
:1012A000DAF8001021F440111143CAF80010EAE7FF
:1012B000386840F40030386009E00198002101F0FE
:1012C00047FE03E00098002101F0D2FE0446C4B1BD
:1012D00000E0012426462888DFF85083C04308F147
:1012E0002C0840052FD4D5F8A400B0F5C00F28D0A5
:1012F00010DCB8B1B0F5001F19D0B0F5800F0FD1D8
:101300001AE0AA6DDAF8001021F007011143CAF8BB
:101310000010E0E7B0F5000F13D0B0F5200F10D0AB
:1013200001240FE0386840F40030386009E001988B
:10133000002101F00DFE03E00098002101F098FE6D
:10134000044694B126462888C043000530D4D5F819
:10135000A800B0F1407F29D011DCC0B1B0F1807F8E
:101360001AD0B0F1007F10D11BE0D5F8A420D8F836
:10137000001021F460011143C8F80010E3E7B0F158
:10138000806F13D0B0F1A06F10D001240FE0386847
:1013900040F40030386009E00198002101F0D8FDE8
:1013A00003E00098002101F063FE044694B1264654
:1013B0002868DFF878B2C0430BF1200B80011FD4FE
:1013C000E86CD8B110280FD0202812D0302815D0C2
:1013D000012414E0D5F8A820D8F8001021F0E0612D
:1013E0001143C8F80010E3E7386840F40030386073
:1013F00004E00198022101F0ABFD044674B12646D9
:101400002888C043C0042BD4E86DB0F5005F20D01D
:101410000DDCA0B1B0F5805F0FD115E0EA6CDBF810
:10142000001021F030011143CBF80010E8E7B0F5CF
:10143000405F13D0B0F5804F10D001240FE0386822
:1014400040F40030386009E00198002101F080FD8F
:1014500003E00098002101F00BFE04468CB1264603
:101460002888C043800429D4286EB0F5403F23D09B
:1014700010DC08B3B0F5803F14D0B0F5003F0FD1B9
:1014800015E0EA6DDAF8001021F4E0411143CAF8E2
:101490000010E5E7B0F5802F0ED0B0F5A02F0BD0EF
:1014A00001240AE00198012101F052FD03E00098B7
:1014B000012101F0DDFD044694B126462888C04391
:1014C00040042AD4D5F8AC00B0F1405F23D010DC42
:1014D00008B3B0F1805F14D0B0F1005F0FD115E018
:1014E0002A6EDAF8001021F4E0211143CAF8001046
:1014F000E4E7B0F1804F0ED0B0F1A04F0BD0012443
:101500000AE00198012101F023FD03E00098012188
:1015100001F0AEFD044674B126462888C04300049D
:101520001FD4E86ED8B1B0F1805F0ED0B0F1005F8B
:1015300010D0012414E0D5F8AC20D8F8001021F028
:10154000E0411143C8F80010E7E7386840F4003084
:10155000386004E00198012101F0FAFC044674B1FE
:1015600026462868C043C0011ED4A86CD0B101280B
:101570000ED0022811D0032814D0012413E0EA6E03
:10158000DAF8001021F040511143CAF80010E8E7E2
:10159000386840F40030386004E00198022101F01E
:1015A000D7FC04466CB126462868C043400255D497
:1015B0001F48016841F480710160FFF709FC814612
:1015C0000EE0AA6CDBF8001021F003011143CBF808
:1015D0000010E9E7FFF7FCFBA0EB090064283BD80B
:1015E00013480068C005F5D5BCBBDFF84090B5F8DE
:1015F000B01009F14409D9F8000001F4407100F479
:101600004070884211D0D9F80010D9F8002021F498
:10161000407142F48032C9F80020D9F8002022F449
:101620008032C9F80020C9F8001003E02C440258A9
:1016300000480258D5F8B000B0F5807F19D1FFF707
:10164000C7FB029011E000BFFFF7C2FB0299411AED
:1016500041F28830814208D9032426462878DFF8F1
:101660001494C043C00721D03CE0D9F800008007A3
:10167000EAD5D5F8B010C1F301200328FE480DD0FB
:10168000016821F47C510160B5F8B020D9F8001050
:10169000C2F30B021143C9F80010DFE7F74A0368F1
:1016A00002EA111223F47C511143ECE7A86F1828C9
:1016B00016D005DCA0B1082808D0102804D10AE013
:1016C00020280DD028280BD001240AE00198012100
:1016D00001F03EFC03E00098012101F0C9FC044642
:1016E00064B126462878C04380071ED4686F062858
:1016F00019D2DFE800F0160C11161616AA6FD9F8E9
:10170000001021F038011143C9F80010EAE70198F0
:10171000012101F01DFC03E00098012101F0A8FC6B
:1017200004467CB100E0012426462878C0434007E7
:101730001FD4D5F89000062819D2DFE800F0160C67
:10174000111616166A6FD9F8001021F0070111431F
:10175000C9F80010E9E70198012101F0F9FB03E065
:101760000098012101F084FC0446A4B100E00124AA
:1017700026462878C04380062BD4D5F88C00B0F1DB
:10178000405F24D011DC10B3B0F1805F15D0B0F110
:10179000005F10D116E0D5F89020D8F8001021F0A5
:1017A00007011143C8F80010E3E7B0F1804F0ED0F5
:1017B000B0F1A04F0BD001240AE00198002101F004
:1017C000C7FB03E00098022101F052FC044694B1EB
:1017D00026462878C04340062BD4D5F89800B0F5AB
:1017E000406F24D011DC10B3B0F5806F15D0B0F588
:1017F000006F10D116E0D5F88C20D9F8001021F038
:10180000E0411143C9F80010E3E7B0F5805F0ED066
:10181000B0F5A05F0BD001240AE00198002101F08F
:1018200097FB03E00098022101F022FC044694B1EA
:1018300026462878C04300062BD4D5F89C00B0F586
:10184000C04F24D011DC10B3B0F5005F15D0B0F557
:10185000804F10D116E0D5F89820D8F8001021F468
:10186000E0511143C8F80010E3E7B0F5004F0ED087
:10187000B0F5204F0BD001240AE00198002101F0BF
:1018800067FB03E00098022101F0F2FB044654B12B
:1018900026462878C04300071ED4D5F88000B0F54E
:1018A000805F0AD00FE0D5F89C20D8F8001021F412
:1018B00060411143C8F80010EBE70098022101F0E5
:1018C000D7FB00B10126D5F88020D9F8001021F40B
:1018D00040511143C9F800102878C043C00613D402
:1018E000D5F89400B0F5807F05D10098022101F071
:1018F000BFFB00B10126D5F89420D8F8001021F4E0
:1019000040711143C8F800102868C043000316D482
:10191000D5F8A00038B1B0F5803F09D0B0F5003F50
:101920000BD001240AE00198002101F011FB03E033
:101930000098022101F09CFB04468CB126462868E1
:10194000C043400322D4D5F88400B0F5801F11D0E5
:10195000B0F5001F13D0B0F5401F15D0012414E0DE
:10196000D5F8A020D8F8001021F440311143C8F870
:101970000010E4E7386840F40030386004E0009874
:10198000012101F075FB04465CB126462868C0437E
:10199000C0031CD4286D70B1B0F5803F10D0012475
:1019A00014E0D5F88420D9F8001021F44011114337
:1019B000C9F80010EAE7386840F40030386004E005
:1019C0000198022101F0C4FA0446DCB126462868D9
:1019D000C043800005D40098022101F049FB00B10A
:1019E00001262868C04380031BD4E86FB8B1B0F566
:1019F000807F10D0B0F5007F11D0B0F5407F0ED0C1
:101A000001240DE02A6DDBF8001021F48031114330
:101A1000CBF80010DBE7386840F4003038607CB366
:101A200026462868C043C00207D42A6FDAF800109F
:101A300021F000411143CAF800102868C043800219
:101A400007D4AA6EDAF8001021F080711143CAF8A9
:101A500000102868C043400009D40748016821F4F9
:101A6000004101600168D5F8B42011430160286885
:101A7000C04306E05444025810440258CFFFFF0010
:101A80001DE007D46A6DDBF8001021F040511143CE
:101A9000CBF800102868C043000208D4D5F888208D
:101AA000D9F8001021F440011143C9F80010287939
:101AB0000024C04300F00100204309D00EE0EA6F8B
:101AC000D9F8001021F440711143C9F80010A8E7BB
:101AD0000198002101F03CFA00B106462879C04384
:101AE00000F00200204305D10198012101F030FAF5
:101AF00000B106462879C04300F00400204305D118
:101B00000198022101F024FA00B106462879C04369
:101B100000F00800204305D10098002101F0A8FA48
:101B200000B106462879C04300F01000204305D1DB
:101B30000098012101F09CFA00B106462879C043C3
:101B400000F02000044304D10098022101F090FA33
:101B500000B916B10120BDE8FE8F0020FBE70000B0
:101B60002DE9F05F04000F467ED0DFF83882D8F808
:101B7000000000F00F00B8420CD2D8F8001021F09D
:101B80000F013943C8F80010D8F8000000F00F002A
:101B9000B84269D12078844D40070AD52069296868
:101BA00001F07001884204D9296821F070010143D5
:101BB000296020787C4E361D00070AD5606931689F
:101BC00001F07001884204D9316821F070010143AD
:101BD00031602078C0060AD5A069316801F4E0615F
:101BE000884204D9316821F4E061014331602078F2
:101BF000DFF8B4B180060BF1080B0CD5E16958464B
:101C0000DBF8002002F07002914204D9026822F051
:101C100070020A430260207880070AD5E0682968CC
:101C200001F00F01884204D9296821F00F01014316
:101C300029602078C0073ED05B49A268286818391F
:101C400020F47060104328606068022818D00328D0
:101C500019D00968012819D0490700294ADADFF8A4
:101C600048A1AAF1080A00E044E0DAF8002022F0D6
:101C700007020243CAF80020FFF7AAF8814612E0E3
:101C800009688903E9E709688901E6E7C905E4E726
:101C9000FFF79EF8A0EB090141F28830814202D99A
:101CA0000320BDE8F09F6168DAF8000000F038001A
:101CB000B0EBC10FECD1207880070AD5E068296825
:101CC00001F00F01884204D2296821F00F0101437D
:101CD0002960D8F80010404601F00F01B9420BD935
:101CE000016821F00F0139430160006800F00F0026
:101CF000B84201D00120D4E7207840070AD52069F6
:101D0000296801F07001884204D2296821F070012D
:101D100001432960207800070AD56069316801F025
:101D20007001884204D2316821F0700101433160B2
:101D30002078C0060AD5A069316801F4E0618842C4
:101D400004D2316821F4E0610143316020788006DB
:101D50000CD5E1695846DBF8002002F07002914290
:101D600004D2026822F070020A43026000F06CF8AC
:101D70000E492A682B68C2F3032203F00F038A5C22
:101D8000C95C02F01F0201F01F01D040084A20FA8E
:101D900001F111600749086007480068BDE8F05F7D
:101DA000FFF752B8002000521844025806410008BC
:101DB00024000024200000241800002430B500F086
:101DC00043F80B4A0B490C4B15681468C5F3032202
:101DD00004F00F048A5C095D02F01F0201F01F018C
:101DE000D040064A20FA01F119601060084630BD63
:101DF0001844025806410008240000242000002452
:101E000000B5FFF7DBFF05490968054AC1F3021178
:101E1000515C01F01F01C84000BD00001C44025885
:101E20000641000800B5FFF7C9FF05490968054AE2
:101E3000C1F30221515C01F01F01C84000BD000048
:101E40001C44025806410008454970B545480968D8
:101E5000434B103B11F0380208D00111082A03D07F
:101E6000102A0BD0182A0BD0084670BD19688906B5
:101E7000FBD51968C1F3C101C84070BD3A4870BDB7
:101E80003749374D18310C1D24350A680968266812
:101E90002D6802F0030406F00102C1F30511C5F339
:101EA000CC0515FB02F200EE102AB8EE400AE9B3A9
:101EB0002F4ADFED2E0AB7EE001A6CB1DFED2D1AB6
:101EC000012C01D0022C43D002EE101A1068F8EE5B
:101ED000422A81EEA22A1EE01C68A40611D51B68C6
:101EE00001EE901A1168C3F3C103F8EE612AD840DD
:101EF00001EE900AC1F30800F8EE611A81EEA22A01
:101F00000BE001EE901ADFED1C2A00BFF8EE611A1B
:101F1000106882EEA12AC0F3080001EE900AF8EEE4
:101F2000611A40EE201A31EE810A00E015E022EE3F
:101F3000000A1068C0F34620401C00EE900AF8EE3C
:101F4000600A80EE201ABCEEC10A10EE100A70BDC5
:101F500001EE901ADFED092AD8E7002070BD0000DD
:101F6000104402580090D00300366E010000003982
:101F7000304402580024744A0024744C001BB74BB0
:101F80002DE9F05F04007DD0FF4F2078FE4D18371B
:101F9000DFF8F483103DC00748D0D8F80000396856
:101FA00000F03800102815D0182803D101F00300E4
:101FB00002280FD06068B0F5803F12D010B1B0F5A4
:101FC000A02F18D0286820F480302860286820F4DA
:101FD000802009E02868800328D560680028D2D0D6
:101FE00024E0286840F480302860606888B1FEF7FB
:101FF000EFFE064609E0286840F480202860F0E7FC
:10200000FEF7E6FE801B64287ED828688003F7D59B
:102010000CE0FEF7DDFE064605E000BFFEF7D8FE49
:10202000801B6428F0D828688003F7D420788007C4
:1020300056D5D8F80000DFF85093396810F0380012
:10204000A9F10C090ED0182801D188070AD0E06840
:10205000A8B3296821F0190101432960FEF7B8FEF1
:10206000064628E02868400702D5E06800288AD0A4
:10207000E168286820F0190008432860FEF7A8FEF0
:10208000064606E0D2E000BFFEF7A2FE801B022853
:10209000BAD828684007F7D5217CD9F8002022F06B
:1020A000FE4242EA0161C9F8001019E0FEF790FE15
:1020B000801B0228A8D828684007F7D5ECE7FFE77F
:1020C000286820F001002860FEF782FE064604E042
:1020D000FEF77EFE801B022896D828684007F7D4BA
:1020E0002078C00646D5D8F80000DFF89C92396801
:1020F00000F03800A9F10409082812D0182805D1E9
:1021000001F00300012800E0CEE00AD0E0690028D9
:10211000286820D040F080002860FEF759FE06466F
:1021200015E02868C00502D5E06980287ED194F8C2
:102130002010D9F8002022F07C5242EA0161C9F84F
:10214000001017E0FEF744FE801B0228A0D8286884
:10215000C005F7D5EBE720F080002860FEF738FED9
:10216000064604E0FEF734FE801B022890D828685B
:10217000C005F7D42078000729D583486169643009
:1021800000298146016811D041F001010160FEF78C
:102190001FFE064605E000BFFEF71AFE801B022860
:1021A00088D8D9F800008007F6D510E021F00101A9
:1021B0000160FEF70DFE064605E000BFFEF708FED3
:1021C000801B022870D8D9F800008007F6D4207848
:1021D000800623D5A0690028286810D040F48050DC
:1021E0002860FEF7F5FD064605E000BFFEF7F0FDAE
:1021F000801B022858D828688004F7D50EE020F408
:1022000080502860FEF7E4FD064604E0FEF7E0FD9E
:10221000801B022848D828688004F7D4207840071B
:1022200051D5DFF86891D9F8001000E015E141F4CC
:102230008071C9F80010FEF7CBFD064605E000BF2F
:10224000FEF7C6FD801B64282ED8D9F80000C00513
:10225000F6D54D4EA068603601280AD008B1052891
:1022600013D0306820F001003060306820F00400A6
:1022700002E0306840F001003060A06841F2883A26
:1022800098B1FEF7A5FD81460AE0306840F00400F1
:102290003060EEE7FEF79CFDA0EB0901514503D845
:1022A00030688007F6D50EE072E0FEF791FD8146BA
:1022B00006E000BFFEF78CFDA0EB0901514567D891
:1022C00030688007F6D4606A00287CD0DFF8B8A0B8
:1022D000D8F800100AF1200A4FF6F87B0AF104083A
:1022E000C1F3C2010329AAF104096DD002282868AC
:1022F00020F08070286003D0FEF76AFD044681E07C
:10230000FEF766FD064604E0FEF762FD801B02282C
:1023100075D828688001F7D4E26A40F2F331386852
:1023200054F8283F884340EA021018433860217B64
:102330004FF4FE0C22894FF0FE47208A4902267D89
:10234000521E401EA1F5007189B2C2F3080211436A
:10235000761E0CEA00400143484607EA0662114334
:10236000CAF80010D9F8001021F00101C9F80010D6
:10237000D8F80030266A23EA0B0343EAC601C8F8FE
:102380000010D9F8001004E0104402580048025828
:1023900035E0A26921F00C011143C9F80010016871
:1023A000E26921F0020111430160016841F48031CA
:1023B0000160016841F400310160016841F480214D
:1023C0000160016801E06CE020E041F00101016082
:1023D000286840F080702860FEF7FAFC044604E0AC
:1023E000FEF7F6FC001B022809D828688001F7D503
:1023F00057E000BFFEF7ECFC001B022802D90320C7
:10240000BDE8F09F28688001F4D44AE039680128CB
:10241000DAF8000021D0A26A01F0030393421CD134
:10242000E26AC1F305118A4217D1216BC0F3080299
:10243000491E8A4211D1616BC0F34622491E914266
:102440000BD1A16BC0F30642491E914205D1E16B4D
:10245000C0F30660491E814201D00120D0E7A16C83
:102460004646D8F80000C0F3CC00814219D0D9F814
:1024700000004D4620F00100C9F80000FEF7A8FC5E
:102480004FEA0007FEF7A4FCB842FBD0A26C30680C
:1024900020EA0B0040EAC2003060286840F00100EA
:1024A00028600020ACE700002DE9F04104001D4643
:1024B00016460F4603D0D4F8880018B108E0012072
:1024C000BDE8F081002084F88400204600F0B0FAD6
:1024D0002420C4F888002068016821F0010101600F
:1024E000204601F07BFA0128EAD0A06A10B120460C
:1024F00000F01EFF206871050D4A41EA054183681E
:1025000043F4804383602068836823F400433B43A3
:1025100083602068036813400B43036020680168F0
:1025200041F0010101602046BDE8F04100F064BFC8
:10253000FFFF00FC401EB0F1807F10B501D30120E9
:1025400010BD4FF0E02460610F21601701F015FD10
:102550000020A0610721216110BD30B590F88410E2
:10256000012918D0012280F884202421C0F8881085
:102570000022202401680B680D6823F0005325F029
:1025800001050D60426601680B60C0F8884080F864
:102590008420104630BD022030BD7047704770B5B2
:1025A000044690F8840001281DD0012284F884207C
:1025B0002420C4F8880020680568026822F001021F
:1025C00002602068826822F060620A4382602046CE
:1025D00000F08CFE2268202100201560C4F88810CD
:1025E00084F8840070BD022070BD70B5044690F878
:1025F000840001281DD0012284F884202420C4F8FE
:10260000880020680568026822F0010202602068E4
:10261000826822F060420A438260204600F066FE33
:102620002268202100201560C4F8881084F88400F6
:1026300070BD022070BD7047704770472DE9F041B2
:1026400007680025044640F60F030226F86939683A
:10265000BA6818420AD183067ED501F0200302F041
:10266000805C53EA0C0377D0616F74E1CF4BDFF8E5
:1026700040C3134001EA0C0C53EA0C0C6CD05FEA27
:10268000C07C0CD05FEAC15C09D54FF0010CC7F8E3
:1026900020C0D4F8907047F00107C4F89070870705
:1026A00009D5D70707D027683E62D4F8906046F076
:1026B0000406C4F8906046070AD5D60708D02768F4
:1026C00004263E62D4F8906046F00206C4F890609A
:1026D00006070CD501F020061E4308D02668082303
:1026E0003362D4F8903043F00803C4F89030030507
:1026F0000BD54B0109D526684FF400633362D4F83B
:10270000903043F02003C4F89030D4F89030002B80
:102710003DD0800609D501F0200002F08051084329
:1027200003D0616F09B1204688472168D4F8900032
:102730008968490602D410F0280F2AD0204600F0FC
:10274000BBFE2068806840061ED52068083050E82F
:10275000001F21F0400100E021E040E80012002AC3
:10276000F3D1D4F8800078B192490165D4F88000A3
:10277000FEF7D8F800280AD0D4F88000016D00E0F8
:102780002046BDE8F04108472046FFF756FFBDE868
:10279000F0812046FFF751FFC4F89050F7E7D4F8D6
:1027A0006CC02023BCF1010F7ED15FEAC06C7BD5E9
:1027B0005FEAC16C78D510203862206880684006D6
:1027C00073D5D4F880107C4A0868904234D07A4A95
:1027D0001832904230D0784A303290422CD0764A2B
:1027E0004832904228D0744A6032904224D0724AD3
:1027F0007832904220D0704A903290421CD06E4A7B
:10280000A832904218D06D4A904215D06B4A1832C7
:10281000904211D0694A303290420DD0674A483216
:10282000904209D0654A6032904205D0634A7832BE
:10283000904201D0614A903240680004000CA6D05A
:10284000B4F85C208242A2D9A4F85E00C869B0F551
:10285000807F2FD0216851E8000F20F4807041E87C
:102860000002002AF6D12068083050E8001F21F04D
:10287000010140E80012002AF5D12068083050E834
:10288000001F21F0400140E80012002AF5D1C4F8F1
:102890008C30E566216851E8000F20F0100041E817
:1028A0000002002AF6D101E040E00BE0D4F88000FD
:1028B000FDF788FE2667B4F85C00B4F85E10401A95
:1028C00081B22FE0B4F85C00B4F85E10B4F85E207A
:1028D000401A81B2002AB2D00029B0D0226852E852
:1028E000000F20F4907042E80007002FF6D1344F1B
:1028F000206800F1080050E8002F02EA070240E8D3
:10290000002CBCF1000FF3D1C4F88C30E56665678C
:10291000206850E8002F22F0100240E80023002B2E
:10292000F6D126672046FFF738FE30E7C60209D504
:10293000560207D54FF4801038622046BDE8F041BA
:10294000FFF77ABE06060AD501F0800602F40002FF
:10295000164304D0A16F00297FF412AF17E7420697
:1029600011D54A060FD52046026852E8001F21F013
:10297000400142E80014002CF6D1C0F88830856789
:1029800000F0F4F903E7020206D54A0004D5204618
:10299000BDE8F041FFF74FBEC001C6D50029C4DA3B
:1029A0002046BDE8F041FFF7F9BD0000010000102E
:1029B00020010004A334000810000240100402406B
:1029C000FEFFFFEF10B5040003D0D4F8880010B16B
:1029D00007E0012010BD002084F88400204600F0AC
:1029E00027F82420C4F888002068016821F001013C
:1029F0000160204600F0F2FF0128EBD0A06A10B180
:102A0000204600F095FC2068416821F49041416027
:102A10002068816821F02A0181602068016841F006
:102A2000010101602046BDE8104000F0E5BC000057
:102A30002DE9F043B5B0044614212EA8FDF759FD49
:102A4000B8216846FDF755FD5C4902262068072736
:102A5000594D002488422ED100201E940121CDE939
:102A600000106846FEF7DEFB08B1FDF7A8FD5248EE
:102A70001030016841F010010160006800F01000A2
:102A80003390286840F00100286028682EA900F0E3
:102A9000010033904FF4C0602E90CDE92F64484878
:102AA000CDE93147FEF780F8002225201146FEF7D8
:102AB00007FA252034E04349DFF80C81DFF80C9158
:102AC000884232D100201D940221CDE900106846D1
:102AD000FEF7A8FB08B1FDF772FDD8F8001041F42D
:102AE0000031C8F80010D8F8000000F4003033902E
:102AF000286840F00800286028682EA900F0080027
:102B0000339070202E90CDE92F64CDE931474846AF
:102B1000FEF74AF8002201212620FEF7D1F92620EF
:102B2000FEF7C0F935B0BDE8F08329498842F9D1F4
:102B300000201D940221CDE900106846FEF772FBCB
:102B400008B1FDF73CFDD8F8001041F48021C8F829
:102B50000010D8F8000000F480203390286840F07E
:102B600002002860286800F002003390286840F0D6
:102B70000800286028682EA900F0080033904FF460
:102B800080402E90CDE92F641248CDE93147FEF701
:102B90000BF84FF440702E90CDE92F64CDE931470A
:102BA0002EA94846FEF700F8002202212720FEF752
:102BB00087F92720B4E70000E044025800100140E4
:102BC0000000025800440040E8440258000C02583B
:102BD000004800400004025830B4D0F88C30202B5C
:102BE00002D0022030BC7047A9B1A2B10B4D002425
:102BF0000368C466AB420BD05B681B0208D504684F
:102C000054E8003F43F0806344E80035002DF6D1DE
:102C100030BC01F0D1B80120E4E70000000C0058FE
:102C200070B504461B481C4E4FF0010584420CD180
:102C30000522F01C19A1FDF730FC00B93570052202
:102C400015491448C91CFFF7C7FF164884420CD128
:102C50001148062214A10830FDF71FFC00B9757059
:102C600006220D490F4808310EE0114884420FD169
:102C7000094806220FA10E30FDF70FFC00B9B57010
:102C8000062205490A480E31BDE87040FFF7A4BF8F
:102C900070BD0000280000240000002474657374D7
:102CA0000A000000BC0000245533544F5532000088
:102CB000500100245532544F553300002DE9F8439C
:102CC0000446D0F88800984616460D46202802D0C3
:102CD0000220BDE8F883A5B19EB10021C4F8901090
:102CE0002120C4F888001834FEF772F8814654F8A1
:102CF000100CA687E6872027183CB0F5805F02D02D
:102D000003E00120E5E7206910B12E46002510E020
:102D100000260EE08021204601F0D6F8C0B9DEB1D1
:102D200016F8010B21688862B4F85600401EA4F81A
:102D30005600B4F856004B464FF00002CDF8008024
:102D40000028E7D14FF04001204601F0BDF848B11E
:102D5000C4F888700320BCE735F8020B2168C0F383
:102D60000800E0E7C4F888700020B2E77047FEE78B
:102D700030B587B014216846FDF7BBFB1E480168DB
:102D800041F004010160016801F00401059101684E
:102D900041F080010160016801F080010591016846
:102DA00041F002010160016801F002010591016832
:102DB00041F008010160016801F008010591016816
:102DC00041F00101016000684FF460440B4D0122A5
:102DD00000F00100214605902846FDF7F3FF002191
:102DE00000940120CDE90101284603916946FDF7D1
:102DF000DBFE07B030BD0000E04402580008025876
:102E00001848002110B5164C0C224FF461230460C1
:102E1000C0E90131C160C0E904128161C161016290
:102E200041628162FFF7CEFD08B1FDF7C8FB0D4896
:102E30000021FFF7DAFB08B1FDF7C1FB09480021CB
:102E4000FFF7ADFB08B1FDF7BAFB0648FFF785FBBE
:102E5000002803D0BDE81040FDF7B1BB10BD000055
:102E600000100140280000241948002170B5174DBA
:102E70000C22184C0560C0E90141EB13C160C0E9A8
:102E800004120A46C0E9061301620B4641628162E0
:102E9000FFF70AFB08B1FDF792FB0D480021FFF791
:102EA000A4FB08B1FDF78BFB09480021FFF777FB76
:102EB00008B1FDF784FB0648FFF74FFB002803D05D
:102EC000BDE87040FDF77BBB70BD000000440040D2
:102ED000BC000024809698001948002170B5174D59
:102EE0000C22184C0560C0E90141EB13C160C0E938
:102EF00004120A46C0E9061301620B464162816270
:102F0000FFF7D2FA08B1FDF75AFB0D480021FFF791
:102F10006CFB08B1FDF753FB09480021FFF73FFBAD
:102F200008B1FDF74CFB0648FFF717FB002803D05C
:102F3000BDE87040FDF743BB70BD00000048004095
:102F40005001002480969800FEE7FEE770470000DD
:102F50002DE9F047454D044689464FF0000A2868A0
:102F6000C04380070AD0414E283E306820F0806080
:102F70003060FDF72DFF0746B04608E00120BDE8B0
:102F8000F08700BFFDF724FFC01B022867D8D8F8E0
:102F900000000001F6D4206829684FF4FE0721F4F0
:102FA0007C313E0241EA00302860207AA389B4F8DF
:102FB00004C040022D4D2D495B1E227CACF1010C5A
:102FC0001035091DA0F5007080B2521ECCF3080C1C
:102FD00007EA034340EA0C00184306EA0262104382
:102FE00028600868626920F0C000104308600A6821
:102FF000A06922F0200202430A60281D0A6822F01C
:1030000010020A6002684FF6F873E4699A4342EAD4
:10301000C40202600868B9F1000F40F010020A60B3
:1030200011D00868B9F1010F11D040F40010086008
:10303000D8F80000444640F08060C8F80000FDF772
:10304000C7FE05460DE0086840F40020EFE740F4B5
:103050008010ECE7FDF7BCFE401B022801D90320DD
:103060008DE720680001F5D5504688E728440258CE
:103070002DE9F047454D044689464FF0000A28687F
:10308000C04380070AD0414E283E306820F080506F
:103090003060FDF79DFE0746B04608E00120BDE820
:1030A000F08700BFFDF794FEC01B022867D8D8F850
:1030B00000008000F6D4208829684FF4FE0721F034
:1030C0007C713E0241EA00502860207AA389B4F85E
:1030D00004C040022D4D2D495B1E227CACF1010C39
:1030E0001835091DA0F5007080B2521ECCF3080CF3
:1030F00007EA034340EA0C00184306EA0262104361
:1031000028600868626920F44060104308600A681B
:10311000A06922F4007202430A60281D0A6822F4A2
:1031200080720A6002684FF6F873E4699A4342EAD3
:10313000C40202600868B9F1000F40F480720A60AE
:1031400011D00868B9F1010F11D040F0807008600B
:10315000D8F80000444640F08050C8F80000FDF761
:1031600037FE05460DE0086840F48000EFE740F4C4
:103170000000ECE7FDF72CFE401B022801D90320DC
:103180008DE720688000F5D5504688E7284402582E
:103190007047FDF723BE000070B59CB04C21684617
:1031A000FDF7A7F9202113A8FDF7A3F90220FDF7E9
:1031B000B9FE1D48016821F4404101600168002406
:1031C00001F440411B9101688904FCD5402502208F
:1031D00000900121CDE90315CDE90904CDE90D10D9
:1031E0001E230F900C26129404226846CDE9106429
:1031F000CDE90B23FEF7C4FE08B172B6FEE7082244
:103200001A95CDE91625D30113AA3F200321CDE954
:10321000185382E8130013A8FEF7A2FC002801D07F
:1032200072B6FEE71CB070BD184802582748F0B5CA
:10323000274A016841F470010160106800F00F0036
:10324000072804D2106820F00F00C01D106021492B
:103250000020204C10340B681F4D43F001030B601D
:1032600020600B682B400B60136803F00F03072BE3
:1032700004D9136823F00F03DB1D1360154C174AA4
:103280001834174B261D371D2060124C154D28345D
:103290003060261D3860371D23603B1D35601C1DC6
:1032A0003A60251D2E1D1860331D22602860326093
:1032B00018600A6843F2D204064B0B4D22F48022B8
:1032C00060330A6018602C60F0BD000088ED00E0FB
:1032D00000200052004402587FEDF6EA800201010E
:1032E000000202020000FF010040005230B5416EB2
:1032F000B9B101680D4B03F108048A688968C2F30B
:103300004262490F5D5C615C2D01B5FBF1F1A0F8F3
:103310006A10995CA25C0901B1FBF2F1A0F8681097
:1033200030BD0121A0F86A10F8E70000F64000085F
:1033300090F82810C90706D00168C36A4A6822F4C9
:1033400000321A434A6090F82810890706D50168B0
:10335000036B4A6822F480321A434A6090F82810BE
:10336000490706D50168436B4A6822F480221A4354
:103370004A6090F82810090706D50168836B4A68EF
:1033800022F400421A434A6090F82810C90606D574
:103390000168C36B8A6822F480521A438A6090F8ED
:1033A0002810890606D50168036C8A6822F4005249
:1033B0001A438A6090F82810490611D50168436CB9
:1033C0004A6822F480121A434A60416CB1F5801FAA
:1033D00006D10168836C4A6822F4C0021A434A602D
:1033E00090F82810090606D50168C26C486820F4D8
:1033F00000201043486070472DE9F843002504463B
:10340000C0F89050FDF7E4FC8046206820266FF05D
:103410007E470068000713D500224346310420464A
:10342000009700F051FD58B1216851E8000F20F0DD
:10343000800041E80002002AF6D1C4F8886021E04B
:1034400020680068400722D5002243464FF48001DF
:103450002046009700F038FDC8B1206850E8001FF2
:1034600021F4907140E80012002AF6D1206808305B
:1034700050E8001F21F0010140E80012002AF5D1B8
:10348000C4F88C60032084F88450BDE8F883C4F845
:103490008860C4F88C60E5662567002084F8845055
:1034A000F3E710B5806B0021A0F85E10A0F856106D
:1034B000FFF7C3F810BD000010B5026852E8001F06
:1034C00021F4907142E80013002BF6D10E4B0268F4
:1034D000083252E8001F194042E80014002CF6D1CF
:1034E000C16E012908D1026852E8001F21F01001C5
:1034F00042E80013002BF6D100212022C0F88C20D6
:10350000C166416710BD0000FEFFFFEF10B5D0F8A7
:103510008C10B0F860202229016804D0886940F03E
:103520000800886110BD496A836D11401980816D62
:10353000891C8165B0F85E10491EA0F85E10B0F8D5
:103540005E100029EED1016851E8002F22F490723C
:1035500041E80023002BF6D10168083151E8002F23
:1035600022F0010241E80023002BF5D1184B002185
:1035700002682024C0F88C40416701679A420BD052
:103580005268120208D5036853E8002F22F08062C7
:1035900043E80024002CF6D1C26E012A02D0FFF7C6
:1035A0003FFB10BDC166026852E8001F21F0100108
:1035B00042E80013002BF6D10168CA69D243D20653
:1035C00001D410220A62B0F85C10FEF7E6FF10BDCD
:1035D000000C00582DE9F04704460068C569D0F892
:1035E00000A0D0F80880D4F88C10B4F860602229CC
:1035F00005D0816941F008018161BDE8F087B4F828
:1036000068704FF0000975E02068A16D406A304095
:103610000880A06D801CA065B4F85E00401EA4F870
:103620005E002068C569690730D0E9070AD05FEA03
:10363000CA5107D501210162D4F8900040F0010081
:10364000C4F89000A8070BD55FEAC87008D02168BD
:1036500002200862D4F8900040F00400C4F8900002
:1036600068070BD55FEAC87008D02168042008629B
:10367000D4F8900040F00200C4F89000D4F8900014
:1036800020B12046FEF7D9FFC4F89090B4F85E0050
:1036900080BB216851E8000F20F4807041E80002EF
:1036A000002AF6D1304A2068083050E8001F114047
:1036B00040E80013002BF6D12C4B202120684A460D
:1036C000C4F88C10C4F87490C4F8709098420BD071
:1036D0004068000208D5216851E8000F20F08060A2
:1036E00041E80003002BF6D1E06E012825D02046EA
:1036F000FFF796FA0FB1A80686D4B4F85E0000284A
:103700003FF47BAFB4F8681081427FF676AF206853
:10371000083050E8001F21F0805140E80012002AD4
:10372000F5D113486067206850E8001F41F0200180
:1037300040E80012002AF6D15FE7E266206850E810
:10374000001F21F0100140E80012002AF6D1206885
:10375000C169C943C90601D410210162B4F85C10E3
:103760002046FEF71AFFC5E7FEFFFFEF000C0058EA
:103770000D35000810B5D0F88C10B0F86020222963
:10378000016804D0886940F00800886110BD496A6A
:10379000836D11401970816D491C8165B0F85E1010
:1037A000491EA0F85E10B0F85E100029EED1026844
:1037B00052E8001F21F4907142E80013002BF6D16B
:1037C0000168083151E8002F22F0010241E800238E
:1037D000002BF5D1184B002102682024C0F88C4042
:1037E000416701679A420BD05268120208D50268FD
:1037F00052E8003F23F0806342E80034002CF6D109
:10380000C26E012A02D0FFF70BFA10BDC166026832
:1038100052E8001F21F0100142E80013002BF6D1FE
:103820000168CA69D243D20601D410220A62B0F8F4
:103830005C10FEF7B2FE10BD000C00582DE9F047F9
:1038400004460068C569D0F800A0D0F80880D4F814
:103850008C10B4F86060222905D0816941F008011C
:103860008161BDE8F087B4F868704FF0000975E039
:103870002068A16D406A30400870A06D401CA065B2
:10388000B4F85E00401EA4F85E002068C5696907B0
:1038900030D0E9070AD05FEACA5107D50121016299
:1038A000D4F8900040F00100C4F89000A8070BD5B0
:1038B0005FEAC87008D0216802200862D4F890003E
:1038C00040F00400C4F8900068070BD55FEAC870A8
:1038D00008D0216804200862D4F8900040F002006B
:1038E000C4F89000D4F8900020B12046FEF7A5FE61
:1038F000C4F89090B4F85E0080BB216851E8000FD6
:1039000020F4807041E80002002AF6D1304A206895
:10391000083050E8001F114040E80013002BF6D19A
:103920002C49202320684A46C4F88C30C4F874908F
:10393000C4F8709088420BD04068000208D5216816
:1039400051E8000F20F0806041E80003002BF6D121
:10395000E06E012825D02046FFF762F90FB1A806D6
:1039600086D4B4F85E0000283FF47BAFB4F868104A
:1039700081427FF676AF2068083050E8001F21F0C2
:10398000805140E80012002AF5D113486067206892
:1039900050E8001F41F0200140E80012002AF6D153
:1039A0005FE7E266206850E8001F21F0100140E860
:1039B0000012002AF6D12068C169C943C90601D4A2
:1039C00010210162B4F85C102046FEF7E6FDC5E761
:1039D000FEFFFFEF000C0058753700082DE9F0439B
:1039E00004468068E24E87B0E24B2168D4E90427A0
:1039F000D4F81CC010430A68002547EA0C07384376
:103A0000324002430A602068E268416821F4405174
:103A1000114341602268A1699A4201D0206A0143A2
:103A20009668DFF854C3D54FD54806EA0C060E4316
:103A300096602168666ACA6A22F00F023243CA623F
:103A40002268BA420ED1006800F0380018286FD002
:103A50007ADCB8B308286CD010286BD18BE028280A
:103A600068D18EE0C7498A4209D1006800F007009A
:103A700006285FD2DFE800F0507D7F818385C24950
:103A80008A4209D1006800F0070006287BD2DFE8EF
:103A900000F0437072747678BC498A4209D100689C
:103AA00000F0070006286ED2DFE800F03663656795
:103AB000696BB7498A420BD1006800F007000628FD
:103AC00061D200E043E0DFE800F0275456585A5C2A
:103AD000B0498A4206D1006800F0380018284CD05E
:103AE000B7DD31E0AC498A4209D1006800F0070037
:103AF000062848D2DFE800F0103D3F414345A74982
:103B00008A420BD1006800F0070006283BD2DFE8AC
:103B100000F0033032343638002035E0A0498A42C4
:103B200009D1006800F03800182826D091DD0BE09C
:103B300023E01EE027E09B498A420AD1006800F09A
:103B40003800182819D084DD202888D11CE00120F5
:103B50001AE09A4217D18A48001D006800F0070059
:103B6000062810D2DFE800F0030507090B0D02203C
:103B70000AE0042008E0082006E0102004E02020ED
:103B800002E0402000E080208749DFF820829A424E
:103B9000874A4FF400434FEA21174FF000064ED1F9
:103BA00010281AD006DC022809D004280BD00828D7
:103BB0007ED10DE020283ED0402879D13DE0FDF7B0
:103BC000DBF9014610E06846FDF7E8F901990BE0E2
:103BD00003A8FDF785FA049906E01068800605D56C
:103BE0001068C0F3C100C140002970D0606A6768E6
:103BF00038F8102007EB4703B1FBF2F0834257D8A7
:103C0000B0EB073F54D8002308461946FCF7CEFB1B
:103C100002467808130E120243EA012110183A46B0
:103C200071410023FCF7C2FB624AA0F5407191424A
:103C30003ED821688FE03946D8E71946D6E7D4F850
:103C40001CC04FF6EF799C4546D1082819D005DCF9
:103C500058B101280CD0042875D10DE0102815D0DA
:103C6000202835D040286ED134E0FEF7C9F801E0B5
:103C7000FEF7D8F8014610E06846FDF78FF9019984
:103C80000BE003A8FDF72CFA049906E01068800603
:103C900004D51068C0F3C100C140C1B1636A606857
:103CA00038F81330B1FBF3F1490001EB500100E0AB
:103CB00049E0B1FBF0F0A0F11001494543D84FF6BF
:103CC000F0732168C0F342021840104343E043E020
:103CD0003946E3E71946E1E7082819D005DC58B171
:103CE00001280CD004282ED10DE0102815D0202852
:103CF0002BD0402827D12AE0FEF782F801E0FEF71A
:103D000091F8014610E06846FDF748F901990BE08B
:103D100003A8FDF7E5F9049906E01068800604D5CC
:103D20001068C0F3C100C140B1B1636A606838F87F
:103D30001330B1FBF3F101EB5001B1FBF0F0A0F156
:103D40001001494505D9012506E03946EDE7194638
:103D5000EBE7216880B2C8600120A4F86A00A4F8EB
:103D6000680028466667A66707B0BDE8F0830000D4
:103D7000F369FFCF000C0058FFF4FF110010014061
:103D8000544402580044004000480040004C0040A9
:103D9000005000400014014000780040007C0040CA
:103DA00000180140001C01400090D003DE400008D4
:103DB00000440258FFFC0F0070B583680024816541
:103DC0004FF48056A0F85C20B342A0F85E204FF07C
:103DD000FF01446704D1036903BB40F2FF111DE0FA
:103DE0004FF07F05C3B1B3F1805F1AD0A0F86040F7
:103DF0002221C0F89040C0F88C100168083151E8C9
:103E0000003F43F0010341E80034002CF5D1416E3E
:103E1000B1F1005F0CD02FE0036933B9A0F8601056
:103E2000E6E7016909B13F21F8E7A0F86050DFE754
:103E3000B0F8681091421FD88168B14201D1016980
:103E4000B9B11D490269416742B1026852E8001FD9
:103E500041F4807142E80013002BF6D1016808316B
:103E600051E8002F42F0805241E80023002BF5D1A9
:103E700020E012494167F1E78168B14201D101694F
:103E800069B10F49026941675AB1016851E8002FD1
:103E900042F4907241E80023002BF6D10AE0094970
:103EA0004167026852E8001F41F0200142E8001318
:103EB000002BF6D1002070BD3D380008D535000834
:103EC000753700080D3500082DE9F047994617466B
:103ED0000E460446089D4FF000082FE0681C2DD0C8
:103EE000FCF776FFA0EB0900A84214D89DB120682A
:103EF0000168490722D5C169C94309070DD40825BE
:103F000005622046FFF7D8FAC4F89050012084F8E3
:103F10008480BDE8F0870320FBE7C069C04300054B
:103F20000CD421684FF4006008622046FFF7C4FA01
:103F30002021C4F8901084F88480ECE72068C069E0
:103F400036EA000004D00020B842C7D00020E0E7E5
:103F50000120F9E70148FEF771BB000028000024AA
:103F60000148FEF76BBB0000BC0000240148FEF7CF
:103F700065BB000050010024FEE7090700284FEA56
:103F8000116104DB00F1E02080F80014704700F0BC
:103F90000F0000F1E02080F8141D7047FCF726FFA9
:103FA000FFF7FAF8FEF7E4FEFEF75EFFFEF794FF78
:103FB000FEF726FF264905222648FEF70DFE244976
:103FC00006222548491DFEF707FE214906222348FF
:103FD0000B31FEF701FE1E4C00264FF6FF75E41E66
:103FE000207801280CD11B4814221DA12B46FEF776
:103FF00065FE1948062220A12B46FEF75FFE2670BB
:10400000607801280CD113480D221DA12B46FEF724
:1040100055FE104811221EA12B46FEF74FFE66707A
:10402000A0780128DCD10B480D221EA12B46FEF7FB
:1040300045FE084814221FA12B46FEF73FFE074805
:10404000062222A12B46FEF739FEA670C8E7000023
:104050000300002428000024BC0000245001002498
:1040600055322073656E6420696E666F20746F2010
:104070005533210A000000005532544F55330000DB
:1040800055322067657420696E666F210A00000052
:104090005253343835207465737420706173732102
:1040A0000A00000055332067657420696E666F2131
:1040B0000A00000055332073656E6420696E666FD8
:1040C00020746F205532210A000000005533544FF0
:1040D000553200004FF04070E1EE100A70470100C9
:1040E00002000400060008000A000C001000200076
:1040F00040008000000101010103070100000804E5
:104100000204080101010000000001020304010291
:1041100003040607080900003841000800000024D5
:10412000280000000803000860410008280000245F
:10413000200C000024030008000000000000000024
:10414000000000000000000000000000010000006E
:1041500010000000000000000090D0030090D00389
:04000005080002CD20
:00000001FF
