:020000040800F2
:10000000882700246D0300081B2500085D240008D4
:1000100019250008F70400089545000800000000B5
:10002000000000000000000000000000D9280008C7
:100030006D0500080000000097260008E52800086C
:100040008703000887030008870300088703000868
:100050008703000887030008870300088703000858
:100060008703000887030008870300088703000848
:100070008703000887030008870300088703000838
:100080008703000887030008870300088703000828
:100090008703000887030008870300088703000818
:1000A0008703000887030008870300088703000808
:1000B00087030008870300088703000887030008F8
:1000C00087030008870300088703000887030008E8
:1000D00087030008870300088703000887030008D8
:1000E000870300088703000800000000870300085A
:1000F00087030008870300088703000887030008B8
:1001000087030008870300088703000887030008A7
:100110008703000887030008870300088703000897
:100120008703000887030008870300088703000887
:100130008703000887030008870300088703000877
:1001400000000000000000000000000000000000AF
:100150008703000887030008870300088703000857
:100160008703000887030008870300088703000847
:10017000870300081D250008870300080000000011
:100180008703000887030008870300088703000827
:100190008703000887030008870300088703000817
:1001A0008703000887030008870300080000000099
:1001B00087030008870300088703000887030008F7
:1001C000870300088703000800000000000000000B
:1001D000000000000000000087030008000000008D
:1001E000000000000000000000000000000000000F
:1001F00000000000000000008703000887030008DB
:100200008703000887030008000000008703000838
:100210008703000887030008870300088703000896
:1002200087030008000000008703000800000000AA
:100230008703000887030008000000008703000808
:100240008703000887030008870300088703000866
:100250008703000887030008870300088703000856
:100260008703000887030008870300088703000846
:1002700087030008870300088703000800000000C8
:100280008703000887030008870300088703000826
:10029000000000008703000887030008000000003A
:1002A0000000000087030008870300088703000898
:1002B00087030008870300088703000887030008F6
:1002C00087030008870300088703000800F002F88E
:1002D00000F03CF80AA090E8000C82448344AAF1A4
:1002E0000107DA4501D100F031F8AFF2090EBAE8A2
:1002F0000F0013F0010F18BFFB1A43F0010318475A
:10030000B84B0000D84B0000103A24BF78C878C121
:10031000FAD8520724BF30C830C144BF04680C600B
:10032000704700000023002400250026103A28BF53
:1003300078C1FBD8520728BF30C148BF0B60704757
:100340001FB504F019FD1FBD10B510BD00F09EF8DB
:100350001146FFF7F5FF04F047FC00F0BCF803B4CA
:10036000FFF7F2FF03BC00F0BFF800000948804728
:1003700009480047FEE7FEE7FEE7FEE7FEE7FEE787
:10038000FEE7FEE7FEE7FEE704480549054A064B9F
:100390007047000085290008CD020008882100244C
:1003A00088270024882300248823002410B5203ABD
:1003B000C0F00B80B1E81850203AA0E81850B1E81E
:1003C0001850A0E81850BFF4F5AF5FEA027C24BFD4
:1003D000B1E81850A0E8185044BF18C918C0BDE8CB
:1003E00010405FEA827C24BF51F8043B40F8043B94
:1003F00008BF7047D20728BF31F8023B48BF11F849
:10040000012B28BF20F8023B48BF00F8012B7047A2
:100410004FF0000200B5134694469646203922BF9D
:10042000A0E80C50A0E80C50B1F12001BFF4F7AFE8
:10043000090728BFA0E80C5048BF0CC05DF804EBCA
:10044000890028BF40F8042B08BF704748BF20F838
:10045000022B11F0804F18BF00F8012B7047704736
:100460007047704710B500F009F8006810BD10B56E
:10047000044600F003F8046010BD00000048704717
:100480002821002400487047282100247546FFF7E2
:10049000F9FFAE4605006946534620F00700854641
:1004A00018B020B5FFF770FFBDE820404FF0000600
:1004B0004FF000074FF000084FF0000B21F007014C
:1004C000AC46ACE8C009ACE8C009ACE8C009ACE88F
:1004D000C0098D46704710B50446AFF30080204632
:1004E000BDE81040FFF73BBF01491820ABBEFEE757
:1004F000260002007047FEE700207047002070478A
:1005000005490022054810B502F082FC0449034861
:1005100002F071FC002010BDFC1100242005002415
:10052000FC0900240146044810B502F064FC0248AE
:1005300002F03AFC002010BD200500240020704786
:10054000094A10B5D2F8BC22D2F814220AB101200F
:1005500010BD0A460146044802F05AFCBDE81040AE
:10056000014802F0CBBC000020050024704772B6A1
:10057000FEE7000070B5044600F00EF80546601C6A
:1005800002D004480078044400F006F8401BA04262
:10059000FAD370BD7C0000240148806870470000D9
:1005A0007C00002402488168027811448160704711
:1005B0007C000024032010B500F086F801F00CFC4C
:1005C0000F4A104914681368C4F3032203F00F03A1
:1005D0008A5CC95C02F01F0201F01F01D0400A4A88
:1005E00020FA01F11160094908600F2000F010F8AD
:1005F00008B1012010BD00F02BF8002010BD000054
:1006000018440258824D00088C0000248800002401
:1006100070B50D4D04462878A0B14FF47A71B1FB46
:10062000F0F00A490968B1FBF0F001F004FF48B9A5
:10063000102C07D200222146501E00F025F8002081
:100640006C6070BD012070BD7C0000248800002417
:10065000054808B5016841F002010160006800F03A
:100660000200009008BD0000F4440258002809DB95
:10067000410900F01F028900012001F1E0219040B2
:10068000C1F80001704700000E4BF0B41B680D4626
:10069000C3F30223C3F10706042E00D90426191D53
:1006A000072901D2002300E0DB1E012404FA06F131
:1006B0009C40491E2940641E994014402143F0BCCF
:1006C00003F081BF0CED00E0064900F0070210B511
:1006D0004FF6FF040868044B204040EA022018430C
:1006E000086010BD0CED00E00000FA050168012370
:1006F000C0F80035002280F8F4248869044A40F0EC
:1007000000608861486D1043486500207047000014
:100710000300001070470068416200207047F0B588
:1007200003685D6A39B19F6A4C1E00204FF48276DF
:1007300005EB17450BE045EA0240986210E0471CC4
:1007400006EB800053F800C0F8B205EB1C45A04250
:10075000F5D34FF4807000EB810045EA02421A5055
:100760000020F0BDD0F8080502F05DBE01EBC1022B
:1007700000EB8202D0F80805926C02F0B0BD01EBEC
:10078000C10200EB8202D0F80805D2F8882202F0FC
:1007900002BED0F8080502F048BE0A0601F00F01BB
:1007A00001EBC10100EB810101D53C3101E001F514
:1007B0001F71006803F034BD01F00F020B0670B525
:1007C00002EBC20104464FF001004FF0000504EBBC
:1007D000810103D581F83D003C3103E081F87D5271
:1007E00001F51F710A7094F8BC24012A08D084F81E
:1007F000BC04206803F030FA002084F8BC5470BDBB
:10080000022070BD70B54268044601F00F009042AE
:1008100001D9012070BD01F00F024FF000050B0659
:1008200002EBC2014FF0010204EB810103D581F814
:100830003D203C3103E081F87D5201F51F718D7040
:10084000087094F8BC04012808D084F8BC242068FF
:1008500003F072FB002084F8BC5470BD022070BD10
:1008600001F00F0101EBC10100EB8100D0F8900213
:1008700070472DE9F04101F00F0604460D064FF0D8
:10088000010006EBC6014FF0000504EB810103D522
:1008900081F83D003C3103E081F87D5201F51F7184
:1008A0004F788A600B710E7007B14E83022B00D116
:1008B0004D7194F8BC24012A09D084F8BC04206846
:1008C00003F018F9284684F8BC54BDE8F0810220F2
:1008D000FBE770B501F00F05002405EBC50100EB47
:1008E000810101F5227181E81C0001F80B4C01F82F
:1008F0000C5DC368012B00D1CA61027B006803F064
:1009000073FB002070BD70B50D464168044605F0CC
:100910000F00884201D9012070BD29064FF0000662
:100920004FF0010207D500EBC00104EB810181F813
:100930003D203C3107E005EBC50104EB810181F866
:100940007D6201F51F718A70087094F8BC0401285B
:1009500007D084F8BC24206803F01AFB280702D0D3
:1009600007E0022070BD217B04F2C442206803F03E
:10097000B7FA002084F8BC6470BD70B501F00F04B4
:10098000002504EBC401012600EB8101483181E818
:100990002C0001F80B6C01F80C4DC368012B00D141
:1009A000CA61027B006803F01FFB002070BD0000DD
:1009B0002DE9FC5F05680446284603F0D2FC0028B8
:1009C0007ED1206803F0F9FC002879D0D5F808081A
:1009D000C0F30D20C4F8FC04206803F0EEFC80078F
:1009E00004D52068416901F002014161206803F0EB
:1009F000E4FCC10604F2C440009034D5206881694B
:100A000021F0100181612F6A07F00F01C7F3434005
:100A100001EBC101022804EB810606F51F7602D026
:100A2000062811D01AE047F6F070074216D0C7F337
:100A30000A12F1681746284603F0C3FCF168706992
:100A40003944F160384408E000990822284603F050
:100A5000B8FC7069C7F30A110844706120688169A5
:100A600041F010018161206803F0A7FC00034FF002
:100A7000000A4FF0020B4FF001097CD520680026D8
:100A800003F07AFC074674E0F80770D02068F1B2F2
:100A900003F08BFC8046C00707D005EB4611C1F878
:100AA000089B3146204601F03FFD5FEA087025D5DE
:100AB00005EB46110820C1F8080BFC49206800E04E
:100AC00042E2026C00EB461001928A42D0F8081B09
:100AD00005D9090403D54FF40041C0F8081B20468E
:100AE00000F01AFBF1490198884207D9E068012813
:100AF00004D120680121009A03F0F2F95FEAC8608E
:100B000004D505EB46111020C1F8080B5FEA887088
:100B10001CD56869000605D5D5F8040840F4806145
:100B2000C5F8041806EBC60004EB800090F87F12AD
:100B300000F51F70012905D180F803A02046F1B20D
:100B400000F008FA05EB4611C1F808BB5FEA8860BF
:100B500004D505EB46112020C1F8080B5FEA884058
:100B600005D505EB46114FF40050C1F8080B7F087E
:100B7000761C002F88D1206803F01FFC40036FD53E
:100B8000206803F0F2FB0026074667E0F80763D011
:100B90002068F1B203F0F7FB8046C00723D0D5F8F8
:100BA000342806F00F0C05EB461309FA0CF08243CB
:100BB000C5F83428C3F80899E06801280FD106EB7E
:100BC000C60004EB8000D0E911121144816436B9EB
:100BD000E06C20B920680121009A03F081F92046D9
:100BE000F1B2FFF7C3FD5FEA087004D505EB4611CB
:100BF0000820C1F808095FEAC86004D505EB461172
:100C00001020C1F808095FEA486004D505EB4611D9
:100C10004020C1F808095FEA887016D53146284699
:100C200003F072FB06EBC60004EB800090F83F1067
:100C30003C30012905D180F803A02046F1B200F034
:100C400085F905EB4611C1F808B95FEA086003D5DC
:100C50003146204601F0CEFC7F08761C002F95D14E
:100C6000206803F0AAFB002811DAD5F8040820F068
:100C70000101C5F8041894F8F40401283BD020467B
:100C800000F02EFA2068416901F0004141612068BE
:100C900003F093FB00050BD5D5F80808C00702D078
:100CA000204600F061FA2068416901F40061416169
:100CB000206803F082FB00010AD52068416901F039
:100CC0000061416194F8F404E0B1204600F04CFA70
:100CD000206803F072FBC00472D5D5F8040820F038
:100CE0000101C5F804182068102103F00DFB002154
:100CF0004FF67F322DE00021204684F8F4A4FFF760
:100D000009FDBFE784F8F4942068406D0121C0F329
:100D10008300C4F8F8042046FFF7FCFCD8E700BFC6
:100D200005EB4110C0F80829D0F8003923F400136E
:100D3000C0F80039C0F8082BD0F8003B23F40013AA
:100D4000C0F8003BD0F8003B43F00063C0F8003B24
:100D5000491C60688842E3D8D5F81C0840F00111AE
:100D6000C5F81C18206B68B1D5F8840840F00B0159
:100D7000C5F88418D5F8440840F00B012846C5F89A
:100D800044180DE0D5F8140842F22B010843C5F8C9
:100D90001408D5F8100840F00B012846C5F81018C3
:100DA000D0F8000820F4FE61C5F80018217B206807
:100DB000009A03F095F82068416901F4805141617F
:100DC000206803F0FAFA800417D5206802F0D2FEFA
:100DD000206803F0B9FA206100F0DCFF217C236871
:100DE000CAB20146184603F04DFB204600F062F9F6
:100DF0002068416901F400514161206803F0DDFA87
:100E0000000707D5204600F06FF92068416901F01E
:100E100008014161206803F0D0FA000616D5A869E0
:100E2000012620F08001A9610DE000BF06EBC6009D
:100E300004EB800090F87F02012803D12046F1B234
:100E4000FFF7ABFC761C6068B042EFD8206803F077
:100E5000B4FAC00221D501264F4616E006EBC601C2
:100E600005EB461004EB8101D0F8000991F8402011
:100E7000012A09D1002807DAF0B281F83F7040F06A
:100E800080012046FFF789FC761C6068B042E5D8F7
:100E90002068416901F480114161206803F08DFAF6
:100EA000800234D501204B4629E000000A30544F1F
:100EB00000EBC00205EB401104EB8202D1F8001BED
:100EC00092F88062012E19D1002917DA94F8FC6497
:100ED00001F4803106F00106B1420FD182F87F3271
:100EE000A96941F08002AA616969090606D4D5F8AA
:100EF000040840F40070C5F8040803E0401C616871
:100F00008142D5D82068416901F40011416120680F
:100F100003F053FA400007D52046FFF723FC206872
:100F2000416901F080414161206803F046FA4007C1
:100F30000AD520684568680702D52046FFF729FCD6
:100F40002068416829434160BDE8FC9FD0F808054E
:100F500002F0C4BAD0F8080502F0D4BA2DE9F04185
:100F600004008AB005D094F8BD040025266820B19D
:100F700008E001200AB0BDE8F081204684F8BC54A6
:100F800000F066F8032084F8BD04F06BC00500D4BF
:100F9000E560206802F09EFF04F1100168462822F7
:100FA0008846FFF703FA94E80F0002F0F1FD0227EC
:100FB000D8BB2068002103F024FA0020012610E0AD
:100FC00000EBC001421C04EB810181F83D6081F817
:100FD00040504D648D64CD6481F83C00A1F856000A
:100FE000D0B261688142EBD8002011E000EBC00173
:100FF000421C04EB810181F87D5281F88052C1F8D6
:101000008452C1F88852C1F88C5281F87C02D0B267
:1010100061688142EAD8282241466846FFF7C6F94E
:1010200094E80F0002F09AFE10B184F8BD74A0E7B6
:10103000606A84F8385084F8BD64012802D12046E3
:10104000FFF754FB206802F07BFE002092E70000CF
:1010500010B5B0B00446B8216846FFF7D9F9134976
:101060002068884220D100204FF480214FF44012A4
:101070002192CDE90010684600F0C0F808B1FFF7F2
:1010800076FA00F0B3F80A48016841F00071016097
:1010900000680022114600F000702E904D20FFF7EE
:1010A000F3FA4D20FFF7E2FA30B010BD0000044023
:1010B000D844025870B504460069012570B1022871
:1010C00001D0FFF754FAD4F80805294602F089FA4E
:1010D000D4F80805BDE8704002F03DBA0025F2E7FB
:1010E000D0F8080502F066BAD0F8080502F06CBA2C
:1010F00010B5044690F8BC0401280BD0012084F8F8
:10110000381084F8BC04206803F0AAF9002084F8A1
:10111000BC0410BD022010BDD0F8082500F2C44167
:10112000104602F06ABA10B590F8BC140446006884
:10113000012909D0012184F8BC14C16BC90509D467
:10114000A16A012902D005E0022010BD816B41F4A3
:1011500080318163206803F0B2F8206802F0E2FD7C
:10116000002084F8BC0410BD10B50446D0F8080572
:1011700002F085FA2068D0F8001E41F00101C0F8A5
:10118000001E206A002804D00248016841F00601D0
:10119000016010BD10ED00E0134970B50A68D2433C
:1011A000520705D5096801F00701814213D118E003
:1011B0000A6822F0070202430A60FFF7EDF90A4DC0
:1011C0004FF47A760446083D07E000BFFFF7E4F9E4
:1011D000001BB04201D9012070BD2868C0438004C3
:1011E000F4D4002070BD00000C4802580248016889
:1011F00041F08071016070470C4802582DE9FE4FA4
:101200000546DFF800A450F8081B0024FD4FC94331
:10121000019005F1280026460AF1240A00900801F1
:101220001DD4686E50B1B0F5801F0CD0B0F5001F12
:101230000ED0B0F5401F1ED001240FE0386840F4F6
:101240000030386017E00198022101F025FA03E030
:101250000098022101F0B0FA04000CD0264628883C
:10126000C043C00523D4A86D05281ED2DFE800F0D6
:101270000C11161B1B006A6EDAF8001021F44011E5
:101280001143CAF80010EAE7386840F400303860CB
:1012900009E00198002101F0FFF903E00098002126
:1012A00001F08AFA0446C4B100E0012426462888E9
:1012B000DFF85083C04308F12C0840052FD4D5F83F
:1012C000A400B0F5C00F28D010DCB8B1B0F5001FF5
:1012D00019D0B0F5800F0FD11AE0AA6DDAF800101E
:1012E00021F007011143CAF80010E0E7B0F5000F44
:1012F00013D0B0F5200F10D001240FE0386840F46F
:101300000030386009E00198002101F0C5F903E0E0
:101310000098002101F050FA044694B1264628882E
:10132000C043000530D4D5F8A800B0F1407F29D0E3
:1013300011DCC0B1B0F1807F1AD0B0F1007F10D1C4
:101340001BE0D5F8A420D8F8001021F46001114367
:10135000C8F80010E3E7B0F1806F13D0B0F1A06FD0
:1013600010D001240FE0386840F40030386009E004
:101370000198002101F090F903E00098002101F0AC
:101380001BFA044694B126462868DFF878B2C043B9
:101390000BF1200B80011FD4E86CD8B110280FD0BE
:1013A000202812D0302815D0012414E0D5F8A82028
:1013B000D8F8001021F0E0611143C8F80010E3E70D
:1013C000386840F40030386004E00198022101F0F0
:1013D00063F9044674B126462888C043C0042BD460
:1013E000E86DB0F5005F20D00DDCA0B1B0F5805FF6
:1013F0000FD115E0EA6CDBF8001021F03001114349
:10140000CBF80010E8E7B0F5405F13D0B0F5804F9F
:1014100010D001240FE0386840F40030386009E053
:101420000198002101F038F903E00098002101F053
:10143000C3F904468CB126462888C043800429D4C9
:10144000286EB0F5403F23D010DC08B3B0F5803FE4
:1014500014D0B0F5003F0FD115E0EA6DDAF80010B6
:1014600021F4E0411143CAF80010E5E7B0F5802F00
:101470000ED0B0F5A02F0BD001240AE00198012175
:1014800001F00AF903E00098012101F095F9044602
:1014900094B126462888C04340042AD4D5F8AC002D
:1014A000B0F1405F23D010DC08B3B0F1805F14D0FE
:1014B000B0F1005F0FD115E02A6EDAF8001021F4C8
:1014C000E0211143CAF80010E4E7B0F1804F0ED0DC
:1014D000B0F1A04F0BD001240AE00198012101F0E6
:1014E000DBF803E00098012101F066F9044674B1CD
:1014F00026462888C04300041FD4E86ED8B1B0F156
:10150000805F0ED0B0F1005F10D0012414E0D5F858
:10151000AC20D8F8001021F0E0411143C8F80010C9
:10152000E7E7386840F40030386004E001980121B2
:1015300001F0B2F8044674B126462868C043C001E1
:101540001ED4A86CD0B101280ED0022811D00328D7
:1015500014D0012413E0EA6EDAF8001021F04051B3
:101560001143CAF80010E8E7386840F400303860EA
:1015700004E00198022101F08FF804466CB1264680
:101580002868C043400255D41F48016841F4807167
:101590000160FFF701F881460EE0AA6CDBF800104D
:1015A00021F003011143CBF80010E9E7FEF7F4FF47
:1015B000A0EB090064283BD813480068C005F5D5A6
:1015C000BCBBDFF84090B5F8B01009F14409D9F878
:1015D000000001F4407100F44070884211D0D9F845
:1015E0000010D9F8002021F4407142F48032C9F88B
:1015F0000020D9F8002022F48032C9F80020C9F870
:10160000001003E02C44025800480258D5F8B000FE
:10161000B0F5807F19D1FEF7BFFF029011E000BF47
:10162000FEF7BAFF0299411A41F28830814208D987
:10163000032426462878DFF81494C043C00721D03D
:101640003CE0D9F800008007EAD5D5F8B010C1F326
:1016500001200328FE480DD0016821F47C5101606F
:10166000B5F8B020D9F80010C2F30B021143C9F845
:101670000010DFE7F74A036802EA111223F47C51F5
:101680001143ECE7A86F182816D005DCA0B1082894
:1016900008D0102804D10AE020280DD028280BD02B
:1016A00001240AE00198012100F0F6FF03E0009810
:1016B000012101F081F8044664B126462878C04330
:1016C00080071ED4686F062819D2DFE800F0160CD8
:1016D00011161616AA6FD9F8001021F0380111431F
:1016E000C9F80010EAE70198012100F0D5FF03E0F6
:1016F0000098012101F060F804467CB100E001246B
:1017000026462878C04340071FD4D5F89000062805
:1017100019D2DFE800F0160C111616166A6FD9F808
:10172000001021F007011143C9F80010E9E7019802
:10173000012100F0B1FF03E00098012101F03CF825
:101740000446A4B100E0012426462878C043800660
:101750002BD4D5F88C00B0F1405F24D011DC10B34D
:10176000B0F1805F15D0B0F1005F10D116E0D5F870
:101770009020D8F8001021F007011143C8F800109C
:10178000E3E7B0F1804F0ED0B0F1A04F0BD00124B1
:101790000AE00198002100F07FFF03E00098022199
:1017A00001F00AF8044694B126462878C043400662
:1017B0002BD4D5F89800B0F5406F24D011DC10B3CD
:1017C000B0F5806F15D0B0F5006F10D116E0D5F8E8
:1017D0008C20D9F8001021F0E0411143C9F8001025
:1017E000E3E7B0F5805F0ED0B0F5A05F0BD0012429
:1017F0000AE00198002100F04FFF03E00098022169
:1018000000F0DAFF044694B126462878C04300066B
:101810002BD4D5F89C00B0F5C04F24D011DC10B308
:10182000B0F5005F15D0B0F5804F10D116E0D5F8B7
:101830009820D8F8001021F4E0511143C8F80010A6
:10184000E3E7B0F5004F0ED0B0F5204F0BD00124E8
:101850000AE00198002100F01FFF03E00098022138
:1018600000F0AAFF044654B126462878C04300077A
:101870001ED4D5F88000B0F5805F0AD00FE0D5F80F
:101880009C20D8F8001021F460411143C8F80010E2
:10189000EBE70098022100F08FFF00B10126D5F898
:1018A0008020D9F8001021F440511143C9F80010EC
:1018B0002878C043C00613D4D5F89400B0F5807FD3
:1018C00005D10098022100F077FF00B10126D5F87C
:1018D0009420D8F8001021F440711143C8F800108A
:1018E0002868C043000316D4D5F8A00038B1B0F57D
:1018F000803F09D0B0F5003F0BD001240AE00198E9
:10190000002100F0C9FE03E00098022100F054FF1E
:1019100004468CB126462868C043400322D4D5F83B
:101920008400B0F5801F11D0B0F5001F13D0B0F5C2
:10193000401F15D0012414E0D5F8A020D8F80010DD
:1019400021F440311143C8F80010E4E7386840F44E
:101950000030386004E00098012100F02DFF0446BB
:101960005CB126462868C043C0031CD4286D70B102
:10197000B0F5803F10D0012414E0D5F88420D9F8C8
:10198000001021F440111143C9F80010EAE738684B
:1019900040F40030386004E00198022100F07CFE41
:1019A0000446DCB126462868C043800005D4009870
:1019B000022100F001FF00B101262868C043800326
:1019C0001BD4E86FB8B1B0F5807F10D0B0F5007FC0
:1019D00011D0B0F5407F0ED001240DE02A6DDBF868
:1019E000001021F480311143CBF80010DBE7386898
:1019F00040F4003038607CB326462868C043C002FB
:101A000007D42A6FDAF8001021F000411143CAF818
:101A100000102868C043800207D4AA6EDAF80010CC
:101A200021F080711143CAF800102868C0434000BB
:101A300009D40748016821F4004101600168D5F824
:101A4000B420114301602868C04306E054440258A2
:101A500010440258CFFFFF001DE007D46A6DDBF889
:101A6000001021F040511143CBF800102868C0430A
:101A7000000208D4D5F88820D9F8001021F44001DC
:101A80001143C9F8001028790024C04300F0010078
:101A9000204309D00EE0EA6FD9F8001021F440711C
:101AA0001143C9F80010A8E70198002100F0F4FDE7
:101AB00000B106462879C04300F00200204305D15A
:101AC0000198012100F0E8FD00B106462879C043E5
:101AD00000F00400204305D10198022100F0DCFD54
:101AE00000B106462879C04300F00800204305D124
:101AF0000098002100F060FE00B106462879C0433E
:101B000000F01000204305D10098012100F054FEA0
:101B100000B106462879C04300F02000044304D1F8
:101B20000098022100F048FE00B916B10120BDE87E
:101B3000FE8F0020FBE700002DE9F05F04000F4658
:101B40007ED0DFF83882D8F8000000F00F00B842ED
:101B50000CD2D8F8001021F00F013943C8F800105A
:101B6000D8F8000000F00F00B84269D12078844D09
:101B700040070AD52069296801F07001884204D91C
:101B8000296821F070010143296020787C4E361DC0
:101B900000070AD56069316801F07001884204D9F4
:101BA000316821F07001014331602078C0060AD508
:101BB000A069316801F4E061884204D9316821F4F8
:101BC000E061014331602078DFF8B4B180060BF1A9
:101BD000080B0CD5E1695846DBF8002002F07002D2
:101BE000914204D9026822F070020A430260207810
:101BF00080070AD5E068296801F00F01884204D9FE
:101C0000296821F00F01014329602078C0073ED0E8
:101C10005B49A2682868183920F470601043286076
:101C20006068022818D0032819D00968012819D043
:101C3000490700294ADADFF848A1AAF1080A00E0BA
:101C400044E0DAF8002022F007020243CAF800203C
:101C5000FEF7A2FC814612E009688903E9E70968FA
:101C60008901E6E7C905E4E7FEF796FCA0EB090168
:101C700041F28830814202D90320BDE8F09F6168BB
:101C8000DAF8000000F03800B0EBC10FECD120789A
:101C900080070AD5E068296801F00F01884204D264
:101CA000296821F00F0101432960D8F8001040464F
:101CB00001F00F01B9420BD9016821F00F0139433E
:101CC0000160006800F00F00B84201D00120D4E7A5
:101CD000207840070AD52069296801F07001884200
:101CE00004D2296821F0700101432960207800079F
:101CF0000AD56069316801F07001884204D2316808
:101D000021F07001014331602078C0060AD5A06936
:101D1000316801F4E061884204D2316821F4E06165
:101D200001433160207880060CD5E1695846DBF824
:101D3000002002F07002914204D2026822F0700288
:101D40000A43026000F048F80E492A682B68C2F383
:101D5000032203F00F038A5CC95C02F01F0201F04A
:101D60001F01D040084A20FA01F1116007490860BC
:101D700007480068BDE8F05FFEF74ABC002000524B
:101D800018440258824D00088C000024880000246A
:101D90008000002430B500F01FF80B4A0B490C4BB3
:101DA00015681468C5F3032204F00F048A5C095D0A
:101DB00002F01F0201F01F01D040064A20FA01F193
:101DC00019601060084630BD18440258824D000862
:101DD0008C00002488000024454970B545480968F6
:101DE000434B103B11F0380208D00111082A03D0F0
:101DF000102A0BD0182A0BD0084670BD1968890626
:101E0000FBD51968C1F3C101C84070BD3A4870BD27
:101E10003749374D18310C1D24350A680968266882
:101E20002D6802F0030406F00102C1F30511C5F3A9
:101E3000CC0515FB02F200EE102AB8EE400AE9B319
:101E40002F4ADFED2E0AB7EE001A6CB1DFED2D1A26
:101E5000012C01D0022C43D002EE101A1068F8EECB
:101E6000422A81EEA22A1EE01C68A40611D51B6836
:101E700001EE901A1168C3F3C103F8EE612AD8404D
:101E800001EE900AC1F30800F8EE611A81EEA22A71
:101E90000BE001EE901ADFED1C2A00BFF8EE611A8C
:101EA000106882EEA12AC0F3080001EE900AF8EE55
:101EB000611A40EE201A31EE810A00E015E022EEB0
:101EC000000A1068C0F34620401C00EE900AF8EEAD
:101ED000600A80EE201ABCEEC10A10EE100A70BD36
:101EE00001EE901ADFED092AD8E7002070BD00004E
:101EF000104402580090D00300366E0100000039F3
:101F0000304402580024744A0024744C001BB74B20
:101F10002DE9F05F04007DD0FF4F2078FE4D18378B
:101F2000DFF8F483103DC00748D0D8F800003968C6
:101F300000F03800102815D0182803D101F0030054
:101F400002280FD06068B0F5803F12D010B1B0F514
:101F5000A02F18D0286820F480302860286820F44A
:101F6000802009E02868800328D560680028D2D046
:101F700024E0286840F480302860606888B1FEF76B
:101F80000BFB064609E0286840F480202860F0E753
:101F9000FEF702FB801B64287ED828688003F7D5F3
:101FA0000CE0FEF7F9FA064605E000BFFEF7F4FA8A
:101FB000801B6428F0D828688003F7D42078800735
:101FC00056D5D8F80000DFF85093396810F0380083
:101FD000A9F10C090ED0182801D188070AD0E068B1
:101FE000A8B3296821F0190101432960FEF7D4FA4A
:101FF000064628E02868400702D5E06800288AD015
:10200000E168286820F0190008432860FEF7C4FA48
:10201000064606E0D2E000BFFEF7BEFA801B0228AB
:10202000BAD828684007F7D5217CD9F8002022F0DB
:10203000FE4242EA0161C9F8001019E0FEF7ACFA6D
:10204000801B0228A8D828684007F7D5ECE7FFE7EF
:10205000286820F001002860FEF79EFA064604E09A
:10206000FEF79AFA801B022896D828684007F7D412
:102070002078C00646D5D8F80000DFF89C92396871
:1020800000F03800A9F10409082812D0182805D159
:1020900001F00300012800E0CEE00AD0E06900284A
:1020A000286820D040F080002860FEF775FA0646C8
:1020B00015E02868C00502D5E06980287ED194F833
:1020C0002010D9F8002022F07C5242EA0161C9F8C0
:1020D000001017E0FEF760FA801B0228A0D82868DD
:1020E000C005F7D5EBE720F080002860FEF754FA32
:1020F000064604E0FEF750FA801B022890D82868B4
:10210000C005F7D42078000729D583486169643079
:1021100000298146016811D041F001010160FEF7FC
:102120003BFA064605E000BFFEF736FA801B0228A0
:1021300088D8D9F800008007F6D510E021F0010119
:102140000160FEF729FA064605E000BFFEF724FA13
:10215000801B022870D8D9F800008007F6D42078B8
:10216000800623D5A0690028286810D040F480504C
:102170002860FEF711FA064605E000BFFEF70CFAEC
:10218000801B022858D828688004F7D50EE020F478
:1021900080502860FEF700FA064604E0FEF7FCF9DE
:1021A000801B022848D828688004F7D4207840078C
:1021B00051D5DFF86891D9F8001000E015E141F43D
:1021C0008071C9F80010FEF7E7F9064605E000BF88
:1021D000FEF7E2F9801B64282ED8D9F80000C0056C
:1021E000F6D54D4EA068603601280AD008B1052802
:1021F00013D0306820F001003060306820F0040017
:1022000002E0306840F001003060A06841F2883A96
:1022100098B1FEF7C1F981460AE0306840F0040049
:102220003060EEE7FEF7B8F9A0EB0901514503D89D
:1022300030688007F6D50EE072E0FEF7ADF9814612
:1022400006E000BFFEF7A8F9A0EB0901514567D8E9
:1022500030688007F6D4606A00287CD0DFF8B8A028
:10226000D8F800100AF1200A4FF6F87B0AF10408AA
:10227000C1F3C2010329AAF104096DD0022828681C
:1022800020F08070286003D0FEF786F9044681E0D4
:10229000FEF782F9064604E0FEF77EF9801B02286D
:1022A00075D828688001F7D4E26A40F2F3313868C3
:1022B00054F8283F884340EA021018433860217BD5
:1022C0004FF4FE0C22894FF0FE47208A4902267DFA
:1022D000521E401EA1F5007189B2C2F308021143DB
:1022E000761E0CEA00400143484607EA06621143A5
:1022F000CAF80010D9F8001021F00101C9F8001047
:10230000D8F80030266A23EA0B0343EAC601C8F86E
:102310000010D9F8001004E0104402580048025898
:1023200035E0A26921F00C011143C9F800100168E1
:10233000E26921F0020111430160016841F480313A
:102340000160016841F400310160016841F48021BD
:102350000160016801E06CE020E041F001010160F2
:10236000286840F080702860FEF716F9044604E003
:10237000FEF712F9001B022809D828688001F7D55A
:1023800057E000BFFEF708F9001B022802D903201E
:10239000BDE8F09F28688001F4D44AE0396801283C
:1023A000DAF8000021D0A26A01F0030393421CD1A5
:1023B000E26AC1F305118A4217D1216BC0F308020A
:1023C000491E8A4211D1616BC0F34622491E9142D7
:1023D0000BD1A16BC0F30642491E914205D1E16BBE
:1023E000C0F30660491E814201D00120D0E7A16CF4
:1023F0004646D8F80000C0F3CC00814219D0D9F885
:1024000000004D4620F00100C9F80000FEF7C4F8B6
:102410004FEA0007FEF7C0F8B842FBD0A26C306864
:1024200020EA0B0040EAC2003060286840F001005A
:1024300028600020ACE7401EB0F1807F10B501D3CA
:10244000012010BD4FF0E02460610F21601702F001
:10245000BAF80020A0610721216110BDFEE700004D
:10246000F0B500230A251C463026372711E000BFAF
:10247000B5EB107F02D906EB107C01E007EB107C76
:1024800001F813C001EB430C00015B1C8CF8014008
:10249000DBB29342ECD3F0BD094808B5016841F0C6
:1024A00080010160016801F080010091016841F044
:1024B00001010160006800F00100009008BD00000B
:1024C000E044025810490122104810B500F0E2FE25
:1024D00008B1FEF74CF80E490C4801F0FBF808B1C2
:1024E000FEF745F80B49094800F07AFC08B1FEF701
:1024F0003EF8064801F074F908B1FEF738F8BDE877
:102500001040FEF773BE00000800002420050024E0
:10251000E800002468000024FEE7FEE70148FEF71B
:1025200047BA00001C1C00242DE9F0410446C06895
:102530000D462027236801284FF4004604F2C442C8
:1025400003EB4511D3F840C0D1F8080B09D0DFF8F0
:102550009CE0F4453AD1020433D500BFC1F8086BC2
:1025600040E0234B5FEA007E04D59C453AD9000445
:10257000F4D437E05FEA806E02D5C1F8087B31E021
:1025800010F0280F2ED19C4501D90004E6D4D1F8D3
:10259000101B05EBC50004EB8000C1F31201D0F85D
:1025A0009C32A3EB0101C0F8901200F51F70ADB989
:1025B00003691BB1C2681144C1600FE020680121AA
:1025C0000AE080060AD5C1F8087B07E035B9D4F8DF
:1025D0008C0218B90021184601F082FC2046E9B2AD
:1025E000FEF7CDF80020BDE8F08100000A31544F1D
:1025F0000A30544F2DE9F84F0E460568814601EB2D
:10260000C60100EB8104D4E913203C34904202D986
:102610000120BDE8F88FA168101A814200D2084657
:10262000C01C05EB461887081BE000BFA268A0EBA2
:10263000010A524500D2924699F80C100AF10300A3
:1026400000911FFA8AF3E16887082846F2B201F088
:102650008DFFE16801EB0A00E060616901EB0A00AF
:102660006061D8F8180980B2B84205D3D4E90401F2
:10267000814201D20028D9D1D4E90401884208D886
:10268000D5F83418012006F00F0290408143C5F8B8
:1026900034180020BDE770472DE9F047454D04464A
:1026A00089464FF0000A2868C04380070AD0414E8F
:1026B000283E306820F080603060FDF76DFF0746EF
:1026C000B04608E00120BDE8F08700BFFDF764FFD9
:1026D000C01B022867D8D8F800000001F6D4206893
:1026E00029684FF4FE0721F47C313E0241EA0030B4
:1026F0002860207AA389B4F804C040022D4D2D49EA
:102700005B1E227CACF1010C1035091DA0F5007098
:1027100080B2521ECCF3080C07EA034340EA0C00D7
:10272000184306EA0262104328600868626920F0D4
:10273000C000104308600A68A06922F0200202432A
:102740000A60281D0A6822F010020A6002684FF62B
:10275000F873E4699A4342EAC40202600868B9F176
:10276000000F40F010020A6011D00868B9F1010FA3
:1027700011D040F400100860D8F80000444640F042
:102780008060C8F80000FDF707FF05460DE0086807
:1027900040F40020EFE740F48010ECE7FDF7FCFE8A
:1027A000401B022801D903208DE720680001F5D5E0
:1027B000504688E7284402582DE9F047454D044625
:1027C00089464FF0000A2868C04380070AD0414E6E
:1027D000283E306820F080503060FDF7DDFE07466F
:1027E000B04608E00120BDE8F08700BFFDF7D4FE49
:1027F000C01B022867D8D8F800008000F6D42088D3
:1028000029684FF4FE0721F07C713E0241EA005036
:102810002860207AA389B4F804C040022D4D2D49C8
:102820005B1E227CACF1010C1835091DA0F500706F
:1028300080B2521ECCF3080C07EA034340EA0C00B6
:10284000184306EA0262104328600868626920F4AF
:102850004060104308600A68A06922F400720243D5
:102860000A60281D0A6822F480720A6002684FF626
:10287000F873E4699A4342EAC40202600868B9F155
:10288000000F40F480720A6011D00868B9F1010F9E
:1028900011D040F080700860D8F80000444640F045
:1028A0008050C8F80000FDF777FE05460DE0086887
:1028B00040F48000EFE740F40000ECE7FDF76CFE29
:1028C000401B022801D903208DE720688000F5D540
:1028D000504688E72844025870470178407841EA1A
:1028E00000207047FDF75EBE30B59DB04C216846B4
:1028F000FDF78EFD202113A8FDF78AFD0220FEF7CB
:102900004BFC1F48016821F440410160016800242C
:1029100001F440411B9101688904FCD50220099013
:10292000282521220092C3030193012106910A90D8
:102930000C23CDE90B050FAD042285E81900129494
:102940006846CDE90D12FFF7E3FA08B172B6FEE76B
:1029500040201A9008230501CDE9163013ABCDE9CC
:1029600018053F21032283E8160013A81146FFF73C
:10297000E3F8002801D072B6FEE71DB030BD0000BC
:10298000184802582748F0B5274A016841F47001F9
:102990000160106800F00F00072804D2106820F0D2
:1029A0000F00C01D106021490020204C10340B681E
:1029B0001F4D43F001030B6020600B682B400B6040
:1029C000136803F00F03072B04D9136823F00F03D8
:1029D000DB1D1360154C174A1834174B261D371D85
:1029E0002060124C154D28343060261D3860371D8C
:1029F00023603B1D35601C1D3A60251D2E1D18608F
:102A0000331D22602860326018600A6843F2D204E5
:102A1000064B0B4D22F4802260330A6018602C6054
:102A2000F0BD000088ED00E0002000520044025894
:102A30007FEDF6EA80020101000202020000FF01C0
:102A4000004000522DE9F0410C46D0F8D412D0F8E5
:102A5000C83200EB8101D1F8C01229B304F00F0293
:102A6000002702EB820500EB8506B5694DB102EB4C
:102A7000C20203EB8202526CB5FBF2F302FB13526B
:102A8000A2B1C1F81472D0F8D42200EB8200D0F8C1
:102A9000C40203692BB1D1F8080201F50471224682
:102AA00098470020BDE8F0810320FBE70023214682
:102AB0001A46B76100F0F0FDF3E770B50546D0F8AF
:102AC000D40205EB8000D0F8C04294B1284600F053
:102AD000BCFCC4F80C02D5F8D40205EB8000D0F899
:102AE000C412D4F80402CA6804F5037190470020A8
:102AF00070BD032070BD000070B5224D04462978DA
:102B000000F0E4FB2878002600F00F0000EB8000C6
:102B100004EB800086842046697800F0D7FB687853
:102B200000F00F0000EB800004EB8000A0F864616F
:102B30002046A97800F0CAFBA87800F00F0000EB4F
:102B4000800004EB80008684C684D4F8D40204EBB1
:102B50008000D0F8C01299B1D0F8C4024068804714
:102B6000D4F8D40204EB8000D0F8C00200F0BDFF1E
:102B7000D4F8D40204EB8000C0F8C062C4F8BC6290
:102B8000002070BD9400002410B5D0F8D41200EBE2
:102B90008100D0F8C04284B1D0F8C41259B194F881
:102BA0000002FF2807D08B68214694F8012298473D
:102BB000FF2084F80002002010BD032010BD00009B
:102BC0000A210180004870479800002470B58221D6
:102BD00006460D4800F092FA012105460A4800F029
:102BE0008DFA81210446084800F088FA0DB11021C1
:102BF000A9714FF0400104B1A18000B18180432050
:102C00003080014870BD0000A400002470B582210E
:102C100006460D4800F072FA012105460A4800F008
:102C20006DFA81210446084800F068FA0DB11021C0
:102C3000A9714FF4007104B1A18000B181804320DB
:102C40003080014870BD0000A400002470B58221CE
:102C500006460D4800F052FA012105460A4800F0E8
:102C60004DFA81210446084800F048FA0DB11021C0
:102C7000A9714FF0400104B1A18000B181804320CF
:102C80003080014870BD0000A40000242DE9F04709
:102C90004FF407750446284600F028FF06004FF061
:102CA000000965D02946FDF7B3FBD4F8D40201270B
:102CB0003C4D4FF4007A4FF0100804EB8000C0F850
:102CC000C062C4F8BC62207CF0B3297840230222A1
:102CD000204600F02BFC2878402300F00F0000EB8A
:102CE000800004EB8000878402226978204600F08F
:102CF0001DFC697808230322204601F00F0101EB37
:102D0000810104EB8101A1F86471A97801F00F0140
:102D100001EB810104EB8101A1F82680A97800F084
:102D200005FCA978C84601F00F0101EB810104EB15
:102D300081018F84C6F80492D4F8D40204EB800099
:102D4000D0F8C402006800E01AE006F5017680477A
:102D5000C6F81080C6F8148032687AB1207CF8B1C9
:102D600040236978204600F0EDFB0020BDE8F087A5
:102D7000D4F8D41204EB8101C1F8C0920220F5E727
:102D8000297802225346204600F0D0FB287853468B
:102D900000F00F0000EB800004EB80008784A3E7C5
:102DA0005346DEE79400002410B5D0F8D41200EBAF
:102DB0008101D1F8C01259B1027C084C002AD1F827
:102DC000042207D04023617800F0BCFB002010BD36
:102DD000032010BD4FF40073F5E7000094000024B9
:102DE00039B1D0F8D42200EB8200C0F8C412002020
:102DF000704703207047D0F8D42200EB8200D0F84F
:102E0000C00218B1C0F804120020704703207047B8
:102E1000D0F8D43200EB8300D0F8C00228B1C0F85B
:102E20001022C0F8081200207047032070472DE9D7
:102E3000FC410646D0F8D4020C46002106EB800087
:102E40000D46D0F8C0728DF80010ADF8041037B1FF
:102E5000217811F060022CD0202A48D102E0032012
:102E6000BDE8FC81E288E2B109060BD5D0F8C402C6
:102E70003946836860789847E288072A00D9072294
:102E800039462CE0607887F80002E088402800D3BB
:102E900040203946C2B2304687F8012200F07FF860
:102EA0002AE0D0F8C402002221468368607898475F
:102EB00022E0607830B101281ED00A2809D00B2802
:102EC00015D110E096F89C02032810D1022201A926
:102ED00005E096F89C02032809D101226946304694
:102EE00000F077F808E096F89C02032804D0214609
:102EF000304600F049F803252846B1E710B5D0F870
:102F0000D41200EB81020121D2F8C0221AB1D2F80A
:102F1000143213B116E0032010BD0B490123C2F88F
:102F20001432D2F81032097801F00F0404EB840453
:102F300000EB8404A361D2F81032D2F8082200F02A
:102F4000ABFB0021084610BD9400002410B5D0F85A
:102F5000B82200245268904700B10324204610BDD7
:102F6000002070470020704713460A46002110B524
:102F700000F0E8FA002010BD13460A46002110B503
:102F800000F08AFB002010BD10B58021044600F03F
:102F900064FB2046BDE81040002100F05EBB10B588
:102FA000C0F858210323C0F89432C0F85C211346BE
:102FB0000A46002100F0C6FA002010BD10B5052118
:102FC000C0F8941200231A46194600F0BBFA0020FC
:102FD00010BD10B582610223C0F89432C26113465D
:102FE0000A46002100F058FB002010BD10B5042156
:102FF000C0F8941200231A46194600F04DFB002039
:1030000010BDF8B504460D460020ADF80000488814
:10301000010A062947D006DC01290FD0022912D067
:10302000032962D11DE0072946D00F295DD1D4F8CC
:10303000B402C26920E0694690473BE0D4F8B4127C
:10304000207C0A68F7E7207C02260028D4F8B80222
:1030500005D0C16A684688470146467036E0816AF5
:10306000F8E7C0B2062840D2DFE800F003090D11EE
:103070001519D4F8B4024268B2B3207CDBE7D4F867
:10308000B4028268F8E7D4F8B402C268F4E7D4F86E
:10309000B4020269F0E7D4F8B4024269ECE7D4F86C
:1030A000B4028269E8E7207CF0B9D4F8B802416B39
:1030B00068468847014609E0207CA8B9D4F8B802E0
:1030C000016B68468847014607204870EA888AB144
:1030D000BDF8000040B1824200D902462046ADF85A
:1030E0000020FFF776FFF8BDFFE729462046FFF7EF
:1030F0004BFFF8E72046FFF779FFF4E778B5428801
:103100000D460178002604468A4212D9ADF8001017
:103110000AE0694600F00FF84178052904D181786A
:103120000646A94205D000266188BDF800209142DC
:10313000EFD8304678BD0A8803781A440A800178AF
:103140000844704770B500284FF000051ED00446B3
:103150002E4602E0761C641CF6B22378002BF9D1CF
:10316000022404EB4604148012786B1C03264A5593
:103170000024AA1CCE5406E0551C8B54EAB2531C02
:10318000401C8C54DAB20378002BF5D170BD0100DD
:103190004FF0000004D0012901D0022901D0032002
:1031A000704701207047000004A00A46024910B58C
:1031B000FFF7C8FF004810BDFC070024434443202C
:1031C000436F6E66696700001220088000487047F0
:1031D0002C00002404A00A46024910B5FFF7B2FFF4
:1031E000004810BDFC07002443444320496E746529
:1031F0007266616365000000042008800048704723
:103200002800002404A00A46024910B5FFF79AFFDF
:10321000004810BDFC07002453544D6963726F656C
:103220006C656374726F6E696373000004A00A4674
:10323000024910B5FFF786FF004810BDFC070024C7
:1032400053544D3332205669727475616C20436F4C
:103250006D506F727400000010B51A2008800B4882
:103260000A490830021F096800681468081809D064
:1032700007490822FFF7F4F80549042220461031D7
:10328000FFF7EEF80248801E10BD000000E8F11FB5
:103290004E00002478B10023C0F8B832C0F8C43220
:1032A000C0F8D03209B1C0F8B4120121027080F820
:1032B0009C1200F0CFB80320704710B5D0F8C802B8
:1032C000FDF7A0FABDE81040FFF761BF10B5D0F8D8
:1032D000C802FDF771FABDE81040FFF758BF2DE9AD
:1032E000F041174604464FF0000521B194F89C02C6
:1032F000032842D04CE0D4F8941204F114000229BF
:1033000035D1D0E902639E4206D9F21A394682606D
:103310002046FFF731FE0FE0B34214D140689842D7
:1033200011D3D4F8981288420DD2002220461146BB
:10333000FFF722FEC4F8985200231A461946204689
:1033400000F000F913E094F89C02032808D1D4F8A7
:10335000B802C16821B1C4F8D452C1682046884778
:103360008021204600F079F92046FFF727FE94F8E7
:10337000A00268B184F8A0520AE0D4F8B802426909
:1033800032B1C4F8D452426920469047002800D197
:103390000020BDE8F08170B5134604464FF00002EE
:1033A00021B194F89C02032830D03AE0D4F894126A
:1033B00004F5AA70032934D1D0E902518D420AD90B
:1033C0006A1A82600846824200D3024619462046A5
:1033D000FFF7CAFD25E094F8AA0210F01F0003D001
:1033E000012802D0022800D0002294F89C02032871
:1033F00008D1D4F8B802016921B1C4F8D422016916
:10340000204688472046FFF7F1FD0AE0D4F8B802CD
:10341000836933B1C4F8D4228269204690470028DA
:1034200000D1002070BD0020704710B5D0F8B81250
:10343000012280F89C22002429B103794A68D9B27C
:10344000904700B10324204610BDD0F8C802FDF714
:1034500007BA000070B50178012929D11549022366
:103460000022154C0925C1F80805C0F8C812084605
:10347000C1E90323C1E906320A624A62CA620A63E9
:103480004A63C1E90045FDF769FD08B1FDF76FF832
:1034900008484FF40071FDF73EF9064880220021EC
:1034A000FDF73DF9034801214FF4BA72FDF737F9F2
:1034B000002070BD1C1C002400000440D0F8C8226D
:1034C00001F07F000B0600EBC00002EB800002D58C
:1034D00090F83E00704790F87E02704710B5D0F823
:1034E000D42200EB8202D2F8B82222B190F89C32AA
:1034F000032B02D004E0032010BD126A02B19047F2
:10350000002010BD10B5D0F8D42200EB8202D2F812
:10351000B82222B190F89C32032B02D004E00320A1
:1035200010BD526A02B19047002010BD10B51C4674
:10353000D0F8C80213462246FDF79BF9BDE81040BB
:10354000FFF725BE10B5D0F8C802FDF7C2F9BDE8F7
:103550001040FFF71CBE2DE9F04104460125002074
:10356000D4F8B812064684F89C52C4F894026060FD
:10357000C4F8A40284F8A00231B14A6822B1002143
:103580002046904700B103262046002240231146E2
:10359000FFF7CCFF4027A4F8645100223B4680216E
:1035A0002046C4F86071FFF7C1FFA584304627624A
:1035B000BDE8F08190F89C12042903D190F89D1287
:1035C00080F89C120020704710B590F89C120329D7
:1035D00005D1D0F8B81211B1C96901B188470020EE
:1035E00010BD01740020704710B5D0F8C802FDF777
:1035F0007FFDBDE81040FFF7CABD70B5044600F27C
:10360000AA20054600F051F894F8AA020123B4F864
:10361000B01210F01F02C4F89432C4F898120AD005
:10362000012A0ED0022A12D000F080012046BDE807
:10363000704000F012B829462046BDE8704000F006
:10364000D1B829462046BDE8704000F014BA29469A
:103650002046BDE8704000F05CB910B5D0F8C80253
:10366000FDF751F9BDE81040FFF791BD10B5D0F856
:10367000C802FDF758FDBDE81040FFF788BD90F87F
:103680009C12042903D090F89C1280F89D1204210A
:1036900080F89C120020704710B5D0F8C802FDF7E2
:1036A0006CF9BDE81040FFF772BD70B505460878AB
:1036B0008C1C2870487868702046FFF70EF9A41C0F
:1036C00068802046FFF709F9A880A01CFFF705F9DC
:1036D000E88070BD38B504460020ADF80000A1B107
:1036E000C4F8B812D4F8D40204EB8000D0F8B802C1
:1036F000C16A19B168468847C4F8D002D4F8D80224
:10370000401CC4F8D802002038BD032038BDD0F8D2
:10371000B83202460020002B02D01B681046184722
:10372000704700002DE9F0412C4E044688780025B2
:103730008846C1B20129317006D941462046FFF7BB
:1037400023FC0320BDE8F08194F89C0202270228A4
:103750000CD003281DD041462046FFF715FC3178D8
:103760002046FFF7F3FB03252846EBE789B3204605
:103770006160FFF7CCFF050004D041462046FFF70B
:1037800003FC1DE02046FFF731FC032084F89C0277
:10379000EAE7C1B1606888421BD0C1B22046FFF79A
:1037A000D5FB317820466160FFF7B1FF050010D0EE
:1037B00041462046FFF7E8FB21792046FFF7C6FB8C
:1037C00084F89C72D0E7616084F89C722046FFF711
:1037D000BDFB2046FFF70AFCC6E70000900000246E
:1037E000FFF744BF2DE9F0410A784FF0000512F0D1
:1037F00060020CD0202A01D0402A7DD1D0F8D422FA
:1038000000EB8202D2F8B8229268904731E04B7800
:10381000002201260A2B6FD2DFE803F041666E58C2
:103820006E08056E2D29FFF7ECFB67E004468888DB
:10383000D8B9C888C8B94888802816D294F89C227C
:1038400000F07F07032A10D03946204684F89E7284
:10385000FFF7CAFE2046FFF7C9FB1FB1022084F81C
:103860009C024BE084F89C6248E0204644E0FFF76D
:1038700059FF054642E0CB88012B3DD190F89C32A0
:10388000012B04D0022B02D0032B35D104E000F130
:1038900008018260012216E00122011D13E090F868
:1038A0009C22012A03D0022A01D0032A24D1CA88EB
:1038B000022A21D1D0F8A412C66009B10321C16047
:1038C000022200F10C01FFF784FB17E04A88012A6D
:1038D00002D0022A03D00FE0C0F8A46216E0898863
:1038E000090A80F8A01211E090F89C32012B08D050
:1038F000022B06D0032B04D0FFF746FB2846BDE879
:10390000F08149880129F9D1C0F8A422FFF76EFBA4
:10391000F4E72DE9F0410A780E460979054612F0E0
:1039200060004FF00008CCB20BD0202801D0402816
:103930006AD121462846FFF713FBFF2800D0D8B3F1
:1039400096E07078C8B3012824D003285CD195F89C
:103950009C02022802D0032856D10CE0002C53D040
:10396000802C51D021462846FFF777FE802128463B
:10397000FFF773FE7CE0708840B93CB1802C05D025
:10398000F08818B921462846FFF767FE2846FFF75A
:103990002DFB6DE095F89C020228DFD0032863D14F
:1039A000708880BB600603D021462846FFF785FC5F
:1039B0002846FFF71BFBBCE700E00AE0C5F8D4028D
:1039C000D5F8B8028268F2B1314628469047804661
:1039D0004EE095F89C020027022802D0032843D12C
:1039E00013E00CB1802C3FD1200604F07F0000EBE7
:1039F000800005EB800101D5143101E001F5AA71C9
:103A000002220F602CE033E02EE0200604F00F00CD
:103A100000EB800005EB800009D5808C20B304F01A
:103A20007F0000EB800005EB800614360AE0B0F85A
:103A30006401C8B104F07F0000EB800005EB800654
:103A400006F5AA764CB1802C07D021462846FFF710
:103A500035FD10B10120306000E0376002223146B0
:103A60002846FFF7B6FA03E031462846FFF78CFAFE
:103A70004046BDE8F08170B5054608780E464FF027
:103A8000000410F0600003D0202801D0402827D186
:103A900095F89C02012803D0022801D003281FD1E9
:103AA000B088C1B201291AD8C1B22846FFF75AFA24
:103AB000FF280CD058B9D5F8B8128A683AB1C5F8C1
:103AC000D40228468A6831469047044600E0032421
:103AD000F088204307D12846FFF788FA03E03146F3
:103AE0002846FFF751FA204670BD704700487047DE
:103AF000FC19002470B54D7801230A78012D1C4C67
:103B000002F00F0503FA05F3D0F81C5817D000EBAC
:103B1000421245EA0343C0F81C38D2F8000B0004F7
:103B20000BD40B890979D2F8000BC3F30A031843AD
:103B300044EA81410843C2F8000B002070BD9EB2E8
:103B40003543C0F81C5800EB4213D3F800090004B9
:103B5000F3D40D890979D3F80009C5F30A0589045E
:103B6000284341EA825108432043C3F80009E4E7AF
:103B700000800010D0F800196FF30A01C0F8001996
:103B8000D0F8041841F48071C0F804180020704780
:103B900070B504461D4606990A9E0D9801291DD050
:103BA000E06840F04000E060204600F035F8A16B8E
:103BB0005EB321F48031A163012D0ED1E16D144A71
:103BC00089B2E165E16D1143E165A16841F006014B
:103BD000A160A16841F02001A16070BDA26B012825
:103BE0000C4922F48030A063E06800EA0100E06044
:103BF000E06820F44010E06003D1E06840F48010F9
:103C0000E060204600F008F8D6E741F48031D2E7C2
:103C10000000EE03BFFFBDFF08B50E490022009271
:103C2000009B5B1C00938B420CD80369002BF7DAD6
:103C30000092026942F001020261009A521C009255
:103C40008A4201D9032008BD0269D207F5D10020BC
:103C500008BD0000400D030070B50A7801234C78C0
:103C6000012C00EB42122CD0D2F8004B002C0BDAC6
:103C7000D2F8004B44F00064C2F8004BD2F8004B7D
:103C800044F08044C2F8004B0C78D0F83C5804F063
:103C90000F0403FA04F425EA0444C0F83C48097808
:103CA000D0F81C4801F00F018B401C4924EA034363
:103CB000C0F81C38D2F8000B0840C2F8000B0020F6
:103CC00070BDD2F80049002C0BDAD2F8004944F05C
:103CD0000064C2F80049D2F8004944F08044C2F8B8
:103CE00000490D78D0F83C4805F00F050C4E03FA5A
:103CF00005F5ADB2AC43C0F83C48D0F81C48097893
:103D000001F00F018B4099B28C43C0F81C48D2F8E7
:103D100000093040C2F80009D1E700000078F3EF55
:103D2000007833ECD0F8001E21F00301C0F8001E2B
:103D3000D0F8041821F00201C0F8041800207047E0
:103D4000D0F8001E21F00301C0F8001ED0F80418BE
:103D500041F00201C0F80418002070472DE9F04F2F
:103D60009A460E4600210446DDE90B3B109F0D46A6
:103D7000099A084604EB800CCCF80411401C0F286B
:103D8000F8D32046A7B1806B40F4001CC4F838C0BB
:103D900088460846C4F8000E2046D4F80018012BC7
:103DA000C4F800181AD0D0F8001841F003011AE046
:103DB000D0F8040840F0020CC4F804C8A06B20F44A
:103DC000001CC4F838C0206840F0400CC4F800C0A3
:103DD000206840F0800CC4F800C0D9E7D0F8001883
:103DE0000AB141F00101C0F80018102100F08CFA6E
:103DF00000B10125204600F069FA00B101254046D6
:103E00004FF000684FF67F334FF09049C4F8100828
:103E1000C4F81408C4F81C08002114E004EB411293
:103E2000D2F800C9BCF1000F06DA11B1C2F800994E
:103E300004E0C4F8008901E0C2F80009C2F81009E2
:103E4000C2F80839491C8E42E8D8002115E000BFAD
:103E500004EB4112D2F800CBBCF1000F06DA11B12D
:103E6000C2F8009B04E0C4F8008B01E0C2F8000B2C
:103E7000C2F8100BC2F8083B491C8E42E8D8D4F8AF
:103E80001038BAF1000F6FF0804223F48073C4F849
:103E90001038A061626103D1A06940F01000A061F8
:103EA000A069BBF1000F094A40EA0200A06103D0FB
:103EB000A06940F00800A061012F03D1A069044966
:103EC0000843A0612846BDE8F08F000000383C8020
:103ED00004000040816821F00101816000207047EA
:103EE00010B5144C036CA34203D9D0F8003B002B4F
:103EF0001EDB0023C0F8103B0129D0F8101B41F451
:103F00000021C0F8101BD0F8101B41F01801C0F8B8
:103F1000101BD0F8101B41F0C041C0F8101B07D196
:103F2000C0F8142BD0F8001B41F08021C0F8001B12
:103F3000002010BD0A30544F0B784A78012A00EB5C
:103F400043100BD0D0F8002B22F40012C0F8002B45
:103F50000979032914D0022912D017E0D0F80029DA
:103F600022F40012C0F800290979032901D002299E
:103F70000CD1D0F8001941F08051C0F8001905E0CB
:103F8000D0F8001B41F08051C0F8001B00207047A2
:103F90000A784B78D1B2012B00EB421012D0D0F846
:103FA000002B002A06DB29B1D0F8001B21F080414C
:103FB000C0F8001BD0F8001B41F40011C0F8001B32
:103FC00000207047D0F80029002A06DB29B1D0F87C
:103FD000001921F08041C0F80019D0F8001941F40F
:103FE0000011C0F80019EBE7F8B50B786FF06046E8
:103FF0004F788A4DDCB2012F00EB43132BD0D3F85E
:10400000107B002C07EAC544C3F8104BD3F8104BC3
:1040100004EA0504C3F8104B7ED00D69002D7CD056
:104020008C6825446D1EB5FBF4F5ADB26C430C6293
:1040300006EAC545D3F8104B2C43C3F8104BD3F810
:10404000104B0D6AC5F3120554EA0504C3F8104B72
:10405000012A6ED0C9E00F6937B3D3F810796FF336
:104060001207C3F81079D3F8107907EA0507C3F8E7
:1040700010794CB30F698D68D3F810C92F447F1E97
:10408000B7FBF5F506EAC54545EA0C05C3F8105936
:104090000E69D3F81059C6F312063543C3F8105908
:1040A0000D79012D1CD027E0D3F810692E40C3F8FC
:1040B0001069D3F8105945F40025C3F81059D3F806
:1040C00010596FF3120515E00E698D68AE4200D9E4
:1040D0000D61D0F8106946F40026C0F81069D7E7E2
:1040E000D3F8105925F0C045C3F81059D3F810592A
:1040F00045F00055C3F81059012A1BD000EB4413BA
:10410000D3F8004944F00444C3F800490C79012C69
:1041100031D00A6972B301E042E055E00B78D0F883
:104120003418012203F00F039A401143C0F83418E9
:1041300071E056E0CA691AB100EB4413C3F81429C0
:10414000097901290ED1D0F80818C90500EB4411EE
:10415000D1F8002902D442F0005201E042F080522E
:10416000C1F8002900EB4410D0F8001941F00441D7
:10417000C0F800194FE0D0F80848E405D3F800492A
:1041800002D444F0005401E044F08054C3F80049E4
:1041900000920B8A0A78C9689BB200F0E7F93AE00E
:1041A0000C690CB18C680C618C680C62C4F312054C
:1041B000D0F8104B2C43C0F8104BD0F8104B44F4FF
:1041C0000024C0F8104B43E78D68D3F8104BC5F3BB
:1041D00012052C43C3F8104BD3F8104B44F40024C1
:1041E00034E7CA680AB1C3F8142B097901290CD144
:1041F000D0F80808C005D3F8000B02D440F00050F6
:1042000001E040F08050C3F8000BD3F8000B40F001
:104210000440C3F8000B0020F8BD0000FFFF07E0DA
:1042200038B5002242F21074002300920A784D78CB
:10423000012D00EB421219D0D2F8005B002D3CDAC0
:10424000D2F8005B45F00065C2F8005B0A7800EB2D
:104250004212D2F8005B45F08045C2F8005B009A3C
:10426000521C0092A24221D9012326E0D2F8005923
:10427000002D22DAD2F8005945F00065C2F8005945
:104280000A7800EB4212D2F8005945F08045C2F896
:104290000059009A521C0092A242E5D80A7800EB1D
:1042A0004212D2F80029002AF3DB06E00A7800EB7C
:1042B0004212D2F8002B002AD1DB184638BD8168A3
:1042C00041F00101816000207047000008B50D49F0
:1042D00000220092009B5B1C00938B420AD803696A
:1042E000002BF7DA009210230361009A521C00920F
:1042F0008A4201D9032008BD0269D206F5D4002004
:1043000008BD0000400D030018B50E4A00230093BD
:10431000009C641C009494420CD80469002CF7DAC9
:104320002024009344EA811101610099491C009105
:10433000914201D9032018BD01698906F5D40020F6
:1043400018BD0000400D0300D0F8080810F006006A
:1043500004D0022803D0062801D00F207047022085
:104360007047406900F001007047D0F81818D0F885
:104370001C08084080B27047D0F81818D0F81C0804
:104380000840000C704710B5D0F8102801F00F035A
:1043900000EB4114D0F83418D4F80809D94001F0E2
:1043A000010142EAC111084010BD00EB4111D1F8F2
:1043B000081BD0F81408084070474169806908401C
:1043C00070470346084630B5940802F00301002206
:1043D00003F5805303E01D68521C40F8045BA242C1
:1043E000F9D300290CD01C680023491EDD00090404
:1043F00003F10103090C24FA05F200F8012BF4D1B2
:1044000030BD70B50446C06801294FF0000520F0AA
:10441000C040E06001D079B120E0E06840F0005099
:10442000E0600120FCF7A6F860696D1C10F0010F38
:1044300010D1322DF5D30DE0E06840F08040E0600F
:104440000120FCF797F860696D1C10F0010F01D096
:10445000322DF5D3322D01D0002070BD012070BD6A
:10446000D0F800284FF4FE6303EA011322F4FE6241
:10447000C0F80028D0F800181943C0F80018002030
:1044800070470000022A3ED1264A274B0A449A422E
:1044900001D20F2138E0254A254B0A449A4201D225
:1044A0000E2131E0234A244B0A449A4201D20D21C5
:1044B0002AE0224A224B0A449A4201D20C2123E0EC
:1044C000204B214A0B44934201D20B211CE01F4B8D
:1044D0001F4A0B44934201D20A2115E01D4B1E4A8C
:1044E0000B4493420FD31D4B1D4A0B44934201D200
:1044F000082109E01B4B1C4A1944914201D20721B3
:1045000002E0062100E00921C2684FF4705322F452
:104510007052C26003EA8123C1681943C160002060
:1045200070470000405327FF00350C00401E1BFF62
:1045300040420F0000DC0BFF804F1200808CF9FE20
:1045400020D6130060B6E5FE60E3160000D3CEFE71
:1045500040771B00C05BB3FEC091210000CA91FEF2
:1045600020753800E05459FEE09C410010B5029CD3
:1045700074B900EB0232DB1C00209B0802F580526C
:1045800004E000BF51F8044B1460401C9842F9D37A
:10459000002010BDFEE703B401984100009850EAE6
:1045A000C12018BF04204A0D18BF40F0010040F29E
:1045B000FF72B2EB515F08BF40F00200012808BF54
:1045C000052002B07047090700284FEA116104DB9B
:1045D00000F1E02080F80014704700F00F0000F1B7
:1045E000E02080F8141D704710B529499FED261B67
:1045F0002DED020B84B0059820F000408842DCBF0E
:1046000000209DED040B2EDD2249884209D104983B
:1046100040B94FF00100FBF72AFF00F0C1FA06B0E5
:1046200010BD05DB9DED040B30EE000B06B010BD98
:1046300068469DED040B00F02FF810F003000DD03C
:10464000012814D09DED021B9DED000B022816D011
:1046500000F0AAF906B0B1EE400B10BD9DED021BB3
:104660009DED000B012000F047FA06B010BD9DED56
:10467000021B9DED000B00F097F906B010BD012064
:1046800000F03AFAE6E70000000000000000000039
:10469000FB21E93F0000F07F2DE9F14F04462DEDAD
:1046A000020B2DED048B94B09FED9D0B80ED020B62
:1046B000199E9D4826F0004585420ADC9DED180BA9
:1046C000002084ED000B14B0BDEC048B03B0BDE8FA
:1046D000F08F96489FED969B9FED978BA84225DD26
:1046E00097489FED991B9FED9A2B9DED180B002E7F
:1046F0000DDD30EE490B854212BF30EE480B30EE37
:10470000410B30EE420B84ED000B0120DBE730EE75
:10471000090B854212BF30EE080B30EE010B30EE74
:10472000020B84ED000B4FF0FF30CCE78A48A84223
:1047300053DB9DED180B51EC100B00F049FA41ECE6
:10474000100BB0EE401B9FED862B9FED870B290DC4
:10475000DFF81CC201EE020B0120FDEEC00B10EED3
:10476000903A00EE903AB8EEE02BB0EE410B02EE3C
:10477000490B22EE081BFC44032830EE411B84ED5C
:10478000001B1DD011EE902A00EB4015113DC2F325
:104790000A528A1A954213DA0CEB0012B0EE403B33
:1047A00092ED000B401C20EE021B33EE410B33EE6A
:1047B000403B33EE411B92ED023B12EE031BDBE765
:1047C000002EA8BF1846BFF67EAF94ED000B5842EE
:1047D000B1EE400B84ED000B75E7C6F3130040F417
:1047E000801EC6F30A50A0F2F530471100F01F05F5
:1047F000C5F12000DDF860B013900020089009900A
:1048000005200DF1080C5B49002D07EB00027944EF
:1048100008BF51F8221009D051F8223001EB820173
:10482000AB404A68139922FA01F11943A1FB0E2605
:10483000A1FB0B131A449A4234BF0123002303EB5C
:1048400006080CEB8003D3E901A60E448E4234BF68
:104850000121002192448A4411B1924502D903E01A
:10486000924501D2012100E00021C3E901A64144A3
:104870004CF82010011EA0F10100C4DC04989DED4D
:10488000050A00F10050810F04989FED3B4B80001A
:1048900001EE100ADDED060A9DED072AB8EEC13BD8
:1048A000B8EE401BB8EE600BB8EE422B002021EEB4
:1048B000041B9FED334B20EE040B9FED334B22EE98
:1048C000042B30EE024B34EE014B34EE034B8DEDF6
:1048D000004B00909DED004B199834EE433B10F0D7
:1048E000004F33EE411B31EE400B32EE401B9DED8D
:1048F000000B9FED272B20EE020B9FED272B01EEE7
:10490000020B9DED001B9FED262B01EE020B1CBF41
:104910004942B1EE400B84ED000B0846D3E600009F
:104920000000000000000000FB21E93F7CD90240AC
:1049300000004054FB21F93F3163621A61B4D03D5D
:10494000FB21F93F000000000000601A61B4D03D77
:104950007370032E8A19A33BFB213941000000002C
:1049600083C8C96D305FE43F000000000000E03FF5
:104970004E060000E6050000000000000000103EAA
:10498000000000000000103C000000000000103A91
:104990003326A611460B113C182D4454FB21F93D3A
:1049A00000000054FB21F93D10B52DED040B2DED59
:1049B000068B82B0B0EE41AB09989FED299B20F0A9
:1049C0000044B4F1795F0FDA9DED080BBDEEC00B2A
:1049D00010EE100A002801BFB0EE490B02B0BDEC8A
:1049E000068B04B008BF10BD9DED080B1E480621C4
:1049F00020EE008BB0EE480B784400F045F820EE36
:104A0000080B9DED081B1C48844228EE000B01EEAC
:104A10004A0B9FED171B28EE011BBCBF31EE400B6C
:104A200039EE400B16DB1548A042BCBF9FED142B9E
:104A30008DED002B06DBA4F5001001900020009006
:104A40009DED002B31EE421B39EE422B31EE400B37
:104A500032EE400B02B0BDEC068B04B010BD00007E
:104A6000000000000000F03F9C0300000000000078
:104A7000000000000000E03F3333D33F0000E93F77
:104A8000000000000000D23F491E00EBC102B0EE62
:104A9000401B92ED000B31F006020DD0491E00EBD9
:104AA000C102B0EE403B92ED002B31F00602B0EEB9
:104AB000420B03EE010BF1D1022914D004290AD0D4
:104AC000062918BF704790ED0A2B00EE012B90EDE0
:104AD000080B02EE010B90ED062B00EE012B90ED82
:104AE000040B02EE010B90ED022B00EE012B90ED7A
:104AF000000B02EE010B704731B504462DED040B9F
:104B00002DED068BB0EE419B07989DED060B20F036
:104B10000040B0F1795F0DDA51EC100BFFF73BFD6F
:104B2000042808BF00F048F89DED060BBDEC068B8D
:104B300005B030BD20EE008B1348052128EE00ABF8
:104B4000B0EE480B7844FFF79FFF9FED111B8CB12F
:104B50009FED112B29EE022B0AEE402B9DED060B4B
:104B600018EE029B0AEE419B30EE490BBDEC068B22
:104B700005B030BD08EE001B9DED060B0AEE010BE3
:104B8000BDEC068B05B030BD4803000000000000FE
:104B9000495555555555C5BF000000000000E03F80
:104BA0009FED031B81EE010B704700000000000029
:104BB00000000000000000009FED030B20EE000B42
:104BC000704700000000000000000000000000101E
:104BD00082B0CDE9000121F0004001909DED000B75
:104BE00002B051EC100B7047FBF7E4FCFDF77CFEC4
:104BF000FDF752FCFDF766FC00F0BAF8FCE7000098
:104C000010B5354CDFED350A35492DED088B94EDA7
:104C1000010A30EE200A10EE100A84ED010A8842E3
:104C200003DB9FED300A84ED010AB0EE409A9FED60
:104C30002E8BB7EEC90A9FED2EAB80EE081B21EE3E
:104C40000A0BFFF7D1FCB0EE481B00EE081BDFEDAE
:104C50002A0A94ED010A30EE200AB7EEC00AF7EEF8
:104C6000C19B80EE081B21EE0A0BFFF7BDFCB0EEE6
:104C7000481B00EE081B9FED210AD4ED010A30EE1F
:104C8000800AB7EEC00AB7EEC1BB80EE081B21EE6A
:104C90000A0BFFF7A9FCB0EE481B002000EE081B32
:104CA000B0EE490AF7EEC10B00F02AF80120B0EE91
:104CB000690A00F025F80220B0EE4B0A00F020F857
:104CC0000320B0EE600A00F01BF8BDEC088BBDE8D5
:104CD000104000F02FB80000000000240AD7233C49
:104CE0000000B443000000000000000000806640A7
:104CF0006E861BF0F92109400000F042000070436D
:104D00000A4BF0B510EE100A09491A88060A050C7C
:104D1000040E571C8854B8B2421C0E5490B2421C68
:104D20000D5490B2421C0C541A80F0BD00000024B7
:104D30002001002470B50C4D00240C4980237F22F3
:104D40002888461C0C54B0B2461C0C54B0B2461C09
:104D50000B54B0B2431C0A5499B20448298000F0A5
:104D600009F82C8070BD0000000000242001002400
:104D7000FFF746BFFBF7E4BB4FF04070E1EE100ACF
:104D8000704700000000010203040102030406074B
:104D900008090000000000004C5555555555A53F29
:104DA0007751C1166CC156BF9015CB19A001FA3EC0
:104DB000AD529C804F7E92BEC4B1B4BD9EEE213EEA
:104DC000D43888BEE9FAA8BD00004054FB21F93F61
:104DD0003163621A61B4D03D0000601A61B4D03D05
:104DE0007370032E8A19A33B0000002E8A19A33B7F
:104DF000C14920259A837B39000000000000000093
:104E00006E83F9A22915444ED15727FCC0DD34F535
:104E1000999562DB4190433CAB6351FE61C5BBDEBB
:104E20003A6E24B7E0D24D42EA2E49061C92D109CF
:104E30001CEB1DFE3EA729B1F53582E88444BB2E4C
:104E400026709CE9417E5FB439D69139F439538399
:104E50008B5F849C3B28F9BDFF97F81F0F9805DEF8
:104E60008B112FEF1F6D0A5ACF7E366DB709CB27F6
:104E7000663F464F2DEA5F9EC7BA27757BF1E5EB8B
:104E8000F739073DEA92528AB15FFB6B085D8D1FCF
:104E9000A6F810111111813FD561C119A0012ABFD7
:104EA0007DFEB157E31DC73EEB9C2B8AE6E55ABE5B
:104EB0007CD5CF5A3AD9E53DD84E000800000024F1
:104EC0002001000008030008F84F0008200100241A
:104ED0006826000024030008000000000000000015
:104EE000C9310008F9310008053200082D320008E8
:104EF00059320008A9310008D5310008000000002F
:104F00000403090412010002020200408304405716
:104F10000002010203010000050F0C00010710024E
:104F2000020000001A030000000000000000000062
:104F30000000000000000000000000000000000071
:104F400001050008FD040008F90400082505000813
:104F50003D050008010000001000000000000000F6
:104F60000090D0030090D003000000008101820077
:104F70000A06000200000040010000000902430090
:104F8000020100C0320904000001020201000524F0
:104F9000001001052401000104240202052406007A
:104FA000010705820308001009040100020A00003D
:104FB00000070501024000000705810240000000D3
:104FC0008D2C0008F92A00082F2E00080000000090
:104FD000892B0008452A0008BB2A000800000000B1
:104FE00000000000000000000D2C0008CD2B000880
:084FF0004D2C0008C12B000844
:04000005080002CD20
:00000001FF
