:020000040800F2
:1000000020920024A5030008A1D8000801BA000826
:100010009DD800089D0C0008E920010800000000A0
:10002000000000000000000000000000E5020008E1
:10003000E9120008000000004103000865E0000824
:10004000BF030008BF030008BF030008BF03000888
:10005000BF030008BF030008BF030008BF03000878
:10006000BF030008BF030008BF0300086D0D0008B0
:10007000BF030008BF030008BF030008BF03000858
:10008000BF030008BF030008BF030008F112000807
:10009000111300080113000821130008BF03000812
:1000A000BF030008BF030008BF030008BF03000828
:1000B000BF030008BF030008BF030008BF03000818
:1000C000BF030008BF030008BF030008BF03000808
:1000D000BF030008F9F7000809F8000819F800083C
:1000E000BF030008BF03000800000000BF030008B2
:1000F000BF030008BF030008BF030008BF030008D8
:10010000BF030008BF030008BF030008BF030008C7
:10011000BF030008BF030008BF030008BF030008B7
:10012000BF030008BF030008BF030008BF030008A7
:10013000BF030008BF030008BF030008BF03000897
:1001400000000000000000000000000000000000AF
:10015000BF030008BF030008BF030008BF03000877
:10016000BF030008BF030008BF030008BF03000867
:10017000BF030008D9D90008BF0300080000000031
:10018000BF030008BF030008C5E60008BF0300085E
:10019000BF030008BF030008BF030008BF03000837
:1001A000BF030008BF030008BF03000800000000F1
:1001B000BF030008BF030008BF030008BF03000817
:1001C000BF030008BF03000800000000000000009B
:1001D0000000000000000000BF0300080000000055
:1001E000000000000000000000000000000000000F
:1001F0000000000000000000BF030008BF0300086B
:10020000BF030008BF03000800000000BF03000890
:10021000BF030008BF030008BF030008BF030008B6
:10022000BF03000800000000BF030008000000003A
:10023000BF030008BF03000800000000BF03000860
:10024000BF030008BF030008BF030008BF03000886
:10025000BF030008BF030008BF030008BF03000876
:10026000BF030008BF030008BF030008BF03000866
:10027000BF030008BF030008BF0300080000000020
:10028000BF030008BF030008BF030008BF03000846
:1002900000000000BF030008BF03000800000000CA
:1002A00000000000BF030008BF030008BF030008F0
:1002B000E9F70008BF030008BF0300083113000876
:1002C0004113000849E20008BF030008DFF810D01E
:1002D00000F0FCF800480047B1290108AFF30080A6
:1002E000209200242C4B19680868B0E8F04F80F386
:1002F0000988BFF36F8F4FF0000080F311887047BB
:100300000000000008480068006880F308884FF08B
:10031000000080F3148862B661B6BFF34F8FBFF35D
:100320006F8F00DF00BF00BF08ED00E0DFF80C00BA
:10033000016841F470010160704700BF88ED00E082
:10034000EFF30980BFF36F8F134B1A681EF0100F85
:1003500008BF20ED108A20E9F04F106009B44FF07B
:10036000500080F31188BFF34F8FBFF36F8F13F0EE
:1003700005FC4FF0000080F3118809BC196808687B
:10038000B0E8F04F1EF0100F08BFB0EC108A80F3F9
:100390000988BFF36F8F7047A8000024EFF3058032
:1003A000704700000648804706480047FEE7FEE722
:1003B000FEE7FEE7FEE7FEE7FEE7FEE7FEE7FEE715
:1003C00069E10008CD0200082DE9F05F0546002034
:1003D00092469B4688460646814640241BE02846B6
:1003E00041464746224600F060F853465A46C01A36
:1003F000914110D311461846224600F047F82D1AB5
:1004000067EB01084F4622460120002100F03EF82C
:1004100017EB00094E41201EA4F10104DFDC484621
:1004200031462A464346BDE8F09F40EA01039B0758
:1004300003D009E008C9121F08C0042AFAD203E059
:1004400011F8013B00F8013B521EF9D27047D2B2BD
:1004500001E000F8012B491EFBD270470022F6E7AD
:1004600010B513460A4604461946FFF7F0FF20462A
:1004700010BD30B504460020034600E05B1C9342EB
:1004800003D2E05CCD5C401BF8D030BD202A04DBF9
:10049000203A00FA02F1002070479140C2F1200397
:1004A00020FA03F3194390407047202A04DB203AD6
:1004B00021FA02F00021704721FA02F3D040C2F184
:1004C000200291400843194670470000064C074D32
:1004D00006E0E06840F0010394E807009847103414
:1004E000AC42F6D3FFF7F6FE2890010848900108C9
:1004F00070B58C1810F8015B15F0070301D110F8E6
:10050000013B2A1106D110F8012B03E010F8016B12
:1005100001F8016B5B1EF9D12B0705D40023521E95
:100520000DD401F8013BFAE710F8013BCB1A921CFD
:1005300003E013F8015B01F8015B521EF9D5A142FB
:10054000D8D3002070BD000070B504464349206830
:10055000884203D042492068884208D14148006857
:1005600000F4403008B1012009E0002007E03E48D7
:10057000006800F4403008B1012000E00020B8B16C
:1005800008F0FAFC05466068B0F5803F06D0B0F58B
:10059000003F04D0B0F5403F08D105E000BF6068DF
:1005A000000CB5FBF0F502E0AD0800E000BF2BE069
:1005B0004FF40020002107F0DFF805466068C0F323
:1005C0001101F9B980140C281CD2DFE800F01B06D9
:1005D0000708090A0B111315171900BF00BF00BF48
:1005E00000BF00BF6068800C4000B5FBF0F50AE07A
:1005F0002D0908E06D0906E0AD0904E0ED0902E00F
:100600002D0A00E000BF00BF6D081848854206D8DB
:100610002068806820F44070216888601DE01448DC
:10062000854208D82068806820F4407040F48070CB
:100630002168886011E00F48854208D820688068EA
:1006400020F4407040F400702168886005E0206864
:10065000806840F440702168886070BD00200240CE
:10066000002102400823024008630258105E5F0028
:1006700020BCBE0040787D0170B50546AC6B206E95
:1006800000F0500098BB206E40F400702066206897
:10069000006800F00800A8B120680CF01CF910B345
:1006A0002068C06800F40050E8B9206E20F4807023
:1006B0002066206E00F48050A8B9206E40F0010042
:1006C000206610E02068C06800F0030058B9206E72
:1006D00020F480702066206E00F4805018B9206EDF
:1006E00040F001002066204601F0BCFD0CE0FFE771
:1006F000206E00F0100018B1204601F0B5FD03E0B7
:10070000A06DC16C2846884770BD70B50546AC6BBE
:10071000206E40F040002066606E40F0040060668D
:10072000204601F0A1FD70BD70B50446A56B2846BA
:1007300001F099FD70BD000070B5044620680CF012
:10074000ACF8064620680CF0ADF898B396BB20686C
:10075000806800F00D0001280AD1206881681A4ADB
:100760001140891C816000BF03202168086009E0F6
:10077000206E40F010002066606E40F00100606660
:10078000012070BD04F042FF054614E004F03EFF76
:10079000401B02280FD92068806800F0010050B18A
:1007A000206E40F010002066606E40F00100606630
:1007B0000120E6E705E02068806800F001000028DD
:1007C000E4D10020DDE70000C0FFFF7F70B50446E4
:1007D00020680CF067F8002851D12068806829490A
:1007E000084048B1206E40F010002066606E40F076
:1007F00001006066012070BD20680CF033F804F041
:1008000005FF0546204A2168914203D01F4A21680E
:10081000914201D11E4900E01E4908460CF02AF819
:1008200006461A492068884201D1174800E020682E
:100830002168884200D00EBB1AE020680CF032F824
:1008400010B920680CF00EF804F0E0FE401B0228FE
:100850000ED92068006800F0010048B9206E40F011
:1008600010002066606E40F0010060660120C2E763
:100870002068006800F001000028DED000BF0020E2
:10088000B9E700003F000080002002400021024044
:100890000023024000630258B7EE000A80ED000A10
:1008A0009FED060A80ED010A9FED040A80ED020A21
:1008B0009FED020A80ED030A70470000000000006F
:1008C00070B506460C46154695ED023AF0EE432A01
:1008D00095ED013AB0EE432A95ED003AF0EE431A59
:1008E00094ED023AB0EE431A94ED013AF0EE430A69
:1008F00094ED003AB0EE430A30460CF053FE70BD62
:1009000010B501221146024804F07AFE10BD000025
:100910000008025810B500220121024804F070FEC0
:1009200010BD0000000802587047000010B50122F9
:100930000821024804F064FE10BD000000080258BF
:1009400010B500220821024804F05AFE10BD000034
:1009500000080258704710B5044603E04FF47A705F
:1009600000F006F8201EA4F101018CB2F6D110BDF2
:1009700070B5034600BF00BF0020002200BF4FF04B
:10098000E0267569C3EB031674014FF0E026B169E8
:1009900010E04FF0E026B06988420BD0884202D2C6
:1009A0000E1A324402E02E1A0E4432440146A2428C
:1009B00000D300E0EDE700BF70BD10B50024FFF7E5
:1009C000B3FFFFF7C7FF11F03BFE044311F0CCFE6D
:1009D0000443204610BD00002DE9FC4105460E46AB
:1009E0001746002000900190FFF794FF922000F03E
:1009F000D1F806226946122000F0ACF8FFF780FF1C
:100A00009DF80100000200B29DF8001040EA0104C8
:100A100000EE104AB8EEC00A4C48D0ED000A20EEB5
:100A2000200A86ED000A9DF80300000200B29DF83E
:100A3000021040EA010400EE104AB8EEC00A434832
:100A4000D0ED000A20EE200A86ED010A9DF805008F
:100A5000000200B29DF8041040EA010400EE104AC2
:100A6000B8EEC00A3948D0ED000A20EE200A86ED23
:100A7000020AFFF765FF08226946002000F06AF8C5
:100A8000FFF754FF9DF800000F2838D19DF80300B0
:100A9000000200B29DF8021040EA010400EE104A84
:100AA000B8EEC00A2A48D0ED000A20EE200A85EDF3
:100AB000000A9DF80500000200B29DF8041040EA0B
:100AC000010400EE104AB8EEC00A2148D0ED000A39
:100AD00020EE200A85ED010A9DF80700000200B211
:100AE0009DF8061040EA010400EE104AB8EEC00A74
:100AF0001748D0ED000A20EE200A85ED020AFFF724
:100B000009FFA22000F046F802226946222000F0E8
:100B100021F8FFF7F5FE9DF80000C0009DF80110D8
:100B200040EA6114B4F5806F02DBA4F5006004B202
:100B300000EE104AF8EEC00AB4EE001AB3EE070A4F
:100B400000EE810A87ED000ABDE8FC81C0010024A7
:100B5000C401002470B506460C46154646F08000D8
:100B600000F018F806E0552000F014F82070641C1E
:100B7000681EC5B2002DF6D170BD70B504460D4695
:100B800044F0800000F006F8552000F003F82870CB
:100B900070BD000001B582B04FF47A70012301AA44
:100BA00002A90090024809F009FB9DF804000EBD5F
:100BB0002C2A002470B505460C462846FFF7EAFFAC
:100BC0002046FFF7E7FF70BD10B5042101480AF089
:100BD000BDF810BD202C0024002002490860024905
:100BE0000870704738180040BC01002432200349C7
:100BF0000860012002490870704700003818004062
:100C0000BC01002400B505480078012802D1FFF797
:100C1000E3FF01E0FFF7EAFF00BD0000BC01002494
:100C200070B504F0F3FC05464FF40041184804F099
:100C3000DFFC04461748007848B934B9012015494B
:100C4000087005F1640014490860002070BD114867
:100C5000007801280FD110480068854209D324B9D3
:100C600002200C4908700120F0E7002009490870B3
:100C7000ECE70020EAE707480078022806D1012CBB
:100C800002D10020034908700020DFE70020DDE7E3
:100C900000000258B4010024B801002400BFFEE7A0
:100CA0000346042B15D007DC7BB1012B0ED0022BA1
:100CB0000DD0032B12D10BE0202B0BD0212B0AD00F
:100CC000222B09D0232B09D107E008E007E006E03A
:100CD00005E004E003E002E001E000E000BF00BF47
:100CE000002070470020704710B5002204490548D5
:100CF0000FF035F8044903480FF022F8002010BD2A
:100D0000783C00249C2F00247834002470B50446DD
:100D10000D46214603480FF013F802480EF0DCFFA1
:100D2000002070BD9C2F002410B503460C46002106
:100D3000084610BD2DE9F04104460D4600260A483C
:100D4000D0F8BC72D7F8140210B10120BDE8F081D0
:100D50002A46214604480FF002F803480FF0B2F883
:100D600006463046F2E700009C2F002410B50248EA
:100D700002F0A4F910BD0000F02600240146374A15
:100D80000868904249D0354A18320868904244D0E9
:100D9000324A3032086890423FD0304A48320868C0
:100DA00090423AD02D4A60320868904235D02B4AA2
:100DB00078320868904230D0284A903208689042D1
:100DC0002BD0264AA8320868904226D0244A0868C8
:100DD000904222D0224A1832086890421DD0204A00
:100DE00030320868904218D01D4A48320868904254
:100DF00013D01B4A6032086890420ED0184A7832ED
:100E00000868904209D0164A90320868904204D08F
:100E1000134AA8320868904201D1012000E0002066
:100E2000B0B10A78103A1823B2FBF3F000F00702D1
:100E30000C4B9A5CCA65032805D90A686FF309024E
:100E4000121D8A6503E00A686FF309028A6503E0F0
:100E5000086820F0FF008865886D70471000024028
:100E600010040240CC4A010810B502682B4C0368FC
:100E7000A34222D0294C14340368A3421DD0274C2E
:100E800028340368A34218D0244C3C340368A3429E
:100E900013D0224C50340368A3420ED01F4C64344C
:100EA0000368A34209D01D4C78340368A34204D0E0
:100EB0001A4C8C340368A34201D1012300E00023C3
:100EC0008BB10378083B1424B3FBF4F1144B03EB10
:100ED00081030366124B8033436601F01F04012334
:100EE000A340836618E00378103B1824B3FBF4F1A9
:100EF0000C4B9A4204D80B4BA83B9A4200D30831C2
:100F0000094B03EB81030366074B8033436601F013
:100F10001F040123A340836610BD0000085402583B
:100F200000580258B8040240000802400179A9B3F1
:100F3000082940D8204B02689A4222D01E4B143315
:100F400002689A421DD01C4B283302689A4218D07E
:100F5000194B3C3302689A4213D0174B5033026846
:100F60009A420ED0144B643302689A4209D0124B55
:100F7000783302689A4204D00F4B8C3302689A424D
:100F800001D1012200E000224AB14A1E0B4B03EBC3
:100F90008202C266094A4032026708E00BE04A1E3C
:100FA000074B03EB8202C266054A403202674A1EC3
:100FB0000123934043677047085402580059025870
:100FC00000090240014600208A69D2B98A6A32B11A
:100FD000012A0DD0022A03D0032A10D10EE000BF4F
:100FE000CA6A02F08072B2F1807F00D1012007E06E
:100FF000CA6AB2F1C07F00D1012001E000E000BF69
:1010000036E08A69B2F5005F1BD18A6A32B1012AE3
:1010100007D0022A03D0032A11D10AE000BF012021
:101020000EE0CA6A02F08072B2F1807F00D1012026
:1010300006E0CA6AB2F1C07F00D1012000E000BF23
:1010400016E08A6A32B1012A05D0022A04D0032AA6
:101050000CD103E000BF00BF012008E0CA6A02F023
:101060008072B2F1807F00D1012000E000BF00BF9C
:1010700070470000F0B5856D846D984F0668BE42DC
:1010800070D0964F18370668BE426BD0934F3037FA
:101090000668BE4266D0914F48370668BE4261D0AE
:1010A0008E4F60370668BE425CD08C4F783706683A
:1010B000BE4257D0894F90370668BE4252D0874F04
:1010C000A8370668BE424DD0854F0668BE4249D05B
:1010D000834F18370668BE4244D0814F30370668C8
:1010E000BE423FD07E4F48370668BE423AD07C4F62
:1010F00060370668BE4235D0794F78370668BE4201
:1011000030D0774F90370668BE422BD0744FA83747
:101110000668BE4226D0734F0668BE4222D0714F89
:1011200014370668BE421DD06E4F28370668BE428F
:1011300018D06C4F3C370668BE4213D0694F503709
:101140000668BE420ED0674F64370668BE4209D0BB
:10115000644F78370668BE4204D0624F8C37066809
:10116000BE4201D1012600E000263EB1D0E9197649
:101170007E60C66E16B1D0E91C767E60574F066859
:10118000BE4249D0554F18370668BE4244D0534F2F
:1011900030370668BE423FD0504F48370668BE42DF
:1011A0003AD04E4F60370668BE4235D04B4F783745
:1011B0000668BE4230D0494F90370668BE422BD0F9
:1011C000464FA8370668BE4226D0454F0668BE4245
:1011D00022D0434F18370668BE421DD0404F3037EB
:1011E0000668BE4218D03E4F48370668BE4213D04C
:1011F0003B4F60370668BE420ED0394F78370668DD
:10120000BE4209D0364F90370668BE4204D0344FF4
:10121000A8370668BE4201D1012600E00026DEB1F3
:1012200090F85C6006F01F073F26BE40AE6006687F
:10123000366826F4802607683E6006687360866814
:10124000402E04D10668B2600668F16044E006688A
:10125000B1600668F2603FE0224F0668BE4222D0CD
:10126000204F14370668BE421DD01E4F283706682F
:10127000BE4218D01B4F3C370668BE4213D0194FF0
:1012800050370668BE420ED0164F64370668BE421D
:1012900009D0144F78370668BE4204D0114F8C37FE
:1012A0000668BE4201D1012600E00026A6B190F8F2
:1012B0005C6006F01F070126BE406660066873602A
:1012C0008668402E04D10668B2600668F16003E0CB
:1012D0000668B1600668F260F0BD000010000240D0
:1012E0001004024008540258704772B600BFFEE76F
:1012F00010B5024803F012FB10BD0000682700245F
:1013000010B5024803F00AFB10BD00006827002456
:1013100010B5024803F002FB10BD000008280024AD
:1013200010B5024803F0FAFA10BD000008280024A6
:1013300010B5024803F0F2FA10BD0000A8280024FE
:1013400010B5024803F0EAFA10BD0000A8280024F6
:1013500010B501464A6B0868D0F884004FF6FC745B
:10136000A04340EA82000C68C4F884000868D0F802
:10137000840020F47F04088F44EA00400C68C4F81D
:101380008400886B02440868D0F888004FF6FC742B
:10139000A04340EA82000C68C4F888000868D0F8CE
:1013A000880020F4FE04888F44EA00400C68C4F8EA
:1013B0008800C86B02EB40020868D0F8A0004FF626
:1013C000FC74A04340EA82000C68C4F8A0000868DE
:1013D000D0F8A00020F4FE044020405A44EA004027
:1013E0000C68C4F8A000D1E9104004FB0022086892
:1013F000D0F8B0004FF6FC74A04340EA82000C68BD
:10140000C4F8B0000868D0F8B00020F4FE04B1F8C9
:10141000480044EA00400C68C4F8B000D1E912402A
:1014200004FB00220868D0F8AC004FF6FC74A0431F
:1014300040EA82000C68C4F8AC00D1E9144004FB17
:1014400000220868D0F8F0004FF6FC74A04340EA90
:1014500082000C68C4F8F0000868D0F8F00020F4AE
:101460007C14B1F8580044EA00400C68C4F8F0005D
:10147000886D02EB40020868D0F8C0004FF6FC749B
:10148000A04340EA82000C68C4F8C0000868D0F8A5
:10149000C00020F47C14B1F85C0044EA00400C6801
:1014A000C4F8C0000868D0F8C00020F07C5491F85F
:1014B000600044EA00600C68C4F8C0002A4C486B25
:1014C00004EB8000C866CC6E886B04EB80040C676C
:1014D0000C6FC86B04EBC0044C67D1E91004604387
:1014E0004C6F04EB80048C67D1E9120460438C6F6D
:1014F00004EB8004CC67D1E914046043CC6F04EBA7
:101500008004802044504458886D04EBC00484203B
:1015100044508C6EC86D60438424645804EB80048E
:10152000882044508C6E086E60438824645804EB15
:1015300080049020445040580C4CA04209D9983166
:10154000486840F020004860032001F89809012015
:1015500010BDCB6E02E0002018601B1D902040588B
:101560009842F8D80020F3E700AC0040FCD30040DC
:101570002DE9F041054614461E46D1F804C0BCF1E1
:10158000000F0AD1D1F810C0D1F808804CEA080C3D
:10159000B1F800804CEA88430BE0D1F810C04CF061
:1015A000804CD1F808804CEA080CD1F800804CEA55
:1015B000080391F82080D1F81CC04CEA086CD1F8DF
:1015C00018804CEA080CD1F814804CEA080CD1F8C9
:1015D0000C804CEA0807D5F868C00CFB06FCD5F86F
:1015E000848008EB8C021360121D1760121D00200E
:1015F00019E000F1030C14F80CC04FEA0C6800F17C
:10160000020C14F80CC048EA0C4800F1010C14F864
:101610000CC048EA0C2C14F800804CEA080CC2F804
:1016200000C0121D001DDFF81880D1F80CC008EBB7
:101630001C4C9CF800C08445DBD8BDE8F08100005C
:10164000D44A010811F00AF90522374937480AF04F
:10165000F9F80522364937480AF0F4F805223649E8
:1016600036480AF0EFF80021354809F06FFB0821F1
:10167000334809F06BFB0021324809F067FB082171
:10168000304809F063FB41F288302F494863C86352
:101690004863C86300BF4FF6FF7309222BA123489C
:1016A0000AF04CF900202C4908704FF6FF7309220C
:1016B0002AA120480AF042F900202B4908704FF671
:1016C000FF730A2229A11D480AF038F94FF6FF736B
:1016D0000F2229A12C480AF031F94FF6FF730F228F
:1016E0002AA12E480AF02AF908232D4A4FF4A461B2
:1016F0002C4811F021F9012011F09CF90823284A07
:101700004FF4A461284811F017F9012011F092F963
:101710000823234A4FF4A461244811F00DF940F244
:10172000E63011F087F9B6E720020024002D0024EE
:101730002C0200246C2C002432020024BC2E002435
:101740003C2B0024882B00240000014055312054FC
:10175000657374210A0000002502002455372054C7
:10176000657374210A0000003102002455313020D5
:1017700054657374210A000055325F525334383572
:101780002054657374210A00942D002455335F5250
:10179000533438352054657374210A00282E0024F0
:1017A000380200246827002408280024A8280024E0
:1017B0002DE9F04104460D4616461F4694ED001AE9
:1017C00021EE011AD4ED011A94ED012A01EE821ADC
:1017D000F7EE001AB0EE002A52EE011AF0EE610A9E
:1017E00094ED001AD4ED031A21EE211AD4ED011A5A
:1017F00094ED022A01EE821AF0EE001A21EE211A6F
:10180000B0EE410A10F096FD85ED000AD4ED010A14
:1018100094ED031A60EE810A94ED001AD4ED021AD9
:1018200041EE610AB8EE001A60EE810AB0EE600A7D
:1018300010F0E4FC86ED000A94ED001A21EE011A86
:10184000D4ED031A94ED032A01EE821AF7EE001A82
:10185000B0EE002A52EE011AF0EE610A94ED001A81
:10186000D4ED011A21EE211AD4ED021A94ED032AC7
:1018700001EE821AF0EE001A21EE211AB0EE410AB2
:1018800010F058FD87ED000ABDE8F08170B50A48F8
:101890000468001D0568001D0668344454B1082220
:1018A000064920460AF070F90422044910312846FE
:1018B0000AF06AF970BD000000E8F11F660000241C
:1018C000F8B504460D4616460020009000BF94F877
:1018D0005C00012801D10220F8BD012084F85C00E1
:1018E00000BF2046FEF728FF0746A7BB206E20F466
:1018F000885040F002002066206805F4803141F0F5
:10190000004106F0804211438268194B1A4011438E
:10191000816000BF13E00098401C009015490098BA
:1019200088420CD3206E20F0020040F010002066A8
:1019300000BF002084F85C0000BF0120CCE72068D5
:101940008168C90F0029E6D1206E20F0020040F026
:101950000100206604E0FFE7206E40F010002066E2
:1019600000BF002084F85C0000BF3846B4E70000E8
:10197000C0FFFE3F00F8C3252DE9F0439DB00446AB
:101980000E464FF00008306800B100BF00BF94F869
:101990005C00012803D102201DB0BDE8F0830120C6
:1019A00084F85C0000BF002019901A904649206816
:1019B000884202D14548019001E000200190019841
:1019C00050B9206E40F02000206600BF002084F84F
:1019D0005C0000BF0120DFE701980AF077FF0746AF
:1019E00020680AF073FF002861D1002F5FD13649CB
:1019F0002068884203D035492068884201D13448A4
:101A000000E034480546306858B3A86820F44040E8
:101A100071680843A8602C492068884203D02B498C
:101A20002068884201D12A4800E02A482849884293
:101A300009D125480AF03BFF814624480AF037FFC8
:101A400049EA000002E024480AF031FF70BBB168A7
:101A500030680843A96840F61F7291430843A860A4
:101A60002BE0A86820F44040A8601749206888420D
:101A700003D016492068884201D1154800E0154876
:101A80001349884209D110480AF011FF81460F48D6
:101A90000AF00DFF49EA000002E00F480AF007FFD4
:101AA00020B9A86840F61F718843A86005E0206E41
:101AB00040F0200020664FF0010800BF002084F8AD
:101AC0005C0000BF404667E7002002400021024062
:101AD0000023024000630258006002582DE9F84FCD
:101AE00004460D464FF0000A0020009094F8440090
:101AF000012800D105E0FE492068884200D100E0BD
:101B000000BFFC49E868884200D00EE0FA4920682E
:101B1000884200D100BFF9492068884200D100BF47
:101B2000F3492068884200D100BF00BF94F85C00F0
:101B3000012802D10220BDE8F88F012084F85C0062
:101B400000BF20680AF0BDFE002872D1E849206875
:101B5000884215D02068C1692868C0F3130018B9FD
:101B60002868C0F3846004E0286890FAA0F0B0FA16
:101B700080F000F01F020120904001432068C16105
:101B80002168D5E9002001F1300CC0F3012B0CEBEA
:101B90008B03D3F800C000F01F0E4FF01F0B0BFAA1
:101BA0000EFB2CEA0B0C00F01F0BC2F3846E0EFA36
:101BB0000BFE4CEA0E0CC3F800C000BF20680AF010
:101BC00080FE814620680AF063FE0746B9F1000FE7
:101BD0007ED1002FFCD1AA68296820680AF08CFE0B
:101BE000C3492068884208D168692168C968C1F37F
:101BF000C101490000FA01F825E0C148006800F081
:101C00007040B0F1805F07D168692168C968C1F38D
:101C100082014900884015E02068C06800F010008B
:101C200040B968692168C968C1F3820149008840E8
:101C300008E0F2E268692168C96801F010018908CA
:101C4000490088408046286904287CD021684346A2
:101C5000D5F810C02A6801F1600B0BEB8C00DFF89F
:101C600090B259450AD1D0F800B002F0F84E4EF0CB
:101C7000004E4EEA030EC0F800E00BE0D0F800B0D2
:101C80000BF0004B02F0F84E4EEA030E4BEA0E0B3F
:101C9000C0F800B000BF96492068884231D1206862
:101CA000EA692969924B98420CD100F1600C0CEB67
:101CB0008103D3F800C02CF0807C4CEA020CC3F8FE
:101CC00000C000BF00BF206895F82020296900E00F
:101CD000F5E0012A01D1520600E000221346844AB1
:101CE00090420CD100F1600C0CEB8102D2F800C0E4
:101CF0002CF0007C4CEA030CC2F800C000BF00BF0F
:101D000021E1206895F821202969012A01D1D20713
:101D100000E000221346764A90420CD000F1600C9D
:101D20000CEB8102D2F800C02CF0004C4CEA030C02
:101D3000C2F800C000BF00BF20682B7E2969012BBC
:101D400002D1DB0201E00DE000231A46036923F40F
:101D5000F04301F01F0C02FA0CFC43EA0C03036190
:101D600000BFF0E062492068884271D100212068FC
:101D70000AF085FDC0F3130030B9002120680AF095
:101D80007EFDC0F3846007E0002120680AF077FD43
:101D900090FAA0F0B0FA80F02968C1F3130119B9E4
:101DA0002968C1F3846104E0296891FAA1F1B1FACC
:101DB00081F1884204D10022114620680AF0B6FD64
:101DC000012120680AF05BFDC0F3130030B9012146
:101DD00020680AF054FDC0F3846007E00121206808
:101DE0000AF04DFD90FAA0F0B0FA80F02968C1F336
:101DF000130119B92968C1F3846104E0296891FAD3
:101E0000A1F1B1FA81F1884204D1002201212068B8
:101E10000AF08CFD022120680AF031FDC0F31300A6
:101E200030B9022120680AF02AFDC0F3846007E07F
:101E3000022120680AF023FD90FAA0F0B0FA80F0A9
:101E40002968C1F3130121B92968C1F3846105E050
:101E500036E0296891FAA1F1B1FA81F1884204D102
:101E60000022022120680AF061FD032120680AF0A7
:101E700006FDC0F3130030B9032120680AF0FFFC0F
:101E8000C0F3846007E0032120680AF0F8FC90FAB0
:101E9000A0F0B0FA80F02968C1F3130119B92968DC
:101EA000C1F3846104E0296891FAA1F1B1FA81F1EA
:101EB000884248D10022032120680AF037FD42E021
:101EC0002068006E00F0F8402978B0EB816F05D1F2
:101ED0002068006E20F00040216808662068406E8F
:101EE00000F0F8402978B0EB816F10D1206809E04C
:101EF000006002580000FF4700200240002102401D
:101F00000010005C406E20F00040216848662068A8
:101F1000806E00F0F8402978B0EB816F05D1206821
:101F2000806E20F00040216888662068C06E00F056
:101F3000F8402978B0EB816F05D12068C06E20F0A1
:101F400000402168C86620680AF0ACFC00286FD108
:101F50002068EA682968B74B984212D1D0F8B030AF
:101F6000C1F3130C23EA0C0302F0180BDFF8C8C20C
:101F70002CFA0BFC0CEA010C43EA0C03C0F8B0305D
:101F800011E0D0F8C030C1F3130C23EA0C0302F0C7
:101F9000180BDFF8A4C22CFA0BFC0CEA010C43EA84
:101FA0000C03C0F8C03000BFA449E86888427DD166
:101FB0002B68C3F313031BB92B68C3F3846304E0DA
:101FC0002B6893FAA3F3B3FA83F35B1C03F01F03AC
:101FD000092B3FD82B68C3F313031BB92B68C3F33A
:101FE000846304E02B6893FAA3F3B3FA83F35B1CD6
:101FF00003F01F034FF0010C0CFA03FC2B68C3F332
:1020000013031BB92B68C3F3846304E02B6893FAB2
:10201000A3F3B3FA83F35B1C03F01F034CEA836C56
:102020002B68C3F3130323B92B68C3F3846305E060
:10203000B1E02B6893FAA3F3B3FA83F35B1C03F0CC
:102040001F0303EB43034FF0000B4BEA03534CEA2F
:10205000030340E02B68C3F313031BB92B68C3F3DE
:10206000846304E02B6893FAA3F3B3FA83F35B1C55
:1020700003F01F034FF0010C0CFA03FC2B68C3F3B1
:1020800013031BB92B68C3F3846304E02B6893FA32
:10209000A3F3B3FA83F35B1C03F01F034CEA836CD6
:1020A0002B68C3F313032BB92B6800E018E0C3F3CC
:1020B000846304E02B6893FAA3F3B3FA83F35B1C05
:1020C00003F01F030A3B03EB43034FF0007B4BEA93
:1020D00003534CEA03031946AA6820680AF00CFC73
:1020E000286800F00040002855D0554A21689142E8
:1020F00003D0544A2168914201D1534900E0534929
:102100000846816801F0E07600BF4D4920688842AA
:1021100003D04C492068884201D14B4800E04B482D
:102120004949884209D146480AF0BCFB83464548E4
:102130000AF0B8FB4BEA000002E03E480AF0B2FBAE
:10214000F0BB43492868884226D106F4000018BB3A
:1021500038492068884266D1394B22689A4203D0B8
:10216000384B22689A4201D1374A00E0374A10467C
:1021700046F400010AF0D4FB364800683649B0FB4B
:10218000F1F0401C4000009002E00098401E0090DA
:1021900000980028F9D146E030492868884219D1D2
:1021A00006F08070B0B92349206888423BD1244BA7
:1021B00022689A4203D0234B22689A4203D100E05E
:1021C00024E0214A00E0214A104646F080710AF0DE
:1021D000A7FB28E022492868884224D106F4800021
:1021E00008BB1449206888421DD1154B22689A42C9
:1021F00003D0144B22689A4201D1134A00E0134ADB
:10220000104646F480010AF08BFB0CE0206E40F093
:10221000200020664FF0010A05E0206E40F020000B
:1022200020664FF0010A00BF002084F85C0000BF68
:10223000504680E400600258FFFF0F000000FF4797
:1022400000200240002102400023024000630258A7
:10225000000052C7A0000024400D0300000021C36D
:10226000000084CB70477047704700002DE9F84F9D
:1022700004464FF000090020009014B90120BDE889
:10228000F88F206920B12020005D012800D100BF17
:10229000206E30B9204600F089F90020606684F88D
:1022A0005C0020688168C1F3407131B120688168A9
:1022B000B24A1140816000BF00BF20680AF0FCFAFA
:1022C000A8B920688168AE4A114041F08051816010
:1022D00000BFAC480068AC49B0FBF1F0401C009076
:1022E00002E00098401E009000980028F9D1206874
:1022F0000AF0E2FA48B9206E40F010002066606EE5
:1023000040F0010060664FF0010920680AF0D9FA38
:102310000646206E00F0100000287DD1002EFCD172
:10232000206E20F4807040F00200206620680AF0E1
:10233000B9FA78BB95492068884203D0944920684F
:10234000884201D1934800E093489249884209D1DC
:102350008E480AF0A7FA82468D480AF0A3FA4AEAA4
:10236000000002E08D480AF09DFA98B9874B226878
:102370009A4203D0864B22689A4201D1854A00E0F6
:10238000854A10466168826822F47C120A438260A2
:1023900000BF00BF81492068884223D1607EE16B85
:1023A00041EA4030E1680843A168082901D10021D1
:1023B0000FE0A1680C2901D104210AE0A1681C29C1
:1023C00001D1082105E0A168182901D11C2100E0F4
:1023D000002101F00C0140EA41012020005D41EAAA
:1023E000004509E0607EE16B41EA4030A1680843A6
:1023F0002021095D40EA01452020005D012803D12C
:10240000A08C401E45EA4045A06A38B1208D00F4FA
:102410007870E16A084300E0A7E005435F4920685F
:1024200088420FD12068C0685D4908402843216870
:10243000C8602068006920F04060616B0843216833
:10244000086106E02068C0685649084028432168B2
:10245000C86020680AF035FA804620680AF018FA49
:102460000746B8F1000F66D1002F64D14B492068B0
:10247000884206D1207E810394F8380041EA400565
:1024800003E0207E216B41EA80352068C06844F279
:102490000301884328432168C86094F84400012858
:1024A00034D13E492068884200D100E000BFA06AD4
:1024B00008B1E06A00B900BF38492068884210D1ED
:1024C000A06C40F00101E06C0843216D0843616D90
:1024D000084321680969344A1140084321680861AA
:1024E0001AE0B4F84800401E012141EA0041E06CC6
:1024F0000843216D0843616D0843216809692A4A30
:10250000521E114008432168086105E020680069F7
:1025100020F00100216808612068006920F0704007
:10252000216C0843216808611C492068884202D058
:102530002046FEF709F82069012809D12068006BC0
:1025400020F00F00E169491E08432168086305E097
:102550002068006B20F00F0021680863206E20F0D7
:10256000020040F00100206605E0206E40F01000FF
:1025700020664FF00109484681E60000C0FFFF5F7A
:10258000C0FFFF7FA0000024400D03000020024098
:1025900000210240002302400063025800600258FC
:1025A0000740F0FF03C0F0FF1FF800FC10B5B6B005
:1025B0000446142130A8FDF751FFB82102A8FDF709
:1025C0004DFF3F492068884277D14FF40021002019
:1025D000CDE90210022004901021059102210691FC
:1025E00007910891C021099100210A910B910020C7
:1025F0002A9002A805F096FC08B1FEF776FE00BF0F
:102600003048006840F020002E4908600846006805
:1026100000F02000019000BF00BF00BF2948083033
:10262000006840F00100274908310860084600684A
:1026300000F00100019000BF00BF00BF0846006825
:1026400040F0040008600846006800F004000190B3
:1026500000BF00BF20203090032031900020329036
:1026600030A9194802F0CCFE1020309003203190A0
:102670000020329030A9154802F0C2FE14481549D6
:10268000086009204860002112488160C1604FF451
:102690008061016149004161890081614911C16125
:1026A00000210162416201F085FA08B1FEF71DFECA
:1026B00000BF0848A065846300BF36B010BD0000AD
:1026C00000200240D8440258000002580008025876
:1026D00010000240F02600242DE9F04104460F4688
:1026E0009046514A2168914203D0504A2168914254
:1026F00001D14F4900E04F4908460AF0BBF80646B1
:1027000020680AF0DEF800287CD100BF94F85C0055
:10271000012802D10220BDE8F081012084F85C008C
:1027200000BF1EB1052E01D0092E73D12046FEF741
:102730004DF80546002D68D1206E40F601618843B2
:1027400040F48070206639492068884201D13648BB
:1027500000E020682168884200D01EB9206E20F475
:1027600080102066206E00F4805020B1606E20F052
:102770000600606601E0002060662F48A16DC86316
:102780002E48A16D08642E48A16DC8641C202168E4
:10279000086000BF002084F85C0000BF206840682B
:1027A00040F010002168486026492068884213D113
:1027B00094F8382051002068224A904204D1C2681F
:1027C00022F003020A43C26000BF2068C16841F0E2
:1027D0000101C16000BF08E0216B2068C26822F0DF
:1027E00003020A43C26000BF00BF226802F1400139
:1027F00043463A46A06D01F067FC054620680AF0A2
:1028000073F80EE00CE005E0FFE700BF002084F85D
:102810005C0006E0012500BF002084F85C0000E0B9
:102820000225284677E700000020024000210240F0
:1028300000230240006302587906000829070008B7
:102840000B070008006002582DE9F041044602F031
:10285000DDFE804614B90120BDE8F08194F8350012
:10286000022808D08020606500BF002084F8340072
:1028700000BF0120F0E7FE492068884249D0FC49AA
:1028800018312068884244D0F949303120688842A4
:102890003FD0F7494831206888423AD0F449603146
:1028A0002068884235D0F24978312068884230D09B
:1028B000EF499031206888422BD0ED49A83120683B
:1028C000884226D0EB492068884222D0E949183155
:1028D000206888421DD0E74930312068884218D0EE
:1028E000E44948312068884213D0E24960312068C9
:1028F00088420ED0DF4978312068884209D0DD490E
:1029000090312068884204D0DA49A8312068884292
:1029100001D1012000E0002068B12068006820F0AB
:102920001E00216808602068406920F0800021684E
:102930004861256806E02068006820F00E002168E4
:1029400008602568CA492068884270D0C849183193
:10295000206888426BD0C64930312068884266D0F2
:10296000C34948312068884261D0C149603120683C
:1029700088425CD0BE4978312068884257D0BC4933
:1029800090312068884252D0B949A83120688842E5
:102990004DD0B8492068884249D0B64918312068DE
:1029A000884244D0B3493031206888423FD0B14991
:1029B0004831206888423AD0AE4960312068884268
:1029C00035D0AC4978312068884230D0A94990315F
:1029D000206888422BD0A749A8312068884226D099
:1029E000A5492068884222D0A34914312068884232
:1029F0001DD0A14928312068884218D09E493C3119
:102A00002068884213D09C495031206888420ED0FB
:102A1000994964312068884209D097497831206803
:102A2000884204D094498C312068884201D1012029
:102A300000E0002028B1206E006820F48070216E34
:102A400008608B492068884249D08949183120683C
:102A5000884244D086493031206888423FD084493A
:102A60004831206888423AD08149603120688842E4
:102A700035D07F4978312068884230D07C49903108
:102A8000206888422BD07A49A8312068884226D015
:102A900078492068884222D07649183120688842D7
:102AA0001DD0744930312068884218D071494831AE
:102AB0002068884213D06F496031206888420ED068
:102AC0006C4978312068884209D06A499031206881
:102AD000884204D06749A8312068884206D120681E
:102AE000006820F001002168086005E020680068A7
:102AF00020F001002168086011E002F087FDA0EBE2
:102B0000080005280BD920206065032084F83500D3
:102B100000BF002084F8340000BF01209CE6286834
:102B200000F001000028E8D151492068884249D0CE
:102B30004F4918312068884244D04D4930312068CF
:102B400088423FD04A494831206888423AD04849B3
:102B500060312068884235D0454978312068884204
:102B600030D043499031206888422BD04049A83169
:102B70002068884226D03F492068884222D03D49BB
:102B80001831206888421DD03A4930312068884287
:102B900018D0384948312068884213D0354960310F
:102BA000206888420ED0334978312068884209D0A5
:102BB000304990312068884204D02E49A8312068DD
:102BC000884201D1012000E0002040B1A66D94F8B8
:102BD0005C0000F01F013F208840B06007E0A76D57
:102BE00094F85C0000F01F010120884078602049C3
:102BF0002068884276D01E4918312068884271D0FA
:102C00001B493031206888426CD01949483120680E
:102C1000884267D0164960312068884262D01449E2
:102C20007831206888425DD011499031206888420F
:102C300058D00F49A8312068884253D00D492068E8
:102C400088424FD00B491831206888424AD0094940
:102C500030312068884245D0064948312068884292
:102C600040D004496031206888423BD0014905E0EA
:102C700010000240100402400854025878312068C5
:102C800088422FD02549206888422BD0234918310B
:102C90002068884226D022492068884222D02049D4
:102CA0001431206888421DD01D492831206888428F
:102CB00018D01B493C312068884213D01849503144
:102CC000206888420ED0164964312068884209D0B5
:102CD000134978312068884204D011498C3120682A
:102CE000884201D1012000E0002068B1D4E9191028
:102CF0004860E06E40B1E06E006820F48070E16EE4
:102D00000860D4E91C104860012084F8350000BF39
:102D1000002084F8340000BF00BF9DE5A0040240FD
:102D20000854025870B504460CB9012070BD94F8DF
:102D30003500022803D0802060650120F6E7DC49D9
:102D40002068884249D0DA4918312068884244D046
:102D5000D7493031206888423FD0D5494831206872
:102D600088423AD0D24960312068884235D0D04973
:102D700078312068884230D0CD499031206888422F
:102D80002BD0CB49A8312068884226D0C949206879
:102D9000884222D0C7491831206888421DD0C549D1
:102DA00030312068884218D0C249483120688842B2
:102DB00013D0C0496031206888420ED0BD497831B7
:102DC0002068884209D0BB4990312068884204D0ED
:102DD000B849A8312068884201D1012000E00020D4
:102DE000F0B3042084F83500B149206888424BD004
:102DF000AF4918312068884246D0AD49303120684B
:102E0000884241D0AA494831206888423CD0A8492C
:102E100060312068884237D0A549783120688842DF
:102E200032D0A3499031206888422DD0A049A831E2
:102E30002068884228D09F492068884224D09D4934
:102E40001831206888421FD09A4930312068884262
:102E50001AD0984948312068884215D0954900E039
:102E600020E06031206888420ED092497831206895
:102E7000884209D08F4990312068884204D08D491A
:102E8000A8312068884206D12068006820F001003F
:102E90002168086009E12068006820F001002168CD
:102EA000086002E12068006820F00E0021680860D8
:102EB0007F492068884249D07D491831206888427E
:102EC00044D07B493031206888423FD0784948312E
:102ED000206888423AD0764960312068884235D0EF
:102EE000734978312068884230D071499031206828
:102EF00088422BD06E49A8312068884226D06D497F
:102F00002068884222D06B491831206888421DD041
:102F1000684930312068884218D0664948312068B5
:102F2000884213D063496031206888420ED06149DD
:102F300078312068884209D05E4990312068884203
:102F400004D05C49A8312068884206D12068006816
:102F500020F001002168086005E02068006820F08A
:102F600001002168086052492068884270D05049A9
:102F70001831206888426BD04D4930312068884232
:102F800066D04B4948312068884261D04849603159
:102F9000206888425CD0464978312068884257D002
:102FA000434990312068884252D04149A831206875
:102FB00088424DD03F492068884249D03D49183168
:102FC0002068884244D03B493031206888423FD055
:102FD00038494831206888423AD036496031206803
:102FE000884235D0334978312068884230D0314921
:102FF0009031206888422BD02E49A8312068884221
:1030000026D02D492068884222D02B4914312068CF
:1030100088421DD0284928312068884218D0264986
:103020003C312068884213D02349503120688842BF
:103030000ED0214964312068884209D01E49783178
:103040002068884204D01C498C312068884201D114
:10305000012000E00020D8B1206E006820F48070CC
:10306000216E0860A56D94F85C0000F01F0101203E
:1030700088406860D4E919104860E06E40B1E06EA5
:10308000006820F48070E16E0860D4E91C1048608C
:10309000012084F8350000BF002084F8340000BF10
:1030A000206D10B12046216D884700203EE60000CB
:1030B0001000024010040240085402582DE9F84F55
:1030C000044600200090FE4800684FF41651B0FB03
:1030D000F1FAA66DD4F858803768D8F80090F9490D
:1030E0002068884249D0F74918312068884244D086
:1030F000F4493031206888423FD0F2494831206895
:1031000088423AD0EF4960312068884235D0ED4995
:1031100078312068884230D0EA499031206888426E
:103120002BD0E849A8312068884226D0E64920689B
:10313000884222D0E4491831206888421DD0E249F3
:1031400030312068884218D0DF49483120688842F1
:1031500013D0DD496031206888420ED0DA497831D9
:103160002068884209D0D84990312068884204D02C
:10317000D549A8312068884201D1012000E0002013
:1031800000287DD094F85C0000F01F0108208840E2
:103190003840002868D0CB492068884249D0C949C6
:1031A00018312068884244D0C649303120688842AE
:1031B0003FD0C4494831206888423AD0C149603183
:1031C0002068884235D0BF4978312068884230D0A5
:1031D000BC499031206888422BD0BA49A831206878
:1031E000884226D0B8492068884222D0B649183192
:1031F000206888421DD0B44930312068884218D0F8
:10320000B14948312068884213D0AF496031206805
:1032100088420ED0AC4978312068884209D0AA494A
:1032200090312068884204D0A749A831206888429C
:1032300004D12068006800F0040003E02068006802
:1032400000F0080080B12068006820F004002168C8
:10325000086094F85C0000F01F0108208840B0600E
:10326000606D40F00100606594F85C0000F01F01A3
:10327000012088403840E8B392492068884200E045
:10328000B7E24BD08F4918312068884246D08D492B
:1032900030312068884241D08A49483120688842CC
:1032A0003CD0884960312068884237D085497831E0
:1032B0002068884232D083499031206888422DD0DE
:1032C0008049A8312068884228D07F4920688842F8
:1032D00024D07D491831206888421FD07A49303186
:1032E000206888421AD0784948312068884215D031
:1032F000754900E026E06031206888420ED07249AE
:1033000078312068884209D06F499031206888421E
:1033100004D06D49A8312068884204D120684069F2
:1033200000F0800002E020680068002050B194F8AE
:103330005C0000F01F0101208840B060606D40F02B
:103340000200606594F85C0000F01F0104208840D2
:103350003840E8B35B49206888424BD0594918315E
:103360002068884246D0574930312068884241D091
:1033700054494831206888423CD052496031206825
:10338000884237D04F4978312068884232D04D4941
:103390009031206888422DD04A49A831206888425F
:1033A00028D049492068884224D0474918312068EC
:1033B00088421FD044493031206888421AD042499F
:1033C00048312068884215D03F496031206800E0CC
:1033D00024E088420ED03C4978312068884209D0E8
:1033E000394990312068884204D03749A831206893
:1033F000884204D12068006800F0020002E02068E2
:103400000068002050B194F85C0000F01F01042017
:103410008840B060606D40F00400606594F85C0026
:1034200000F01F01102088403840E8B3254920688B
:10343000884251D023491831206888424CD0214914
:1034400030312068884247D01E4948312068884280
:1034500042D01C496031206888423DD019497831FA
:103460002068884238D0174990312068884233D08C
:103470001449A831206888422ED013492068884218
:103480002AD0114918312068884225D00E493031A0
:103490002068884220D00C494831206888421BD0DF
:1034A00009496031206800E04DE0884214D00649A7
:1034B0007831206888420FD003499031206805E0B8
:1034C000A00000241000024010040240884203D0F3
:1034D000FE492068884204D12068006800F0080096
:1034E00003E02068006800F0040060B394F85C001A
:1034F00000F01F0110208840B0602068006800F4D0
:10350000802080B12068006800F4002028B9206C79
:10351000C8B12046216C884715E0A06C98B12046C0
:10352000A16C88470FE02068006800F4807028B91B
:103530002068006820F0080021680860206C10B145
:103540002046216C884794F85C0000F01F01202081
:103550008840384000287DD0DD492068884249D025
:10356000DB4918312068884244D0D949303120687D
:1035700088423FD0D6494831206888423AD0D44961
:1035800060312068884235D0D1497831206888423E
:1035900030D0CF499031206888422BD0CC49A83117
:1035A0002068884226D0C949A8392068884221D09D
:1035B000C6499039206888421CD0C44978392068AF
:1035C000884217D0C14960392068884212D0BF496B
:1035D0004839206888420DD0BC493039206888427B
:1035E00008D0BA4918392068884203D0B749206802
:1035F000884204D12068006800F0100003E02068D1
:10360000006800F0020028B394F85C0000F01F018D
:1036100020208840B06094F8350004282DD120681F
:10362000006820F01600216808602068406920F0DA
:10363000800021684861206C08B9A06C28B120681E
:10364000006820F008002168086094F85C0000F031
:103650001F0100E03FE03F208840B060012084F877
:10366000350000BF002084F8340000BF206D10B189
:103670002046216D8847BDE8F88F2068006800F477
:10368000802080B12068006800F4002028B9606CB8
:1036900008B32046616C88471DE0E06BD8B1204636
:1036A000E16B884717E02068006800F4807068B913
:1036B0002068006820F0100021680860012084F86C
:1036C000350000BF002084F8340000BFE06B10B16B
:1036D0002046E16B8847606D00287AD0606D00F06D
:1036E0000100E8B3042084F8350079492068884255
:1036F0004BD0774918312068884246D07449303120
:103700002068884241D072494831206888423CD0C4
:103710006F4960312068884237D06D497831206820
:10372000884232D06A499031206888422DD0684959
:10373000A8312068884228D06449A8392068884286
:1037400023D062499039206888421ED05F49783979
:103750002068884219D05D4960392068884200E0BD
:1037600040E012D059494839206888420DD0574965
:1037700030392068884208D0544918392068884276
:1037800003D052492068884206D12068006820F0A2
:1037900001002168086005E02068006820F0010051
:1037A0002168086000BF0098401C0090504500D977
:1037B00005E02068006800F001000028F3D100BF98
:1037C0002068006800F0010020B1032084F8350073
:1037D00003E00DE0012084F8350000BF002084F8EC
:1037E000340000BFE06C002802D02046E16C88471E
:1037F000D9E138492068884222D0364914312068FE
:1038000088421DD0334928312068884218D0314978
:103810003C312068884213D02E49503120688842BC
:103820000ED02C4964312068884209D0294978316A
:103830002068884204D027498C312068884201D111
:10384000012000E000200028D2D02068056894F80C
:103850005C0000F01F010420884000EA0900D8B392
:1038600005F00400C0B394F85C0000F01F010420D0
:103870008840C8F8040005F4004080B105F48030A9
:1038800030B9A06C0028B3D02046A16C88478AE1EB
:10389000206C0028ACD02046216C884783E105F0DD
:1038A0002000E8BB0A492068884253D008491831F3
:1038B000206888424ED0064930312068884249D07D
:1038C000034948312068884244D006E0B8040240E9
:1038D00010000240085402584FE0B449603120689B
:1038E000884237D0B14978312068884232D0AF4918
:1038F0009031206888422DD0AC49A8312068884298
:1039000028D0AB492068884224D0A94918312068C2
:1039100088421FD0A6493031206888421AD000E082
:1039200025E0A34948312068884213D0A04960317E
:10393000206888420ED09E4978312068884209D09C
:103940009B4990312068884204D09949A831206869
:10395000884206D12068006820F0080021680860CD
:1039600005E02068006820F0040021680860206CF1
:1039700010B32046216C884715E194F85C0000F0F4
:103980001F010220884000EA0900E8B305F00200A8
:10399000D0B394F85C0000F01F0102208840C8F802
:1039A000040005F4004070B105F4803028B9606C63
:1039B00010B12046616C8847F5E0E06BF0B320461B
:1039C000E16B8847EFE005F02000C0BB7749206835
:1039D00088424ED0754918312068884249D07349D1
:1039E00030312068884244D070494831206888428C
:1039F0003FD06E496031206888423AD06B497831B7
:103A00002068884235D000E04EE068499031206857
:103A100088422ED06549A8312068884229D064495F
:103A20002068884225D0624918312068884220D019
:103A30005F493031206888421BD001E06EE02DE004
:103A40005B4948312068884213D059496031206869
:103A500088420ED0564978312068884209D05449AE
:103A600090312068884204D05149A83120688842AA
:103A700006D12068006820F014002168086005E085
:103A80002068006820F00A0021680860012084F89E
:103A9000350000BF002084F8340000BFE06BE8B3BD
:103AA0002046E16B88477EE094F85C0000F01F013F
:103AB0000820884000EA090080B305F0080068B3D8
:103AC0003A49206888424BD03849183120688842EA
:103AD00046D0364930312068884241D03349483198
:103AE000206888423CD0314960312068884237D014
:103AF0002E4978312068884232D02C499031206894
:103B000088422DD02949A8312068884228D02849E8
:103B10002068884224D02649183100E043E020681C
:103B200088421DD0224930312068884218D020496F
:103B300048312068884213D01D496031206888428E
:103B40000ED01B4978312068884209D0184990313D
:103B50002068884204D01649A8312068884206D1DE
:103B60002068006820F01C002168086005E02068DB
:103B7000006820F00E002168086094F85C0000F0F6
:103B80001F0101208840C8F804000120606584F806
:103B9000350000BF002084F8340000BFE06C10B195
:103BA0002046E16C884700BF65E500001000024038
:103BB000100402402DE9F041044601F027FD804643
:103BC00014B90120BDE8F081FE492068884249D03F
:103BD000FC4918312068884244D0FA4930312068C5
:103BE00088423FD0F7494831206888423AD0F549A9
:103BF00060312068884235D0F249783120688842A7
:103C000030D0F0499031206888422BD0ED49A8315E
:103C10002068884226D0EC492068884222D0EA49B0
:103C20001831206888421DD0E74930312068884229
:103C300018D0E54948312068884213D0E249603104
:103C4000206888420ED0E04978312068884209D047
:103C5000DD4990312068884204D0DB49A8312068D2
:103C6000884201D1012000E00020002873D0606A62
:103C700000B100BF022084F8350000BF002084F8A6
:103C8000340000BFCF492068884249D0CD4918315F
:103C90002068884244D0CB493031206888423FD0E8
:103CA000C8494831206888423AD0C6496031206806
:103CB000884235D0C34978312068884230D0C14924
:103CC0009031206888422BD0BE49A83120688842B4
:103CD00026D0BD492068884222D0BB4918312068CF
:103CE00088421DD0B84930312068884218D0B64982
:103CF00048312068884213D0B34960312068884237
:103D00000ED0B14978312068884209D0AE4990314F
:103D10002068884204D0AC49A8312068884206D186
:103D20002068006820F001002168086005E0206834
:103D3000006820F00100216808600DE001F066FCD9
:103D4000A0EB0800052807D920206065032084F82F
:103D50003500012036E769E02068006800F00100C6
:103D60000028EBD12068056898480540D4E9020195
:103D700008432169084361690843A1690843E1696F
:103D80000843216A08430543606A042803D1D4E943
:103D90000B01084305436068292802D360682E2878
:103DA00017D960683F2802D36068422811D960683B
:103DB000472802D3606848280BD960684F2802D38F
:103DC0006068522805D96068742804D36068772831
:103DD00001D8012000E0002008B145F480152068DA
:103DE00005602068456925F00705606A0543606A3B
:103DF00004280DD1A06A0543E06A48B12046FDF7CA
:103E0000E1F828B140206065012084F83500D9E64A
:103E1000206845612046FCF7B1FF064694F85C0037
:103E200000F01F013F208840B0609EE06849206894
:103E3000884222D066491431206888421DD06449E6
:103E400028312068884218D061493C312068884276
:103E500013D05F495031206888420ED05C496431EC
:103E60002068884209D05A4978312068884204D0B5
:103E700057498C312068884201D1012000E00020A0
:103E8000E0B353492068884222D051491431206858
:103E900088421DD04E4928312068884218D04C49AC
:103EA0003C312068884213D049495031206888420B
:103EB0000ED0474964312068884209D0444978319E
:103EC0002068884204D042498C312068884201D160
:103ED000012000E0002000B100BF022084F835007E
:103EE00000BF002084F8340000BF2068056839480E
:103EF0000540A068402802D1102106E02EE0A0680D
:103F0000802801D1C10100E00021E06841EAD00130
:103F1000206941EAD001606941EAD001A06941EA23
:103F2000D001E06941EAD001206A41EA101005435E
:103F30002068056026492068401A1421B0FBF1F082
:103F40008000E0652046FCF719FF074694F85C0006
:103F500000F01F0101208840786006E04020606585
:103F6000032084F8350001202CE616492068884299
:103F70007AD0144918312068884275D011493031FF
:103F80002068884270D00F494831206888426BD041
:103F90000C4960312068884266D00A49783120682F
:103FA000884261D007499031206888425CD0054939
:103FB000A8312068884257D003492068884253D0EE
:103FC000014909E010000240100402403F8010FE49
:103FD000085402580F00FEFF18312068884243D071
:103FE0003749206888423FD03549183120688842D7
:103FF0003AD0334930312068884235D03049483191
:104000002068884230D02E496031206888422BD009
:104010002B4978312068884226D02A492068884276
:1040200022D028491431206888421DD025492831E2
:104030002068884218D023493C312068884213D038
:1040400020495031206888420ED01E4964312068D2
:10405000884209D01B4978312068884204D0194928
:104060008C312068884201D1012000E0002000B39B
:104070002046FCF7F9FEA068802801D1002060608E
:104080002079216E0860D4E919104860606860B139
:104090006068082809D82046FCF748FF0020E16E38
:1040A0000860D4E91C10486003E00020E066206747
:1040B000606700206065012084F83500002081E5FC
:1040C00040040240085402582DE9F04104460D46D0
:1040D00016461F464FF0000814B90120BDE8F081D4
:1040E00000BF94F83400012801D10220F6E7012036
:1040F00084F8340000BF94F8350001287ED10220F6
:1041000084F8350000206065E4492068884249D081
:10411000E24918312068884244D0E04930312068B3
:1041200088423FD0DD494831206888423AD0DB4997
:1041300060312068884235D0D8497831206888427B
:1041400030D0D6499031206888422BD0D349A8314D
:104150002068884226D0D2492068884222D0D0499F
:104160001831206888421DD0CD49303120688842FE
:1041700018D0CB4948312068884213D0C8496031F3
:10418000206888420ED0C64978312068884209D01C
:10419000C34990312068884204D0C149A8312068C1
:1041A000884206D12068006820F00100216808607C
:1041B00005E02068006820F00100216808603B46A7
:1041C000324629462046FCF755FFB449206888420C
:1041D0004BD0B24918312068884246D0AF493031BF
:1041E0002068884241D0AD494831206888423CD09F
:1041F000AA4960312068884237D000E042E1A749EF
:1042000078312068884230D0A449903120688842B3
:104210002BD0A249A8312068884226D0A049206826
:10422000884222D09E491831206888421DD09C497E
:1042300030312068884218D0994948312068884236
:1042400013D097496031206888420ED09449783164
:104250002068884209D0924990312068884204D071
:104260008F49A8312068884201D1012000E0002058
:1042700080B12068006820F01E0040F01600216820
:104280000860206CB0B12068006840F00800216828
:1042900008600FE02068006820F00E0040F00A007F
:1042A00021680860206C28B12068006840F0040094
:1042B0002168086079492068884270D077491831B0
:1042C000206888426BD0754930312068884266D0BA
:1042D000724948312068884261D070496031206855
:1042E00088425CD06D4978312068884257D06B494C
:1042F00090312068884252D06849A83120688842AD
:104300004DD067492068884249D0654918312068F6
:10431000884244D062493031206888423FD06049A9
:104320004831206888423AD05D496031206888422F
:1043300035D05B4978312068884230D05849903177
:10434000206888422BD05649A8312068884226D060
:1043500054492068884222D052491431206888424A
:104360001DD0504928312068884218D04D493C3131
:104370002068884213D04B495031206888420ED0C3
:10438000484964312068884209D04649783120681C
:10439000884204D043498C312068884201D10120F1
:1043A00000E0002090B1206E006800F4803028B159
:1043B000206E006840F48070216E0860E06E28B1C5
:1043C000E06E006840F48070E16E08603349206858
:1043D000884249D0314918312068884244D02F4959
:1043E0003031206888423FD02C49483120688842CB
:1043F0003AD02A4960312068884235D0274978313F
:104400002068884230D025499031206888422BD0DE
:104410002249A8312068884226D021492068884254
:1044200022D01F491831206888421DD01C493031E4
:104430002068884218D01A4948312068884213D031
:1044400017496031206888420ED0154978312068BC
:10445000884209D0124990312068884204D010491E
:10446000A8312068884206D12068006840F0010029
:104470002168086010E02068006840F001002168B1
:10448000086009E04FF40060606500BF002084F818
:10449000340000BF4FF0010840461FE61000024004
:1044A000100402400854025870B5044601F0AEF8FA
:1044B00006462546681C10B104480078054400BF34
:1044C00001F0A4F8801BA842FAD370BD9C00002420
:1044D00030B5034693F89840012C01D0022C3ED110
:1044E0001868806D084030B91868C06D40F0010050
:1044F0001D68E8650EE01868806D0840884206D1A6
:104500001868C06D40F002001D68E86502E00320F5
:104510001D68E86501F4007030B11868D0F8E0005B
:1045200010431D68C5F8E00001F4806030B11868E0
:10453000D0F8E40010431D68C5F8E40000BF186817
:10454000406D0B4D0D4028431D68686509480068A3
:1045500040EA9170074D286000BF002030BDD3F8BD
:104560009C0040F00200C3F89C000120F6E7000028
:10457000FFFFCF3F14A800402DE9F04104460E464E
:104580001746706800B900E000BF94F89800022850
:1045900032D12068D0F8C00000F07C5040B9D4F887
:1045A0009C0040F02000C4F89C000120BDE8F08190
:1045B0002068D0F8C40000F4001038B1D4F89C0092
:1045C00040F40070C4F89C000120EFE72068D0F8A8
:1045D000C400C0F304452B463A4631462046FCF75A
:1045E000C7FF0120A8402168C1F8D0000120A840E1
:1045F000C4F894000020D9E7D4F89C0040F00800EB
:10460000C4F89C000120D1E7704710B5034601B9FA
:1046100000E000BF93F89800012824D151B9186830
:10462000D0F8F00020F07C5040EA02601C68C4F82A
:10463000F00016E001290AD11868D0F8A00020F097
:10464000FE4040EA02601C68C4F8A00009E0186857
:10465000D0F8B00020F0FE4040EA02601C68C4F8C8
:10466000B000002010BDD3F89C0040F00400C3F857
:104670009C000120F6E7F0B5024692F89860012E02
:1046800001D0022E43D1C868072800D100BF0868B6
:1046900018BBC868072800D000BFC86807280BD11E
:1046A000088A4FF0605747EA0040CF6940EA072088
:1046B0008F6940EA07040AE0087A80070F7B40EA26
:1046C000C7600F8A40EA07404F6940EA0704D76E87
:1046D000486807EB80031C6017E0C868072800D013
:1046E00000BF0F7B086940EA4774C868072801D1FA
:1046F0008D6903E00F7A486940EA8775176F48684B
:1047000007EBC0031C601B1D1D600020F0BDD2F82C
:104710009C0040F00200C2F89C000120F6E77047C0
:10472000704700002DE9F04304460D469C460023E7
:1047300094F89880B8F1020F74D1402D38D12068D8
:10474000D0F8A00000F4FE0040B9D4F89C0040F07E
:104750002000C4F89C000120BDE8F0832068D0F858
:10476000A40000F07F0038B9D4F89C0040F48070B9
:10477000C4F89C000120EFE72068D0F8A400C0F343
:10478000006040B12068D0F8A0004FF00049B9EBBC
:10479000D07F00D101232068D0F8A400C0F3052009
:1047A0000344606C5843D4F8749009EB80014BE0EB
:1047B000412D38D12068D0F8B00000F4FE0038B99F
:1047C000D4F89C0040F02000C4F89C000120C3E70E
:1047D0002068D0F8B40000F07F0038B9D4F89C000D
:1047E00040F48070C4F89C000120B5E72068D0F840
:1047F000B400C0F3006040B12068D0F8B0004FF0C2
:104800000049B9EBD07F00D101232068D0F8B40073
:10481000C0F305200344E06C5843D4F8789009EBCA
:10482000800111E06EE0206DA84207D8D4F89C000A
:1048300040F02000C4F89C0001208DE7606D6843C3
:10484000D4F87C9009EB8001086800F0804050604B
:10485000506820B90868C0F38A40106003E0086817
:1048600020F060401060086800F000509060086818
:1048700000F000401061091D088880B2D06108680E
:1048800000F47020D060086800F48010506108685F
:1048900000F4001090610868C0F3066010620868B8
:1048A000C00F5062091D0F46002603E0B85D0CF8EA
:1048B0000600761CDFF85C90D06809EB10400078A9
:1048C000B042F3D8402D03D12068C0F8A83017E0DB
:1048D000412D03D12068C0F8B83011E0202D06D258
:1048E0000120A840D4F80090C9F8980008E005F02D
:1048F0001F09012000FA09F0D4F80090C9F89C00C3
:10490000002029E7D4F89C0040F00800C4F89C007F
:10491000012021E7D44A0108704700002DE9F04F3B
:104920008DB00446EF4800688707EE48001D006818
:1049300007EA80772068006D00F470482068406DB9
:1049400000EA08082068006D00F00F092068406D3B
:1049500000EA09092068006D00F0F00A2068406D47
:1049600000EA0A0A2068006D00F0715B2068406D63
:1049700000EA0B0B2068006D00F060700C9020685E
:10498000406D0C9908400C902068456D2068066DBC
:10499000C5F3002070B1C6F3002058B100BF4FF43A
:1049A0008070216808650020CE49086000BF20465D
:1049B000FFF7B2FFC5F38020C8B1C6F38020B0B1C5
:1049C0002068D0F8DC000A902068D0F8E4000A994A
:1049D00008400A9000BF4FF48060216808650020FD
:1049E000C049086000BF20460A9900F04EFC67B13C
:1049F00000BFBD48384021680865B80FB949086054
:104A000000BF39462046FFF7FFFDB8F1000F0ED07A
:104A100000BFB54808EA0000216808654FEA9870B1
:104A2000B049086000BF4146204600F030FCB9F1B3
:104A3000000F0ED000BFAC4809EA000021680865ED
:104A40004FEA9970A749086000BF4946204600F028
:104A5000DFFBBAF1000F0ED000BFA3480AEA000046
:104A6000216808654FEA9A709E49086000BF514668
:104A7000204600F0E9FBC5F3C02070B1C6F3C020AA
:104A800058B100BF4FF400602168086500209549C7
:104A9000086000BF204600F0FBFBC5F34020C8B112
:104AA000C6F34020B0B12068D0F8D8000B90206841
:104AB000D0F8E0000B9908400B9000BF4FF4007055
:104AC0002168086500208749086000BF20460B99CF
:104AD00000F0DCFBC5F3C04070B1C6F3C04058B174
:104AE00000BF4FF400202168086500207D49086060
:104AF00000BF204600F08AFBC5F3004070B1C6F34A
:104B0000004058B100BF4FF4803021680865002094
:104B10007449086000BF204600F0B6FBC5F3804032
:104B200070B1C6F3804058B100BF4FF480202168B7
:104B3000086500206B49086000BF204600F0A3FB19
:104B4000C5F3404088B1C6F3404070B100BF4FF498
:104B500000302168086500206249086000BFD4F871
:104B60009C0040F08000C4F89C000C9870B100BF1D
:104B70005D490C980840216808650C98800F5949D8
:104B8000086000BF20460C99FFF7CAFDBBF1000F7B
:104B900010D000BF54480BEA0000216808654FEAB6
:104BA0009B705049086000BFD4F89C0040EA0B009D
:104BB000C4F89C004D49206888427DD160688068B7
:104BC00000F00300002877D06068006A00F00F0052
:104BD00009906068406A0999084009906068006A15
:104BE00000F0300008906068406A0899084008901A
:104BF0006068006A00F4C07007906068406A0799B6
:104C0000084007906068006A00F4FC400690606805
:104C1000406A0699084006906068006A00F4F02037
:104C200005906068406A0599084005906068406A90
:104C300002906068006A0190099830B10998616833
:104C400008622046099900F01BFB089830B10898CB
:104C5000616808622046089900F014FB0298C0F3CE
:104C60008010A0B10198C0F3801080B16068C06B63
:104C7000000C04906068C06B00F03F00039040207F
:104C8000616808622046DDE9032100F0FAFA07981E
:104C900030B10798616808622046079900F0EFFA82
:104CA000069840B1069861680862D4F89C0006999D
:104CB0000843C4F89C0000E00AE0059840B105985C
:104CC00061680862D4F89C0005990843C4F89C0008
:104CD000D4F89C0010B12046FFF721FD0DB0BDE8CF
:104CE000F08F000010A80040FFFFCF3F00A0004061
:104CF00070B594B004464C22B34901A8FBF795FB6C
:104D000014B9012014B070BDB0492068884203D1A5
:104D1000206800F580706060A068B0F5407F00D129
:104D200000BF206C00B100BFA06C00B100BF206DBF
:104D300000B100BF206E00B100BFD4E917100844D5
:104D400000B100BF94F8980028B9002084F89900B9
:104D5000204600F03DF92068806920F010002168AD
:104D6000886100F053FC05460EE000F04FFC401B4C
:104D70000A2809D99834606840F001006060032077
:104D800004F898090120BDE72068806900F0080058
:104D90000828EAD02068806940F001002168886115
:104DA00000F034FC05460EE000F030FC401B0A2801
:104DB00009D99834606840F001006060032004F86D
:104DC000980901209EE72068806900F00100002812
:104DD000EAD02068806940F0020021688861207C68
:104DE000012806D12068806920F040002168886190
:104DF00005E02068806940F0400021688861607C9F
:104E0000012806D12068806940F4804021688861CB
:104E100005E02068806920F4804021688861A07CDA
:104E2000012806D12068806920F4805021688861BB
:104E300005E02068806940F480502168886120681E
:104E4000806920F44070A168084321688861206867
:104E5000806920F0A400216888612068006920F042
:104E6000100021680861E068012806D12068806987
:104E700040F004002168886120E0E068F0B1E0685B
:104E8000022815D02068806940F080002168886180
:104E90002068006940F0100021680861E06803287C
:104EA0000CD12068806940F020002168886105E00D
:104EB0002068806940F0200021688861207E401EC3
:104EC0004106E069401E41EA0020216A491E08436C
:104ED000A18A491E40EA01402168C861A068B0F576
:104EE000407F0FD1A06A401EE16A491E40EA0121BD
:104EF000206B401E41EA0011A08C401E41EA004098
:104F00002168C860206E38B12068D0F8C000616E9A
:104F100008432168C1F8C000D4E91710084460B103
:104F20002068D0F8C80020F0070001AAA16E52F84E
:104F3000211008432168C1F8C800206C60B12068C6
:104F4000D0F8BC0020F0070001AA616C52F82110D3
:104F500008432168C1F8BC00A06C68B12068D0F893
:104F6000BC0020F0700101AAE06C52F8200041EA78
:104F700000102168C1F8BC00206D68B12068D0F82D
:104F8000BC0020F4E06101AA606D52F8200041EA03
:104F900000202168C1F8BC000C492068884205D176
:104FA0006068806820F0030061688860002044F831
:104FB000940FA06001202071943C2046FCF7C8F9B2
:104FC000064630469EE60000E44A010800A0004084
:104FD00010B5B6B00446142130A8FBF73FFAB8214B
:104FE00002A8FBF73BFA82492068884251D14FF46E
:104FF00000410020CDE9021048031D9002A802F0F4
:1050000091FF08B1FCF771F97A480068401C7949B2
:1050100008600846006801280DD100BF7648006886
:1050200040F48070744908600846006800F480709D
:10503000019000BF00BF00BF6F480C38006840F00F
:1050400008006D490C3908600846006800F0080047
:10505000019000BF00BF032030900220319000205B
:10506000329033900920349030A9644800F0C8F998
:1050700000220521132000F081FB132000F06AFBC1
:1050800000220521152000F079FB152000F062FBBD
:10509000ABE05B492068884251D14FF400410020C9
:1050A000CDE9021048031D9002A802F03BFF08B1B1
:1050B000FCF71BF94F480068401C4E490860084641
:1050C000006801280DD100BF4B48006840F4807093
:1050D000494908600846006800F48070019000BFEC
:1050E00000BF00BF44480C38006840F0020042494D
:1050F0000C3908600846006800F00200019000BF0B
:1051000000BF602030900220319000203290339018
:105110000920349030A93B4800F072F900220521A3
:10512000142000F02BFB142000F014FB00220521BA
:10513000162000F023FB162000F00CFB55E032494E
:105140002068884251D14FF400410020CDE902107F
:1051500048031D9002A802F0E5FE08B1FCF7C5F86F
:1051600024480068401C234908600846006801285C
:105170000DD100BF2048006840F480701E490860CF
:105180000846006800F48070019000BF00BF00BFB7
:1051900019480C38006840F0080017490C390860BD
:1051A0000846006800F00800019000BF00BF4FF4FF
:1051B00040503090022031900020329033900520F2
:1051C000349030A90D4800F01BF9002205219F20E2
:1051D00000F0D4FA9F2000F0BDFA00220521A020A3
:1051E00000F0CCFAA02000F0B5FA36B010BD0000F7
:1051F00000A000401C000024EC440258000C02589F
:1052000000A400400004025800D400407047000091
:1052100070B504460D4605F0010070B107488442A0
:1052200001D10DF059FB0648844201D10DF05EFB1F
:105230000448844201D10DF063FB70BD682700244F
:1052400008280024A82800247047014691F89800F7
:1052500001280CD1022081F898000868806920F0AC
:1052600001000A6890610020C1F89C007047D1F8E5
:105270009C0040F00400C1F89C000120F6E7704754
:105280007047704770477047704770477047704766
:1052900070470000F0B50C4600214E4B93E001260C
:1052A0008E4006EA0402002A7ED04B4E8F0856F844
:1052B00027508E07370F0F26BE403540474EB0426D
:1052C00001D1002628E0464EB04201D1012623E05C
:1052D000444EB04201D102261EE0434EB04201D1FD
:1052E000032619E0414EB04201D1042614E0404E9D
:1052F000B04201D105260FE03E4EB04201D1062654
:105300000AE03D4EB04201D1072605E03B4EB042D7
:1053100001D1092600E00A268F073F0FBE40AE42AA
:105320001FD11E6896431E605E6896435E604FF014
:10533000B046766896434FF0B0477E603E4636688A
:1053400096433E608E07370F0F2606FA07F5224E6A
:105350008F0856F82760AE431F4F4FEA910C47F86D
:105360002C6006684FEA410C032707FA0CF73E430E
:105370000660CF0800F1200656F827604F074FEA75
:10538000D76C0F2707FA0CF7BE434FEAD10C00F198
:10539000200747F82C60C6684FEA410C032707FA3C
:1053A0000CF7BE43C66000E00CE0476801268E4063
:1053B000B743476086684FEA410C032707FA0CF7AA
:1053C000BE438660491C24FA01F6002E7FF467AFC5
:1053D000F0BD00008000005808040058000002588A
:1053E0000004025800080258000C0258001002582D
:1053F0000014025800180258001C025800240258D9
:10540000F8B502460B4600216D4DD2E001278F40D2
:105410001E6806EA0704002C72D01E7906F0030607
:10542000012E04D01E7906F00306022E13D19068D7
:105430004F000326BE40B0434F00DE68BE403043FD
:105440009060506801268E40B0431E79C6F3001666
:105450008E40304350601E7906F00306032E09D0BB
:10546000D0684F000326BE40B0434F009E68BE4048
:105470003043D0601E7906F00306022E13D1CF0808
:1054800002F1200656F827004E07F70E0F26BE4001
:10549000B0434F07FF0E1E69BE403043CF0802F1F4
:1054A000200646F8270010684F000326BE40B04390
:1054B0001E7906F003064F00BE40304310605E6860
:1054C00006F44036002E73D000BF3E4E366846F0DC
:1054D00002063C4F3E603E46366806F002060096E5
:1054E00000BF00BF384E8F0856F827008E07370FD1
:1054F0000F26BE40B043354EB24202D1002629E00D
:1055000056E0334EB24201D1012623E0314EB24281
:1055100001D102261EE0304EB24201D1032619E02D
:105520002E4EB24201D1042614E02D4EB24201D1DA
:1055300005260FE02B4EB24201D106260AE02A4E84
:10554000B24201D1072605E0284EB24201D1092618
:1055500000E00A268F073F0FBE4030431A4E8F08E7
:1055600046F827004FF0B0463068A0435E6806F466
:10557000801606B120434FF0B04630607068A043FB
:105580005E6806F4001606B120434FF0B046706026
:105590006868A0435E6806F4003606B12043686080
:1055A0002868A0435E6806F4803606B12043286070
:1055B000491C1E68CE40002E7FF428AFF8BD0000C5
:1055C00080000058F44402580804005800000258B3
:1055D0000004025800080258000C0258001002583B
:1055E0000014025800180258001C025800240258E7
:1055F000024613690B400BB1012000E00020704708
:105600000AB1816101E00B048361704701480068C1
:10561000704700009400002403480068034909789B
:105620000844014908607047940000249C0000244D
:1056300010B5032000F0E0F803F0E8FC1049096819
:10564000C1F303210F4A515C01F01F0120FA01F45C
:105650000B48006800F00F001146085C00F01F00C6
:1056600024FA00F008490860084804600F2000F0A0
:105670000FF808B1012010BD00F054F80020FAE73F
:1056800018440258584B0108A4000024A00000242C
:1056900070B58AB00446102C0AD200222146A120FF
:1056A00000F06CF8A12000F055F81948046002E001
:1056B00001200AB070BD00BF1648006840F080703D
:1056C000144908600846006800F08070009000BF30
:1056D00000BF01A902A803F019FC03F085FC4500F6
:1056E0000D48B5FBF0F0461E0C480D49086040F22D
:1056F000E7310B48C160466000210161816004F020
:10570000C7FF18B9064804F0FBFFD2E70120D0E735
:1057100098000024EC44025840420F0000E0004092
:10572000502F002408B500BF0948006840F002006F
:10573000074908600846006800F00200009000BFBA
:1057400000BF00220F21901E00F018F808BD0000D5
:10575000F44402580146084600280DDB00BF00BF94
:1057600000F01F0301229A4043099B0003F1E0234C
:10577000C3F8002100BF00BF00BF70472DE9F05FF4
:1057800080460D4616460CF01DFD074639462A4652
:10579000334601F00700C0F1070ABAF1040F02D93D
:1057A0004FF0040A01E0C0F1070AD14600F1040AF3
:1057B000BAF1070F02D24FF0000A01E0A0F1030A8C
:1057C000D4464FF0010A0AFA09FAAAF1010A0AEAD4
:1057D000020A0AFA0CFA4FF0010B0BFA0CFBABF1C0
:1057E000010B0BEA030B4AEA0B04214640460CF07E
:1057F000F1FCBDE8F09F000000BF00F00702064B7F
:1058000019684FF6FF031940044B0B4343EA02218A
:10581000014B196000BF70470CED00E00000FA0575
:105820002DE9F04F8DB081460C4693464FF0000AAB
:10583000D046FE49D9F80000884202D10026012551
:1058400001E001260025002710E007EB470201AB2D
:1058500003EBC2017A1CD0B208F024F820B14FF05B
:10586000010A0820C9F85400781CC7B2022FECD3F3
:10587000BAF1000F7ED1ED48006800F0010038B1A8
:10588000EA48006820F00100E849086048F0010893
:10589000E748006800F0010038B1E548006820F0F2
:1058A0000100E349086048F00208E24806EB4601BF
:1058B00001AA02EBC1018968491E50F8210020F4B9
:1058C0008072DC4806EB460101AB03EBC10189683D
:1058D000491E40F82120001F006800F00100002848
:1058E0007FD0D448001F006820F00100D149091F73
:1058F0000860012D73D1081D05EB450101AA52F87E
:105900003110491E50F8210040F00202C94805EB51
:10591000450153F83110491E40F8212005EB4500A0
:1059200001A901EBC0004068A0B1C24805EB4501E8
:1059300001AA02EBC1014968491E50F8210040F05C
:105940002002BC4805EB450103EBC1014968491E33
:1059500040F8212005EB450001A901EBC000C0681B
:10596000D8B1B44805EB450101AA02EBC101097B9E
:10597000491E00E0C6E201F0010150F8210040F4A8
:105980008022AC4805EB450101AB03EBC101097B6B
:10599000491E01F0010140F8212005EB450001A955
:1059A00001EBC0000069002819D0A24805EB4501B1
:1059B00001AA02EBC101097C491E01F0010150F866
:1059C000210040F080629B4805EB450101AB03EBF1
:1059D000C101097C491E01F0010140F8212079E054
:1059E000FFE706EB460001A951F83000002871D00E
:1059F000904806EB460101AA52F83110491E50F8B2
:105A0000210020F001028B4806EB460101AB53F860
:105A10003110491E40F8212006EB460001A901EB98
:105A2000C0004068A0B1834806EB460101AA02EB22
:105A3000C1014968491E50F8210020F010027D483C
:105A400006EB460103EBC1014968491E40F82120DD
:105A500006EB460001A901EBC000C068C8B175485B
:105A600006EB460101AA02EBC101097B491E01F0C8
:105A7000010150F8210020F480326E4806EB460107
:105A800001AB03EBC101097B491E01F0010140F8A4
:105A9000212006EB460001A901EBC0000069C8B156
:105AA000644806EB460101AA02EBC101097C491ECC
:105AB00001F0010150F8210020F080725D4806EBF2
:105AC000460101AB03EBC101097C491E01F0010154
:105AD00040F8212005EB450101AA52F83110206859
:105AE00088421FD005EB450102EBC101606849689F
:105AF000884217D005EB450102EBC101A068896817
:105B000088420FD005EB450102EBC101E068C9688E
:105B1000884207D005EB450102EBC1012069096904
:105B2000884227D105EB450101AA52F831102068BF
:105B3000884220D105EB450102EBC101606849684C
:105B4000884218D105EB450102EBC101E068C96844
:105B5000884210D105EB450102EBC10120690969BA
:105B6000884208D13348001F006840F001003149E5
:105B7000091F08608EE02F4805EB450101AA52F885
:105B80003110491E50F8210020F00102294805EB90
:105B9000450101AB53F83110491E40F8212005EBB7
:105BA000450001A901EBC0004068A0B1214805EB08
:105BB000450101AA02EBC1014968491E50F82100C4
:105BC00020F010021B4805EB450103EBC1014968B9
:105BD000491E40F82120174805EB450101AA02EBB8
:105BE000C1018968491E50F8210020F480721148D3
:105BF00005EB450101AB03EBC1018968491E40F883
:105C0000212005EB450001A901EBC000C06800B3ED
:105C1000084805EB450101AA02EBC101097B491EB9
:105C200001F0010150F8210006E000000050005290
:105C300000A0005204B4005220F48032B34805EBB7
:105C4000450103EBC101097B491E01F0010140F848
:105C5000212005EB450001A901EBC0000069C8B196
:105C6000AA4805EB450101AA02EBC101097C491EC6
:105C700001F0010150F8210020F08072A34805EBEB
:105C8000450101AB03EBC101097C491E01F0010193
:105C900040F821209D48A168491E50F8210020F4B9
:105CA00040704FF4807141EA462108439749A26849
:105CB000521E41F822006069401E091F0968C1F3A5
:105CC000074188420BD99148001F006820F47F01EA
:105CD000A08A401E41EA00408C49091F08608B4899
:105CE000001F006800F00100002875D08748216877
:105CF000491E50F8210020F00300401C834922680F
:105D0000521E41F82200606868B108466168491E69
:105D100050F8210020F0300040F010027B4861680C
:105D2000491E40F82120E06800F4803090B17748A7
:105D3000217B491E01F0010150F8210020F4E020F0
:105D400040F480327148217B491E01F0010140F886
:105D5000212013E0E06888B16C48217B491E01F0E6
:105D6000010150F8210020F0E06040F080726748A7
:105D7000217B491E01F0010140F82120206900F437
:105D8000803090B16148217C491E01F0010150F83A
:105D9000210020F4E02040F440325C48217C491E80
:105DA00001F0010140F821209AE02069002811D07B
:105DB0005648217C491E01F0010150F8210020F0D5
:105DC000E06040F040725148217C491E01F0010121
:105DD00040F8212084E0FFE74C482168491E50F834
:105DE000210020F00300012141EA46010843474910
:105DF0002268521E41F82200606878B10846616846
:105E0000491E50F8210020F03000102141EA4611CF
:105E100008433E496268521E41F82200E06800F4DF
:105E20008030A8B13948217B491E01F0010150F8AA
:105E3000210020F4E0204FF4803141EA86410843FC
:105E40003249227B521E02F0010241F8220016E084
:105E5000E068A0B12D48217B491E01F0010150F8F6
:105E6000210020F0E0604FF0807141EA8661084334
:105E70002649227B521E02F0010241F822002069CD
:105E800000F48030A8B12148217C491E01F00101B5
:105E900050F8210020F4E0204FF4403141EA8641DF
:105EA00008431A49227C521E02F0010241F82200E6
:105EB00016E02069A0B11548217C491E01F00101BE
:105EC00050F8210020F0E0614FF0407040EA866019
:105ED00001430E48227C521E02F0010240F82210BB
:105EE00008F0010028B10A48006840F001000849A4
:105EF000086008F0020028B10648006840F0010080
:105F00000449086050460DB0BDE8F08F04B400525B
:105F10000050005200A0005270B5044600250CB994
:105F2000012510E02068006820F001002168086069
:105F30002068806820F0020021688860204600F018
:105F40008DF800202065284670BD0000F8B5044695
:105F50000025FFF75BFB06460CB901257AE000201F
:105F60006065206D002875D1204600F0A7F841F249
:105F70008831204600F074F9208A401EE16841EA29
:105F800000416069401E41EA0020616B0843E169FD
:105F9000084321688968304A1140084321688860B5
:105FA0002068C06820F4E020216A08432168C860A6
:105FB000208EA16B41EA0040216808612168E06BF6
:105FC00048612068006820F4F8516068401E41EA8A
:105FD000002021680860A06D334600222021009037
:105FE000204607F0D3FC05468DBB2068C06820F032
:105FF000FF00616A491E08432168C8602068006884
:1060000020F04000A168084321680860D4E90A0133
:1060100008432168D1F8081121F0A0410843216804
:10602000C1F808012068006840F00100216808609C
:10603000A069022805D12068806840F0020021682C
:106040008860E068B0F1806F02D10120206501E036
:10605000022020652846F8BDF4F8E0F810B50446A3
:106060001049206888421CD10F48006820F40010B5
:106070000D4908600846006820F4002008600A21E5
:106080000A48FFF707F905210948FFF703F94FF41C
:1060900000610848FFF7FEF84FF400610648FFF77B
:1060A000F9F810BD00A00052D44402580000025874
:1060B0000004025800100258000C025810B5B6B087
:1060C0000446142130A8FAF7C9F9B82102A8FAF752
:1060D000C5F95D49206888427ED14FF000710020EB
:1060E000CDE90210159002A801F01CFF08B1FBF7E2
:1060F000FCF800BF5548006840F4001053490860A0
:106100000846006800F40010019000BF00BF00BF07
:106110000846006840F4002008600846006800F463
:106120000020019000BF00BF00BF48480C3000684D
:1061300040F0010045490C3108600846006800F055
:106140000100019000BF00BF00BF0846006840F09A
:10615000020008600846006800F00200019000BFDD
:1061600000BF00BF0846006840F010000860084605
:10617000006800F01000019000BF00BF00BF08469B
:10618000006840F0080008600846006800F0080059
:10619000019000BF00BF022030903190002032906B
:1061A000032033900920349030A92948FFF728F9BB
:1061B000082030900220319000203290032033904C
:1061C0000620349030A92248FFF71AF901203090B8
:1061D00002203190002000E034E032900320339020
:1061E0000420349030A91B48FFF70AF904203090AE
:1061F0000220319000203290032033900920349007
:1062000030A91448FFF7FCF84FF4006030900220EA
:10621000319000203290032033900B20349030A92D
:106220000D48FFF7EDF84FF40060309002203190F8
:1062300000203290032033900920349030A9074881
:10624000FFF7DEF836B010BD00A00052D44402586B
:10625000000002580004025800100258000C0258B6
:10626000024691650020704701460A680120C1F886
:106270000005002081F8F404906940F0006090610E
:10628000506D024B1843506500207047030000100A
:10629000704702461068416200207047F0B503461F
:1062A00015461868446A21B944EA05401E68B06280
:1062B00019E01868806A04EB1044002208E01868AE
:1062C00000F5827050F8220004EB1044501CC2B25A
:1062D000481E9042F3D844EA0547186800F58270DA
:1062E0004E1E40F826700020F0BD10B50446D4F8CC
:1062F00008050AF069FA10BD70B504460D4605EBB5
:10630000C50304F13C0101EB8301CA682946D4F8B6
:1063100008050AF054F970BD70B504460D4605EB4A
:10632000C50304F51F7101EB8301CA682946D4F83F
:1063300008050AF0C8F970BD10B50446D4F8080580
:106340000AF045FA10BD2DE9F04104460D4605F06E
:106350008000802808D105F00F0000EBC00104F197
:106360003C0000EB810607E005F00F0000EBC001E8
:1063700004F51F7000EB8106314620680BF070FCBD
:1063800007463846BDE8F08170B504460E4606F073
:10639000800080280AD106F00F0000EBC00104F154
:1063A0003C0000EB81050120687009E006F00F0059
:1063B00000EBC00104F51F7000EB81050020687040
:1063C00006F00F00287000BF94F8BC04012801D12A
:1063D000022070BD012084F8BC0400BF294620685B
:1063E0000AF0DAFF00BF002084F8BC0400BF00BF41
:1063F000EFE770B504460E4606F00F00616888426C
:1064000001D9012070BD06F0800080280AD106F075
:106410000F0000EBC00104F13C0000EB81050120FE
:10642000687009E006F00F0000EBC00104F51F7072
:1064300000EB8105002068700020A87006F00F00B6
:10644000287000BF94F8BC04012801D10220D9E7CC
:10645000012084F8BC0400BF294620680BF092F9A3
:1064600000BF002084F8BC0400BF00BFCAE702469A
:1064700001F00F0000EBC00302F51F7000EB83007A
:10648000406970472DE9F04705460E4690461F4685
:106490004FF0000906F0800080280AD106F00F00B6
:1064A00000EBC00105F13C0000EB810401206070AD
:1064B00009E006F00F0000EBC00105F51F7000EBCE
:1064C00081040020607006F00F002070C4F808807E
:1064D0002771607808B120786083022F01D10020F5
:1064E000607100BF95F8BC04012802D10220BDE80C
:1064F000F087012085F8BC0400BF214628680AF017
:1065000057FE00BF002085F8BC0400BF4846EEE7F8
:106510002DE9F04105460E461746984606F00F0055
:1065200000EBC00105F51F7000EB8104E760C4F8C3
:10653000108000206061607006F00F002070E86835
:10654000012800D1E7612A7B214628680BF0AEF9CB
:106550000020BDE8F08170B504460D4605F00F003F
:106560006168884201D9012070BD05F08000802853
:106570000AD105F00F0000EBC00104F13C0000EB74
:1065800081060120707007E005EBC50104F51F705E
:1065900000EB8106002070700120B07005F00F0044
:1065A000307000BF94F8BC04012801D10220DBE761
:1065B000012084F8BC0400BF314620680BF029F9A3
:1065C00005F00F0028B9217B04F2C44220680BF0CB
:1065D000A1F800BF002084F8BC0400BF00BFC3E7DF
:1065E0002DE9F04105460E461746984606F00F0085
:1065F00000EBC00105F13C0000EB8104E760C4F84A
:106600001080002060610120607006F00F00207093
:10661000E868012800D1E7612A7B214628680BF051
:1066200045F90020BDE8F0812DE9FE4F0446D4F87D
:1066300000B05E4620680BF0FAFB002874D1206899
:106640000BF034FC08B9BDE8FE8F40F60800805915
:10665000C0F30D20C4F8FC0420680BF027FC00F008
:106660000200022805D12068406900F0020021687C
:10667000486120680BF01AFC00F01000102845D18A
:106680002068806920F0100021688861DBF8209084
:1066900009F00F0000EBC00104F51F7000EB810A48
:1066A000C9F3434002281AD147F6F07009EA000006
:1066B00030B3C9F30A125846DAF80C100BF0FBFBA2
:1066C000C9F30A11DAF80C000844CAF80C00C9F33F
:1066D0000A11DAF814000844CAF8140010E0C9F3EB
:1066E000434006280CD1082204F2C44158460BF05E
:1066F000E2FBC9F30A11DAF814000844CAF81400DE
:106700002068806940F010002168886120680BF0E3
:10671000CDFB00F40020B0F5002F7BD100252068D0
:106720000BF094FB029072E003E3029800F001008A
:10673000002868D0E9B220680BF0ABFB804608F077
:10674000010048B1012106F5306000EB4510816081
:106750002946204607F07AF908F00800082809D1F0
:10676000082106F5306000EB45108160294620467F
:1067700007F03AF908F01000102805D1102106F5AD
:10678000306000EB4510816008F00200022824D13F
:10679000DBF8140000F08000802807D140F60400E8
:1067A000805940F4806140F60400815105EBC50139
:1067B00004F51F7000EB810A9AF80300012806D146
:1067C00000208AF80300E9B2204600F0BDFA022159
:1067D00006F5306000EB4510816008F020002028AD
:1067E00005D1202106F5306000EB4510816008F4EA
:1067F0000050B0F5005F06D14FF4005106F530604F
:1068000000EB451081606D1C0298400802900298D0
:1068100000288AD120680BF049FB00F48020B0F5F5
:10682000802F7DD120680BF007FB029000259AE0B5
:10683000029800F00100002873D0E9B220680BF044
:106840000FFB804608F00100F0B305F00F010120B6
:106850008840019040F634008159019821EA0000F7
:1068600040F634018851012106F5106000EB451017
:106870008160E068012824D105EBC50104F13C00EA
:1068800000EB810005EBC502C16804F13C0000EBA0
:1068900082008068014405EBC50204F13C0000EB76
:1068A0008200C1606DB905EBC50104F13C0000EB4D
:1068B0008100006928B904F2C442012120680AF06D
:1068C00029FFE9B2204600E001E0FFF715FD08F0DE
:1068D0000800082805D1082106F5106000EB4510D6
:1068E000816008F01000102805D1102106F5106015
:1068F00000EB4510816008F04000402805D14021A0
:1069000006F5106000EB4510816008F002000228D7
:106910001DD1294658460BF04BFA05EBC50101E0A5
:1069200025E01CE004F13C0000EB810A9AF803002A
:10693000012806D100208AF80300E9B2204600F0C1
:10694000FAF9022106F5106000EB4510816008F0AD
:106950008000802803D12946204607F019F96D1CD4
:10696000029840080290029800287FF461AF2068E6
:106970000BF09CFA00F00040B0F1004F1CD140F643
:106980000400805920F0010140F60400815194F880
:10699000F404012807D1002084F8F40400212046E3
:1069A000FFF776FC02E0204600F0E0FA206840693C
:1069B00000F000402168486120680BF077FA00F48D
:1069C0000060B0F5006F0ED140F60800805900F06D
:1069D000010010B1204600F021FB2068406900F45E
:1069E00000602168486120680BF060FA00F00060E8
:1069F000B0F1006F19D12068406900F00060216893
:106A0000486194F8F40468B9012084F8F40420681B
:106A1000406DC0F38300C4F8F80401212046FFF75D
:106A200037FC02E0204600F0F9FA20680BF03EFA4D
:106A300000F48050B0F5805F7ED140F604008059AC
:106A400020F0010140F604008151102120680BF074
:106A5000AFF9002732E04FF67F3106F5106000EB0A
:106A60004710816006F5106000EB4710006820F4C5
:106A7000001106F5106000EB471001604FF67F3102
:106A800006F5306000EB4710816006F5306000EBE2
:106A90004710006820F4001106F5306000EB471045
:106AA000016006F5306000EB4710006840F00061BF
:106AB00006F5306000EB471001607F1C6068B8424B
:106AC000C9D840F61C00805940F0011140F61C0066
:106AD0008151206B70B1D6F8840840F00B01C6F8E4
:106AE000841840F64400805940F00B0140F6440001
:106AF00081510FE040F61400805942F22B01084307
:106B000040F614018851081F805940F00B014FF4E2
:106B100001608151D6F8000820F4FE60C6F8000834
:106B2000217B04F2C44220680AF0F4FD2068406929
:106B300000F48050216800E000E0486120680BF01C
:106B4000B5F900F40050B0F5005F17D120680AF0E5
:106B500097FB20680BF058F9206102F00DFA0090C5
:106B6000227C206800990BF029FA204600F0E6F913
:106B70002068406900F400502168486120680BF0EB
:106B800095F900F00800082808D1204600F0F5F932
:106B90002068406900F008002168486120680BF017
:106BA00085F900F08000802818D1DBF8180020F06B
:106BB0008000CBF8180001250DE005EBC50104F5B8
:106BC0001F7000EB8100C078012803D1E9B2204694
:106BD000FFF7B9FB6D1C6068A842EED820680BF087
:106BE00065F900F48010B0F5801F2DD1012522E059
:106BF00006F5106000EB4510D0F8009005EBC501DC
:106C000004F13C0000EB81000079012812D109F069
:106C10000040B0F1004F0DD1012105EBC50204F198
:106C20003C0000EB8200C170E8B240F080012046D9
:106C3000FFF789FB6D1C6068A842D9D820684069BD
:106C400000F480102168486120680BF02FF900F4EF
:106C50000010B0F5001F44D1012538E006F5306082
:106C600000EB4510D0F8009005EBC50104F51F704E
:106C700000EB81000079012828D109F00040B0F133
:106C8000004F23D109F4803094F8FC1401F0010185
:106C900088421BD1012105EBC50204F51F7000EBF2
:106CA0008200C170DBF8180040F08000CBF81800BB
:106CB000DBF8140000F0800040B940F60400805971
:106CC00040F4007140F60400815103E06D1C6068DF
:106CD000A842C3D800BF2068406900F400102168B2
:106CE000486120680BF0E2F800F08040B0F1804F7E
:106CF00008D12046FFF7F9FA2068406900F080408B
:106D00002168486120680BF0D1F800F004000428E5
:106D10000FD12068D0F8049009F00400042802D1B3
:106D20002046FFF709FB2068406840EA0900216817
:106D3000486000BF87E470B504460D462946D4F884
:106D4000080509F0B5FD70BD70B504460D4629462D
:106D5000D4F8080509F0D0FD70BD70B58AB00446BE
:106D600014B901200AB070BD266894F8BD0428B992
:106D7000002084F8BC04204600F0A8F8032084F822
:106D8000BD04F06B00F4807008B90021E160206858
:106D90000AF0B8FC282204F110016846F9F745FB17
:106DA00094E80F000AF080FA20B1022084F8BD04B4
:106DB0000120D7E7002120680BF0ADF8002531E075
:106DC000012105EBC50204F13C0000EB820041709B
:106DD00005EBC50104F13C0000F8215005EBC501AD
:106DE00000EB81004583002105EBC50204F13C0066
:106DF00000EB8200017105EBC50204F13C0000EBE1
:106E00008200816005EBC50204F13C0000EB8200CA
:106E1000C16005EBC50204F13C0000EB820001619A
:106E2000681CC5B26068A842CAD800252AE00021C3
:106E300005EBC50204F51F7000EB8200417005EB05
:106E4000C50104F51F7000F82150002105EBC502B3
:106E500000EB8200017105EBC50204F51F7000EB29
:106E60008200816005EBC50204F51F7000EB820013
:106E7000C16005EBC50204F51F7000EB82000161E3
:106E8000681CC5B26068A842D1D8282204F110015C
:106E90006846F9F7CAFA94E80F000AF047FB20B1F8
:106EA000022084F8BD0401205CE7002084F838004B
:106EB000012084F8BD04606A012802D12046FFF752
:106EC000D3F920680AF020FB00204BE710B5B0B0E2
:106ED0000446B82102A8F9F7C1FA16492068884289
:106EE00025D14FF480210020CDE902104FF440104D
:106EF000239002A801F016F808B1FAF7F6F900F0AD
:106F0000D7F800BF0C48006840F000700A490860DC
:106F10000846006800F00070019000BF00BF00222A
:106F200005214D20FEF72AFC4D20FEF713FC30B062
:106F300010BD000000000440D844025870B504465B
:106F40000125206908B9002506E02069022801D141
:106F5000012501E0FAF7C9F92946D4F8080509F036
:106F600074FDD4F8080509F01BFD70BD10B504468A
:106F7000D4F8080509F04AFD10BD10B50446D4F850
:106F8000080509F04EFD10BD70B504460D4600BF62
:106F900094F8BC04012801D1022070BD012084F8BE
:106FA000BC0400BF84F83850294620680AF0E7FF87
:106FB00000BF002084F8BC0400BF00BFEDE710B59F
:106FC000044604F2C441D4F8080509F055FD10BD8B
:106FD00070B50446256800BF94F8BC04012801D1AF
:106FE000022070BD012084F8BC0400BFE86B00F4EF
:106FF000807030B9A06A012803D1A86B40F48030BA
:10700000A86320680AF0A2FE20680AF06BFA00BFAD
:10701000002084F8BC0400BF00BFE2E710B50446BE
:10702000D4F8080509F085FD2068D0F8000E40F07E
:1070300001002168C1F8000E206A28B103480068E9
:1070400040F006000149086010BD000010ED00E0AE
:1070500070B5044615480068C0F3800048B913486D
:10706000006800F00700A04201D0012070BD0020A0
:10707000FCE70E48006820F0070020430B49086039
:10708000FEF7C4FA054607E0FEF7C0FA401BB0F56C
:107090007A7F01D90120E9E7044808380068C0F385
:1070A00040300028F0D00020E0E700000C480258F3
:1070B0000348006840F08070014908607047000094
:1070C0000C48025810B501F057FF05490968C1F393
:1070D0000211044A515C01F01F01C84010BD0000BC
:1070E00020440258584B010870B50146844D2D6864
:1070F00005F00303824D2D68C5F30510804D2D1D4D
:107100002D6805F001047E4D0C352D68C5F3CC05C6
:1071100015FB04F501EE105AB8EE411AF0EE410AE3
:1071200000286FD023B1012B4ED0022B6BD16BE026
:10713000734D283D2D68C5F340153DB3704D283D76
:107140002D68C5F3C1066F4D25FA06F201EE102A2F
:10715000F8EE411A01EE100AB8EE411A81EE812ACA
:107160009FED691AC0EE811A654D08352D68C5F38B
:10717000080501EE105AB8EE411A31EE811AF7EE09
:10718000001A31EE211A22EE010A1CE001EE100A6B
:10719000B8EE411ADFED5D1A81EE812A9FED5A1A91
:1071A000C0EE811A564D08352D68C5F3080501EE6D
:1071B000105AB8EE411A31EE811AF7EE001A31EE8C
:1071C000211A22EE010A5BE001EE100AB8EE411A24
:1071D000DFED4F1A81EE812A9FED4B1AC0EE811A26
:1071E000474D08352D68C5F3080501EE105AB8EE75
:1071F000411A31EE811AF7EE001A31EE211A22EE11
:10720000010A3DE077E01DE001EE100AB8EE411AF8
:107210009FED402AC2EE011A9FED3B1A80EE812AB3
:10722000374D08352D68C5F3080501EE105AB8EE44
:10723000411A32EE011AB7EE002A31EE021A21EE9F
:10724000810A1DE001EE100AB8EE411ADFED2F1A97
:1072500081EE812A9FED2C1AC0EE811A284D083547
:107260002D68C5F3080501EE105AB8EE411A31EE4B
:10727000811AF7EE001A31EE211A22EE010A00BF40
:1072800000BF1F4D08352D68C5F3462501EE105A85
:10729000B8EE411AF7EE001A31EE211AC0EE011ACB
:1072A000BCEEE11A81ED001A154D08352D68C5F3C5
:1072B000064501EE105AB8EE411AF7EE001A31EE0B
:1072C000211AC0EE011ABCEEE11A81ED011A0C4D33
:1072D00008352D68C5F3066501EE105AB8EE411A5F
:1072E000F7EE001A31EE211AC0EE011ABCEEE11AD7
:1072F00081ED021A03E000250D604D608D6070BDC8
:10730000284402580090D003000000460024744C2A
:107310000024744A001BB74B70B50146844D2D689C
:1073200005F00303824D2D68C5F30530804D2D1DFA
:107330002D68C5F300147E4D14352D68C5F3CC05BA
:1073400015FB04F501EE105AB8EE411AF0EE410AB1
:1073500000286FD023B1012B4ED0022B6BD16BE0F4
:10736000734D283D2D68C5F340153DB3704D283D44
:107370002D68C5F3C1066F4D25FA06F201EE102AFD
:10738000F8EE411A01EE100AB8EE411A81EE812A98
:107390009FED691AC0EE811A654D10352D68C5F351
:1073A000080501EE105AB8EE411A31EE811AF7EED7
:1073B000001A31EE211A22EE010A1CE001EE100A39
:1073C000B8EE411ADFED5D1A81EE812A9FED5A1A5F
:1073D000C0EE811A564D10352D68C5F3080501EE33
:1073E000105AB8EE411A31EE811AF7EE001A31EE5A
:1073F000211A22EE010A5BE001EE100AB8EE411AF2
:10740000DFED4F1A81EE812A9FED4B1AC0EE811AF3
:10741000474D10352D68C5F3080501EE105AB8EE3A
:10742000411A31EE811AF7EE001A31EE211A22EEDE
:10743000010A3DE077E01DE001EE100AB8EE411AC6
:107440009FED402AC2EE011A9FED3B1A80EE812A81
:10745000374D10352D68C5F3080501EE105AB8EE0A
:10746000411A32EE011AB7EE002A31EE021A21EE6D
:10747000810A1DE001EE100AB8EE411ADFED301A64
:1074800081EE812A9FED2C1AC0EE811A284D10350D
:107490002D68C5F3080501EE105AB8EE411A31EE19
:1074A000811AF7EE001A31EE211A22EE010A00BF0E
:1074B00000BF1F4D10352D68C5F3462501EE105A4B
:1074C000B8EE411AF7EE001A31EE211AC0EE011A99
:1074D000BCEEE11A81ED001A154D10352D68C5F38B
:1074E000064501EE105AB8EE411AF7EE001A31EED9
:1074F000211AC0EE011ABCEEE11A81ED011A0C4D01
:1075000010352D68C5F3066501EE105AB8EE411A24
:10751000F7EE001A31EE211AC0EE011ABCEEE11AA4
:1075200081ED021A03E000250D604D608D6070BD95
:10753000284402580090D003000000460024744CF8
:107540000024744A001BB74B70B50146844D2D686A
:1075500005F00303824D2D68C5F30550804D2D1DA8
:107560002D68C5F300247E4D1C352D68C5F3CC0570
:1075700015FB04F501EE105AB8EE411AF0EE410A7F
:1075800000286FD023B1012B4ED0022B6BD16BE0C2
:10759000734D283D2D68C5F340153DB3704D283D12
:1075A0002D68C5F3C1066F4D25FA06F201EE102ACB
:1075B000F8EE411A01EE100AB8EE411A81EE812A66
:1075C0009FED691AC0EE811A654D18352D68C5F317
:1075D000080501EE105AB8EE411A31EE811AF7EEA5
:1075E000001A31EE211A22EE010A1CE001EE100A07
:1075F000B8EE411ADFED5D1A81EE812A9FED5A1A2D
:10760000C0EE811A564D18352D68C5F3080501EEF8
:10761000105AB8EE411A31EE811AF7EE001A31EE27
:10762000211A22EE010A5BE001EE100AB8EE411ABF
:10763000DFED4F1A81EE812A9FED4B1AC0EE811AC1
:10764000474D18352D68C5F3080501EE105AB8EE00
:10765000411A31EE811AF7EE001A31EE211A22EEAC
:10766000010A3DE077E01DE001EE100AB8EE411A94
:107670009FED402AC2EE011A9FED3B1A80EE812A4F
:10768000374D18352D68C5F3080501EE105AB8EED0
:10769000411A32EE011AB7EE002A31EE021A21EE3B
:1076A000810A1DE001EE100AB8EE411ADFED301A32
:1076B00081EE812A9FED2C1AC0EE811A284D1835D3
:1076C0002D68C5F3080501EE105AB8EE411A31EEE7
:1076D000811AF7EE001A31EE211A22EE010A00BFDC
:1076E00000BF1F4D18352D68C5F3462501EE105A11
:1076F000B8EE411AF7EE001A31EE211AC0EE011A67
:10770000BCEEE11A81ED001A154D18352D68C5F350
:10771000064501EE105AB8EE411AF7EE001A31EEA6
:10772000211AC0EE011ABCEEE11A81ED011A0C4DCE
:1077300018352D68C5F3066501EE105AB8EE411AEA
:10774000F7EE001A31EE211AC0EE011ABCEEE11A72
:1077500081ED021A03E000250D604D608D6070BD63
:10776000284402580090D003000000460024744CC6
:107770000024744A001BB74B2DE9F04389B006463C
:107780000F464FF4807186EA0100384370D1F74804
:10779000006800F00709B9F1050F65D2DFE809F0CC
:1077A000031221623000F1485038006800F0007088
:1077B000B0F1007F04D106A8FFF796FC079C00E01B
:1077C000002453E0E9485038006800F00060B0F150
:1077D000006F04D103A8FFF79FFD039C00E0002485
:1077E00044E0E2485038006800F00050B0F1005F1B
:1077F00004D16846FFF7A8FE009C00E0002435E0B5
:10780000DA48001F006800F04055D848503800683A
:1078100000F00400042809D145B9D4485038006864
:10782000C0F3C101D24820FA01F41AE0CF48503821
:10783000006800F48070B0F5807F04D1B5F1805FFE
:1078400001D1CC4C0DE0C9485038006800F400303C
:10785000B0F5003F04D1B5F1005F01D1C64C00E0A6
:10786000002403E0C54C01E0002400BF4BE3FFE728
:107870004FF4806186EA010038437BD1BB48083071
:10788000006800F46009B9F5800F2CD006DCB9F16E
:10789000000F0AD0B9F5001F69D115E0B9F5C00F86
:1078A00063D0B9F5000F62D12CE0B04850380068C1
:1078B00000F00070B0F1007F04D106A8FFF714FCBF
:1078C000079C00E0002454E0A8485038006800F00D
:1078D0000060B0F1006F04D103A8FFF71DFD039C09
:1078E00000E0002445E0A1485038006800F0005056
:1078F000B0F1005F04D16846FFF726FE009C00E06F
:10790000002436E09948001F006800F04055974871
:107910005038006800F00400042809D145B99348A4
:1079200050380068C0F3C101914820FA01F41BE00F
:107930008E485038006800F48070B0F5807F04D124
:10794000B5F1805F01D18B4C0EE08848503800685B
:1079500000F40030B0F5003F05D1B5F1005F02D171
:10796000854C01E006E0002403E0844C01E00024A3
:1079700000BFC8E24FF4006186EA010038437BD1C2
:107980007A480830006800F0E069B9F1007F2CD037
:1079900006DCB9F1000F0AD0B9F1807F69D115E09A
:1079A000B9F1407F63D0B9F1806F62D12CE06F48AC
:1079B0005038006800F00070B0F1007F04D106A8D4
:1079C000FFF792FB079C00E0002454E06748503822
:1079D000006800F00060B0F1006F04D103A8FFF769
:1079E0009BFC039C00E0002445E0604850380068A0
:1079F00000F00050B0F1005F04D16846FFF7A4FD2D
:107A0000009C00E0002436E05848001F006800F0A9
:107A1000405556485038006800F00400042809D149
:107A200045B9524850380068C0F3C101504820FAA7
:107A300001F41BE04D485038006800F48070B0F548
:107A4000807F04D1B5F1805F01D14A4C0EE04748F8
:107A50005038006800F40030B0F5003F05D1B5F1B2
:107A6000005F02D1444C01E006E0002403E0434CF7
:107A700001E0002400BF46E24FF4805186EA010095
:107A8000384372D13948006800F4E048B8F5005F27
:107A90002CD006DCB8F1000F0AD0B8F5805F75D1A4
:107AA00015E0B8F5405F6FD0B8F5804F6ED12CE08F
:107AB0002E485038006800F00070B0F1007F04D10B
:107AC00006A8FFF711FB079C00E0002460E02748B0
:107AD0005038006800F00060B0F1006F04D103A8D6
:107AE000FFF71AFC039C00E0002451E01F485038C7
:107AF000006800F00050B0F1005F04D16846FFF765
:107B000023FD009C00E0002442E01848001F0068AC
:107B100000F0405515485038006800F00400042873
:107B200009D145B9114850380068C0F3C101104867
:107B300020FA01F427E00D485038006800F4807006
:107B4000B0F5807F04D1B5F1805F01D1094C1AE016
:107B500006485038006800F40030B0F5003F11D1FD
:107B6000B5F1005F0ED1044C0DE012E05044025814
:107B70000090D00300093D0000366E010080BB007C
:107B800004E001E0002403E0E14C01E0002400BF38
:107B9000B9E14FF4005186EA0100384367D1DD486E
:107BA000006800F4E028B8F5403F33D009DCB8F1B4
:107BB000000F0DD0B8F5803F0ED0B8F5003F53D17F
:107BC00019E0B8F5802F37D0B8F5A02F4CD13FE0A1
:107BD00001F0F8F9044649E0CE485038006800F05A
:107BE0000060B0F1006F04D103A8FFF795FB049C7F
:107BF00000E000243AE0C7485038006800F0005028
:107C0000B0F1005F04D16846FFF79EFC019C00E0E4
:107C100000242BE0BF485038006800F0040004281E
:107C200008D1BC4850380068C0F3C101BA4820FAF6
:107C300001F400E0002419E0B6485038006800F470
:107C40008070B0F5807F01D1B44C00E000240DE0DD
:107C5000B0485038006800F40030B0F5003F01D162
:107C6000AF4C00E0002401E0002400BF4BE14FF4E2
:107C7000002186EA0100384361D1A6480830006837
:107C800000F44038B8F1000F06D0B8F5803F12D0AC
:107C9000B8F5003F50D11DE09E485038006800F014
:107CA0000060B0F1006F04D103A8FFF735FB039C1F
:107CB00000E0002442E097485038006800F000508F
:107CC000B0F1005F04D16846FFF73EFC029C00E083
:107CD000002433E08F48001F006800F040558D48B5
:107CE0005038006800F00400042809D145B98948DB
:107CF00050380068C0F3C101874820FA01F41AE047
:107D000084485038006800F48070B0F5807F04D15A
:107D1000B5F1805F01D1814C0DE07E48503800689C
:107D200000F40030B0F5003F04D1B5F1005F01D19F
:107D30007B4C00E0002401E0002400BFE3E04FF4AE
:107D4000803186EA010038432CD17248001F006858
:107D500000F48038B8F1000F03D0B8F5803F1ED191
:107D60000EE06C485038006800F00070B0F1007F01
:107D700004D106A8FFF7B8F9079C00E0002410E042
:107D800064485038006800F00060B0F1006F04D122
:107D900003A8FFF7C1FA059C00E0002401E00024DD
:107DA00000BFB0E04FF4804186EA0100384368D15B
:107DB00058480830006800F0E048B8F1405F33D020
:107DC00009DCB8F1000F0DD0B8F1805F0ED0B8F12A
:107DD000005F53D119E0B8F1804F37D0B8F1A04F10
:107DE0004CD13FE0FFF76EF9044649E0494850386E
:107DF000006800F00060B0F1006F04D103A8FFF745
:107E00008BFA049C00E000243AE0424850380068B5
:107E100000F00050B0F1005F04D16846FFF794FB1A
:107E2000019C00E000242BE03A485038006800F044
:107E30000400042808D1374850380068C0F3C10155
:107E4000354820FA01F400E0002419E031485038A8
:107E5000006800F48070B0F5807F01D12F4C00E005
:107E600000240DE02B485038006800F40030B0F5D5
:107E7000003F01D12A4C00E0002401E0002400BFB3
:107E800041E04FF4004186EA010038433AD12148ED
:107E9000006800F04058B8F1000F06D0B8F1805FDC
:107EA0000FD0B8F1005F2AD11AE01A4850380068A4
:107EB00000F40030B0F5003F01D1194C00E000247F
:107EC0001FE014485038006800F00070B0F1007FE7
:107ED00004D106A8FFF708F9079C00E0002410E091
:107EE0000C485038006800F00060B0F1006F04D119
:107EF00003A8FFF711FA049C00E0002401E000242D
:107F000000BF00E00024204609B0BDE8F083000077
:107F10000080BB00504402580090D00300093D008F
:107F200000366E012DE9F04104460025A8464FF0C9
:107F30000062D4E90010114000201346594040402F
:107F4000014331D1606E48B1B0F5801F0DD0B0F55E
:107F5000001F11D0B0F5401F16D114E0FE48006894
:107F600040F40030FC49086010E0022104F10800F0
:107F700005F06AFE054609E0022104F1280005F03B
:107F800015FF054602E001E0012500BF00BF55B91D
:107F9000F1482430006820F44010616E0843EE4937
:107FA0002431086000E0A8464FF48072D4E9001044
:107FB0001140002013465940404001432ED1A06D8E
:107FC00005281BD2DFE800F0030A11181900E24867
:107FD000006840F40030E049086011E0002104F13D
:107FE000080005F031FE05460AE0002104F12800F2
:107FF00005F0DCFE054603E002E001E0012500BFDC
:1080000000BF55B9D4482430006820F00700A16DA6
:108010000843D1492431086000E0A8464FF480624B
:10802000D4E900101140002013465940404001435C
:108030003DD1D4F8A400B0F5C00F24D007DC68B15E
:10804000B0F5001F11D0B0F5800F1FD114E0B0F5CE
:10805000000F19D0B0F5200F18D116E0BE48006807
:1080600040F40030BC49086012E0002104F108002F
:1080700005F0EAFD05460BE0002104F1280005F0BB
:1080800095FE054604E003E002E001E0012500BFA3
:1080900000BF5DB9B0482C30006820F46000D4F80F
:1080A000A4100843AC492C31086000E0A8464FF406
:1080B0000062D4E9000110400021134658404940B5
:1080C00008433DD1D4F8A800B0F1407F24D007DCAC
:1080D00068B1B0F1807F11D0B0F1007F1FD114E002
:1080E000B0F1806F19D0B0F1A06F18D116E09A48A6
:1080F000006840F400309849086012E0002104F163
:10810000080005F0A1FD05460BE0002104F1280060
:1081100005F04CFE054604E003E002E001E0012525
:1081200000BF00BF5DB98C482C30006820F0E060D3
:10813000D4F8A810084388492C31086000E0A8460C
:108140004FF00073D4E9001019400020594040401E
:10815000014328D1E06CA8B1102804D0202809D010
:10816000302810D10DE07C48006840F400307A4996
:1081700008600AE0022104F1080005F065FD0546EB
:1081800003E002E001E0012500BF00BF55B97248DD
:108190002030006820F03000E16C08436E49203147
:1081A000086000E0A8464FF48053D4E9001019405D
:1081B000002059404040014337D1E06DB0F5005FE9
:1081C0001AD004DC50B1B0F5805F1ED10DE0B0F5DF
:1081D000405F18D0B0F5804F17D115E05E480068B9
:1081E00040F400305C49086011E0002104F108000F
:1081F00005F02AFD05460AE0002104F1280005F0FB
:10820000D5FD054603E002E001E0012500BF00BF07
:1082100055B951482430006820F4E040E16D08432E
:108220004D492431086000E0A8464FF40053D4E9DA
:1082300000101940002059404040014335D1206EC4
:10824000B0F5403F1ED007DC68B1B0F5803F0BD0E1
:10825000B0F5003F19D10EE0B0F5802F13D0B0F586
:10826000A02F12D110E012E0012104F1080005F066
:10827000EBFC05460BE0012104F1280005F096FD1A
:10828000054604E003E002E001E0012500BF00BF75
:1082900055B931482430006820F4E020216E0843AD
:1082A0002D492431086000E0A8464FF48042D4E90B
:1082B000000110400021134658404940084337D17F
:1082C000D4F8AC00B0F1405F1ED007DC68B1B0F16B
:1082D000805F0BD0B0F1005F19D10EE0B0F1804F9C
:1082E00013D0B0F1A04F12D110E012E0012104F13F
:1082F000080005F0A9FC05460BE0012104F1280067
:1083000005F054FD054604E003E002E001E001252C
:1083100000BF00BF5DB910482C30006820F0E0407D
:10832000D4F8AC1008430C492C31086000E0A84692
:108330004FF40043D4E9000118400021584049405F
:1083400008432AD1E06EB8B1B0F1805F06D0B0F139
:10835000005F12D109E000002C440258F94800687F
:1083600040F40030F749086009E0012104F10800F9
:1083700005F06AFC054602E001E0012500BF00BFF0
:1083800055B9F0482430006820F04050E16E0843B1
:10839000EC492431086000E0A8464FF08073D4E92E
:1083A00000101940002059404040014328D1A06CE2
:1083B000A8B1012804D0022809D0032810D10DE06B
:1083C000E048006840F40030DE4908600AE002211D
:1083D00004F1080005F038FC054603E002E001E086
:1083E000012500BF00BF55B9D6482030006820F0F5
:1083F0000300A16C0843D3492031086000E0A8467F
:108400004FF48003D4E90010194000205940404047
:1084100001437DD1CC48006840F48070CA490860AF
:10842000FDF7F4F8064606E0FDF7F0F8801B642837
:1084300001D9032505E0C448006800F480700028D5
:10844000F2D000BF85BBBF484430006800F44070E4
:10845000B4F8B01001F44071884213D0B9484430E8
:10846000006820F44077B7484430006840F480301A
:10847000B449443108600846006820F48030086040
:1084800008460760D4F8B000B0F5807F15D1FDF73D
:10849000BDF8064609E0FDF7B9F8801B41F28831C6
:1084A000884202D9032507E038E0A6484430006836
:1084B000C0F340000028EED000BF55BB00BFB4F8A9
:1084C000B00000F44070B0F5407F0ED19D481C38DC
:1084D000006820F47C519D4AD4F8B000104041EA75
:1084E000101098491C39086007E096481C3800684D
:1084F00020F47C5093491C3908609248443000684D
:10850000B4F8B010C1F30B0108438E49443101E0C7
:1085100005E001E0086002E0A84600E0A84601226C
:10852000D4E9000110400021134658404940084357
:1085300030D1A06F18281AD005DC48B1082808D01F
:10854000102817D10CE0202812D0282812D110E0D2
:1085500012E0012104F1080005F076FB05460BE06E
:10856000012104F1280005F021FC054604E003E0A8
:1085700002E001E0012500BF00BF55B97148283075
:10858000006820F03800A16F08436E492831086068
:1085900000E0A8460223D4E9001019400020594009
:1085A0004040014329D1606F062816D2DFE800F071
:1085B00003040B12131412E0012104F1080005F06A
:1085C00043FB05460BE0012104F1280005F0EEFB1A
:1085D000054604E003E002E001E0012500BF00BF22
:1085E00055B958482830006820F00700616F0843EB
:1085F00054492831086000E0A8460422D4E900105C
:108600001140002013465940404001432BD1D4F87B
:108610009000062816D2DFE800F003040B121314B2
:1086200012E0012104F1080005F00EFB05460BE005
:10863000012104F1280005F0B9FB054604E003E040
:1086400002E001E0012500BF00BF5DB93D482C30CC
:10865000006820F00700D4F89010084339492C3105
:10866000086000E0A8462023D4E90001184000215A
:1086700058404940084337D1D4F88C00B0F1405FEE
:108680001ED007DC68B1B0F1805F0BD0B0F1005FA5
:1086900019D10EE0B0F1804F13D0B0F1A04F12D13C
:1086A00010E012E0002104F1080005F0CDFA0546C3
:1086B0000BE0022104F1280005F078FB054604E0F8
:1086C00003E002E001E0012500BF00BF5DB91D48E5
:1086D0002830006820F0E040D4F88C100843194995
:1086E0002831086000E0A8464023D4E90010194072
:1086F00000205940404001433CD1D4F89800B0F5E7
:10870000406F25D007DC68B1B0F5806F0BD0B0F5B5
:10871000006F20D10EE0B0F5805F1AD0B0F5A05FF9
:1087200019D117E019E0002104F1080005F08CFAD6
:10873000054612E0022104F1280005F037FB05464A
:108740000BE000002C44025800480258FFFCFF0FC9
:1087500003E002E001E0012500BF00BF4DB9FE4883
:10876000006820F4E050D4F898100843FA490860F3
:1087700000E0A8468023D4E90010194000205940A9
:108780004040014335D1D4F89C00B0F5C04F1ED015
:1087900007DC68B1B0F5005F0BD0B0F5804F19D1A0
:1087A0000EE0B0F5004F13D0B0F5204F12D110E01D
:1087B00012E0002104F1080005F046FA05460BE03E
:1087C000022104F1280005F0F1FA054604E003E077
:1087D00002E001E0012500BF00BF4DB9DE4800689E
:1087E00020F46040D4F89C100843DB49086000E0A6
:1087F000A8460823D4E90001184000215840494008
:10880000084317D1D4F88000B0F5805F07D102216A
:1088100004F1280005F0CAFA08B14FF00108CE486B
:10882000001F006820F44050D4F880100843CA4963
:10883000091F08601023D4E90001184000215840A6
:108840004940084315D1D4F89400B0F5807F07D192
:10885000022104F1280005F0A9FA08B14FF001083F
:10886000BD48006820F44070D4F894100843BA4919
:1088700008604FF40023D4E900011840002158405B
:108880004940084327D1D4F8A00030B1B0F5803F6B
:108890000AD0B0F5003F0FD10DE0002104F108002F
:1088A00005F0D2F9054609E0022104F1280005F09F
:1088B0007DFA054602E001E0012500BF00BF4DB989
:1088C000A548006820F44030D4F8A0100843A2491D
:1088D000086000E0A8464FF48023D4E90001184066
:1088E00000215840494008432DD1D4F88400B0F508
:1088F000801F06D0B0F5001F0CD0B0F5401F11D17D
:108900000FE095482C38006840F4003092492C392B
:10891000086009E0012104F1280005F047FA054646
:1089200002E001E0012500BF00BF5DB98A48001FD9
:10893000006820F44010D4F8841008438649091FC9
:10894000086000E0A8464FF48032D4E900011040EE
:108950000021134658404940084325D1206D18B1E5
:10896000B0F5803F10D108E07B482C38006840F417
:10897000003079492C39086008E0022104F1080030
:1089800005F062F9054601E0012500BF00BF55B9B9
:1089900071480C38006820F48030216D08436E491E
:1089A0000C39086000E0A8464FF00053D4E90010ED
:1089B0001940002059404040014307D1022104F1F1
:1089C000280005F0F3F908B14FF001084FF4003228
:1089D000D4E90001104000211346584049400843A3
:1089E00027D1E06FA0B1B0F5807F06D0B0F5007F51
:1089F0000CD0B0F5407F0CD109E057482C38006806
:108A000040F4003054492C39086004E003E002E0EF
:108A100001E0012500BF00BF55B94F48001F0068A5
:108A200020F44070E16F08434B49091F086000E0E3
:108A3000A8464FF48012D4E90010114000201346DC
:108A400059404040014309D143480838006820F0AC
:108A50000040216F08434049083908604FF4001373
:108A6000D4E900011840002158404940084309D189
:108A700039480838006820F08070A16E08433649F4
:108A8000083908604FF08043D4E9001019400020F5
:108A900059404040014311D100BF2F484838006879
:108AA00020F400402C494839086008460068D4F892
:108AB000B410084328494839086000BF4FF000420D
:108AC000D4E90001104000211346584049400843B2
:108AD00009D121480C38006820F04050616D0843EE
:108AE0001D490C3908604FF40002D4E90010114010
:108AF000002013465940404001430AD11648001F48
:108B0000006820F44000D4F8881008431249091F77
:108B10000860012200216068104049405040014334
:108B200006D104F1080005F08FF8054605B1A84606
:108B3000022200216068104049405040014307D1A3
:108B4000012104F1080005F07FF8054605B1A846AB
:108B500004230020616801E05844025819400422AF
:108B600040405140084307D1022104F1080005F0BC
:108B70006BF8054605B1A846082300206168194036
:108B8000082240405140084307D1002104F1280049
:108B900005F00CF9054605B1A846102300206168D0
:108BA0001940102240405140084307D1012104F1EF
:108BB000280005F0FBF8054605B1A8462022002153
:108BC0006068104049405040014307D1022104F140
:108BD000280005F0EBF8054605B1A846B8F1000FEE
:108BE00002D10020BDE8F0810120FBE72DE9F04132
:108BF00004460D4614B90120BDE8F081BD48006867
:108C000000F00F00A8420ED2BA48006820F00F0012
:108C10002843B84908600846006800F00F00A842E1
:108C200001D00120E8E7207800F0040004280ED1EC
:108C3000B1492069096801F07001884207D9AE483E
:108C4000006820F0700021690843AB490860207873
:108C500000F00800082811D1A749091D60690968BA
:108C600001F07001884209D9A348001D006820F076
:108C7000700061690843A049091D0860207800F070
:108C80001000102811D19C49091DA069096801F440
:108C9000E061884209D99848001D006820F4E0602E
:108CA000A16908439449091D0860207800F020005C
:108CB000202811D190490831E069096801F070015C
:108CC000884209D98C480830006820F07000E169BA
:108CD0000843894908310860207800F00200022822
:108CE0000ED18549E068096801F00F01884207D973
:108CF0008148006820F00F00E16808437E49086061
:108D0000207800F00100002850D07B48006820F453
:108D10007060A1680843784908606068022807D13C
:108D2000754818380068C0F34040F8B9012063E77F
:108D30006068032807D1704818380068C0F34060A5
:108D4000A0B9012058E76068012807D16A4818389F
:108D50000068C0F3002048B901204DE76648183884
:108D60000068C0F3800008B9012045E76248083870
:108D7000006820F00700616808435F49083908600F
:108D8000FCF744FC064608E0FCF740FC801B41F27F
:108D90008831884201D903202EE7574808380068F7
:108DA00000F038006168B0EBC10FEDD1207800F021
:108DB000020002280ED15049E068096801F00F0155
:108DC000884207D24C48006820F00F00E168084351
:108DD000494908604748006800F00F00A8420ED9D2
:108DE0004448006820F00F002843424908600846C4
:108DF000006800F00F00A84201D00120FCE62078B6
:108E000000F0040004280ED13B492069096801F0F4
:108E10007001884207D23848006820F0700021694C
:108E2000084335490860207800F00800082811D16F
:108E30003149091D6069096801F07001884209D251
:108E40002D48001D006820F07000616908432A4920
:108E5000091D0860207800F01000102811D1264963
:108E6000091DA069096801F4E061884209D222481D
:108E7000001D006820F4E060A16908431E49091D37
:108E80000860207800F02000202811D11A4908310C
:108E9000E069096801F07001884209D2164808307B
:108EA000006820F07000E169084313490831086048
:108EB00000F0ACF810490968C1F303210F4A515C76
:108EC00001F01F0120FA01F70B48006800F00F00C5
:108ED0001146085C00F01F0027FA00F008490860FE
:108EE0000848076008480068FCF7D2FB8046404607
:108EF00082E600000020005218440258584B010836
:108F0000A4000024A0000024980000243F22026056
:108F1000174A126802F007024260154A08321268C6
:108F200002F470628260124A0832126802F00F0284
:108F3000C2600F4A0832126802F0700202610C4AE5
:108F40000C32126802F070024261094A0C32126857
:108F500002F4E0628261064A1032126802F0700286
:108F6000C261044A126802F00F020A6070470000F2
:108F7000104402580020005210B500F047F80D4987
:108F80000968C1F303210C4A515C01F01F0120FA6A
:108F900001F40848006800F00F001146085C00F07A
:108FA0001F0024FA00F005490860054804600846DF
:108FB000006810BD18440258584B0108A400002452
:108FC000A000002400B5FFF7D7FF05490968C1F3E9
:108FD0000211044A515C01F01F01C84000BD0000AD
:108FE0001C440258584B010800B5FFF7C5FF05495E
:108FF0000968C1F30221044A515C01F01F01C84015
:1090000000BD00001C440258584B0108F0B5824EC8
:10901000366806F0380636B1082E15D0102E15D059
:10902000182E7DD114E07C4E103E3668C6F34016F3
:1090300046B1794E103E3668C6F3C107774E26FA20
:1090400007F000E07548E5E07548E3E07548E1E0C9
:10905000714E1836366806F003046F4E18363668BF
:10906000C6F305116C4E1C36366806F001056A4ED3
:1090700024363668C6F3CC0616FB05F601EE106AF8
:10908000B8EE410A002971D024B1012C50D0022C35
:109090006DD16DE0604E103E3668C6F340163EB3AB
:1090A0005D4E103E3668C6F3C1075C4E26FA07F3E4
:1090B00001EE103AF8EE411A01EE101AB8EE411A1C
:1090C00081EE812A9FED581AC0EE011A524E2036C9
:1090D0003668C6F3080601EE106AB8EE411A31EEA2
:1090E000811AF7EE001A31EE211A62EE010A1EE033
:1090F00001EE101AB8EE411ADFED4C1A81EE812A0A
:109100009FED491AC0EE011A434E20363668C6F369
:10911000080601EE106AB8EE411A31EE811A00E03D
:1091200076E0F7EE001A31EE211A62EE010A5BE0FA
:1091300001EE101AB8EE411A9FED3D2AC2EE011A57
:109140009FED391A80EE012A334E20363668C6F379
:10915000080601EE106AB8EE411A32EE011AB7EEB7
:10916000002A31EE021A61EE810A3DE04EE01DE078
:1091700001EE101AB8EE411ADFED2E1A81EE812AA7
:109180009FED291AC0EE011A234E20363668C6F329
:10919000080601EE106AB8EE411A31EE811AF7EEB8
:1091A000001A31EE211A62EE010A1DE001EE101ADA
:1091B000B8EE411A9FED1E2AC2EE011A9FED1A1A4F
:1091C00080EE012A144E20363668C6F3080601EEFA
:1091D000106AB8EE411A32EE011AB7EE002A31EEEB
:1091E000021A61EE810A00BF00BF0B4E20363668BE
:1091F000C6F34626721C01EE102AB8EE411AC0EEE4
:10920000811ABCEEE11A11EE100A00E0002001E024
:10921000034800BF00BFF0BD104402580090D003C7
:1092200000093D0000366E01000000460024744C29
:109230000024744A001BB74B70B586B006460C4636
:1092400015463EBB00BF2848006840F00100264993
:1092500008600846006800F00100009000BF00BFF1
:109260004FF48070019002200290032004900020AF
:109270000390059001A91D48FCF7C2F81A48D038A0
:10928000006820F0FE7044EA050108431649D03911
:10929000086026E000BF1448006840F0040012494E
:1092A00008600846006800F00400009000BF00BF9E
:1092B0004FF40070019002200290032004900020DF
:1092C0000390059001A90A48FCF79AF80648D0389F
:1092D000006820F07E4044EAC51108430249D039B5
:1092E000086006B070BD0000E0440258000002585B
:1092F000000802582DE9F047044614B90120BDE8E2
:10930000F087207800F00100002870D0F94800684C
:1093100000F03808F7481830D0F80090B8F1100F76
:1093200006D0B8F1180F0FD109F0030002280BD1B5
:10933000F04810380068C0F3404000286AD06068E8
:10934000002867D10120DAE700BF6068B0F5803FF0
:1093500008D1E8481038006840F48030E5491039F9
:1093600008602EE0606868B9E2481038006820F4B0
:109370008030E049103908600846006820F48020F9
:1093800008601EE06068B0F5A02F0DD1D9481038F4
:10939000006840F48020D74910390860084600680A
:1093A00040F4803008600CE0D2481038006820F4A7
:1093B0008030D049103908600846006820F48020C9
:1093C000086000BF606898B1FCF720F9054606E028
:1093D000FCF71CF9401B642801D903208FE7C5481E
:1093E00010380068C0F340400028F1D012E012E0CD
:1093F000FCF70CF9054606E0FCF708F9401B642869
:1094000001D903207BE7BB4810380068C0F3404017
:109410000028F1D100BF207800F00200022879D1A5
:10942000B448006800F03808B2481830D0F800900E
:10943000B8F1000F05D0B8F1180F35D109F00300CD
:1094400088BBAC4810380068C0F3800018B1E068F1
:1094500008B9012053E7A7481038006820F0190028
:10946000E1680843A34910390860FCF7CFF80546C6
:1094700006E0FCF7CBF8401B022801D903203EE7A9
:109480009C4810380068C0F380000028F1D099484B
:109490000C38006820F0FE40217C40EA01609549CC
:1094A0000C39086045E0FFE7E06838B391481038B0
:1094B000006820F01900E16808438E4910390860FF
:1094C000FCF7A4F8054606E0FCF7A0F8401B0228CC
:1094D00001D9032013E7874810380068C0F38000E3
:1094E0000028F1D083480C38006820F0FE40217C31
:1094F00040EA01607F490C3908601AE07D48103865
:10950000006820F001007B4910390860FCF77EF804
:10951000054607E00EE0FCF779F8401B022801D968
:109520000320ECE6734810380068C0F38000002880
:10953000F1D100BF207800F0100010286FD16D48E5
:10954000006800F038086B481830D0F80090B8F187
:10955000080F06D0B8F1180F1CD109F0030001283C
:1095600018D1644810380068C0F3002020B1E069C9
:10957000802801D00120C2E600BF5E48001F0068BD
:1095800020F07C5094F8201040EA01605949091FEE
:10959000086043E0E06938B356481038006840F08E
:1095A0008000544910390860FCF730F8054606E0A1
:1095B000FCF72CF8401B022801D903209FE64D48F8
:1095C00010380068C0F300200028F1D000BF4948DF
:1095D000001F006820F07C5094F8201040EA0160E1
:1095E0004449091F086019E042481038006820F01B
:1095F0008000404910390860FCF708F8054606E08D
:10960000FCF704F8401B022801D9032077E639480B
:1096100010380068C0F300200028F1D100BF207886
:1096200000F00800082836D16069D0B131486430B4
:10963000006840F001002F4964310860FBF7E6FF45
:10964000054606E0FBF7E2FF401B022801D9032094
:1096500055E6284864300068C0F340000028F1D087
:1096600019E024486430006820F001002149643189
:109670000860FBF7CBFF054606E0FBF7C7FF401B82
:10968000022801D903203AE61A4864300068C0F382
:1096900040000028F1D1207800F02000202838D1A7
:1096A000A069D0B113481038006840F480501149C7
:1096B00010390860FBF7AAFF054606E0FBF7A6FF96
:1096C000401B022801D9032019E60A481038006817
:1096D000C0F340300028F1D01BE006481038006885
:1096E00020F48050034910390860FBF78FFF0546CE
:1096F00009E0000010440258FBF788FF401B0228D5
:1097000001D90320FBE5D0480068C0F340300028B1
:10971000F2D1207800F0040004287DD1CB48006805
:1097200040F48070C9490860FBF770FF054606E009
:10973000FBF76CFF401B642801D90320DFE5C34819
:10974000006800F480700028F2D000BFA0680128F3
:1097500008D1BD487030006840F00100BA4970314E
:1097600008602DE0A06868B9B7487030006820F044
:109770000100B549703108600846006820F0040017
:1097800008601DE0A06805280DD1AF487030006862
:1097900040F00400AC49703108600846006840F0B1
:1097A000010008600CE0A8487030006820F001005B
:1097B000A549703108600846006820F00400086080
:1097C00000BFA068A0B1FBF721FF054608E0FBF74A
:1097D0001DFF401B41F28831884201D903208EE5EC
:1097E000994870300068C0F340000028EFD013E0C3
:1097F000FBF70CFF054608E0FBF708FF401B41F2B2
:109800008831884201D9032079E58F48703000689B
:10981000C0F340000028EFD1606A00287DD08A485C
:109820001030006800F03800182877D0606A0228ED
:1098300075D18548006820F0807083490860FBF787
:10984000E5FE054606E0FBF7E1FE401B022801D9D4
:10985000032054E57C480068C0F340600028F2D142
:1098600000BFD4E90A1041EA00107749283109689D
:1098700040F2F33291430843734928310860208E47
:10988000401EC0F30800616B491E4FF47E4202EA9D
:1098900041210843218F491ED20102EA01410843B8
:1098A0003C21095D491E120202EA01610843664932
:1098B0003031086000BF081F006820F00100091F58
:1098C00008606148343000684FF6F8718843A16C35
:1098D00040EAC1005C49343108605B482C300068C4
:1098E00020F00C00216C084357492C3108600846D1
:1098F000006820F00200616C084353492C31086075
:109900000846006840F4803008600846006840F46B
:10991000003008600846006802E092E038E01FE08E
:1099200040F4802008600846006840F001000860AC
:109930004548006840F0807043490860FBF766FEC8
:10994000054606E0FBF762FE401B022801D9032012
:10995000D5E43D480068C0F340600028F2D070E0D4
:109960003948006820F0807037490860FBF74EFEE8
:10997000054606E0FBF74AFE401B022801D90320FA
:10998000BDE431480068C0F340600028F2D158E0DF
:109990002D48283007682C4830300668606A012856
:1099A00021D007F00301A06A81421CD1C7F3051141
:1099B000E06A884217D1C6F30801206B401E81423D
:1099C00011D1606B401EC6F3462188420BD1A06BBB
:1099D000401EC6F30641884205D1E06B401EC6F327
:1099E0000661884201D0012089E4174834300068BC
:1099F000C0F3CC07A06CB84223D013482C300068C9
:109A000020F0010010492C310860FBF7FFFD0546EE
:109A100000BFFBF7FBFD401BFBD00B483430006858
:109A20004FF6F8718843A16C40EAC1000649343111
:109A3000086005482C30006840F0010002492C31D4
:109A4000086000205BE4000000440258004802580F
:109A50002DE9F04104460D4616461F4614B9012073
:109A6000BDE8F081D4F8880028B9002084F884008B
:109A7000204601F047FD2420C4F8880020680068D3
:109A800020F0010021680860204605F099FA0128BD
:109A900000D1E5E7A06A10B1204604F047FE206837
:109AA000806840F48040216888602068806820F4E5
:109AB00000402843216888604FEA465848EA074832
:109AC000206800680749084040EA080021680860EB
:109AD0002068006840F0010021680860204604F01A
:109AE000A1FEBDE7FFFF00FC70B504460CB90120E4
:109AF00070BD606A00B900BF0021A162634920689F
:109B000088420CD062492068884208D061492068A8
:109B1000884204D0E0680F2801D90120E8E72046F8
:109B200004F061FA054659492068884209D058492D
:109B30002068884205D057492068884201D0082D06
:109B40000DD852492068884207D051492068884280
:109B500003D050492068884203D1102D01D901203B
:109B6000C6E794F8810028B9002084F880002046D8
:109B700000F092F8022084F881002068006820F04C
:109B80000100216808602068806800F4F816A06968
:109B9000B0F1806F11D16068B0F5800F01D1A06B7A
:109BA00028B1606848B9A06BB0F1805F05D120682A
:109BB000006840F4805021680860606800F480000C
:109BC000B0F5800F0BD1E068072808D32068006843
:109BD00020F48070216D08432168086005E020684A
:109BE000006820F4807021680860A16AE069084379
:109BF0003043E16B0843E168084321688860616A8B
:109C0000606B0843A16B0843A169084321690843BD
:109C100061690843216A084361680843E16C0843AD
:109C2000A1680843A16C0843A16D08432168C8607E
:109C3000606878B92068806820F4C05040F4006003
:109C4000216888602068806820F4C06040F48060EB
:109C5000216888602068006D20F001002168086597
:109C6000606800F48000B0F5800F07D12068C068FC
:109C700020F00040616D08432168C8600020C4F8EE
:109C80008400012084F88100002031E70030014089
:109C900000380040003C004010B5B6B00446142126
:109CA00030A8F6F7DBFBB82102A8F6F7D7FB864908
:109CB0002068884252D181140020CDE90210199009
:109CC00002A8FEF72FF908B1F7F70FFB00BF7F4896
:109CD000006840F480507D4908600846006800F440
:109CE0008050019000BF00BF00BF78481038006866
:109CF00040F008007549103908600846006800F017
:109D00000800019000BF00BF00BF0846006840F097
:109D1000020008600846006800F00200019000BFE1
:109D200000BF80203090022031900020329003202C
:109D300033900520349030A96548FBF761FB08207B
:109D40003090022031900020329003203390052083
:109D5000349030A95F48FBF753FBB3E05E492068BD
:109D6000884255D181140020CDE90210199002A833
:109D7000FEF7D8F808B1F7F7B8FA00BF534808382B
:109D8000006840F48040514908390860084600687E
:109D900000F48040019000BF00BF00BF4B48103866
:109DA000006840F00400494910390860084600681E
:109DB00000F00400019000BF00BF00BF084600682B
:109DC00040F0020008600846006800F002000190C0
:109DD00000BF00BF0620309002203190002032905A
:109DE000032033900520349030A93C48FBF708FB52
:109DF0004FF4005030900220319000203290032028
:109E000033900520349030A93248FBF7F9FA59E035
:109E100033492068884255D14FF480410020CDE974
:109E200002104FF0A0402D9002A8FEF77BF808B179
:109E3000F7F75BFA00BF2548001D006840F02000DE
:109E40002249091D08600846006800F020000190C2
:109E500000BF00BF00BF1D481038006840F001007F
:109E60001A49103908600846006800F001000190A6
:109E700000BF00BF00BF0846006840F00400086053
:109E80000846006800F00400019000BF00BF802079
:109E9000309002203190002032903390082034908E
:109EA00030A91048FBF7ACFA4FF4805030900220F4
:109EB00031900020329033900520349030A907482B
:109EC000FBF79EFA36B010BD00300140F044025856
:109ED000000C0258000402580038004000080258E4
:109EE00000140058000002582DE9F84F0446884637
:109EF00017461D46206800F120094FF0000A00BFF8
:109F000094F88000012802D10220BDE8F88F0120DA
:109F100084F8800000BFFBF779FB064694F88100C7
:109F2000012808D04FF0020A00BF002084F880000A
:109F300000BF5046E9E7B8F1000F00D047B94FF035
:109F4000010A00BF002084F8800000BF5046DCE713
:109F500003205C3484F825000020A062C4F800804F
:109F6000A780E780A060A081E081A06160615C3C87
:109F7000A068B0F5C02F06D12068006840F40060EA
:109F80002168086007E02068C06820F4C02040F421
:109F900000302168C860206840686FF30F003843C4
:109FA000216848602068006840F00100216808606E
:109FB0006068B0F5800F05D12068006840F400703B
:109FC00021680860E0680F2833D92DE020684069D7
:109FD00000F0020002280CD1E06D006821680862E0
:109FE000E06D001DE065B4F86200401EA4F8620058
:109FF0001AE0FBF70BFB801BA84201D3681C00B9D9
:10A0000095B9204603F084FF00BF002084F880004B
:10A0100000BFD4F8840040F48070C4F884000120AC
:10A0200084F88100032070E7B4F862000028CDD1E5
:10A03000A4E0E068072846D940E02068406900F0C5
:10A04000020002281FD1B4F8620001280ED9E06B8B
:10A0500060B1E06D006821680862E06D001DE06598
:10A06000B4F86200801EA4F8620027E0E06D00886A
:10A07000A9F80000E06D801CE065B4F86200401EA5
:10A08000A4F862001AE0FBF7C1FA801BA84201D3D2
:10A09000681C00B995B9204603F03AFF00BF0020C4
:10A0A00084F8800000BFD4F8840040F48070C4F8C5
:10A0B0008400012084F88100032026E7B4F86200C0
:10A0C0000028BAD15AE055E02068406900F002004B
:10A0D000022834D1B4F8620003280FD9E06B40287D
:10A0E0000CD9E06D006821680862E06D001DE06534
:10A0F000B4F86200001FA4F862003BE0B4F862000C
:10A1000001280ED9E06B60B1E06D0088A9F800006D
:10A11000E06D801CE065B4F86200801EA4F8620067
:10A1200028E0E06D0078216881F82000E06D401C97
:10A13000E065B4F86200401EA4F862001AE0FBF784
:10A1400065FA801BA84201D3681C00B995B9204666
:10A1500003F0DEFE00BF002084F8800000BFD4F8CA
:10A16000840040F48070C4F88400012084F88100E9
:10A170000320CAE6B4F862000028A5D12B460022CD
:10A1800008212046009603F03BFF28B1D4F8840054
:10A1900040F02000C4F88400204603F0B9FE00BF60
:10A1A000002084F8800000BF012084F88100D4F8EA
:10A1B000840008B10120A8E65046A6E62DE9FF5F1D
:10A1C00004468A4693461E460E9D00200390206852
:10A1D0002030029020683030019000BF94F8800059
:10A1E000012803D1022004B0BDE8F09F012084F8CB
:10A1F000800000BFFBF70AFA81463746B04694F864
:10A200008100012808D00220039000BF002084F8BC
:10A21000800000BF0398E6E7BAF1000F03D0BBF15E
:10A22000000F00D046B90120039000BF002084F841
:10A23000800000BF0398D6E7052084F88100002045
:10A24000C4F88400C4F864B0A4F86A60A4F8686034
:10A25000C4F85CA0A4F86260A4F86060206760673E
:10A260002068C06820F4C0202168C8602068406869
:10A270006FF30F003043216848602068006840F0A9
:10A280000100216808606068B0F5800F05D1206882
:10A29000006840F4007021680860E0680F284ED91B
:10A2A00047E02068406900F0020002280ED16FB13B
:10A2B000E06D006821680862E06D001DE065B4F89B
:10A2C0006200401EA4F86200B4F862702068406921
:10A2D00048F20801084080B1B8F1000F0DD02068A5
:10A2E000006B616E0860606E001D6066B4F86A0005
:10A2F000401EA4F86A00B4F86A80FBF787F9A0EB67
:10A300000900A84201D3681C00B995B9204603F0A2
:10A31000FFFD00BF002084F8800000BFD4F8840057
:10A3200040F48070C4F88400012084F88100032088
:10A3300059E7002FB5D1B8F1000FB2D19EE0E06827
:10A3400007284CD945E02068406900F00200022847
:10A350000DD167B154F85C0F018802980180206824
:10A36000801C2060E088401EE080E7885C3C20681C
:10A37000406900F0010080B1B8F1000F0DD00198E4
:10A38000008854F8641F08802068801C2060E088E2
:10A39000401EE080B4F80680643CFBF737F9A0EB80
:10A3A0000900A84201D3681C00B995B9204603F002
:10A3B000AFFD00BF002084F8800000BFD4F8840007
:10A3C00040F48070C4F88400012084F881000320E8
:10A3D00009E7002FB7D1B8F1000FB4D14EE048E043
:10A3E0002068406900F0020002280FD177B1E06DCB
:10A3F0000078216881F82000E06D401CE065B4F829
:10A400006200401EA4F86200B4F8627020684069DF
:10A4100000F0010088B1B8F1000F0ED0206890F86C
:10A420003000616E0870606E401C6066B4F86A00AF
:10A43000401EA4F86A00B4F86A80FBF7E7F8A0EBC6
:10A440000900A84201D3681C00B995B9204603F061
:10A450005FFD00BF002084F8800000BFD4F88400B6
:10A4600040F48070C4F88400012084F88100032047
:10A47000B9E6002FB4D1B8F1000FB1D12B460022BC
:10A4800008212046CDF8009003F0BAFD28B1D4F899
:10A49000840040F02000C4F88400204603F038FD1A
:10A4A00000BF002084F8800000BF012084F88100F4
:10A4B000D4F8840008B1012095E6039893E670472C
:10A4C0007047704710B50346002200BF93F83C0068
:10A4D000012801D1022010BD012083F83C0000BFFB
:10A4E00022F0FF00CC6840EA040222F440708C683D
:10A4F00040EA040222F480604C6840EA040222F43C
:10A5000000600C6840EA040222F480500C6940EAC2
:10A51000040222F400504C6940EA040222F4804014
:10A520000C6B40EA040222F470200C8B40EA0442D7
:10A530001C4C1868A04203D01B4C1868A04204D1E0
:10A5400022F08050CC6940EA0402164C1868A04200
:10A5500003D0154C1868A0421BD122F470000C8D5A
:10A5600040EA045222F080700C6A40EA040222F0B1
:10A5700000704C6A40EA04020A4C1868A04203D0FA
:10A58000094C1868A04204D122F00050CC6A40EA7D
:10A5900004021868426400BF002083F83C0000BF3A
:10A5A00000BF98E7000001400004014030B50246BA
:10A5B0000B4600BF92F83C00012801D1022030BDBB
:10A5C000012082F83C0000BF022082F83D001068A4
:10A5D000416810688468254D1068A84203D0244D56
:10A5E0001068A84203D121F470015868014321F09A
:10A5F000700118680143106841601C4D1068A84242
:10A6000023D01068B0F1804F1FD01A4D1068A842B7
:10A610001BD0194D1068A84217D0184D1068A842D9
:10A6200013D0134D1068A8420FD0154D1068A842E2
:10A630000BD0144D1068A84207D0134D1068A842E3
:10A6400003D0124D1068A84205D124F08004986808
:10A65000044310688460012082F83D0000BF0020A0
:10A6600082F83C0000BF00BFA9E7000000000140E5
:10A67000000401400004004000080040000C0040BD
:10A68000001800400040014000E0004000E40040AD
:10A6900010B504460CB9012010BD94F83D0028B94E
:10A6A000002084F83C00204600F029F8022084F8BD
:10A6B0003D00211D206803F0CFFD012084F84800F3
:10A6C00000BF84F83E0001213F2001554020015584
:10A6D00041200155422001554320015500BF00BFD4
:10A6E000012084F8440045200155462001554720AB
:10A6F000015500BF012084F83D000020CCE77047E1
:10A70000014691F83D00012801D001207047022048
:10A7100081F83D000868C06840F001000B68D8600F
:10A72000204B0868984223D00868B0F1804F1FD0B2
:10A730001D4B086898421BD01C4B0868984217D0E4
:10A740001B4B0868984213D01A4B086898420FD0E8
:10A75000194B086898420BD0184B0868984207D0EC
:10A76000174B0868984203D0164B0868984210D1DE
:10A7700008688068144B00EA0302062A0FD0B2F57D
:10A78000803F0CD00868006840F001000B6818603A
:10A7900005E00868006840F001000B6818600020C0
:10A7A000B4E7000000000140000400400008004041
:10A7B000000C00400004014000180040004001402F
:10A7C00000E0004000E4004007000100704710B5C1
:10A7D000044620680069C0F34000D8B12068C06812
:10A7E000C0F34000B0B16FF00200216808610120A1
:10A7F00020772068806900F0030018B12046FFF739
:10A80000E5FF05E0204600F057F9204600F09CFAED
:10A810000020207720680069C0F38000D8B120684C
:10A82000C068C0F38000B0B16FF004002168086117
:10A83000022020772068806900F4407018B120461B
:10A84000FFF7C4FF05E0204600F036F9204600F08F
:10A850007BFA0020207720680069C0F3C000D8B1DF
:10A860002068C068C0F3C000B0B16FF00800216874
:10A870000861042020772068C06900F0030018B147
:10A880002046FFF7A3FF05E0204600F015F920461B
:10A8900000F05AFA0020207720680069C0F3001009
:10A8A000D8B12068C068C0F30010B0B16FF01000DC
:10A8B00021680861082020772068C06900F4407092
:10A8C00018B12046FFF782FF05E0204600F0F4F8BB
:10A8D000204600F039FA002020772068006900F057
:10A8E000010058B12068C06800F0010030B16FF07D
:10A8F000010021680861204600F0E6FA206800693E
:10A90000C0F3C01058B12068C068C0F3C01030B1A7
:10A910006FF08000216808612046FFF7D1FD2068B4
:10A920000069C0F3002058B12068C068C0F3C010AF
:10A9300030B16FF48070216808612046FFF7BFFDD9
:10A9400020680069C0F3801058B12068C068C0F367
:10A95000801030B16FF0400021680861204600F09F
:10A96000BFFA20680069C0F3401058B12068C06881
:10A97000C0F3401030B16FF020002168086120461C
:10A98000FFF79FFD10BD000010B586B004461421EE
:10A9900001A8F5F763FD4149206888421CD100BF3A
:10A9A0003F48006840F010003D49086008460068D4
:10A9B00000F01000009000BF00BF4FF4085001905D
:10A9C000022002900020039004900120059001A92C
:10A9D0003448FAF715FD5EE02068B0F1804F1BD1D6
:10A9E00000BF2F48006840F001002D49086008466C
:10A9F000006800F00100009000BF00BF052001903A
:10AA0000022002900020039004900120059001A9EB
:10AA10002548FAF7F5FC3EE02449206888421AD11F
:10AA200000BF1F48006840F002001D49086008464A
:10AA3000006800F00200009000BF00BF02200190FB
:10AA400002900020039004900220059001A918486C
:10AA5000FAF7D6FC1FE01749206888421BD100BFD7
:10AA60000F48006840F002000D4908600846006881
:10AA700000F00200009000BF00BF4FF400400190C2
:10AA8000022002900020039004900220059001A96A
:10AA90000748FAF7B5FC06B010BD00000000014001
:10AAA000E044025800100258000002580004004020
:10AAB000000402580018004070472DE9F041044698
:10AAC0000D461646002700BF94F83C00012802D12D
:10AAD0000220BDE8F081012084F83C0000BF0C2E6C
:10AAE00051D005DC4EB1042E1ED0082E7AD133E0B1
:10AAF000102E60D0142EF9D175E02946206803F09D
:10AB00002DFC2068806940F0080021688861206879
:10AB1000806920F0040021688861206880692969C3
:10AB200008432168886178E02946206803F06CFCBE
:10AB30002068806940F4006021688861206880692D
:10AB400020F480602168886120688069296940EA72
:10AB500001202168886160E02946206803F0AEFC8E
:10AB60002068C06940F008002168C8612068C06999
:10AB700020F004002168C8612068C0692969084381
:10AB80002168C86149E02946206803F0F1FC20688B
:10AB9000C06940F400602168C8612068C06920F481
:10ABA00080602168C8612068C069296940EA012085
:10ABB0002168C86131E02946206803F013FD206850
:10ABC000406D40F00800216848652068406D20F025
:10ABD0000400216848652068406D296908432168A0
:10ABE00048651AE017E02946206803F033FD206825
:10ABF000406D40F40060216848652068406D20F495
:10AC00008060216848652068406D296940EA01201C
:10AC10002168486501E0012700BF00BF00BF002098
:10AC200084F83C0000BF384653E710B504460CB921
:10AC3000012010BD94F83D0028B9002084F83C00A4
:10AC4000204600F029F8022084F83D00211D2068EC
:10AC500003F002FB012084F8480000BF84F83E00A6
:10AC600001213F200155402001554120015542203E
:10AC700001554320015500BF00BF012084F8440066
:10AC800045200155462001554720015500BF0120B0
:10AC900084F83D000020CCE708B5274A01689142BE
:10ACA0000DD100BF2549096841F00101234A116017
:10ACB0001146096801F00101009100BF3BE0016805
:10ACC000B1F1804F0FD100BF1C490839096841F02C
:10ACD00001011A4A083A11601146096801F00101A0
:10ACE000009100BF27E0164A016891420FD100BFD2
:10ACF00012490839096841F00201104A083A116006
:10AD00001146096801F00201009100BF13E00D4AED
:10AD1000016891420FD100BF08490839096841F024
:10AD20004001064A083A11601146096801F04001E5
:10AD3000009100BF00BF08BD00000140F044025870
:10AD400000040040001800407047000070B5044641
:10AD50000D4615B994F83E0015E0042D02D13F20B0
:10AD6000005D10E0082D02D14020005D0BE00C2DAD
:10AD700002D14120005D06E0102D02D14220005D8D
:10AD800001E04320005D012801D0012070BD1DB904
:10AD9000022084F83E001AE0042D03D102213F2056
:10ADA000015514E0082D03D10221402001550EE089
:10ADB0000C2D03D102214120015508E0102D03D1B3
:10ADC00002214220015502E00221432001550122C7
:10ADD0002946206803F0B0FA2F49206888420FD036
:10ADE0002E49206888420BD02D492068884207D020
:10ADF0002C492068884203D02B492068884201D121
:10AE0000012000E0002028B12068406C40F40040A0
:10AE10002168486420492068884223D02068B0F126
:10AE2000804F1FD02149206888421BD020492068CC
:10AE3000884217D01F492068884213D017492068DC
:10AE400088420FD01C49206888420BD014492068E2
:10AE5000884207D019492068884203D018492068E1
:10AE6000884210D120688068164900EA0106062E43
:10AE70000FD0B6F5803F0CD02068006840F001008C
:10AE80002168086005E02068006840F00100216842
:10AE9000086000207AE70000000001400004014043
:10AEA00000400140004401400048014000040040CF
:10AEB00000080040000C00400018004000E0004086
:10AEC00000E400400700010010B504460349206873
:10AED000884201D1FAF7A0FB10BD000000E000405D
:10AEE0007047014600BF91F88400012801D102207B
:10AEF0007047012081F8840000BF2420C1F8880039
:10AF0000086802680868006820F001000B68186093
:10AF100022F0005200204866086802602020C1F834
:10AF2000880000BF002081F8840000BF00BFDFE779
:10AF30007047704770B504460D4600BF94F8840012
:10AF4000012801D1022070BD012084F8840000BFD7
:10AF50002420C4F88800206806682068006820F073
:10AF60000100216808602068806820F06060284344
:10AF700021688860204603F0ADFB20680660202031
:10AF8000C4F8880000BF002084F8840000BF00BF20
:10AF9000D9E770B504460D4600BF94F88400012837
:10AFA00001D1022070BD012084F8840000BF24205C
:10AFB000C4F88800206806682068006820F0010056
:10AFC000216808602068806820F06040284321687C
:10AFD0008860204603F07EFB206806602020C4F8CD
:10AFE000880000BF002084F8840000BF00BFD9E7BC
:10AFF00070477047704700002DE9F047044620680D
:10B00000C569206806682068876840F60F0005EA71
:10B010000009B9F1000F0FD105F0200060B106F072
:10B02000200010B907F0805030B1606F10B1204699
:10B03000616F8847BDE8F087B9F1000F7ED0FE4808
:10B04000384018B9FD4830400028F7D005F001001D
:10B0500058B106F4807040B1012021680862D4F82C
:10B06000900040F00100C4F8900005F0020058B1D3
:10B0700007F0010040B1022021680862D4F8900076
:10B0800040F00400C4F8900005F0040058B107F047
:10B09000010040B1042021680862D4F8900040F01B
:10B0A0000200C4F8900005F0080070B106F020001E
:10B0B00010B9E148384040B1082021680862D4F84E
:10B0C000900040F00800C4F8900005F4006060B102
:10B0D00006F0806048B14FF4006021680862D4F83F
:10B0E000900040F02000C4F89000D4F890000028B0
:10B0F00052D005F0200050B106F0200010B907F042
:10B10000805020B1606F10B12046616F8847D4F83D
:10B1100090A02068806800F04000402802D00AF02B
:10B12000280070B3204603F0FFFB2068806800F021
:10B130004000402826D100BF00BF00E02DE021687C
:10B14000083151E8001F21F040002168083141E832
:10B150000002002AF1D100BFD4F8800068B1B848DD
:10B16000D4F880100865D4F88000F7F7DBFD98B1BB
:10B17000D4F88000016D88470EE02046FFF73AFFC3
:10B180000AE003E02046FFF735FF05E02046FFF721
:10B1900031FF0020C4F890004CE7E06E01287DD11B
:10B1A00005F01000002879D006F010000028FAD031
:10B1B0001020216808622068806800F04000402864
:10B1C0006DD1D4F8800000689E4988426BD0D4F8D5
:10B1D000800000689B491831884264D0D4F8800010
:10B1E00000689849303188425DD0D4F8800000680A
:10B1F00094494831884256D0D4F88000006891497B
:10B20000603188424FD0D4F8800000688D49783191
:10B21000884248D0D4F8800000688A49903188423A
:10B2200041D0D4F8800000688649A83188423AD0DD
:10B23000D4F8800000688449884234D0D4F8800073
:10B2400000688149183188422DD0D4F88000006808
:10B250007D493031884226D0D4F8800000687A4990
:10B26000483188421FD0D4F88000006876496031A8
:10B27000884218D0D4F88000006873497831884239
:10B2800011D0D4F8800000686F49903188420AD00C
:10B29000D4F8800000686C49A83102E0AEE069E0B3
:10B2A00001E0884204D1D4F880000068406803E0DF
:10B2B000D4F88000006840681FFA80F8B8F1000FE9
:10B2C00057D0B4F85C00404553DDA4F85E80D4F854
:10B2D0008000C069B0F5807F40D000BF00BF21680A
:10B2E00051E8001F21F48070226842E80001002923
:10B2F000F5D100BF00BF00BF2168083151E8001F31
:10B3000021F001002168083141E80002002AF3D150
:10B3100000BF00BF00BF2168083151E8001F21F0C5
:10B3200040002168083141E80002002AF3D100BF43
:10B330002020C4F88C000020E06600BF00BF216818
:10B3400051E8001F21F01000226842E800010029A6
:10B35000F5D100BFD4F88000F7F776FA0220206715
:10B36000B4F85C00B4F85E20801A81B22046FFF782
:10B37000DFFD5FE634F85C0F6188401A1FFA80F841
:10B3800060885C3CC8B3B8F1000F36D000BF00BF86
:10B39000216851E8001F21F49070226842E8000102
:10B3A0000029F5D100BF00BF00BF2168083151E876
:10B3B000001F214AD24301EA02002168083141E816
:10B3C0000002002AF1D100BF2020C4F88C00002028
:10B3D000E066606700BF00BF216851E8001F21F0F0
:10B3E0001000226842E800010029F5D100BF0220C8
:10B3F000206741462046FFF79BFD1BE605F48010C1
:10B4000050B107F4800038B14FF480102168086211
:10B410002046FFF7EEFD0DE605F08000B0B106F026
:10B42000800010B907F4000080B1A06F10B1204671
:10B43000A16F8847FEE50000010000102001000414
:10B440000FE90008100002401004024005F040001F
:10B4500030B106F0400018B1204603F09BFAE9E550
:10B4600005F4000030B106F0804018B12046FFF727
:10B47000BFFDDFE505F0807030B106F0004018B187
:10B480002046FFF756FDD5E500BFD3E510B50446CD
:10B490000CB9012010BDA06900B100E000BFD4F8D4
:10B4A000880028B9002084F88400204600F02AF89B
:10B4B0002420C4F888002068006820F0010021687A
:10B4C0000860204603F07CFD012800D1E2E7A06A75
:10B4D00010B1204603F02AF92068406820F490401B
:10B4E000216848602068806820F02A002168886010
:10B4F0002068006840F0010021680860204603F0E1
:10B5000091F9C7E710B5B6B00446142130A8F4F796
:10B51000A5FFB82102A8F4F7A1FFC049206888421E
:10B520003FD102210020CDE902101F9002A8FCF7B4
:10B53000F9FC08B1F5F7D9FE00BFB948006840F042
:10B540008040B74908600846006800F080400190DC
:10B5500000BF00BF00BFB2480838006840F01000CC
:10B56000AF49083908600846006800F010000190F3
:10B5700000BF00BF4FF4C070309002203190002017
:10B58000329033900720349030A9A648F9F738FF5D
:10B59000002205215220FAF7F1F85220FAF7DAF8E2
:10B5A00039E1A1492068884241D101210020CDE93B
:10B5B0000210209002A8FCF7B5FC08B1F5F795FE43
:10B5C00000BF97480830006840F0100094490831E7
:10B5D00008600846006800F01000019000BF00BF3E
:10B5E00000BF8F480838006840F001008C490839D6
:10B5F00008600846006800F00100019000BF00BF2D
:10B600004FF4C0603090022031900020329033908F
:10B610000720349030A98548F9F7F2FE0022052171
:10B620002520FAF7ABF82520FAF794F8F3E08049E3
:10B63000206888423ED102210020CDE902101F90EF
:10B6400002A8FCF76FFC08B1F5F74FFE00BF744885
:10B65000006840F40030724908600846006800F451
:10B660000030019000BF00BF00BF6D48083800687F
:10B6700040F008006A49083908600846006800F090
:10B680000800019000BF00BF702030900220319070
:10B690000020329033900720349030A96548F9F7A4
:10B6A000AFFE002205212620FAF768F82620FAF7D7
:10B6B00051F8B0E06049206888425AD10221002048
:10B6C000CDE902101F9002A8FCF72CFC08B1F5F799
:10B6D0000CFE00BF5248006840F4802050490860CA
:10B6E0000846006800F48020019000BF00BF00BF42
:10B6F0004B480838006840F00200494908390860A2
:10B700000846006800F00200019000BF00BF00BFC3
:10B710000846006840F0080008600846006800F02D
:10B720000800019000BF00BF4FF48040309002201D
:10B7300031900020329033900720349030A93F4858
:10B74000F9F75EFE4FF440703090022031900020F7
:10B75000329033900720349030A93648F9F750FEE4
:10B76000002205212720FAF709F82720F9F7F2FF30
:10B7700051E03349206888424DD101200021CDE9B4
:10B7800002010020209002A8FCF7CCFB08B1F5F7DD
:10B79000ACFD00BF22480830006840F0800020491E
:10B7A000083108600846006800F08000019000BF82
:10B7B00000BF00BF1A480838006840F01000184960
:10B7C000083908600846006800F01000019000BFCA
:10B7D00000BF04203090022031900020329033903E
:10B7E0000420349030A90F48F9F70AFE0820309061
:10B7F000022031900020329033900B20349030A9F9
:10B800000848F9F7FDFD002205219C20F9F7B6FF55
:10B810009C20F9F79FFF36B010BD00000078004073
:10B82000E84402580010025800100140000002587D
:10B8300000440040000C0258004800400004025838
:10B84000001C014070B504460D461646D4F88C0025
:10B85000202821D105B10EB9012070BD0020E0667D
:10B860000E492068884211D02068406800F400002A
:10B8700060B100BF00BF216851E8001F41F0806047
:10B88000226842E800010029F5D100BF324629466E
:10B89000204603F0A9FEE0E70220DEE7000C005896
:10B8A00010B504461A4884420ED1052219A11B483E
:10B8B000F4F7DFFD10B90120194908700522174976
:10B8C0001348FFF7BFFF22E0164884420ED105223D
:10B8D00010A11548F4F7CDFD10B9012013490870E7
:10B8E000052211490F48FFF7ADFF10E010488442D0
:10B8F0000DD1052207A10F48F4F7BBFD10B90120B7
:10B900000D49087005220B490948FFF79BFF10BD40
:10B91000002D0024746573740A00000020020024C6
:10B92000250200246C2C00242C0200243102002467
:10B93000BC2E002432020024370200242DE9F84FE7
:10B9400004460E4617469946D4F88800202854D15C
:10B9500006B117B90120BDE8F88F00205434E06328
:10B9600021206063F9F752FE824627806780543CAD
:10B97000A068B0F5805F04D1206910B90025B046F9
:10B9800002E035464FF0000820E0534600228021B7
:10B990002046CDF8009003F0D5FE20B12020C4F859
:10B9A00088000320D7E745B9B8F80000C0F30800C5
:10B9B0002168886208F1020803E02878216888621B
:10B9C0006D1CB4F85600401EA4F85600B4F856009A
:10B9D0000028DAD15346002240212046CDF80090BD
:10B9E00003F0B0FE20B12020C4F888000320B2E7A5
:10B9F0002020C4F888000020ADE70220ABE77047A4
:10BA000000BFFEE70A2007F015F80C214F48FFF7AA
:10BA10009DF902E0642007F00DF8F4F7CEFF00284E
:10BA2000F8D14B48F4F738FF00BF4A4A4A494B481F
:10BA3000F4F7D2FF484A49494548F4F741FF484BDB
:10BA40001A1F111F4248F5F7B3FE464890ED000A51
:10BA5000454880ED000A454890ED000A414880EDD8
:10BA6000000A3C4890ED000ADFED410A30EEC00AC2
:10BA70003E4880ED000A90ED000ADFED3E0A20EE20
:10BA8000200AD0ED000A374890ED001A70EE810AC6
:10BA9000354890ED001A70EE810A9FED371A01EEDD
:10BAA000200A3248D0ED000A2E4890ED001A70EEC0
:10BAB000C10AB2EE041A01EE200A304880ED000AF5
:10BAC00090ED000ADFED2E0AB4EEE00AF1EE10FA76
:10BAD00003DD9FED2B0A80ED000A284890ED000A57
:10BAE000B5EEC00AF1EE10FA03D29FED260A80ED02
:10BAF000000A224890ED000ABCEEC00A10EE100ABF
:10BB000080B212490968086415480838D0ED000A67
:10BB1000B0EE600A002008F077F811480838D0ED40
:10BB2000010AB0EE600A012008F06EF80C480838EF
:10BB3000D0ED020AB0EE600A022008F065F808F0C5
:10BB400091F8012006F076FF6FE70000D42B002467
:10BB5000048A00240C020024F8890024EC890024C3
:10BB60001C8A0024180200241C0200241402002451
:10BB7000000020420000C842000048421002002499
:10BB80000000FA430000000030B50B46002100BF62
:10BB900016E00A24B4EB107F05D9302404EB1074AE
:10BBA00003F8114005E0412404EB10740A3C03F84B
:10BBB0001140000100254C00641C1D554C1CE1B2D5
:10BBC0009142E6DB30BD0000F4F7FEFF40F2FF7269
:10BBD00000211648F5F774FE022215491348F6F7BE
:10BBE0007BFD00220A21104606F080FA00BFF5F71F
:10BBF00017F8012801D1F5F705F80D48008800EE87
:10BC0000100AB8EE400ADFED0B0A20EE200ADFED45
:10BC10000A0A80EE201AB2EE060A21EE000A074850
:10BC200080ED000A0A2006F005FFE0E780260024E8
:10BC3000080200243333534000FF7F4704020024EE
:10BC40002DE9F04104460D4616461F462A2000F015
:10BC5000DDFD04F1140188B200F0C8FD06F1140105
:10BC600088B200F0C3FD2B2000F0D0FD284600F084
:10BC7000BDFD384600F0BAFD2C2000F0C7FDBDE840
:10BC8000F0812DE9FF4F85B081468A460020039060
:10BC900083460798A0EB09050898A0EB0A06CDF8A3
:10BCA0000890CDF804A0002D01DD012705E00DB9B5
:10BCB000002702E04FF0FF376D42002E02DD4FF00B
:10BCC000010806E016B94FF0000802E04FF0FF3817
:10BCD0007642B54201DD2C4600E034460020049057
:10BCE0001EE0019A91B2029A90B2129A00F01FF8E7
:10BCF000039828440390B3440398A04205DD0398B9
:10BD0000001B0390029838440290A34504DDABEB7E
:10BD1000040B0198404401900498401C80B20490A8
:10BD2000611C04988842DCDB09B0BDE8F08F70B577
:10BD300004460D4616462B46224629462046FFF766
:10BD40007FFF304600F052FD70BD2DE9F0470646FA
:10BD50000F4614461D46DDF820A0681E83B2601E03
:10BD600082B239463046FFF76BFFB8460EE0B14667
:10BD700006E0504600F03AFD09F101001FFA80F993
:10BD8000A145F6DB08F101001FFA80F8A845EEDBBB
:10BD9000BDE8F08710B500224FF400616348F9F761
:10BDA0002FFC6420F8F780FB0122D1025F48F9F7ED
:10BDB00027FC6420F8F778FB012291025B48F9F731
:10BDC0001FFC6420F8F770FB112000F01FFD7820A5
:10BDD000F8F76AFB362000F019FD702000F00FFD27
:10BDE0003A2000F013FD052000F009FDB22000F01C
:10BDF0000DFD0C2000F003FD0C2000F000FD0020E4
:10BE000000F0FDFC332000F0FAFC332000F0F7FCDA
:10BE1000B72000F0FBFC352000F0F1FCBB2000F067
:10BE2000F5FC322000F0EBFCC22000F0EFFC01201A
:10BE300000F0E5FCC32000F0E9FC152000F0DFFC79
:10BE4000C42000F0E3FC202000F0D9FCC62000F064
:10BE5000DDFC0F2000F0D3FCD02000F0D7FCA420A4
:10BE600000F0CDFCA12000F0CAFCE02000F0CEFCE8
:10BE7000D02000F0C4FC082000F0C1FC0E2000F02F
:10BE8000BEFC092000F0BBFC092000F0B8FC052036
:10BE900000F0B5FC312000F0B2FC332000F0AFFC24
:10BEA000482000F0ACFC172000F0A9FC142000F0A2
:10BEB000A6FC152000F0A3FC312000F0A0FC3420EB
:10BEC00000F09DFCE12000F0A1FCD02000F097FCE8
:10BED000082000F094FC0E2000F091FC092000F0F6
:10BEE0008EFC092000F08BFC152000F088FC31202E
:10BEF00000F085FC332000F082FC482000F07FFC3D
:10BF0000172000F07CFC142000F079FC152000F0D4
:10BF100076FC312000F073FC342000F070FC21200E
:10BF200000F074FC292000F071FC10BD00040258E0
:10BF30002DE9FF5F80468A4617469B460F9D0020ED
:10BF40000290CDF80080284605EBD071C1F347047C
:10BF50002046E21704EB5272D2102146E31704EB9D
:10BF60005373DB10A4EBC3030BB1012300E00023E8
:10BF70001A446A4392B20192A7F12000C7B20AEBB9
:10BF80000500401E83B208EB0400401E82B25146F9
:10BF90004046FFF755FE002669E00C2D07D107EB60
:10BFA0004700354901EB8000805D03901BE0102DB8
:10BFB00005D1324800EB0710805D039013E0182D87
:10BFC00007D107EB47002E4901EB0010805D03907D
:10BFD00009E0202D05D12B4800EB8710805D0390F0
:10BFE00001E0BDE8FF9F4FF000093AE01098C8B9A2
:10BFF000012000FA09F00399084018B1584600F0F2
:10C00000F5FB02E00E9800F0F1FB0298401CC0B274
:10C010000290029890FBF4F104FB1100E8B90020B3
:10C02000029021E0012000FA09F00399084020B1B4
:10C030005A4651464046FFF77AFE08F101001FFAC2
:10C0400080F80098A8EB0000A04206D1DDF800803F
:10C050000AF101001FFA80FA06E009F1010000F080
:10C06000FF09B9F1080FC1DB00BF701C86B201984F
:10C07000864292DB00BFB4E7684B0108DC4F010841
:10C08000CC5501089C6701082DE9FE4F8046894682
:10C0900017469A46DDE90D460C9D36E00C2C09D179
:10C0A00053463A4649464046CDE90146009500F0E0
:10C0B00031F825E0102C09D153463A46494640460E
:10C0C000CDE90146009500F0C9F819E0182C09D116
:10C0D00053463A4649464046CDE90146009500F0B0
:10C0E00059F90DE0202C09D153463A4649464046BD
:10C0F000CDE90146009500F0F1F901E0BDE8FE8FC1
:10C10000BF1C08EB04001FFA80F838780028C5D15E
:10C1100000BFF3E72DE9FF5F0646894692469B463E
:10C120000F9C0020039000962046E21704EB527209
:10C13000D2102146E31704EB5373DB10A4EBC303C7
:10C140000BB1012300E000231A44624392B2019232
:10C1500004200290002579E005EB850000EBC50086
:10C160003D4911F810009AF8001088426BD105EB98
:10C17000850000EBC500384901EB400040789AF893
:10C18000011088425FD109EB0400401E83B23019D0
:10C19000401E82B249463046FFF752FD00274FE06D
:10C1A0004FF0000846E0109808BB05EB850000EB57
:10C1B000C500294901EB4000801CC05D012101FA46
:10C1C00008F1084018B1584600F010FB02E00E9844
:10C1D00000F00CFB0398401CC0B20390039890FB46
:10C1E000F4F104FB110008BB0020039025E005EBEF
:10C1F000850000EBC500184901EB4000801CC05DC4
:10C20000012101FA08F1084020B15A46494630465A
:10C21000FFF78DFD701C86B20098301AA04205D140
:10C22000009E09F101001FFA80F906E008F1010003
:10C2300000F0FF08B8F1080FB5DB00BF781CC7B2EB
:10C2400001988742ACDB00BF681C85B2029885422A
:10C2500082DBBDE8FF9F00005C7F01082DE9FF5FE6
:10C260000646894692469B460F9C00200390009606
:10C270002046E21704EB5272D2102146E31704EB7A
:10C280005373DB10A4EBC3030BB1012300E00023C5
:10C290001A44624392B2019204200290002571E098
:10C2A00005EB05103A4911F810009AF80010884281
:10C2B00065D105EB0510364901EB400040789AF84E
:10C2C000011088425BD109EB0400401E83B2301993
:10C2D000401E82B249463046FFF7B2FC00274BE0D1
:10C2E0004FF0000842E01098F8B905EB0510284916
:10C2F00001EB4000801CC05D012101FA08F10840FB
:10C3000018B1584600F072FA02E00E9800F06EFA8A
:10C310000398401CC0B20390039890FBF4F104FB17
:10C320001100F8B90020039023E005EB051018492F
:10C3300001EB4000801CC05D012101FA08F10840BA
:10C3400020B15A4649463046FFF7F1FC701C86B2D0
:10C350000098301AA04205D1009E09F101001FFA91
:10C3600080F906E008F1010000F0FF08B8F1080FBD
:10C37000B9DB00BF781CC7B201988742B0DB00BFB1
:10C38000681C85B2029885428ADBBDE8FF9F0000E9
:10C39000C47F01082DE9FF5F0646894692469B4609
:10C3A0000F9C0020039000962046E21704EB527287
:10C3B000D2102146E31704EB5373DB10A4EBC30345
:10C3C0000BB1012300E000231A44624392B20192B0
:10C3D00004200290002579E005EB850000EB451074
:10C3E0003D4911F810009AF8001088426BD105EB16
:10C3F000850000EB4510384901EB400040789AF881
:10C40000011088425FD109EB0400401E83B230194D
:10C41000401E82B249463046FFF712FC00274FE02B
:10C420004FF0000846E0109808BB05EB850000EBD4
:10C430004510294901EB4000801CC05D012101FA33
:10C4400008F1084018B1584600F0D0F902E00E9803
:10C4500000F0CCF90398401CC0B20390039890FB05
:10C46000F4F104FB110008BB0020039025E005EB6C
:10C47000850000EB4510184901EB4000801CC05DB1
:10C48000012101FA08F1084020B15A4649463046D8
:10C49000FFF74DFC701C86B20098301AA04205D1FF
:10C4A000009E09F101001FFA80F906E008F1010081
:10C4B00000F0FF08B8F1080FB5DB00BF781CC7B269
:10C4C00001988742ACDB00BF681C85B202988542A8
:10C4D00082DBBDE8FF9F00004C8001082DE9FF5F73
:10C4E0000646894692469B460F9C00200390009684
:10C4F0002046E21704EB5272D2102146E31704EBF8
:10C500005373DB10A4EBC3030BB1012300E0002342
:10C510001A44624392B2019204200290002571E015
:10C5200005EB85103A4911F810009AF8001088427E
:10C5300065D105EB8510364901EB400040789AF84B
:10C54000011088425BD109EB0400401E83B2301910
:10C55000401E82B249463046FFF772FB00274BE08F
:10C560004FF0000842E01098F8B905EB8510284913
:10C5700001EB4000801CC05D012101FA08F1084078
:10C5800018B1584600F032F902E00E9800F02EF98A
:10C590000398401CC0B20390039890FBF4F104FB95
:10C5A0001100F8B90020039023E005EB851018492D
:10C5B00001EB4000801CC05D012101FA08F1084038
:10C5C00020B15A4649463046FFF7B1FB701C86B28F
:10C5D0000098301AA04205D1009E09F101001FFA0F
:10C5E00080F906E008F1010000F0FF08B8F1080F3B
:10C5F000B9DB00BF781CC7B201988742B0DB00BF2F
:10C60000681C85B2029885428ADBBDE8FF9F000066
:10C61000748101082DE9FF4F2DED020B2DED028BEA
:10C6200085B00746B0EE408A14469846DDE9179576
:10C63000284605EBD071C1F3470A41460A2006F0AF
:10C64000EEF900EE100AB8EE400A20EE080ABDEE40
:10C65000C00A10EE100A0FFA80FBB5EEC08AF1EEA8
:10C6600010FA13D20020CDE9009502902D22384611
:10C67000169B0A99FFF75CFCCBF100000FFA80FBD8
:10C6800007EB0A0087B2601CC4B20FE00020CDE9BE
:10C690000095029020223846169B0A99FFF748FC25
:10C6A00000BF07EB0A0087B2601CC4B2CDF800904F
:10C6B0000A982844401C83B204FB0A704044401C82
:10C6C00082B238460A99FFF740FB002632E0A4EB1D
:10C6D0000800B04211D10020A4EB080101FB0A714F
:10C6E000CDE90095029088B22E22169B0A99FFF799
:10C6F0001FFC701CC6B2601CC4B2A01B401EC1B29D
:10C700000A2006F08CF9BBFBF0F00A21B0FBF1F235
:10C7100001FB120030300490002006FB0A71CDE9C5
:10C720000095029088B2169B049A0A99FFF700FCC4
:10C73000701CC6B2A642CADB05B0BDEC028B06B0C7
:10C74000BDE8F08F2DE9F05F0746884615461E4686
:10C75000DDF82890002408EB0600401E83B278190B
:10C76000401E82B241463846FFF76AFAA24618E0F8
:10C770004FF0000B0FE019F8140000F040F8012111
:10C7800001EB440119F8010000F039F8641C0BF1C9
:10C7900001001FFA80FBB345EDDB0AF101001FFA2F
:10C7A00080FAAA45E4DBBDE8F09F2DE9FE4F06467E
:10C7B0000F4614469846DDE90D5ADDF8309010E03A
:10C7C000CDE9015ACDF800902278434639463046EB
:10C7D000FFF7AEFB284605EBD07106EB61018EB288
:10C7E000641C20780028EBD1BDE8FE8F10B504460C
:10C7F000201200F01FF8E0B200F01CF810BD10B5D8
:10C800000446204600F016F810BD000010B504469E
:10C8100000224FF480610648F8F7F2FE204600F04F
:10C8200009F8012291020248F8F7EAFE10BD000063
:10C83000000C025801B500224FF400410748F8F7F8
:10C84000DFFE4FF6FF73012269460548FDF74CFBFA
:10C850000122D1030148F8F7D3FE08BD00100258A9
:10C86000A42900248168024A1140491C8160704754
:10C87000C0FFFF7F0146886800F01F007047024636
:10C8800002F1600000EB8103186800F0F840704787
:10C8900001468868C0F3C000704701468868C0F34D
:10C8A000400070470146886800F00100704701466B
:10C8B000886800F00100704701468868C0F3007086
:10C8C000704701468868C0F3800070470146886859
:10C8D000C0F3800070470146C86800F4406008B9A2
:10C8E000012070470020FCE78168024A1140091DC1
:10C8F00081607047C0FFFF7F70B500F11404C1F381
:10C90000406504EB85031C68C1F304560725B54058
:10C91000AC43C1F3045502FA05F52C431C6070BD0D
:10C92000826822F0E0720A438260704710B50346C5
:10C9300003F1600404EB8100074CA34205D10468B5
:10C9400024F000441443046004E0046824F000442C
:10C950001443046010BD0000006002580EB5FFF7DC
:10C9600019FA0020F0234FF48C7201460090FFF773
:10C97000ECF900BF00201821CDE900014FF6074374
:10C9800021A2482102907820FFF70FFF00202021EC
:10C99000CDE900014FF6FF731DA2642102905420DF
:10C9A000FFF772FB4FF6FF704FF48C730A220021E1
:10C9B00000901046FFF765F94FF6FF704FF48C7347
:10C9C0004FF48772002100901046FFF75AF920209B
:10C9D00000214FF6FF720223CDE9002102900322CD
:10C9E0000E4890ED000AAA213220FFF713FE0C48F2
:10C9F00050231A4696210090B420FFF7A3FE0A2088
:10CA000006F018F8B6E70000646D426F740000008D
:10CA1000B4EFC3EEBFC6BCBC00000000040200249B
:10CA20007C83010800B58DB000200A900B900C901B
:10CA3000242101A8F3F712FD2748284908604FF484
:10CA40001010486000212548816001210161042106
:10CA5000416100210176012141760221C16100215D
:10CA600080F820108162C162032101630021C1634B
:10CA7000016480F84410F5F7F9FB08B1F4F735FCD0
:10CA800000200A900AA91548F4F776FF08B1F4F7D8
:10CA90002CFC13480190062002900420039040F2E1
:10CAA000FF70049004200590002006908DF825006A
:10CAB00001A90A48F5F712F808B1F4F716FC09487D
:10CAC00001900C20029001A90448F5F707F808B17D
:10CAD000F4F70BFC0DB000BD0020024080260024BE
:10CAE0001000C0100000B84F08B500BF0A48006829
:10CAF00040F00100084908600846006800F00100A5
:10CB0000009000BF00BF002205210B20F8F736FE81
:10CB10000B20F8F71FFE08BDD844025810B51C487A
:10CB20001C4908600020886000211A48C160017417
:10CB30004174817418214161012181610221C16127
:10CB40000162012141628162C1620163002141638E
:10CB5000012181630021C16320210164042141641A
:10CB6000002181640421C164002101650421416523
:10CB700000218165C16520210166002141660421F3
:10CB80008166F8F7B5F808B1F4F7AFFB10BD000007
:10CB900000A000406827002410B51C481C4908600C
:10CBA0000020886000211A48C160017441748174BA
:10CBB00018214161012181610221C16101620121CC
:10CBC00041628162C162016340F206414163012119
:10CBD00081630021C163202101640421416400219B
:10CBE00081640421C16400210165042141650021A3
:10CBF0008165C165202101660021416604218166AD
:10CC0000F8F776F808B1F4F770FB10BD00A4004007
:10CC10000828002410B51C481C49086000208860C2
:10CC200000211A48C1600174417481741821416166
:10CC3000012181610221C1610162012141628162A0
:10CC4000C162016340F61201416301218163002149
:10CC5000C163202101640421416400218164042115
:10CC6000C164002101650421416500218165C16520
:10CC7000202101660021416604218166F8F738F819
:10CC800008B1F4F732FB10BD00D40040A8280024FE
:10CC900000B5A3B01C221E491CA8F3F7C6FB002157
:10CCA0001CA805F0D8FE1B4908601C2218491C313D
:10CCB00015A8F3F7BAFB002115A805F0CCFE16491C
:10CCC00008601C22124938310EA8F3F7AEFB002190
:10CCD0000EA805F0C0FE114908601C220C49543111
:10CCE00007A8F3F7A2FB002107A805F0B4FE0C4942
:10CCF00008601C22064970316846F3F796FB002154
:10CD0000684605F0A8FE0749086023B000BD000092
:10CD1000404A0108080000240C00002410000024F0
:10CD2000140000241800002400B587B0142102A8C4
:10CD3000F3F794FB00BF6C48006840F010006A49AC
:10CD400008600846006800F01000019000BF00BFB6
:10CD500000BF0846006840F004000860084600680C
:10CD600000F00400019000BF00BF00BF084600684B
:10CD700040F0800008600846006800F080000190E4
:10CD800000BF00BF00BF0846006840F00100086017
:10CD90000846006800F00100019000BF00BF00BF1E
:10CDA0000846006840F0020008600846006800F08D
:10CDB0000200019000BF00BF00BF0846006840F0BD
:10CDC000080008600846006800F00800019000BFF5
:10CDD00000BF01224EF229014448F8F711FC00225D
:10CDE0004FF400414248F8F70BFC00224FF4406139
:10CDF0004048F8F705FC012211033E48F8F700FC13
:10CE000000224FF480613C48F8F7FAFB4FF4604091
:10CE100002900120039000200490059002A933485D
:10CE2000F8F7EEFA292002900120039000200490E8
:10CE30000320059002A92D48F8F7E2FA4FF4A0501C
:10CE400002904FF4881003900020049002A9284813
:10CE5000F8F7D6FA4FF4004002900120039000202A
:10CE60000490059002A92248F8F7CAFA4FF44060EE
:10CE700002900120039000200490059002A91D4813
:10CE8000F8F7BEFA4FF4805002900120039004900E
:10CE90000320059002A91748F8F7B2FA4FF4806012
:10CEA00002900120039000200490059002A91248EE
:10CEB000F8F7A6FA4FF48070029002200390002049
:10CEC00004900590069002A90C48F8F799FA4FF4DF
:10CED0000040029000200390049002A90748F8F750
:10CEE0008FFA07B000BD0000E04402580008025865
:10CEF0000010025800040258000C025800000258AA
:10CF000030B587B0182101A8F3F7A8FA224D002404
:10CF100003E0002005F8010B641C5C2CF9D31F48CA
:10CF20001D4908600846F8F7F7FF1D481A490860D0
:10CF300008204860002118488160C1601721016104
:10CF400001214161002181610121C1610021016252
:10CF5000032141624FF0804181620021C16201637F
:10CF60000821416300218163C163F8F7EFFF08B135
:10CF7000F4F7BBF90120019003904FF001100490E9
:10CF800041F2883201A90448F8F74AFC08B1F4F7E5
:10CF9000ACF907B030BD0000482900240050005211
:10CFA00000A0005210B51648164908604FF48000E2
:10CFB00048604111134881600721C1604FF0007142
:10CFC0000161002141614FF0806181618900C1618F
:10CFD0000021016241628162C1624FF08041416380
:10CFE00000218163C163016441648164C16401659E
:10CFF00041658165FCF778FD08B1F4F776F910BD5D
:10D0000000300140A429002410B5164816490860D4
:10D010004FF4800048600021134881600721C160FF
:10D020004FF000710161491041618900816109017E
:10D03000C1610021016241628162C1624FF08041A1
:10D04000416300218163C163016441648164C164FF
:10D05000016541658165FCF747FD08B1F4F745F9C5
:10D0600010BD0000003800402C2A002410B51648DE
:10D07000164908604FF480004860411113488160F0
:10D080000721C160002101614FF080714161890079
:10D0900081618900C1610021016241628162C162D6
:10D0A0004FF08041416300218163C16301644164A9
:10D0B0008164C164016541658165FCF715FD08B1B6
:10D0C000F4F713F910BD000000140058B42A00242E
:10D0D00000B58BB00020089009900A901C2101A88F
:10D0E000F3F7BCF917481849086017204860002179
:10D0F0001548816040F2CF71C160002101618161FA
:10D10000FDF793FD08B1F4F7F0F8002008900A90BD
:10D1100008A90D48FDF74AFA08B1F4F7E6F86020CF
:10D1200001900020029003900590042201A9064876
:10D13000FDF7C3FC08B1F4F7D8F80348FDF724FC69
:10D140000BB000BD00180040202C002400B597B0A3
:10D1500000201490159016901C210DA8F3F77EF96D
:10D1600034216846F3F77AF92B482C4908601820D7
:10D17000486000212948816042F21071C16000219D
:10D18000016141618161FDF750FD08B1F4F7ADF82F
:10D19000002014901590169014A92048FDF706FA67
:10D1A00008B1F4F7A2F860200D9041F288300E909B
:10D1B00000200F90109011901290139000220DA952
:10D1C0001648FDF77AFC08B1F4F78FF808220DA98C
:10D1D0001248FDF772FC08B1F4F787F800200090C0
:10D1E00001900290039004904FF4005005900020AD
:10D1F000069008904FF00070099000200A900C9063
:10D2000069460648FDF75EF908B1F4F76EF8034881
:10D21000FDF7BAFB17B000BD000001403C2B002415
:10D2200000B58BB00020089009900A901C2101A83D
:10D23000F3F714F94FF080401C490860182048604B
:10D2400000211A48816042F21071C1600021016121
:10D250008161FDF7EAFC08B1F4F747F80020089077
:10D260000A9008A91148FDF7A1F908B1F4F73DF8B3
:10D270006020019041F288300290002003900590D8
:10D28000002201A90948FDF718FC08B1F4F72DF8B0
:10D29000082201A90548FDF710FC08B1F4F725F8AC
:10D2A0000248FDF771FB0BB000BD0000882B002485
:10D2B00000B58BB00020089009900A901C2101A8AD
:10D2C000F3F7CCF818481949086017204860002186
:10D2D0001648816042F20F71C16000210161802116
:10D2E0008161FDF7A2FC08B1F3F7FFFF0020089071
:10D2F0000A9008A90D48FDF759F908B1F3F7F5FFB1
:10D300006020019000200290039005900C2201A95A
:10D310000648FDF7D2FB08B1F3F7E7FF0348FDF736
:10D3200033FB0BB000BD000000040040D42B0024F0
:10D3300010B51848184908604FF461204860002172
:10D3400015488160C16001610C214161002181614A
:10D35000C1610162416200200F4988620846FEF700
:10D3600095F808B1F3F7C1FF00210B48FDF711FE56
:10D3700008B1F3F7BAFF00210748FDF7DBFD08B15C
:10D38000F3F7B3FF0448FDF7ACFD08B1F3F7ADFFC9
:10D3900010BD0000007800406C2C002410B5184827
:10D3A000184908604FF461204860002115488160E9
:10D3B000C16001610C21416100218161C161016293
:10D3C000416200200F4988620846FEF75FF808B105
:10D3D000F3F78BFF00210B48FDF7DBFD08B1F3F7F6
:10D3E00084FF00210748FDF7A5FD08B1F3F77DFF95
:10D3F0000448FDF776FD08B1F3F777FF10BD000094
:10D40000001C0140BC2E002410B5184818490860C3
:10D410004FF461204860002115488160C1600161BE
:10D420000C21416100218161C161016241620020E2
:10D430000F4988620846FEF729F808B1F3F755FF4F
:10D4400000210B48FDF7A5FD08B1F3F74EFF0021C1
:10D450000748FDF76FFD08B1F3F747FF0448FDF7F4
:10D4600040FD08B1F3F741FF10BD0000001001407E
:10D47000002D002410B51948194908604FF46120A7
:10D480004860002116488160C16001610C21416142
:10D4900000218161C16101624162002010498862FE
:10D4A00000231A4619460E48FCF7D2FA08B1F3F7E2
:10D4B0001CFF00210A48FDF76CFD08B1F3F715FFCA
:10D4C00000210748FDF736FD08B1F3F70EFF0448C9
:10D4D000FDF707FD08B1F3F708FF10BD0044004059
:10D4E000942D002410B51948194908604FF46120A3
:10D4F0004860002116488160C16001610C214161D2
:10D5000000218161C161016241620020104988628D
:10D5100000231A4619460E48FCF79AFA08B1F3F7A9
:10D52000E4FE00210A48FDF734FD08B1F3F7DDFE03
:10D5300000210748FDF7FEFC08B1F3F7D6FE0448CA
:10D54000FDF7CFFC08B1F3F7D0FE10BD0048004056
:10D55000282E002410B501220E490F4802F0ECFFDE
:10D5600008B1F3F7C2FE0D490B4803F023FB08B1E5
:10D57000F3F7BBFE0A49084802F0D6FB08B1F3F7FF
:10D58000B4FE054803F018FC08B1F3F7AEFEF9F756
:10D590008FFD10BD200000249C2F002434010024A6
:10D5A0008000002400B52DED068B0246B0EE403B16
:10D5B000B0EE414AF0EE615AF0EE424AB0EE625AE5
:10D5C000F5EEC05AF1EE10FA09D1F5EEC04AF1EECF
:10D5D00010FA04D1B5EEC05AF1EE10FA7ED065EE25
:10D5E000A50A44EEA40A45EE050AB0EE600A05F06D
:10D5F000C1F9F0EE402A25EEA20AF0EE405A24EEE0
:10D60000A20AF0EE404A25EE220AB0EE405A92ED10
:10D61000010AD2ED030A20EE200AD2ED000A92EDB3
:10D62000021AF0EE408A40EEC18A92ED000AD2ED75
:10D63000010A20EE200AD2ED020A92ED031AF0EE62
:10D64000409A40EE819AD2ED000A92ED001AB6EEB1
:10D65000000A10EE810AD2ED030A92ED031AB0EE31
:10D66000409A00EE819A24EE890AF0EE407A45EE67
:10D67000697A25EE280AB0EE40AA05EEC9AA25EE81
:10D68000A90AB0EE408A04EEE88A7C4890ED000AD0
:10D69000B5EEC00AF1EE10FA40DD90ED000A60EE42
:10D6A000270A774890ED000A9FED761A00EE810A6E
:10D6B00080ED000A714890ED000A60EE0A0A724897
:10D6C00090ED000A9FED6F1A00EE810A80ED000ACE
:10D6D0006A4890ED000A60EE080A00E046E06B48F8
:10D6E00090ED000A9FED671A00EE810A80ED000AB6
:10D6F000634890ED000A33EE000AB0EE403A62480B
:10D7000090ED000A33EE800AF0EE403A5F4890ED6B
:10D71000000A34EE000AB0EE404A0EE09FED5C0ACB
:10D72000574880ED000A9FED5A0A574880ED000ADD
:10D730009FED570A554880ED000A5648D0ED000A83
:10D74000B0EE430A00EEA70AB0EE403AD0ED000A70
:10D75000B0EE630A00EE8A0AF0EE403AD0ED000A1D
:10D76000B0EE440A00EE880AB0EE404A9FED4A0A45
:10D7700023EE000AB0EE403A9FED470A23EE800AFE
:10D78000F0EE403A9FED440A24EE000AB0EE404A23
:10D7900092ED006AD2ED016A92ED027AB1EE660A6C
:10D7A00020EE030A07EE630AD2ED030A00EEC40A74
:10D7B000D2ED000A30EE200A82ED000A26EE030ABE
:10D7C00007EE040AD2ED030A00EEE30AD2ED010AE5
:10D7D00030EE200A82ED010A26EE230A06EEC40A84
:10D7E000D2ED030A00EE830AD2ED020A30EE200ADF
:10D7F00082ED020A26EE040A06EEA30A07EE430AA9
:10D80000D2ED030A30EE200A82ED030AD2ED000ABF
:10D8100060EEA00A92ED011AD2ED011A41EE210A42
:10D8200092ED021AD2ED021A41EE210A92ED031A8C
:10D83000D2ED031A41EE210AB0EE600A05F09AF823
:10D84000F0EE402A92ED000A20EE220A82ED000A54
:10D8500092ED010A20EE220A82ED010A92ED020AFF
:10D8600020EE220A82ED020A92ED030A20EE220A3D
:10D8700082ED030ABDEC068B00BD000044020024CB
:10D88000480200246F12833A4C0200245002002404
:10D8900000000000400200246F12033A00BFFEE7C0
:10D8A00000BFFEE7F0B505460020002415B1022DAB
:10D8B00000D809B9012064E000260E604E608E6039
:10D8C000CE600E61022D08D12E4E366806F001069C
:10D8D0000EB92D4C01E04FF4007400234FE0294EA7
:10D8E000361D56F8232002F001063EB102F0020672
:10D8F00004F00207BE4201D15E1C0E6002F0100669
:10D900003EB102F0200604F02007BE4201D15E1CA9
:10D910004E6002F480763EB102F4007604F40077A3
:10D92000BE4201D15E1C8E6002F480368EB102F4DC
:10D93000802604F48027BE420BD102F4003626B9BB
:10D940005E1C46F48036CE6003E05E1C46F08076B6
:10D95000CE6002F080768EB102F0806604F08067BF
:10D96000BE420BD102F0007626B95E1C46F480362A
:10D970000E6103E05E1C46F080760E615B1C022B9C
:10D98000ADD3F0BD00B40052220204042DE9F041F1
:10D9900004460E4617469846069D12E0681C80B164
:10D9A000F7F734FEA0EB0800A84200D84DB94FF4B9
:10D9B00000702065606D40F0010060650120BDE8E9
:10D9C000F0812068006A304008B1012000E00020AA
:10D9D000B842E3D10020F2E710B50248F8F724FE80
:10D9E00010BD0000784400242DE9F04704460D46A0
:10D9F00026683746D6F8408007F5306000EB4510C2
:10DA0000D0F80890104880450BD909F40040B0F5D3
:10DA1000004F06D14FF4004107F5306000EB451090
:10DA200081602046F9F7CBFA0748804508D9E068BD
:10DA3000012805D104F2C4420121206803F06AFEE6
:10DA40000020BDE8F08700000A30544F2DE9F04770
:10DA500005460C46D5F800904E46D9F840A006F58C
:10DA6000306000EB4410D0F80880E868012855D1F8
:10DA700008F0080008280FD1434882450BD908F464
:10DA80000040B0F5004F7BD14FF4004106F5306007
:10DA900000EB4410816073E008F02000202806D1DC
:10DAA000202106F5306000EB4410816068E008F04A
:10DAB0002800002864D1344882450CD908F400407D
:10DAC000B0F5004F07D14FF4004106F5306000EB90
:10DAD0004410816054E004EBC40105F51F7000EBB5
:10DAE000810706F5306000EB4410396A0069C0F325
:10DAF0001200081A786164B9386930B905F2C44275
:10DB00000121286803F006FE03E07969F8680844FB
:10DB1000F860E1B22846F8F7FFFB31E01B48824588
:10DB20001BD108F40040B0F5004F07D14FF400417D
:10DB300006F5306000EB4410816021E008F0200021
:10DB4000202805D1202106F5306000EB44108160CB
:10DB5000E1B22846F8F7E0FB12E06CB904EBC4012F
:10DB600005F51F7000EB8100006928B905F2C44279
:10DB70000021286803F0CEFDE1B22846F8F7CCFB7F
:10DB80000020BDE8F08700000A30544F0A31544F9E
:10DB90002DE9F84F07460E46D7F80090C84606EB29
:10DBA000C60107F13C0000EB8104D4E9041088426F
:10DBB00002D90120BDE8F88FD4E90401451AA06814
:10DBC000A84200D2A568E81C4FEA900A17E0D4E901
:10DBD0000401451AA068A84200D2A568E81C4FEAD3
:10DBE000900A387BABB2F2B200904846E16804F08C
:10DBF00059FAE0682844E06060692844606108F5EB
:10DC0000106000EB4610806980B2504506D3D4E91D
:10DC10000410884202D220690028D8D1D4E9040136
:10DC200088420ED806F00F01012000FA01FB40F6F1
:10DC3000340050F8080020EA0B0040F6340141F8A7
:10DC400008000020B6E700002DE9F04104460E462A
:10DC500000275548006800F00300032802D1012086
:10DC6000BDE8F08150482838006820F080604E49B7
:10DC700028390860F7F7CAFC054606E0F7F7C6FC46
:10DC8000401B022801D90320EAE7474828380068EA
:10DC9000C0F3C0600028F1D100BF4348006820F401
:10DCA0007C30216840EA01303F490860A088401E6E
:10DCB000C0F30800A168491E4FF47E4202EA4121E8
:10DCC0000843A189491ED20102EA01410843217C8F
:10DCD000491E120202EA016108433349103108600B
:10DCE00000BF3148001D006820F0C0006169084392
:10DCF0002D49091D08600846006820F02000A16930
:10DD000008432949091D08600846006820F01000F2
:10DD100008602548143000684FF6F8718843E169BF
:10DD200040EAC1002049143108601F48001D006806
:10DD300040F010001C49091D08602EB90846006813
:10DD400040F40020086012E0012E08D11648001DA2
:10DD5000006840F480101449091D086007E012486B
:10DD6000001D006840F400100F49091D08600E48AE
:10DD70002838006840F080600B4928390860F7F7C0
:10DD800045FC054606E0F7F741FC401B022801D997
:10DD9000032065E7044828380068C0F3C060002805
:10DDA000F1D038465CE70000284402582DE9F041E4
:10DDB00004460E4600275548006800F0030003287B
:10DDC00002D10120BDE8F08150482838006820F0D9
:10DDD00080504E4928390860F7F718FC054606E0E0
:10DDE000F7F714FC401B022801D90320EAE7474853
:10DDF00028380068C0F340700028F1D100BF4348C4
:10DE0000006820F07C70218840EA01503F4908609A
:10DE1000A088401EC0F30800A168491E4FF47E424E
:10DE200002EA41210843A189491ED20102EA0141C7
:10DE30000843217C491E120202EA0161084333496A
:10DE40001831086000BF3148001D006820F44060B0
:10DE5000616908432D49091D08600846006820F4DF
:10DE60000070A16908432949091D08600846006837
:10DE700020F48070086025481C3000684FF6F87167
:10DE80008843E16940EAC10020491C3108601F480D
:10DE9000001D006840F480701C49091D08602EB9FF
:10DEA0000846006840F48000086012E0012E08D1A6
:10DEB0001648001D006840F400001449091D086060
:10DEC00007E01248001D006840F080700F49091DEE
:10DED00008600E482838006840F080500B49283907
:10DEE0000860F7F793FB054606E0F7F78FFB401B4A
:10DEF000022801D9032065E7044828380068C0F3E8
:10DF000040700028F1D038465CE7000028440258F1
:10DF1000026851690268926942F0080203689A61D6
:10DF20000268926942F0100203689A6102681268FE
:10DF300022F0010203681A600268126940F26F332E
:10DF40009A4303681A610268926822F440420368A7
:10DF50009A6090F88120042A0ED001F020025AB174
:10DF6000D0F8842042F08002C0F8842002689269D0
:10DF700042F0200203689A6190F88120032A0ED0B3
:10DF800001F040025AB1D0F8842042F00402C0F8F7
:10DF900084200268926942F0400203689A6101F4A9
:10DFA00000725AB1D0F8842042F00102C0F88420F7
:10DFB0000268926942F4007203689A6101F4807207
:10DFC0005AB1D0F8842042F00802C0F884200268D8
:10DFD000926942F4807203689A610022A0F862207C
:10DFE000A0F86A20704710B501460124C86B04EB05
:10DFF0005013C868421CD01DC20802FB03F010BDBC
:10E000002DE9F04106460D4617461C46DDF81880FE
:10E010000BE0F7F7FBFAA0EB0800A04201D3601C6D
:10E0200000B914B90320BDE8F08130684069284088
:10E03000A84201D1012000E00020B842E9D0002030
:10E04000F1E730B501460A461378521C147843EACA
:10E05000042030BDFFF77EFA00BF012004F0EAFC87
:10E06000FBE7000010B500BF502080F31188BFF31C
:10E070004F8FBFF36F8F00BF06F08EFA18B14FF0CD
:10E0800080500449086000BF002080F3118800BF61
:10E0900010BD000004ED00E000B59DB04C210AA8C1
:10E0A000F2F7DCF9202102A8F2F7D8F90220F8F7FC
:10E0B000CFFF00BF002001902A48006820F44040B4
:10E0C000284908600846006800F44040019000BFFD
:10E0D00000BF00BF2348006800F40050B0F5005FA7
:10E0E000F8D123200A904FF480300B9001200D903E
:10E0F00040200E90012010900220139002211491D4
:10E1000015912821169101211791042118910221BE
:10E1100019910C211A9100211B911C910AA8FBF75F
:10E12000E9F808B1F3F7E1F83F20029003200390EB
:10E1300000200490082005904020069007900001E0
:10E14000089040200990032102A8FAF74FFD08B17A
:10E15000F3F7CBF84FF4802200210846FBF76CF868
:10E160001DB000BD184802582F48006840F47000E8
:10E170002D4908602D48006800F00F00072806D2DE
:10E180002A48006820F00F00C01D28490860284870
:10E19000006840F001002649086000202449103141
:10E1A00008602348006823490840214908601F4847
:10E1B000006800F00F00072806D91C48006820F00E
:10E1C0000F00C01D19490860002019491831086066
:10E1D000091D0860091D08601748154928310860A5
:10E1E0001648091D08601648091D08600020091D11
:10E1F00008601348091D08600020091D08601048C8
:10E20000091D08600020091D08600948006820F405
:10E21000802007490860002005496031086043F20A
:10E22000D20008490860704788ED00E000200052E5
:10E23000004402587FEDF6EA000202020000FF01EE
:10E24000800201010040005210B50248FCF7BFFAFD
:10E2500010BD0000502F002410B502682C4B9842CE
:10E260000ED0B0F1804F0BD02A4B984208D02A4BE9
:10E27000984205D0294B984202D0294B984203D1AD
:10E2800022F070024B681A43214B98421DD0B0F126
:10E29000804F1AD01F4B984217D01F4B984214D072
:10E2A0001E4B984211D01E4B98420ED01D4B9842E7
:10E2B0000BD01D4B984208D01C4B984205D01C4BEC
:10E2C000984202D01B4B984203D122F44072CB6893
:10E2D0001A4322F080034C6943EA040202608B680F
:10E2E000C3620B6883620A4B98420BD00C4B984276
:10E2F00008D00C4B984205D00B4B984202D00B4BE8
:10E30000984201D10B6903630123436110BD0000F2
:10E31000000001400004004000080040000C0040E4
:10E320000004014000400140004401400048014019
:10E3300000E0004000E4004030B501F01F0501247A
:10E3400004FA05F3046A9C430462046A01F01F05A1
:10E3500002FA05F52C43046230BD000030B5056AB1
:10E3600025F001050562026A43688469204D2C404E
:10E3700024F003040D682C4322F002028D682A4326
:10E380001C4DA84200D10FE01B4DA84200D10BE06C
:10E390001A4DA84200D107E0194DA84200D103E070
:10E3A000184DA84206D100BF22F00802CD682A43CA
:10E3B00022F004020F4DA8420BD00F4DA84208D006
:10E3C0000E4DA84205D00E4DA84202D00D4DA842D8
:10E3D00007D123F4807323F400734D692B438D69B7
:10E3E0002B43436084614D684563026230BD000089
:10E3F0008FFFFEFF0000014000040140004001408B
:10E40000004401400048014030B5056A25F0100580
:10E410000562026A43688469224D2C4024F44074EA
:10E420000D6844EA052422F020028D6842EA0512B4
:10E430001D4DA84200D10FE01C4DA84200D10BE0B9
:10E440001B4DA84200D100BF1A4DA84200D100BF09
:10E45000194DA84207D106E022F08002CD6842EAB9
:10E46000051222F04002104DA8420BD00F4DA842D9
:10E4700008D00F4DA84205D00E4DA84202D00E4D37
:10E48000A84209D123F4806323F400634D6943EA71
:10E4900085038D6943EA8503436084614D68856324
:10E4A000026230BDFF8FFFFE00000140000401400A
:10E4B00000400140004401400048014030B5056A79
:10E4C00025F480750562026A4368C469224D2C40B8
:10E4D00024F003040D682C4322F400728D6842EA94
:10E4E00005221E4DA84200D10FE01D4DA84200D1CB
:10E4F0000BE01C4DA84200D100BF1B4DA84200D12B
:10E5000000BF1A4DA84207D106E022F40062CD6890
:10E5100042EA052222F48062104DA8420BD0104D31
:10E52000A84208D00F4DA84205D00F4DA84202D0F6
:10E530000E4DA84209D123F4805323F400534D69B2
:10E5400043EA05138D6943EA05134360C4614D68CE
:10E55000C563026230BD00008FFFFEFF0000014076
:10E5600000040140004001400044014000480140D7
:10E5700030B5056A25F480550562036A4468C269AE
:10E58000124D2A4022F440720D6842EA052223F41B
:10E5900000538D6843EA05330D4DA8420BD00D4D55
:10E5A000A84208D00C4DA84205D00C4DA84202D07C
:10E5B0000B4DA84204D124F480444D6944EA8514EB
:10E5C0004460C2614D680564036230BDFF8FFFFE89
:10E5D00000000140000401400040014000440140AF
:10E5E0000048014030B5056A25F480350562026AAD
:10E5F0004368446D114D2C400D682C4322F40032C9
:10E600000D8942EA05420E4DA8420BD00D4DA8429D
:10E6100008D00D4DA84205D00C4DA84202D00C4D9B
:10E62000A84204D123F480334D6943EA05234360B3
:10E6300044654D688565026230BD00008FFFFEFFB6
:10E64000000001400004014000400140004401403E
:10E650000048014030B5056A25F480150562026A5C
:10E660004368446D114D2C400D6844EA052422F4A2
:10E6700000120D8942EA05520D4DA8420BD00D4DF6
:10E68000A84208D00C4DA84205D00C4DA84202D09B
:10E690000B4DA84204D123F480234D6943EA85231E
:10E6A000436044654D68C565026230BDFF8FFFFE63
:10E6B00000000140000401400040014000440140CE
:10E6C0000048014010B50248FCF796FC10BD000060
:10E6D0006C2C002470B5456E2DB90125A0F86A5048
:10E6E000A0F868501CE0102310240568AD68C5F33D
:10E6F00042610568AD686A0F0A4DAD5C15FB04F513
:10E70000094EB65C95FBF6F5A0F86A50054D6D5CB8
:10E7100015FB03F5044E765C95FBF6F5A0F8685002
:10E7200070BD0000484B0108504B010890F82810BC
:10E7300001F0010139B10168496821F40031C26A70
:10E7400011430268516090F8281001F0020102297B
:10E7500007D10168496821F48031026B11430268D6
:10E76000516090F8281001F00401042907D10168D4
:10E77000496821F48021426B11430268516090F88E
:10E78000281001F00801082907D10168496821F41F
:10E790000041826B11430268516090F8281001F02B
:10E7A0001001102907D10168896821F48051C26BDA
:10E7B00011430268916090F8281001F0200120298F
:10E7C00007D10168896821F40051026C1143026885
:10E7D000916090F8281001F04001402913D10168A0
:10E7E000496821F48011426C114302685160416C08
:10E7F000B1F5801F07D10168496821F4C001826C1E
:10E8000011430268516090F8281001F080018029BE
:10E8100007D10168496821F40021C26C11430268E4
:10E820005160704738B504460020C4F89000F6F7F0
:10E83000EDFE05462068006800F00800082821D198
:10E840006FF07E402B4600224FF4001100902046CE
:10E8500000F078FFB0B100BF00BF216851E8001F91
:10E8600021F08000226842E800010029F5D100BFB4
:10E870002020C4F8880000BF002084F8840000BF76
:10E88000032038BD2068006800F00400042830D15F
:10E890006FF07E402B4600224FF48001009020460E
:10E8A00000F050FF28B300BF00BF216851E8001FEF
:10E8B00021F49070226842E800010029F5D100BFE0
:10E8C00000BF00BF2168083151E8001F21F001009E
:10E8D0002168083141E80002002AF3D100BF20205E
:10E8E000C4F88C0000BF002084F8840000BF03201F
:10E8F000C7E72020C4F88800C4F88C000020E06638
:10E90000206700BF84F8840000BF00BFB9E770B57E
:10E910000546AC6B0020A4F85E00A4F85600204623
:10E92000FCF768FB70BD000000BF00BF026852E842
:10E93000002F22F49071036843E80012002AF5D1F9
:10E9400000BF00BF00BF0268083252E8002F104B22
:10E9500002EA03010268083242E80013002BF2D1F8
:10E9600000BFC16E01290CD100BF00BF026852E890
:10E97000002F22F01001036843E80012002AF5D1AD
:10E9800000BF2021C0F88C100021C166416770478C
:10E99000FEFFFFEF10B5044600BF00BF216851E83D
:10E9A000001F21F04000226842E800010029F5D153
:10E9B00000BF2020C4F888000020A0672046FDF793
:10E9C0001EF810BD2DE9F0410446B4F86070D4F88B
:10E9D0008C0022286ED12068406A86B2A56D06EAB6
:10E9E00007002880A06D801CA065B4F85E00401E62
:10E9F000A4F85E00B4F85E00002861D100BF00BF3B
:10EA0000216851E8001F21F49070226842E800015B
:10EA10000029F5D100BF00BF00BF2168083151E8CF
:10EA2000001F21F001002168083141E80002002A9E
:10EA3000F3D100BF2020C4F88C000020606720675D
:10EA400020492068884211D02068406800F4000006
:10EA500060B100BF00BF216851E8001F21F0806055
:10EA6000226842E800010029F5D100BFE06E0128CC
:10EA70001CD10020E06600BF00BF216851E8001FE4
:10EA800021F01000226842E800010029F5D100BF02
:10EA90002068C069C0F3001010B11020216808621E
:10EAA000B4F85C102046FCF743FA09E02046FCF776
:10EAB000F7FE05E02068806940F008002168886161
:10EAC000BDE8F081000C00582DE9F84F0446B4F879
:10EAD00060B02068C5692068006800902068D0F8A0
:10EAE00008A0D4F88C0022287ED1B4F86890ADE05C
:10EAF0002068406A1FFA80F8A76D08EA0B0038808A
:10EB0000A06D801CA065B4F85E00401EA4F85E00F5
:10EB10002068C56905F00700B0B305F0010060B1D9
:10EB2000009800F4807040B1012021680862D4F898
:10EB3000900040F00100C4F8900005F0020058B1C8
:10EB40000AF0010040B1022021680862D4F8900068
:10EB500040F00400C4F8900005F0040058B10AF039
:10EB6000010040B1042021680862D4F8900040F010
:10EB70000200C4F89000D4F8900028B12046FCF7B9
:10EB800039FA0020C4F89000B4F85E0000285DD186
:10EB900000BF00BF216851E8001F21F48070226887
:10EBA00042E800010029F5D100BF00BF00BF216885
:10EBB000083151E8001F404A01EA0200216808318B
:10EBC00041E80002002AF2D100BF2020C4F88C00E6
:10EBD00000206067206739492068884213D0206888
:10EBE000406800F4000000E05DE060B100BF00BFDD
:10EBF000216851E8001F21F08060226842E800018E
:10EC00000029F5D100BFE06E01281CD10020E0668C
:10EC100000BF00BF216851E8001F21F010002268EA
:10EC200042E800010029F5D100BF2068C069C0F3A7
:10EC3000001010B1102021680862B4F85C10204662
:10EC4000FCF776F902E02046FCF72AFEB9F1000F46
:10EC500004D005F0200000287FF44AAFB4F85E60CD
:10EC600006B3B4F86800B04223DD00BF00BF2168DE
:10EC7000083151E8001F21F080502168083141E837
:10EC80000002002AF3D100BF0D48606700BF00BF3B
:10EC9000216851E8001F41F02000226842E800018D
:10ECA0000029F5D105E02068806940F0080021685E
:10ECB0008861BDE8F88F0000FEFFFFEF000C0058F0
:10ECC000C5E9000870B50446B4F86060D4F88C005B
:10ECD00022286FD12068406A85B2F0B22840A16D29
:10ECE0000870A06D401CA065B4F85E00401EA4F83A
:10ECF0005E00B4F85E00002862D100BF00BF21684A
:10ED000051E8001F21F49070226842E800010029B8
:10ED1000F5D100BF00BF00BF2168083151E8001FD6
:10ED200021F001002168083141E80002002AF3D1F6
:10ED300000BF2020C4F88C000020606720672149B4
:10ED40002068884211D02068406800F4000060B15B
:10ED500000BF00BF216851E8001F21F080602268D9
:10ED600042E800010029F5D100BFE06E01281CD166
:10ED70000020E06600BF00BF216851E8001F21F0BD
:10ED80001000226842E800010029F5D100BF206888
:10ED9000C069C0F3001010B1102021680862B4F8F7
:10EDA0005C102046FCF7C4F80AE02046FCF778FD2A
:10EDB00006E0FFE72068806940F00800216888616C
:10EDC00070BD0000000C00582DE9F05F0446B4F857
:10EDD00060A02068C5692068D0F800B02068D0F82D
:10EDE0000890D4F88C0022287ED1B4F86880ACE07A
:10EDF0002068406A87B20AF0FF003840A16D0870B1
:10EE0000A06D401CA065B4F85E00401EA4F85E0032
:10EE10002068C56905F00700A8B305F0010058B1E6
:10EE20000BF4807040B1012021680862D4F8900092
:10EE300040F00100C4F8900005F0020058B109F05C
:10EE4000010040B1022021680862D4F8900040F02F
:10EE50000400C4F8900005F0040058B109F0010066
:10EE600040B1042021680862D4F8900040F002000C
:10EE7000C4F89000D4F8900028B12046FCF7BAF806
:10EE80000020C4F89000B4F85E0000285DD100BFF7
:10EE900000BF216851E8001F21F48070226842E819
:10EEA00000010029F5D100BF00BF00BF2168083173
:10EEB00051E8001F3F4A01EA02002168083141E899
:10EEC0000002002AF2D100BF2020C4F88C000020EC
:10EED0006067206738492068884213D020684068FE
:10EEE00000F4000070B100E05CE000BF00BF2168EA
:10EEF00051E8001F21F08060226842E800010029EB
:10EF0000F5D100BFE06E01281CD10020E06600BFF3
:10EF100000BF216851E8001F21F01000226842E87C
:10EF200000010029F5D100BF2068C069C0F30010BE
:10EF300010B1102021680862B4F85C102046FBF77D
:10EF4000F7FF02E02046FCF7ABFCB8F1000F04D05D
:10EF500005F0200000287FF44BAFB4F85E6006B3E4
:10EF6000B4F86800B04223DD00BF00BF216808315B
:10EF700051E8001F21F080502168083141E800026B
:10EF8000002AF3D100BF0D48606700BF00BF2168B1
:10EF900051E8001F41F02000226842E800010029EA
:10EFA000F5D105E02068806940F00800216888619B
:10EFB000BDE8F09FFEFFFFEF000C0058C5EC000815
:10EFC0002DE9F04F89B0054600200890F8492868DF
:10EFD000884200D100E000BF2969A8680843696938
:10EFE0000843E96940EA010828680068F1490840D7
:10EFF00040EA0800296808602868406820F440500A
:10F00000E968084329684860D5F81880E849286805
:10F01000884202D0286A40EA080828688068E649E1
:10F02000084040EA0800296888602868C06A20F023
:10F030000F00696A08432968C86200BFDF49286871
:10F04000884220D1DE48006800F03800182811D02E
:10F0500005DC48B1082809D0102811D108E0202883
:10F060000AD028280CD109E001240BE0042409E08F
:10F07000082407E0102405E0202403E0402401E0F8
:10F08000802400BF42E1CF492868884219D1CC488A
:10F09000006800F00700062810D2DFE800F0030542
:10F0A00007090B0D00240BE0042409E0082407E005
:10F0B000102405E0202403E0402401E0802400BF68
:10F0C00024E1C1492868884219D1BD48006800F090
:10F0D0000700062810D2DFE800F0030507090B0D32
:10F0E00000240BE0042409E0082407E0102405E0D4
:10F0F000202403E0402401E0802400BF06E1B3495E
:10F100002868884219D1AE48006800F00700062838
:10F1100010D2DFE800F0030507090B0D00240BE017
:10F12000042409E0082407E0102405E0202403E07B
:10F13000402401E0802400BFE8E0A5492868884217
:10F1400019D19F48006800F00700062810D2DFE8B8
:10F1500000F0030507090B0D00240BE0042409E06F
:10F16000082407E0102405E0202403E0402401E007
:10F17000802400BFCAE097492868884220D190487F
:10F18000006800F03800182811D005DC48B10828C4
:10F1900009D0102811D108E020280AD028280CD145
:10F1A00009E001240BE0042409E0082407E010240E
:10F1B00005E0202403E0402401E0802400BFA5E016
:10F1C00085492868884219D17D48006800F0070009
:10F1D000062810D2DFE800F0030507090B0D002414
:10F1E0000BE0042409E0082407E0102405E02024B3
:10F1F00003E0402401E0802400BF87E077492868CD
:10F20000884219D16E48006800F00700062810D225
:10F21000DFE800F0030507090B0D00240BE00424D0
:10F2200009E0082407E0102405E0202403E040243E
:10F2300001E0802400BF69E069492868884220D144
:10F240005F48006800F03800182811D005DC48B18C
:10F25000082809D0102811D108E020280AD0282831
:10F260000CD109E001240BE0042409E0082407E0A4
:10F27000102405E0202403E0402401E0802400BFA6
:10F2800044E058492868884220D14D48006800F081
:10F290003800182811D005DC48B1082809D01028FA
:10F2A00011D108E020280AD028280CD109E0012437
:10F2B0000BE0042409E0082407E0102405E02024E2
:10F2C00003E0402401E0802400BF1FE038492868A3
:10F2D00088421AD13A48001D006800F0070006284D
:10F2E00010D2DFE800F0030507090B0D02240BE044
:10F2F000042409E0082407E0102405E0202403E0AA
:10F30000402401E0802400BF00E0802400BF2849A1
:10F31000286888424BD1102C1AD006DC022C09D068
:10F32000042C0BD0082C29D10DE0202C21D0402C0E
:10F3300024D120E0F7F7C6FE064623E005A8F7F73C
:10F34000EBFF069E1EE002A8F8F7FEF8039E19E008
:10F350001B4854380068C0F3401040B11848543876
:10F360000068C0F3C101204820FA01F600E01E4EFB
:10F3700008E01E4E06E04FF4004603E000260120A0
:10F38000089000BF00BF002E10D01949686A31F8FC
:10F390001000B6FBF0F9686800EB4000484503D860
:10F3A00068680003484525D20120089007E153E032
:10F3B000000C0058F369FFCFFFF4FF11001001406B
:10F3C000544402580044004000480040004C0040B3
:10F3D000005000400014014000780040007C0040D4
:10F3E00000180140001C01400090D00300093D00BE
:10F3F000304B01087849686A31F810C06246002332
:10F4000030461946F0F7E0FF4FF4807C00220346B7
:10F41000A3FB0C0B01FB0CB103FB02136968490849
:10F4200084461CEB010143EB0200CDE90010D5F846
:10F4300004C06246002308460199F0F7C5FF07465D
:10F44000B7F5407F05D3B7F5801F02D22868C760A3
:10F45000B5E001200890B2E0E869B0F5004F5BD15B
:10F46000082C1AD005DC5CB1012C0DD0042C2DD158
:10F470000EE0102C16D0202C23D0402C26D122E0D8
:10F48000F9F7A0FD064625E0F9F7AEFD064621E0B6
:10F4900005A8F7F741FF069E1CE002A8F8F754F80C
:10F4A000039E17E04D480068C0F3401038B14B4848
:10F4B0000068C0F3C1014A4820FA01F600E0484E56
:10F4C00008E0484E06E04FF4004603E00026012025
:10F4D000089000BF00BF7EB33F49686A31F8100052
:10F4E000B6FBF0F04000696800EB5100B0FBF1F7AB
:10F4F000102F0ED3B7F5803F0BD24FF6F07007EA0E
:10F50000000AC7F342004AEA000A2868C0F80CA0C3
:10F5100055E00120089052E0082C1BD005DC64B1B6
:10F52000012C0ED0042C2ED10FE0102C17D0202C43
:10F5300024D0402C27D123E041E0F9F743FD0646D3
:10F5400025E0F9F751FD064621E005A8F7F7E4FEAE
:10F55000069E1CE002A8F7F7F7FF039E17E01F487E
:10F560000068C0F3401038B11C480068C0F3C10106
:10F570001B4820FA01F600E0194E08E0194E06E09B
:10F580004FF4004603E000260120089000BF00BFB2
:10F59000AEB11149686A31F81000B6FBF0F0696845
:10F5A00000EB5100B0FBF1F7102F06D3B7F5803F09
:10F5B00003D2B8B22968C86001E001200890012098
:10F5C000A5F86A00A5F8680000206867A867089891
:10F5D00009B0BDE8F08F0000304B0108004402582C
:10F5E0000090D00300093D0030B503469965A3F8AB
:10F5F0005C20A3F85E200020586700BF9868B0F533
:10F60000805F0AD1186920B940F2FF10A3F86000AA
:10F6100020E0FF20A3F860001CE0986848B9186952
:10F6200018B9FF20A3F8600014E07F20A3F8600061
:10F6300010E09868B0F1805F09D1186918B97F208F
:10F64000A3F8600006E03F20A3F8600002E000207D
:10F65000A3F8600000BF0020C3F890002220C3F888
:10F660008C0000BF00BF1C68083454E8004F44F011
:10F6700001001C68083444E80005002DF3D100BFE8
:10F68000586EB0F1005F2CD1B3F86800904228DCCE
:10F690009868B0F5805F04D1186910B9254858679B
:10F6A00001E025485867186960B100BF00BF1C68B9
:10F6B00054E8004F44F480701D6845E80004002CB5
:10F6C000F5D100BF00BF00BF1C68083454E8004FEC
:10F6D00044F080501C68083444E80005002DF3D144
:10F6E00026E09868B0F5805F04D1186910B9134816
:10F6F000586701E012485867186960B100BF00BF41
:10F700001C6854E8004F44F490701D6845E80004FC
:10F71000002CF5D10CE000BF00BF1C6854E8004F7E
:10F7200044F020001D6845E80004002CF5D100BF1E
:10F73000002030BDC9EA0008C9ED0008C5E900088D
:10F74000C5EC00082DE9F04104460D4617469846E1
:10F75000069E3CE0701CC8B3F5F758FFA0EB08000C
:10F76000B04200D816B90320BDE8F08120680068D7
:10F7700000F0040050B32068C069C0F3C00078B145
:10F780000820216808622046FFF7CEF80820C4F858
:10F79000900000BF002084F8840000BF0120E3E750
:10F7A0002068C069C0F3C02080B14FF400602168B8
:10F7B00008622046FFF7B8F82020C4F8900000BF88
:10F7C000002084F8840000BF0320CDE7FFE7206815
:10F7D000C0692840A84201D1012000E00020B842C1
:10F7E000B8D00020C0E7000010B50248FBF704FCC9
:10F7F00010BD0000BC2E002410B50248FBF7FCFB36
:10F8000010BD0000002D002410B50248FBF7F4FBEA
:10F8100010BD0000942D002410B50248FBF7ECFB4E
:10F8200010BD0000282E00242DE9F04104460D46AD
:10F83000D4F8C87204F53070D4F8D41250F821000E
:10F8400010B90320BDE8F08104F53070D4F8D4126B
:10F8500050F8216005F00F0000EB800104F1140066
:10F8600000EB8100406838B305F00F0000EB800129
:10F8700004F1140000EB8100416805F00F0000EB7B
:10F88000C00207F13C0000EB82008068B1FBF0F29F
:10F8900000FB121080B9002105F00F0000EB800280
:10F8A00004F1140000EB8200416000231A4629464F
:10F8B000204601F04CF917E00020C6F8140204F5C8
:10F8C0003170D4F8D41250F82100006960B1D6F834
:10F8D000080204F53171D4F8D42251F822102A46D6
:10F8E0000B6906F5047198470020ABE770B5044634
:10F8F0000E4604F53070D4F8D41250F82150D4F8E4
:10F90000D41250F8210008B9032070BD31462046BA
:10F9100000F070FFC5F80C02D5F8040204F531714F
:10F92000D4F8D43251F82310CA6805F50371904712
:10F930000020EAE770B504460D46304801782046BD
:10F9400000F02AFE00212D48007800F00F0000EBA7
:10F95000800204F1140000EB820001822848017843
:10F96000204600F019FE00212548007800F00F0025
:10F9700000EB800204F5AA7000EB820001822148AE
:10F980000178204600F008FE00211E48007800F0B3
:10F990000F0000EB800204F1140000EB82000182F2
:10F9A0001848007800F00F0000EB800204F114000A
:10F9B00000EB8200418204F53070D4F8D41250F884
:10F9C0002100C8B104F53171D4F8D42251F82210C5
:10F9D0004868804704F53071D4F8D42251F82200E9
:10F9E00001F0DEFB002104F53070D4F8D42240F899
:10F9F00022100020C4F8BC02002070BDAF0100241A
:10FA0000B0010024B101002470B5044604F5307043
:10FA1000D4F8D41250F821500DB9032070BD04F56C
:10FA20003170D4F8D41250F8210098B195F8000242
:10FA3000FF280FD095F8012295F8000204F53171E6
:10FA4000D4F8D46251F826108B6829469847FF20D5
:10FA500085F800020020E1E701460A2008800148FD
:10FA600070470000280100242DE9F041044682215E
:10FA70000D4800F02FFC054601210B4800F02AFC40
:10FA800006468121084800F025FC07460DB11020EC
:10FA9000A8710EB14020B0800FB14020B880432043
:10FAA00020800148BDE8F0816C0100242DE9F0417F
:10FAB000044682210E4800F00DFC054601210C4849
:10FAC00000F008FC06468121094800F003FC0746C7
:10FAD0000DB11020A87116B14FF40070B08017B1AD
:10FAE0004FF40070B880432020800148BDE8F081C9
:10FAF0006C0100242DE9F041044682210D4800F0FC
:10FB0000E9FB054601210B4800F0E4FB0646812194
:10FB1000084800F0DFFB07460DB11020A8710EB1B8
:10FB20004020B0800FB14020B880432020800148A1
:10FB3000BDE8F0816C01002470B504460E464FF418
:10FB4000077001F02FFB054645B9002104F5307020
:10FB5000D4F8D42240F82210022070BD4FF407716F
:10FB60002846F0F77BFC04F53070D4F8D41240F846
:10FB70002150D4F8D41250F82100C4F8BC02207CE3
:10FB800098BB4FF40073022250480178204600F0E1
:10FB9000D7FE01214D48007800F00F0000EB8002F5
:10FBA00004F1140000EB820001824B02022248485B
:10FBB0000178204600F0C4FE01214548007800F09D
:10FBC0000F0000EB800204F5AA7000EB82000182B6
:10FBD00010214048007800F00F0000EB800204F193
:10FBE000140000EB8200418232E0FFE74023022252
:10FBF00036480178204600F0A3FE01213348007802
:10FC000000F00F0000EB800204F1140000EB820012
:10FC10000182402302222E480178204600F090FE07
:10FC200001212B48007800F00F0000EB800204F562
:10FC3000AA7000EB8200018210212648007800F0B3
:10FC40000F0000EB800204F1140000EB82004182FF
:10FC5000082303221F480178204600F071FE01218D
:10FC60001C48007800F00F0000EB800204F1140043
:10FC700000EB820001820020C5F8040204F5317116
:10FC8000D4F8D42251F82210086880470020C5F823
:10FC90001402C5F81802D5F8040208B902205CE77E
:10FCA000207C48B94FF40073094801782046D5F804
:10FCB000042200F05DFE07E040230548017820465D
:10FCC000D5F8042200F054FE002046E7AF010024DE
:10FCD000B0010024B101002470B5044604F5307071
:10FCE000D4F8D41250F82150D4F8D41250F821008E
:10FCF00008B9032070BD207C48B94FF4007309484F
:10FD000001782046D5F8042200F032FE07E04023B7
:10FD1000044801782046D5F8042200F029FE00208E
:10FD2000E8E70000B0010024024609B9032070474B
:10FD300002F53170D2F8D43240F823100020F6E7F3
:10FD400010B5024602F53070D2F8D44250F8243093
:10FD50000BB9032010BDC3F804120020FAE730B538
:10FD600003460C4603F53070D3F8D45250F82510F2
:10FD700009B9032030BDC1F80842C1F810220020A3
:10FD8000F8E72DE9FC4105460C4605F53070D5F83D
:10FD9000D41250F82160002001900090804616B9DE
:10FDA0000320BDE8FC81207800F0600000283DD0F1
:10FDB00020287CD1E08868B3207800F08000B8B1BA
:10FDC000E288607805F53171D5F8D4C251F82C106D
:10FDD0008B6831469847E088072801D9072000E062
:10FDE000E08807463A463146284600F011F91CE003
:10FDF000607886F80002E088402801D2E08800E0C0
:10FE0000402086F8010296F801223146284600F08B
:10FE1000DEF80AE0607805F53171D5F8D42251F8A2
:10FE2000221000228B682146984747E0607830B165
:10FE3000012832D00A2813D00B282FD121E095F8C1
:10FE40009C02032805D102226946284600F0E0F80A
:10FE500005E02146284600F0AEF84FF0030824E004
:10FE600095F89C02032805D1012201A9284600F03B
:10FE7000CFF805E02146284600F09DF84FF0030832
:10FE800013E095F89C02032805D02146284600F08F
:10FE900092F84FF0030808E009E006E02146284602
:10FEA00000F089F84FF0030800BF00BF06E02146CC
:10FEB000284600F080F84FF0030800BF00BF40461E
:10FEC0006FE7000070B5054605F53070D5F8D4121F
:10FED00050F8214001260CB9032070BDD4F814025B
:10FEE000C8B90120C4F814020C48007800F00F00D3
:10FEF00000EB800205F1140000EB8200D4F8101230
:10FF00004160064801782846D4F81032D4F8082217
:10FF100000F01DFE00263046DFE70000AF010024A0
:10FF200070B504460D460026D4F8B802294642684A
:10FF30002046904700B10326304670BD70B5044698
:10FF40000D4694F89C02012804D0022803D003280F
:10FF50000CD101E000BF00BF6888012805D1002056
:10FF6000C4F8A402204600F064F804E029462046C4
:10FF700000F021F800BF00BF70BD024600207047AE
:10FF800002460020704770B506460C4615462B46C3
:10FF900022460021304600F0EBFC002070BD70B519
:10FFA00006460C4615462B4622460021304600F0F8
:10FFB000CEFD002070BD70B504460D468021204660
:10FFC00000F095FD0021204600F091FD70BD70B558
:10FFD00004460E4615460320C4F894024FF4AC7054
:10FFE0000551001D05512B4632460021204600F0E8
:10FFF000BFFC002070BD10B504460520C4F8940273
:020000040801F1
:1000000000231A461946204600F0B2FC002010BD1D
:1000100070B504460E4615460220C4F89402A56148
:10002000E5612B4632460021204600F090FD00207D
:1000300070BD10B504460420C4F8940200231A468B
:100040001946204600F083FD002010BD70B504461F
:100050000D46E888012804D029462046FFF7ABFF6B
:100060001EE094F89C02012804D0022803D0032843
:1000700010D109E000BF0020A060012204F10801B6
:100080002046FFF7C5FF0AE00122211D2046FFF7A9
:10009000BFFF04E029462046FFF78DFF00BF00BFE9
:1000A00070BDF8B504460E460020009000270025DC
:1000B00070880012062874D006DC01281BD00228A4
:1000C00021D003286ED132E007286CD00F28F9D157
:1000D000D4F8B402C06938B1207CD4F8B412CA692B
:1000E00069469047074605E031462046FFF763FF23
:1000F000681CC5B2CBE0207CD4F8B4120A6869460B
:1001000090470746C3E0207C40B9D4F8B802816A22
:100110006846884707460220787007E0D4F8B8029E
:10012000C16A68468847074602207870AFE0B07819
:1001300006287AD2DFE800F00316293F5265D4F88A
:10014000B402406838B1207CD4F8B4124A686946D9
:100150009047074605E031462046FFF72CFF681C14
:10016000C5B269E0D4F8B402806838B1207CD4F814
:10017000B4128A6869469047074605E03146204632
:10018000FFF719FF681CC5B256E0D4F8B402C06886
:1001900050B1207CD4F8B412CA686946904707462B
:1001A00008E04BE06CE059E031462046FFF703FFE2
:1001B000681CC5B240E0D4F8B402006938B1207CB4
:1001C000D4F8B4120A6969469047074605E03146FB
:1001D0002046FFF7F0FE681CC5B22DE0D4F8B4024B
:1001E000406938B1207CD4F8B4124A696946904716
:1001F000074605E031462046FFF7DDFE681CC5B224
:100200001AE0D4F8B402806940B1207CD4F8B4126A
:100210008A6969469047074606E006E0314620466F
:10022000FFF7C9FE681CC5B206E031462046FFF75D
:10023000C2FE681CC5B200BF00BF28E0207C30B9F8
:10024000D4F8B802416B68468847074605E0314656
:100250002046FFF7B0FE681CC5B218E0207C40B90C
:10026000D4F8B802016B68468847074607207870C3
:1002700005E031462046FFF79EFE681CC5B206E049
:1002800031462046FFF797FE681CC5B200BF00BF8D
:1002900005B1F8BDF088C0B1BDF8000080B1F088AC
:1002A000BDF80010884202DDBDF8000000E0F088D3
:1002B0000090BDF8002039462046FFF7A9FE07E070
:1002C00031462046FFF777FE02E02046FFF7B1FEF9
:1002D00000BFDEE72DE9F84105460F462C462E46C5
:1002E0004FF0000870883178884218DD307800902F
:1002F0000FE06946204600F020F8044660780528A3
:1003000007D1A04698F80200B84200D106E04FF0AD
:1003100000087088BDF800108842EADC00BF404643
:10032000BDE8F881014600200A4602E0431CD8B22D
:10033000521C1378002BF9D1704710B502461046B5
:100340000B88047823440B800378981810BD70B58F
:1003500004460D4694F89C02012804D0022803D0DC
:1003600003281AD101E000BF00BFE888022804D0AA
:1003700029462046FFF71FFE14E00120E060D4F874
:10038000A40218B1E06840F00200E060022204F12B
:100390000C012046FFF73CFE04E029462046FFF70B
:1003A0000AFE00BF00BF70BD2DE9F04107460D46B3
:1003B000904600240FB9BDE8F0813E463046FFF775
:1003C000B1FF022101EB4000A8F8000098F80000FE
:1003D0002855601CC4B203202855601CC4B208E034
:1003E00030782855761C601CC4B200202855601C4B
:1003F000C4B230780028F3D100BFDCE7014600200A
:1004000031B1012906D0022906D0032908D105E01F
:10041000002007E0032005E0012003E0032001E0C5
:10042000032000BF00BF704770B505460C462DB9CC
:100430002246064906A0FFF7B7FF04E0224603491B
:1004400003A0FFF7B1FF014870BD0000783200241F
:1004500043444320436F6E666967000002461220E2
:1004600008800148704700004000002470B5054630
:100470000C462DB92246064906A0FFF795FF04E079
:100480002246034903A0FFF78FFF014870BD00001B
:100490007832002443444320496E74657266616378
:1004A00065000000024604200880014870470000F3
:1004B0006000002470B505460C462246024903A0A0
:1004C000FFF772FF004870BD7832002453544D6925
:1004D00063726F656C656374726F6E69637300003D
:1004E00070B505460C462DB92246064906A0FFF711
:1004F0005BFF04E02246034903A0FFF755FF0148D4
:1005000070BD00007832002453544D3332205669B8
:10051000727475616C20436F6D506F7274000000CF
:1005200070B505460C461A202080F1F7AFF9014856
:1005300070BD0000640000242DE9F04104460D4622
:10054000164614B90320BDE8F0810020C4F8B802B3
:10055000C4F8C402C4F8D0020DB1C4F8B4520120EA
:1005600084F89C022670204600F04EF90746384673
:10057000E9E72DE9F04104460D460026002729460B
:10058000D4F8C802F5F735FF06463046FFF736FFC8
:1005900007463846BDE8F0812DE9F04104460D4696
:1005A000002600272946D4F8C802F5F7EDFE0646D6
:1005B0003046FFF723FF07463846BDE8F0812DE9B6
:1005C000F04704460F469146002F56D104F114051A
:1005D000D4F89402022846D1D5E9020188420FD905
:1005E000D5E90201401AA86049462046AA68FFF7EB
:1005F000D6FC00231A461946204600F0B9F932E02D
:10060000D5E90210884217D1E9686868884213D397
:100610006868D4F8981288420ED20022114620460B
:10062000FFF7BDFC0020C4F8980200231A461946C3
:10063000204600F09DF916E094F89C0203280BD1A7
:10064000D4F8B802C06838B10020C4F8D402D4F895
:10065000B802C168204688478021204600F047FA4A
:100660002046FFF7C8FC94F8A00250B3204600F0E3
:10067000C5FA002084F8A00223E047F0800120465C
:10068000FFF77BFC0646FF2E1BD0D6B994F89C02E0
:10069000032816D104F52E7050F82600406980B169
:1006A000C4F8D46204F52E7050F826003946426929
:1006B000204690478046B8F1000F02D04046BDE882
:1006C000F0870020FBE72DE9F04705460F469046EE
:1006D0004FF00009002F51D105F5AA76D5F8940204
:1006E00003286FD1D6E90201884210D9D6E9020168
:1006F000401AB060D6E90201884201D2B06800E039
:10070000F068024641462846FFF73DFC5AE095F85E
:10071000AA0200F01F0020B1012804D0022812D143
:1007200009E0002411E040F2AE20415D2846FFF7C9
:1007300027FC044609E040F2AE20415D2846FFF761
:100740001CFC044601E0002400BF00BF94B995F8EA
:100750009C0203280ED105F52E7050F82400006984
:1007600040B1C5F8D44205F52E7050F82400016957
:10077000284688472846FFF75CFC23E007F07F0106
:100780002846FFF7FAFB0446FF2C1BD0D4B995F896
:100790009C02032810D105F52E7050F824008069C2
:1007A00050B1C5F8D44205F52E7050F824003946F2
:1007B0008269284690478146B9F1000F02D0484629
:1007C000BDE8F0870020FBE701460020704770B5C8
:1007D00004460025012084F89C02D4F8B80238B100
:1007E0002179D4F8B80242682046904700B1032529
:1007F000284670BD70B504460D462946D4F8C80297
:10080000F5F735FE70BD000010B5044620780128CC
:100810002CD11748C0F80845C4F8C8021548144937
:100820000860092048600221114801610021C1606F
:10083000022181610021C16101624162C1620163E3
:100840004163F6F78AFA08B1F0F74FFD4FF40071F3
:100850000748F5F71EFD802200210548F5F71EFD2B
:100860004FF4BA7201210248F5F718FD002010BDBF
:10087000784400240000044010B50246D2F8C83283
:1008800001F08000802809D101F07F0000EBC00456
:1008900003F13C0000EB8400807810BD01F07F0084
:1008A00000EBC00403F51F7000EB84008078F4E7D0
:1008B00070B504460D4604F52E70D4F8D41250F8E5
:1008C000210008B9032070BD94F89C02032811D1BF
:1008D00004F52E70D4F8D41250F82100006A48B103
:1008E00004F52E70D4F8D41250F821002946026A7B
:1008F000204690470020E6E770B504460D4604F513
:100900002E70D4F8D41250F8210008B9032070BD1D
:1009100094F89C02032811D104F52E70D4F8D41257
:1009200050F82100406A48B104F52E70D4F8D41272
:1009300050F821002946426A204690470020E6E709
:100940002DE9F04704460F4615461E464FF00008B5
:10095000C1462B4632463946D4F8C802F5F792FD17
:1009600080464046FFF74AFD81464846BDE8F0878D
:100970002DE9F04704460D4616461F464FF0000885
:10098000C1463B4632462946D4F8C802F5F7C0FDB9
:1009900080464046FFF732FD81464846BDE8F08775
:1009A00070B504460025012084F89C020020C4F89C
:1009B00094026060C4F8A40284F8A002D4F8B802DB
:1009C00058B1D4F8B802406838B12179D4F8B802E7
:1009D00042682046904700B103254023002211467B
:1009E0002046FFF7ADFF01214FF4B27001534021C3
:1009F000001F01514023002280212046FFF7A0FF65
:100A00000121A18440212162284670BD014691F850
:100A10009C02042803D191F89D0281F89C020020D9
:100A2000704710B5044694F89C0203280BD1D4F803
:100A3000B80240B1D4F8B802C06920B1D4F8B80205
:100A4000C16920468847002010BD0246117400206D
:100A500070472DE9F04104460D460026002729463F
:100A6000D4F8C802F6F790FA06463046FFF7C6FCFF
:100A700007463846BDE8F08170B504460D46294664
:100A800004F2AA2000F07BF80120C4F894024FF48D
:100A90002C70005BC4F8980294F8AA0200F01F00C2
:100AA00020B1012809D0022815D10DE004F2AA21B5
:100AB000204600F087F9064616E004F2AA212046F7
:100AC00000F017FB06460FE004F2AA21204600F0D2
:100AD000D0F9064608E094F8AA0200F0800120460A
:100AE00000F005F8064600BF00BF304670BD2DE996
:100AF000F04104460D46002600272946D4F8C802D6
:100B0000F5F729FD06463046FFF778FC07463846DC
:100B1000BDE8F08170B5044600250026D4F8C8026F
:100B2000F6F756FA05462846FFF768FC06463046B3
:100B300070BD014691F89C02042803D091F89C02F4
:100B400081F89D02042081F89C02002070472DE965
:100B5000F04704460D4616461F464FF00008C146B2
:100B60003B4632462946D4F8C802F5F739FD80469F
:100B70004046FFF743FC81464846BDE8F08770B524
:100B800005460E46344620782870641C207868702C
:100B9000641C2046FDF755FA6880641C641C2046DE
:100BA000FDF74FFAA880641C641C2046FDF749FA43
:100BB000E88070BD38B504460D46002000900DB9A0
:100BC000032038BDC4F8B85204F52E70D4F8D412FE
:100BD00050F82100C06A50B104F52E70D4F8D42228
:100BE00050F82200C16A68468847C4F8D002D4F899
:100BF000D802401CC4F8D8020020E2E701460020D9
:100C0000704770B504460D46A88810BBE88800BB45
:100C1000688880281DD2A87800F07F0694F89C028E
:100C2000032804D129462046FFF7C5F915E084F8CA
:100C30009E6231462046FFF70CFF2046FFF7F9F988
:100C40001EB1022084F89C0207E0012084F89C0277
:100C500003E029462046FFF7AEF970BD70B50446A3
:100C60000D460026D4F8B80230B1D4F8B8022946AF
:100C70000268204690470646304670BD70B504466F
:100C80000E460025B0783D490870084600780128D6
:100C900005D931462046FFF78EF9032070BD94F840
:100CA0009C02022802D0032859D11FE03348007863
:100CB000C0B1324800786060304801782046FFF7C4
:100CC000CDFF05463DB131462046FFF774F90220BD
:100CD00084F89C0209E02046FFF7ABF9032084F872
:100CE0009C0202E02046FFF7A4F943E02348007885
:100CF00070B9022084F89C022048007860601F4888
:100D000001782046FFF70CF92046FFF792F925E01D
:100D10001A490978606888421DD021792046FFF77A
:100D2000FFF8164800786060144801782046FFF705
:100D300095FF05465DB131462046FFF73CF9217924
:100D40002046FFF7EDF8022084F89C0206E02046DA
:100D5000FFF76FF902E02046FFF76BF90AE0314632
:100D60002046FFF728F9054801782046FFF7D8F814
:100D7000032500BF00BF284690E70000240100249F
:100D800070B505460C466088012805D1C5F8A40257
:100D90002846FFF74EF90EE06088022807D1A088A8
:100DA000001285F8A0022846FFF743F903E0214628
:100DB0002846FFF700F970BD10B504462046FFF73E
:100DC000A9FE10BD70B504460D460026287800F037
:100DD000600088B1202802D0402842D100E000BF46
:100DE00004F52E70D4F8D41250F8210029468268F8
:100DF00020469047064639E068780A282AD2DFE87C
:100E000000F01A24291F290A0529150F2946204612
:100E1000FFF747F923E029462046FFF7F2FE1EE0E0
:100E200029462046FFF72AFF064618E029462046B5
:100E3000FFF70CF913E029462046FFF788FA0EE089
:100E400029462046FFF79CFF09E029462046FFF788
:100E500075F804E029462046FFF7ADF800BF00BF53
:100E600004E029462046FFF7A6F800BF00BF304641
:100E700070BD2DE9F04705460F464FF000093C795B
:100E8000387800F06000F8B1202802D040287DD1E9
:100E900000E000BF21462846FFF76FF80646FF2E08
:100EA00011D086B9C5F8D46205F52E7050F8260029
:100EB000806840B105F52E7050F8260039468268EA
:100EC00028469047814610E1787800287AD001289A
:100ED0002FD003286ED195F89C02022802D0032857
:100EE00020D110E054B1802C08D021462846FFF7CD
:100EF000FEFD80212846FFF7FAFD03E0394628462B
:100F0000FFF759F813E0788840B93CB1802C05D040
:100F1000F88818B921462846FFF7E9FD2846FFF76B
:100F200088F804E039462846FFF745F800BF00BFBF
:100F3000D4E095F89C02022802D003283BD110E0AF
:100F400054B1802C08D021462846FFF7D0FD8021DF
:100F50002846FFF7CCFD03E039462846FFF72BF87B
:100F60002EE0788820BB04F07F0018B12146284687
:100F7000FFF7FFFA2846FFF75CF821462846FEF700
:100F8000FCFF0646FF2E13D096B900E0A8E0C5F896
:100F9000D46205F52E7050F82600806840B105F542
:100FA0002E7050F8260039468268284690478146C0
:100FB00006E007E08DE039462846FEF7FCFF00BF5B
:100FC00000BF8BE095F89C02022802D0032879D15B
:100FD00026E034B1802C04D039462846FEF7EBFFDA
:100FE00075E004F08000802808D104F07F0000EB59
:100FF000800105F1140000EB810007E004F07F00A0
:1010000000EB800105F5AA7000EB8100804600200E
:10101000C8F80000022241462846FEF7F9FF56E0D4
:1010200004F0800080280ED104F00F0000EB800156
:1010300005F1140000EB8100008A98B93946284672
:10104000FEF7B9FF43E004F00F0000EB800105F567
:10105000AA7000EB8100008A20B939462846FEF7C5
:10106000AAFF34E004F08000802808D104F07F005B
:1010700000EB800105F1140000EB810007E004F0B3
:101080007F0000EB800105F5AA7000EB810080462F
:101090000CB1802C03D10020C8F800000CE02146E0
:1010A0002846FFF7E9FB20B10120C8F8000003E063
:1010B00008E00020C8F80000022241462846FEF75A
:1010C000A7FF04E039462846FEF775FF00BF00BFC2
:1010D00004E039462846FEF76EFF00BF00BF04E07B
:1010E00039462846FEF767FF00BF00BF4846BDE807
:1010F000F0872DE9F04105460E460027307800F0D4
:10110000600030B1202802D0402840D100E000BF6C
:1011100000BF95F89C02012804D0022803D00328C0
:101120002ED101E000BF00BF3079012823D83179EA
:101130002846FEF725FF0446FF2C14D09CB905F580
:101140002E7050F82400806858B1C5F8D44205F5D7
:101150002E7050F824003146826828469047074692
:1011600002E0032700E00327F08840B93FB9284692
:10117000FEF75FFF03E031462846FEF71CFF04E060
:1011800031462846FEF717FF00BF00BF04E0314696
:101190002846FEF710FF00BF00BF3846BDE8F081CB
:1011A0007047000001460148704700008449002450
:1011B00070B504460B4622461978587801282CD180
:1011C00040F61C0080581D7805F00F060125B5403B
:1011D000ADB2284340F61C05A85002F5106000EBA4
:1011E0004110006800F40040F0BB1889C0F30A0009
:1011F0001D7940EA854040EA815040F0805040F43B
:10120000004002F5106505EB41152D68284302F5F5
:10121000106505EB411528602DE040F61C00805854
:101220001D7805F00F060125B540144E06EA054568
:10123000284340F61C05A85002F5306000EB411031
:10124000006800F4004078B91889C0F30A001D79DD
:1012500040EA854040F0805040F4004002F530659F
:1012600005EB41152D6800E005E0284302F53065E7
:1012700005EB41152860002070BD00000000FFFF55
:1012800001460A464FF410608058C30ADB024FF44F
:101290001060835040F60400805840F4807340F69C
:1012A00004008350002070470FB470B504460A98BC
:1012B000012817D1A06B20F48030A063E0681E499C
:1012C0000840E060E06820F44010E06011980128D8
:1012D00003D1E06840F48010E060204600F030F870
:1012E000054612E0E06840F04000E060204600F073
:1012F00027F805460E9820B9A06B40F48030A06313
:1013000003E0A06B20F48030A063079801280ED181
:10131000E06D80B2E065E06D08490843E065A068D3
:1013200040F00600A060A06840F02000A0602846C1
:1013300070BC5DF814FB0000BFFFBDFF0000EE03B2
:1013400008B501460020009000BF0098401C0090A6
:10135000104A0098904201D9032008BD086900F0A6
:1013600000400028F1D000200090086940F0010002
:10137000086100BF0098401C0090064A0098904207
:1013800001D90320E9E7086900F001000028F1D144
:1013900000BFE2E7400D030070B504460B4622464D
:1013A00019785878012848D102F5106000EB4110F7
:1013B000006800F00040B0F1004F17D102F5106056
:1013C00000EB4110006840F0006502F5106000EB92
:1013D0004110056002F5106000EB4110006840F01C
:1013E000804502F5106000EB4110056040F63C00BE
:1013F00080581D7805F00F060125B540ADB2A84311
:1014000040F63C05A85040F61C0080581D7805F0B9
:101410000F060125B540ADB2A84340F61C05A85003
:1014200002F5106000EB411000682B4D284002F5DA
:10143000106505EB411528604BE002F5306000EBCC
:101440004110006800F00040B0F1004F17D102F5E4
:10145000306000EB4110006840F0006502F530603C
:1014600000EB4110056002F5306000EB41100068B0
:1014700040F0804502F5306000EB4110056040F619
:101480003C0080581D7805F00F060125B540134E2D
:1014900006EA0545A84340F63C05A85040F61C0066
:1014A0008558187800F00F060120B0400B4E06EA70
:1014B0000040854340F61C00855002F5306000EB8B
:1014C00041100068064D284002F5306505EB4115D6
:1014D0002860002070BD0000007833EC0000FFFFA2
:1014E0000078F3EF01460A46D2F8000E20F0030020
:1014F000C2F8000E40F60400805820F0020340F6C7
:10150000040083500020704701460A46D2F8000EBE
:1015100020F00300C2F8000E40F60400805840F0AE
:10152000020340F604008350002070470FB4F0B56A
:10153000064600273546002405E0002106F58270A6
:1015400040F82410641C0F2CF7D31098A0B940F673
:101550000400405940F0020140F604004151B06BD4
:1015600020F40010B063306840F040003060306814
:1015700040F08000306003E0B06B40F40010B063D6
:101580000020C5F8000ED5F80008C5F800080B9833
:1015900001280BD1099820B90021304600F004FD44
:1015A00008E00121304600F0FFFC03E00321304653
:1015B00000F0FAFC1021304600F0FAFB00B10127E0
:1015C000304600F0CBFB00B1012700214FF4016051
:1015D0004151001D415140F61C00415100242EE0B4
:1015E00005F5106000EB4410006800F00040B0F119
:1015F000004F10D13CB94FF0006105F5106000EBD1
:10160000441001600DE04FF0904105F5106000EBD3
:101610004410016005E0002105F5106000EB441066
:101620000160002105F5106000EB441001614FF6E8
:101630007F3105F5106000EB44108160641C069852
:10164000A042CDD800242EE005F5306000EB441018
:10165000006800F00040B0F1004F10D13CB94FF0ED
:10166000006105F5306000EB441001600DE04FF0C3
:10167000904105F5306000EB4410016005E0002169
:1016800005F5306000EB44100160002105F5306085
:1016900000EB441001614FF67F3105F5306000EB3F
:1016A00044108160641C0698A042CDD84FF40160BC
:1016B000405920F480714FF4016041510020B06125
:1016C0006FF080407061089818B9B06940F0100060
:1016D000B061B06909490843B0610C9818B1B069AC
:1016E00040F00800B0611098012803D1B0690449A6
:1016F0000843B0613846F0BC5DF814FB00383C800C
:10170000040000400146886820F001008860002045
:101710007047000070B503460C4619461D6C18480A
:10172000854209D94FF43060405800F00040B0F1D4
:10173000004F01D1002070BD0026C1F8106BD1F818
:10174000100B40F40026C1F8106BD1F8100B40F0DC
:101750001806C1F8106BD1F8100B40F0C046C1F864
:10176000106B012C09D1C1F8142B4FF43060405894
:1017700040F080264FF4306046500020DBE7000048
:101780000A30544F30B504460B4622461978587833
:1017900001281ED102F5106000EB4110006820F412
:1017A000001502F5106000EB411005601879032860
:1017B00002D0187902282AD102F5106000EB4110FE
:1017C000006840F0805502F5106000EB41100560A4
:1017D0001DE002F5306000EB4110006820F40015B8
:1017E00002F5306000EB411005601879032802D043
:1017F000187902280BD102F5306000EB4110006827
:1018000040F0805502F5306000EB4110056000208B
:1018100030BD30B504460B46224619785878012869
:1018200021D102F5106000EB4110006800F000408B
:1018300060B959B102F5106000EB4110006820F06A
:10184000804502F5106000EB4110056002F5106064
:1018500000EB4110006840F4001502F5106000EB49
:101860004110056020E002F5306000EB4110006897
:1018700000F0004060B959B102F5306000EB411052
:10188000006820F0804502F5306000EB41100560F3
:1018900002F5306000EB4110006840F4001502F5DD
:1018A000306000EB41100560002030BD2DE9F843A9
:1018B00081460E4617464D463478707801287DD112
:1018C000306920BB05F5106000EB44100069E34966
:1018D000084005F5106101EB4411086105F5106041
:1018E00000EB4410006940F4002105F5106000EBA6
:1018F0004410016105F5106000EB44100069C10C53
:10190000C90405F5106000EB441001616BE005F5BA
:10191000106000EB44100069C10CC90405F51060AB
:1019200000EB4410016105F5106000EB4410006904
:10193000CA49084005F5106101EB4411086194B9EA
:10194000B1683069884201D9B068306105F510602E
:1019500000EB4410006940F4002105F5106000EB35
:101960004410016114E0B16830690844401EB0FBC6
:10197000F1F0BA49C94301EAC04005F5106101EB35
:1019800044110969084305F5106101EB4411086130
:1019900005F5106000EB441000693169C1F31201D4
:1019A000084305F5106101EB441108613079012805
:1019B00019D105F5106000EB441000E093E00069D8
:1019C00020F0C04105F5106000EB4410016105F501
:1019D000106000EB4410006940F0005105F5106004
:1019E00000EB44100161012F36D1F06928B105F5F3
:1019F000106000EB4410F1694161307901281ED17B
:101A000040F60800405900F4807060B905F5106098
:101A100000EB4410006840F0005105F5106000EB49
:101A2000441001600BE005F5106000EB4410006805
:101A300040F0805105F5106000EB4410016005F5A1
:101A4000106000EB4410006840F0044105F51060A0
:101A500000EB44100160FEE005F5106000EB44105F
:101A6000006840F0044105F5106000EB441001608F
:101A7000307901280FD030690028ECD040F63400CE
:101A80004059317801F00F0201219140084340F69E
:101A900034014851DFE040F60800405900F48070FE
:101AA00060B905F5106000EB4410006840F000518B
:101AB00005F5106000EB441001600BE005F51060C7
:101AC00000EB4410006840F0805105F5106000EB19
:101AD000441001600097308A83B232784846F1683A
:101AE00000F0E0FAB7E005F5306000EB4410006963
:101AF000C10CC90405F5306000EB4410016105F527
:101B0000306000EB441000695449084005F530612D
:101B100001EB4411086104BB306908B1B068306161
:101B2000B068306205F5306000EB44100069316A3E
:101B3000C1F31201084305F5306101EB441108615E
:101B400005F5306000EB4410006940F4002105F514
:101B5000306000EB4410016145E03069D0B905F513
:101B6000306000EB44100069B168C1F31201084312
:101B700005F5306101EB4411086105F5306000EBBB
:101B80004410006940F4002105F5306000EB44107A
:101B9000016128E0B16830690844401EB0FBF1F0F3
:101BA0001FFA80F8B06800FB08F0306205F530607D
:101BB00000EB441000692949C94301EAC8410843C0
:101BC00005F5306101EB4411086105F5306000EB6B
:101BD00044100069316AC1F31201084305F5306110
:101BE00001EB44110861012F07D1F06828B105F518
:101BF000306000EB4410F1684161307901281ED15A
