:020000040800F2
:10000000100700246D03000887170008E115000899
:100010008517000873040008111D00080000000087
:100020000000000000000000000000008B17000826
:100030007504000800000000891700088D170008EB
:100040008703000887030008870300088703000868
:100050008703000887030008870300088703000858
:100060008703000887030008870300088703000848
:100070008703000887030008870300088703000838
:100080008703000887030008870300088703000828
:100090008703000887030008870300088703000818
:1000A0008703000887030008870300088703000808
:1000B00087030008870300088703000887030008F8
:1000C00087030008870300088703000887030008E8
:1000D00087030008870300088703000887030008D8
:1000E000870300088703000800000000870300085A
:1000F00087030008870300088703000887030008B8
:1001000087030008870300088703000887030008A7
:100110008703000887030008870300088703000897
:100120008703000887030008870300088703000887
:100130008703000887030008870300088703000877
:1001400000000000000000000000000000000000AF
:100150008703000887030008870300088703000857
:100160008703000887030008870300088703000847
:1001700087030008870300088703000800000000C9
:100180008703000887030008870300088703000827
:100190008703000887030008870300088703000817
:1001A0008703000887030008870300080000000099
:1001B00087030008870300088703000887030008F7
:1001C000870300088703000800000000000000000B
:1001D000000000000000000087030008000000008D
:1001E000000000000000000000000000000000000F
:1001F00000000000000000008703000887030008DB
:100200008703000887030008000000008703000838
:100210008703000887030008870300088703000896
:1002200087030008000000008703000800000000AA
:100230008703000887030008000000008703000808
:100240008703000887030008870300088703000866
:100250008703000887030008870300088703000856
:100260008703000887030008870300088703000846
:1002700087030008870300088703000800000000C8
:100280008703000887030008870300088703000826
:10029000000000008703000887030008000000003A
:1002A0000000000087030008870300088703000898
:1002B00087030008870300088703000887030008F6
:1002C00087030008870300088703000800F002F88E
:1002D00000F03CF80AA090E8000C82448344AAF1A4
:1002E0000107DA4501D100F031F8AFF2090EBAE8A2
:1002F0000F0013F0010F18BFFB1A43F0010318475A
:10030000AC1A0000CC1A0000103A24BF78C878C19B
:10031000FAD8520724BF30C830C144BF04680C600B
:10032000704700000023002400250026103A28BF53
:1003300078C1FBD8520728BF30C148BF0B60704757
:100340001FB501F025FD1FBD10B510BD00F058F818
:100350001146FFF7F5FF01F0EDFC00F076F803B46D
:10036000FFF7F2FF03BC00F07DF80000094880476A
:1003700009480047FEE7FEE7FEE7FEE7FEE7FEE787
:10038000FEE7FEE7FEE7FEE704480549054A064B9F
:100390007047000025180008CD0200081001002455
:1003A0001007002410030024100300244FF0000263
:1003B00000B5134694469646203922BFA0E80C505B
:1003C000A0E80C50B1F12001BFF4F7AF090728BF36
:1003D000A0E80C5048BF0CC05DF804EB890028BFB2
:1003E00040F8042B08BF704748BF20F8022B11F0DB
:1003F000804F18BF00F8012B704770477047704757
:10040000754600F02BF8AE4605006946534620F0CD
:100410000700854618B020B5FFF7B6FFBDE82040BD
:100420004FF000064FF000074FF000084FF0000BB0
:1004300021F00701AC46ACE8C009ACE8C009ACE863
:10044000C009ACE8C0098D46704710B50446AFF34B
:1004500000802046BDE81040FFF781BF004870478C
:10046000AC00002401491820ABBEFEE726000200C4
:100470007047FEE7704772B6FEE700002DE9F84FBF
:1004800003247A4D00234FF001094FF0B04B4FF099
:100490000F0AE4E009FA03F6324078D00F7907F04A
:1004A0000307012F01D0022F1AD187684FEA430EAC
:1004B000D1F80CC004FA0EF827EA08070CFA0EFC73
:1004C0004CEA070CC0F808C0476891F804C0B7436D
:1004D000CCF3001C0CFA03FC4CEA070CC0F804C077
:1004E0000E79F643B6070BD0C6684FEA43088F680B
:1004F00004FA08FC26EA0C0607FA08F73743C76037
:100500000E7906F00306022E12D1DE080F694FEABB
:10051000437C00EB8606B646366A4FEADC6C0AFA84
:100520000CF807FA0CF726EA08063743CEF82070D5
:100530000F7906684FEA430807F0030704FA08FC3E
:1005400007FA08F726EA0C06374307604E6816F4E8
:10055000403F1CD0464E376847F002073760366888
:100560009F0706F00206009623F0030606F1B04648
:10057000B6463F0FD6F80864DFF8F8800AFA07FCA1
:10058000404526EA0C0603D14FF0000C3AE065E046
:10059000DFF8E4C0604502D14FF0010C32E0DFF833
:1005A000DCC0604502D14FF0020C2BE0DFF8D0C078
:1005B000604502D14FF0030C24E0DFF8C8C060456D
:1005C00002D14FF0040C1DE0DFF8BCC0604502D141
:1005D0004FF0050C16E0DFF8B4C0604502D14FF0D3
:1005E000060C0FE0DFF8A8C0604502D14FF0070C01
:1005F00008E0DFF8A0C0604502D14FF0090C01E02F
:100600004FF00A0C0CFA07FC4CEA060CCEF808C4B2
:100610004F68DBF80060FF0226EA020600D51643A9
:100620005F46CBF80060D1F804C0DBF804605FEAF5
:100630008C2C26EA020600D516437E606E684F6851
:1006400026EA0206BF0300D516436E602E684F6887
:1006500026EA0206FF0300D516432E605B1C0A68DB
:1006600032FA03F67FF416AFBDE8F88F8000005829
:10067000F4440258000002580004025800080258CE
:10068000000C0258001002580014025800180258BA
:10069000001C02580024025801488068704700007E
:1006A000000000240248816802781144816070478C
:1006B00000000024032010B500F078F800F0E0F905
:1006C0000F4A104914681368C4F3032203F00F03A0
:1006D0008A5CC95C02F01F0201F01F01D0400A4A87
:1006E00020FA01F11160094908600F2000F010F8AC
:1006F00008B1012010BD00F02BF8002010BD000053
:10070000184402589A1D0008100000240C00002410
:1007100070B50D4D04462878A0B14FF47A71B1FB45
:10072000F0F00A490968B1FBF0F000F0D8FC48B9D4
:10073000102C07D200222146501E00F017F800208E
:100740006C6070BD012070BD000000240C0000240E
:10075000054808B5016841F002010160006800F039
:100760000200009008BD0000F44402580E4BF0B4A3
:100770001B680D46C3F30223C3F10706042E00D9FC
:100780000426191D072901D2002300E0DB1E0124E5
:1007900004FA06F19C40491E2940641E9940144009
:1007A0002143F0BC01F0B5BA0CED00E0064900F0C1
:1007B000070210B54FF6FF040868044B204040EADA
:1007C00002201843086010BD0CED00E00000FA059F
:1007D000134970B50A68D243520705D5096801F07C
:1007E0000701814213D118E00A6822F00702024390
:1007F0000A60FFF751FF0A4D4FF47A760446083D30
:1008000007E000BFFFF748FF001BB04201D90120FD
:1008100070BD2868C0438004F4D4002070BD00007F
:100820000C4802582DE9F05F04000F467ED0DFF837
:100830003882D8F8000000F00F00B8420CD2D8F887
:10084000001021F00F013943C8F80010D8F800005B
:1008500000F00F00B84269D12078844D40070AD5D6
:100860002069296801F07001884204D9296821F0C3
:1008700070010143296020787C4E361D00070AD59F
:100880006069316801F07001884204D9316821F053
:100890007001014331602078C0060AD5A069316833
:1008A00001F4E061884204D9316821F4E061014338
:1008B00031602078DFF8B4B180060BF1080B0CD55D
:1008C000E1695846DBF8002002F07002914204D939
:1008D000026822F070020A430260207880070AD57D
:1008E000E068296801F00F01884204D9296821F0E5
:1008F0000F01014329602078C0073ED05B49A26800
:100900002868183920F47060104328606068022855
:1009100018D0032819D00968012819D049070029DF
:100920004ADADFF848A1AAF1080A00E044E0DAF860
:10093000002022F007020243CAF80020FFF7ACFEB5
:10094000814612E009688903E9E709688901E6E759
:10095000C905E4E7FFF7A0FEA0EB090141F28830EA
:10096000814202D90320BDE8F09F6168DAF80000F7
:1009700000F03800B0EBC10FECD1207880070AD529
:10098000E068296801F00F01884204D2296821F04B
:100990000F0101432960D8F80010404601F00F0113
:1009A000B9420BD9016821F00F0139430160006899
:1009B00000F00F00B84201D00120D4E720784007B2
:1009C0000AD52069296801F07001884204D229689B
:1009D00021F0700101432960207800070AD5606981
:1009E000316801F07001884204D2316821F0700151
:1009F000014331602078C0060AD5A069316801F44E
:100A0000E061884204D2316821F4E0610143316041
:100A1000207880060CD5E1695846DBF8002002F00A
:100A20007002914204D2026822F070020A4302600E
:100A300000F026F80E492A682B68C2F3032203F05F
:100A40000F038A5CC95C02F01F0201F01F01D04055
:100A5000084A20FA01F11160074908600748006858
:100A6000BDE8F05FFFF754BE002000521844025862
:100A70009A1D0008100000240C000024040000242B
:100A8000454970B545480968434B103B11F03802A1
:100A900008D00111082A03D0102A0BD0182A0BD035
:100AA000084670BD19688906FBD51968C1F3C101F4
:100AB000C84070BD3A4870BD3749374D18310C1DDC
:100AC00024350A68096826682D6802F0030406F0D8
:100AD0000102C1F30511C5F3CC0515FB02F200EECE
:100AE000102AB8EE400AE9B32F4ADFED2E0AB7EE1E
:100AF000001A6CB1DFED2D1A012C01D0022C43D06D
:100B000002EE101A1068F8EE422A81EEA22A1EE0C8
:100B10001C68A40611D51B6801EE901A1168C3F376
:100B2000C103F8EE612AD84001EE900AC1F3080033
:100B3000F8EE611A81EEA22A0BE001EE901ADFEDC9
:100B40001C2A00BFF8EE611A106882EEA12AC0F3D9
:100B5000080001EE900AF8EE611A40EE201A31EE1C
:100B6000810A00E015E022EE000A1068C0F346207A
:100B7000401C00EE900AF8EE600A80EE201ABCEEEF
:100B8000C10A10EE100A70BD01EE901ADFED092ABD
:100B9000D8E7002070BD0000104402580090D00338
:100BA00000366E0100000039304402580024744AB7
:100BB0000024744C001BB74B2DE9F05F04007DD07E
:100BC000FF4F2078FE4D1837DFF8F483103DC00743
:100BD00048D0D8F80000396800F03800102815D047
:100BE000182803D101F0030002280FD06068B0F587
:100BF000803F12D010B1B0F5A02F18D0286820F493
:100C000080302860286820F4802009E0286880036C
:100C100028D560680028D2D024E0286840F48030CD
:100C20002860606888B1FFF737FD064609E028684C
:100C300040F480202860F0E7FFF72EFD801B642839
:100C40007ED828688003F7D50CE0FFF725FD06461F
:100C500005E000BFFFF720FD801B6428F0D828685E
:100C60008003F7D42078800756D5D8F80000DFF845
:100C70005093396810F03800A9F10C090ED01828EB
:100C800001D188070AD0E068A8B3296821F01901CA
:100C900001432960FFF700FD064628E02868400769
:100CA00002D5E06800288AD0E168286820F01900A1
:100CB00008432860FFF7F0FC064606E0D2E000BFDC
:100CC000FFF7EAFC801B0228BAD828684007F7D54E
:100CD000217CD9F8002022F0FE4242EA0161C9F8E5
:100CE000001019E0FFF7D8FC801B0228A8D828685C
:100CF0004007F7D5ECE7FFE7286820F001002860FF
:100D0000FFF7CAFC064604E0FFF7C6FC801B02287A
:100D100096D828684007F7D42078C00646D5D8F87A
:100D20000000DFF89C92396800F03800A9F104094E
:100D3000082812D0182805D101F00300012800E08E
:100D4000CEE00AD0E0690028286820D040F080007A
:100D50002860FFF7A1FC064615E02868C00502D50B
:100D6000E06980287ED194F82010D9F8002022F084
:100D70007C5242EA0161C9F8001017E0FFF78CFCD1
:100D8000801B0228A0D82868C005F7D5EBE720F023
:100D900080002860FFF780FC064604E0FFF77CFC3B
:100DA000801B022890D82868C005F7D42078000757
:100DB00029D583486169643000298146016811D0D2
:100DC00041F001010160FFF767FC064605E000BF46
:100DD000FFF762FC801B022888D8D9F80000800742
:100DE000F6D510E021F001010160FFF755FC064641
:100DF00005E000BFFFF750FC801B022870D8D9F82F
:100E000000008007F6D42078800623D5A06900284A
:100E1000286810D040F480502860FFF73DFC06465B
:100E200005E000BFFFF738FC801B022858D828686F
:100E30008004F7D50EE020F480502860FFF72CFCEA
:100E4000064604E0FFF728FC801B022848D82868E3
:100E50008004F7D42078400751D5DFF86891D9F89D
:100E6000001000E015E141F48071C9F80010FFF7AF
:100E700013FC064605E000BFFFF70EFC801B64284C
:100E80002ED8D9F80000C005F6D54D4EA0686036C2
:100E900001280AD008B1052813D0306820F00100DD
:100EA0003060306820F0040002E0306840F001005B
:100EB0003060A06841F2883A98B1FFF7EDFB8146B7
:100EC0000AE0306840F004003060EEE7FFF7E4FB32
:100ED000A0EB0901514503D830688007F6D50EE034
:100EE00072E0FFF7D9FB814606E000BFFFF7D4FBB5
:100EF000A0EB0901514567D830688007F6D4606AD5
:100F000000287CD0DFF8B8A0D8F800100AF1200A39
:100F10004FF6F87B0AF10408C1F3C2010329AAF1D4
:100F200004096DD00228286820F08070286003D062
:100F3000FFF7B2FB044681E0FFF7AEFB064604E094
:100F4000FFF7AAFB801B022875D828688001F7D418
:100F5000E26A40F2F331386854F8283F884340EAA7
:100F6000021018433860217B4FF4FE0C22894FF0A9
:100F7000FE47208A4902267D521E401EA1F50071BF
:100F800089B2C2F308021143761E0CEA0040014305
:100F9000484607EA06621143CAF80010D9F8001063
:100FA00021F00101C9F80010D8F80030266A23EAC0
:100FB0000B0343EAC601C8F80010D9F8001004E09A
:100FC000104402580048025835E0A26921F00C0193
:100FD0001143C9F800100168E26921F002011143D0
:100FE0000160016841F480310160016841F4003121
:100FF0000160016841F480210160016801E06CE05A
:1010000020E041F001010160286840F08070286014
:10101000FFF742FB044604E0FFF73EFB001B0228FB
:1010200009D828688001F7D557E000BFFFF734FBE7
:10103000001B022802D90320BDE8F09F2868800128
:10104000F4D44AE039680128DAF8000021D0A26A15
:1010500001F0030393421CD1E26AC1F305118A42F5
:1010600017D1216BC0F30802491E8A4211D1616B6E
:10107000C0F34622491E91420BD1A16BC0F3064238
:10108000491E914205D1E16BC0F30660491E8142C1
:1010900001D00120D0E7A16C4646D8F80000C0F38B
:1010A000CC00814219D0D9F800004D4620F0010053
:1010B000C9F80000FFF7F0FA4FEA0007FFF7ECFA73
:1010C000B842FBD0A26C306820EA0B0040EAC200B4
:1010D0003060286840F0010028600020ACE7401E26
:1010E000B0F1807F10B501D3012010BD4FF0E02496
:1010F00060610F21601700F00CFE0020A061072145
:10110000216110BD2DE9F04F90F83C20012A55D007
:10111000012280F83C20D1E90232D1E90054D1E922
:10112000046722F44072D1F830C01A43B1F8188035
:1011300022F48063DFF888A02343026823F400636D
:10114000DFF880902B434FF0000B23F4805343EAE9
:10115000060323F4005343EA070323F4804343EADE
:101160000C0323F47023524543EA084301D04A4557
:1011700003D1CC6923F080532343524501D04A4523
:1011800016D10F8D23F47003D1E90856524543EA76
:10119000075323F0807343EA050323F0007343EA07
:1011A000060301D04A4503D1C96A23F000530B431B
:1011B000536480F83CB00020BDE8F08F0220FBE7CC
:1011C0000000014000040140F0B590F83C20012AE5
:1011D00041D0224E012480F83C40022280F83D207C
:1011E00002681F4D5368B242D2F808C001D0AA422B
:1011F00003D14F6823F470033B430F6823F070035F
:101200001F4357600268B24219D0B2F1804F16D026
:10121000144B9A4213D0144B9A4210D0134B9A425B
:101220000DD0AA420BD0124B9A4208D0114B9A42D1
:1012300005D0114B9A4202D0104B9A4204D18968D2
:101240002CF0800319439160002180F83D4080F824
:101250003C100846F0BD0220F0BD00000000014037
:10126000000401400004004000080040000C004061
:10127000001800400040014000E0004000E4004051
:1012800030B587B0044614216846FFF78FF824680C
:101290000021184D0220164A0123AC4211D11468D6
:1012A00044F010041460126802F0100205924FF42A
:1012B00008520092CDE90101CDE903130E486946B9
:1012C00012E0B4F1804F11D1146844F001041460AD
:1012D000126802F00102059205220092CDE9010197
:1012E000CDE9031305486946FFF7C8F807B030BDDC
:1012F000E04402580000014000100258000002586B
:1013000070B5044690F83C0000260D4601280BD02D
:10131000012084F83C000C2A4AD007DC82B1042A60
:1013200020D0082A06D131E0022070BD102A53D007
:10133000142A63D00126002084F83C00304670BD9A
:10134000206800F049FB2068816941F00801816153
:101350002068816921F00401816120682A6981691E
:10136000114311E0206800F08BFB2068816941F493
:10137000006181612068816921F480618161206858
:101380002969826942EA01218161D4E7206800F07D
:10139000C3FB2068C16941F00801C1612068C169CF
:1013A00021F00401C16120682A69C169114311E07B
:1013B000206800F0FDFB2068C16941F40061C16153
:1013C0002068C16921F48061C16120682969C2690E
:1013D00042EA0121C161AEE7206800F025FC2068E7
:1013E000416D41F0080141652068416D21F0040123
:1013F000416520682A69416D114311E0206800F0C1
:101400004DFC2068416D41F4006141652068416DEB
:1014100021F48061416520682969426D42EA012119
:10142000416588E710B5040003D094F83D0010B181
:1014300007E0012010BD002084F83C00204600F0A9
:1014400023F8022084F83D002068211D00F04AFAAC
:10145000012084F8480084F83E0084F83F0084F8B6
:10146000400084F8410084F8420084F8430084F886
:10147000440084F8450084F8460084F8470084F866
:101480003D00002010BD000008B5006809498842F1
:1014900001D1094804E0B0F1804F09D1064808386D
:1014A000016841F001010160006800F00100009056
:1014B00008BD000000000140F044025830B5044669
:1014C0004FF0020269B1042912D0082917D00C2963
:1014D0001CD0102921D094F84300012824D00120E9
:1014E00030BD94F83E000128F9D184F83E201DE07B
:1014F00094F83F000128F2D184F83F2016E094F8D8
:1015000040000128EBD184F840200FE094F841001E
:101510000128E4D184F8412008E094F84200012831
:10152000DDD184F8422001E084F8432001222068C4
:1015300000F044FA1E4920681E4A1F4B884209D019
:10154000904207D0984205D01C4DA84202D01C4DB5
:10155000A84203D1456C45F40045456420688842A3
:1015600018D0B0F1804F15D01649884212D01649D4
:1015700088420FD0154988420CD090420AD01449B5
:10158000884207D0984205D01249884202D01249B9
:10159000884207D18168114A1140062906D0B1F569
:1015A000803F03D0016841F001010160002030BD9F
:1015B000000001400004014000400140004401409F
:1015C000004801400004004000080040000C0040BA
:1015D0000018004000E0004000E400400700010067
:1015E000FEE7000000B587B014216846FEF7DEFE76
:1015F0001248016841F080010160016801F080013A
:101600000591016841F001010160016801F00101EB
:101610000591016841F01001016000684FF400413C
:1016200000F01000059000200290CDE90010044861
:101630006946FEF723FF07B000BD0000E0440258F2
:101640000000025810B598B000241C210DA8149475
:1016500015941694FEF7AAFE34216846FEF7A6FEFE
:10166000274845F6C0522549C0E90014C0E90242A6
:10167000046144618461FFF7D5FE08B1FEF7FBFE0B
:101680001F4814A9149415941694FFF79DFD08B1F2
:10169000FEF7F1FE0DAA42F6E061602082E8130039
:1016A000174800220DA91094119412941394FFF777
:1016B00027FE08B1FEF7DFFE114808220DA9FFF74B
:1016C0001FFE08B1FEF7D7FE4FF4005000940394BC
:1016D00001030194CDE904400294CDE90841084892
:1016E000694606940A940C94FFF70CFD08B1FEF7C6
:1016F000C2FE0348FFF7C4FD18B010BD0000014052
:101700001400002410B58AB0002468461C210794F8
:1017100008940994FEF74AFE194845F6C0514FF067
:101720008042C0E90024C0E9024104618461FFF7FE
:1017300079FE08B1FEF79FFE114807A907940994A6
:10174000FFF742FD08B1FEF796FE602042F6E06129
:101750008DE813000A48002269460494FFF7D0FD83
:1017600008B1FEF788FE064808226946FFF7C8FD63
:1017700008B1FEF780FE0248FFF782FD0AB010BDF7
:1017800060000024FEE7FEE770477047FEF78ABF5F
:1017900030B59DB04C216846FEF708FE202113A805
:1017A000FEF704FE0220FFF713F81D48016821F43C
:1017B000404101600168002401F440411B9101682F
:1017C0008904FCD502200A9028230990C203012134
:1017D0000C25CDE90012CDE90B03CDE90D10CDE9C3
:1017E00010540F9068461294FFF7E6F908B172B6EC
:1017F000FEE740201A9008230501CDE9163013AB0F
:10180000CDE918053F21032283E8160013A81146ED
:10181000FFF708F8002801D072B6FEE71DB030BD12
:10182000184802582748F0B5274A016841F470016A
:101830000160106800F00F00072804D2106820F043
:101840000F00C01D106021490020204C10340B688F
:101850001F4D43F001030B6020600B682B400B60B1
:10186000136803F00F03072B04D9136823F00F0349
:10187000DB1D1360154C174A1834174B261D371DF6
:101880002060124C154D28343060261D3860371DFD
:1018900023603B1D35601C1D3A60251D2E1D186000
:1018A000331D22602860326018600A6843F2D20457
:1018B000064B0B4D22F4802260330A6018602C60C6
:1018C000F0BD000088ED00E0002000520044025806
:1018D0007FEDF6EA80020101000202020000FF0132
:1018E000004000522DE9F0472A4B4FF0804A2A4D24
:1018F00002689842294E2A4F2A4C09D0504507D0F9
:10190000A84205D0B04203D0B84201D0A04205D1D0
:10191000D1F804C022F070024CEA0202DFF888C05D
:10192000DFF888809842DFF8889015D0504513D0B2
:10193000A84211D0B0420FD0B8420DD0A0420BD077
:10194000604509D0404507D0484505D0194DA8420B
:1019500002D0194DA84203D1CD6822F440722A4327
:101960004D6922F080022A43026098428A68C2626E
:101970000A68826207D0A04205D0604503D0404586
:1019800001D0484501D10969016301214161BDE8E8
:10199000F087000000000140000400400008004003
:1019A000000C0040000401400040014000440140A0
:1019B0000048014000E0004000E4004010B5046A27
:1019C000012301F01F018B409C4304628A40016A9D
:1019D0001143016210BD00002DE9F04F026ADFF8EB
:1019E0008880DFF8889022F00102DFF884A0DFF819
:1019F00084B0214F0262DFF884C0066A42688369BE
:101A000026F002060D68B8428C6803EA0C0323F046
:101A1000030344EA060445EA030507D0404505D020
:101A2000484503D0504501D0584505D1CB6824F036
:101A30000804234323F00404B84207D0404505D0EE
:101A4000484503D0504501D0584505D122F4407691
:101A5000D1E9053233431A434260856149684163E5
:101A60000462BDE8F08F0000000401400040014026
:101A70000044014000480140000001408FFFFEFF8C
:101A8000F0B5026A1E4E1F4C22F01002DFF878E01B
:101A90000262056A4368826925F02005D1F808C012
:101AA000A0420F6802EA060222F4407245EA0C15D1
:101AB00042EA072201D0704506D1CE6825F08005A4
:101AC00045EA061525F04005A0420AD0704508D029
:101AD0000E4CA04205D00E4CA04202D00D4CA042AC
:101AE00007D1D1E9054623F4406343EA840343EA7E
:101AF000860343608261496881630562F0BD00002E
:101B0000FF8FFFFE00000140000401400040014043
:101B10000044014000480140F0B5026A1E4F1F4ECC
:101B200022F48072DFF878E00262056A4368C269D5
:101B300025F40075D1F808C0B0420C6802EA07022B
:101B400022F0030245EA0C2544EA020401D0704564
:101B500006D1CF6825F4006242EA072222F48065AC
:101B6000B0420AD0704508D00E4A904205D00E4AC5
:101B7000904202D00D4A904207D123F44052D1E95D
:101B8000053642EA031242EA06134360C46149681B
:101B9000C1630562F0BD00008FFFFEFF0000014041
:101BA0000004014000400140004401400048014061
:101BB000F0B5026A174B164F22F480529842026227
:101BC000046A4268C36924F400548E680D6803EA0D
:101BD000070323F4407344EA063443EA05230BD099
:101BE0000D4DA84208D00D4DA84205D00C4DA8427D
:101BF00002D00C4DA84204D14D6922F4804242EA41
:101C000085124260C361496801640462F0BD00004E
:101C1000FF8FFFFE00000140000401400040014032
:101C20000044014000480140F0B5026ADFF854C0AA
:101C300022F480320262056A4268446D25F4003560
:101C40000E896045104F0B6804EA070445EA064513
:101C500043EA04030BD00D4CA04208D00C4CA04228
:101C600005D00C4CA04202D00B4CA04204D14C69D0
:101C700022F4803242EA0422426043654968816569
:101C80000562F0BD000001408FFFFEFF000401402F
:101C9000004001400044014000480140F0B5026AA4
:101CA000DFF854C022F480120262046A4268436D75
:101CB00024F400140E896045104F0D6803EA0703F1
:101CC00044EA065443EA05230BD00D4DA84208D040
:101CD0000C4DA84205D00C4DA84202D00B4DA84295
:101CE00004D14D6922F4802242EA85224260436594
:101CF0004968C1650462F0BD00000140FF8FFFFE2E
:101D000000040140004001400044014000480140FF
:101D1000FEE7090700284FEA116104DB00F1E0202B
:101D200080F80014704700F00F0000F1E02080F808
:101D3000141D7047FEF7BEFCFFF72AFDFFF752FCAB
:101D4000FFF780FCFFF7DEFC0D480021FFF7B6FB34
:101D50000B480821FFF7B2FB0A480021FFF7AEFB52
:101D600008480821FFF7AAFB074942F6E060074B45
:101D7000064A08334863C86310601860FEE7000035
:101D800014000024600000240000014034040040DE
:101D90004FF04070E1EE100A7047000000000102B1
:101DA000030401020304060708090000CC1D000813
:101DB000000000241400000008030008E01D0008D3
:101DC00014000024FC0600002403000801000000A9
:101DD00010000000000000000090D0030090D0032D
:04000005080002CD20
:00000001FF
