:020000040800F2
:10000000E80700246D0300085B520008154600084D
:1000100059520008FD060008FD56000800000000C7
:10002000000000000000000000000000A3550008D0
:10003000450B0008000000005D520008A5550008AF
:100040008703000887030008870300088703000868
:100050008703000887030008870300088703000858
:1000600087030008870300088703000801070008CA
:100070008703000887030008870300088703000838
:100080008703000887030008870300088703000828
:100090008703000887030008870300088703000818
:1000A0008703000887030008870300088703000808
:1000B00087030008870300088703000887030008F8
:1000C00087030008870300088703000887030008E8
:1000D00087030008870300088703000887030008D8
:1000E000870300088703000800000000870300085A
:1000F00087030008870300088703000887030008B8
:1001000087030008870300088703000887030008A7
:100110008703000887030008870300088703000897
:100120008703000887030008870300088703000887
:100130008703000887030008870300088703000877
:1001400000000000000000000000000000000000AF
:100150008703000887030008870300088703000857
:100160008703000887030008870300088703000847
:1001700087030008870300088703000800000000C9
:100180008703000887030008870300088703000827
:100190008703000887030008870300088703000817
:1001A0008703000887030008870300080000000099
:1001B00087030008870300088703000887030008F7
:1001C000870300088703000800000000000000000B
:1001D000000000000000000087030008000000008D
:1001E000000000000000000000000000000000000F
:1001F00000000000000000008703000887030008DB
:100200008703000887030008000000008703000838
:100210008703000887030008870300088703000896
:1002200087030008000000008703000800000000AA
:100230008703000887030008000000008703000808
:100240008703000887030008870300088703000866
:100250008703000887030008870300088703000856
:100260008703000887030008870300088703000846
:1002700087030008870300088703000800000000C8
:100280008703000887030008870300088703000826
:10029000000000008703000887030008000000003A
:1002A0000000000087030008870300088703000898
:1002B00087030008870300088703000887030008F6
:1002C00087030008870300088703000800F002F88E
:1002D00000F03CF80AA090E8000C82448344AAF1A4
:1002E0000107DA4501D100F031F8AFF2090EBAE8A2
:1002F0000F0013F0010F18BFFB1A43F0010318475A
:10030000D0BC0000F0BC0000103A24BF78C878C10F
:10031000FAD8520724BF30C830C144BF04680C600B
:10032000704700000023002400250026103A28BF53
:1003300078C1FBD8520728BF30C148BF0B60704757
:100340001FB505F069FA1FBD10B510BD00F058F8D3
:100350001146FFF7F5FF05F0E3F900F076F803B476
:10036000FFF7F2FF03BC00F07DF80000094880476A
:1003700009480047FEE7FEE7FEE7FEE7FEE7FEE787
:10038000FEE7FEE7FEE7FEE704480549054A064B9F
:10039000704700003D560008CD020008E801002427
:1003A000E8070024E8030024E80300244FF00002DB
:1003B00000B5134694469646203922BFA0E80C505B
:1003C000A0E80C50B1F12001BFF4F7AF090728BF36
:1003D000A0E80C5048BF0CC05DF804EB890028BFB2
:1003E00040F8042B08BF704748BF20F8022B11F0DB
:1003F000804F18BF00F8012B704770477047704757
:10040000754600F02BF8AE4605006946534620F0CD
:100410000700854618B020B5FFF7B6FFBDE82040BD
:100420004FF000064FF000074FF000084FF0000BB0
:1004300021F00701AC46ACE8C009ACE8C009ACE863
:10044000C009ACE8C0098D46704710B50446AFF34B
:1004500000802046BDE81040FFF781BF004870478C
:100460008801002401491820ABBEFEE726000200E7
:100470007047000010B5324904460068884202D037
:10048000304A904202D1D1F8080302E02E48D0F859
:10049000080310F4403F10D003F00AFB6168B1F587
:1004A000803F06D0B1F5003F03D0B1F5403F26D1E3
:1004B00001E0090C17E0800821E000214FF4002042
:1004C00002F0DCFB61688A03920B18D18A140C2AB3
:1004D00015D2DFE802F0140606060606060B0D0F1D
:1004E0001113890C4900B0FBF1F008E0000906E0A7
:1004F000400904E0800902E0C00900E0000A134955
:100500004008884204D82068816821F4407108E0DE
:100510000F49884207D82068816821F4407141F46E
:100520008071816010BD0B4988422068816804D8C1
:1005300021F4407141F40071F3E741F44071F0E7B8
:10054000002002400021024000600258105E5F005F
:1005500020BCBE0040787D0110B5846B216E11F087
:10056000500F06D0216EC90625D5204600F09EFE0C
:1005700010BD206E40F400702066206801680907F5
:1005800007D504F043FD90B12068C068800403D50E
:100590000DE0C06880070AD1206E20F480702066CC
:1005A000206EC00403D4206E40F001002066204677
:1005B00000F07AFE10BDA16DC96CBDE8104008477F
:1005C00010B5806B016E41F040010166416E41F053
:1005D0000401416600F06AFE10BD10B5806B00F0AA
:1005E00064FE10BD70B50446006881688268C1F37E
:1005F000400112F0010F28D039BB816801F00D01D4
:10060000012914D18168124A1140891C8160216836
:100610000320086002F064F8054612E002F060F87A
:10062000401B02280DD920688068C00709D0206EC1
:1006300040F010002066606E40F00100606601200E
:1006400070BD20688068C007E8D1002070BD000040
:10065000C0FFFF7F70B504460068816811F0010F8C
:1006600040D18168204A11422DD18168D54329406B
:10067000491C816002F034F81C49064620681C4B76
:10068000884201D0984201D11A4A00E01A4A926881
:10069000984202F01F0200D0014681421DD0E2B113
:1006A00020E0816811F0010F03D181682940491CC5
:1006B000816002F015F8801B02280ED920680068BE
:1006C000C043C00709D0206E40F010002066606E65
:1006D00040F001006066012070BD20680168C943D8
:1006E000C907DED1002070BD3F000080002002401D
:1006F000002102400023024000630258FEE7000090
:10070000014801F027B8000088000024294A016848
:1007100091423AD0274A1832914236D0254A303297
:10072000914232D0234A483291422ED0214A60323F
:1007300091422AD01F4A7832914226D01D4A9032E7
:10074000914222D01B4AA83291421ED01A4A9142AD
:100750001BD0194A1832914217D0174A30329142B1
:1007600013D0154A483291420FD0134A6032914259
:100770000BD0114A7832914207D00F4A9032914201
:1007800003D00D4AA832914211D1CAB21823103AAF
:10079000B2FBF3F26FF30901032A02F00703074AE1
:1007A000D25CC26500D9091D81650846704721F0F9
:1007B000FF01F9E71000024010040240A287000880
:1007C00030B5224A012301689142CAB21BD01F4CA6
:1007D0001434A14217D01D4C2834A14213D01B4C15
:1007E0003C34A1420FD0194C5034A1420BD0174CCD
:1007F0006434A14207D0154C7834A14203D0134C85
:100800008C34A1420CD11421114C083AB2FBF1F105
:100810000F4A803201F01F0504EB8101AB4010E06C
:100820000C4D1824103A0D44B2FBF4F1A82D00D859
:100830000831094A01F01F0402EB8101064AA34076
:100840008032603080E80E0030BD0000085402584D
:1008500000580258F0FBFDBF0008024010B50279B5
:10086000531E072B2DD8174C0168A1421BD0154CE5
:100870001434A14217D0134C2834A14213D0114C88
:100880003C34A1420FD00F4C5034A1420BD00D4C40
:100890006434A14207D00B4C7834A14203D0094CF8
:1008A0008C34A14203D10849074C443102E0074986
:1008B000064C443104EB8202C0E91B21012199401E
:1008C000416710BD08540258FC580258FC08024009
:1008D00010B583694FF0C074826A0146002053B19D
:1008E000B3F5005F15D072B1012A0CD0022A0AD0EC
:1008F000032A09D104E01AB1012A06D0022A03D141
:10090000C96AC90100D5012010BDC96AA142FAD047
:1009100010BD002AF7D0012AF2D0022AF3D0032A10
:10092000F3D010BD2DE9F04F804E804FDFF8FC91E1
:100930001836DFF8F8A148370468856D0AF1300AE7
:10094000DFF8ECB14C45DFF8ECC1DFF8ECE16DD03D
:10095000B4426BD0544569D0BC4267D0DFF8D08137
:10096000A8F11808444561D05C455FD064455DD06E
:1009700074455BD0DFF8C481444557D0DFF8BC81B3
:1009800008F11808444551D0DFF8B08108F130086B
:1009900044454BD0DFF8A48108F14808444545D0D0
:1009A000DFF8988108F1600844453FD0DFF88C817A
:1009B00008F17808444539D0DFF8808108F19008C3
:1009C000444533D0DFF8748108F1A80844452DD0A0
:1009D000DFF86C81444529D0DFF8648108F1140800
:1009E000444523D0DFF8588108F1280844451DD03C
:1009F000DFF84C8108F13C08444517D0DFF840810E
:100A000008F15008444511D0DFF8348108F164083A
:100A100044450BD0DFF8288108F17808444505D01B
:100A2000DFF81C8108F18C08444509D1D0E9194848
:100A3000C4F80480C46E1CB1D0E91C48C4F804801A
:100A400004684C452ED0B4422CD054452AD0BC4228
:100A500028D0374E183EB44224D05C4522D064459D
:100A600020D074451ED0354EB4421BD0334E1836BC
:100A7000B44217D0314E3036B44213D02F4E4836E0
:100A8000B4420FD02D4E6036B4420BD02B4E783688
:100A9000B44207D0294E9036B44203D0274EA83630
:100AA000B44215D190F85C603F2406F01F06B440B4
:100AB000AC600468256825F4802525602EE09A60E6
:100AC0000068C160BDE8F08F99600068C260F9E716
:100AD0001B4EB4421BD01A4E1436B44217D0184ED7
:100AE0002836B44213D0164E3C36B4420FD0144EC2
:100AF0005036B4420BD0124E6436B44207D0104E7A
:100B00007836B44203D00E4E8C36B442DAD190F827
:100B10005C60012406F01F06B4406C6004686360EA
:100B20008368402B0368CFD1C9E700001000024062
:100B300088000240A0000240B800024010040240B9
:100B400008540258704772B6FEE70000F8B5002757
:100B5000044615460E46009790F85C0001280BD01D
:100B6000012084F85C002046FFF73CFD0100206E68
:100B700004D040F010002DE00220F8BD20F4885091
:100B800040F002002066206806F4803205F08043C1
:100B9000134D1A4383682B401A4342F0004282608F
:100BA000104A20680EE0009B5B1C0093934209D31F
:100BB000206E84F85C7020F0020040F01000206687
:100BC0000120F8BD8368DB0FEDD1206E20F002001C
:100BD00040F001002066084684F85C70F8BD000013
:100BE000C0FFFE3F00F8C3252DE9F0470F4690F8FF
:100BF0005C109CB0044601294FF0000915D0002676
:100C0000DFF8F880012084F85C00189619962168B6
:100C100041450ED13A4D0095284604F0F3F982463D
:100C2000206804F0EFF960B10EE002201CB0BDE8CE
:100C3000F087206E84F85C6040F020002066012080
:100C4000F4E7BAF1000F09D0216E4FF0010941F02D
:100C500020002066484684F85C60E7E7206841464B
:100C6000884201D0A84201D1264800E0264840F63B
:100C70001F72D7F800C0254BBCF1000F23D0D0F86D
:100C800008C0D7F804802CF4404C4CEA080CC0F89B
:100C900008C0D4F800C08C4501D0AC4507D18968A4
:100CA000AB6801F0010103F00103194302E0996808
:100CB00001F001010029CDD1BD683968836829435D
:100CC0009343194317E0876827F4404787602768F4
:100CD0008F4201D0AF4207D18968AB6801F00101B2
:100CE00003F00103194302E0996801F001010029B2
:100CF000B0D1816891438160ACE7000000200240E0
:100D000000210240002302400063025800600258A4
:100D10002DE9F84F4FF0000B0446FD4E0D46CDF87F
:100D200000B0DA4690F85C00FA4F012808D04FF086
:100D3000010984F85C90206804F060F918B152E26F
:100D40000220BDE8F88F2068B0420DD02968C26942
:100D50000B0327D091FAA1F1B1FA81F101F01F0341
:100D600009FA03F10A43C261D5E900124FF00C0CF5
:100D700020681F23C1F384610CEA921C02F01F0259
:100D8000604493409140026B9A430A430263206897
:100D900004F034F98046206804F02CF958EA000089
:100DA00003D048E1C1F38461D8E7AA6829682068C4
:100DB00004F034F92068B04204D1C2686969C2F312
:100DC000C1020BE0D44A1268B9EB127F02D0C168AD
:100DD000C90605D4C2686969C2F38202520004E000
:100DE000C268696902F01002520891402A69042A17
:100DF0005AD02B6800EB8202B04202F1600207D1A8
:100E000003F0F8401368084340F00040106008E029
:100E1000D2F800C003F0F84008430CF00041014351
:100E200011602068B0421CD12A69E96900EB820098
:100E3000026E22F080720A43026695F82010206844
:100E40002A6901290AD00021B042AAD100EB820010
:100E5000026E22F000720A430266ECE04FF000716D
:100E6000F2E795F821102A69012917D05FF00001F7
:100E700000EB8200026E22F000420A430266287EE6
:100E800021682A6901280CD000200B6902F01F029A
:100E9000904023F4F04202430A61CCE04FF000415D
:100EA000E6E74FF40060F0E7B04273D1002104F0B0
:100EB0009BF8000320684FF000016DD004F094F817
:100EC00090FAA0F0B0FA80F12868020369D090FA95
:100ED000A0F0B0FA80F0814204D1002220681146CF
:100EE00004F0ACF82068012104F07EF800032068CB
:100EF0004FF0010158D004F077F890FAA0F0B0FA62
:100F000080F12868020354D090FAA0F0B0FA80F083
:100F1000814204D120680022012104F08FF820686A
:100F2000022104F061F8000320684FF0020143D071
:100F300004F05AF890FAA0F0B0FA80F128680203A1
:100F40003FD090FAA0F0B0FA80F0814204D120683E
:100F50000022022104F072F82068032104F044F812
:100F6000000320684FF003012ED004F03DF890FA02
:100F7000A0F0B0FA80F1286802032AD090FAA0F01D
:100F8000B0FA80F0814256D120680022032104F09B
:100F900055F850E020E0FFE704F026F8C0F3846144
:100FA00092E7C0F3846096E704F01EF8C0F3846112
:100FB000A7E7C0F38460ABE704F016F8C0F38461E0
:100FC000BCE7C0F38460C0E704F00EF8C0F38461AE
:100FD000D1E7C0F38460D5E7016E2A7801F0F841CB
:100FE000B1EB826F03D1016E21F0004101662068F0
:100FF0002978426E02F0F842B2EB816F03D1416E64
:1010000021F00041416620682978826E02F0F842A2
:10101000B2EB816F03D1816E21F0004181662068BF
:101020002978C26E02F0F842B2EB816F03D1C16E33
:1010300021F00041C1662068816811F0010F71D173
:10104000364AB042EB6829680FD1D0F8B0C003F03F
:101050001808C1F3130322FA08F20A402CEA030C21
:101060004CEA020CC0F8B0C00EE0D0F8C0C003F0EB
:101070001808C1F3130322FA08F20A402CEA030C01
:101080004CEA020CC0F8C0C02548E96881427DD115
:10109000286801031BD090FAA0F1B1FA81F1491C34
:1010A00001F01F0109294FEA00313CD8002911D075
:1010B00090FAA0F1B1FA81F101F1010101F01F01F3
:1010C00009FA01F209D100BFC0F3846109E0C0F35D
:1010D0008461E4E7C0F38461EEE790FAA0F1B1FA2D
:1010E00081F101F1010101F01F0142EA816102D1A8
:1010F000C0F3846003E090FAA0F0B0FA80F000F151
:10110000010000F01F0000EB400041EA005140E008
:1011100000600258002102400010005CFFFF0F0039
:101120000000FF4765E000290FD000BF90FAA0F152
:10113000B1FA81F101F1010101F01F0109FA01F297
:1011400006D100BFC0F3846106E0C0F38461F1E71B
:1011500090FAA0F1B1FA81F101F1010101F01F0152
:1011600042EA816102D1C0F3846003E090FAA0F00A
:10117000B0FA80F0434A00F1010000F01F0000EBDC
:10118000400002EB005041EA000100E005E041F0C0
:101190000071AA68206803F041FFD5F800C0BCF1D7
:1011A000000F26DA384B20683849DFF8E49098427F
:1011B00001D0B84201D10A4600E04A4692689842FE
:1011C00002F0E07201D0B84209D19D68D7F80880DA
:1011D00005F0010508F0010845EA080502E0B568D8
:1011E00005F001054DB1216E4FF0010A41F02000DC
:1011F0002066504684F85CB0A3E5264DAC451CD172
:1012000015021AD4B042F4D1984202D0B84200D0AC
:1012100049468B6842F4000023F0E07202438A6082
:101220001E491D480968B1FBF0F04000801C00E039
:10123000401E00900028FBD1DBE7194DAC450CD1D6
:10124000D5010AD4B042D4D1984202D0B84200D0DD
:1012500049468B6842F080700EE0124DAC45C8D113
:101260005502C6D4B042C4D1984202D0B84200D090
:1012700049468B6842F4800023F0E07202438A60A2
:10128000B7E70000000020FE0020024000230240DB
:1012900000630258000052C7400D030010000024F4
:1012A000000021C3000084CB7047704770470000E6
:1012B0002DE9F8434FF0000504002E46009502D0BA
:1012C000206E18B108E00120BDE8F883204600F048
:1012D00043F9656684F85C5020688168C1F3407109
:1012E00019B181688E4A1140816020688168C1F31C
:1012F000007181B981688B4A114041F08051816051
:101300008A4989480968B1FBF0F0401C00E0401EA2
:1013100000900028FBD120688168C1F3007141B9B9
:10132000216E012641F010012166616E41F001013C
:10133000616603F063FE216EC90600D420B1206E01
:10134000012640F01000E0E0206E20F4807040F0B4
:101350000200206620688168754D11F0010F1ED1D2
:10136000744B754A984201D0904207D199689768AA
:1013700001F0010107F00107394302E0A96801F01B
:10138000010161B9984201D0904201D16B4800E05F
:101390006B488268616822F47C120A43826021688B
:1013A000A9421FD1637ED4E90207E26B5B033A4393
:1013B000082805D00C280FD01C280FD018280FD0D3
:1013C0005FF0000000F00C0794F8200043EA4703A8
:1013D0001A4342EA00400FE00420F3E70820F1E757
:1013E0001C20EFE7627E94F82030A768E06B520380
:1013F00042EA03423843104394F82020012A04D1E2
:10140000A28C504B03EB42421043A26A2AB1E36A1A
:1014100002F47872024343EA0200CA68A9420BD17F
:10142000494B1A400243CA602068626B016921F08F
:1014300040611143016103E0444B1A400243CA601A
:10144000206803F0DBFD0746206803F0D3FD074367
:101450004ED12068A946484506D1217E94F838200F
:10146000890341EA420103E0227E216B41EA823195
:10147000C26844F203039A430A43C26094F84400EA
:101480000128206803D0016921F0010122E04845CC
:101490000ED1D4E9121CD4E9143502692C4F41EA6B
:1014A0000C012B433A401943114341F0010111E073
:1014B000D4E91317B4F848C0DFF89880636D026967
:1014C00008EB0C4C224D394343EA0C036D1E2A40B5
:1014D0001943114301612068236C026922F07042B4
:1014E0001A4302612068484502D02046FEF7C2FF39
:1014F0002069012820680BD0016B21F00F010163E6
:10150000206E20F0020040F0010020663046DBE64D
:10151000E269016B521E21F00F011143EFE7000059
:10152000C0FFFF5FC0FFFF7F400D030010000024DD
:1015300000600258002002400021024000230240C7
:10154000006302580000FEFF0740F0FF03C0F0FFF9
:101550001FF800FC0100FFFFF0B5B5B006461421EE
:101560002EA8FEF723FFB8216846FEF71FFF294982
:10157000306888424CD1022000224FF400210091B3
:10158000CDE901201023154606AACDE90330C02479
:10159000059082E8310068460995289501F0BCFC69
:1015A00008B1FFF7D0FA1C48016841F02001016042
:1015B000006800F02000339017480830016841F0BF
:1015C0000101016000682EAA032100F001003390A0
:1015D000202082E8230011482EA900F06DFF104C56
:1015E000092110484FF4807C021584E82300D700BD
:1015F000C4E90352C3142046C4E907C56562C4E9BF
:10160000053700F01BFC08B1FFF79DFAB465A6632F
:1016100035B0F0BD00200240D84402580000025806
:1016200088000024100002402DE9F047404E044697
:1016300000689146DFF8FC808A46B04201D0404500
:1016400001D13D4900E03D49896801F01F0503F0E3
:10165000D5FC00286AD194F85C00012866D00120EE
:101660004FF0000784F85C0025B1052D02D0092D4C
:1016700000D003E02046FEF7EDFF18B184F85C705F
:10168000BDE8F087216E40F601632068994340452C
:1016900041F48071216600D00646864200D01DB913
:1016A000206E20F480102066206EC00404D5606E89
:1016B00020F00600606600E067661C20A26D214BEA
:1016C0001F49D363A36D204A1A64A36D1F4ADA64CD
:1016D0002268106084F85C702068426842F0100252
:1016E0004260206888420DD194F83810C26822F018
:1016F000030242EA4102C2602068C16841F0010170
:10170000C16005E0C268216B22F003020A43C26097
:1017100021684B46A06D5246403100F06DFD2168B6
:101720000B4B8A681A40121D8A60A9E70220A7E7BE
:1017300000200240002102400023024000630258C2
:101740000060025859050008DB050008C1050008C3
:10175000C0FFFF7F2DE9FC5F0446F74E0020DFF855
:10176000D88300904FF41652F44808F11808A56D7C
:10177000DFF8C493DFF8C0A3016809F130092068DD
:101780000AF1480AB1FBF2F1B04201912F68D5F895
:1017900000C0DFF8ACB335D04146884232D048456E
:1017A00030D050452ED058452CD0E54918318842CC
:1017B00028D0E3493031884224D0E1494831884279
:1017C00020D0E04988421DD0DE491831884219D026
:1017D000DC493031884215D0DA494831884211D08D
:1017E000DFF860E30EF1600E70450BD0D54A783219
:1017F000904207D0D34B9033984203D0D149A831BF
:1018000088427DD194F85C20082102F01F0201FA81
:1018100002F23A424AD0B04232D0404530D0484538
:101820002ED050452CD058452AD0C54A1832904267
:1018300026D0C34A3032904222D0C14A4832904228
:101840001ED0C04A90421BD0BE4A1832904217D0D8
:10185000BC4A3032904213D0BA4A483290420FD03C
:10186000B84A603290420BD0B64A7832904207D0E4
:10187000B44A9032904203D0B24AA832904203D187
:10188000026802F0040202E0026802F008026AB193
:10189000026822F00402026094F85C0000F01F006D
:1018A0008140A960606D40F00100606594F85C00C3
:1018B000012100F01F008140394240D02068B04231
:1018C00034D0404532D0484530D050452ED05845D0
:1018D0002CD09B4A1832904228D0994A30329042FC
:1018E00024D0974A4832904220D0964A90421DD048
:1018F000944A1832904219D0924A3032904200E015
:10190000AFE113D08F4A483290420FD08D4A6032F7
:1019100090420BD08B4A7832904207D0894A90325D
:10192000904203D0874AA83290427DD1406910F09E
:10193000800F04D0A960606D40F00200606594F8EB
:101940005C00042100F01F00814039423ED0206835
:10195000B04232D0404530D048452ED050452CD0F2
:1019600058452AD0764A1832904226D0744A3032EE
:10197000904222D0724A483290421ED0714A904220
:101980001BD0704A1832904217D06E4A30329042C3
:1019900013D06C4A483290420FD06A4A603290426B
:1019A0000BD0684A7832904207D0664A9032904213
:1019B00003D0644AA83290424ED1006810F0020F62
:1019C00004D0A960606D40F00400606594F85C008C
:1019D000102100F01F008140394258D02068B042E9
:1019E00034D0404532D0484530D050452ED05845AF
:1019F0002CD0534A1832904228D0514A303290426B
:101A000024D04F4A4832904220D04E4A90421DD0B6
:101A10004C4A1832904219D04A4A3032904215D07E
:101A2000484A4832904200E014E00FD0454A603204
:101A300090420BD0434A7832904207D0414A9032CC
:101A4000904203D03F4AA832904207D1006800F08C
:101A5000080006E0006872E70068B7E7006800F079
:101A60000400A0B1A96020680168490304D500689A
:101A7000000308D5A16C07E00168C90503D401681B
:101A800021F008010160216C09B12046884794F8D3
:101A90005C00202100F01F008140394279D020688D
:101AA000B04232D0404530D048452ED050452CD0A1
:101AB00058452AD0224A1832904226D0204A303245
:101AC000904222D01E4A483290421ED01D4A904277
:101AD0001BD01C4A1832904217D01A4A303290421A
:101AE00013D0184A483290420FD0164A60329042C2
:101AF0000BD0144A7832904207D0124A903290426A
:101B000003D0104AA832904203D1006800F01000C0
:101B100002E0006800F00200B0B3A96094F835005C
:101B20000428206801680FD049037ED500680003AF
:101B30002BD4616C2AE00000100002401000002449
:101B4000700002401004024021F01601016020687C
:101B5000416921F080014161206C08B9A06C20B17D
:101B60002068016821F00801016094F85C303F2191
:101B7000012003F01F0300229940A96084F835007A
:101B800084F83420216D65E003E0E16B09B1204663
:101B90008847606D00287DD0606DC00759D02068EF
:101BA000042184F83510B0422BD0404529D0484557
:101BB00027D0504525D0584523D09D49884220D074
:101BC0009B49183188421CD099493031884218D03D
:101BD0009849884215D097491831884211D09549C3
:101BE000303188420DD093494831884209D091491B
:101BF0006031884205D08F497831884201D08D49C3
:101C00009031016821F00101016020680099019A7A
:101C1000491C0091914202D80168C907F6D10068B9
:101C2000C00710D003200FE0FFE70168C905ACD45E
:101C300003680121002223F01003036084F83510AB
:101C400084F83420A1E7012084F83500002084F8CE
:101C50003400E16C00291DD002B02046BDE8F05FE1
:101C60000847754988421DD073491431884219D0FC
:101C700071492831884215D06F493C31884211D0D2
:101C80006D49503188420DD06B496431884209D08A
:101C9000694900E084E07831884203D066498C319C
:101CA00088427DD194F85C800427016808F01F0801
:101CB00007FA08F717EA0C0F009746D04F0744D5EC
:101CC00000980F04686003D5C8033CD4A16CC1E739
:101CD000880638D42068B0422DD0554960398842F2
:101CE00029D0484527D0504525D0584523D05049C4
:101CF000884220D04E49183188421CD04C4930319E
:101D0000884218D04B49884215D04A491831884238
:101D100011D04849303188420DD046494831884277
:101D200009D0704507D0904205D0984203D0414970
:101D3000A831884203D1016821F0080102E001685E
:101D400021F004010160216C84E7022707FA08F7FB
:101D500017EA0C0F00974ED08F074CD500980F0450
:101D6000686003D5C80344D4616C73E7880640D427
:101D70002068B0422FD02E49603988422BD0484588
:101D800029D0504527D0584525D02949884222D00E
:101D90002749183188421ED025493031884200E059
:101DA00044E018D02349884215D02249183188428E
:101DB00011D02049303188420DD01E494831884227
:101DC00009D0704507D0904205D0984203D01949F8
:101DD000A831884203D1016821F0140102E00168B2
:101DE00021F00A010160012184F83510002084F8F7
:101DF0003400E16B2EE7082202FA08F212EA0C0F17
:101E000014D0090712D5016821F00E01016094F881
:101E10005C100120002201F01F0100FA01F169604D
:101E2000606584F8350084F8342012E7BDE8FC9F33
:101E30008800024010040240085402582DE9F05F67
:101E4000044600F04DFC002C07467DD0E24E0221F6
:101E500020684FF00308DFF884934FF00005DFF8A7
:101E600080A3B042DFF87CB334D0DB4A1832904212
:101E700030D048452ED050452CD058452AD0D94A8C
:101E80001832904226D0D74A3032904222D0D54ADA
:101E9000483290421ED0D44A90421BD0D24A1832C7
:101EA000904217D0D04A3032904213D0CE4A4832B6
:101EB00090420FD0CC4A603290420BD0CA4A78325E
:101EC000904207D0C84A9032904203D0C64AA83206
:101ED00090427DD184F83510B04284F834502ED031
:101EE000BD49183188422AD0484528D0504526D0CF
:101EF000584524D0BB491831884220D0B9493031E7
:101F000088421CD0B7494831884218D0B649884227
:101F100015D0B5491831884211D0B34930318842C3
:101F20000DD0B1494831884209D0AF49603188426B
:101F300005D0AD497831884201D0AB499031016874
:101F400021F00101016008E025E100BF00F0C8FBBD
:101F5000C01B052801D920211AE120680068C007AC
:101F6000F4D1D4E902032168103418438E4694E872
:101F70008410D4E9033809683A4310439B4A40EA85
:101F80000C00676918431140103C40EA0800042F18
:101F900040EA010003D1D4E90B1211430843616800
:101FA000A1F12902052A0BD9163A032A08D9083AC1
:101FB000012A05D9083A032A02D97439032901D81C
:101FC00040F48010CEF800002068676A406900E0A5
:101FD00020E0042F20F0070047EA00070DD1D4E9E4
:101FE0000A01074349B12046FEF772FC28B14020A0
:101FF0006065012184F83510CDE0206847612046F6
:10200000FEF784FB94F85C203F2102F01F02914010
:10201000816055E0764A90421BD0754B143398424C
:1020200017D0734B2833984213D0714B3C339842EE
:102030000FD06F4B503398420BD06D4B64339842A6
:1020400007D06B4B7833984203D0694B8C3398425E
:102050007ED184F8351084F83450664B0168A2684C
:1020600001EA030E402A74D0802A73D05FF0000288
:10207000D4E90378D4E9053142EAD70242EAD80824
:102080005B4AD4E9077C48EAD30848EAD10141EA2F
:10209000D701524241EA1C11142341EA0E010160AA
:1020A00020681044B0FBF3F08000E0652046FEF7A6
:1020B0002DFB94F85C20012102F01F029140416049
:1020C0002068B04257D044491831884253D048451F
:1020D00051D050454FD058454DD0424918318842D3
:1020E00049D040493031884245D03E494831884244
:1020F00041D03D4988423ED03B49183188423AD0D0
:1021000039493031884236D037494831884232D057
:102110003549603188422ED03349783188422AD0FF
:1021200031499031884226D02F49A831884222D0A7
:102130002F4988421FD02E49143188421BD02C4988
:102140002831884217D02A493C31884213D002E016
:102150001DE017E018E02649503188420BD0244991
:102160006431884207D022497831884203D020491F
:102170008C31884229D12046FEF722FBA0688028B6
:102180000CD00CE0102273E74FF4804270E740213E
:10219000616584F835800120BDE8F09F6560216E9F
:1021A00020790860D4E9190141606068401E072861
:1021B00008D82046FEF752FBE06E0560D4E91C010A
:1021C000416002E0E566256765670120656584F882
:1021D00035000020E0E7000010000240400002400F
:1021E0005800024070000240100402403F8010FE80
:1021F000085402580F00FEFF2DE9F84F04008C46EA
:102200004FF00000009014D094F83400012812D050
:1022100094F835500120002184F83400012D0CD0B1
:10222000C00260650120009084F834100098BDE879
:10223000F88F0120FBE70220F9E78C4D0226206889
:1022400084F83560A8428A4D61658A4E8A4FDFF86E
:102250002C82DFF82C92DFF82CA2DFF82CB226D0EB
:10226000A84224D0B04222D0B84220D040451ED04F
:1022700048451CD050451AD0584518D0834988424B
:1022800015D082491831884211D0804930318842B6
:102290000DD07E494831884209D07C49603188425E
:1022A00005D07A497831884201D078499031016867
:1022B00021F00101016061462046FEF733FB6B49C6
:1022C000206888422CD0A8422AD0B04228D0B842F8
:1022D00026D0404524D0484522D0504520D05845EE
:1022E0001ED06A4A90421BD0684A1832904217D0DA
:1022F000664A3032904213D0644A483290420FD03E
:10230000624A603290420BD0604A7832904207D0E5
:102310005E4A9032904203D05C4AA83290420CD17F
:10232000026822F01E0242F016020260206C88B1A0
:102330002068026842F008020BE0026822F00E02F8
:1023400042F00A020260206C20B12068026842F06C
:1023500004020260206888424BD0A84249D0B042B3
:1023600047D0B84245D0404543D0484541D050457C
:102370003FD058453DD0454A90423AD0434A183262
:10238000904236D0414A3032904232D03F4A4832B1
:1023900090422ED03D4A603290422AD03B4A783259
:1023A000904226D0394A9032904222D0374AA83201
:1023B00090421ED0364A90421BD0354A1432904289
:1023C00017D0334A2832904213D0314A3C329042DF
:1023D0000FD02F4A503290420BD02D4A6432904297
:1023E00007D02B4A7832904203D0294A8C3290424F
:1023F0000DD1206E0268D20303D5026842F48072C8
:102400000260E06E18B1026842F4807202602068D7
:10241000884226D0A84224D0B04222D0B84220D050
:1024200040451ED048451CD050451AD0584518D0BC
:102430001649884215D015491831884211D01349E0
:10244000303188420DD011494831884209D00F49B6
:102450006031884205D00D497831884201D00B495E
:102460009031016841F001010160DFE61000024097
:102470002800024040000240580002407000024024
:1024800088000240A0000240B80002401004024050
:102490000854025870B5044600F022F90546601C45
:1024A00002D004480078044400F01AF9401BA0420E
:1024B000FAD370BD040000242DE9F84F03247A4DAF
:1024C00000234FF001094FF0B04B4FF00F0AE4E04A
:1024D00009FA03F6324078D00F7907F00307012F8D
:1024E00001D0022F1AD187684FEA430ED1F80CC0F1
:1024F00004FA0EF827EA08070CFA0EFC4CEA070C5F
:10250000C0F808C0476891F804C0B743CCF3001C7A
:102510000CFA03FC4CEA070CC0F804C00E79F64331
:10252000B6070BD0C6684FEA43088F6804FA08FC68
:1025300026EA0C0607FA08F73743C7600E7906F05B
:102540000306022E12D1DE080F694FEA437C00EB2E
:102550008606B646366A4FEADC6C0AFA0CF807FAC9
:102560000CF726EA08063743CEF820700F79066884
:102570004FEA430807F0030704FA08FC07FA08F7D4
:1025800026EA0C06374307604E6816F4403F1CD01D
:10259000464E376847F00207376036689F0706F0F7
:1025A0000206009623F0030606F1B046B6463F0F3A
:1025B000D6F80864DFF8F8800AFA07FC404526EAF6
:1025C0000C0603D14FF0000C3AE065E0DFF8E4C000
:1025D000604502D14FF0010C32E0DFF8DCC060450D
:1025E00002D14FF0020C2BE0DFF8D0C0604502D1E1
:1025F0004FF0030C24E0DFF8C8C0604502D14FF073
:10260000040C1DE0DFF8BCC0604502D14FF0050CA2
:1026100016E0DFF8B4C0604502D14FF0060C0FE0C1
:10262000DFF8A8C0604502D14FF0070C08E0DFF8E2
:10263000A0C0604502D14FF0090C01E04FF00A0C38
:102640000CFA07FC4CEA060CCEF808C44F68DBF81D
:102650000060FF0226EA020600D516435F46CBF86B
:102660000060D1F804C0DBF804605FEA8C2C26EA35
:10267000020600D516437E606E684F6826EA0206A1
:10268000BF0300D516436E602E684F6826EA020627
:10269000FF0300D516432E605B1C0A6832FA03F66E
:1026A0007FF416AFBDE8F88F80000058F44402585C
:1026B000000002580004025800080258000C02589A
:1026C000001002580014025800180258001C02584A
:1026D000002402580AB1816170470904FBE7000039
:1026E00001488068704700000400002402488168A7
:1026F000027811448160704704000024032010B563
:1027000000F086F801F008FA0F4A104914681368BF
:10271000C4F3032203F00F038A5CC95C02F01F02BA
:1027200001F01F01D0400A4A20FA01F11160094965
:1027300008600F2000F010F808B1012010BD00F073
:102740002BF8002010BD000018440258AA8700088A
:10275000140000241000002470B50D4D04462878A4
:10276000A0B14FF47A71B1FBF0F00A490968B1FBEE
:10277000F0F001F03CFF48B9102C07D200222146AE
:10278000501E00F025F800206C6070BD012070BD67
:102790000400002410000024054808B5016841F039
:1027A00002010160006800F00200009008BD000016
:1027B000F4440258002809DB410900F01F02890097
:1027C000012001F1E0219040C1F8000170470000B4
:1027D0000E4BF0B41B680D46C3F30223C3F107068A
:1027E000042E00D90426191D072901D2002300E078
:1027F000DB1E012404FA06F19C40491E2940641E98
:10280000994014402143F0BC02F079BF0CED00E088
:10281000064900F0070210B54FF6FF040868044BA4
:10282000204040EA02201843086010BD0CED00E093
:102830000000FA05134970B50A68D243520705D55E
:10284000096801F00701814213D118E00A6822F0FB
:10285000070202430A60FFF743FF0A4D4FF47A76FE
:102860000446083D07E000BFFFF73AFF001BB042F7
:1028700001D9012070BD2868C0438004F4D4002031
:1028800070BD00000C48025810B501F011F905495F
:102890000968054AC1F30211515C01F01F01C840EB
:1028A00010BD000020440258AA8700084A4930B5EC
:1028B000494C0B1D0A680C3409681D68246802F035
:1028C000030305F00102C1F30511C4F3CC04002990
:1028D00014FB02F200EE102AF8EE400A76D0414ACC
:1028E0009FED3E1ADFED3E1AB7EE000A23B1012B31
:1028F0005AD0022B18D15CE0374C283C23689B0649
:1029000012D5394B246801EE901A1168C4F3C10442
:10291000F8EE612AE34001EE903AC1F30801F8EEC7
:10292000611A81EEA22A07E002EE101A1168F8EE91
:10293000422A81EEA22A45E001EE901A1168F8EED3
:10294000611A40EE811A71EE800A62EE200AC1F32C
:10295000462101EE101AB8EE411A31EE001AC0EE0F
:10296000811ABCEEE11A80ED001A1168C1F306412C
:1029700001EE101AB8EE411A31EE001AC0EE811ABB
:10298000BCEEE11A80ED011A1168C1F3066101EE97
:10299000101AB8EE411A31EE000A80EE801ABCEE31
:1029A000C10A80ED020A30BD01EE901ADFED0F2A58
:1029B00003E001EE901ADFED0E2A1168F8EE611ABD
:1029C00082EEA12AC1F30801B6E7FFE7002101600A
:1029D0004160816030BD0000284402580000003989
:1029E0000024744C304402580090D0030024744AF0
:1029F000001BB74B494930B5484C0B1D0A681434CD
:102A000009681D68246802F00303C5F30012C1F3CE
:102A10000531C4F3CC04002914FB02F200EE102AA5
:102A2000F8EE400A75D03F4A9FED3D1AB7EE000A16
:102A30006BB1DFED3D1A012B01D0022B64D002EE09
:102A4000101A1168F8EE422A81EEA22A21E0334CD6
:102A5000283C23689B0612D5344B246801EE901A5B
:102A60001168C4F3C104F8EE612AE34001EE903A24
:102A7000C1F30801F8EE611A81EEA22A0BE001EE23
:102A8000901ADFED2B2A00BFF8EE611A116882EE72
:102A9000A12AC1F3080101EE901A1168F8EE611A3B
:102AA00040EE811A71EE800A62EE200AC1F34621DF
:102AB00001EE101AB8EE411A31EE001AC0EE811A7A
:102AC000BCEEE11A80ED001A1168C1F3064101EE77
:102AD000101AB8EE411A31EE001AC0EE811ABCEE9F
:102AE000E11A80ED011A1168C1F3066101EE101AB6
:102AF000B8EE411A31EE000A80EE801ABCEEC10A2F
:102B000080ED020A30BD04E001EE901ADFED092AE3
:102B1000BAE70021016041608160F3E72844025870
:102B200000000039384402580024744A0090D00351
:102B30000024744C001BB74B494930B5484C0B1D61
:102B40000A681C3409681D68246802F00303C5F391
:102B50000022C1F30551C4F3CC04002914FB02F296
:102B600000EE102AF8EE400A75D03F4A9FED3D1A5C
:102B7000B7EE000A6BB1DFED3D1A012B01D0022B3D
:102B800064D002EE101A1168F8EE422A81EEA22AF1
:102B900021E0334C283C23689B0612D5344B246833
:102BA00001EE901A1168C4F3C104F8EE612AE34003
:102BB00001EE903AC1F30801F8EE611A81EEA22A03
:102BC0000BE001EE901ADFED2B2A00BFF8EE611A40
:102BD000116882EEA12AC1F3080101EE901A116872
:102BE000F8EE611A40EE811A71EE800A62EE200A58
:102BF000C1F3462101EE101AB8EE411A31EE001A67
:102C0000C0EE811ABCEEE11A80ED001A1168C1F322
:102C1000064101EE101AB8EE411A31EE001AC0EE6C
:102C2000811ABCEEE11A80ED011A1168C1F3066148
:102C300001EE101AB8EE411A31EE000A80EE801A49
:102C4000BCEEC10A80ED020A30BD04E001EE901A2C
:102C5000DFED092ABAE70021016041608160F3E7F6
:102C60002844025800000039404402580024744AA5
:102C70000090D0030024744C001BB74B2DE9F04F9B
:102C8000A14A0546DFF87CA280F48070DFF88092CC
:102C900089B013119F4C08439C48AAF104064FF0D9
:102CA000805C4FF0005828D0DFF858B285F4806778
:102CB0000F430BF1080B4FD085F400670F4360D032
:102CC00085F480570F4372D085F400570F434FF4BB
:102CD00080394FF4003E69D085F400270F4373D04C
:102CE00085F480370F4370D085F480460E436DD055
:102CF00085F400420A436AD02AE0DAF8001001F0B5
:102D00000701052924D2DFE801F0F9AA6A259F000E
:102D100006A8FFF7CBFD079809B0BDE8F08F68461D
:102D2000FFF768FE0098F7E703A8FFF705FF039891
:102D3000F2E72068C0F3C10022FA00F0ECE7226855
:102D4000D2056ED561456CD11846E5E74145E3D023
:102D50000020E1E74846DFE7DBF8001001F46001FE
:102D6000B1F5800F3BD005DC00294AD0B1F5001F3A
:102D7000EED174E0B1F5C00FECD0B1F5000FE7D1A2
:102D800062E0DBF8001001F0E061B1F1007F26D0D5
:102D900004DCB1B3B1F1807FDAD160E0B1F1407F02
:102DA000D8D0B1F1806FD3D14EE000E01BE0DAF86B
:102DB000001001F4E041B1F5005F10D008DC01B370
:102DC000B1F5805FC4D14AE035E058E065E088E0C5
:102DD000B1F5405FBED0B1F5804FB9D134E0206885
:102DE0008000B5D5A0E7DAF8001001F4E021B1F5D4
:102DF000403F6DD006DC61B149457BD07145A7D11C
:102E000058E07BE0B1F5802F66D0B1F5A02F9FD1BF
:102E10000DE000F06FFE7FE76846FFF7EBFD0198DD
:102E20007AE728E003A8FFF787FE049874E7216893
:102E300089038AD48CE7DBF8001011F440310ED0FE
:102E4000494510D0714583D13168256801F0405162
:102E50006D077FF574AF00297FF471AF69E72068D3
:102E60000001E7D55BE720688000E3D503A8FFF702
:102E700063FE059850E722689203DBD566E7306869
:102E800010F480303AD04845D4D120680001D1D523
:102E90006846FFF7AFFD02983EE7DBF8001001F04F
:102EA000E041B1F1405F13D008DC71B1614521D040
:102EB0004145BFD120688000B4D449E7B1F1804FCB
:102EC0000AD0B1F1A04FB2D042E7FFF7DDFC23E713
:102ED00020684007AED52CE72068C005AAD533E7A7
:102EE00008E0DAF8001011F04051A0D0614505D09B
:102EF00041459FD1206800018ED429E720688001D8
:102F000098D505E7504402580090D00300366E0172
:102F10000080BB00004402582DE9FE4F0546DFF853
:102F200000A450F8081B0024FD4FC943019005F18F
:102F3000280026460AF1240A009008011DD4686E74
:102F400050B1B0F5801F0CD0B0F5001F0ED0B0F519
:102F5000401F1ED001240FE0386840F40030386074
:102F600017E00198022102F07BF903E000980221AA
:102F700002F006FA04000CD026462888C043C0059B
:102F800023D4A86D05281ED2DFE800F00C11161B13
:102F90001B006A6EDAF8001021F440111143CAF8E0
:102FA0000010EAE7386840F40030386009E0019822
:102FB000002102F055F903E00098002102F0E0F949
:102FC0000446C4B100E0012426462888DFF8508377
:102FD000C04308F12C0840052FD4D5F8A400B0F563
:102FE000C00F28D010DCB8B1B0F5001F19D0B0F573
:102FF000800F0FD11AE0AA6DDAF8001021F0070156
:103000001143CAF80010E0E7B0F5000F13D0B0F597
:10301000200F10D001240FE0386840F400303860F1
:1030200009E00198002102F01BF903E0009800215B
:1030300002F0A6F9044694B126462888C04300054C
:1030400030D4D5F8A800B0F1407F29D011DCC0B150
:10305000B0F1807F1AD0B0F1007F10D11BE0D5F81D
:10306000A420D8F8001021F460011143C8F8001022
:10307000E3E7B0F1806F13D0B0F1A06F10D001245E
:103080000FE0386840F40030386009E00198002112
:1030900002F0E6F803E00098002102F071F904461E
:1030A00094B126462868DFF878B2C0430BF1200BB4
:1030B00080011FD4E86CD8B110280FD0202812D07E
:1030C000302815D0012414E0D5F8A820D8F8001035
:1030D00021F0E0611143C8F80010E3E7386840F4DC
:1030E0000030386004E00198022102F0B9F804468B
:1030F00074B126462888C043C0042BD4E86DB0F5CF
:10310000005F20D00DDCA0B1B0F5805F0FD115E0DD
:10311000EA6CDBF8001021F030011143CBF800100D
:10312000E8E7B0F5405F13D0B0F5804F10D0012430
:103130000FE0386840F40030386009E00198002161
:1031400002F08EF803E00098002102F019F904461D
:103150008CB126462888C043800429D4286EB0F557
:10316000403F23D010DC08B3B0F5803F14D0B0F559
:10317000003F0FD115E0EA6DDAF8001021F4E041CC
:103180001143CAF80010E5E7B0F5802F0ED0B0F576
:10319000A02F0BD001240AE00198012102F060F871
:1031A00003E00098012102F0EBF8044694B12646B2
:1031B0002888C04340042AD4D5F8AC00B0F1405F61
:1031C00023D010DC08B3B0F1805F14D0B0F1005F01
:1031D0000FD115E02A6EDAF8001021F4E021114336
:1031E000CAF80010E4E7B0F1804F0ED0B0F1A04F64
:1031F0000BD001240AE00198012102F031F803E02C
:103200000098012102F0BCF8044674B126462888D3
:10321000C04300041FD4E86ED8B1B0F1805F0ED077
:10322000B0F1005F10D0012414E0D5F8AC20D8F83C
:10323000001021F0E0411143C8F80010E7E73868BA
:1032400040F40030386004E00198012102F008F8F1
:10325000044674B126462868C043C0011ED4A86C39
:10326000D0B101280ED0022811D0032814D0012497
:1032700013E0EA6EDAF8001021F040511143CAF869
:103280000010E8E7386840F40030386004E0019846
:10329000022101F0E5FF04466CB126462868C043D0
:1032A000400255D41F48016841F480710160FFF766
:1032B00017FA81460EE0AA6CDBF8001021F003013A
:1032C0001143CBF80010E9E7FFF70AFAA0EB090079
:1032D00064283BD813480068C005F5D5BCBBDFF8AF
:1032E0004090B5F8B01009F14409D9F8000001F494
:1032F000407100F44070884211D0D9F80010D9F81C
:10330000002021F4407142F48032C9F80020D9F83D
:10331000002022F48032C9F80020C9F8001003E030
:103320002C44025800480258D5F8B000B0F5807F10
:1033300019D1FFF7D5F9029011E000BFFFF7D0F9DE
:103340000299411A41F28830814208D90324264665
:103350002878DFF81494C043C00721D03CE0D9F8A6
:1033600000008007EAD5D5F8B010C1F3012003288A
:10337000FE480DD0016821F47C510160B5F8B02001
:10338000D9F80010C2F30B021143C9F80010DFE7AF
:10339000F74A036802EA111223F47C511143ECE767
:1033A000A86F182816D005DCA0B1082808D010286E
:1033B00004D10AE020280DD028280BD001240AE0EF
:1033C0000198012101F04CFF03E00098012101F078
:1033D000D7FF044664B126462878C04380071ED430
:1033E000686F062819D2DFE800F0160C11161616C1
:1033F000AA6FD9F8001021F038011143C9F8001064
:10340000EAE70198012101F02BFF03E00098012178
:1034100001F0B6FF04467CB100E00124264628787E
:10342000C04340071FD4D5F89000062819D2DFE822
:1034300000F0160C111616166A6FD9F8001021F05C
:1034400007011143C9F80010E9E70198012101F0D3
:1034500007FF03E00098012101F092FF0446A4B1A8
:1034600000E0012426462878C04380062BD4D5F8F6
:103470008C00B0F1405F24D011DC10B3B0F1805F5C
:1034800015D0B0F1005F10D116E0D5F89020D8F833
:10349000001021F007011143C8F80010E3E7B0F174
:1034A000804F0ED0B0F1A04F0BD001240AE001985C
:1034B000002101F0D5FE03E00098022101F060FF39
:1034C000044694B126462878C04340062BD4D5F84C
:1034D0009800B0F5406F24D011DC10B3B0F5806FC8
:1034E00015D0B0F5006F10D116E0D5F88C20D9F8C2
:1034F000001021F0E0411143C9F80010E3E7B0F5F6
:10350000805F0ED0B0F5A05F0BD001240AE00198D7
:10351000002101F0A5FE03E00098022101F030FF38
:10352000044694B126462878C04300062BD4D5F82B
:103530009C00B0F5C04F24D011DC10B3B0F5005F93
:1035400015D0B0F5804F10D116E0D5F89820D8F8F6
:10355000001021F4E0511143C8F80010E3E7B0F582
:10356000004F0ED0B0F5204F0BD001240AE0019897
:10357000002101F075FE03E00098022101F000FF38
:10358000044654B126462878C04300071ED4D5F817
:103590008000B0F5805F0AD00FE0D5F89C20D8F805
:1035A000001021F460411143C8F80010EBE70098C7
:1035B000022101F0E5FE00B10126D5F88020D9F8FE
:1035C000001021F440511143C9F800102878C0437D
:1035D000C00613D4D5F89400B0F5807F05D10098CB
:1035E000022101F0CDFE00B10126D5F89420D8F8D3
:1035F000001021F440711143C8F800102868C0433E
:10360000000316D4D5F8A00038B1B0F5803F09D03A
:10361000B0F5003F0BD001240AE00198002101F031
:103620001FFE03E00098022101F0AAFE04468CB1BF
:1036300026462868C043400322D4D5F88400B0F55C
:10364000801F11D0B0F5001F13D0B0F5401F15D06A
:10365000012414E0D5F8A020D8F8001021F440315E
:103660001143C8F80010E4E7386840F400303860CF
:1036700004E00098012101F083FE04465CB1264677
:103680002868C043C0031CD4286D70B1B0F5803FDA
:1036900010D0012414E0D5F88420D9F8001021F4CA
:1036A00040111143C9F80010EAE7386840F40030CF
:1036B000386004E00198022101F0D2FD0446DCB13B
:1036C00026462868C043800005D40098022101F0F6
:1036D00057FE00B101262868C04380031BD4E86F61
:1036E000B8B1B0F5807F10D0B0F5007F11D0B0F543
:1036F000407F0ED001240DE02A6DDBF8001021F48C
:1037000080311143CBF80010DBE7386840F400301B
:1037100038607CB326462868C043C00207D42A6FAD
:10372000DAF8001021F000411143CAF800102868AF
:10373000C043800207D4AA6EDAF8001021F080712D
:103740001143CAF800102868C043400009D4074854
:10375000016821F4004101600168D5F8B4201143EB
:1037600001602868C04306E05444025810440258DF
:10377000CFFFFF001DE007D46A6DDBF8001021F0D9
:1037800040511143CBF800102868C043000208D410
:10379000D5F88820D9F8001021F440011143C9F868
:1037A000001028790024C04300F00100204309D014
:1037B0000EE0EA6FD9F8001021F440711143C9F806
:1037C0000010A8E70198002101F04AFD00B106466B
:1037D0002879C04300F00200204305D1019801215F
:1037E00001F03EFD00B106462879C04300F0040018
:1037F000204305D10198022101F032FD00B10646B7
:103800002879C04300F00800204305D1009800212A
:1038100001F0B6FD00B106462879C04300F0100063
:10382000204305D10098012101F0AAFD00B1064610
:103830002879C04300F02000044304D100980221FD
:1038400001F09EFD00B916B10120BDE8FE8F0020F9
:10385000FBE700002DE9F05F04000F467ED0DFF8A3
:103860003882D8F8000000F00F00B8420CD2D8F827
:10387000001021F00F013943C8F80010D8F80000FB
:1038800000F00F00B84269D12078844D40070AD576
:103890002069296801F07001884204D9296821F063
:1038A00070010143296020787C4E361D00070AD53F
:1038B0006069316801F07001884204D9316821F0F3
:1038C0007001014331602078C0060AD5A0693168D3
:1038D00001F4E061884204D9316821F4E0610143D8
:1038E00031602078DFF8B4B180060BF1080B0CD5FD
:1038F000E1695846DBF8002002F07002914204D9D9
:10390000026822F070020A430260207880070AD51C
:10391000E068296801F00F01884204D9296821F084
:103920000F01014329602078C0073ED05B49A2689F
:103930002868183920F470601043286060680228F5
:1039400018D0032819D00968012819D0490700297F
:103950004ADADFF848A1AAF1080A00E044E0DAF800
:10396000002022F007020243CAF80020FEF7B8FE4A
:10397000814612E009688903E9E709688901E6E7F9
:10398000C905E4E7FEF7ACFEA0EB090141F288307F
:10399000814202D90320BDE8F09F6168DAF8000097
:1039A00000F03800B0EBC10FECD1207880070AD5C9
:1039B000E068296801F00F01884204D2296821F0EB
:1039C0000F0101432960D8F80010404601F00F01B3
:1039D000B9420BD9016821F00F0139430160006839
:1039E00000F00F00B84201D00120D4E72078400752
:1039F0000AD52069296801F07001884204D229683B
:103A000021F0700101432960207800070AD5606920
:103A1000316801F07001884204D2316821F07001F0
:103A2000014331602078C0060AD5A069316801F4ED
:103A3000E061884204D2316821F4E06101433160E1
:103A4000207880060CD5E1695846DBF8002002F0AA
:103A50007002914204D2026822F070020A430260AE
:103A600000F05AF80E492A682B68C2F3032203F0CB
:103A70000F038A5CC95C02F01F0201F01F01D040F5
:103A8000084A20FA01F111600749086007480068F8
:103A9000BDE8F05FFEF760BE0020005218440258F7
:103AA000AA87000814000024100000240800002445
:103AB00030B500F031F80B4A0B490C4B156814680F
:103AC000C5F3032204F00F048A5C095D02F01F02B3
:103AD00001F01F01D040064A20FA01F11960106080
:103AE000084630BD18440258AA8700081400002474
:103AF0001000002400B5FFF7DBFF05490968054AFF
:103B0000C1F30211515C01F01F01C84000BD00006B
:103B10001C440258AA870008454970B54548096801
:103B2000434B103B11F0380208D00111082A03D092
:103B3000102A0BD0182A0BD0084670BD19688906C8
:103B4000FBD51968C1F3C101C84070BD3A4870BDCA
:103B50003749374D18310C1D24350A680968266825
:103B60002D6802F0030406F00102C1F30511C5F34C
:103B7000CC0515FB02F200EE102AB8EE400AE9B3BC
:103B80002F4ADFED2E0AB7EE001A6CB1DFED2D1AC9
:103B9000012C01D0022C43D002EE101A1068F8EE6E
:103BA000422A81EEA22A1EE01C68A40611D51B68D9
:103BB00001EE901A1168C3F3C103F8EE612AD840F0
:103BC00001EE900AC1F30800F8EE611A81EEA22A14
:103BD0000BE001EE901ADFED1C2A00BFF8EE611A2F
:103BE000106882EEA12AC0F3080001EE900AF8EEF8
:103BF000611A40EE201A31EE810A00E015E022EE53
:103C0000000A1068C0F34620401C00EE900AF8EE4F
:103C1000600A80EE201ABCEEC10A10EE100A70BDD8
:103C200001EE901ADFED092AD8E7002070BD0000F0
:103C3000104402580090D00300366E010000003995
:103C4000304402580024744A0024744C001BB74BC3
:103C50002DE9F05F04007DD0FF4F2078FE4D18372E
:103C6000DFF8F483103DC00748D0D8F80000396869
:103C700000F03800102815D0182803D101F00300F7
:103C800002280FD06068B0F5803F12D010B1B0F5B7
:103C9000A02F18D0286820F480302860286820F4ED
:103CA000802009E02868800328D560680028D2D0E9
:103CB00024E0286840F480302860606888B1FEF70E
:103CC0000FFD064609E0286840F480202860F0E7F0
:103CD000FEF706FD801B64287ED828688003F7D590
:103CE0000CE0FEF7FDFC064605E000BFFEF7F8FC21
:103CF000801B6428F0D828688003F7D420788007D8
:103D000056D5D8F80000DFF85093396810F0380025
:103D1000A9F10C090ED0182801D188070AD0E06853
:103D2000A8B3296821F0190101432960FEF7D8FCE6
:103D3000064628E02868400702D5E06800288AD0B7
:103D4000E168286820F0190008432860FEF7C8FCE5
:103D5000064606E0D2E000BFFEF7C2FC801B022848
:103D6000BAD828684007F7D5217CD9F8002022F07E
:103D7000FE4242EA0161C9F8001019E0FEF7B0FC0A
:103D8000801B0228A8D828684007F7D5ECE7FFE792
:103D9000286820F001002860FEF7A2FC064604E037
:103DA000FEF79EFC801B022896D828684007F7D4AF
:103DB0002078C00646D5D8F80000DFF89C92396814
:103DC00000F03800A9F10409082812D0182805D1FC
:103DD00001F00300012800E0CEE00AD0E0690028ED
:103DE000286820D040F080002860FEF779FC064665
:103DF00015E02868C00502D5E06980287ED194F8D6
:103E00002010D9F8002022F07C5242EA0161C9F862
:103E1000001017E0FEF764FC801B0228A0D8286879
:103E2000C005F7D5EBE720F080002860FEF758FCCE
:103E3000064604E0FEF754FC801B022890D8286850
:103E4000C005F7D42078000729D58348616964301C
:103E500000298146016811D041F001010160FEF79F
:103E60003FFC064605E000BFFEF73AFC801B022837
:103E700088D8D9F800008007F6D510E021F00101BC
:103E80000160FEF72DFC064605E000BFFEF728FCAA
:103E9000801B022870D8D9F800008007F6D420785B
:103EA000800623D5A0690028286810D040F48050EF
:103EB0002860FEF715FC064605E000BFFEF710FC83
:103EC000801B022858D828688004F7D50EE020F41B
:103ED00080502860FEF704FC064604E0FEF700FC74
:103EE000801B022848D828688004F7D4207840072F
:103EF00051D5DFF86891D9F8001000E015E141F4E0
:103F00008071C9F80010FEF7EBFB064605E000BF24
:103F1000FEF7E6FB801B64282ED8D9F80000C00508
:103F2000F6D54D4EA068603601280AD008B10528A4
:103F300013D0306820F001003060306820F00400B9
:103F400002E0306840F001003060A06841F2883A39
:103F500098B1FEF7C5FB81460AE0306840F00400E6
:103F60003060EEE7FEF7BCFBA0EB0901514503D83A
:103F700030688007F6D50EE072E0FEF7B1FB8146AF
:103F800006E000BFFEF7ACFBA0EB0901514567D886
:103F900030688007F6D4606A00287CD0DFF8B8A0CB
:103FA000D8F800100AF1200A4FF6F87B0AF104084D
:103FB000C1F3C2010329AAF104096DD002282868BF
:103FC00020F08070286003D0FEF78AFB044681E071
:103FD000FEF786FB064604E0FEF782FB801B022804
:103FE00075D828688001F7D4E26A40F2F331386866
:103FF00054F8283F884340EA021018433860217B78
:104000004FF4FE0C22894FF0FE47208A4902267D9C
:10401000521E401EA1F5007189B2C2F3080211437D
:10402000761E0CEA00400143484607EA0662114347
:10403000CAF80010D9F8001021F00101C9F80010E9
:10404000D8F80030266A23EA0B0343EAC601C8F811
:104050000010D9F8001004E010440258004802583B
:1040600035E0A26921F00C011143C9F80010016884
:10407000E26921F0020111430160016841F48031DD
:104080000160016841F400310160016841F4802160
:104090000160016801E06CE020E041F00101016095
:1040A000286840F080702860FEF71AFB044604E0A0
:1040B000FEF716FB001B022809D828688001F7D5F7
:1040C00057E000BFFEF70CFB001B022802D90320BB
:1040D000BDE8F09F28688001F4D44AE039680128DF
:1040E000DAF8000021D0A26A01F0030393421CD148
:1040F000E26AC1F305118A4217D1216BC0F30802AD
:10410000491E8A4211D1616BC0F34622491E914279
:104110000BD1A16BC0F30642491E914205D1E16B60
:10412000C0F30660491E814201D00120D0E7A16C96
:104130004646D8F80000C0F3CC00814219D0D9F827
:1041400000004D4620F00100C9F80000FEF7C8FA53
:104150004FEA0007FEF7C4FAB842FBD0A26C306801
:1041600020EA0B0040EAC2003060286840F00100FD
:1041700028600020ACE700002DE9F047040029D0BA
:10418000594A4FF000092068584B594D9042C4F8E5
:10419000289006D0984204D0A84202D0E1680F29A6
:1041A00018D8E1684FF0010AE76B0831C9080AEB3B
:1041B00057167143904205D0984203D0A84201D0CF
:1041C000082907D8904203D0984201D0A84204D1D0
:1041D000102902D90120BDE8F08794F8810020B9A8
:1041E000204684F8809000F085F8022084F8810051
:1041F0002068016821F0010101602068A1698268DE
:10420000B1F1806F02F4F81110D16268B2F5800F3D
:1042100001D01AB10AE0A26B22B107E0A26BB2F1A1
:10422000805F03D1026842F48052026060684002FD
:1042300009D5E068072806D32068236D026822F4B8
:1042400080721A4303E02068026822F480720260E0
:10425000A66AE069E26B25683043E3680A431043CD
:104260001843A860D4E90D02D4E90581636A256981
:104270001843D4F820C00A43266810432843A56D8C
:10428000D4E90172D4E9123140EA080040EA0C0096
:1042900038430843104318432843F060606868B906
:1042A0002068816821F4C05141F400618160206878
:1042B000816821F4C06141F4806181602068016DF2
:1042C00021F0010101656068400206D52068626D39
:1042D000C16821F000411143C160C4F8849084F8A2
:1042E00081A0002077E70000003001400038004046
:1042F000003C004070B5B4B0044614212EA8FCF771
:1043000055F8B8216846FCF751F8214920688842E1
:104310003CD18114002017900446CDE90010684676
:10432000FEF7FAFD08B1FCF70EFC1A48016841F4EB
:1043300080510160006800F48050339015481038B7
:10434000016841F008010160016801F00801339142
:10435000016841F00201016000680526022500F0B5
:104360000200339080202E90CDE92F540A482EA9C8
:10437000CDE93146FEF7A0F808202E90CDE92F5464
:1043800006482EA9CDE93146FEF796F834B070BD47
:1043900000300140F0440258000C0258000402585A
:1043A0002DE9FC5F0446006817468A4600219946BD
:1043B00094F8802000F1200B0191012A0DD04FF0DC
:1043C000010884F88080FEF78BF9064694F8810096
:1043D0000025012804D0022034E00220BDE8FC9F23
:1043E000BAF1000F2DD067B3A1680320C4F85CA018
:1043F000A4F8607084F88100C4F88450A4F8627056
:104400006566A4F86850A4F86A50B1F5C02F6567D6
:104410002567206819D0C16821F4C02141F400311A
:10442000C160206841686FF30F0139434160206823
:10443000016841F0010101606068B0F5800F09D0AA
:104440000DE0012084F88050C8E7016841F4006164
:104450000160E6E72068016841F400710160E068EE
:104460000F281CD820E02068416989070BD5E16D31
:1044700009680162E06D001DE065B4F86200401E4D
:10448000A4F862000BE0FEF72BF9811B494503D32A
:10449000B9F1FF3F03D099E0B9F1000F30D0B4F883
:1044A00062000028DFD177E007282DD870E020686F
:1044B000416989071CD5B4F8621001290BD9E16B59
:1044C00049B1E16D09680162E06D001DE065B4F875
:1044D0006200801E09E0E06D0188ABF80010E06D1D
:1044E000801CE065B4F86200401EA4F862000BE096
:1044F000FEF7F6F8811B494503D3B9F1FF3F03D01E
:1045000064E0B9F1000F61D0B4F862000028CED1A8
:1045100042E02068416989072ED5B4F8621003296A
:104520000CD9E16B402909D9E16D09680162E06DA0
:10453000001DE065B4F86200001F1AE0B4F86210D4
:1045400001290CD9E16B51B1E06D0188ABF8001085
:10455000E06D801CE065B4F86200801E09E0E16D4A
:10456000097880F82010E06D401CE065B4F8620026
:10457000401EA4F862000BE0FEF7B2F8811B49452B
:1045800003D3B9F1FF3F03D020E0B9F1000F1DD0F4
:10459000B4F862000028BCD100224B460821204616
:1045A000009600F0DBFF28B1D4F8840040F0200032
:1045B000C4F88400204600F073FF84F88180D4F8AA
:1045C000840084F8805080B1012007E7204600F085
:1045D00067FFD4F8841084F8805041F48071C4F8E7
:1045E000841084F881800320F8E60198F6E6401EE6
:1045F000B0F1807F10B501D3012010BD4FF0E02451
:1046000060610F21601701F07AF80020A061072196
:10461000216110BDFEE72DE9F0411E4614460F460C
:1046200005462A2000F0B0FC1435A8B200F0A1FC29
:104630001434A0B200F09DFC2B2000F0A5FC3846FD
:1046400000F097FC304600F094FCBDE8F0412C20CF
:1046500000F09ABC2DE9FE4F161A4FF000085D1AC3
:104660004FF0FF34002E4746CDE9001002DD4FF039
:10467000010002E003D14FF00000834602E0C6F1E2
:104680000006A346002D02DD4FF0010002E003D139
:104690004FF00000824602E0C5F10005A246AE429E
:1046A00001DD344600E02C46601C0290002018E03A
:1046B00000980C9A81B2019880B200F018F8B044CA
:1046C000A0452F4404DD0198A8EB0408584401904C
:1046D000A74203DD00983F1B5044009009F1010000
:1046E00080B2029981468842E2DBBDE8FE8F10B5B8
:1046F00014460B460246FFF78EFF2046BDE81040E9
:1047000000F037BC2DE9F0470C468046581E1F4686
:10471000511E164683B2DDF820908AB221464046EB
:10472000FFF779FF0AE0454604E0484600F021FC27
:104730006D1CADB2B542F8D3641CA4B2BC42F2D336
:10474000BDE8F08770B5674D4FF400640022214644
:104750002846FDF7BFFF6420FDF79CFE012221469D
:104760002846FDF7B7FF6420FDF794FE0122284696
:104770009102FDF7AFFF6420FDF78CFE112000F0E1
:1047800003FC7820FDF786FE362000F0FDFB70204C
:1047900000F010FC3A2000F0F7FB052000F00AFCC6
:1047A000B22000F0F1FB0C2000F004FC0C2000F023
:1047B00001FC002000F0FEFB332000F0FBFB332067
:1047C00000F0F8FBB72000F0DFFB352000F0F2FB33
:1047D000BB2000F0D9FB322000F0ECFBC22000F03F
:1047E000D3FB012000F0E6FBC32000F0CDFB152039
:1047F00000F0E0FBC42000F0C7FB202000F0DAFB53
:10480000C62000F0C1FB0F2000F0D4FBD02000F048
:10481000BBFBA42000F0CEFBA12000F0CBFBE020EE
:1048200000F0B2FBD02000F0C5FB082000F0C2FB76
:104830000E2000F0BFFB092000F0BCFB092000F0B7
:10484000B9FB052000F0B6FB312000F0B3FB3320AC
:1048500000F0B0FB482000F0ADFB172000F0AAFBF1
:10486000142000F0A7FB152000F0A4FB312000F07D
:10487000A1FB342000F09EFBE12000F085FBD0205E
:1048800000F098FB082000F095FB0E2000F092FB52
:10489000092000F08FFB092000F08CFB152000F0B0
:1048A00089FB312000F086FB332000F083FB482099
:1048B00000F080FB172000F07DFB142000F07AFB55
:1048C000152000F077FB312000F074FB342000F05D
:1048D00071FB212000F058FBBDE87040292000F05A
:1048E00053BB0000000402582DE9FF4F81B004467D
:1048F0004FF00008DDF83C9000904FEA5907780728
:1049000000D0012000EBD700203A00FB09FBD0B219
:1049100003900298E119491E4844401E83B2204684
:104920008AB20299FFF777FE002553E0B9F10C0F28
:104930002AD0B9F1100F2ED0B9F1180F2ED0B9F13D
:10494000200F49D10398274901EB8010002610F869
:1049500005A0109800284FF0010000FA06F000EAC8
:104960000A0022D020B1049A20460299FFF7BFFE28
:104970000098641CA4B2201AB84225D10298009C69
:10498000401C80B2029023E00398174900EB4000DE
:1049900001EB8000DAE71549039803E00398144916
:1049A00000EB400001EB0010D0E708B1049800E0F4
:1049B0000E9800F0DEFA08F10100C0B2B0FBF7F18A
:1049C000804607FB118050B1761CF6B2082EC0D38A
:1049D0006D1CADB25D45A9D305B0BDE8F08F4FF0B9
:1049E0000008F5E7EEA30008BA8700082E8C00083F
:1049F0001E9200082DE9FE4F994615468A46074645
:104A0000DDF83080DDE90D4614E00C2C17D0102CB9
:104A100020D0182C29D0202C0FD1CDF800804B4667
:104A2000CDE901462A465146384600F0A1F9381929
:104A300087B2AD1C28780028E7D1BDE8FE8FCDF8FD
:104A400000804B46CDE901462A465146384600F0E3
:104A500017F8ECE7CDF800804B46CDE901462A4631
:104A60005146384600F08AF8E1E7CDF800804B4621
:104A7000CDE901462A465146384600F0FBF8D6E714
:104A80002DE9FF4F83B080464FF00009119D009043
:104A9000690701D0012000E0002000EBD5000421CF
:104AA000029100FB05FB00260599334806EB8603BF
:104AB0000A7803EBC60110F81130934251D1059AE0
:104AC00000EB4100527801904078904249D104981F
:104AD000411908EB0500401E82B24046491E8BB2C8
:104AE0000499FFF798FD002739E00198002400EBB6
:104AF000070A129800284FF001009AF8021000FAF5
:104B000004F001EA000115D021B1069A404604994B
:104B1000FFF7EDFD009908F101001FFA80F8A8EBFE
:104B20000100A84215D10499DDF80080491C88B223
:104B3000049012E009B1069800E0109800F019FA0C
:104B400009F10100C0B2B0FBF5F1814605FB1190FF
:104B500078B1641CE4B2082CCBD37F1CFFB25F4554
:104B6000C3D30298761CB6B286429DD307B0BDE887
:104B7000F08F4FF00009F0E7AEBB00082DE9FF4FC2
:104B800083B080464FF00009119D0090690701D065
:104B9000012000E0002000EBD5000421029100FB81
:104BA00005FB00263248059A06EB0611127810F82C
:104BB0001130934250D1059A00EB41005278019098
:104BC0004078904248D1049808EB0501491E2844DA
:104BD000401E83B240468AB20499FFF71CFD0027AD
:104BE00038E00198002400EB070A129800284FF0E3
:104BF00001009AF8021000FA04F001EA000114D052
:104C000021B1069A40460499FFF771FD009908F119
:104C100001001FFA80F8A8EB0100A84214D1049803
:104C20008846401C80B2049012E009B1069800E06A
:104C3000109800F09EF909F10100C0B2B0FBF5F147
:104C4000814605FB119078B1641CE4B2082CCCD3EA
:104C50007F1CFFB25F45C4D30298761CB6B2864271
:104C6000A0D307B0BDE8F08F4FF00009F0E70000D7
:104C700016BC00082DE9FF4F83B080464FF00009B5
:104C8000119D0090690701D0012000E0002000EB99
:104C9000D5000421029100FB05FB0026059933484D
:104CA00006EB86030A7803EB461110F811309342A5
:104CB00051D1059A00EB4100527801904078904222
:104CC00049D10498411908EB0500401E82B24046C4
:104CD000491E8BB20499FFF79EFC002739E001982A
:104CE000002400EB070A129800284FF001009AF800
:104CF000021000FA04F001EA000115D021B1069A71
:104D000040460499FFF7F3FC009908F101001FFAEF
:104D100080F8A8EB0100A84215D10499DDF80080C5
:104D2000491C88B2049012E009B1069800E010987E
:104D300000F01FF909F10100C0B2B0FBF5F18146A6
:104D400005FB119078B1641CE4B2082CCBD37F1C16
:104D5000FFB25F45C3D30298761CB6B286429DD39C
:104D600007B0BDE8F08F4FF00009F0E79EBC0008E7
:104D70002DE9FF4F83B080464FF00009119D009050
:104D8000690701D0012000E0002000EBD5000421DC
:104D9000029100FB05FB00263248059A06EB8611BE
:104DA000127810F81130934250D1059A00EB41006F
:104DB000527801904078904248D1049808EB050160
:104DC000491E2844401E83B240468AB20499FFF728
:104DD00022FC002738E00198002400EB070A129813
:104DE00000284FF001009AF8021000FA04F001EADE
:104DF000000114D021B1069A40460499FFF777FCD0
:104E0000009908F101001FFA80F8A8EB0100A84200
:104E100014D104988846401C80B2049012E009B175
:104E2000069800E0109800F0A4F809F10100C0B263
:104E3000B0FBF5F1814605FB119078B1641CE4B23A
:104E4000082CCCD37F1CFFB25F45C4D30298761CDC
:104E5000B6B28642A0D307B0BDE8F08F4FF000098C
:104E6000F0E70000C6BD00082DE9FF4F83B04FF00A
:104E700000091D4682464E464C46DDE911B84FEA10
:104E800058072CE0281B401EC1B20A2000F0BCFCD1
:104E90000599B1FBF0F00A21B0FBF1F201FB120021
:104EA00026B9691E8C4201DA58B10126CDF800B04E
:104EB00004FB07A13030CDE90189C2B2109B88B252
:104EC00008E004FB07A0CDF800B02022CDE901895D
:104ED000109B80B20499FFF707FD641CE4B2AC425A
:104EE000D0D307B0BDE8F08F2DE9F0471F469046BC
:104EF000CB1900EB0802DDF820905B1E521E9BB21E
:104F000092B20025FFF787FB002611E000240BE09A
:104F100019F8150000F04EF809EB4500407800F054
:104F200049F8641CA4B26D1CBC42F1D3761CB6B225
:104F30004645EBD3BDE8F0872DE9FE4F9946144670
:104F40008A460546DDE90D67DDF830800CE0CDF8D6
:104F500000804B46CDE9016751462846FFF7C4FC67
:104F600005EB560085B2641C2278002AEFD1BDE81B
:104F7000FE8F10B50446000A00F01CF8E0B2BDE850
:104F8000104000F017B8000070B5094D4FF4806470
:104F90000022064621462846FDF79CFB304600F0DD
:104FA00009F821462846BDE870400122FDF792BB72
:104FB000000C025831B50A4D4FF40044002221463E
:104FC0002846FDF787FB074801224FF6FF73694625
:104FD000FFF7E6F9012221462846FDF77BFB38BDA5
:104FE000001002580001002400EB8100006E00F068
:104FF000F84070478068C0F3C00070478068C0F315
:10500000800070478068C0F380007047C06810F46B
:10501000406F01D0002070470120704710B5042474
:1050200004EAD1540723C1F3045120448B408A4041
:10503000416999431143416110BD000000EB8101BA
:10504000034B51F8600F20F0004010430860704798
:105050000060025830B58DB00024684624210994C0
:105060000A940B94FBF7A2F91D4804251B4A4FF440
:105070001013012180E81C00C0E9044504760322D6
:105080004176C16180F820408462C0E90B42C4636C
:10509000046480F84440FCF70BF908B1FBF753FDBA
:1050A0000F4809A90994FBF79FFD08B1FBF74BFDD9
:1050B0000C48062140F2FF7203928DE82300084855
:1050C0006946CDE904548DF82140FBF721FE002804
:1050D00001D0FBF738FD0DB030BD000000200240CC
:1050E000180000240000B84F094808B5016841F0D5
:1050F0000101016000680022114600F001000090EB
:105100000B20FDF765FBBDE808400B20FDF752BB07
:10511000D84402582DE9F04F87B014216846FBF7B8
:1051200045F93148016841F080010160016801F0F2
:1051300080010591016841F001010160016801F001
:1051400001010591016841F010010160016801F061
:1051500010010591016841F002010160016801F050
:1051600002010591016841F00801016000684FF4F7
:105170000046DFF87890002200F0080031460590E4
:105180004846FDF7A7FADFF868A04FF44067002211
:1051900039465046FDF79EFADFF858B04FF4806864
:1051A000002241465846FDF795FA00240096012555
:1051B00069464846CDE901540394FDF77DF900970F
:1051C0006946CDE9015450460394FDF775F9CDF8D1
:1051D00000806946CDE9015458460394FDF76CF907
:1051E00007B0BDE8F08F0000E044025800100258FC
:1051F00000040258000C02582DE9F0414FF48005DC
:105200001448134A07276E114FF0007C2C0180E8E8
:10521000E4100021E300C0E90514C0E90731416250
:105220005A008162C162C0E90D21C1630164416419
:105230008164C164016541658165FEF79DFF0028B9
:1052400003D0BDE8F041FBF77EBCBDE8F081000073
:105250000030014000010024FEE7FEE77047000037
:105260002DE9F047454D044689464FF0000A28686D
:10527000C04380070AD0414E283E306820F080604D
:105280003060FDF72DFA0746B04608E00120BDE882
:10529000F08700BFFDF724FAC01B022867D8D8F8B2
:1052A00000000001F6D4206829684FF4FE0721F4BD
:1052B0007C313E0241EA00302860207AA389B4F8AC
:1052C00004C040022D4D2D495B1E227CACF1010C27
:1052D0001035091DA0F5007080B2521ECCF3080CE9
:1052E00007EA034340EA0C00184306EA026210434F
:1052F00028600868626920F0C000104308600A68EE
:10530000A06922F0200202430A60281D0A6822F0E8
:1053100010020A6002684FF6F873E4699A4342EAA1
:10532000C40202600868B9F1000F40F010020A6080
:1053300011D00868B9F1010F11D040F400100860D5
:10534000D8F80000444640F08060C8F80000FDF73F
:10535000C7F905460DE0086840F40020EFE740F487
:105360008010ECE7FDF7BCF9401B022801D90320AF
:105370008DE720680001F5D5504688E7284402589B
:105380002DE9F047454D044689464FF0000A28684C
:10539000C04380070AD0414E283E306820F080503C
:1053A0003060FDF79DF90746B04608E00120BDE8F2
:1053B000F08700BFFDF794F9C01B022867D8D8F822
:1053C00000008000F6D4208829684FF4FE0721F001
:1053D0007C713E0241EA00502860207AA389B4F82B
:1053E00004C040022D4D2D495B1E227CACF1010C06
:1053F0001835091DA0F5007080B2521ECCF3080CC0
:1054000007EA034340EA0C00184306EA026210432D
:1054100028600868626920F44060104308600A68E8
:10542000A06922F4007202430A60281D0A6822F46F
:1054300080720A6002684FF6F873E4699A4342EAA0
:10544000C40202600868B9F1000F40F480720A607B
:1054500011D00868B9F1010F11D040F080700860D8
:10546000D8F80000444640F08050C8F80000FDF72E
:1054700037F905460DE0086840F48000EFE740F496
:105480000000ECE7FDF72CF9401B022801D90320AE
:105490008DE720688000F5D5504688E728440258FB
:1054A00010B5026840F26F335169946944F0080402
:1054B00094610268946944F010049461026814686D
:1054C00024F001041460026814699C4314610268AA
:1054D000936823F44043936090F88120042A0CD011
:1054E0008A060AD5D0F8842042F08002C0F88420D1
:1054F0000268936943F02003936190F88120032AA6
:105500000CD04A060AD5D0F8842042F00402C0F834
:1055100084200268936943F0400393618A050AD5A9
:10552000D0F8842042F00102C0F884200268936918
:1055300043F400739361C9050AD5D0F8841041F093
:105540000801C0F8841001688A6942F480728A6197
:105550000021A0F86210A0F86A1010BD2DE9F041FA
:105560001C4616460D460746DDF818800AE000BFC7
:10557000FDF7B6F8A0EB0800A04202D3601C01D0F2
:105580000BE054B13868406935EA000007D00020CC
:10559000B042EDD00020BDE8F0810320FBE7012000
:1055A000F6E77047FDF7A2B830B59DB04C216846CC
:1055B000FAF7FCFE202113A8FAF7F8FE0220FDF707
:1055C00039F91D48016821F4404101600168002457
:1055D00001F440411B9101688904FCD502200A9026
:1055E00028230990C20301210C25CDE90012CDE941
:1055F0000B03CDE90D10CDE910540F9068461294BD
:10560000FEF726FB08B172B6FEE740201A90082389
:105610000501CDE9163013ABCDE918053F21032272
:1056200083E8160013A81146FEF714F9002801D0EC
:1056300072B6FEE71DB030BD184802582748F0B5D5
:10564000274A016841F470010160106800F00F0002
:10565000072804D2106820F00F00C01D10602149F7
:105660000020204C10340B681F4D43F001030B60E9
:1056700020600B682B400B60136803F00F03072BAF
:1056800004D9136823F00F03DB1D1360154C174A70
:105690001834174B261D371D2060124C154D283429
:1056A0003060261D3860371D23603B1D35601C1D92
:1056B0003A60251D2E1D1860331D2260286032605F
:1056C00018600A6843F2D204064B0B4D22F4802284
:1056D00060330A6018602C60F0BD000088ED00E0C7
:1056E00000200052004402587FEDF6EA80020101DA
:1056F000000202020000FF0100400052FEE709071D
:1057000000284FEA116104DB00F1E02080F800146A
:10571000704700F00F0000F1E02080F8141D704782
:105720000EB5FCF7EBFFFFF73FFFFFF7F3FCFFF7CA
:10573000DBFCFFF78FFCFFF75FFDFFF703F80024AA
:1057400000944FF48C762146F02332462046FEF733
:10575000D9FF2548002140F2FF72FBF7F7F92349F2
:1057600001222148FBF760FFDFF880A02027DFF847
:1057700080B04FF018084FF6FF754FF4877900BFDF
:1057800048214FF6074378200294CDE9004819A23A
:10579000FFF7D2FB64212B4654200294CDE9004749
:1057A00016A2FFF727F90A2233460021104600957A
:1057B000FEF750FF0021334648464A460095FEF763
:1057C00049FFCDE9005402970523BAF80020AA2129
:1057D0003220FFF749FB5023CDF800B096211A463E
:1057E000B420FFF781FBCBE7180000240000002461
:1057F00022580008646D426F74000000B4EFC3EEDD
:10580000BFC6BCBC000000000246012000E05043BF
:105810004B1ED9B2FBD270474FF04070E1EE100A38
:105820007047C5B3C5B3C5B3C5B3C5B4C5B4C5B377
:10583000C5B3C5B3C5B3C5B3C592BD92BD92BD9244
:10584000BD92BD92BD92BD7283AC732B732B62EA85
:1058500062A95AA95A895AA85AA841E55AA86309BF
:105860007BCC8C0E8C4E946F8C4E8C0E8C2E944F69
:10587000946F9CD0A512AD32AD52B573B593BDB443
:10588000BDD4BDD4BDD4C5D5C5D5C5D5C5D5C5D563
:10589000C5F5C5F5C5F5C5D5C5D5C5D5C5D5BDB401
:1058A000B593B573AD32AD12946F7B8C6B2A62C920
:1058B00062C962C962E962E962E962E962E962E9D0
:1058C00062E9C5B3C5B3C5B3C5B3C5B4C5B4C5B343
:1058D000C5B3C5B3C5B3C5B3C5B3C592BD92BD927B
:1058E000BD92C593BD72734A732B6B0B62CA5AA9E2
:1058F0005AA95AA95AA95AA86B4BAD12B573AD1241
:10590000A4F19CB0946F946F948F9CB0A4D1A51116
:10591000AD32B573BD94BDB4BDD4C5D5C5D5C5F53F
:10592000C5F5C5F5C5F5C5F5C5F5C5F5C5F5C5F5A7
:10593000C5F5C5F5C5F5C5F5C5F5C5F5C5F5C5F597
:10594000C5D5C5D5BDD4BDB4B593AD52A5129CB0D7
:1059500083ED6B4B5AC95AC962E962E962E962E9AF
:1059600062E9C5B3C5B3C5B3C5B3C5B4C5B4C5B3A2
:10597000C5B3C5B3C5B3C5B3C5B3C592BD92BD92DA
:10598000BD92BD526287730A6AEA62AA62A95AA9E5
:105990005AA95AA95AA95AA9B573B573B553AD32C4
:1059A0009CD0948F9CB09CD0A4F1AD12AD53B57334
:1059B000B594BDB4BDD5C5D5C5F5C5F5C5F5C615F8
:1059C000C5F5C5F5C5F5C615C615C615C615C61562
:1059D000C615C615C5F5C5F5C5F5C5F5C5F5C5F5B5
:1059E000C5F5C5F5C5F5C5F5C5D5BDD4BDB4B5730B
:1059F000A5119C907BCD630A62C95AC962E962E92C
:105A000062E9C5B3C5B3C5B3C5B3C5B4C5B4C5B301
:105A1000C5B3C5B3C5B3C5B3C5B3C593C593C59326
:105A2000ACF05A677B6B6AEA62AA5AA95AA95AA9CA
:105A30005AA95AA95AA983CEB573B573B553B552AD
:105A4000AD11AD11AD52B573BD94BDD4BDD4BDD5AE
:105A5000C5F5C5F5C5F5C615C615C615C615C615D1
:105A6000C615C615C615C615C615C5F5C5F5C615A0
:105A7000C615C615CE15C615C615C615C5F5C5F588
:105A8000C5F5C5F5C5F5C5F5C5F5C5F5C5F5C5F447
:105A9000BDD4BD94AD329CB08C4E736B62C962C9EB
:105AA00062E9C5B3C5B3C5B3C5B3C5B4C5B4C5B361
:105AB000C5B3C5B3C5B3C5B3C5B3C593C593B551D8
:105AC00052256B2A6AEA5AAA5AAA5AA95AA962AA5C
:105AD00062CA83CDB553B553AD52AD32B552B5524E
:105AE000B573B593BDD5C5F5C5F5C5F5C5F5C5F512
:105AF000C5F5C615C615C615C615C616CE16CE16DC
:105B0000CE16CE16CE16CE16CE16CE16CE16CE1675
:105B1000C616C616CE16CE16CE16CE16CE16C5F59F
:105B2000C5F5C5F5C615CE15C615CE15CE15C615C7
:105B3000C5F5C5F5C5D5BDB4B593A5118C4E7BACE7
:105B400062C9C5B3C5B3C5B3C5B3C5B4C5B4C5B3E0
:105B5000C5B3C5B3C5B3C5B3C5B3C5B3B55141A38B
:105B6000732B6AEA62C95AA95AA95AA95AA962EAC0
:105B700083CEAD33AD53AD53AD32B553B573B5939D
:105B8000C5D4C5D5C5F5C5F5C5F5C615C5F5C61544
:105B9000C615C615CE16CE16CE16CE16CE16CE16F7
:105BA000CE16CE16CE16CE16CE16CE16CE16CE16D5
:105BB000CE16CE16CE16CE16CE36CE16CE16CE15A6
:105BC000CE15CE15CE16CE15CE15CE15CE16CE15BB
:105BD000C615C5F5C5F5C5F5C5D5BDB4AD329CB086
:105BE00083EDC5D3C5D3C5D3C5B4C5B3C5B3C5B39C
:105BF000C5B3C5B3C5B3C5B3C5B3C5925A467B4A91
:105C000062EA5A895AA95AA95AA95AA9734CA4D125
:105C1000A4F2A4F2A511AD32B553B573BD93BDB4D2
:105C2000C5F5C5F5C5F5C5F5C5F5C615C615C61541
:105C3000C615C615CE36CE36CE36CE36CE36CE3696
:105C4000CE16CE16CE16CE16CE16CE16CE16CE1634
:105C5000CE16CE16CE16CE36CE36CE16CE16CE35C5
:105C6000CE35CE35CE35CE35CE35CE35CE15CE165B
:105C7000CE15C615C615C5F5C5F5C5D5BDB3BD93BD
:105C8000B552C5D3C5D3C5D4C5D4C5B3C5B3C5B343
:105C9000C5B3C5B3C5B3C5B3BD725A666AEA6AEA8D
:105CA0005AA95A895AA95AA95AA98C2EA4F1A4F121
:105CB000A4F1A4D1AD12B553B573BD94BDB4C5D58F
:105CC000C5F5C5F5C5F5C615C615C615C615C6155F
:105CD000C615CE16CE36CE36CE36CE36CE36CE36ED
:105CE000CE16CE16CE16CE16CE16CE16CE16CE1694
:105CF000CE16CE16CE16CE36CE36CE16CE16CE3525
:105D0000CE35CE35CE35CE35CE35CE35CE36CE1699
:105D1000CE16C615C615C5F5C5F5C5F5C5F4C5F449
:105D2000C5D4CDD3CDD3CDD4C5B4C5B3C5B3C5B318
:105D3000C5B3C5B3C5B3B5337B4B6B2B62C95AA989
:105D40005AA95AA95AA85AA8944FA4F1A4F1A4F1A7
:105D5000A4D1ACF1AD32B573BD94BDB4C5D4C5F515
:105D6000C615C615C615C615C615C615C5F5C6157C
:105D7000C615C615CE36CE36CE36CE36CE36CE3655
:105D8000CE16CE16CE16CE16CE16CE16CE16CE16F3
:105D9000CE16CE16CE16CE36CE36CE16CE16CE3584
:105DA000CE35CE35CE35CE35CE35CE35CE15CE161A
:105DB000CE15C615C615C615C615C5F5C5F5C5F566
:105DC000C5F5C5D3C5D3C5D3C5B4C5B3C5B3C5B370
:105DD000CDD4C5B39C6E62A96B0A5A8952685A88A1
:105DE0005AA95AA95AC9946FA4F1A4F1A4F1A4F133
:105DF000ACF1B553B573BDB4BDB4C5D5C5D5C5F506
:105E0000C5F5C5F5C615C615C615C615C5F5C6151D
:105E1000C616CE16CE36CE36CE36CE36CE36CE36AA
:105E2000CE16CE16CE16CE16CE16CE16CE16CE1652
:105E3000CE16CE16CE16CE36CE36CE16CE16CE35E3
:105E4000CE35CE35CE35CE35CE35CE35CE36CE1658
:105E5000CE16CE15CE15CE15CE16CE16CDF5CDF569
:105E6000CDF5CDD3CDD3CDD4C5D4C5B4C5B4CDD562
:105E7000A48F732973096AE85AA8734B734C6B4B50
:105E80006B2B62EA7BCDA4F1A4F1A4F1A4F1AD12D5
:105E9000B553BD74BD94BDB4C5D5C5F5C5F5C5F53F
:105EA000C615C5F5C5F5C5F5CE15C615C615C61575
:105EB000C616CE16CE36CE36CE36CE36CE36CE360A
:105EC000CE16CE16CE36CE36CE36CE36CE36CE36F2
:105ED000CE36CE36CE36CE36CE36CE36CE36CE35A3
:105EE000CE35CE35CE35CE35CE35CE35CE35CE359A
:105EF000CE35CE35CE35CE15CE35CE35C615CDF513
:105F0000CDF5CDD3CDD3CDD4C5D4BD72944E732AA7
:105F10006AE9732A7B6B7B6B7B8B738C736C736C02
:105F2000736C62EA5AC96B2A734B7BAC8C4FB553C6
:105F3000BD94BD94BDB4BDB4C5D5C5F5C5F5C5F515
:105F4000C615CDF5CE16C616C5F5C5F5B593AD7318
:105F5000AD53B5B4C5F5C616CE36CE36CE36CE3632
:105F6000CE16CE16CE36CE36CE36CE36CE36CE3651
:105F7000CE36CE36CE36CE36CE36CE36CE36CE3502
:105F8000CE35CE35CE35CE35CE35CE35CE35CE35F9
:105F9000CE35CE35CE35CE35CE35CE35C615CDF552
:105FA000CDF5CDD3CDD3CDD4C5B383AB7B6A732A26
:105FB000732B7B6C838C7B6C7B8C736C736C736CC2
:105FC0006B2B630A738C738C738C738C736C736C14
:105FD00083CDB553BDB4BDB4C5D5C5F5C5F5C5F5BF
:105FE000C615CE16C5F5BDD5B5B5A51394B18C9122
:105FF0008C9194B1AD53BDB5C616CE36CE36CE36E5
:10600000CE16CE16CE36CE36CE36CE36CE36CE36B0
:10601000CE36CE36CE36CE36CE36CE36CE36CE3561
:10602000CE35CE35CE35CE35CE35CE35CE35CE3558
:10603000CE35CE35CE35CE35CE35CE35C615CDF5B1
:10604000CDF5CDD3CDD3CDF48BC9A4AB7B479C8B01
:1060500083AC7B6B838C7B8D7B8D7B6D736C6AEBF0
:10606000736C7B6D738C738C738C738C736B734BD1
:106070006B2A62E983CDC5D5C5F5C5F5C5F5C5F56E
:10608000C5D5BDB5B57494D384727C527C727C52F4
:106090007C5284728C9394F3BDB5CE16CE36CE3638
:1060A000CE16CE16CE36CE36CE36CE36CE36CE3610
:1060B000CE36CE36CE36CE36CE36CE36CE36CE35C1
:1060C000CE35CE35CE35CE35CE35CE35CE35CE35B8
:1060D000CE35CE35CE35CE35CE35CE35C615CDF511
:1060E000CDF5CDD3CDD2A46C836683659C26B50651
:1060F000520683AC7B8C7B8D7B8D7B6D6AEB7B8DBD
:106100007B8D7B8D7B8D7BAD7BAD738C736B734B8C
:10611000736B734B734B83CDC5F5C5F5C5F5BDD416
:10612000B574A4D28C5184527C53745474747453D7
:106130007473745374737C739CF4C5F6CE36CE3688
:10614000CE16CE16CE36CE36CE36CE36CE36CE366F
:10615000CE36CE36CE36CE36CE36CE36CE36CE3520
:10616000CE35CE35CE35CE35CE35CE35CE35CE3517
:10617000CE35CE35CE35CE35CE35CE35CE16CDF567
:10618000CDF5CDD3BD2EA4087AE49C07B4A5B50403
:1061900049E583AC7B8C7B8D7B8D62EA736C7B8D58
:1061A0007BAD7BAD7BAD7BAD7BAD736C736C736C8A
:1061B000734C6B2B6B2B6B2AC5D5C5D5BDD5B59351
:1061C000A4D28C72845284737C747C74745474541E
:1061D00074547453745374538493BDB5CE36CE3611
:1061E000CE16CE16CE36CE36CE36CE36CE36CE36CF
:1061F000CE36CE36CE36CE36CE36CE36CE36CE367F
:10620000CE36CE36CE36CE36CE36CE36CE36CE366E
:10621000CE36CE35CE35CE15CE15CE15CE15CE1505
:10622000CDF5C5B2A406AC488B27BCA6BCC4BCE364
:1062300051C5838C83AC7BAD6B0B7B6D7BAD7BAD34
:106240007BCD7BCD7BCD7BAD738C736C736C6B2BFB
:106250006B0B62EA62C962C9944FBDB5AD128C5135
:106260007C326C116C1174536C5374546C536433E2
:106270006C536C5364326C127C73AD34C615C61605
:10628000CE16CE16CE16CE36CE36CE36CE36CE364E
:10629000CE36CE36CE36CE36CE36CE36CE36CE36DE
:1062A000CE36CE36CE36CE36CE36CE36CE36CE36CE
:1062B000CE36CE15CE15CE15CE15CE15CE15CE15A5
:1062C000CE15A44AB4889BC5A429C485C4C4C4C43B
:1062D00049A45A0683AD6AEA7BAD7BAD7BAD7BAD4D
:1062E0007BCD7BCD7BCD7BAD7BCD7B8D6B2B5AC9A5
:1062F00052A94A8952685AA9736C83CF7BD073D153
:106300006BF16411641164125BF25BD35BF25BF2BC
:106310006413641363F364127C339CB4B574C615C0
:10632000C615CE16CE16CE16CE36CE36CE36CE36D6
:10633000CE36CE36CE36CE36CE36CE36CE36CE363D
:10634000CE36CE36CE36CE36CE36CE36CE36CE362D
:10635000CE16CE35CE15CE15CE15CE15CE15CE1504
:10636000CE159C27BCC8A3E5B467BCA5C4C3C4E3D1
:106370006AA58BAC838C7B8D83AD7BCD83CD83CDA8
:1063800083CD83EE7BAD7BAD7BAD736C62EA52AAAD
:106390004A89424852AA5B2C73AF73D073D16BD138
:1063A00063F164116411643364135BD25BB25BD23A
:1063B0005BD25BF263F363F274329473AD54C5F64F
:1063C000C5F5C615CE16CE16CE36CE36CE36CE3660
:1063D000CE36CE36CE36CE36CE36CE36CE36CE369D
:1063E000CE36CE36CE36CE36CE36CE36CE36CE368D
:1063F000CE16CE35CE15CE15CE15CE15CE15CE1564
:10640000CE159C079342C4A6C4A49363C4C4BCC560
:106410009C2A8B8C7B4B83AD83CD83EE83EE83EE06
:1064200083EE7BCD83CD7BAD6B4C62EB528A4A6AA7
:106430004A6A52AB636E63B063B063B16BB163D150
:1064400063D163D063D05BB1539153914B5053915F
:1064500053B25BD263F363F36C128453A513C5D5B7
:10646000C5F5C615CE16CE16CE36CE36CE36CE36BF
:10647000CE36CE36CE36CE36CE36CE36CE36CE36FC
:10648000CE36CE36CE36CE36CE36CE36CE36CE36EC
:10649000CE16CE15CE15CE15CE15CE15CE15CE15E3
:1064A000CE1572C5B447C4A5C4C6A428A3E7AC4999
:1064B00093EC7B2B83AC83CD83CE83EE83EE83CEB4
:1064C0007BCE840F83CE736D630C528A4A6A4A8BEB
:1064D0005AEC6B8F6BD074127432743274527452E3
:1064E000745274527432741263D253704B5053719D
:1064F0005BB163D263F363F36C127C329CD3BDB4A3
:10650000C5F5C615C616CE36CE36CE36CE36CE3606
:10651000CE36CE36CE36CE36CE36CE36CE36CE365B
:10652000CE36CE36CE36CE36CE36CE36CE36CE364B
:10653000CE36CE36CE36CE36CE16CE16CE16CE16BB
:10654000CE166B0959E4A3E97AC459A149439BEDDE
:106550007B4B838C8BAD83CE83EE83EE83EE83EE19
:106560007BAD83EE73AD632C52AB4A6A4A8A632DCE
:106570006B6E73F07C117C527C737C737C737C73C8
:106580007C737C737C737453743363D15BB15BB184
:106590005BB15BD25BF263F36C127C529CF3BDB4D3
:1065A000C5F5C615C615C616CE36CE36CE36CE368F
:1065B000CE36CE36CE36CE36CE36CE36CE36CE36BB
:1065C000CE36CE36CE36CE36CE36CE36CE36CE36AB
:1065D000CE36CE36CE36CE36CE16CE16CE16CE161B
:1065E000CE166B2A6ACB8309C4A6CCC5A40993CD69
:1065F000838C8BAD83AD83CD83CE83EE83EE7B8D99
:106600008C2F7BAD734C5AAA5249528B738F7C11DD
:106610007C117C317C327C737C737C737C737C73E7
:106620007C737C937C737C747C737C537453743361
:1066300063F25BD25BD263D26C128473A514C5D5AE
:10664000C5F5C5F5C615C615C615C615CE16CE3682
:10665000CE36CE36CE36CE36CE36CE36CE36CE361A
:10666000CE36CE36CE36CE36CE36CE36CE36CE360A
:10667000CE36CE36CE36CE36CE16CE16CE16CE167A
:10668000CE367B8D7BAD83CE49A2AC27940C72E9CC
:1066900083AD83CD83CD83EE840E8C2F7BAD8C0FA9
:1066A00083CE734C630B62EB632C738E7C117C5135
:1066B000845284527C527C737C937C937C937C9335
:1066C0007C937C937C947C9484947C947C737C7386
:1066D00074736C336BF26BF26C1284739CF3BDB504
:1066E000BDD4C5F5C5F5C615C615C615C615CE1655
:1066F000CE36CE36CE36CE36CE36CE36CE36CE367A
:10670000CE36CE36CE36CE36CE36CE36CE36CE3669
:10671000CE36CE36CE36CE36CE36CE16CE16CE16B9
:10672000CE367B8D7BAD7BAD83AD83CC7B8C83AC58
:1067300083CD83CD8BEE840E8C0E840E8C0E83EE77
:106740007BAD7B8D83CE9CB2A514A5149CD48CD339
:106750008CD3849384738494849384B484B484B4F5
:1067600084B484B484B484B4849484947C947C94F9
:1067700084947C737C537C537C527C7394D3A55457
:10678000B593BDB4C5F5C5F5C615C615CE16CE363E
:10679000CE36CE36CE36CE36CE36CE36CE36CE36D9
:1067A000CE36CE36CE36CE36CE36CE36CE36CE36C9
:1067B000CE36CE36CE36CE36CE36CE36CE16CE16F9
:1067C000CE167B8D7BAD7BAD7BCE8C0F630A83CDEC
:1067D00083CD83EE840E8C0E8C2F83EE8C0E83EE95
:1067E0007BAD83EEA4F2BD95BD96BD96B5759D5566
:1067F0009D148CD384B384B484B484B484B484B43A
:1068000084B48494849484948494849484948494A8
:1068100084947C947C737C737C737C738CB394F3CE
:10682000A513B573BDB4C5F5C615C616C616CE16E6
:10683000CE16CE36CE36CE36CE36CE36CE36CE3658
:10684000CE36CE36CE36CE36CE16CE16CE16CE16A8
:10685000CE16CE36CE36CE36CE36CE36CE36CE3638
:10686000CE16736C738D7B8D83CE6B2B7BAD83EEDD
:1068700083EE83EE8C0E840E7BAD8C2F8C2F8C0ED2
:10688000AD13BDB5BDB5C5F6C5F6C5F7C5F7BDD6E3
:10689000BDD6B5B5AD759D148CD48CD48CD48CB4C8
:1068A0008CD48CD484B484B48494849484B4849438
:1068B000849484947C947C737C73849484B4849353
:1068C00084938CB39CF3B553BD94C5D5C616C61638
:1068D000C616CE16CE36CE36CE36CE36CE36CE36E0
:1068E000CE36CE36CE36CE36CE16CE16CE16CE1608
:1068F000CE16CE36CE36CE36CE36CE36CE36CE3698
:10690000CE16736C736D738D7BCE7B8D7BCD83EEDA
:1069100083EE840E840E83EE840E9490B574BDB520
:10692000C5D5CDF6CDF6CE37CE37CE37CE37CE372E
:10693000CE37CE16C5F6C616C617C617C5F7BDD6CE
:10694000AD96A5769535951594F58CD484D484D4DC
:1069500084B484B484B484B484B484B484B4849497
:106960007C737C537C5284928CB3A512BDD5C61621
:10697000C615C616CE16CE16CE36CE36CE36CE3688
:10698000CE36CE36CE36CE36CE36CE16CE16CE1647
:10699000CE16CE36CE36CE36CE36CE36CE36CE36F7
:1069A000CE16736C738D738D734C83EE83CD83EE33
:1069B00083ED840E83ED840EA4D1AD53BDB4C5D553
:1069C000CDD5CDF6CE16D657D657D677D658D6775C
:1069D000CE57CE56CE36CE36CE37CE37CE37CE3752
:1069E000C638C638C617BDF7BDD6AD95A575A55531
:1069F000A5349D349D149D1494D494D48CD484B423
:106A0000849484947C537C527C528C93A4F2BDB5C4
:106A1000C5F6C616CE16CE16CE16CE36CE36CE3627
:106A2000CE36CE36CE36CE36CE36CE36CE36CE1666
:106A3000CE16CE36CE36CE36CE36CE36CE36CE3656
:106A4000CE16736C736C736C6B0B7BCD83CD83EE46
:106A5000840E83ED83EDAD32BDB5C5F5C5F5C5F545
:106A6000CDF6D637D657D677DE98DE78D678D67775
:106A7000D677D677D657CE57CE37BDB4B574CE3786
:106A8000D678D678D678D678DE78D678D657CE57D8
:106A9000CE37CE16C5F6C5D6BDB6BDB6AD76A555B4
:106AA00094D484947C737C537C537C537C73849304
:106AB0009CF3BDB5C616CE36CE36CE36CE36CE36E5
:106AC000CE36CE36CE36CE36CE36CE36CE36CE36A6
:106AD000CE36CE36CE36CE36CE36CE36CE36CE3696
:106AE000CE16734C736C734C738D7BAD7BAD7BCDCD
:106AF0008C0E8C2EA4F2BDB5CDD6CDF5CDF5CDF551
:106B0000D5F6D637D637DE57DE77DE77DE57D6773F
:106B1000D677D677D657D657D657CE36CE36D6571F
:106B2000DE98DE98DE98DE98DE98DEB8DEB8DEB855
:106B3000D698D698D677D657CE37CE17C5F7BDB6E6
:106B4000A53594D484737C747C947C737C737C733F
:106B5000847294B3A534C5D5CE36CE16CE16CE16D5
:106B6000CE36CE36CE36CE36CE36CE36CE36CE3605
:106B7000CE36CE36CE36CE36CE36CE36CE36CE36F5
:106B8000CE15734C734C62EA7B8D7BAD7BAD83CEAF
:106B9000944FAD32BDB4CDD5D5D6D5B5D5B5D5B5D7
:106BA000D5F6D637D637DE57DE57D657D657D6570F
:106BB000D657D657D657D657CE36CE36CE57D677A7
:106BC000DE98DE98DE98DE98DE98DEB8DEB8DEB8B5
:106BD000DEB8DEB8DEB8D698D678CE57CE37BDF759
:106BE000AD7594F48494849484947C737C737C73E6
:106BF0007C7284728CD3AD74C5F6C5F6C616C61603
:106C0000C616CE36CE36CE36CE36CE36CE36CE368C
:106C1000CE36CE36CE36CE36CE36CE36CE36CE3654
:106C2000CE156B2B6B4C6B0B7B8D7BAD83CEA4D1C8
:106C3000BD94C5D5CDF6D5D5D5B5D575DD75DD7584
:106C4000DDB6DE37DE37D637D637D637D637CE364F
:106C5000CE367B8C6B0AA4D1CE16CE36D677DE9894
:106C6000DE98DE98DEB8DEB8DEB8DEB9DED9DED971
:106C7000DED9DED9DED9DED9DE98DE98D678CE37F9
:106C8000B59594F484B4849484947C737C737C73FD
:106C90007C537C5274528492A534AD74AD74B57338
:106CA000B573BDB4C615CE16CE36CE36CE36CE367C
:106CB000CE36CE36CE36CE36CE36CE36CE36CE16D4
:106CC000CE156B2B62CA6B4B7B8C8C2FA4D2BD5420
:106CD000CDB5CDF6CDD5CD74B471ABEFC451C47183
:106CE000CD13D5B5DDF6D616D616CDD562A9208042
:106CF00020806AEA732A31231880946FD657DE9871
:106D0000DEB8DEB8DEB8DED9DED9E6D9E6D9E6D916
:106D1000E6D9DED9DED9DED9DEB9DEB9D698D657C6
:106D2000C5F7A5558CD484B47CB47C7374327C5381
:106D30007453747374737C52845284728472849218
:106D40008C9294B3A514AD54BDB5C616CE36CE16EE
:106D5000CE16CE16CE16CE16CE16CE16CE16CE1613
:106D6000CE156B2B41C66B2B7BCDAD32BD94D5D6EA
:106D7000DE17DE17C574936D9B6DABAEAB8EC41082
:106D8000BC71CD54D5B5CDD5CDD5ACD1208020802A
:106D90007B4BE698CDF6CDF620C11880BDB4DE98C9
:106DA000DEB8DED9E6D9E6D9E6F9E6F9E6F9E6F99C
:106DB000E6F9E6F9E6F9E6F9E6D9DED9DEB9D698DC
:106DC000CE57B5B68CD484B484B47C947C537C7395
:106DD000747374737C537C537C537C537C32743255
:106DE000743274327C527C738C93AD14BD75C616AC
:106DF000CE16CE16CE16CE16CE16CE16CE16CE1673
:106E0000CE1562CA2903736B944FB594C5B5D5D618
:106E1000D5F6D5D6BCF2AC0FAC0FBC10C410B3CFB6
:106E2000ABEFCD54D5B5D5F5CDD5A49028C12080F4
:106E30002080EED9EED9EED920802902AD32DE983D
:106E4000DED9E6D9E6D9E6F9E6F9E6F9E6F9E6F9B2
:106E5000E6F9E6F9E6F9E6F9E6F9E6D9DEB9DE990A
:106E6000D678C618951584D484D47CB37C937C736F
:106E700074737C737C5374537C7374327412741205
:106E8000743274336C5274327C118C729CD3B5940E
:106E9000C5F5C616CE16CE16CE16CE16CE16CE1604
:106EA000CE1652685A887BADB573BDB5C5D5CDD564
:106EB000CDB5CD94CD74CD34D534CCD3C4719B0C29
:106EC000CD13D5D6D616D616D5F6C5B53123B532DF
:106ED00020A120801860186020805247CDD5DE9810
:106EE000E6D9E6F9E6F9E6F9E6F9E6F9E6F9E6F9CA
:106EF000E6F9E6F9E6F9E6F9E6F9E6D9DED9DEB92A
:106F0000D699CE78A5B784F484D484D4749374933A
:106F100074727C737C737C537C73743274126BF167
:106F20006C126C326C326C326BF174327C5294D3D2
:106F3000AD55B5B6CE16CE16CE16CE16CE16CE168C
:106F4000CE165A888C0EA4F1BD94C5D5CDF5D616B3
:106F5000D616D616D616D5F6DDF6DDD6DDB6DD9517
:106F6000DDF6DE37DE57DE37D616D616BD5349E6D8
:106F700049C5836C20A128E2940ECE36D677DEB8C0
:106F8000DED9E6F9E6F9E6F9E6F9E6F9E6F9E6F931
:106F9000E6F9E6F9E6F9E6F9E6F9E6D9DED9DEB989
:106FA000DE99D679C6398CF584F584D57CB47CB469
:106FB0007C947C947C9374737C737432741263D16C
:106FC00063F16C3364326C3264126C126C127C7339
:106FD00094D4A555C616CE16CE16CE16CE16CE16FF
:106FE000CE1662E9A4D1B553BDD4CDF5CDF5D616F4
:106FF000D616D636D636DE37DE37E657DE57DE37DC
:10700000E658DE78DE98DE77DE77D657CE16B533D3
:10701000940E5A47838CCDD5CDF6DE98DE98DEB837
:10702000E6D9E6F9E6F9E6F9E6F9E6F9E6F9E6F988
:10703000E6F9E6F9E6F9E6F9E6F9E6D9DED9DEB9E8
:10704000DE99D679CE5995368CF57CF57CD47CD4F6
:107050007CB47C947C9474737C947452741263D169
:107060005BD1641264126C32641264126412745242
:10707000849394D4C5F5CE16CE36CE36CE16CE1623
:10708000CE169470B553B573C5D5CE16D616D63771
:10709000DE57DE57DE57E678DE98E6B8E6B8E6B8A3
:1070A000E6B8E6B8E6B8E6B8E6B8DE98DE77D657D2
:1070B000D657D636DE57DE57DE78DEB8DED9E6D9CB
:1070C000E6F9E6F9E6F9E6F9E6F9E6F9E6F9E6F9C8
:1070D000E6F9E6F9E6F9E6F9E6F9E6D9E6D9DEB940
:1070E000DEB9D699CE79ADD895367CF574B47CD519
:1070F0007CB47CB57CB47C937C947C7374536BF1CE
:1071000053B163F2641264126412641264126C115B
:1071100074527C52AD54CE16CE36CE36CE16CE1626
:10712000CE16ACF1BD94C5B4CDF5D636D656DE77C5
:10713000DE97DE98DEB8E6B8E6D8E6D9E6D9E6D935
:10714000E6F9E6F9E6D9E6D9E6D8DEB8DE98D698CB
:10715000DE98DE98DE98DE98DE98DED9E6D9E6F98C
:10716000E6F9E6FAE6FAE6FAE6FAE6FAE6FAE6FA20
:10717000E6FAE6FAE6FAE6FAE6FAE6D9DED9DE99C2
:10718000D678D699D679CE59ADB78D167CD57CD523
:107190007CD57CB57CB57C947C9474737C936C3288
:1071A0005BD15BD263D26413641263F16C126BF136
:1071B000743274319CD2C5F5C615C615CE16CE16DE
:1071C000CE16AD12C5B4C5B4CDF5D636D657DE77DA
:1071D000DE98DEB8DEB8DED8E6D8E6D9E6F9E6F91C
:1071E000E6F9E6F9E6F9E6D9E6D9DED9DEB8DEB8A1
:1071F000DEB8DEB8DE98DE98DEB9DED9DED9E6F993
:10720000E6F9E6FAE6FAE6FAE6FAE6FAE6FAE6FA7F
:10721000E6FAE6FAE6FAE6FAE6FAE6D9DED9D6784A
:10722000BDB5D678D679D679C61895167CD57CD6D4
:107230007CD57CD57CB57CB57C946C3284B474529E
:1072400063F163F25BD26413641363F164126BF154
:10725000741274319492C5D5C5F5C615CE15CE16E7
:10726000CE16B553C5D5C5D5CE16D657DE77DE9822
:10727000DEB8DEB8DEB8DED8E6D9E6F9E6F9E6F93A
:10728000E6F9E6F9E6F9E6F9E6F9E6D9DEB8DEB8B8
:10729000DEB8DE98DE98DE98DE98DEB9DED9E6F953
:1072A000E6F9E6FAE6FAE6FAE6FAE6FAE6FAE6FADF
:1072B000E6FAE6FAE6FAE6FAE6FAE6D9DED9DEB961
:1072C000D699DE99DE99D699D699ADD784F684F60B
:1072D00084F67CD57CD574947CD574737C9374527D
:1072E000741163F15BD25BD263F263F1641263D118
:1072F0006BF174118C52BDB4C5F5C615CE15CE1503
:10730000CE16BD94CDF5CDF5D657DE77DE98DEB836
:10731000DEB8DED8E6D9E6D9E6F9E6F9E6F9E6F927
:10732000E6F9E6F9E6F9E6F9E6F9E6D9E6D9DEB8EE
:10733000D698CE364A06C5F6DEB8DEB9DED9E6F90D
:10734000E6F9E6FAE6FAE6FAE6FAE6D9DED9DED9B1
:10735000DED9DEB9C616CE37DEB9DEB9DEB9DE99C2
:10736000DEB9DEB9DEB9DE99DE99CE789D3784D6F6
:107370007CD67CD57CD574B4747374537CB47C9304
:107380007C5274125BD15BB15BB15BD163F163B1D1
:107390006BD173F18431BD94BDD4C5F5C5F5C5F588
:1073A000CE15C5B4CE15CE16D657DE98DE98E6B803
:1073B000E6D8E6D9E6D9E6F9E6F9E6F9E6F9E6F936
:1073C000E6F9E719E6F9E6F9E6F9E6F9E6D9DEB80D
:1073D000DE98CE162923AD53DE98D657AD333164EF
:1073E000DEB9E6FAE6FAE6FAE6D9DED9DEB9DEB9C2
:1073F000A4F231642102290221028C2FD698DEB931
:10740000DEB9DEB9DEBADEBADE9AD699C63895376D
:107410007CB5749574B57CB57CD57C947C947C9358
:107420007C53741263D163D15BB15BB15BD163B048
:1074300063B06BD08C71BD94BDB4C5F5C5F5C5F511
:10744000C5F5C5B4CDF5CE16D657DE98DE98DEB8B4
:10745000E6D9E6F9E6F9E6F9E6F9E6F9E6F9E6F954
:10746000E6F9E6F9E6F9E6F9E719E6F9E6F9DED82C
:10747000DEB8CE57524762C9DE98D65783CD41E673
:10748000CE37E6F9E6F9E6D9E6D9DEB8D698D6776A
:1074900039A5290218A19CB15AA920E241E6DEB91A
:1074A000DED9DED9DEB9DEB9DEB9DE99CE79ADB886
:1074B00084D6749574B57CB57CB57C947C947C94AE
:1074C0007C53743263B063D163B153905BD15B8FF3
:1074D000638F6BAF9CB2BD94BDB4C5D5C5F5C5F582
:1074E000C5F5C5D5CE16CE16D657DE97DE98E6B8CA
:1074F000E6D9E6F9E6F9E6F9E6F9E6F9E6F9E6F9B4
:10750000E6F9E6F9E6F9E6F9E719E6F9E6F9DED98A
:10751000DED9DEB8CE36A4D162EA29232923AD33E1
:10752000DE98DEB9DED9DED9DED9DEB8D657B5743D
:10753000316429023984EF1ACE57B57420E2A4D2FF
:10754000DED9DED9DED9DED9DEB9DEB9D699CE599B
:10755000A57784D67CB57CD57CD57C9474737C73FC
:107560007C53743263B063B05B90536F5390532E6F
:10757000632E6B6E83CE7BAD7B8C7B6C946FBD94E6
:10758000C5F5C5D5CE16CE16D636DE77DE98DEB872
:10759000E6D9E6D9E6F9E6F9E6F9E6F9E6F9E6F933
:1075A000E6F9E6F9E6F9E6F9E719E6F9E6F9DED9EA
:1075B000DED9DED9D677D657CE1639A52923D67887
:1075C000DE98DEB8DED9DED9DEB9DEB9CE57A51237
:1075D0003143420629027BCDE6FAC61639A5630A75
:1075E000DED9DED9DED9E6D9E6D9DEB9D699D69983
:1075F000C638A5778CF67CB57CB57C9574737453CE
:107600006C12741263B16390534E4B0E532E52ECB6
:10761000738E7B8D7BAD7BAD7BAD7B8C7B8C736CFC
:10762000A4B1C5D5CE16CE36D636D657DE77DE987F
:10763000DED8E6D9E6F9E6F9E6F9E6F9E6F9E6F99B
:10764000E6F9E6F9E6F9E6F9E719E6F9E6F9DED949
:10765000DED9DEB8D678D678D65783CD20E2CE16DE
:10766000D678BD94DEB8DED9DEB9DEB9D657B574AA
:107670004A06736C20E22902B5749C9020E262EA0B
:10768000DED9E6D9E6D9E6D9E6FADED9DEB9DE9961
:10769000CE79C639A59784F67CD57CB5749474737D
:1076A0006C1273F263B06390532E428B530D6B6E6A
:1076B0007BAD7BAD7BAD7BAD7BAD7B8C7B8C7B8CED
:1076C000736CCDF5D636D656D657D657D657DE98E4
:1076D000DEB8E6D9E6D9E6F9E6F9E6F9E6F9E6F93B
:1076E000E6F9E6F9E6F9E6F9E719E6F9E6F9DED9A9
:1076F000DED9C5F55AA9D678DEB9DE98D63762EA62
:1077000041E662EAD657E6D9E6D9DED9DEB9D678BF
:10771000B59439C5B5749CB120E220E220E2AD33C6
:10772000DED9E6D9E6D9E6FAE6FAE6DADEB9DEB976
:10773000DE99D699CE59953784D67CD57CB474938E
:1077400074326BF25B6F5B6F5B2E6B4E7BAF7B8D2E
:1077500083CD83CD83CE83CD7BCD7B8C7B8C7B8C8B
:107760007B6CCDF5D657D657D657D657D657DE773A
:10777000DEB8DED8E6D9E6F9E6F9E6F9E6F9E6F9A3
:10778000E6F9E6F9E6F9E6F9E6F9E6F9E6F9E6F901
:10779000E6D9DE98B5945AA8DEB9DED9DED9DE98EE
:1077A000DE98D678E71AE71AE71AE6FAE6D9DEB9DC
:1077B000D678C5D5294318A12102292362EADE998A
:1077C000E6DAE6DAE6DAE6FAE6FAE6DAE6DADEDA81
:1077D000DE99D699D679BE39A5768CF574736C127C
:1077E0006C126BD052ED530D6BAF7BAF83CE83CE5B
:1077F00083EE83EE83EE83EE7BCD7BAD7B8C7B8C47
:10780000736CCDF5D657DE57D657D657D657DE7799
:10781000DE98DEB8DED8E6D8E6D9E6F9E6F9E6F98C
:10782000E6F9E6F9E6F9E6F9E6F9E6F9E6F9E6F960
:10783000E6F9DED9DEB8DEB8E6D9E6D9E6D9E6D98A
:10784000E6D9E6D9E71AEF1AEF1AEF1AE6FAE6D9FF
:10785000DE98CE37AD338C2F62C9A512CE37DED974
:10786000DEDAE6DAE6DAE6DAE6FAE6DAE6DADEDA08
:10787000DE9ADE99D699CE59B5D89D5674535BB031
:10788000534F530E52CC6BAE7BCE83CE83EE83EE42
:1078900083EE83EE83EE83EE83CD7BAD7BAD7B8C7D
:1078A000732BD616DE57DE77D657D657D657DE77E8
:1078B000D697DEB8DEB8DED8E6D8E6D8E6F9E6F93F
:1078C000E6F9E6F9E6F9E6F9E6F9E6F9E6F9E6F9C0
:1078D000E6F9E6D9E6D9E6D9E6FAE71AE71AE71AA9
:1078E000E71AE71AEF1BEF3BEF3BEF3BEF1AE71A04
:1078F000DED9DE99D678D698DE99DEB9DEB9E6DA39
:10790000DEDADEDAE6DAE6DAE6DAE6DAE6DADEBAAF
:10791000DEBADE99D699CE59C618ADB77C535B4F07
:107920004AAC428B7BF07BEF7BCE83EE83EE83EE23
:1079300083EE83EE83EE83EE83CE7BAD630A6B2B07
:10794000734CD616DE57DE77D657D657D657D6574E
:10795000D677DE98DEB8DEB8DEB8E6D8E6F9E6F926
:10796000E6F9E6F9E6F9E6F9E6F9E6F9E6F9E6F91F
:10797000E6F9E6F9E6F9E6F9E719EF1AEF1AEF1A70
:10798000EF1AEF1AEF3BEF3BEF3BEF3BEF1AEF1A2B
:10799000E71ADEDADEB9DEB9DEB9DEB9DEB9DEB9A4
:1079A000DEB9DEB9DEDADEDADEDADEBADEBADEBAB9
:1079B000DEBADE99D699CE58C618BDD794B35B2DE2
:1079C00042297BEF7BEF7BCFD69AF79DEF5C9CB291
:1079D0008C0F83EE83EE83EE7B8D736D736D736D11
:1079E0007B8DD636DE77DE77DE77D657D657D657FD
:1079F000D677DE97DEB8DEB8DEB8E6D8E6D9E6F9A7
:107A0000E6F9E6F9E6F9E6F9E6F9E6F9E6F9E71A5C
:107A1000E71AE71AE71AE71AE71AEF1AEF1AE71A4E
:107A2000E71AEF1AEF3BEF3BEF3BEF3BEF3BEF3B50
:107A3000EF1AE6FAE6DADEDADEB9DEB9DE99DEB9A9
:107A4000DEB9DEBADEDADEDADEDADEBADEBADEBA17
:107A5000DEBADE9AD699CE58C617BDB694B26B4D33
:107A6000841083EF83EF83EFEF5DEF5CB575E6FB8A
:107A700083EF83EE83CE734C7B8D736D4A2883EF47
:107A800083AED657DE77DE78E678DE77DE57DE77B0
:107A9000DE98DE98DE98DEB8E6B8E6D9E6D9E6D913
:107AA000E6D9E6F9E6F9E6F9E6F9E6F9E719EF1AB3
:107AB000EF1AEF1AEF1AEF1AEF1AEF1AEF1AEF1A7E
:107AC000EF1AEF1AEF3BEF3BEF3BEF3BEF3BEF3BA8
:107AD000EF1BE6FAE6FAE6DADEB9DE99DE79DE7960
:107AE000DE79DE99DE99DEB9DEB9DEBADEBAE6BA53
:107AF000DEBADE99D699CE38C5F7B5758C307BCF16
:107B0000840F83CF83EF8C0F83EF8C1083EF7BAEDA
:107B100083EF83EE6B2B7BAE7B8E83CE7BAE5248A6
:107B200083CFDE97E698E698E6B9E6B8DE98E69861
:107B3000E6B8E6B8DEB8DEB8DEB8E6D8DED8DED81D
:107B4000E6D8E6D9DED9E6D9E6F9E6F9E719EF1A7B
:107B5000EF1AEF1AEF1AEF1AEF1AEF1AEF1AEF1ADD
:107B6000EF1AEF1AEF3BEF3BEF3BEF3BEF3BEF3B07
:107B7000EF1BE6FAE6FAE6DADE79C595BD549C30ED
:107B8000BD34D5F7D638DE79DE99DE99DEBAE6BAAD
:107B9000DEBADE99D699C617B5B59CD27BAE7BAE60
:107BA0007BCE83EF8C0F8C0F8C0F8C0F8C0F8C0F78
:107BB00083CF630B7BCD7BAD7BAE8C3083EF83CFEC
:107BC0002904DE98E6B8E6D9EED9E6D9E6B8E6D9D2
:107BD000E6F9E6F9E6F9E6F9E6F9E6D9E6D9DED816
:107BE000DED8E6D9DED9E6F9E6F9E6F9E719E71ACB
:107BF000E71AEF1AEF1AEF1AEF1AEF1AEF1AEF1A45
:107C0000EF1AEF1AEF3BEF3BEF3BEF3BEF3BEF3B66
:107C1000EF1BE6FAE6FADEB9C5D65A2830C372CBB6
:107C2000B4B2BCD3C555D5F7DE58DE79DE99DE9AFD
:107C3000DE9AD679D679C617AD3483EE83EE83EE1D
:107C4000840F8C0F8C0F8C0F8C0F8C2F8C2F83EF4D
:107C50007B8D83EE7BAE8C2F842F840F840F83EF7C
:107C600083EFDEB8E6D9E6D9EEF9E6D9E6B8EED983
:107C7000EF1AEF1AEF1AEF1AEF19E6F9E6F9E6D95B
:107C8000E6D9E6F9E6F9E6F9E719E719E719E71A97
:107C9000E71AE71AEF1AEF1AEF1AEF1AEF1AEF1AAC
:107CA000EF1AEF1AEF3BEF3BEF3BEF3BEF3BEF3BC6
:107CB000EF1BE6FAE6FADE99B554838DBD34BCF3CA
:107CC0007A8A59C7934DCD96D5F7DE58DE79DE997D
:107CD000DE99D679CE58BDD6949183EE7BCE840FB3
:107CE000840F8C0F8C0F8C0F8C2F8C2F8C2F734C40
:107CF00083EF83CE8C2F8C508C30842F840F840F95
:107D0000840FE6B8E6D9E6D9EEF9EEF9E6D9EF192F
:107D1000EF1AEF1AEF1AEF1AEF1AEF19E6F9E6F970
:107D2000E6F9E6F9E6F9E6F9E719E719E719E71AD6
:107D3000E71AE71AEF1AEF1AEF1AEF1AEF1AEF1A0B
:107D4000EF1AEF1AEF3BEF3BEF3BEF3BEF3BEF3B25
:107D5000EF1BE6FAE6FAE6DAD658CDD6ACB2518693
:107D600059A78B4DA3F09BCFCD75DE38DE79DE7938
:107D7000DE99D679C617B57583EF83EE840F840F2D
:107D80008C0F8C0F8C0F8C0F8C2F840F738D8C0F9E
:107D900083EF947194508C508C308C308C30840FE5
:107DA000840FE6D8E6F9E6F9E6F9E6F9E6F9EF1A1E
:107DB000EF1AEF1AEF1AEF1AEF1AEF1AEF19E71985
:107DC000E6F9E6F9E6F9E6F9E6F9E6F9E6F9E6F9BB
:107DD000E6F9E6F9E71AE71AEF1AEF1AEF1AEF1ABF
:107DE000EF1AEF1AEF1AEF1AEF1AEF1AEF3AEF1B2A
:107DF000EF1AE6FAE6DADEBAD678D617C595A451B8
:107E0000A3F05145388261E6C533DDF7DE79DE79CE
:107E1000D679CE38BDD69CB283EF83EF83EF83EE65
:107E20008C0F8C0F8C0F8C2F8C0F7B8D8C1083EF15
:107E300094919491947194718C518C5084308430CD
:107E40007BCEE6D9E6F9E6F9E6F9E6F9E6F9EF1AC6
:107E5000EF1AEF1AEF1AEF1AEF1AEF1AEF1AEF1ADA
:107E6000EF1AEF1AE719E719E719E6F9E6F9E6F963
:107E7000E6F9E6F9E71AE71AE71AEF1AEF1AEF1A26
:107E8000EF1AEF1AEF1AEF1AEF1AEF1AEF1AEF1BA9
:107E9000E71AE6FAE6DADEBADE79D658CDF7B4D3D9
:107EA000598640C38AEBBCB28B2C936DE659DE59E0
:107EB000D659C5F7B595840F83EF83EF83EF83EE33
:107EC0008C0F8C0F8C0F8C0F736D8C0F83EF9C912C
:107ED0009C9194919491947194718C518C507BEFFE
:107EE0002944E6F9E6F9E719E719E719EF19EF1957
:107EF000EF1AEF1AEF1AEF1AEF1AEF3AEF3AEF3ADA
:107F0000EF3AEF3AEF3AEF1AE719E719E6F9E6F92F
:107F1000E6F9E6F9E6F9E6F9E71AE71AE71AE71AE1
:107F2000E71AEF1AEF1AEF1AEF1AEF1AEF1AEF1A11
:107F3000E6FAE6FAE6FBE6DADEBADE79DE58D5B630
:107F4000BC92B4515985386140E3E617DE59DE59D9
:107F5000D638BDB6A51383EF83EF83EF83EF83EEAF
:107F6000840E840F8C0F83CE8C0F8C0F94719491A0
:107F7000949194B194B19491947194717BAE106189
:107F800039A6E719EF1AEF1AEF3AEF3AEF3AEF3A5C
:107F9000EF1AEF1AEF1AEF1AEF1AEF3AEF3AEF3A39
:107FA000EF3AEF3AEF3AEF3AEF1AE71AE719E6F944
:107FB000E6F9E6F9E6F9E6F9E6F9E6F9E6F9E6F9C9
:107FC000E6F9E71AE71AE71AE71AE71AE71AE71ACB
:107FD000E6FAE6FAE6FBE6DADEBADE79D659D63814
:107FE000CDB6C535B450CD34DDD6E638DE59DE59D0
:107FF000CE18BD959CD28C3083EF83EF83EF83EE58
:1080000083EE83EF6B2C83CF8C0F9C919C9194918A
:10801000949194B194B1949194917BAE18A25AAA80
:10802000736DEF19EF1AEF3AEF3AEF3AEF3AEF3A92
:10803000EF1AEF1AEF1AEF1AEF1AEF3AEF3AEF3A98
:10804000EF3AEF3AEF3AEF3AEF3AEF3AEF1AE71A30
:10805000E6F9E6F9E6F9E6F9E6F9E6F9E6F9E6F928
:10806000E6F9E6F9E6F9E6F9E6F9E6F9E71AE6FAF5
:10807000E6FAE6FAE6FBE6DADE9ADE99D699D679F2
:10808000D638D617CDD7D638DE58DE58D658D6587B
:10809000CE17BDB69CB183EF83EF83EF83EF83EE02
:1080A00083EE83EF7B8D8C108C309C919C9194910E
:1080B000949194B194B19491947108206B2C7BAEFF
:1080C0007BEFEF3AEF3AEF3AEF3AEF3AEF3AEF3A27
:1080D000EF3AEF3AEF3AEF1AEF1AEF3AEF3AEF3A98
:1080E000EF3AEF3AEF3AEF3AEF3AEF3AEF3AEF1A68
:1080F000E71AE71AE71AE6F9E6F9E6F9E6F9E6F922
:10810000E6F9E6FAE6FAE6FAE6FAE6FAE6FAE6FA70
:10811000E6F9E6FAE6FAE6DADEBADEBADE99D699EA
:10812000D679D679D679D679D679D679D659D65917
:10813000CE18BD9694917BCE83EF83EF83EF83EED1
:1081400083EE734C840F41E710611881188118A2E7
:108150004A28947194B2840F10816B6D73AE83EFD3
:1081600083CFEF3AEF3AEF3AEF3AEF3AEF3AEF3A9E
:10817000EF3AEF3AEF3AEF3AEF3AEF3AEF3AEF3AB7
:10818000EF3AEF3AEF3AEF3AEF3AEF3AEF3AEF3AA7
:10819000EF3AEF1AE71AE6F9E6F9E6F9E6D9E6F971
:1081A000E6F9E6F9E6FAE6FAE6FAE6FAE6FAE6D9F2
:1081B000E6D9E6D9E6DAE6DADEBADEBADEBADE9A81
:1081C000DE9ADE99DE99DE99DE99DE99D659D65986
:1081D000CE18BD9694717BCE83EF83EF83EF83EF50
:1081E0007B8D83EF41C7106118811881188218A216
:1081F00018C220C239A62124632C738D840F83EF0B
:108200007BCFEF3AEF3AEF3AEF3AEF3AEF3AEF3A05
:10821000EF3AEF3AEF3AEF3AEF3AEF3AEF3AEF3A16
:10822000EF3AEF3AEF3AEF3AEF3AEF3AEF3AEF3A06
:10823000EF3AEF3AE71AE6F9E6F9E6D9E6D9E6D9F0
:10824000E6F9E6D9E6DAE6D9E6D9E6D9DED9E6D91D
:10825000DED9E6D9E6DAE6DADEBADEBADEBADEBAC8
:10826000DE9ADE9ADE99DE99DE99D699CE59CE58FD
:10827000C618AD558C307BCE83EF83EF83EF7BAE9A
:108280007B8D83CE1061188110811082108118823D
:1082900018A218A218C27BAE62EB843083EF83EF82
:1082A00083EFEF3AEF3AEF3AEF3AEF3AEF3AEF3A3D
:1082B000EF3AEF3AEF3AEF3AEF3AEF3AEF3AEF3A76
:1082C000EF3AEF3AEF3AEF3AEF3AEF3AEF3AEF3A66
:1082D000EF3AEF3AEF1AE71AE6F9E6F9E6D9DED90E
:1082E000DED9DED9DED9DED9DED9DED9DED9DED9D6
:1082F000DED9E6D9E6DAE6DAE6DAE6DAE6DADEBAB0
:10830000DEBADE9ADE99DE99DE99D679CE59CE585C
:10831000C617AD3483EF7BCE83EF83EF83EF736DAE
:1083200083CE18A21061106110611061106110817C
:108330001882108162EB2944106183EF83EF83EF91
:108340007BCEEF3AEF3AEF3AEF3AEF3AEF3AEF3AC5
:10835000EF3AEF3AEF3AEF3AEF3AEF3AEF3AEF3AD5
:10836000EF3AEF3AEF3AEF3AEF3AEF3AEF3AEF3AC5
:10837000EF3AEF3AEF1AEF1AE71AE6F9E6D9DED943
:10838000DED9DED9DEB9DED9DED9DED9DED9DED955
:10839000E6D9E6FAE6FAE6FAE6DBE6DAE6DADEBAA5
:1083A000DEBADEBADE99DE99DE99D679CE59CE589C
:1083B000BDD694717BAE7BCE7BEF83EF6B4D7B8E16
:1083C0007BAE39861041106110611061106110613F
:1083D00018824A28316518A218827BEF83EF6B2C34
:1083E0002965EF1AEF1AEF1AEF1AEF3AEF3AEF3A60
:1083F000EF3AEF3AEF3AEF3AEF3AEF3AEF3AEF3A35
:10840000EF3AEF3AEF3AEF3AEF3AEF3AEF3AEF1A44
:10841000EF1AEF1AEF1AEF1AE71AE6F9E6F9DED9C2
:10842000DEB8DEB8DEB8DEB8DEB8DED9DED9DED939
:10843000DED9E6FAE6FAE6DAE6DADEBADEBADE9A9D
:10844000D6B9D6B9D69AD699D699D679CE58CE3845
:10845000B5B68C3073AE7BCE7BCE7BCE6B4C738E41
:10846000738E7BAE10411061086108610861106174
:10847000528A4A0818A220C3188283CF41E72945AF
:108480004207EF1AEF1AEF1AEF1AEF3AEF3AEF3A04
:10849000EF3AEF3AEF3AEF3AEF3AEF3AEF3AEF3A94
:1084A000EF3AEF3AEF3AEF3AEF3AEF3AEF1AEF1AC4
:1084B000EF1AEF1AEF1AEF1AEF1AE71AE6F9DEB819
:1084C000DE98DE98DEB8DEB8DEB8DED9DED9DED9D9
:1084D000DED9E6D9E6DAE6DADEDADEBADE9ADE9967
:1084E000D699D699D699D699D679CE59CE38C61777
:1084F000B5957BCE73AE73CE7BCE6B6C73AD738D47
:1085000073AE7BCE41C7104108610861086118A2B3
:10851000528A106120C320A3292483CF31453165BD
:1085200062EBEF1AEF1AEF1AEF1AEF3AEF3AEF3A5F
:10853000EF3AEF3AEF3AEF3AEF3AEF3AEF3AEF3AF3
:10854000EF3AEF3AEF3AEF3AEF3AEF3AEF3AEF1A03
:10855000EF1AEF1AEF1AEF1AEF3AE71AE6F9DED838
:10856000DE98DE98DEB8DEB8DEB8DED9DED9DED938
:10857000DED9DEB9DEB9DEB9DEB9DE99D699D679B3
:10858000D699D698D679CE78CE58CE58C637BDF77C
:10859000AD546B6D6B8D73AE6B8D632B6B8D738D6B
:1085A00073AE7BCE7BAE7BAE086108611082526AEF
:1085B0001041104120C362CB8C1041E741C762ECEF
:1085C0006B2CEF1AEF1AEF1AEF1AEF3AEF3AEF3A75
:1085D000EF3AEF3AEF3AEF3AEF3AEF3AEF3AEF3A53
:1085E000EF3AEF3AEF3AEF3AEF3AEF1AEF1AEF1AA3
:1085F000EF1AEF1AEF1AEF1AEF1AE71AE6F9E6D9AF
:10860000DEB8DED9DED9DED9DED9DED9DED9DED9D3
:10861000DEB9DEB9DE99D699D679D679D679D6790A
:10862000D699D698D679CE58CE58C638BDF7B5B6B5
:108630009D137BEF6B8D6B8D632C6B6D6B6D6B8DF9
:1086400073AD73AE73AE7BAE7BEF18E34208A51437
:108650007BAF18A318A318A320C339A76B0C6B0C0E
:108660005AAAEF1AEF1AEF1AEF1AEF3AEF3AEF3A67
:10867000EF3AEF3AEF3AEF3AEF3AEF3AEF3AEF3AB2
:10868000EF3AEF3AEF3AEF3AEF3AEF3AEF1AEF1AE2
:10869000EF1AEF1AEF1AEF1AE71AE71AE6F9E6F9F6
:1086A000E6D9E6D9E6D9DED9DED9DED9DED9DED9FA
:1086B000DEB9DE99D698D678D678D659D659D679F5
:1086C000D699D698D679CE58CE38C617BDD6B59598
:1086D000840F6B4C6B8D73AD5B0B6B4C6B6D6B8D4B
:1086E00073AD73AE632C39C7AD5552AA5ACBC5F7DB
:1086F000C5F7C5F731451882292562EC6B2D62EC70
:1087000062EBEF1AEF1AEF1AEF1AEF1AEF3AEF3A9D
:10871000EF3AEF3AEF3AEF3AEF3AEF3AEF3AEF3A11
:10872000EF3AEF3AEF3AEF3AEF3AEF3AEF3AEF3A01
:10873000EF3AEF3AEF1AE71AE6F9E6F9E6F9E6F961
:10874000E6F9E6F9DED9DED9DED9DED9DEB8DE9982
:10875000DE98D698D678D678D679CE58CE58CE78B8
:10876000D678CE58CE58CE38C637BE17B5B6AD542B
:108770007C2F6B6D6B8D634C6B6C6B6C6B6D6B8D51
:10878000738D39E7BDF7BDD6B5B6528AAD34C5F79E
:10879000C5F7C5D7A51483F0736E62EC734D734DA6
:1087A0005A8A00061016000610160000000001028A
:1087B000030401020304060708090000000000008A
:1087C0000000000000000000040404040400000491
:1087D000000014140A000000000000000000000067
:1087E0000A0A1F0A0A1F0A0A000000040E150506DD
:1087F0000C14150E0400000012150D152E2C2A1253
:1088000000000000040A0A361515291600000202AD
:10881000010000000000000000001008080404042B
:1088200004040808100002040408080808080404E6
:10883000020000000004150E0E15040000000000E8
:108840000008083E080800000000000000000000CA
:1088500000000202010000000000003F00000000D4
:1088600000000000000000000000000200000020E6
:108870001010080804040202010000000E1111117A
:108880001111110E00000000040604040404040E7B
:10889000000000000E1111080402011F000000007A
:1088A0000E11100C1010110E00000000080C0C0A24
:1088B000091F081C000000001F01010F1110110EFC
:1088C000000000000C12010D1311110E0000000039
:1088D0001E10080804040404000000000E11110E0C
:1088E0001111110E000000000E11111916100906C9
:1088F0000000000000000400000000040000000070
:10890000000000040000000404000000100804023D
:10891000020408100000000000003F003F000000BB
:10892000000000000204081010080402000000000B
:108930000E11110804040004000000001C22292D5F
:108940002D1D221C0000000004040C0A0A1E123314
:10895000000000000F12120E1212120F0000000091
:108960001E1101010101110E000000000F12121270
:108970001212120F000000001F120A0E0A02121F2C
:10898000000000001F120A0E0A0202070000000089
:108990001C1201013911120C000000003312121ECA
:1089A00012121233000000001F0404040404041F08
:1089B000000000003E080808080808080907000031
:1089C00037120A060A1212370000000007020202DC
:1089D0000202223F000000003B1B1B1B1515153532
:1089E000000000003B1216161A1A121700000000B1
:1089F0000E1111111111110E000000000F12120EB4
:108A000002020207000000000E1111111117190EC9
:108A1000180000000F12120E0A1212370000000098
:108A20001E1101060810110F000000001F1504049C
:108A30000404040E00000000331212121212120C71
:108A4000000000003312120A0A0C040400000000A7
:108A5000151515150E0A0A0A000000001B0A0A0463
:108A6000040A0A1B000000001B0A0A0A0404040E80
:108A7000000000001F0908040402121F00001C046B
:108A800004040404040404041C000002020404049A
:108A90000808081010000E08080808080808080848
:108AA0000E00040A000000000000000000000000AA
:108AB0000000000000000000003F02040000000071
:108AC00000000000000000000000000C121C123C1E
:108AD000000000030202020E1212120E000000003B
:108AE0000000001C1202120C000000181010101CD4
:108AF0001212123C000000000000000C121E021CAA
:108B0000000000182404041E0404041E00000000D9
:108B10000000003C120C021C221C00030202020E88
:108B20001212123700000004040000060404040EB0
:108B3000000000080800000C0808080808070003E7
:108B40000202021A0A060A130000000704040404C1
:108B50000404041F000000000000000F1515151587
:108B6000000000000000000F121212370000000089
:108B70000000000C1212120C000000000000000F98
:108B80001212120E020700000000001C1212121C2A
:108B9000103800000000001B060202070000000061
:108BA0000000001E020C101E000000000004041E45
:108BB0000404041C000000000000001B1212123C00
:108BC000000000000000001B0A0A0404000000006E
:108BD00000000015150E0A0A000000000000001B2E
:108BE0000A040A1B000000000000003312120C08E7
:108BF000040300000000001E0804041E0000180802
:108C00000808080C080808081800080808080808D8
:108C100008080808080806040404040804040404F6
:108C2000060016090000000000000000000000001F
:108C30000000000000000000000000000000000034
:108C40000008080808080808000018180000004874
:108C50006C24120000000000000000000000000072
:108C6000002424247F1212127F121212000000002E
:108C7000081C2A2A0A0C1828282A2A1C080800007E
:108C80000022251515152A585454542200000000BE
:108C9000000C1212120A76252911916E00000006AE
:108CA0000604030000000000000000000000004077
:108CB00020101008080808080810102040000002C2
:108CC000040808101010101010080804020000001A
:108CD000000008086B1C1C6B080800000000000066
:108CE0000000080808087F080808080000000000C5
:108CF0000000000000000000000006060403000061
:108D0000000000000000FE00000000000000000065
:108D10000000000000000000000006060000000047
:108D200080404020201010080804040202000000C7
:108D300000182442424242424242241800000000ED
:108D400000080E08080808080808083E000000008F
:108D5000003C4242422020100804427E00000000F5
:108D6000003C4242201820404042221C00000000EB
:108D700000203028242422227E20207800000000B9
:108D8000007E0202021A26404042221C000000001F
:108D900000382402021A2642424224180000000031
:108DA000007E2222101008080808080800000000B1
:108DB000003C4242422418244242423C000000004F
:108DC00000182442424264584040241C0000000025
:108DD0000000000018180000000018180000000033
:108DE0000000000000080000000000080804000067
:108DF0000040201008040204081020400000000079
:108E0000000000007F0000007F0000000000000064
:108E10000002040810204020100804020000000096
:108E2000003C42424640201010001818000000008C
:108E3000001C225A555555552D42221C0000000099
:108E4000000808181414243C224242E700000000E5
:108E5000001F2222221E22424242221F0000000046
:108E6000007C4242010101010142221C000000007D
:108E7000001F2242424242424242221F00000000A2
:108E8000003F4212121E12120242423F0000000036
:108E9000003F4212121E12120202020700000000DE
:108EA000003C2222010101712122221C000000004D
:108EB00000E7424242427E42424242E70000000056
:108EC000003E0808080808080808083E00000000DE
:108ED000007C10101010101010101010110F000056
:108EE000007722120A0E0A121222227700000000D6
:108EF00000070202020202020202427F000000009A
:108F00000077363636362A2A2A2A2A6B00000000D5
:108F100000E346464A4A525252626247000000004D
:108F2000001C2241414141414141221C00000000FE
:108F3000003F424242423E0202020207000000009D
:108F4000001C2241414141414D53321C6000000050
:108F5000003F4242423E1212222242C7000000005D
:108F6000007C4242020418204042423E00000000C1
:108F7000007F4908080808080808081C00000000CD
:108F800000E74242424242424242423C000000006C
:108F900000E74242222424141418080800000000AC
:108FA000006B4949494955553622222200000000EC
:108FB00000E7422424181818242442E70000000087
:108FC00000772222141408080808081C000000007A
:108FD000007E2120101008040442423F0000007867
:108FE00008080808080808080808080878000000A9
:108FF0000202040408080810102020204040001E2F
:109000001010101010101010101010101E0000384A
:10901000440000000000000000000000000000000C
:1090200000000000000000000000000000FF00063B
:109030000800000000000000000000000000000028
:1090400000000000003C4278444242FC0000000066
:1090500000030202021A26424242261A00000000C1
:109060000000000000384402020244380000000002
:109070000060404040784442424264D80000000012
:1090800000000000003C427E0202423C0000000062
:1090900000F08808087E08080808083E0000000064
:1090A00000000000007C22221C023C42423C0000E6
:1090B00000030202023A4642424242E70000000038
:1090C000000C0C00000E08080808083E0000000014
:1090D000003030000038202020202020221E0000F8
:1090E000000302020272120A161222770000000028
:1090F000000E0808080808080808083E00000000DC
:1091000000000000007F9292929292B7000000004F
:1091100000000000003B4642424242E700000000DF
:1091200000000000003C42424242423C000000007D
:1091300000000000001B26424242221E02070000DF
:1091400000000000007844424242447840E00000C1
:109150000000000000774C040404041F000000001D
:1091600000000000007C42023C40423E0000000043
:1091700000000008083E0808080808300000000049
:109180000000000000634242424262DC0000000036
:109190000000000000E7422424140808000000003A
:1091A0000000000000EB4949555522220000000054
:1091B00000000000007624181818246E000000003B
:1091C0000000000000E742242414180808070000EB
:1091D00000000000007E22100808447E000000C04D
:1091E000202020202010202020202020C00010102F
:1091F0001010101010101010101010101010000689
:1092000008080808081008080808080806000C32B2
:10921000C20000000000000000000000000000008C
:10922000000000000000000000000000000000003E
:10923000000000000000000000000000000000002E
:10924000000000000000000000000000000000001E
:10925000000000000000600060006000600060002E
:10926000600060004000200020002000000000009E
:1092700000006000600060000000000000000000CE
:10928000000060066006300398018800440000007A
:1092900000000000000000000000000000000000CE
:1092A00000000000000000000000000000000000BE
:1092B0000000000000001002100210021002FE0761
:1092C000FE0708020801080108010801FE07FE0761
:1092D000040104010401040100000000000000007A
:1092E0000000000040004000F00158034C03CC0394
:1092F0004C0058007000E000C001C00140034C0366
:109300005C034C034801F0004000400000000000F6
:109310000000000000000E010A0191009100910080
:10932000510051003A00AE03A0025004500448041A
:109330004804480484028403000000000000000088
:1093400000000000000038006C006C006C006C0035
:109350006C002C0098071C011A01330133016301D2
:10936000E300C308C6093C0700000000000000003D
:1093700000000C001C001000100008000400000099
:1093800000000000000000000000000000000000DD
:1093900000000000000000000000000000000000CD
:1093A0000000000400020001800080004000400036
:1093B000200020002000200020002000200040008D
:1093C0004000800080000001000200040000000056
:1093D000000002000400080010001000200020001F
:1093E000400040004000400040004000400020009D
:1093F000200010001000080004000200000000001F
:10940000000000000000000000004000C00040001C
:10941000460C4E0FD001F0015E0F460C400040009C
:1094200040000000000000000000000000000000FC
:1094300000000000000000000000000040004000AC
:10944000400040004000FE0F40004000400040004F
:1094500040000000000000000000000000000000CC
:1094600000000000000000000000000000000000FC
:1094700000000000000000000000000000000000EC
:1094800000000C001C001000100008000400000088
:1094900000000000000000000000000000000000CC
:1094A000000000000000FE070000000000000000B7
:1094B00000000000000000000000000000000000AC
:1094C000000000000000000000000000000000009C
:1094D000000000000000000000000000000000008C
:1094E00000001C001C001C00000000000000000028
:1094F00000000004000600020003000100018000DB
:10950000800040004000600020002000100010009B
:10951000080008000C000400060002000000000023
:109520000000000000000000F00098010C030C0394
:1095300006060606060606060606060606060606CB
:109540000C030C039801F000000000000000000074
:10955000000000000000000040007C00600060008F
:1095600060006000600060006000600060006000FB
:10957000600060006000FC030000000000000000CC
:109580000000000000000000F80084010203060350
:109590000603000300018001C000600020001000ED
:1095A000080204020602FE030000000000000000A2
:1095B00000000000000000007800C600860186015F
:1095C00080018001C00070008001000100030003E1
:1095D000060306038601F8000000000000000000FA
:1095E000000000000000000080018001C001A00117
:1095F000A00190018801880184018201FE0F800191
:10960000800180018001E0070000000000000000F0
:109610000000000000000000FC030400040004003F
:1096200004000400F4008C0104030003000306039B
:10963000060382018401F800000000000000000021
:109640000000000000000000E00118030C030C0003
:1096500004000600E60116030E06060606060606C8
:1096600004060C021803F0000000000000000000D7
:109670000000000000000000F8070C0604020401CE
:1096800000010001800080004000400040006000B8
:10969000600060006000600000000000000000004A
:1096A0000000000000000000F8010C03060606069A
:1096B00006060C021C03F000C8010C030606060691
:1096C000060606060C03F001000000000000000082
:1096D0000000000000000000F0000C010C03060276
:1096E00006060606060606078C0678060006000330
:1096F00000030C018C017800000000000000000055
:109700000000000000000000000000000000000059
:109710000000E000E000E0000000000000000000A9
:109720000000E000E000E000000000000000000099
:109730000000000000000000000000000000000029
:109740000000600060000000000000000000000059
:1097500000000000600060004000200020000000C9
:109760000000000000000004000200018000400032
:109770002000100008000400080010002000400035
:109780008000000100020004000000000000000052
:1097900000000000000000000000000000000000C9
:1097A0000000FE07000000000000FE0700000000AF
:1097B00000000000000000000000000000000000A9
:1097C000000000000000040008001000200040001D
:1097D000800000010002000400020001800040003F
:1097E000200010000800040000000000000000003D
:1097F0000000000000000000E0031806040C040C48
:109800000C0C0C0C000780014000400040000000E0
:109810000000E000E000E0000000000000000000A8
:10982000000000000000E00018030C02CC056405F5
:109830006605A605B604B604B604B604B602E4018D
:109840000C040C021803F0000000000000000000EF
:109850000000000000000000600060005000D00028
:1098600090009000880088010801F80104030403B7
:109870000402020202060F0F0000000000000000B8
:109880000000000000000000FE008C030C030C032D
:109890000C030C038C01FC000C030C020C060C06E0
:1098A0000C060C060C03FE01000000000000000086
:1098B0000000000000000000E00318030C060C0488
:1098C0000404060006000600060006000600060462
:1098D0000C040C021803F00000000000000000005F
:1098E00000000000000000007F008C010C030C034E
:1098F0000C060C060C060C060C060C060C060C06D8
:109900000C030C038C017F0000000000000000002D
:109910000000000000000000FF0306030604060428
:10992000060086008600FE0086008600860006008F
:10993000060406040602FF03000000000000000009
:109940000000000000000000FF03060306040604F8
:10995000060086008600FE0086008600860006005F
:109960000600060006001F000000000000000000C6
:109970000000000000000000F00018010C020C02C2
:1099800004020600060006000600C60F06030603D2
:109990000C030C031803F00000000000000000009E
:1099A00000000000000000000F0F06060606060675
:1099B000060606060606FE0706060606060606064E
:1099C0000606060606060F0F000000000000000055
:1099D0000000000000000000FC0360006000600068
:1099E0006000600060006000600060006000600077
:1099F000600060006000FC03000000000000000048
:109A00000000000000000000F807C000C000C00017
:109A1000C000C000C000C000C000C000C000C00046
:109A2000C000C000C000C000C60066003C000000CE
:109A30000000000000000000CF038601C6004600C1
:109A40002600160036002E006E004600C600860076
:109A50008601060106038F070000000000000000D9
:109A600000000000000000001F00060006000600C5
:109A700006000600060006000600060006000600B6
:109A8000060406040602FF030000000000000000B8
:109A900000000000000000000707860386038E0315
:109AA0008E034E034E034A035A035A033A0332030A
:109AB0003203320312038707000000000000000099
:109AC00000000000000000008E0F0C021C021C02AF
:109AD00034023402640264024402C4028402840335
:109AE0008403040304031F020000000000000000C0
:109AF0000000000000000000F00098010C030C02C0
:109B000006060606060606060606060606060606F5
:109B10000C020C039801F00000000000000000009F
:109B20000000000000000000FF0006030606060615
:109B30000606060606068603FE0006000600060068
:109B40000600060006001F000000000000000000E4
:109B50000000000000000000F00098010C030C025F
:109B60000606060606060606060606060606760625
:109B70004C02CC039801F0008007000300000000B5
:109B80000000000000000000FF01060306060606B4
:109B9000060606060603FE004600C600860086018D
:109BA0000603060306060F0E00000000000000007A
:109BB0000000000000000000F8020C03060206028C
:109BC00006000E003C00F800E003800300070206D8
:109BD000020606060C03F001000000000000000071
:109BE0000000000000000000FE0762046108610838
:109BF0006000600060006000600060006000600065
:109C0000600060006000F80100000000000000003B
:109C100000000000000000001E070C020C020C02F5
:109C20000C020C020C020C020C020C020C020C02C4
:109C30000C020C021801F0000000000000000000FF
:109C400000000000000000000F07060204010401EC
:109C50000C010C018800880098009800500050000A
:109C60007000300020002000000000000000000014
:109C70000000000000000000F70E620442044604E9
:109C8000460464026402E402E4029C029C0198011E
:109C90009801880188008800000000000000000092
:109CA00000000000000000009E070C0108011801E0
:109CB0009000B0006000200060006000D0009000C4
:109CC0008801080104038E07000000000000000066
:109CD00000000000000000000F0F060404020C0248
:109CE00008011801B800B00070006000600060005A
:109CF000600060006000F80100000000000000004B
:109D00000000000000000000FC070C020603020136
:109D1000800180004000400020002000100018005A
:109D200008040C040402FE03000000000000000010
:109D30000000E00320002000200020002000200080
:109D40002000200020002000200020002000200013
:109D500020002000200020002000E0030000000080
:109D600000000000000004000400080008001000CB
:109D7000100010002000200040004000C0008000C3
:109D80008000000100010002000200020004000047
:109D900000007C00400040004000400040004000C7
:109DA00040004000400040004000400040004000B3
:109DB000400040004000400040007C0000000000E7
:109DC000600090000801000000000000000000009A
:109DD0000000000000000000000000000000000083
:109DE0000000000000000000000000000000000073
:109DF0000000000000000000000000000000000063
:109E00000000000000000000000000000000000052
:109E1000000000000000000000000000FF0F000034
:109E200000001800600000000000000000000000BA
:109E30000000000000000000000000000000000022
:109E40000000000000000000000000000000000012
:109E50000000000000000000000000000000000002
:109E60000000F0010C030C030003E0031C030E03CD
:109E7000060306038E0B7C0E0000000000000000AD
:109E800000000000000008000E000C000C000C0098
:109E90000C00CC013C031C060C060C060C060C0640
:109EA0000C060C021C03E40100000000000000008E
:109EB00000000000000000000000000000000000A2
:109EC0000000F0008C018C018601060006000600EF
:109ED00006020C020C01F00000000000000000006F
:109EE0000000000000000002C003000300030003A4
:109EF000000378038C030C03060306030603060322
:109F0000060304038C077801000000000000000035
:109F10000000000000000000000000000000000041
:109F20000000E001180308020C060C06FC070C00F8
:109F30000C0018041802E0010000000000000000FE
:109F40000000000000000000C00360063006300082
:109F50003000FE01300030003000300030003000B2
:109F6000300030003000FC01000000000000000064
:109F700000000000000000000000000000000000E1
:109F80000000F007D8068C018C018C019801F800C4
:109F90000C00FC00CC03060306038E03F80000004F
:109FA00000000000000008000E000C000C000C0077
:109FB0000C00EC011C030C030C030C030C030C033E
:109FC0000C030C030C039E070000000000000000BF
:109FD00000000000000000006000600000000000C1
:109FE00040007C0060006000600060006000600075
:109FF000600060006000FC03000000000000000042
:10A000000000000000000000C001C00100000000CE
:10A010000001F00180018001800180018001800148
:10A0200080018001800180018001CC007C00000063
:10A0300000000000000008000E000C000C000C00E6
:10A040000C008C038C008C004C006C005C008C00BD
:10A050008C010C010C039E070000000000000000B2
:10A0600000000000000040007C0060006000600014
:10A0700060006000600060006000600060006000E0
:10A08000600060006000FC030000000000000000B1
:10A0900000000000000000000000000000000000C0
:10A0A00000003707EE066606660666066606660662
:10A0B000660666066606FF0F00000000000000004E
:10A0C0000000000000000000000000000000000090
:10A0D0000000EE011C030C030C030C030C030C0327
:10A0E0000C030C030C039E0700000000000000009E
:10A0F0000000000000000000000000000000000060
:10A100000000F00098010C03060606060606060687
:10A1100006060C030C03F000000000000000000025
:10A12000000000000000000000000000000000002F
:10A130000000EE011C030C060C060C060C060C06B7
:10A140000C060C031C03EC010C000C003E0000008C
:10A1500000000000000000000000000000000000FF
:10A16000000078028C030C030603060306030603B3
:10A17000060304038C03780300030003C0070000F8
:10A1800000000000000000000000000000000000CF
:10A1900000009F0358063806180018001800180021
:10A1A000180018001800FF00000000000000000068
:10A1B000000000000000000000000000000000009F
:10A1C0000000F0031C030C020C023800F000C00376
:10A1D000040304038C03FC010000000000000000E5
:10A1E00000000000000000000000200020003000FF
:10A1F0003000FE0130003000300030003000300010
:10A20000300030023002E0010000000000000000D9
:10A21000000000000000000000000000000000003E
:10A2200008028E030C030C030C030C030C030C0339
:10A230000C030C039C0778010000000000000000E4
:10A24000000000000000000000000000000000000E
:10A2500000001E070C020801080118019000B00060
:10A26000B00060006000200000000000000000005E
:10A2700000000000000000000000000000000000DE
:10A280000000F70E6204460464026402EC029C01C2
:10A2900098019801980108000000000000000000EB
:10A2A00000000000000000000000000000000000AE
:10A2B0000000BC0718011001B00060006000E00061
:10A2C0009000080108039E07000000000000000045
:10A2D000000000000000000000000000000000007E
:10A2E00000009E0708010801080190009000B000DE
:10A2F0006000600060002000200024001C000000BE
:10A30000000000000000000000000000000000004D
:10A310000000FC018401C400440060002000300003
:10A32000180208020C03FC010000000000000000FD
:10A33000000000038000800080008000800080001A
:10A3400080008000400020004000800080008000ED
:10A35000800080008000800080000003000040003A
:10A3600040004000400040004000400040004000ED
:10A3700040004000400040004000400040004000DD
:10A38000400040004000400040004000400000000D
:10A3900000000C0010001000100010001000100051
:10A3A00010001000200040002000100010001000DD
:10A3B000100010001000100010000C000000000041
:10A3C0001C002204C2048003000000000000000002
:10A3D000000000000000000000000000000000007D
:10A3E000000000000000000000000000000000006D
:10A3F000000000000000000000000000000000005D
:10A40000000000000000000000000000000000004C
:10A41000000000000000000000000000000000003C
:10A42000000000000000000000000000000000002C
:10A430000000000000000000C001C001C001C00118
:10A44000C001C001C0018000800080008000800049
:10A450008000800000000000000000008001C003B8
:10A46000C0038001000000000000000000000000A8
:10A4700000000000E01CE01CF01E700E38071803FE
:10A48000080184000000000000000000000000003F
:10A4900000000000000000000000000000000000BC
:10A4A00000000000000000000000000000000000AC
:10A4B000000000000000000000002010201020100C
:10A4C00020102010FE7FFE7F1008100810081008D2
:10A4D000100810081008FE7FFE7F08040804080416
:10A4E0000804080400000000000000000000000054
:10A4F00000000000000000010001C00760191031D9
:10A5000018311839183938017001E001C00380078B
:10A51000000F001D003900311C311C310C310C11B1
:10A52000180DE0070001000100010000000000001C
:10A53000000000000000000000001C103618630836
:10A54000630C63046304630263026301361D9C377A
:10A550008022806340634063206320633063102265
:10A560001836081C00000000000000000000000079
:10A5700000000000000000000000F00098018C01C5
:10A580008C018C018C018C00CC007800183E1C08DA
:10A590003608320863046304C304C30383430643D9
:10A5A0008E26781C00000000000000000000000063
:10A5B000000000001C003C003C0030003000100097
:10A5C0000C00060000000000000000000000000079
:10A5D000000000000000000000000000000000007B
:10A5E000000000000000000000000000000000006B
:10A5F000000000000040002000100008000C0004D3
:10A600000006000300030003800180018001800137
:10A610008001800180018001000300030003000627
:10A620000006000C000800100020004000000000A0
:10A6300000000000020004000800100030002000AC
:10A640006000C000C000C000800180018001800166
:10A650008001800180018001C000C000C000600056
:10A66000600030001000080004000200000000003C
:10A6700000000000000000000000000000000001D9
:10A680008003800300011C713C79783DC007000104
:10A69000C007783D3C791C71000180038003800174
:10A6A00000000000000000000000000000000000AA
:10A6B000000000000000000000000000000000009A
:10A6C0000001000100010001000100010001FC7F08
:10A6D0000001000100010001000100010001000073
:10A6E000000000000000000000000000000000006A
:10A6F000000000000000000000000000000000005A
:10A700000000000000000000000000000000000049
:10A7100000000000000000000000000000001C001D
:10A720003C003C003000300010000C00060000002F
:10A730000000000000000000000000000000000019
:10A740000000000000000000000000000000FE7F8C
:10A7500000000000000000000000000000000000F9
:10A7600000000000000000000000000000000000E9
:10A7700000000000000000000000000000000000D9
:10A7800000000000000000000000000000000000C9
:10A7900000000000000000000000000018003C0065
:10A7A0003C00180000000000000000000000000055
:10A7B0000000000000400060002000300010001881
:10A7C0000008000C000400060002000300018001E4
:10A7D0008000C00040006000200030001000180021
:10A7E00008000C0004000600020000000000000049
:10A7F00000000000000000000000C007600C3018DE
:10A800001830183018200C600C600C600C600C6064
:10A810000C600C600C600C60182018301830301878
:10A82000600CC007000000000000000000000000F5
:10A830000000000000000000000000018001F8019D
:10A840008001800180018001800180018001800100
:10A8500080018001800180018001800180018001F0
:10A86000C003F81F0000000000000000000000000E
:10A8700000000000000000000000E007101C0818A5
:10A88000043004300C300C30003000180008000494
:10A890000002000180004000202010200820043029
:10A8A000FC1FFC1F00000000000000000000000072
:10A8B00000000000000000000000E003180E0C0C77
:10A8C0000C180C180C180018000C0006C003000E21
:10A8D00000180010003000300C300C300C100C1838
:10A8E000180CE00300000000000000000000000061
:10A8F00000000000000000000000000C000E000E30
:10A90000000F800E800E400E600E200E100E100EF6
:10A91000080E040E040EFE7F000E000E000E000E48
:10A92000000E000EC07F00000000000000000000CC
:10A9300000000000000000000000F03FF03F1000A9
:10A940001000100008000800C807280C181808108C
:10A9500000300030003000300C300C300418041887
:10A96000080CF003000000000000000000000000E0
:10A9700000000000000000000000800FC010203028
:10A9800010301800180008000C008C0F6C183C30B8
:10A990001C600C600C600C600C601860182030307B
:10A9A0006018C00700000000000000000000000068
:10A9B00000000000000000000000F83FF83F1C10FD
:10A9C0000C08040804040004000200020001000155
:10A9D0000001800080008000C000C000C000C000F6
:10A9E000C000C000000000000000000000000000E7
:10A9F00000000000000000000000E007300C181804
:10AA00000C300C300C301C3038187008E007B007E0
:10AA1000180E0C1C063806300630063006300C18AE
:10AA2000180CE0030000000000000000000000001F
:10AA300000000000000000000000E00318040C0803
:10AA40000C180610063006300630063006380C3C6E
:10AA50001836F03100300018001800180C0C0C06E5
:10AA60000C03F001000000000000000000000000E6
:10AA700000000000000000000000000000000000D6
:10AA800000000000000000008001C003C00380013E
:10AA90000000000000000000000000008001C00372
:10AAA000C003800100000000000000000000000062
:10AAB0000000000000000000000000000000000096
:10AAC0000000000000000000C000C0000000000006
:10AAD0000000000000000000000000000000000076
:10AAE000C000C00080008000400040000000000066
:10AAF000000000000000000000200010000800041A
:10AB0000000600038001C0006000300018000C0047
:10AB1000180030006000C00080010003000600043F
:10AB200000080010002000000000000000000000ED
:10AB30000000000000000000000000000000000015
:10AB40000000000000000000FE7F00000000000088
:10AB500000000000FE7F0000000000000000000078
:10AB600000000000000000000000000000000000E5
:10AB70000000000000000000040008001000200099
:10AB80006000C000800100030006000C00180030C7
:10AB90000018000C000600038001C00060002000C7
:10ABA0001000080004000000000000000000000089
:10ABB0000000000000000000C007301808300860E6
:10ABC0000C601C601C601C600030001C0006000152
:10ABD0008000800080008000000000008001C00331
:10ABE000C003800100000000000000000000000021
:10ABF00000000000000000000000C00760181030D6
:10AC000018200C2F8C4D864CC64CC64C664C6644A6
:10AC10006644662666266615CC1C0C400820183053
:10AC20003018C00700000000000000000000000015
:10AC300000000000000000000001C001C001C001D0
:10AC40004001600320032003200330061006100695
:10AC50001006F80F080C080C080C0C0C041804184B
:10AC600006181F7C0000000000000000000000002B
:10AC700000000000000000000000FE07181C18384B
:10AC800018301830183018301818180CF807181821
:10AC90001830182018601860186018601860183094
:10ACA0001818FE0F00000000000000000000000067
:10ACB00000000000000000000000C02760381030D5
:10ACC00018200C400C400400060006000600060098
:10ACD00006000600060006000C400C400C20183050
:10ACE0003018C00700000000000000000000000055
:10ACF00000000000000000000000FE03180E1818FD
:10AD00001830183018301860186018601860186013
:10AD1000186018601860186018301830181018186B
:10AD2000180EFE03000000000000000000000000FC
:10AD300000000000000000000000FE3F1830182056
:10AD400018601840180018081808180CF80F180C8C
:10AD50001808180818001800180018401840182083
:10AD60001830FE3F0000000000000000000000005E
:10AD700000000000000000000000FE7F1870184076
:10AD800018C018801800181018101818F81F181874
:10AD900018101810180018001800180018001800D3
:10ADA00018007E000000000000000000000000000D
:10ADB00000000000000000000000C013701C101014
:10ADC00018100C200C2004000600060006000600E7
:10ADD000060006FC063006300C300C3018301830F7
:10ADE0003008C00700000000000000000000000064
:10ADF000000000000000000000003F7E0C180C184E
:10AE00000C180C180C180C180C180C180C18FC1F2B
:10AE10000C180C180C180C180C180C180C180C1812
:10AE20000C183F7E00000000000000000000000041
:10AE300000000000000000000000F81F80018001F9
:10AE400080018001800180018001800180018001FA
:10AE500080018001800180018001800180018001EA
:10AE60008001F81F0000000000000000000000004A
:10AE700000000000000000000000E07F0006000667
:10AE80000006000600060006000600060006000692
:10AE90000006000600060006000600060006000682
:10AEA0000006000600060E060E038E01FC000000E0
:10AEB000000000000000000000007E7C1818180848
:10AEC000180418061802180198019801D801B8034F
:10AED000380318071806180E180C181C1818183004
:10AEE00018307EFC000000000000000000000000A0
:10AEF000000000000000000000007E0018001800A4
:10AF00001800180018001800180018001800180081
:10AF100018001800180018001800184018401820D1
:10AF20001830FE3F0000000000000000000000009C
:10AF3000000000000000000000001FF81C381C3852
:10AF40001C381C3C34343434343434367432643277
:10AF5000643264326431C431C431C431C430C43069
:10AF600084309FFC00000000000000000000000092
:10AF7000000000000000000000001F7C1C103C10BE
:10AF80003410341074106410E410C410C41184110F
:10AF90008413041304170416041E041C041C041C4C
:10AFA00004181F180000000000000000000000004E
:10AFB00000000000000000000000C003300C181862
:10AFC00008100C300C3006600660066006600660F3
:10AFD00006600660066006600C200C300810181829
:10AFE000300CC00300000000000000000000000062
:10AFF00000000000000000000000FE0F18181830CC
:10B000001860186018601860186018301818F80F69
:10B010001800180018001800180018001800180070
:10B0200018007E000000000000000000000000008A
:10B0300000000000000000000000C003300C1818E1
:10B040000C100C300C20066006600660066006607E
:10B050000660066006600660E4612C331C32181638
:10B06000300EC007004C007C0038000000000000DB
:10B0700000000000000000000000FE07181C183847
:10B0800018301830183018301818180CF8079803B2
:10B090001803180718061806180E180C180C181C98
:10B0A00018187E780000000000000000000000007A
:10B0B00000000000000000000000E02730381830D9
:10B0C0000C200C200C000C0018007800E003800F0E
:10B0D000001E0038007000600460046008601830D2
:10B0E0003818C80F00000000000000000000000039
:10B0F00000000000000000000000FC3F8C21846183
:10B1000082418241800180018001800180018001B3
:10B110008001800180018001800180018001800127
:10B120008001E007000000000000000000000000B7
:10B13000000000000000000000003F7C0C100C101C
:10B140000C100C100C100C100C100C100C100C101F
:10B150000C100C100C100C100C100C100C1008081B
:10B160003804E003000000000000000000000000C0
:10B17000000000000000000000003EF81820182029
:10B18000182030103010301030106008600860084F
:10B19000E00CC004C004C00480038003800380036B
:10B1A000000100010000000000000000000000009D
:10B1B00000000000000000000000DFF3866186212F
:10B1C00086218C210C218C238C138C138C134C1313
:10B1D00058125816580E380E380E380E300C10040F
:10B1E0001004100400000000000000000000000037
:10B1F000000000000000000000007E3E1808380833
:10B200003004300470026002E001C001C00180011E
:10B2100080034003400720062006100C100C08187D
:10B2200008183E7C00000000000000000000000044
:10B23000000000000000000000007E7C1C101810C0
:10B2400018083008300C700460046002C002C002AC
:10B25000C0018001800180018001800180018001A6
:10B260008001E00700000000000000000000000076
:10B2700000000000000000000000F83F1818081847
:10B28000040C040E00060007000380038001C001C7
:10B29000C000E000600070003000382018201C1052
:10B2A0000C18FE1F0000000000000000000000005D
:10B2B00000000000C03F400040004000400040004F
:10B2C000400040004000400040004000400040007E
:10B2D000400040004000400040004000400040006E
:10B2E0004000400040004000C03F0000000000005F
:10B2F0000000000000000000080018001800100006
:10B3000030002000600060004000C000800080012C
:10B310008001000100030002000600060004000C8A
:10B320000008001800180010003000200000000085
:10B3300000000000FC030002000200020002000204
:10B3400000020002000200020002000200020002ED
:10B3500000020002000200020002000200020002DD
:10B360000002000200020002FC03000000000000D6
:10B37000000000008007C006200810100000000038
:10B3800000000000000000000000000000000000BD
:10B3900000000000000000000000000000000000AD
:10B3A000000000000000000000000000000000009D
:10B3B000000000000000000000000000000000008D
:10B3C000000000000000000000000000000000007D
:10B3D000000000000000000000000000000000006D
:10B3E000000000000000000000000000FFFF00005F
:10B3F000000000007800C000000100000000000014
:10B40000000000000000000000000000000000003C
:10B41000000000000000000000000000000000002C
:10B42000000000000000000000000000000000001C
:10B43000000000000000000000000000000000000C
:10B440000000000000000000F00318060C0C0C0CBB
:10B45000000C800F700C1C0C0C0C060C060C064C1F
:10B460000C4FF83800000000000000000000000051
:10B47000000000000000000010001E00180018006E
:10B480001800180018001800180FD8183830386045
:10B49000186018601860186018601860182038303C
:10B4A0007818C8070000000000000000000000003D
:10B4B000000000000000000000000000000000008C
:10B4C0000000000000000000C007700C18181818D9
:10B4D0000C180C000C000C000C000C20182018108C
:10B4E0003008C0070000000000000000000000005D
:10B4F00000000000000000000010001E00180018EE
:10B500000018001800180018E01B301C1818181834
:10B510000C180C180C180C180C180C180818181CFF
:10B52000307AE00900000000000000000000000088
:10B53000000000000000000000000000000000000B
:10B540000000000000000000C007300C18180810B0
:10B550000C300C30FC3F0C000C000C0018201810B4
:10B560007018C0070000000000000000000000008C
:10B5700000000000000000000000003E80C380C00A
:10B58000C0C0C000C000C000FC1FC000C000C000A0
:10B59000C000C000C000C000C000C000C000C000AB
:10B5A000C000F80F000000000000000000000000D4
:10B5B000000000000000000000000000000000008B
:10B5C0000000000000000000C077306C1018181850
:10B5D000181818181018300CF00718001800F00F81
:10B5E000F03F08700C600C600C603838E00F000011
:10B5F000000000000000000010001E0018001800ED
:10B600001800180018001800980FD8183830183093
:10B6100018301830183018301830183018301830EA
:10B6200018307EFC00000000000000000000000058
:10B630000000000000000000000080038003800381
:10B640000000000000000001F8018001800180017D
:10B6500080018001800180018001800180018001E2
:10B660008001F81F00000000000000000000000042
:10B670000000000000000000000000380038003822
:10B680000000000000000010801F001800180018C3
:10B6900000180018001800180018001800180018EA
:10B6A0000018001800180018180C1806F003000005
:10B6B000000000000000000010001E00180018002C
:10B6C0001800180018001800183E180C1806180367
:10B6D00018019801D801380318071806180C181C0F
:10B6E00018187E7C00000000000000000000000030
:10B6F00000000000000000000001F801800180014E
:10B700008001800180018001800180018001800131
:10B710008001800180018001800180018001800121
:10B720008001F81F00000000000000000000000081
:10B730000000000000000000000000000000000009
:10B740000000000000000800EE1C9C338C318C319E
:10B750008C318C318C318C318C318C318C318C3101
:10B760008C31DE7B000000000000000000000000C3
:10B7700000000000000000000000000000000000C9
:10B7800000000000000010001E0FD81838301830DC
:10B790001830183018301830183018301830183069
:10B7A00018307EFC000000000000000000000000D7
:10B7B0000000000000000000000000000000000089
:10B7C0000000000000000000C007701C103018309E
:10B7D0000C600C600C600C600C600C601830183051
:10B7E0003018C0070000000000000000000000004A
:10B7F0000000000000000000000000000000000049
:10B8000000000000000010009E0F5818383018206B
:10B8100018601860186018601860186018303830A8
:10B820007818980718001800180018007E0000000B
:10B830000000000000000000000000000000000008
:10B840000000000000000000C023303C1838183011
:10B850000C300C300C300C300C300C3008301838F8
:10B86000303CE033003000300030003000FC00009D
:10B8700000000000000000000000000000000000C8
:10B8800000000000000060007E3C60666061E00037
:10B89000E000600060006000600060006000600028
:10B8A0006000FE0700000000000000000000000033
:10B8B0000000000000000000000000000000000088
:10B8C0000000000000000000E02730381830182089
:10B8D00018007000E003800F001C043004300C30AE
:10B8E0001C18EC0F00000000000000000000000029
:10B8F00000000000000000000000000000008000C8
:10B9000080008000C000E000FC1FC000C000C0003C
:10B91000C000C000C000C000C000C000C020C020E7
:10B920008011000F00000000000000000000000077
:10B930000000000000000000000000000000000007
:10B9400000000000000010201E3C18301830183095
:10B95000183018301830183018301830183018389F
:10B9600030F4E013000000000000000000000000C0
:10B9700000000000000000000000000000000000C7
:10B9800000000000000000007E3C1818180838086D
:10B9900030043004700260026002E001C001C001A6
:10B9A000C000800000000000000000000000000057
:10B9B0000000000000000000000000000000000087
:10B9C0000000000000000000DFF78E630C238C23D2
:10B9D0008C239813981358165816700E700E700E0C
:10B9E000200420040000000000000000000000000F
:10B9F0000000000000000000000000000000000047
:10BA00000000000000000000FC3E70087004E0042C
:10BA1000C002C0018003800340076006200C100CA8
:10BA200018183E7E0000000000000000000000002A
:10BA30000000000000000000000000000000000006
:10BA400000000000000000007E7C18181808300874
:10BA50003008300460046004C002C002C0028001EB
:10BA6000800180018000800080004C003C000000CC
:10BA700000000000000000000000000000000000C6
:10BA80000000000000000000FC1F0C0C040E040667
:10BA9000000380038001C000E000702030203830B7
:10BAA0001C18FC1F00000000000000000000000047
:10BAB000000000000030000800040004000400043E
:10BAC00000040004000400040004000400028001DB
:10BAD0000002000400040004000400040004000448
:10BAE000000400040004000400080030000000010D
:10BAF000000100010001000100010001000100013E
:10BB0000000100010001000100010001000100012D
:10BB1000000100010001000100010001000100011D
:10BB2000000100010001000100010001000100000E
:10BB3000000000000C001000200020002000200069
:10BB40002000200020002000200020004000800174
:10BB500040002000200020002000200020002000C5
:10BB6000200020002000200010000C000000000039
:10BB70003800C400864002610022001C0000000062
:10BB800000000000000000000000000000000000B5
:10BB900000000000000000000000000000000000A5
:10BBA0000000000000000000000000000000B4EFF2
:10BBB000820084008000F007870084004401440272
:10BBC000240414040A00F107C3EE840084008402F4
:10BBD000AF04AA04AA049A0089040A020401CA0054
:10BBE0003100BFC608012701440104013F0144019F
:10BBF0000E011607E501040104010401BCBC840028
:10BC00008400F4078F008400F4032C02270244010F
:10BC1000840044013606B4EF000204020802080260
:10BC2000E07F00020F02080508098810482028203C
:10BC300008001400E27F0000C3EE080408040804B2
:10BC400008153F252445A444A40464241224141494
:10BC50000810140822040103C000BFC61008B80869
:10BC60000F0908090808BF0808091C092C080A78E8
:10BC7000CA0F09080808080808080808BCBC080416
:10BC800008040804C87F3F0408040804A83F1821DA
:10BC90000C110B12080A0804080A8A116460B4EF38
:10BCA00000000000400030C0006040006040000024
:10BCB000400000400080FF3F2040007E6000206088
:10BCC0000020600020A00020100320180620080C8F
:10BCD000200618200118B00000480000840100046C
:10BCE000FE7F00F81F000000C3EE000000400000CF
:10BCF000400003600001600001200001FE270130C8
:10BD0000221910323110126110136118190108093B
:10BD100011080531880519B0000DC0000640030266
:10BD200060060120C4001060000C1800020700002B
:10BD30000000BFC600000000000400070CF800046B
:10BD4000C00004C06004C0C004C00004FE0704C0FA
:10BD50000004C02004E06004E04304F04624D04422
:10BD600074C8800FC87804C40404C20004C000046E
:10BD7000C00004C00004C00004400004BCBC0000BB
:10BD80000020800060800160800060800060800092
:10BD9000FEFF3F608000608000608000608200E005
:10BDA000FD1F7010086E100C6420046020066040B7
:10BDB0000260400360800160400364300E780C7CB8
:10BDC000200310000000B4EF00000000000000009D
:10BDD0002000040040001C00C0000C0080010C008A
:10BDE00080010C0000000C0000000C0000000C188A
:10BDF00000FCFF3F00000C0080000C00FE010C0066
:10BE0000C0000400C0000600C0001E00C0002300E7
:10BE1000C000C300C0808101C0800003C040000694
:10BE2000C020000EC018000CE00400043001000027
:10BE3000180600000C3C000000F0FF3F0000FF0F60
:10BE40000000000000000000C3EE00000000000041
:10BE5000000000010000000360008001600080011C
:10BE60006000800160008001600080006000C01000
:10BE70006602FC7F660CC030621840306338601088
:10BE8000633060186130609861202098600030C88D
:10BE90006008304C601C102C600E180460062006F0
:10BEA0000003C0078003000FC001001BE0008031C9
:10BEB0007000C020180060000C003000030008E093
:10BEC00000000618000000000000BFC600000000CF
:10BED000000000000000000100300007003C0003EB
:10BEE000E00700031C0300030003060300030C0328
:10BEF000000318030003180300230003FC7F000362
:10BF0000000300030003020380030603800F0C03F9
:10BF1000C03B0803403300336023003F2023F0037D
:10BF200010830F03086300030403000302030003EC
:10BF300000030003000300030003000300030003E9
:10BF4000000300030001000100000000BCBC000071
:10BF500000000000000080001000800370008001DD
:10BF600030008001300080013000800130008019F5
:10BF70003018FCFFFF3F800130008001300080015D
:10BF80003000800130008031300480CDFF0F80030D
:10BF90000106F0010106BC0102038C0102038001CD
:10BFA0008601800184018001CC008001680080014D
:10BFB0007000800178008001EC008001C703F881E7
:10BFC000011FE071003E400C000000000000000076
:10BFD000F0BF00080000002418000000080300085B
:10BFE00008C0000818000024D0070000240300083F
:10BFF0000000000001000000100000000000000030
:08C000000090D0030090D00372
:04000005080002CD20
:00000001FF
