:020000040800F2
:10000000B00800246D030008AB300008052F00087D
:10001000A930000863050008C53A00080000000088
:10002000000000000000000000000000F1320008A5
:100030008907000800000000AD300008F332000816
:100040008703000887030008870300088703000868
:100050008703000887030008870300088703000858
:100060008703000887030008870300088703000848
:100070006505000887030008870300088703000858
:100080008703000887030008870300088703000828
:100090008703000887030008870300088703000818
:1000A0008703000887030008870300088703000808
:1000B00087030008870300088703000887030008F8
:1000C00087030008870300088703000887030008E8
:1000D00087030008870300088703000887030008D8
:1000E000870300088703000800000000870300085A
:1000F00087030008870300088703000887030008B8
:1001000087030008870300088703000887030008A7
:100110008703000887030008870300088703000897
:100120008703000887030008870300088703000887
:100130008703000887030008870300088703000877
:1001400000000000000000000000000000000000AF
:100150008703000887030008870300088703000857
:100160008703000887030008870300088703000847
:1001700087030008870300088703000800000000C9
:100180008703000887030008870300088703000827
:100190008703000887030008870300088703000817
:1001A0008703000887030008870300080000000099
:1001B00087030008870300088703000887030008F7
:1001C000870300088703000800000000000000000B
:1001D000000000000000000087030008000000008D
:1001E000000000000000000000000000000000000F
:1001F00000000000000000008703000887030008DB
:100200008703000887030008000000008703000838
:100210008703000887030008870300088703000896
:1002200087030008000000008703000800000000AA
:100230008703000887030008000000008703000808
:100240008703000887030008870300088703000866
:100250008703000887030008870300088703000856
:100260008703000887030008870300088703000846
:1002700087030008870300088703000800000000C8
:100280008703000887030008870300088703000826
:10029000000000008703000887030008000000003A
:1002A0000000000087030008870300088703000898
:1002B00087030008870300088703000887030008F6
:1002C00087030008870300088703000800F002F88E
:1002D00000F03CF80AA090E8000C82448344AAF1A4
:1002E0000107DA4501D100F031F8AFF2090EBAE8A2
:1002F0000F0013F0010F18BFFB1A43F0010318475A
:1003000094380000B4380000103A24BF78C878C18F
:10031000FAD8520724BF30C830C144BF04680C600B
:10032000704700000023002400250026103A28BF53
:1003300078C1FBD8520728BF30C148BF0B60704757
:100340001FB503F001FC1FBD10B510BD00F0CFF8C4
:100350001146FFF7F5FF03F0C7FB00F0EDF803B41B
:10036000FFF7F2FF03BC00F0F5F8000009488047F2
:1003700009480047FEE7FEE7FEE7FEE7FEE7FEE787
:10038000FEE7FEE7FEE7FEE704480549054A064B9F
:100390007047000091330008CD020008B00200242D
:1003A000B0080024B0040024B004002453EA020C76
:1003B00000F069802DE9F04B4FF00006002B1FBFC5
:1003C000B3FA83F503FA05F424FA05F65E4012BF8A
:1003D0001643B2FA82F502FA05F4C5F120051EBFF4
:1003E00022FA05FC44EA0C04203556EA044C4FEA94
:1003F000144418BF641C4FF000084FF000099042ED
:1004000071EB030C39D3002919BFB1FA81F701FA56
:1004100007F6B0FA80F700FA07F6C7F120071EBF0B
:1004200020FA07FC46EA0C062037B6FBF4FCA7EBE3
:100430000507103F07F01F0BCBF120060CFA0BFB52
:100440002CFA06F644BFB3460026202FA4BF5E4612
:100450004FF0000B5BEA060C08BF4FF0010B19EBE5
:100460000B09ABFB027C48EB0608C01B06FB02CC69
:100470000BFB03CC71EB0C01C1E70B460246414676
:100480004846BDE8F08B13B54FF000004FF0000177
:10049000AFF30080BDE81C4070474FF0000200B58C
:1004A000134694469646203922BFA0E80C50A0E897
:1004B0000C50B1F12001BFF4F7AF090728BFA0E845
:1004C0000C5048BF0CC05DF804EB890028BF40F811
:1004D000042B08BF704748BF20F8022B11F0804F53
:1004E00018BF00F8012B704770477047704775467A
:1004F00000F02CF8AE4605006946534620F0070090
:10050000854618B020B5FFF73FFFBDE820404FF00B
:1005100000064FF000074FF000084FF0000B21F0ED
:100520000701AC46ACE8C009ACE8C009ACE8C009BA
:10053000ACE8C0098D46704710B50446AFF30080A3
:100540002046BDE81040FFF70ABF00000048704792
:100550005002002401491820ABBEFEE7260002002D
:100560007047FEE7014800F013B90000D8010024ED
:10057000294A016891423AD0274A1832914236D02E
:10058000254A3032914232D0234A483291422ED00D
:10059000214A603291422AD01F4A7832914226D0B5
:1005A0001D4A9032914222D01B4AA83291421ED05D
:1005B0001A4A91421BD0194A1832914217D0174A51
:1005C0003032914213D0154A483291420FD0134A2B
:1005D000603291420BD0114A7832914207D00F4AD3
:1005E0009032914203D00D4AA832914211D1CAB241
:1005F0001823103AB2FBF3F26FF30901032A02F059
:100600000703074AD25CC26500D9091D8165084607
:10061000704721F0FF01F9E710000240100402408A
:10062000523B000830B5224A012301689142CAB208
:100630001BD01F4C1434A14217D01D4C2834A142AA
:1006400013D01B4C3C34A1420FD0194C5034A14262
:100650000BD0174C6434A14207D0154C7834A1421A
:1006600003D0134C8C34A1420CD11421114C083A04
:10067000B2FBF1F10F4A803201F01F0504EB81015A
:10068000AB4010E00C4D1824103A0D44B2FBF4F1CD
:10069000A82D00D80831094A01F01F0402EB81019E
:1006A000064AA3408032603080E80E0030BD000072
:1006B0000854025800580258F0FBFDBF00080240E1
:1006C00010B50279531E072B2DD8174C0168A14293
:1006D0001BD0154C1434A14217D0134C2834A1421E
:1006E00013D0114C3C34A1420FD00F4C5034A142D6
:1006F0000BD00D4C6434A14207D00B4C7834A1428E
:1007000003D0094C8C34A14203D10849074C443131
:1007100002E00749064C443104EB8202C0E91B2188
:1007200001219940416710BD08540258FC580258F5
:10073000FC08024010B583694FF0C074826A01461C
:10074000002053B1B3F5005F15D072B1012A0CD06F
:10075000022A0AD0032A09D104E01AB1012A06D0DC
:10076000022A03D1C96AC90100D5012010BDC96A96
:10077000A142FAD010BD002AF7D0012AF2D0022AF5
:10078000F3D0032AF3D010BD704772B6FEE7000025
:100790002DE9FC5F0446F74E0020DFF8D883009077
:1007A0004FF41652F44808F11808A56DDFF8C49309
:1007B000DFF8C0A3016809F1300920680AF1480A8E
:1007C000B1FBF2F1B04201912F68D5F800C0DFF81B
:1007D000ACB335D04146884232D0484530D0504540
:1007E0002ED058452CD0E5491831884228D0E3490D
:1007F0003031884224D0E1494831884220D0E04954
:1008000088421DD0DE491831884219D0DC49303188
:10081000884215D0DA494831884211D0DFF860E3C8
:100820000EF1600E70450BD0D54A7832904207D059
:10083000D34B9033984203D0D149A83188427DD11F
:1008400094F85C20082102F01F0201FA02F23A42F9
:100850004AD0B04232D0404530D048452ED05045E5
:100860002CD058452AD0C54A1832904226D0C34AC7
:100870003032904222D0C14A483290421ED0C04A03
:1008800090421BD0BE4A1832904217D0BC4A303238
:10089000904213D0BA4A483290420FD0B84A6032E0
:1008A00090420BD0B64A7832904207D0B44A903288
:1008B000904203D0B24AA832904203D1026802F0BB
:1008C000040202E0026802F008026AB1026822F043
:1008D0000402026094F85C0000F01F008140A960EF
:1008E000606D40F00100606594F85C00012100F04B
:1008F0001F008140394240D02068B04234D040458A
:1009000032D0484530D050452ED058452CD09B4A47
:100910001832904228D0994A3032904224D0974AD7
:100920004832904220D0964A90421DD0944A1832C4
:10093000904219D0924A3032904200E0AFE113D099
:100940008F4A483290420FD08D4A603290420BD08D
:100950008B4A7832904207D0894A9032904203D035
:10096000874AA83290427DD1406910F0800F04D0B0
:10097000A960606D40F00200606594F85C0004219D
:1009800000F01F00814039423ED02068B04232D092
:10099000404530D048452ED050452CD058452AD01F
:1009A000764A1832904226D0744A3032904222D091
:1009B000724A483290421ED0714A90421BD0704A0F
:1009C0001832904217D06E4A3032904213D06C4A9F
:1009D000483290420FD06A4A603290420BD0684A47
:1009E0007832904207D0664A9032904203D0644AEF
:1009F000A83290424ED1006810F0020F04D0A960D6
:100A0000606D40F00400606594F85C00102100F017
:100A10001F008140394258D02068B04234D0404550
:100A200032D0484530D050452ED058452CD0534A6E
:100A30001832904228D0514A3032904224D04F4A46
:100A40004832904220D04E4A90421DD04C4A183233
:100A5000904219D04A4A3032904215D0484A483222
:100A6000904200E014E00FD0454A603290420BD033
:100A7000434A7832904207D0414A9032904203D0A4
:100A80003F4AA832904207D1006800F0080006E013
:100A9000006872E70068B7E7006800F00400A0B1E2
:100AA000A96020680168490304D50068000308D5DF
:100AB000A16C07E00168C90503D4016821F00801B1
:100AC0000160216C09B12046884794F85C00202120
:100AD00000F01F008140394279D02068B04232D006
:100AE000404530D048452ED050452CD058452AD0CE
:100AF000224A1832904226D0204A3032904222D0E8
:100B00001E4A483290421ED01D4A90421BD01C4AB9
:100B10001832904217D01A4A3032904213D0184AF5
:100B2000483290420FD0164A603290420BD0144A9D
:100B30007832904207D0124A9032904203D0104A45
:100B4000A832904203D1006800F0100002E0006873
:100B500000F00200B0B3A96094F8350004282068C2
:100B600001680FD049037ED5006800032BD4616C67
:100B70002AE000001000024014000024700002402F
:100B80001004024021F0160101602068416921F043
:100B900080014161206C08B9A06C20B12068016817
:100BA00021F00801016094F85C303F21012003F03E
:100BB0001F0300229940A96084F8350084F834208E
:100BC000216D65E003E0E16B09B120468847606D67
:100BD00000287DD0606DC00759D02068042184F8BA
:100BE0003510B0422BD0404529D0484527D050453C
:100BF00025D0584523D09D49884220D09B491831A3
:100C000088421CD099493031884218D0984988428E
:100C100015D097491831884211D095493031884212
:100C20000DD093494831884209D0914960318842BA
:100C300005D08F497831884201D08D4990310168C3
:100C400021F00101016020680099019A491C00917E
:100C5000914202D80168C907F6D10068C00710D0D8
:100C600003200FE0FFE70168C905ACD40368012148
:100C7000002223F01003036084F8351084F8342038
:100C8000A1E7012084F83500002084F83400E16CED
:100C900000291DD002B02046BDE8F05F0847754925
:100CA00088421DD073491431884219D071492831C6
:100CB000884215D06F493C31884211D06D4950317E
:100CC00088420DD06B496431884209D0694900E0FF
:100CD00084E07831884203D066498C3188427DD1E6
:100CE00094F85C800427016808F01F0807FA08F7E9
:100CF00017EA0C0F009746D04F0744D500980F0411
:100D0000686003D5C8033CD4A16CC1E7880638D419
:100D10002068B0422DD055496039884229D04845D5
:100D200027D0504525D0584523D05049884220D05F
:100D30004E49183188421CD04C493031884218D075
:100D40004B49884215D04A491831884211D0484948
:100D5000303188420DD046494831884209D070452B
:100D600007D0904205D0984203D04149A83188422B
:100D700003D1016821F0080102E0016821F00401BB
:100D80000160216C84E7022707FA08F717EA0C0FC5
:100D900000974ED08F074CD500980F04686003D59C
:100DA000C80344D4616C73E7880640D42068B0421D
:100DB0002FD02E49603988422BD0484529D0504544
:100DC00027D0584525D02949884222D027491831B3
:100DD00088421ED025493031884200E044E018D0D6
:100DE0002349884215D022491831884211D0204920
:100DF000303188420DD01E494831884209D07045B3
:100E000007D0904205D0984203D01949A8318842B2
:100E100003D1016821F0140102E0016821F00A0108
:100E20000160012184F83510002084F83400E16B62
:100E30002EE7082202FA08F212EA0C0F14D0090772
:100E400012D5016821F00E01016094F85C100120B8
:100E5000002201F01F0100FA01F16960606584F869
:100E6000350084F8342012E7BDE8FC9F880002407A
:100E700010040240085402582DE9F05F044600F0C7
:100E8000F9FA002C07467DD0E24E022120684FF08F
:100E90000308DFF884934FF00005DFF880A3B04229
:100EA000DFF87CB334D0DB4A1832904230D048456A
:100EB0002ED050452CD058452AD0D94A18329042CD
:100EC00026D0D74A3032904222D0D54A483290427A
:100ED0001ED0D44A90421BD0D24A1832904217D02A
:100EE000D04A3032904213D0CE4A483290420FD08E
:100EF000CC4A603290420BD0CA4A7832904207D036
:100F0000C84A9032904203D0C64AA83290427DD15E
:100F100084F83510B04284F834502ED0BD491831D1
:100F200088422AD0484528D0504526D0584524D05C
:100F3000BB491831884220D0B949303188421CD091
:100F4000B7494831884218D0B649884215D0B549CA
:100F50001831884211D0B349303188420DD0B1499F
:100F60004831884209D0AF496031884205D0AD4947
:100F70007831884201D0AB499031016821F00101FC
:100F8000016008E025E100BF00F074FAC01B0528ED
:100F900001D920211AE120680068C007F4D1D4E902
:100FA00002032168103418438E4694E88410D4E973
:100FB000033809683A4310439B4A40EA0C006769CA
:100FC00018431140103C40EA0800042F40EA010099
:100FD00003D1D4E90B12114308436168A1F129023E
:100FE000052A0BD9163A032A08D9083A012A05D945
:100FF000083A032A02D97439032901D840F4801031
:10100000CEF800002068676A406900E020E0042F05
:1010100020F0070047EA00070DD1D4E90A01074391
:1010200049B12046FFF786FB28B1402060650121C9
:1010300084F83510CDE0206847612046FFF798FA24
:1010400094F85C203F2102F01F029140816055E03E
:10105000764A90421BD0754B1433984217D0734B8D
:101060002833984213D0714B3C3398420FD06F4BCA
:10107000503398420BD06D4B6433984207D06B4B82
:101080007833984203D0694B8C3398427ED184F8F0
:10109000351084F83450664B0168A26801EA030EEB
:1010A000402A74D0802A73D05FF00002D4E903781C
:1010B000D4E9053142EAD70242EAD8085B4AD4E9CA
:1010C000077C48EAD30848EAD10141EAD7015242F5
:1010D00041EA1C11142341EA0E010160206810440A
:1010E000B0FBF3F08000E0652046FFF741FA94F88A
:1010F0005C20012102F01F02914041602068B04253
:1011000057D044491831884253D0484551D05045B2
:101110004FD058454DD042491831884249D04049B6
:101120003031884245D03E494831884241D03D491E
:1011300088423ED03B49183188423AD03949303153
:10114000884236D037494831884232D035496031FB
:1011500088422ED03349783188422AD031499031A3
:10116000884226D02F49A831884222D02F49884270
:101170001FD02E49143188421BD02C492831884277
:1011800017D02A493C31884213D002E01DE017E015
:1011900018E02649503188420BD0244964318842F6
:1011A00007D022497831884203D020498C318842C7
:1011B00029D12046FFF736FAA06880280CD00CE031
:1011C000102273E74FF4804270E74021616584F894
:1011D00035800120BDE8F09F6560216E20790860B0
:1011E000D4E9190141606068401E072808D82046EC
:1011F000FFF766FAE06E0560D4E91C01416002E089
:10120000E566256765670120656584F8350000207F
:10121000E0E7000010000240400002405800024099
:1012200070000240100402403F8010FE0854025833
:101230000F00FEFF70B5044600F01CF90546601C67
:1012400002D004480078044400F014F9401BA04286
:10125000FAD370BD080000242DE9F84F03247A4D1D
:1012600000234FF001094FF0B04B4FF00F0AE4E0BC
:1012700009FA03F6324078D00F7907F00307012FFF
:1012800001D0022F1AD187684FEA430ED1F80CC063
:1012900004FA0EF827EA08070CFA0EFC4CEA070CD1
:1012A000C0F808C0476891F804C0B743CCF3001CED
:1012B0000CFA03FC4CEA070CC0F804C00E79F643A4
:1012C000B6070BD0C6684FEA43088F6804FA08FCDB
:1012D00026EA0C0607FA08F73743C7600E7906F0CE
:1012E0000306022E12D1DE080F694FEA437C00EBA1
:1012F0008606B646366A4FEADC6C0AFA0CF807FA3C
:101300000CF726EA08063743CEF820700F790668F6
:101310004FEA430807F0030704FA08FC07FA08F746
:1013200026EA0C06374307604E6816F4403F1CD08F
:10133000464E376847F00207376036689F0706F069
:101340000206009623F0030606F1B046B6463F0FAC
:10135000D6F80864DFF8F8800AFA07FC404526EA68
:101360000C0603D14FF0000C3AE065E0DFF8E4C072
:10137000604502D14FF0010C32E0DFF8DCC060457F
:1013800002D14FF0020C2BE0DFF8D0C0604502D153
:101390004FF0030C24E0DFF8C8C0604502D14FF0E5
:1013A000040C1DE0DFF8BCC0604502D14FF0050C15
:1013B00016E0DFF8B4C0604502D14FF0060C0FE034
:1013C000DFF8A8C0604502D14FF0070C08E0DFF855
:1013D000A0C0604502D14FF0090C01E04FF00A0CAB
:1013E0000CFA07FC4CEA060CCEF808C44F68DBF890
:1013F0000060FF0226EA020600D516435F46CBF8DE
:101400000060D1F804C0DBF804605FEA8C2C26EAA7
:10141000020600D516437E606E684F6826EA020613
:10142000BF0300D516436E602E684F6826EA020699
:10143000FF0300D516432E605B1C0A6832FA03F6E0
:101440007FF416AFBDE8F88F80000058F4440258CE
:10145000000002580004025800080258000C02580C
:10146000001002580014025800180258001C0258BC
:1014700000240258014880687047000008000024DA
:101480000248816802781144816070470800002496
:10149000032010B500F086F801F028F80F4A104933
:1014A00014681368C4F3032203F00F038A5CC95C59
:1014B00002F01F0201F01F01D0400A4A20FA01F198
:1014C0001160094908600F2000F010F808B10120F0
:1014D00010BD00F02BF8002010BD00001844025889
:1014E000823B0008180000241400002470B50D4D44
:1014F00004462878A0B14FF47A71B1FBF0F00A49A4
:101500000968B1FBF0F001F020FB48B9102C07D2BC
:1015100000222146501E00F025F800206C6070BDAE
:10152000012070BD0800002414000024054808B5FF
:10153000016841F002010160006800F002000090C3
:1015400008BD0000F4440258002809DB410900F0FE
:101550001F028900012001F1E0219040C1F8000143
:10156000704700000E4BF0B41B680D46C3F3022316
:10157000C3F10706042E00D90426191D072901D23C
:10158000002300E0DB1E012404FA06F19C40491E02
:101590002940641E994014402143F0BC02F093BAE4
:1015A0000CED00E0064900F0070210B54FF6FF040D
:1015B0000868044B204040EA02201843086010BD30
:1015C0000CED00E00000FA05134970B50A68D2433B
:1015D000520705D5096801F00701814213D118E0CF
:1015E0000A6822F0070202430A60FFF743FF0A4D30
:1015F0004FF47A760446083D07E000BFFFF73AFF54
:10160000001BB04201D9012070BD2868C04380048E
:10161000F4D4002070BD00000C48025810B500F052
:101620001FFF05490968054AC1F30211515C01F029
:101630001F01C84010BD000020440258823B000832
:10164000494930B5484C0B1D0A68143409681D68B7
:10165000246802F00303C5F30012C1F30531C4F39B
:10166000CC04002914FB02F200EE102AF8EE400A26
:1016700075D03F4A9FED3D1AB7EE000A6BB1DFED22
:101680003D1A012B01D0022B64D002EE101A116812
:10169000F8EE422A81EEA22A21E0334C283C23684E
:1016A0009B0612D5344B246801EE901A1168C4F3DE
:1016B000C104F8EE612AE34001EE903AC1F308015B
:1016C000F8EE611A81EEA22A0BE001EE901ADFED2E
:1016D0002B2A00BFF8EE611A116882EEA12AC1F32D
:1016E000080101EE901A1168F8EE611A40EE811AB5
:1016F00071EE800A62EE200AC1F3462101EE101A53
:10170000B8EE411A31EE001AC0EE811ABCEEE11AB1
:1017100080ED001A1168C1F3064101EE101AB8EE0F
:10172000411A31EE001AC0EE811ABCEEE11A80EDCA
:10173000011A1168C1F3066101EE101AB8EE411AE0
:1017400031EE000A80EE801ABCEEC10A80ED020A7A
:1017500030BD04E001EE901ADFED092ABAE700215E
:10176000016041608160F3E72844025800000039BD
:10177000384402580024744A0090D0030024744C6A
:10178000001BB74B494930B5484C0B1D0A681C3447
:1017900009681D68246802F00303C5F30022C1F341
:1017A0000551C4F3CC04002914FB02F200EE102A08
:1017B000F8EE400A75D03F4A9FED3D1AB7EE000A99
:1017C0006BB1DFED3D1A012B01D0022B64D002EE8C
:1017D000101A1168F8EE422A81EEA22A21E0334C59
:1017E000283C23689B0612D5344B246801EE901ADE
:1017F0001168C4F3C104F8EE612AE34001EE903AA7
:10180000C1F30801F8EE611A81EEA22A0BE001EEA5
:10181000901ADFED2B2A00BFF8EE611A116882EEF4
:10182000A12AC1F3080101EE901A1168F8EE611ABD
:1018300040EE811A71EE800A62EE200AC1F3462161
:1018400001EE101AB8EE411A31EE001AC0EE811AFC
:10185000BCEEE11A80ED001A1168C1F3064101EEF9
:10186000101AB8EE411A31EE001AC0EE811ABCEE21
:10187000E11A80ED011A1168C1F3066101EE101A38
:10188000B8EE411A31EE000A80EE801ABCEEC10AB1
:1018900080ED020A30BD04E001EE901ADFED092A66
:1018A000BAE70021016041608160F3E728440258F3
:1018B00000000039404402580024744A0090D003CC
:1018C0000024744C001BB74B2DE9FE4F0546DFF892
:1018D00000A450F8081B0024FD4FC943019005F1F6
:1018E000280026460AF1240A009008011DD4686EDB
:1018F00050B1B0F5801F0CD0B0F5001F0ED0B0F580
:10190000401F1ED001240FE0386840F400303860DA
:1019100017E00198022101F0CBFB03E000980221BF
:1019200001F056FC04000CD026462888C043C005B0
:1019300023D4A86D05281ED2DFE800F00C11161B79
:101940001B006A6EDAF8001021F440111143CAF846
:101950000010EAE7386840F40030386009E0019888
:10196000002101F0A5FB03E00098002101F030FC0C
:101970000446C4B100E0012426462888DFF85083DD
:10198000C04308F12C0840052FD4D5F8A400B0F5C9
:10199000C00F28D010DCB8B1B0F5001F19D0B0F5D9
:1019A000800F0FD11AE0AA6DDAF8001021F00701BC
:1019B0001143CAF80010E0E7B0F5000F13D0B0F5FE
:1019C000200F10D001240FE0386840F40030386058
:1019D00009E00198002101F06BFB03E00098002171
:1019E00001F0F6FB044694B126462888C043000562
:1019F00030D4D5F8A800B0F1407F29D011DCC0B1B7
:101A0000B0F1807F1AD0B0F1007F10D11BE0D5F883
:101A1000A420D8F8001021F460011143C8F8001088
:101A2000E3E7B0F1806F13D0B0F1A06F10D00124C4
:101A30000FE0386840F40030386009E00198002178
:101A400001F036FB03E00098002101F0C1FB0446E1
:101A500094B126462868DFF878B2C0430BF1200B1A
:101A600080011FD4E86CD8B110280FD0202812D0E4
:101A7000302815D0012414E0D5F8A820D8F800109B
:101A800021F0E0611143C8F80010E3E7386840F442
:101A90000030386004E00198022101F009FB04469F
:101AA00074B126462888C043C0042BD4E86DB0F535
:101AB000005F20D00DDCA0B1B0F5805F0FD115E044
:101AC000EA6CDBF8001021F030011143CBF8001074
:101AD000E8E7B0F5405F13D0B0F5804F10D0012497
:101AE0000FE0386840F40030386009E001980021C8
:101AF00001F0DEFA03E00098002101F069FB0446E2
:101B00008CB126462888C043800429D4286EB0F5BD
:101B1000403F23D010DC08B3B0F5803F14D0B0F5BF
:101B2000003F0FD115E0EA6DDAF8001021F4E04132
:101B30001143CAF80010E5E7B0F5802F0ED0B0F5DC
:101B4000A02F0BD001240AE00198012101F0B0FA86
:101B500003E00098012101F03BFB044694B12646C6
:101B60002888C04340042AD4D5F8AC00B0F1405FC7
:101B700023D010DC08B3B0F1805F14D0B0F1005F67
:101B80000FD115E02A6EDAF8001021F4E02111439C
:101B9000CAF80010E4E7B0F1804F0ED0B0F1A04FCA
:101BA0000BD001240AE00198012101F081FA03E041
:101BB0000098012101F00CFB044674B126462888E8
:101BC000C04300041FD4E86ED8B1B0F1805F0ED0DE
:101BD000B0F1005F10D0012414E0D5F8AC20D8F8A3
:101BE000001021F0E0411143C8F80010E7E7386821
:101BF00040F40030386004E00198012101F058FA07
:101C0000044674B126462868C043C0011ED4A86C9F
:101C1000D0B101280ED0022811D0032814D00124FD
:101C200013E0EA6EDAF8001021F040511143CAF8CF
:101C30000010E8E7386840F40030386004E00198AC
:101C4000022101F035FA04466CB126462868C043EB
:101C5000400255D41F48016841F480710160FFF7CC
:101C600009FC81460EE0AA6CDBF8001021F00301AC
:101C70001143CBF80010E9E7FFF7FCFBA0EB0900EC
:101C800064283BD813480068C005F5D5BCBBDFF815
:101C90004090B5F8B01009F14409D9F8000001F4FA
:101CA000407100F44070884211D0D9F80010D9F882
:101CB000002021F4407142F48032C9F80020D9F8A4
:101CC000002022F48032C9F80020C9F8001003E097
:101CD0002C44025800480258D5F8B000B0F5807F77
:101CE00019D1FFF7C7FB029011E000BFFFF7C2FB5D
:101CF0000299411A41F28830814208D903242646CC
:101D00002878DFF81494C043C00721D03CE0D9F80C
:101D100000008007EAD5D5F8B010C1F301200328F0
:101D2000FE480DD0016821F47C510160B5F8B02067
:101D3000D9F80010C2F30B021143C9F80010DFE715
:101D4000F74A036802EA111223F47C511143ECE7CD
:101D5000A86F182816D005DCA0B1082808D01028D4
:101D600004D10AE020280DD028280BD001240AE055
:101D70000198012101F09CF903E00098012101F094
:101D800027FA044664B126462878C04380071ED44B
:101D9000686F062819D2DFE800F0160C1116161627
:101DA000AA6FD9F8001021F038011143C9F80010CA
:101DB000EAE70198012101F07BF903E00098012195
:101DC00001F006FA04467CB100E00124264628789A
:101DD000C04340071FD4D5F89000062819D2DFE889
:101DE00000F0160C111616166A6FD9F8001021F0C3
:101DF00007011143C9F80010E9E70198012101F03A
:101E000057F903E00098012101F0E2F90446A4B17A
:101E100000E0012426462878C04380062BD4D5F85C
:101E20008C00B0F1405F24D011DC10B3B0F1805FC2
:101E300015D0B0F1005F10D116E0D5F89020D8F899
:101E4000001021F007011143C8F80010E3E7B0F1DA
:101E5000804F0ED0B0F1A04F0BD001240AE00198C2
:101E6000002101F025F903E00098022101F0B0F90A
:101E7000044694B126462878C04340062BD4D5F8B2
:101E80009800B0F5406F24D011DC10B3B0F5806F2E
:101E900015D0B0F5006F10D116E0D5F88C20D9F828
:101EA000001021F0E0411143C9F80010E3E7B0F55C
:101EB000805F0ED0B0F5A05F0BD001240AE001983E
:101EC000002101F0F5F803E00098022101F080F90B
:101ED000044694B126462878C04300062BD4D5F892
:101EE0009C00B0F5C04F24D011DC10B3B0F5005FFA
:101EF00015D0B0F5804F10D116E0D5F89820D8F85D
:101F0000001021F4E0511143C8F80010E3E7B0F5E8
:101F1000004F0ED0B0F5204F0BD001240AE00198FD
:101F2000002101F0C5F803E00098022101F050F90A
:101F3000044654B126462878C04300071ED4D5F87D
:101F40008000B0F5805F0AD00FE0D5F89C20D8F86B
:101F5000001021F460411143C8F80010EBE700982D
:101F6000022101F035F900B10126D5F88020D9F819
:101F7000001021F440511143C9F800102878C043E3
:101F8000C00613D4D5F89400B0F5807F05D1009831
:101F9000022101F01DF900B10126D5F89420D8F8EE
:101FA000001021F440711143C8F800102868C043A4
:101FB000000316D4D5F8A00038B1B0F5803F09D0A1
:101FC000B0F5003F0BD001240AE00198002101F098
:101FD0006FF803E00098022101F0FAF804468CB192
:101FE00026462868C043400322D4D5F88400B0F5C3
:101FF000801F11D0B0F5001F13D0B0F5401F15D0D1
:10200000012414E0D5F8A020D8F8001021F44031C4
:102010001143C8F80010E4E7386840F40030386035
:1020200004E00098012101F0D3F804465CB1264693
:102030002868C043C0031CD4286D70B1B0F5803F40
:1020400010D0012414E0D5F88420D9F8001021F430
:1020500040111143C9F80010EAE7386840F4003035
:10206000386004E00198022101F022F80446DCB156
:1020700026462868C043800005D40098022101F05C
:10208000A7F800B101262868C04380031BD4E86F7D
:10209000B8B1B0F5807F10D0B0F5007F11D0B0F5A9
:1020A000407F0ED001240DE02A6DDBF8001021F4F2
:1020B00080311143CBF80010DBE7386840F4003082
:1020C00038607CB326462868C043C00207D42A6F14
:1020D000DAF8001021F000411143CAF80010286816
:1020E000C043800207D4AA6EDAF8001021F0807194
:1020F0001143CAF800102868C043400009D40748BB
:10210000016821F4004101600168D5F8B420114351
:1021100001602868C04306E0544402581044025845
:10212000CFFFFF001DE007D46A6DDBF8001021F03F
:1021300040511143CBF800102868C043000208D476
:10214000D5F88820D9F8001021F440011143C9F8CE
:10215000001028790024C04300F00100204309D07A
:102160000EE0EA6FD9F8001021F440711143C9F86C
:102170000010A8E70198002100F09AFF00B1064680
:102180002879C04300F00200204305D101980121C5
:1021900000F08EFF00B106462879C04300F004002D
:1021A000204305D10198022100F082FF00B10646CC
:1021B0002879C04300F00800204305D10098002191
:1021C00001F006F800B106462879C04300F010007F
:1021D000204305D10098012100F0FAFF00B1064626
:1021E0002879C04300F02000044304D10098022164
:1021F00000F0EEFF00B916B10120BDE8FE8F00200F
:10220000FBE700002DE9F05F04000F467ED0DFF809
:102210003882D8F8000000F00F00B8420CD2D8F88D
:10222000001021F00F013943C8F80010D8F8000061
:1022300000F00F00B84269D12078844D40070AD5DC
:102240002069296801F07001884204D9296821F0C9
:1022500070010143296020787C4E361D00070AD5A5
:102260006069316801F07001884204D9316821F059
:102270007001014331602078C0060AD5A069316839
:1022800001F4E061884204D9316821F4E06101433E
:1022900031602078DFF8B4B180060BF1080B0CD563
:1022A000E1695846DBF8002002F07002914204D93F
:1022B000026822F070020A430260207880070AD583
:1022C000E068296801F00F01884204D9296821F0EB
:1022D0000F01014329602078C0073ED05B49A26806
:1022E0002868183920F4706010432860606802285C
:1022F00018D0032819D00968012819D049070029E6
:102300004ADADFF848A1AAF1080A00E044E0DAF866
:10231000002022F007020243CAF80020FFF7AAF8C3
:10232000814612E009688903E9E709688901E6E75F
:10233000C905E4E7FFF79EF8A0EB090141F28830F8
:10234000814202D90320BDE8F09F6168DAF80000FD
:1023500000F03800B0EBC10FECD1207880070AD52F
:10236000E068296801F00F01884204D2296821F051
:102370000F0101432960D8F80010404601F00F0119
:10238000B9420BD9016821F00F013943016000689F
:1023900000F00F00B84201D00120D4E720784007B8
:1023A0000AD52069296801F07001884204D22968A1
:1023B00021F0700101432960207800070AD5606987
:1023C000316801F07001884204D2316821F0700157
:1023D000014331602078C0060AD5A069316801F454
:1023E000E061884204D2316821F4E0610143316048
:1023F000207880060CD5E1695846DBF8002002F011
:102400007002914204D2026822F070020A43026014
:1024100000F06CF80E492A682B68C2F3032203F01F
:102420000F038A5CC95C02F01F0201F01F01D0405B
:10243000084A20FA01F1116007490860074800685E
:10244000BDE8F05FFFF752B8002000521844025870
:10245000823B000818000024140000240C00002413
:1024600030B500F043F80B4A0B490C4B1568146863
:10247000C5F3032204F00F048A5C095D02F01F0219
:1024800001F01F01D040064A20FA01F119601060E6
:10249000084630BD18440258823B0008180000244A
:1024A0001400002400B5FFF7DBFF05490968054A61
:1024B000C1F30211515C01F01F01C84000BD0000D2
:1024C0001C440258823B000800B5FFF7C9FF0549CC
:1024D0000968054AC1F30221515C01F01F01C8409F
:1024E00000BD00001C440258823B0008454970B5FD
:1024F00045480968434B103B11F0380208D00111E0
:10250000082A03D0102A0BD0182A0BD0084670BD19
:1025100019688906FBD51968C1F3C101C84070BDAF
:102520003A4870BD3749374D18310C1D24350A68BB
:10253000096826682D6802F0030406F00102C1F361
:102540000511C5F3CC0515FB02F200EE102AB8EE1A
:10255000400AE9B32F4ADFED2E0AB7EE001A6CB13C
:10256000DFED2D1A012C01D0022C43D002EE101AFF
:102570001068F8EE422A81EEA22A1EE01C68A4062A
:1025800011D51B6801EE901A1168C3F3C103F8EE70
:10259000612AD84001EE900AC1F30800F8EE611AF2
:1025A00081EEA22A0BE001EE901ADFED1C2A00BF9B
:1025B000F8EE611A106882EEA12AC0F3080001EE5D
:1025C000900AF8EE611A40EE201A31EE810A00E01E
:1025D00015E022EE000A1068C0F34620401C00EE11
:1025E000900AF8EE600A80EE201ABCEEC10A10EEE6
:1025F000100A70BD01EE901ADFED092AD8E700201D
:1026000070BD0000104402580090D00300366E01E7
:1026100000000039304402580024744A0024744CED
:10262000001BB74B2DE9F05F04007DD0FF4F2078F1
:10263000FE4D1837DFF8F483103DC00748D0D8F8B6
:102640000000396800F03800102815D0182803D190
:1026500001F0030002280FD06068B0F5803F12D06F
:1026600010B1B0F5A02F18D0286820F48030286071
:10267000286820F4802009E02868800328D5606855
:102680000028D2D024E0286840F4803028606068B8
:1026900088B1FEF7EFFE064609E0286840F4802086
:1026A0002860F0E7FEF7E6FE801B64287ED82868E5
:1026B0008003F7D50CE0FEF7DDFE064605E000BF1F
:1026C000FEF7D8FE801B6428F0D828688003F7D472
:1026D0002078800756D5D8F80000DFF85093396885
:1026E00010F03800A9F10C090ED0182801D1880784
:1026F0000AD0E068A8B3296821F0190101432960D4
:10270000FEF7B8FE064628E02868400702D5E068D4
:1027100000288AD0E168286820F019000843286062
:10272000FEF7A8FE064606E0D2E000BFFEF7A2FED6
:10273000801B0228BAD828684007F7D5217CD9F831
:10274000002022F0FE4242EA0161C9F8001019E0BF
:10275000FEF790FE801B0228A8D828684007F7D50E
:10276000ECE7FFE7286820F001002860FEF782FE12
:10277000064604E0FEF77EFE801B022896D82868F5
:102780004007F7D42078C00646D5D8F80000DFF817
:102790009C92396800F03800A9F10409082812D089
:1027A000182805D101F00300012800E0CEE00AD08E
:1027B000E0690028286820D040F080002860FEF7FB
:1027C00059FE064615E02868C00502D5E069802854
:1027D0007ED194F82010D9F8002022F07C5242EAF1
:1027E0000161C9F8001017E0FEF744FE801B0228C3
:1027F000A0D82868C005F7D5EBE720F08000286056
:10280000FEF738FE064604E0FEF734FE801B022881
:1028100090D82868C005F7D42078000729D58348C8
:102820006169643000298146016811D041F00101DD
:102830000160FEF71FFE064605E000BFFEF71AFE28
:10284000801B022888D8D9F800008007F6D510E050
:1028500021F001010160FEF70DFE064605E000BF14
:10286000FEF708FE801B022870D8D9F80000800708
:10287000F6D42078800623D5A0690028286810D0D7
:1028800040F480502860FEF7F5FD064605E000BFE5
:10289000FEF7F0FD801B022858D828688004F7D581
:1028A0000EE020F480502860FEF7E4FD064604E0C8
:1028B000FEF7E0FD801B022848D828688004F7D482
:1028C0002078400751D5DFF86891D9F8001000E072
:1028D00015E141F48071C9F80010FEF7CBFD064602
:1028E00005E000BFFEF7C6FD801B64282ED8D9F88E
:1028F0000000C005F6D54D4EA068603601280AD00C
:1029000008B1052813D0306820F00100306030682D
:1029100020F0040002E0306840F001003060A06860
:1029200041F2883A98B1FEF7A5FD81460AE0306889
:1029300040F004003060EEE7FEF79CFDA0EB0901DB
:10294000514503D830688007F6D50EE072E0FEF7F7
:1029500091FD814606E000BFFEF78CFDA0EB09016A
:10296000514567D830688007F6D4606A00287CD06B
:10297000DFF8B8A0D8F800100AF1200A4FF6F87B6B
:102980000AF10408C1F3C2010329AAF104096DD0B8
:102990000228286820F08070286003D0FEF76AFDC6
:1029A000044681E0FEF766FD064604E0FEF762FDA0
:1029B000801B022875D828688001F7D4E26A40F2AB
:1029C000F331386854F8283F884340EA021018432E
:1029D0003860217B4FF4FE0C22894FF0FE47208A9D
:1029E0004902267D521E401EA1F5007189B2C2F334
:1029F00008021143761E0CEA00400143484607EAEC
:102A000006621143CAF80010D9F8001021F0010144
:102A1000C9F80010D8F80030266A23EA0B0343EA0D
:102A2000C601C8F80010D9F8001004E0104402589C
:102A30000048025835E0A26921F00C011143C9F8A1
:102A400000100168E26921F0020111430160016890
:102A500041F480310160016841F400310160016896
:102A600041F480210160016801E06CE020E041F068
:102A700001010160286840F080702860FEF7FAFCD0
:102A8000044604E0FEF7F6FC001B022809D828687B
:102A90008001F7D557E000BFFEF7ECFC001B0228D1
:102AA00002D90320BDE8F09F28688001F4D44AE0F1
:102AB00039680128DAF8000021D0A26A01F0030386
:102AC00093421CD1E26AC1F305118A4217D1216BEE
:102AD000C0F30802491E8A4211D1616BC0F346223D
:102AE000491E91420BD1A16BC0F30642491E91428F
:102AF00005D1E16BC0F30660491E814201D001207F
:102B0000D0E7A16C4646D8F80000C0F3CC00814263
:102B100019D0D9F800004D4620F00100C9F8000096
:102B2000FEF7A8FC4FEA0007FEF7A4FCB842FBD072
:102B3000A26C306820EA0B0040EAC20030602868CE
:102B400040F0010028600020ACE7401EB0F1807F1B
:102B500010B501D3012010BD4FF0E02460610F21BA
:102B6000601700F0B0FF0020A0610721216110BDB7
:102B700030B590F88410012918D0012280F8842003
:102B80002421C0F888100022202401680B680D68F9
:102B900023F0005325F001050D60426601680B60CB
:102BA000C0F8884080F88420104630BD022030BD37
:102BB00070B5044690F8840001281DD0012284F8E5
:102BC00084202420C4F8880020680568026822F068
:102BD000010202602068826822F060620A4382601B
:102BE000204600F035FC2268202100201560C4F842
:102BF000881084F8840070BD022070BD70B5044652
:102C000090F8840001281DD0012284F8842024201B
:102C1000C4F8880020680568026822F0010202609A
:102C20002068826822F060420A438260204600F0F9
:102C30000FFC2268202100201560C4F8881084F859
:102C4000840070BD022070BD10B5040003D0D4F81C
:102C5000880010B107E0012010BD002084F8840036
:102C6000204600F027F82420C4F888002068016876
:102C700021F001010160204600F0F0FC0128EBD0BA
:102C8000A06A10B1204600F005FC2068416821F4DC
:102C9000904141602068816821F02A0181602068AC
:102CA000016841F0010101602046BDE8104000F0DC
:102CB00055BC00002DE9F047B4B0064614212EA8FB
:102CC000FDF7EBFBB8216846FDF7E7FB5A49022701
:102CD00030680024564D4FF00709DFF858A18842AC
:102CE00026D100201D940221CDE900106846FEF790
:102CF000EBFD08B1FDF749FD4D480830016841F092
:102D000080410160006800F080403390286840F006
:102D10001000286028684FF4C0712E912EA900F091
:102D20001000CDE92F743194CDE9329050467BE00C
:102D30004249DFF80C81884241D100201E940121D4
:102D4000CDE900106846FEF7BFFD08B1FDF71DFD97
:102D5000D8F8001041F01001C8F80010D8F80000B1
:102D600000F010003390286840F0010028602868C7
:102D70004FF4C0612E912EA900F00100CDE92F740F
:102D80003194CDE932902F48FEF766FA2E4D2A2174
:102D90002E48402285E81700871503152846C5E907
:102DA0000434C5E906472C626C62FEF765F808B189
:102DB000FDF7EBFCF567AE6334B0BDE8F08724495E
:102DC0008842F9D100201E940121CDE90010684607
:102DD000FEF77AFD08B1FDF7D8FCD8F8001041F0F5
:102DE0008001C8F80010D8F8000000F0800033908F
:102DF000286840F01000286028682EA9554600F089
:102E00001000339004202E90CDE92F74CDE931408D
:102E10005046FEF721FA0B2108202E90CDE92F74A1
:102E2000CDE931412EA92846FEF716FAC4E7000085
:102E3000E0440258001002580078004000100140A1
:102E4000F044025800000258D80100242800024033
:102E5000001C01402DE9F8430446D0F8880098464C
:102E600016460D46202802D00220BDE8F883A5B101
:102E70009EB10021C4F890102120C4F888001834B5
:102E8000FEF7F8FA814654F8100CA687E68720274B
:102E9000183CB0F5805F02D003E00120E5E720692F
:102EA00010B12E46002510E000260EE080212046BD
:102EB00000F0C2FDC0B9DEB116F8010B21688862CE
:102EC000B4F85600401EA4F85600B4F856004B461D
:102ED0004FF00002CDF800800028E7D14FF040010C
:102EE000204600F0A9FD48B1C4F888700320BCE773
:102EF00035F8020B2168C0F30800E0E7C4F88870D9
:102F00000020B2E7FEE70000094808B5016841F07B
:102F10000101016000680022114600F001000090EC
:102F20000C20FEF71FFBBDE808400C20FEF70CBB91
:102F3000D84402580D4808B5016841F010010160FD
:102F4000016801F010010091016841F08001016009
:102F5000016801F080010091016841F00101016008
:102F6000006800F00100009008BD0000E044025835
:102F70001848002110B5164C0C224FF46123046050
:102F8000C0E90131C160C0E904128161C16101621F
:102F900041628162FFF758FE08B1FDF7F6FB0D486C
:102FA0000021FFF72BFE08B1FDF7EFFB09480021D8
:102FB000FFF7FEFD08B1FDF7E8FB0648FFF7D8FD77
:102FC000002803D0BDE81040FDF7DFBB10BD0000B6
:102FD000007800401C0000241848002110B5164C51
:102FE0000C224FF461230460C0E90131C160C0E9E3
:102FF00004128161C161016241628162FFF724FEB6
:1030000008B1FDF7C2FB0D480021FFF7F7FD08B13D
:10301000FDF7BBFB09480021FFF7CAFD08B1FDF72A
:10302000B4FB0648FFF7A4FD002803D0BDE810401C
:10303000FDF7ABBB10BD0000001C014044010024A3
:103040001848002110B5164C0C224FF4612304607F
:10305000C0E90131C160C0E904128161C16101624E
:1030600041628162FFF7F0FD08B1FDF78EFB0D486C
:103070000021FFF7C3FD08B1FDF787FB09480021D8
:10308000FFF796FD08B1FDF780FB0648FFF770FDDE
:10309000002803D0BDE81040FDF777BB10BD00004D
:1030A00000100140B0000024FEE7FEE7704700007A
:1030B0002DE9F047454D044689464FF0000A28683F
:1030C000C04380070AD0414E283E306820F080601F
:1030D0003060FEF7CFF90746B04608E00120BDE8B2
:1030E000F08700BFFEF7C6F9C01B022867D8D8F8E2
:1030F00000000001F6D4206829684FF4FE0721F48F
:103100007C313E0241EA00302860207AA389B4F87D
:1031100004C040022D4D2D495B1E227CACF1010CF8
:103120001035091DA0F5007080B2521ECCF3080CBA
:1031300007EA034340EA0C00184306EA0262104320
:1031400028600868626920F0C000104308600A68BF
:10315000A06922F0200202430A60281D0A6822F0BA
:1031600010020A6002684FF6F873E4699A4342EA73
:10317000C40202600868B9F1000F40F010020A6052
:1031800011D00868B9F1010F11D040F400100860A7
:10319000D8F80000444640F08060C8F80000FEF710
:1031A00069F905460DE0086840F40020EFE740F4B7
:1031B0008010ECE7FEF75EF9401B022801D90320DE
:1031C0008DE720680001F5D5504688E7284402586D
:1031D0002DE9F047454D044689464FF0000A28681E
:1031E000C04380070AD0414E283E306820F080500E
:1031F0003060FEF73FF90746B04608E00120BDE821
:10320000F08700BFFEF736F9C01B022867D8D8F850
:1032100000008000F6D4208829684FF4FE0721F0D2
:103220007C713E0241EA00502860207AA389B4F8FC
:1032300004C040022D4D2D495B1E227CACF1010CD7
:103240001835091DA0F5007080B2521ECCF3080C91
:1032500007EA034340EA0C00184306EA02621043FF
:1032600028600868626920F44060104308600A68BA
:10327000A06922F4007202430A60281D0A6822F441
:1032800080720A6002684FF6F873E4699A4342EA72
:10329000C40202600868B9F1000F40F480720A604D
:1032A00011D00868B9F1010F11D040F080700860AA
:1032B000D8F80000444640F08050C8F80000FEF7FF
:1032C000D9F805460DE0086840F48000EFE740F4C7
:1032D0000000ECE7FEF7CEF8401B022801D90320DE
:1032E0008DE720688000F5D5504688E728440258CD
:1032F0007047FEF7C5B8000070B59CB04C21684619
:10330000FDF7CBF8202113A8FDF7C7F80220FEF740
:103310005BF91E48016821F4404101600168002406
:1033200001F440411B9101688904FCD502200A90F8
:1033300028230990C20301210D910425CDE9001233
:10334000CDE90B030C261294CDE90E50CDE91064A3
:103350006846FFF767F908B172B6FEE740201A9099
:1033600008230501CDE9163013ABCDE918053F213F
:10337000032283E8160013A81146FEF743FF002836
:1033800001D072B6FEE71CB070BD000018480258AC
:103390002748F0B5274A016841F4700101601068C0
:1033A00000F00F00072804D2106820F00F00C01DA5
:1033B000106021490020204C10340B681F4D43F051
:1033C00001030B6020600B682B400B60136803F057
:1033D0000F03072B04D9136823F00F03DB1D1360C1
:1033E000154C174A1834174B261D371D2060124CF8
:1033F000154D28343060261D3860371D23603B1D75
:1034000035601C1D3A60251D2E1D1860331D22607D
:103410002860326018600A6843F2D204064B0B4DF4
:1034200022F4802260330A6018602C60F0BD000036
:1034300088ED00E000200052004402587FEDF6EADB
:1034400080020101000202020000FF010040005260
:1034500030B5416EB9B101680D4B03F108048A68BB
:103460008968C2F34262490F5D5C615C2D01B5FB66
:10347000F1F1A0F86A10995CA25C0901B1FBF2F1CC
:10348000A0F8681030BD0121A0F86A10F8E700002C
:10349000723B000890F82810C90706D00168C36A7B
:1034A0004A6822F400321A434A6090F828108907CB
:1034B00006D50168036B4A6822F480321A434A60D9
:1034C00090F82810490706D50168436B4A6822F432
:1034D00080221A434A6090F82810090706D501682F
:1034E000836B4A6822F400421A434A6090F828101D
:1034F000C90606D50168C36B8A6822F480521A4354
:103500008A6090F82810890606D50168036C8A68DD
:1035100022F400521A438A6090F82810490611D507
:103520000168436C4A6822F480121A434A60416C75
:10353000B1F5801F06D10168836C4A6822F4C0028D
:103540001A434A6090F82810090606D50168C26C33
:10355000486820F400201043486070472DE9F84384
:1035600000250446C0F89050FDF784FF804620688F
:1035700020266FF07E470068000713D500224346DF
:1035800031042046009700F057FA58B1216851E8FD
:10359000000F20F0800041E80002002AF6D1C4F8B4
:1035A000886021E020680068400722D50022434659
:1035B0004FF480012046009700F03EFAC8B1206821
:1035C00050E8001F21F4907140E80012002AF6D163
:1035D0002068083050E8001F21F0010140E8001287
:1035E000002AF5D1C4F88C60032084F88450BDE82B
:1035F000F883C4F88860C4F88C60E566256700200D
:1036000084F88450F3E7000010B5026852E8001F08
:1036100021F4907142E80013002BF6D10E4B0268A2
:10362000083252E8001F194042E80014002CF6D17D
:10363000C16E012908D1026852E8001F21F0100173
:1036400042E80013002BF6D100212022C0F88C2084
:10365000C166416710BD0000FEFFFFEF2DE9F0439A
:1036600004468068E24E87B0E24B2168D4E9042723
:10367000D4F81CC010430A68002547EA0C073843F9
:10368000324002430A602068E268416821F44051F8
:10369000114341602268A1699A4201D0206A014326
:1036A0009668DFF854C3D54FD54806EA0C060E439A
:1036B00096602168666ACA6A22F00F023243CA62C3
:1036C0002268BA420ED1006800F0380018286FD086
:1036D0007ADCB8B308286CD010286BD18BE028288E
:1036E00068D18EE0C7498A4209D1006800F007001E
:1036F00006285FD2DFE800F0507D7F818385C249D4
:103700008A4209D1006800F0070006287BD2DFE872
:1037100000F0437072747678BC498A4209D100681F
:1037200000F0070006286ED2DFE800F03663656718
:10373000696BB7498A420BD1006800F00700062880
:1037400061D200E043E0DFE800F0275456585A5CAD
:10375000B0498A4206D1006800F0380018284CD0E1
:10376000B7DD31E0AC498A4209D1006800F00700BA
:10377000062848D2DFE800F0103D3F414345A74905
:103780008A420BD1006800F0070006283BD2DFE830
:1037900000F0033032343638002035E0A0498A4248
:1037A00009D1006800F03800182826D091DD0BE020
:1037B00023E01EE027E09B498A420AD1006800F01E
:1037C0003800182819D084DD202888D11CE0012079
:1037D0001AE09A4217D18A48001D006800F00700DD
:1037E000062810D2DFE800F0030507090B0D0220C0
:1037F0000AE0042008E0082006E0102004E0202071
:1038000002E0402000E080208749DFF820829A42D1
:10381000874A4FF400434FEA21174FF000064ED17C
:1038200010281AD006DC022809D004280BD008285A
:103830007ED10DE020283ED0402879D13DE0FDF733
:10384000EDFE014610E06846FDF7FAFE01990BE037
:1038500003A8FDF797FF049906E01068800605D5D8
:103860001068C0F3C100C140002970D0606A676869
:1038700038F8102007EB4703B1FBF2F0834257D82A
:10388000B0EB073F54D8002308461946FCF78EFDDD
:1038900002467808130E120243EA012110183A4634
:1038A00071410023FCF782FD624AA0F5407191420C
:1038B0003ED821688FE03946D8E71946D6E7D4F8D4
:1038C0001CC04FF6EF799C4546D1082819D005DC7D
:1038D00058B101280CD0042875D10DE0102815D05E
:1038E000202835D040286ED134E0FEF7DBFD01E022
:1038F000FEF7EAFD014610E06846FDF7A1FE0199DA
:103900000BE003A8FDF73EFF049906E0106880066F
:1039100004D51068C0F3C100C140C1B1636A6068DA
:1039200038F81330B1FBF3F1490001EB500100E02E
:1039300049E0B1FBF0F0A0F11001494543D84FF642
:10394000F0732168C0F342021840104343E043E0A3
:103950003946E3E71946E1E7082819D005DC58B1F4
:1039600001280CD004282ED10DE0102815D02028D5
:103970002BD0402827D12AE0FEF794FD01E0FEF786
:10398000A3FD014610E06846FDF75AFE01990BE0E1
:1039900003A8FDF7F7FE049906E01068800604D539
:1039A0001068C0F3C100C140B1B1636A606838F803
:1039B0001330B1FBF3F101EB5001B1FBF0F0A0F1DA
:1039C0001001494505D9012506E03946EDE71946BC
:1039D000EBE7216880B2C8600120A4F86A00A4F86F
:1039E000680028466667A66707B0BDE8F083000058
:1039F000F369FFCF000C0058FFF4FF1100100140E5
:103A0000544402580044004000480040004C00402C
:103A1000005000400014014000780040007C00404D
:103A200000180140001C01400090D0035A3B0008E0
:103A300000440258FFFC0F002DE9F0479946174655
:103A40000E460446089D4FF000082FE0681C2DD05C
:103A5000FDF710FDA0EB0900A84214D89DB1206825
:103A60000168490722D5C169C94309070DD4082552
:103A700005622046FFF7C8FDC4F89050012084F885
:103A80008480BDE8F0870320FBE7C069C0430005E0
:103A90000CD421684FF4006008622046FFF7B4FDA3
:103AA0002021C4F8901084F88480ECE72068C06975
:103AB00036EA000004D00020B842C7D00020E0E77A
:103AC0000120F9E7FEE7090700284FEA116104DB4E
:103AD00000F1E02080F80014704700F00F0000F1C2
:103AE000E02080F8141D7047FDF7D2FCFFF704FCBE
:103AF000FFF720FAFFF708FAFFF7A2FAFFF76CFAD0
:103B0000FFF736FA4FF4FA754FF6FF740A490822A8
:103B10000A482346FFF79EF907490822084823462A
:103B2000FFF798F90449082206482346FFF792F95F
:103B30002846FDF77FFBE9E700000024B0000024E1
:103B40001C000024440100244FF04070E1EE100AF4
:103B5000704700061016000610160100020004004F
:103B6000060008000A000C00100020004000800041
:103B7000000101010103070100000804020408011B
:103B80000101000000000102030401020304060712
:103B900008090000B43B0008000000241C000000DD
:103BA00008030008D03B00081C0000249408000013
:103BB00024030008000102030405060701000000B9
:103BC00010000000000000000090D0030090D0031F
:04000005080002CD20
:00000001FF
